:020000040800F2
:1000000000050020AD0200082B28000891260008FA
:1000100029280008B90300081D3600080000000068
:10002000000000000000000000000000212E000879
:10003000BB030008000000002D280008232E000844
:10004000C7020008C7020008C7020008C70200086C
:10005000C7020008C7020008C7020008C70200085C
:10006000C7020008C7020008C7020008C70200084C
:10007000C7020008C7020008C7020008C70200083C
:10008000C7020008C7020008C7020008C70200082C
:10009000C7020008C7020008C7020008C70200081C
:1000A000C7020008C7020008C7020008C70200080C
:1000B000C7020008C7020008C7020008C7020008FC
:1000C000C7020008C7020008C7020008C7020008EC
:1000D000C7020008C7020008C7020008C7020008DC
:1000E000C7020008C702000800000000C70200089D
:1000F000C7020008C7020008C7020008C7020008BC
:10010000C7020008C7020008C7020008C7020008AB
:10011000C7020008C7020008C7020008C70200089B
:10012000C7020008C7020008C7020008C70200088B
:10013000C7020008C7020008C7020008C70200087B
:1001400000000000000000000000000000000000AF
:10015000C7020008C7020008C7020008C70200085B
:10016000C7020008C7020008C7020008C70200084B
:10017000C7020008C7020008C7020008C70200083B
:10018000C7020008C7020008C7020008C70200082B
:10019000C7020008C7020008C7020008C70200081B
:1001A000C7020008C7020008C7020008C70200080B
:1001B000C7020008C7020008C7020008C7020008FB
:1001C000C7020008C7020008C7020008C7020008EB
:1001D000C7020008C7020008C7020008C7020008DB
:1001E000C7020008C7020008C7020008C7020008CB
:1001F000C7020008C7020008C7020008C7020008BB
:10020000C7020008C7020008C7020008C7020008AA
:10021000C7020008C7020008C7020008C70200089A
:10022000C7020008C7020008C7020008000000005B
:10023000C7020008C702000800000000C70200084B
:10024000C7020008C7020008C7020008C70200086A
:10025000C7020008C7020008C7020008C70200085A
:10026000C7020008C7020008C7020008C70200084A
:10027000C7020008C7020008C7020008000000000B
:10028000C7020008C7020008C702000800000000FB
:1002900000000000C7020008DFF80CD000F07AF878
:1002A00000480047593900080005002006488047EB
:1002B00006480047FEE7FEE7FEE7FEE7FEE7FEE74B
:1002C000FEE7FEE7FEE7FEE7FD2E000899020008C4
:1002D0002DE9F05F0546002092469B46884606467B
:1002E000814640241BE0284641464746224600F00E
:1002F00041F853465A46C01A914110D31146184648
:10030000224600F028F82D1A67EB01084F462246D6
:100310000120002100F01FF817EB00094E41201EBC
:10032000A4F10104DFDC484631462A464346BDE8D5
:10033000F09FD2B201E000F8012B491EFBD27047BA
:100340000022F6E710B513460A4604461946FFF7A1
:10035000F0FF204610BD202A04DB203A00FA02F10B
:10036000002070479140C2F1200320FA03F31943A3
:1003700090407047202A04DB203A21FA02F0002145
:10038000704721FA02F3D040C2F1200291400843A5
:1003900019467047064C074D06E0E06840F001033F
:1003A00094E8070098471034AC42F6D3FFF778FF83
:1003B000C03A0008E03A0008FEE7704772B6FEE770
:1003C0002DE9F04F4F4D00224FF0010A4FF00F0B77
:1003D00092E000BF0AFA02F919EA01037ED022F086
:1003E000030606F1B0469407D6F808C4270FDFF8D5
:1003F00018810BFA07FE40450EEA0C0402D14FF0BB
:10040000000C40E0DFF804C1604502D14FF0010C60
:1004100039E0DFF8FCC0604502D14FF0020C32E059
:10042000DFF8F0C0604502D14FF0030C2BE0DFF89D
:10043000E8C0604502D14FF0040C24E0DFF8DCC0D6
:10044000604502D14FF0050C1DE0DFF8D4C06045D7
:1004500002D14FF0060C16E0DFF8C8C0604502D1AB
:100460004FF0070C0FE0DFF8C0C0604502D14FF03D
:10047000080C08E0DFF8B4C0604502D14FF0090C69
:1004800001E04FF00A0C0CFA07FCA44513D12C68CC
:100490009C432C606F684FF0B0449F436F60676867
:1004A0009F43676027689F432760D6F8084424EA83
:1004B0000E04C6F8084407680323D4084FEA42082C
:1004C0004FEA427C03FA08F34FEADC6C1F430760F3
:1004D0000BFA0CF600EB8404276A00E00BE0B7434C
:1004E0002762C4689C43C460446824EA09044460E9
:1004F00084689C438460521C31FA02F37FF46AAF33
:10050000BDE8F08F80000058000002580004025837
:1005100000080258000C025800100258001402583B
:1005200000180258001C02580020025800240258EB
:100530002DE9F84F03247D4D00234FF001094FF0C2
:10054000B04B4FF00F0AE9E009FA03F73A4076D0D2
:100550000E7906F00306012E01D0022E18D1D0F834
:1005600008C04FEA430ECE6804FA0EF82CEA080CD5
:1005700006FA0EF646EA0C068660D0F804C00E793C
:100580002CEA070CC6F300169E4046EA0C064660AD
:100590000E79F643B6070BD0C6684FEA43088F685A
:1005A00004FA08FC26EA0C0607FA08F73743C76086
:1005B0000E7906F00306022E12D1DE080F694FEA0B
:1005C000437C00EB8606B646366A4FEADC6C0AFAD4
:1005D0000CF807FA0CF726EA08063743CEF8207025
:1005E0000F7906684FEA430807F0030704FA08FC8E
:1005F00007FA08F726EA0C06374307604E6816F438
:10060000403F1CD04A4E376847F0020737603668D3
:100610009F0706F00206009623F0030606F1B04697
:10062000B6463F0FD6F80864DFF808810AFA07FCDF
:10063000404526EA0C0603D14FF0000C41E06CE087
:10064000DFF8F4C0604502D14FF0010C39E0DFF86B
:10065000ECC0604502D14FF0020C32E0DFF8E0C0A0
:10066000604502D14FF0030C2BE0DFF8D8C06045A5
:1006700002D14FF0040C24E0DFF8CCC0604502D179
:100680004FF0050C1DE0DFF8C4C0604502D14FF00B
:10069000060C16E0DFF8B8C0604502D14FF0070C39
:1006A0000FE0DFF8B0C0604502D14FF0080C08E061
:1006B000DFF8A4C0604502D14FF0090C01E04FF013
:1006C0000A0C0CFA07FC4CEA060CCEF808C44F687A
:1006D000DBF80060FF0226EA020600D516435F46FB
:1006E000CBF80060D1F804C0DBF804605FEA8C2C22
:1006F00026EA020600D516437E606E684F6826EA39
:100700000206BF0300D516436E602E684F6826EAC6
:100710000206FF0300D516432E605B1C0A6832FAFE
:1007200003F67FF411AFBDE8F88F00008000005899
:10073000F44402580000025800040258000802580D
:10074000000C0258001002580014025800180258F9
:10075000001C025800200258002402580AB181618E
:1007600070470904FBE7000001480068000C70476F
:100770000010005C01488068704700000400002001
:1007800002488168027811448160704704000020AB
:10079000032010B500F0C6F801F0CAFA0F4A10495C
:1007A00014681368C4F3032203F00F038A5CC95C66
:1007B00002F01F0201F01F01D0400A4A20FA01F1A5
:1007C0001160094908600F2000F010F808B10120FD
:1007D00010BD00F079F8002010BD00001844025848
:1007E000B03A0008140000201000002070B50D4D34
:1007F00004462878A0B14FF47A71B1FBF0F00A49B1
:100800000968B1FBF0F001F0F0FD48B9102C07D2F7
:1008100000222146501E00F065F800206C6070BD7B
:10082000012070BD0400002010000020F0B5154C20
:100830004378211D0A1D23600378F3B143680B60E0
:10084000057BC67A817A437B2D07847B45EA066562
:10085000C77B90F809C0067A90F800E045EAC140ED
:1008600040EA834040EA444040EA074040EA0C2026
:1008700040EA460040EA0E0001E0002008601060F7
:10088000F0BD000098ED00E0BFF35F8F0448002149
:100890000368034A23F480330360703211607047A9
:1008A00024ED00E0074A40F0010006497032106074
:1008B000086840F480300860BFF34F8FBFF36F8F3C
:1008C0007047000024ED00E0054808B5016841F0DC
:1008D00002010160006800F00200009008BD000005
:1008E000F44402580E4BF0B41B680D46C3F30223C8
:1008F000C3F10706042E00D90426191D072901D2C9
:10090000002300E0DB1E012404FA06F19C40491E8E
:100910002940641E994014402143F0BC02F090BE6F
:100920000CED00E0064900F0070210B54FF6FF0499
:100930000868044B204040EA02201843086010BDBC
:100940000CED00E00000FA052DE9F84F1E461546B3
:100950008A460446FFF70EFF814694F840000128BE
:100960000ED001274FF0000884F8407094F8410041
:10097000012807D05FF0020084F84080BDE8F88FBE
:100980000220FBE74221C4F8448084F84110002291
:1009900020214B462046009602F0FEF80028EBD1BD
:1009A0002168286888622168686848622168A868A8
:1009B000C86220682969026822F4400242F4800279
:1009C00011430160E9684FF000622046CAF8281020
:1009D000514601F02CFF01224B460821204600968B
:1009E00002F0DAF80028C7D122680821D16084F823
:1009F0004170C1E72DE9F84F17468B460446FFF7D3
:100A0000B9FE824694F8400001280ED001264FF02E
:100A1000000884F8406094F84100012807D00225BE
:100A200084F840802846BDE8F88F0220FBE74FF0AD
:100A30000209C4F8448084F84190002220215346E2
:100A40002046009702F0A8F80500E9D10022594697
:100A5000204601F0ECFEDBF8240058B90122534691
:100A600002212046009702F097F80500D8D12168AE
:100A7000C1F80C9084F84160D2E710B504000CD0A6
:100A80002068016821F001010160204600F0A4F80F
:100A90000020606484F8410010BD012010BD0000FA
:100AA000F8B50446FFF766FE05461CB194F8410010
:100AB00010B107E00120F8BD204600F0B1F841F286
:100AC0008830A06420686FF0FF02A168036802EB21
:100AD000012223F4F85111430160A06C002220216F
:100AE0002B460090204602F057F80028E3D12268F8
:100AF000D4E907352679E168176845EA0665DFF825
:100B000044C01943104B29430025012607EA0C076E
:100B1000394311602268D4E90517B4F810C0D2F83F
:100B200004E039430EEA030E4EEA0C4319435160C8
:100B300021680A6842F001020A60656484F8416035
:100B4000F8BD00002FFFFF00FEF8E0FF2DE9F8439D
:100B5000164688460446FFF70DFE034694F840000B
:100B600001280ED0012084F84000002794F84100AD
:100B7000012808D05FF0020584F840702846BDE8DF
:100B8000F8830220FBE7A06C8221676484F841109F
:100B9000002220210090204601F0FEFF0500EBD14D
:100BA00020687268016821F00801114301607068D3
:100BB00008280AD122681021306810632068C160BB
:100BC0002068016841F4801101604FF040624146A5
:100BD000204601F02CFECFE710B500680B49884293
:100BE00013D10B48016821F48041016009480421B8
:100BF000FFF7E6FB08484421FFF7E2FBBDE81040A1
:100C000006484FF46051FFF7DBBB10BD00500052A7
:100C1000D44402580010025800040258000C025834
:100C20002DE9F041B6B00446142130A8FFF788FB47
:100C3000C0216846FFF784FB38492068884269D1A3
:100C4000002113914FF000700C46CDE90001684679
:100C500000F024FA08B1FFF7B1FB3148016841F414
:100C600080410160006800F4804035902C4858387D
:100C7000016841F480410160016821F48041016014
:100C800027480C30016841F010010160016801F053
:100C900010013591016841F002010160016801F025
:100CA00002013591016841F00801016000680927DF
:100CB0004FF00408CDF8C08000F00800022503269C
:100CC0003396CDE93470174830A9CDE93154FFF798
:100CD0002FFCCDE9308532AADFF84C8030A94046A0
:100CE00082E8D000FFF724FC4FF4605032AACDE92F
:100CF00030050E4830A982E8D000FFF719FC0A2120
:100D000032944020CDE93361CDE9300530A9404629
:100D1000FFF70EFC36B0BDE8F08100000050005235
:100D2000D44402580010025800040258000C025823
:100D30002DE9F84F15460E460446FFF71BFD824687
:100D40002068816994F8403000F12009012B0DD012
:100D500001274FF0000884F8407094F84120012AE0
:100D600006D0022084F84080BDE8F88F0220FBE71F
:100D7000C4F84480A6B3222284F841200269521CA0
:100D8000A2630269521C62632663426922F04062D8
:100D900042F080624261206881610EE006212046B7
:100DA00001F0FAFEC8B999F80000216B0870206BB9
:100DB000401C2063A06B401EA063A06B53464FF005
:100DC000010200950028E9D14FF00201204601F010
:100DD000E3FE10B922680221D16084F84170C1E7B6
:100DE000FFE7616C012041F008016164BAE700008F
:100DF00010B500F057FF05490968054AC1F3021113
:100E0000515C01F01F01C84010BD00002044025891
:100E1000B03A0008494930B5484C0B1D0A681434F3
:100E200009681D68246802F00303C5F30012C1F3CA
:100E30000531C4F3CC04002914FB02F200EE102AA1
:100E4000F8EE400A75D03F4A9FED3D1AB7EE000A12
:100E50006BB1DFED3D1A012B01D0022B64D002EE05
:100E6000101A1168F8EE422A81EEA22A21E0334CD2
:100E7000283C23689B0612D5344B246801EE901A57
:100E80001168C4F3C104F8EE612AE34001EE903A20
:100E9000C1F30801F8EE611A81EEA22A0BE001EE1F
:100EA000901ADFED2B2A00BFF8EE611A116882EE6E
:100EB000A12AC1F3080101EE901A1168F8EE611A37
:100EC00040EE811A71EE800A62EE200AC1F34621DB
:100ED00001EE101AB8EE411A31EE001AC0EE811A76
:100EE000BCEEE11A80ED001A1168C1F3064101EE73
:100EF000101AB8EE411A31EE001AC0EE811ABCEE9B
:100F0000E11A80ED011A1168C1F3066101EE101AB1
:100F1000B8EE411A31EE000A80EE801ABCEEC10A2A
:100F200080ED020A30BD04E001EE901ADFED092ADF
:100F3000BAE70021016041608160F3E7284402586C
:100F400000000039384402580024744A0090D0034D
:100F50000024744C20BCBE4B494930B5484C0B1D95
:100F60000A681C3409681D68246802F00303C5F38D
:100F70000022C1F30551C4F3CC04002914FB02F292
:100F800000EE102AF8EE400A75D03F4A9FED3D1A58
:100F9000B7EE000A6BB1DFED3D1A012B01D0022B39
:100FA00064D002EE101A1168F8EE422A81EEA22AED
:100FB00021E0334C283C23689B0612D5344B24682F
:100FC00001EE901A1168C4F3C104F8EE612AE340FF
:100FD00001EE903AC1F30801F8EE611A81EEA22AFF
:100FE0000BE001EE901ADFED2B2A00BFF8EE611A3C
:100FF000116882EEA12AC1F3080101EE901A11686E
:10100000F8EE611A40EE811A71EE800A62EE200A53
:10101000C1F3462101EE101AB8EE411A31EE001A62
:10102000C0EE811ABCEEE11A80ED001A1168C1F31E
:10103000064101EE101AB8EE411A31EE001AC0EE68
:10104000811ABCEEE11A80ED011A1168C1F3066144
:1010500001EE101AB8EE411A31EE000A80EE801A45
:10106000BCEEC10A80ED020A30BD04E001EE901A28
:10107000DFED092ABAE70021016041608160F3E7F2
:101080002844025800000039404402580024744AA1
:101090000090D0030024744C20BCBE4B2DE9FE4FC1
:1010A0000546DFF8E48350F8081B0024F64FC943D7
:1010B000019005F12800264608F124080090080157
:1010C0001DD4A86E50B1B0F5801F0CD0B0F5001F34
:1010D0000ED0B0F5401F1ED001240FE0386840F458
:1010E0000030386017E00198022101F079FD03E03B
:1010F0000098022101F004FE04000CD02646288846
:10110000C043C00523D4A86D05281ED2DFE800F037
:101110000C11161B1B00AA6ED8F8001021F4401108
:101120001143C8F80010EAE7386840F4003038602E
:1011300009E00198002101F053FD03E0009800212F
:1011400001F0DEFD044674B100E001242646288843
:10115000C043800528D4E86D80281ED00CDC90B1F7
:1011600040280ED114E0AA6DD8F8001021F0070134
:101170001143C8F80010EAE7C02813D0B0F5807F0B
:1011800010D001240FE0386840F40030386009E0E6
:101190000198002101F024FD03E00098002101F0F6
:1011A000AFFD04469CB126462888DFF8DC92C04398
:1011B00009F12C0940052CD4D5F8A800B0F5800F12
:1011C00020D00DDCA0B1B0F5001F0FD115E0EA6D05
:1011D000D8F8001021F4E0711143C8F80010E3E7DB
:1011E000B0F5C00F13D0B0F5000F10D001240FE000
:1011F000386840F40030386009E00198002101F0BF
:10120000EFFC03E00098002101F07AFD04467CB178
:1012100026462888C04300052DD4D5F8AC00B0F18F
:10122000007F21D00EDCA8B1B0F1807F10D116E094
:10123000D5F8A820D9F8001021F460011143C9F8AD
:101240000010E6E7B0F1407F13D0B0F1806F10D00E
:1012500001240FE0386840F40030386009E001985C
:10126000002101F0BDFC03E00098002101F048FDE1
:10127000044674B126462868C04380011FD4E86C38
:10128000D8B110280FD0202812D0302815D0012432
:1012900014E0D5F8AC20D9F8001021F0E06111433A
:1012A000C9F80010E7E7386840F40030386004E01F
:1012B0000198022101F094FC044674B12646288866
:1012C000C043C0042BD4286EB0F5005F20D00DDCE5
:1012D000A0B1B0F5805F0FD115E06B48EA6C20300B
:1012E000016821F0300111430160E8E7B0F5405F8B
:1012F00013D0B0F5804F10D001240FE0386840F4CF
:101300000030386009E00198002101F069FC03E039
:101310000098002101F0F4FC04468CB12646288890
:10132000C043800429D4686EB0F5403F23D010DC60
:1013300008B3B0F5803F14D0B0F5003F0FD115E0F1
:101340002A6ED8F8001021F4E0411143C8F80010CB
:10135000E5E7B0F5802F0ED0B0F5A02F0BD001241B
:101360000AE00198012101F03BFC03E00098012113
:1013700001F0C6FC044694B126462888C0434004C8
:101380002AD4D5F8B000B0F1405F23D010DC08B308
:10139000B0F1805F14D0B0F1005F0FD115E06A6E3C
:1013A000D8F8001021F4E0211143C8F80010E4E758
:1013B000B0F1804F0ED0B0F1A04F0BD001240AE065
:1013C0000198012101F00CFC03E00098012101F0DB
:1013D00097FC044674B126462888C04300041FD4F5
:1013E000286FD8B1B0F1805F0ED0B0F1005F10D09F
:1013F000012414E0D5F8B020D9F8001021F0E04124
:101400001143C9F80010E7E7386840F4003038604D
:1014100004E00198012101F0E3FB044674B1264683
:101420002868C043C0011ED4A86CD0B101280ED0DA
:10143000022811D0032814D0012413E02A6FD8F811
:10144000001021F040511143C8F80010E8E7386857
:1014500040F40030386004E00198022101F0C0FB44
:101460000446ACB126462868DFF81CB0C043ABF197
:101470001C0B400252D40548016841F480710160A0
:10148000FFF778F9824611E02C44025800480258D0
:10149000FA48AA6C016821F0030111430160E2E7F8
:1014A000FFF768F9A0EB0A00642835D8F448006813
:1014B000C005F5D58CBBDFF8C4A3B5F8B4100AF1AC
:1014C000240ADAF8000001F4407100F44070884208
:1014D00011D0DAF80010DAF8002021F4407142F45B
:1014E0008032CAF80020DAF8002022F48032CAF8EC
:1014F0000020CAF80010D5F8B400B0F5807F1AD1EA
:10150000FFF738F9029012E0FFF734F90299411A17
:1015100041F2883081420AD9032426462878DFF830
:101520005CA3C0430AF1080AC00721D03CE0DAF806
:1015300000008007E8D5D5F8B410C1F301200328D6
:1015400058460DD0016821F47C510160B5F8B420F3
:10155000DAF80010C2F30B021143CAF80010DDE7FD
:10156000C84A036802EA111223F47C511143ECE7E4
:10157000E86F182816D005DCA0B1082808D010287C
:1015800004D10AE020280DD028280BD001240AE03D
:101590000198012101F024FB03E00098012101F0F2
:1015A000AFFB044664B126462878C04380071ED4AA
:1015B000A86F062819D2DFE800F0160C11161616CF
:1015C000EA6FDAF8001021F038011143CAF8001070
:1015D000EAE70198012101F003FB03E000980121F3
:1015E00001F08EFB04467CB100E0012426462878F9
:1015F000C04340071FD4D5F89400062819D2DFE86D
:1016000000F0160C11161616AA6FDAF8001021F069
:1016100007011143CAF80010E9E70198012101F020
:10162000DFFA03E00098012101F06AFB0446A4B14F
:1016300000E0012426462878C04380062BD4D5F844
:101640009000B0F1405F24D011DC10B3B0F1805FA6
:1016500015D0B0F1005F10D116E0D5F89420D9F87C
:10166000001021F007011143C9F80010E3E7B0F1C1
:10167000804F0ED0B0F1A04F0BD001240AE00198AA
:10168000002101F0ADFA03E00098022101F038FBDF
:10169000044694B126462878C04340062BD4D5F89A
:1016A0009C00B0F5406F24D011DC10B3B0F5806F12
:1016B00015D0B0F5006F10D116E0D5F89020DAF80B
:1016C000001021F0E0411143CAF80010E3E7B0F543
:1016D000805F0ED0B0F5A05F0BD001240AE0019826
:1016E000002101F07DFA03E00098022101F008FBDF
:1016F000044694B126462878C04300062BD4D5F87A
:10170000A000B0F5C04F24D011DC10B3B0F5005FDD
:1017100015D0B0F5804F10D116E0D5F89C20D9F83F
:10172000001021F4E0511143C9F80010E3E7B0F5CF
:10173000004F0ED0B0F5204F0BD001240AE00198E5
:10174000002101F04DFA03E00098022101F0D8FADF
:10175000044654B126462878C04300071ED4D5F865
:101760008400B0F5805F0AD00FE0D5F8A020D9F84A
:10177000001021F460411143C9F80010EBE7009814
:10178000022101F0BDFA00B10126D5F88420DAF873
:10179000001021F440511143CAF800102878C043CA
:1017A000C00613D4D5F89800B0F5807F05D1009815
:1017B000022101F0A5FA00B10126D5F89820D9F848
:1017C000001021F440711143C9F800102868C0438B
:1017D000000316D4D5F8A40038B1B0F5803F09D085
:1017E000B0F5003F0BD001240AE00198002101F080
:1017F000F7F903E00098022101F082FA04468CB167
:1018000026462868C043400322D4D5F88800B0F5A6
:10181000801F11D0B0F5001F13D0B0F5401F15D0B8
:10182000012414E0D5F8A420D9F8001021F44031A7
:101830001143C9F80010E4E7386840F4003038601C
:1018400004E00098012101F05BFA04465CB12646F1
:101850002868C043C00323D4286DA8B1B0F5803FE9
:1018600017D001241BE0D5F88820DAF8001021F405
:1018700040111143CAF80010EAE700004C44025836
:1018800000480258CFFFFF00386840F4003038604D
:1018900004E00198022101F0A3F90446E4B12646D0
:1018A0002868C043800005D40098022101F028FA7E
:1018B00000B101262868C04380031BD4D5F88000FE
:1018C000B0B1B0F5807F0FD0B0F5007F10D0B0F58B
:1018D000407F0DD001240CE05A482A6D016821F4A4
:1018E000803111430160DBE7386840F40030386034
:1018F000ECB326462868C043C00207D46A6FD8F804
:10190000001021F000411143C8F800102868C043BE
:10191000C00008D4D5F8B820DBF8001021F48041CD
:101920001143CBF800102868C043800207D4EA6E48
:10193000D8F8001021F080711143C8F80010286811
:10194000C04340000CD4DBF8001021F40041CBF878
:101950000010DBF80010D5F8BC201143CBF80010C4
:101960002868C04308D437486A6D016800E018E071
:1019700021F04051114301602868C043000208D49F
:10198000D5F88C20DAF8001021F440011143CAF890
:10199000001028790024C04300F0010020430AD041
:1019A0000FE0D5F88020DAF8001021F440711143DF
:1019B000CAF800109EE70198002101F011F900B16A
:1019C00006462879C04300F00200204305D1019863
:1019D000012101F005F900B106462879C04300F065
:1019E0000400204305D10198022101F0F9F800B16B
:1019F00006462879C04300F00800204305D100982E
:101A0000002101F07DF900B106462879C04300F0BD
:101A10001000204305D10098012101F071F900B1B7
:101A200006462879C04300F02000044304D1009802
:101A3000022101F065F900B916B10120BDE8FE8F61
:101A40000020FBE74C4402582DE9F05F04000F46EC
:101A50007ED0DFF83882D8F8000000F00F00B842DE
:101A60000CD2D8F8001021F00F013943C8F800104B
:101A7000D8F8000000F00F00B84269D12078844DFA
:101A800040070AD52069296801F07001884204D90D
:101A9000296821F070010143296020787C4E361DB1
:101AA00000070AD56069316801F07001884204D9E5
:101AB000316821F07001014331602078C0060AD5F9
:101AC000A069316801F4E061884204D9316821F4E9
:101AD000E061014331602078DFF8B4B180060BF19A
:101AE000080B0CD5E1695846DBF8002002F07002C3
:101AF000914204D9026822F070020A430260207801
:101B000080070AD5E068296801F00F01884204D9EE
:101B1000296821F00F01014329602078C0073ED0D9
:101B20005B49A2682868183920F470601043286067
:101B30006068022818D0032819D00968012819D034
:101B4000490700294ADADFF848A1AAF1080A00E0AB
:101B500044E0DAF8002022F007020243CAF800202D
:101B6000FEF708FE814612E009688903E9E7096883
:101B70008901E6E7C905E4E7FEF7FCFDA0EB0901F2
:101B800041F28830814202D90320BDE8F09F6168AC
:101B9000DAF8000000F03800B0EBC10FECD120788B
:101BA00080070AD5E068296801F00F01884204D255
:101BB000296821F00F0101432960D8F80010404640
:101BC00001F00F01B9420BD9016821F00F0139432F
:101BD0000160006800F00F00B84201D00120D4E796
:101BE000207840070AD52069296801F070018842F1
:101BF00004D2296821F07001014329602078000790
:101C00000AD56069316801F07001884204D23168F8
:101C100021F07001014331602078C0060AD5A06927
:101C2000316801F4E061884204D2316821F4E06156
:101C300001433160207880060CD5E1695846DBF815
:101C4000002002F07002914204D2026822F0700279
:101C50000A43026000F06CF80E492A682B68C2F350
:101C6000032203F00F038A5CC95C02F01F0201F03B
:101C70001F01D040084A20FA01F1116007490860AD
:101C800007480068BDE8F05FFEF7B0BD00200052D5
:101C900018440258B03A0008140000201000002038
:101CA0000800002030B500F043F80B4A0B490C4BFC
:101CB00015681468C5F3032204F00F048A5C095DFB
:101CC00002F01F0201F01F01D040064A20FA01F184
:101CD00019601060084630BD18440258B03A000838
:101CE000140000201000002000B5FFF7DBFF0549BD
:101CF0000968054AC1F30211515C01F01F01C84097
:101D000000BD00001C440258B03A000800B5FFF7BF
:101D1000C9FF05490968054AC1F30221515C01F078
:101D20001F01C84000BD00001C440258B03A000822
:101D3000454970B545480968434B103B11F03802DE
:101D400008D00111082A03D0102A0BD0182A0BD072
:101D5000084670BD19688906FBD51968C1F3C10131
:101D6000C84070BD3A4870BD3749374D18310C1D19
:101D700024350A68096826682D6802F0030406F015
:101D80000102C1F30511C5F3CC0515FB02F200EE0B
:101D9000102AB8EE400AE9B32F4ADFED2E0AB7EE5B
:101DA000001A6CB1DFED2D1A012C01D0022C43D0AA
:101DB00002EE101A1068F8EE422A81EEA22A1EE006
:101DC0001C68A40611D51B6801EE901A1168C3F3B4
:101DD000C103F8EE612AD84001EE900AC1F3080071
:101DE000F8EE611A81EEA22A0BE001EE901ADFED07
:101DF0001C2A00BFF8EE611A106882EEA12AC0F317
:101E0000080001EE900AF8EE611A40EE201A31EE59
:101E1000810A00E015E022EE000A1068C0F34620B7
:101E2000401C00EE900AF8EE600A80EE201ABCEE2C
:101E3000C10A10EE100A70BD01EE901ADFED092AFA
:101E4000D8E7002070BD0000104402580090D00375
:101E500040787D0100000039304402580024744A63
:101E60000024744C20BCBE4B2DE9F05F04007DD0F3
:101E7000FF4F2078FE4D1837DFF8F493103DC00770
:101E800048D0D9F80000396800F03800102815D083
:101E9000182803D101F0030002280FD06068B0F5C4
:101EA000803F12D010B1B0F5A02F18D0286820F4D0
:101EB00080302860286820F4802009E028688003AA
:101EC00028D560680028D2D024E0286840F480300B
:101ED0002860606888B1FEF74DFC064609E0286876
:101EE00040F480202860F0E7FEF744FC801B642863
:101EF0006FD828688003F7D50CE0FEF73BFC064658
:101F000005E000BFFEF736FC801B6428F0D8286887
:101F10008003F7D4207841F20308D54E0C3E8007A9
:101F200069D5D9F80000396810F038000ED01828AB
:101F300001D188070AD0E06890B3296821F019011F
:101F400001432960FEF716FC824631E0286840070D
:101F500002D5E06800288AD0E168286820F01900DE
:101F600008432860FEF706FC824607E0DFE000BF7A
:101F7000FEF700FCA0EB0A000228B9D82868400749
:101F8000F6D500BFFEF7F0FB40451BD8206940287E
:101F900012D0316821F47C3141EA003030602AE00F
:101FA00018E000BFFEF7E6FBA0EB0A0002289FD86E
:101FB00028684007F6D5E5E7306820F47C3040F427
:101FC0000030EBE7207C316821F0FE4141EA0060FF
:101FD000E4E70DE1286820F001002860FEF7CAFB65
:101FE000824605E0FEF7C6FBA0EB0A0002288DD86A
:101FF00028684007F6D42078C0065DD5D9F80000DF
:10200000DFF86CB2396800F03800ABF1040B082837
:1020100010D0182803D101F0030001280AD0E0698C
:102020000028286838D040F080002860FEF7A2FB26
:10203000824623E02868C00523D5E069802876D150
:102040001FE0206A202821D0316821F0F84141EAC0
:102050008060306030E000BF94F82010DBF8002092
:1020600022F07C5242EA0161CBF8001024E000BF6C
:10207000FEF780FBA0EB0A00022898D82868C0056C
:10208000F6D5FEF771FB4045E6D8DAE7306820F078
:10209000F84040F08040DCE720F080002860FEF748
:1020A00069FB064605E000BFFEF764FB801B0228C3
:1020B0009DD82868C005F7D42078000729D56C483A
:1020C0006169643000298046016811D041F0010146
:1020D0000160FEF74FFB064605E000BFFEF74AFB36
:1020E000801B0228C9D8D8F800008007F6D510E078
:1020F00021F001010160FEF73DFB064605E000BF4F
:10210000FEF738FB801B022872D8D8F80000800741
:10211000F6D42078800623D5A0690028286810D03E
:1021200040F480502860FEF725FB064605E036E1C6
:10213000FEF720FB801B02285AD828688004F7D5B8
:102140000EE020F480502860FEF714FB064604E001
:10215000FEF710FB801B02284AD828688004F7D4B9
:10216000207840074FD5DFF80C81D8F8001041F4F3
:102170008071C8F80010FEF7FDFA064605E000BFC2
:10218000FEF7F8FA801B642832D8D8F80000C005A2
:10219000F6D5374EA068603601280AD008B1052868
:1021A00013D0306820F001003060306820F0040067
:1021B00002E0306840F001003060A06841F2883AE7
:1021C00090B1FEF7D7FA80460AE0306840F004008C
:1021D0003060EEE7FEF7CEFAA0EB0801514507D8D4
:1021E00030688007F6D50EE0FEF7C4FA804607E0B7
:1021F00084E000BFFEF7BEFAA0EB080151457DD890
:1022000030688007F6D4606AB0B3DFF86480D9F82C
:10221000001008F120084FF6F87B08F10409C1F31B
:10222000C2010329A8F1040A69D00228286820F015
:102230008070286003D0FEF79DFA044684E0FEF724
:1022400099FA064605E000BFFEF794FA801B0228C3
:1022500077D828688001F7D4E26A40F2F331386811
:1022600054F8283F884340EA02101843386004E0DD
:102270001044025800480258B5E0217B43462289A9
:102280004FF4FE0C208A4FF0FE474902267D521E75
:10229000401EA1F50071C2F308088AB2761E0CEA4E
:1022A000004042EA08020243504607EA06610A4338
:1022B0001A60DAF8002022F00102CAF80020D9F8EA
:1022C0000020266A22EA0B0242EAC602C9F8002070
:1022D000DAF80010A26921F00C011143CAF80010CD
:1022E0000168E26921F0020111430160016841F4D3
:1022F00080310160016841F4003101E021E027E014
:102300000160016841F480210160016841F0010130
:102310000160286840F080702860FEF72BFA0446C0
:1023200005E000BFFEF726FA001B022809D828683E
:102330008001F7D557E000BFFEF71CFA001B02280A
:1023400002D90320BDE8F09F28688001F4D44AE058
:1023500039680128D8F8000021D0A26A01F00303EF
:1023600093421CD1E26AC1F305118A4217D1216B55
:10237000C0F30802491E8A4211D1616BC0F34622A4
:10238000491E91420BD1A16BC0F30642491E9142F6
:1023900005D1E16BC0F30660491E814201D00120E6
:1023A000D0E7A16C4E46D9F80000C0F3CC008142C2
:1023B00019D0DAF80000554620F00100CAF80000F4
:1023C000FEF7D8F94FEA0007FEF7D4F9B842FBD080
:1023D000A26C306820EA0B0040EAC2003060286836
:1023E00040F0010028600020ACE7401EB0F1807F83
:1023F00010B501D3012010BD4FF0E02460610F2122
:10240000601701F01DF90020A0610721216110BDB6
:1024100030B590F88410012918D0012280F884206A
:102420002421C0F888100022202401680B680D6860
:1024300023F0005325F001050D60426601680B6032
:10244000C0F8884080F88420104630BD022030BD9E
:1024500070B5044690F8840001281DD0012284F84C
:1024600084202420C4F8880020680568026822F0CF
:10247000010202602068826822F060620A43826082
:10248000204600F0A9FD2268202100201560C4F834
:10249000881084F8840070BD022070BD70B50446B9
:1024A00090F8840001281DD0012284F88420242083
:1024B000C4F8880020680568026822F00102026002
:1024C0002068826822F060420A438260204600F061
:1024D00083FD2268202100201560C4F8881084F84C
:1024E000840070BD022070BD10B5040003D0D4F884
:1024F000880010B107E0012010BD002084F884009E
:10250000204600F027F82420C4F8880020680168DD
:1025100021F001010160204600F064FE0128EBD0AB
:10252000A06A10B1204600F079FD2068416821F4CE
:10253000904141602068816821F02A018160206813
:10254000016841F0010101602046BDE8104000F043
:10255000C9BD000010B5B6B00446142130A8FDF77F
:10256000EFFEC0216846FDF7EBFE1A49206888425D
:102570002DD100201F9001210446CDE900106846AE
:10258000FEF78CFD08B1FDF719FF1348016841F013
:1025900010010160006800F0100035900E481038FE
:1025A000016841F00101016000680DF1C00C0221D9
:1025B00000F0010035904FF4C06007238CE8130051
:1025C00003220648CDE9332330A9FDF7B1FF36B029
:1025D00010BD000000100140F044025800000258F5
:1025E0002DE9F8430446D0F88800984616460D4673
:1025F000202802D00220BDE8F883A5B19EB10021B9
:10260000C4F890102120C4F888001834FEF7B2F8FE
:10261000814654F8100CA687E6872027183CB0F5B1
:10262000805F02D003E00120E5E7206910B12E466B
:10263000002510E000260EE08021204600F0A8FFD3
:10264000C0B9DEB116F8010B21688862B4F85600F3
:10265000401EA4F85600B4F856004B464FF0000256
:10266000CDF800800028E7D14FF04001204600F06F
:102670008FFF48B1C4F888700320BCE735F8020B1F
:102680002168C0F30800E0E7C4F888700020B2E7D2
:10269000FEE71FB5FEF7F8F801218DF80F100020B6
:1026A0008DF80E1012238DF8083003248DF80B409E
:1026B0008DF800104FF010528DF80D108DF80A00B3
:1026C00001928DF801008DF809008DF80C00684624
:1026D000FEF7ACF80420FEF7E5F81FBD30B587B073
:1026E00014216846FDF72CFE2248016841F01001D4
:1026F0000160016801F010010591016841F00401D9
:102700000160016801F004010591016841F0800158
:102710000160016801F080010591016841F001014B
:102720000160016801F001010591016841F00201B9
:102730000160016801F002010591016841F00801A2
:10274000016000684FF400540B4D002200F00800B7
:10275000214605902846FEF701F80021009401204B
:10276000CDE90101284603916946FDF7E1FE07B076
:1027700030BD0000E0440258000802582DE9F04145
:102780000D48FEF77AF90C48012200210B4B022478
:102790002025C0E90512C16110261627016280E8D4
:1027A000F800FEF77DF9002803D0BDE8F041FDF701
:1027B00005BEBDE8F0810000B000002000500052CE
:1027C0001848002110B5164C0C224FF4E133046078
:1027D000C0E90131C160C0E904128161C1610162D7
:1027E00041628162FFF780FE08B1FDF7E7FD0D4809
:1027F0000021FFF753FE08B1FDF7E0FD0948002175
:10280000FFF726FE08B1FDF7D9FD0648FFF700FEE9
:10281000002803D0BDE81040FDF7D0BD10BD00007A
:10282000001001401C000020FEE7FEE770472DE984
:10283000F0434B6A4FF040652BB1AA4203D00468C5
:102840008B6A5B1E23618B69002B68D00C6AB4B362
:1028500003688C68DC61CC69FCB1D1E90B38D1F834
:1028600024C04E6B8F8A43EA080346EA0C063343C2
:102870000E6A43EA8743D1E9037C43EA0C033343FE
:102880008E693B430F682343046833433B4365E051
:10289000006849688161BDE8F083D1E90B364F6A71
:1028A0004C6B8D8A33433C430E6923430C6A43EAE5
:1028B00085438D693343096823432B4362E0FFE777
:1028C000CC69B4F1000918D0D1E90B484F6A4E6BBE
:1028D000B1F814C044EA08043E430F683443CE689C
:1028E00044EA8C44344344EA09041C4303683C43EF
:1028F0001443AA425C61CBD1CDE7D1E90B464F6AC4
:102900004D6BB1F814C034433D4300682C43096853
:1029100044EA8C441C430C4314434461BBE70B6AF8
:10292000ABB303688C68DC61CC69E4B1D1E90B38E6
:10293000D1F824C04E6B8F8A43EA080346EA0C069E
:1029400033430E6A43EA8743D1E9037C43EA0C032D
:1029500033438E693B432343046833431343AA4202
:10296000636195D197E7D1E90B364F6A4C6B8D8A3D
:1029700033433C430E6923430C6A43EA8543896928
:102980003343234300680B431343436183E7FFE76B
:10299000CC6984B1D1E90B384F6A4E6BB1F814C0E1
:1029A00043EA08033E433343CE6843EA8C43334350
:1029B00023430468D2E74C6A002C9DD0D1E90B3642
:1029C0008F8A4D6B0168334325432B4343EA87408D
:1029D000104348615FE7000030B595B00020012149
:1029E00010240C900B020D9305230E900A061092F2
:1029F0008D050190CDE906530F9001AA129041F286
:102A0000883313901490CDE90410CDE902140548E1
:102A100007A9FDF799FF002801D06FF0020015B05B
:102A200030BD0000B000002010B5FFF7A7FE00F099
:102A300081F800F051F801460648814204D106A011
:102A400000F0EEFD002010BD09A000F0E9FD4FF000
:102A5000FF3010BD1740EF00573235513634204F4C
:102A60004B2C666C6173682049443A25580D0A0066
:102A7000573235513634204552524F5221212121AF
:102A800021202049443A25580D0A000030B591B064
:102A900000204FF480744FF44061099465010B905D
:102AA000EB2406958A030F90062308930C9210904E
:102AB000CDE902040E900A91019000F03BF8054820
:102AC00001AA03A9FEF742F8002801D06FF0050023
:102AD00011B030BDB000002010B590B04FF480733D
:102AE00000205C01069319040394032208909F239D
:102AF0000C90009341F288340B900D900790059054
:102B0000CDE909120A4822466946FDF773FF0848D5
:102B10000EA92246FEF70CF99DF838209DF83900E1
:102B20009DF83A1010B0120442EA0020084310BD8C
:102B3000B000002070B58EB041F2883400204FF410
:102B4000807166220890CDE90610009222460B9013
:102B500069460C900D90099005900E48FDF74AFFCC
:102B60004FF0FF3560B9FFF737FF6FF0020670B91D
:102B700099200090074822466946FDF73BFF10B1B7
:102B800028460EB070BDFFF727FF0028F9D0304669
:102B9000F7E70000B00000202DE9F0419846164606
:102BA0000F460446069D08E0681C06D0FDF7E2FDCE
:102BB000A0EB0800A8420AD84DB1206880683840D0
:102BC00000D00120B042EFD10020BDE8F081042008
:102BD00084F84100606C40F0010060640120F4E77B
:102BE0002DE9F047454D044689464FF0000A286814
:102BF000C04380070AD0414E283E306820F08060F4
:102C00003060FDF7B7FD0746B04608E00120BDE89B
:102C1000F08700BFFDF7AEFDC01B022867D8D8F8CB
:102C200000000001F6D4206829684FF4FE0721F463
:102C30007C313E0241EA00302860207AA389B4F852
:102C400004C040022D4D2D495B1E227CACF1010CCD
:102C50001035091DA0F5007080B2521ECCF3080C8F
:102C600007EA034340EA0C00184306EA02621043F5
:102C700028600868626920F0C000104308600A6894
:102C8000A06922F0200202430A60281D0A6822F08F
:102C900010020A6002684FF6F873E4699A4342EA48
:102CA000C40202600868B9F1000F40F010020A6027
:102CB00011D00868B9F1010F11D040F4001008607C
:102CC000D8F80000444640F08060C8F80000FDF7E6
:102CD00051FD05460DE0086840F40020EFE740F4A0
:102CE0008010ECE7FDF746FD401B022801D90320C8
:102CF0008DE720680001F5D5504688E72844025842
:102D00002DE9F047454D044689464FF0000A2868F2
:102D1000C04380070AD0414E283E306820F08050E2
:102D20003060FDF727FD0746B04608E00120BDE80A
:102D3000F08700BFFDF71EFDC01B022867D8D8F83A
:102D400000008000F6D4208829684FF4FE0721F0A7
:102D50007C713E0241EA00502860207AA389B4F8D1
:102D600004C040022D4D2D495B1E227CACF1010CAC
:102D70001835091DA0F5007080B2521ECCF3080C66
:102D800007EA034340EA0C00184306EA02621043D4
:102D900028600868626920F44060104308600A688F
:102DA000A06922F4007202430A60281D0A6822F416
:102DB00080720A6002684FF6F873E4699A4342EA47
:102DC000C40202600868B9F1000F40F480720A6022
:102DD00011D00868B9F1010F11D040F0807008607F
:102DE000D8F80000444640F08050C8F80000FDF7D5
:102DF000C1FC05460DE0086840F48000EFE740F4B0
:102E00000000ECE7FDF7B6FC401B022801D90320C7
:102E10008DE720688000F5D5504688E728440258A1
:102E20007047FDF7ADBC000030B5CDB04C2130A8E7
:102E3000FDF786FA202143A8FDF782FAC0216846F3
:102E4000FDF77EFA2A48016821F004010160294952
:102E500027480C300A6822F001020A6009680168FC
:102E6000002441F440410160016801F440414B916C
:102E700001688904FCD5022039900DF1E80C01218C
:102E80003091C20331920523A0258CE829003FAB85
:102E90003D900C213E9083E8130030A84294FEF749
:102EA000E3FF08B172B6FEE740204A90082305010F
:102EB000CDE9463043ABCDE948053F21032283E805
:102EC0001600042143A8FEF7BFFD08B172B6FEE765
:102ED000002109481F941394CDE900016846FEF7CC
:102EE000DDF8002801D072B6FEE74DB030BD00001D
:102EF0000C4802582C040058010000022C48F0B580
:102F00002C4A016841F470010160106800F00F0064
:102F1000072804D2106820F00F00C01D1060264959
:102F20000020254C10340B68244D43F001030B6046
:102F300020600B682B400B60136803F00F03072B16
:102F400004D9136823F00F03DB1D13601A4C1C4ACD
:102F500018341C4B261D371D2060174C1A4D283481
:102F60003060261D3860371D23603B1D35601C1DF9
:102F70003A60251D2E1D1860331D226028603260C6
:102F800018600A680C4B114C22F4802260330A60EE
:102F9000186020686FF30F00B0F1005F03D20C4996
:102FA0000120C1F8080143F2D2000A490860F0BDCF
:102FB00088ED00E000200052004402587FEDF6EA60
:102FC00080020101000202020000FF010010005C0B
:102FD000008000510040005230B5416EB9B1016827
:102FE0000D4B03F108048A688968C2F34262490FF5
:102FF0005D5C615C2D01B5FBF1F1A0F86A10995C94
:10300000A25C0901B1FBF2F1A0F8681030BD01210A
:10301000A0F86A10F8E70000A03A000890F828101D
:10302000C90706D00168C36A4A6822F400321A430D
:103030004A6090F82810890706D50168036B4A6832
:1030400022F480321A434A6090F82810490706D5C6
:103050000168436B4A6822F480221A434A6090F860
:103060002810090706D50168836B4A6822F40042DC
:103070001A434A6090F82810C90606D50168C36B48
:103080008A6822F480521A438A6090F828108906D0
:1030900006D50168036C8A6822F400521A438A60DC
:1030A00090F82810490611D50168436C4A6822F44B
:1030B00080121A434A60416CB1F5801F06D1016845
:1030C000836C4A6822F4C0021A434A6090F82810C0
:1030D000090606D50168C26C486820F40020104338
:1030E000486070472DE9F84300250446C0F8905029
:1030F000FDF740FB8046206820266FF07E47006881
:10310000000713D50022434631042046009700F003
:103110003FFA58B1216851E8000F20F0800041E8E3
:103120000002002AF6D1C4F8886021E02068006817
:10313000400722D5002243464FF4800120460097E5
:1031400000F026FAC8B1206850E8001F21F4907101
:1031500040E80012002AF6D12068083050E8001F2D
:1031600021F0010140E80012002AF5D1C4F88C607A
:10317000032084F88450BDE8F883C4F88860C4F85C
:103180008C60E5662567002084F88450F3E7000032
:1031900010B5026852E8001F21F4907142E8001354
:1031A000002BF6D10E4B0268083252E8001F19407E
:1031B00042E80014002CF6D1C16E012908D1026842
:1031C00052E8001F21F0100142E80013002BF6D155
:1031D00000212022C0F88C20C166416710BD00008C
:1031E000FEFFFFEF2DE9F04304468068D84E87B01C
:1031F000D84B2168D4E90427D4F81CC010430A68CE
:10320000002547EA0C073843324002430A60206831
:10321000E268416821F44051114341602268A1698C
:103220009A4201D0206A01439768DFF82CC3CB4E45
:10323000CB4807EA0C070F4397602168676ACA6AA0
:1032400022F00F023A43CA622268B2420ED10068ED
:1032500000F03800182873D047DCB8B3082879D0BC
:1032600010286FD178E028287ED17BE0BD498A42C2
:1032700009D1006800F00700062875D2DFE800F0E9
:10328000546A6C6E7072B8498A4209D1006800F0C5
:103290000700062868D2DFE800F0475D5F616365DC
:1032A000B2498A4209D1006800F0070006285BD2C3
:1032B000DFE800F03A5052545658AD498A420BD1DB
:1032C000006800F0070006284ED200E010E0DFE8BA
:1032D00000F02B4143454749A6498A420AD100687C
:1032E00000F03800182839D0B7DD2028BBD13CE0E9
:1032F00001203AE0A0498A4209D1006800F00700A5
:10330000062831D2DFE800F01026282A2C2E9B490F
:103310008A420BD1006800F00700062824D2DFE8BB
:1033200000F003191B1D1F2100201EE09A421BD133
:103330008B48001D006800F00700062814D202E048
:103340000CE007E010E0DFE800F0030507090B0DD3
:1033500002200AE0042008E0082006E0102004E033
:10336000202002E0402000E080208549DFF8148220
:103370009A42854A4FF400434FEA21174FF0000666
:103380004ED110281AD006DC022809D004280BD010
:1033900008287CD10DE020283ED0402877D13DE0A0
:1033A000FDF726FD014610E06846FDF733FD019963
:1033B0000BE003A8FDF7D0FD049906E01068800635
:1033C00005D51068C0F3C100C140002970D0606A03
:1033D000676838F8102007EB4703B1FBF2F083422F
:1033E00055D8B0EB073F52D8002308461946FCF7E2
:1033F0006FFF02467808130E120243EA01211018EB
:103400003A4671410023FCF763FF604AA0F5407122
:1034100091423CD821688FE03946D8E71946D6E773
:10342000D4F81CC04FF6EF799C4546D1082819D036
:1034300005DC58B101280CD0042875D10DE0102806
:1034400015D0202835D040286ED134E0FEF74CFC52
:1034500001E0FEF75BFC014610E06846FDF7DAFC90
:1034600001990BE003A8FDF777FD049906E01068C9
:10347000800604D51068C0F3C100C140C1B1636AC1
:10348000606838F81330B1FBF3F1490000E04BE01D
:1034900001EB5001B1FBF0F0A0F11001494543D818
:1034A0004FF6F0732168C0F342021840104343E026
:1034B00043E03946E3E71946E1E7082819D005DC7F
:1034C00058B101280CD004282ED10DE0102815D0B9
:1034D00020282BD0402827D12AE0FEF705FC01E068
:1034E000FEF714FC014610E06846FDF793FC0199D5
:1034F0000BE003A8FDF730FD049906E01068800694
:1035000004D51068C0F3C100C140B1B1636A6068FE
:1035100038F81330B1FBF3F101EB5001B1FBF0F0DF
:10352000A0F11001494505D9012506E03946EDE72E
:103530001946EBE7216880B2C8600120A4F86A0050
:10354000A4F8680028466667A66707B0BDE8F08360
:10355000F369FFCF000C0058FFF4FF110010014089
:10356000544402580044004000480040004C0040D1
:10357000005000400014014000780040007C0040F2
:103580000090D003883A000800440258FFFC0F0066
:103590002DE9F047994617460E460446089D4FF020
:1035A00000082FE0681C2DD0FDF7E4F8A0EB09001F
:1035B000A84214D89DB120680168490722D5C16985
:1035C000C94309070DD4082505622046FFF7E0FD31
:1035D000C4F89050012084F88480BDE8F08703206F
:1035E000FBE7C069C04300050CD421684FF40060BC
:1035F00008622046FFF7CCFD2021C4F8901084F823
:103600008480ECE72068C06936EA000004D000201E
:10361000B842C7D00020E0E70120F9E7FEE700004C
:103620000FB4054B10B503A9044A029800F028F81E
:1036300010BC5DF814FB00004139000818000020A0
:10364000090700284FEA116104DB00F1E02080F84F
:103650000014704700F00F0000F1E02080F8141D06
:10366000704702E008C8121F08C1002AFAD170474B
:103670007047002001E001C1121F002AFBD17047F2
:103680002DE9FF4F8DB09B460F460446002606E00D
:1036900025280BD05A460F999047641C761C207839
:1036A0000028F5D111B03046BDE8F08F0025A846BE
:1036B0000122984900E0054314F8013F203B02FA3B
:1036C00003F00842F7D120782E2817D114F8010F03
:1036D00045F004052A280ED06FF02F022078A0F1C3
:1036E000300109290AD808EB880102EB410100EBFF
:1036F0000108641CF2E757F8048B641C20786C28DE
:103700000DD004DC4C2812D06A2811D104E07428B2
:103710000DD07A280CD10AE045F4001507E0617855
:1037200045F48015814202D1641C05F58015641CA6
:103730002278692A45D008DC002AB3D0582A69D0FB
:10374000632A10D0642A08D13BE0702A67D0732A1C
:1037500013D0752A5CD0782A5CD010465A460F994F
:103760009047761CD3E017F8040B8DF8000000207A
:103770008DF80100E946012003E057F8049B4FF063
:10378000FF3069074FF0000501D40AE06D1C454584
:103790000DDA8542FADB19F805100029F6D106E0AA
:1037A0006D1C8542FCDB19F805100029F8D12E4468
:1037B00004E019F8010B5A460F9990476D1EF8D294
:1037C000A5E00A200021CDE90801C5F30250022836
:1037D0000DD001CFC117031E71F100030DDA4FF0B8
:1037E000000CD0EB0C006CEB01012D2308E0FF1D59
:1037F00027F00707F7E80201EDE72B0504D52B2397
:103800008DF8283001233BE0EB0739D02023F7E780
:103810000A2000E010200021CDE9080107E0102077
:10382000002145F00405CDE908014FF00808C5F373
:10383000025002280FD001CF00214FF0000A2B07C1
:103840001FD5702A0DD0DDE908C38CF0100C5CEA9E
:10385000030C0CD015E0FF1D27F00707F7E8020165
:10386000EBE740228DF828204FF0010A0BE050EAE8
:10387000010306D030238DF828308DF8292002234B
:103880009A46582A04D024A20DF120090B9209E08F
:1038900026A2F9E7DDE90823FCF71AFD0B9B9B5CE8
:1038A00009F8013D50EA0102F4D1ADEB09002030E6
:1038B0000890680701D44FF001080899884502DD97
:1038C000A8EB010000E000208046002506E00AA8E1
:1038D0005A46405D0F9990476D1C761C5545F6DBA6
:1038E00004E030205A460F999047761CB8F1000149
:1038F000A8F10108F5DC05E019F8010B5A460F990B
:103900009047761C0899481E08900029F4DC641C36
:10391000C5E600000928010030313233343536372E
:10392000383961626364656600000000303132330B
:1039300034353637383941424344454600000000AB
:1039400013B50448642301226946FEF749FE009836
:103950001CBD00001C000020FEF79BFE474C00250C
:10396000DFF81C812068800311D4BFF34F8FBFF3B1
:103970006F8FC8F80050BFF34F8FBFF36F8F206871
:1039800040F400302060BFF34F8FBFF36F8FDFF83C
:10399000EC90206809F17009A9F1040A43F6FF765A
:1039A000C00321D4C9F80050BFF34F8F344BDAF86D
:1039B00000001033C0F34E31C0F3C90206EA4117CC
:1039C000104600BF47EA807CC3F800C0401EF9D211
:1039D000491EF3D2BFF34F8F206840F4803020603F
:1039E000BFF34F8FBFF36F8FFCF7D2FEFFF71CFAC8
:1039F000FEF774FEFEF7E4FEFFF716F8FFF746F851
:103A0000BFF34F8FBFF36F8F216821F40031216026
:103A1000C8F80050BFF34F8FBFF36F8FC9F8005045
:103A2000BFF34F8F206820F480302060BFF34F8FAA
:103A3000DAF80000124B2433C0F34E31C0F3C90250
:103A400006EA4114104600BF44EA80771F60401E1A
:103A5000FAD2491EF4D2BFF34F8FBFF36F8F4FF0EE
:103A6000E0204FF010410561456185614868054AD5
:103A70001060096881F308888047FEE714ED00E0D4
:103A800050EF00E0000000200100020004000600EA
:103A900008000A000C001000200040008000000117
:103AA00001010103070100000804020408010101EB
:103AB00000000000010203040102030406070809D4
:103AC000E03A0008000000201C00000062360008F8
:103AD000FC3A00081C000020E404000072360008D4
:103AE00000000000010000001000000000000000C5
:0C3AF0000090D0030090D0030000000004
:040000050800029954
:00000001FF
