:020000040800F2
:1000000070150020AD020008035D0008B153000820
:10001000015D000833080008A1820008000000000C
:10002000000000000000000000000000A36A0008BB
:100030005D0E0008000000004F600008AF6A000875
:10004000C7020008C7020008C7020008C70200086C
:10005000C7020008C7020008C7020008C70200085C
:10006000C7020008C7020008C7020008C70200084C
:10007000C7020008C7020008C7020008C70200083C
:10008000C7020008C7020008C7020008C70200082C
:10009000C7020008C7020008C7020008C70200081C
:1000A000C7020008C7020008C7020008C70200080C
:1000B000C7020008C7020008C7020008C7020008FC
:1000C000C7020008C7020008C7020008C7020008EC
:1000D000C7020008C7020008C7020008C7020008DC
:1000E000C7020008C702000800000000C70200089D
:1000F000C7020008C7020008C7020008C7020008BC
:10010000C702000825660008C7020008C7020008E9
:10011000C7020008C7020008C7020008C70200089B
:10012000C7020008C7020008C7020008C70200088B
:10013000C7020008C7020008C7020008C70200087B
:1001400000000000000000000000000000000000AF
:10015000C7020008C702000879090008C7020008A2
:10016000C7020008C7020008C7020008C70200084B
:10017000C7020008C7020008D9080008C702000823
:10018000C7020008C7020008C7020008C70200082B
:10019000C7020008C7020008C7020008C70200081B
:1001A000C7020008C7020008C7020008C70200080B
:1001B000C7020008C7020008C7020008C7020008FB
:1001C000C7020008C7020008C7020008C7020008EB
:1001D000C7020008055D0008C7020008C702000842
:1001E000C7020008C7020008C7020008C7020008CB
:1001F000C7020008C7020008C7020008C7020008BB
:10020000C7020008C7020008C7020008C7020008AA
:10021000C7020008C7020008C7020008C70200089A
:10022000C7020008C7020008C7020008000000005B
:10023000C7020008C702000800000000C70200084B
:10024000C7020008C7020008C7020008C70200086A
:10025000C7020008C7020008C7020008C70200085A
:10026000C7020008C7020008C7020008C70200084A
:10027000C7020008C7020008C7020008000000000B
:10028000C7020008C7020008C702000800000000FB
:1002900000000000C7020008DFF80CD000F048FAA8
:1002A00000480047018C0008701500200648804770
:1002B00006480047FEE7FEE7FEE7FEE7FEE7FEE74B
:1002C000FEE7FEE7FEE7FEE7D16B000899020008B3
:1002D0002DE9F05F0546002092469B46884606467B
:1002E000814640241BE0284641464746224600F00E
:1002F00057F853465A46C01A914110D31146184632
:10030000224600F03EF82D1A67EB01084F462246C0
:100310000120002100F035F817EB00094E41201EA6
:10032000A4F10104DFDC484631462A464346BDE8D5
:10033000F09FD2B201E000F8012B491EFBD27047BA
:100340000022F6E710B513460A4604461946FFF7A1
:10035000F0FF204610BD30B50B460146002020229C
:10036000012409E021FA02F59D4205D303FA02F5C2
:10037000491B04FA02F52844151EA2F10102F1DC22
:1003800030BD202A04DB203A00FA02F10020704739
:100390009140C2F1200320FA03F3194390407047C3
:1003A000202A04DB203A21FA02F00021704721FACA
:1003B00002F3D040C2F12002914008431946704731
:1003C0002DE9FE4F804681EA0300C00F0C460090E5
:1003D00021F0004123F00045B8EB0200A94105D20D
:1003E0004046214690461C460B46024623F00040FC
:1003F000104347D0270DC7F30A00C3F30A510290F8
:10040000401A019040286BDAC3F3130040F4801BBC
:100410000098924620B10023D2EB030A63EB0B0B4A
:1004200001985946C0F140025046FFF7AAFF064620
:100430000D4650465946019A00F08CF910EB080021
:100440006141002487EA115284EAE7731A4340D0DD
:10045000009A62B3019A012A4FEA075215DC001B89
:1004600061EB02014FF0004202EA0752CDE900427F
:10047000001C41F5801132462B4600F08CF903B088
:10048000BDE8F08F40462146F9E7001B61EB020111
:10049000001C41F5801300185B412018A2F50017DD
:1004A00047EB030140EAD570B6196D4111E06D08C4
:1004B0004FEA360645EAC0754FEA0752001B61EB6A
:1004C0000201001C41F5801149084FEA3000001973
:1004D000514132462B4603B0BDE8F04F00F04CB915
:1004E0000098012240000023D0EB020263EBE0738E
:1004F000009821464FEAE074B8EB000061EB04017C
:10050000E9E783F000435BE781F0004158E72DE91C
:10051000FE4F81EA030404F0004421F000410094FE
:100520004FF0000B23F0004350EA01045ED052EA82
:1005300003045BD0C3F30A54C1F30A552C44A4F25C
:10054000F3340194A0FB0254C1F3130141F4801170
:10055000C3F3130343F4801301FB024400FB034E77
:10056000840A970A44EA815447EA8357A4FB076840
:1005700002958D0A05FB07854FEA932C04FB0C546A
:100580002705029D4FEA065847EA1637B5EB0805DE
:100590006EEB070C870E920E47EA811742EA831230
:1005A000A7FB0201B6EB0B0164EB00042B0D43EA41
:1005B0000C335E1844EB1C50DA465146E7FB02014F
:1005C000C5F313044FEA0B3343EA14534FEA0432E2
:1005D000019C43EA0603A4F10C040294009CCDE9BB
:1005E00000B400F0D8F803B0BDE8F08F0020014659
:1005F000F9E72DE9F04D81EA030404F0004B21F006
:10060000004514464FF0000A23F0004150EA05026D
:1006100020D054EA01021DD0C5F30A570246C5F3A3
:100620001303C1F31300C1F30A5640F4801543F4D9
:100630008013A7EB0608101BD64608F2FD3873EBB3
:10064000050002D308F1010801E092185B41B8F1FE
:10065000000F03DA00200146BDE8F08D00204FF4C2
:100660008011064684460EE0171B73EB050705D381
:10067000121B63EB050306434CEA010C49084FEAE1
:10068000300092185B4150EA0107EDD152EA0300B5
:1006900012D082EA040083EA0501084305D0101B4A
:1006A000AB4106D20122002306E000224FF00043B6
:1006B00002E06FF0010253101AEB06004CEB0851F8
:1006C00010EB0A0041EB0B01BDE8F04D00F054B80F
:1006D000C1F30A52C1F3130140F2FF3341F4801118
:1006E0009A4202DA00200146704740F233439A42B0
:1006F000A2F2334202DC5242FFF752BEFFF741BE84
:1007000030B5041E71F1000404DB4FF00044404298
:1007100064EB0101141E73F1000405DB1C464FF06D
:100720000043524263EB0403994208BF904230BD3C
:10073000064C074D06E0E06840F0010394E807002E
:1007400098471034AC42F6D3FFF7AAFD84A0000806
:10075000A4A00008202A06DBCB17203A41FA02F0B9
:1007600043EAE07306E041FA02F3D040C2F120020E
:10077000914008431946704710B5141E73F10004E8
:1007800008DA401C41F1000192185B411A4301D183
:1007900020F0010010BD2DE9F04D92469B4611B1AD
:1007A000B1FA81F202E0B0FA80F220329046FFF70F
:1007B000E8FD04460F4640EA0A0041EA0B015346B1
:1007C0005A46084313D0114653EA010019D0C8F124
:1007D00040025046FFF7E4FD05460E465046594696
:1007E0004246FFF7CEFD084305D0012004E0204635
:1007F0003946BDE8F08D0020054346EAE0762C43FB
:1008000037430A986305E40AA0EB08000022FD0ABA
:1008100044EA47540A3002D500200146E9E70105C1
:1008200010196941DDE9084500196941BDE8F04D3D
:10083000A2E7FEE710B5806B816C496D022906D0F6
:10084000012180F83510C16C41F04001C16400F015
:100850003BFB10BD10B5816B0C468A6B886C016840
:10086000CAB10A68A36B02F40022DB0706D12AB1E1
:10087000C968E26B01EBC201002207E00A681203BB
:1008800019D40969E26B01EBC201012200F0EEFC10
:10089000A06B401E0EE00868000302D5606CC860C3
:1008A00009E00868000306D4E26B606C00EB82008C
:1008B0000861206CA063A06B216C88420BD120687A
:1008C000C16841F00101C16020680068800702D55D
:1008D000012084F8350010BD014800F00FBB000076
:1008E0005000002070B505F015FD05F02FF905F05A
:1008F00041FA05F0B3FA05F0A1FAB0F5195F014627
:1009000009D0A1F51850423805D00EA007F0CAFC56
:100910004FF0FF3070BD12A007F0C4FC154805F081
:10092000F7F94FF496744FF4C8752146284605F040
:10093000B1FAF02023464FF48C712A4605F0F8F9FD
:10094000002070BD4F5632363430204552524F523F
:100950002121212121202049443A25580D0A000057
:100960004F5632363430204F4B2C49443A3078259C
:10097000580D0A00128D0008014801F035B800003A
:10098000A0000020294A016891423AD0274A183233
:10099000914236D0254A3032914232D0234A4832F1
:1009A00091422ED0214A603291422AD01F4A783299
:1009B000914226D01D4A9032914222D01B4AA83241
:1009C00091421ED01A4A91421BD0194A18329142C4
:1009D00017D0174A3032914213D0154A483291420B
:1009E0000FD0134A603291420BD0114A78329142B3
:1009F00007D00F4A9032914203D00D4AA83291425B
:100A000011D1CAB21823103AB2FBF3F26FF3090105
:100A1000032A02F00703074AD25CC26500D9091D08
:100A200081650846704721F0FF01F9E71000024098
:100A30001004024042A0000830B5224A0123016898
:100A40009142CAB21BD01F4C1434A14217D01D4C86
:100A50002834A14213D01B4C3C34A1420FD0194C76
:100A60005034A1420BD0174C6434A14207D0154C2E
:100A70007834A14203D0134C8C34A1420CD1142100
:100A8000114C083AB2FBF1F10F4A803201F01F0518
:100A900004EB8101AB4010E00C4D1824103A0D44DA
:100AA000B2FBF4F1A82D00D80831094A01F01F0467
:100AB00002EB8101064AA3408032603080E80E00DC
:100AC00030BD00000854025800580258F0FBFDBF2A
:100AD0000008024010B50279531E072B2DD8174C81
:100AE0000168A1421BD0154C1434A14217D0134CFD
:100AF0002834A14213D0114C3C34A1420FD00F4CEA
:100B00005034A1420BD00D4C6434A14207D00B4CA1
:100B10007834A14203D0094C8C34A14203D1084956
:100B2000074C443102E00749064C443104EB820291
:100B3000C0E91B2101219940416710BD08540258AA
:100B4000FC580258FC08024010B583694FF0C0748D
:100B5000826A0146002053B1B3F5005F15D072B12F
:100B6000012A0CD0022A0AD0032A09D104E01AB1C2
:100B7000012A06D0022A03D1C96AC90100D5012081
:100B800010BDC96AA142FAD010BD002AF7D0012ACF
:100B9000F2D0022AF3D0032AF3D010BD30B5254D90
:100BA0000468AC4238D0234D1835AC4234D0214DC6
:100BB0003035AC4230D01F4D4835AC422CD01D4DA5
:100BC0006035AC4228D01B4D7835AC4224D0194D4D
:100BD0009035AC4220D0174DA835AC421CD0164DF4
:100BE000AC4219D0144D1835AC4215D0124D3035E9
:100BF000AC4211D0104D4835AC420DD00E4D603591
:100C0000AC4209D00C4D7835AC4205D00A4D903538
:100C1000AC4201D0084DA83563608368402B03685F
:100C200003D099600068C26030BD9A600068C160FE
:100C300030BD000010000240100402402DE9F04FCA
:100C4000804E804FDFF8FC911836DFF8F8A1483766
:100C50000468856D0AF1300ADFF8ECB14C45DFF825
:100C6000ECC1DFF8ECE16DD0B4426BD0544569D0F3
:100C7000BC4267D0DFF8D081A8F11808444561D0A4
:100C80005C455FD064455DD074455BD0DFF8C481BE
:100C9000444557D0DFF8BC8108F11808444551D0CD
:100CA000DFF8B08108F1300844454BD0DFF8A4816B
:100CB00008F14808444545D0DFF8988108F16008FC
:100CC00044453FD0DFF88C8108F17808444539D09D
:100CD000DFF8808108F19008444533D0DFF8748153
:100CE00008F1A80844452DD0DFF86C81444529D08F
:100CF000DFF8648108F11408444523D0DFF85881F7
:100D000008F1280844451DD0DFF84C8108F13C0863
:100D1000444517D0DFF8408108F15008444511D010
:100D2000DFF8348108F1640844450BD0DFF82881EE
:100D300008F17808444505D0DFF81C8108F18C08DB
:100D4000444509D1D0E91948C4F80480C46E1CB1E7
:100D5000D0E91C48C4F8048004684C452ED0B44245
:100D60002CD054452AD0BC4228D0374E183EB4422D
:100D700024D05C4522D0644520D074451ED0354E29
:100D8000B4421BD0334E1836B44217D0314E3036F1
:100D9000B44213D02F4E4836B4420FD02D4E603699
:100DA000B4420BD02B4E7836B44207D0294E903641
:100DB000B44203D0274EA836B44215D190F85C60F7
:100DC0003F2406F01F06B440AC600468256825F493
:100DD000802525602EE09A600068C160BDE8F08F34
:100DE00099600068C260F9E71B4EB4421BD01A4EEE
:100DF0001436B44217D0184E2836B44213D0164ECB
:100E00003C36B4420FD0144E5036B4420BD0124E82
:100E10006436B44207D0104E7836B44203D00E4E3A
:100E20008C36B442DAD190F85C60012406F01F06DB
:100E3000B4406C60046863608368402B0368CFD162
:100E4000C9E700001000024088000240A0000240F4
:100E5000B80002401004024008540258704772B6AD
:100E6000FEE770B590F83440049D012C12D00124A7
:100E7000022680F8356043EA0543056841EA0241ED
:100E800000226B620368196280F8354080F83420D4
:100E9000104670BD022070BD10B590F834100129C5
:100EA00010D0012180F83410022280F8352050F84B
:100EB000342B0023146844F0040414604170037060
:100EC000184610BD022010BD7047000010B501F09B
:100ED00067FD094C6168401AB0F57A7F06D301F0CE
:100EE0005FFD606000216078A07061700121607812
:100EF000401C6070217010BD000000202DE9F04101
:100F000004460068234F0426056969070BD546612E
:100F1000E06C40F00200E06484F83560A06C076586
:100F2000A06C00F01FFCA8070DD5216802204861C5
:100F3000E06C40F00100E06484F83560A06C076567
:100F4000A06C00F00FFCE80605D521681020486170
:100F5000204600F06FF8280705D521680820486171
:100F6000204600F081F9E80712D02068016889075F
:100F700003D5C16821F01E01C16020680121C2684B
:100F800022F00102C260206841612046FFF79EFF07
:100F9000BDE8F081350800082DE9F041040003D0D8
:100FA00094F8350018B105E00120BDE8F081204635
:100FB00000F042F8A16902204FF0000E84F83500DD
:100FC00009B1C4F824E02068194A016811400160A1
:100FD000D4E90452E168D4E9010C29431043A26921
:100FE000084354F8201B40EA0C001043B4E8E81012
:100FF0000A68184328433043384340EA0C00104342
:10100000086054F8300C343C102805D12268E17F88
:10101000E06961F31F60906120680121C26842F0BD
:101020001E02C260C4F84CE084F835100020BCE712
:1010300007F0E0FF704700002DE9F04186B004465C
:1010400014216846FFF77CF94549206888427DD124
:101050004448016841F001010160006800F00100AE
:1010600005904048001D016841F0100101600168D1
:1010700001F010010591016841F001010160016872
:1010800001F001010591016841F00401016001686E
:1010900001F004010591016841F008010160016857
:1010A00001F008010591016841F002010160016849
:1010B00001F002010591016841F00801016000683A
:1010C000022502AA694600F0080005907320CDE9C8
:1010D00000050024244803260D2782E8D00001F0F3
:1010E00039FB5020694602AACDE900051F4882E875
:1010F000D00001F02FFBC020694602AACDE900050F
:101100001B4882E8D00001F025FB0820DFF864804E
:1011100002AA6946CDE90005404682E8D00001F008
:1011200019FB8020694602AACDE90005124882E831
:10113000D00001F00FFB012240469503294601F043
:1011400024FC01206946CDE9005000E004E0CDE92F
:101150000204404601F0FEFA06B0BDE8F08100004E
:1011600000000248DC4402580010025800000258F7
:1011700000080258000C0258000402582DE9F843F8
:10118000044690F83400012833D0354802274FF048
:10119000010884F83480002584F8357026684FF4FF
:1011A000803C6345376847F48047376026684FF0D6
:1011B0004009376827F0020737602668376847EA32
:1011C00001073760A16CC863A66C2649F164A16C65
:1011D0000D65A5632564E56365640DD22168A06C87
:1011E000283101F057F980B3C4F84C9084F8358069
:1011F00027E00220BDE8F883A16C46464864C4F8A5
:101200003880E363626405E0E06B4008E063A06B54
:101210004000A063E06B6045F6D2A06B801EA06327
:10122000A36BE16BE06B2364009002EB8103216808
:10123000A06C283100F062F838B1C4F84C9084F802
:101240003560012084F83450D4E7FFE72068016856
:1012500041F001010160002084F83450CAE7000029
:101260005508000835080008704700000068214B49
:10127000984238D01F4B1833984234D01D4B30332E
:10128000984230D01B4B483398422CD0194B6033D6
:10129000984228D0174B7833984224D0154B90337E
:1012A000984220D0134BA83398421CD0124B98423E
:1012B00019D0114B1833984215D00F4B3033984248
:1012C00011D00D4B483398420DD00B4B60339842F0
:1012D00009D0094B7833984205D0074B9033984298
:1012E00001D0054BA83312B1016100207047C160E5
:1012F000FBE7000010000240100402402DE9FF4F00
:1013000081B081689646044600200E9A802900909C
:1013100012D094F83400012813D094F8350001213C
:1013200084F8341001280ED0C902012000906165B4
:10133000009805B0BDE8F08F4FF480706065012023
:10134000F7E70220F5E7FE4D02272068002684F823
:101350003570A842FB4D6665FB4EFC4FDFF8F093FD
:10136000DFF8F0A3DFF8F0B33FD0A8423DD0B042A1
:101370003BD0B84239D0484537D0504535D0584594
:1013800033D0DFF8D4C30CF1180C60452DD0DFF852
:10139000CCC3604529D0DFF8C4C30CF1180C6045FC
:1013A00023D0DFF8B8C30CF1300C60451DD0DFF856
:1013B000ACC30CF1480C604517D0DFF8A0C30CF1AA
:1013C000600C604511D0DFF894C30CF1780C6045D7
:1013D0000BD0DFF888C30CF1900C604505D0DFF826
:1013E0007CC30CF1A80C604510D1D0F800C03F219F
:1013F0004CF4802CC0F800C02068036194F85C3085
:10140000A06D03F01F039940816010E0D0F800C088
:1014100048F220084CEA080CC0F800C020680361BC
:1014200094F85C30A06D03F01F03994041601346AF
:10143000029972462046FFF7B1FBC94AC84BDFF854
:1014400020E31432DFF8F882283320680EF13C0ED6
:10145000C34940455FD0A8425DD0B0425BD0B8429E
:1014600059D0484557D0504555D0584553D0DFF84E
:10147000E8C20CF1180C60454DD0DFF8E0C26045C1
:1014800049D0DFF8D8C20CF1180C604543D0DFF822
:10149000CCC20CF1300C60453DD0DFF8C0C20CF17D
:1014A000480C604537D0DFF8B4C20CF1600C6045E1
:1014B00031D0DFF8A8C20CF1780C60452BD0DFF8F2
:1014C0009CC20CF1900C604525D0DFF890C20CF165
:1014D000A80C60451FD088421DD090421BD0984276
:1014E00019D0704517D0DFF878C20CF1500C604568
:1014F00011D0DFF86CC20CF1640C60450BD0DFF842
:1015000060C20CF1780C604505D0DFF854C20CF1D4
:101510008C0C604509D1D4E9190CC0F804C0E06E08
:1015200018B1D4E91C0CC0F804C0C446206860455A
:101530003FD0A8423DD0B0423BD0B84239D0484518
:1015400037D0504535D0584533D0DFF80C8208F1FC
:10155000180840452DD0DFF80482404529D0DFF837
:10156000FC8108F11808404523D0DFF8F08108F12C
:10157000300840451DD0DFF8E48108F148084045B7
:1015800017D0DFF8D88108F16008404511D0DFF8A6
:10159000CC8108F1780840450BD0DFF8C08108F114
:1015A0009008404505D0DFF8B48108F1A80840450F
:1015B00018D1D0F8008028F01E0848F01608C0F8AE
:1015C00000802068D0F8148048F08008C0F81480AB
:1015D000206C08B9A06CC0B12068D0F8008048F039
:1015E000080810E0D0F8008028F00E0848F00A083B
:1015F000C0F80080206C08B9A06C30B12068D0F829
:10160000008048F00408C0F800802068E0464045AB
:1016100057D0A84255D0B04253D0B84251D04845D7
:101620004FD050454DD058454BD0DFF82CC10CF170
:10163000180C604545D0DFF824C1604541D0DFF883
:101640001CC10CF1180C60453BD0DFF810C10CF147
:10165000300C604535D0DFF804C10CF1480C604512
:101660002FD0DFF8F8C00CF1600C604529D0DFF80E
:10167000ECC00CF1780C604523D0DFF8E0C00CF131
:10168000900C60451DD0DFF8D4C00CF1A80C60456B
:1016900017D0884215D0904213D0984211D070458F
:1016A0000FD02F49503188420BD02D4964318842E8
:1016B00007D02B497831884203D029498C318842A0
:1016C0000DD1206E0168C90303D5016841F4807112
:1016D0000160E06E18B1016841F48071016020681A
:1016E000404528D0A84226D0B04224D0B84222D0CB
:1016F000484520D050451ED058451CD016491831B9
:10170000884218D01549884215D0144918318842AA
:1017100011D01249303188420DD0104948318842E9
:1017200009D00E496031884205D00C497831884291
:1017300001D00A499031016841F001010160F7E5EB
:1017400010000240280002404000024058000240C1
:101750007000024088000240A000024010040240D5
:10176000085402582DE9F05F28B190F8351002298D
:1017700004D0802141650120BDE8F09F904C904B42
:101780000168183C18338E4ADFF83C92A1428D4C18
:10179000DFF838E28E4FDFF83CB2DFF83CA28F4D25
:1017A0008F4E31D091422FD099422DD0A1422BD0D3
:1017B000494529D0714527D0B94225D0DFF810C25C
:1017C0000CF1180C61451FD0DFF808C2ACF1600CB9
:1017D000614519D0DFF8FCC1ACF1480C614513D06C
:1017E000DFF8F0C1ACF1300C61450DD0DFF8E4C199
:1017F000ACF1180C614507D0594505D0514503D0CF
:10180000A94201D0B1422CD1DFF8B4C14FF0040895
:1018100080F83580ACF1180C61451DD091421BD089
:10182000994219D0A14217D0494515D0714513D01E
:10183000B94211D06648183081420DD065486038F1
:10184000814209D063484838814205D06148303828
:10185000814201D05F481838086820F00100086014
:10186000ABE0D1F800C02CF00E08DFF854C1C1F88D
:101870000080ACF1180C0168614527D0914225D059
:10188000994223D0A14221D049451FD071451DD096
:10189000B9421BD0DFF838C10CF1180C614515D0E6
:1018A000DFF830C1ACF1600C61450FD0DFF824C126
:1018B000ACF1480C614509D0DFF818C1ACF1300C2F
:1018C000614503D0DFF80CC1ACF1180CD1F800C0B1
:1018D0002CF0010CC1F800C0DFF8E4804FF0010CDF
:1018E0000168A8F11808414546D0914244D0994278
:1018F00042D0A14240D049453ED071453CD0B9428A
:101900003AD0334A1832914236D0324A603A914244
:1019100032D0304A483A91422ED02E4A303A914243
:101920002AD02C4A183A914226D0594524D0514504
:1019300022D0A94220D0B1421ED02A4A91421BD0C7
:10194000284A1432914217D0264A2832914213D0A5
:10195000244A3C3291420FD0224A503291420BD05D
:10196000204A6432914207D01E4A7832914203D015
:101970001C4A8C32914218D1016E0A6822F480729E
:101980000A6090F85C20816D02F01F020CFA02F2EE
:101990004A60D0E919124A60C16E31B10A6822F476
:1019A00080720A60D0E91C124A600022016D80F842
:1019B00035C080F8342001B188470020DCE6000003
:1019C0002800024058000240700002408800024097
:1019D000A00002407004024088040240A0040240BB
:1019E000B8040240085402582DE9FC5F0446F74E43
:1019F0000020DFF8D88300904FF41652F44808F125
:101A00001808A56DDFF8C493DFF8C0A3016809F1D9
:101A1000300920680AF1480AB1FBF2F1B0420191A5
:101A20002F68D5F800C0DFF8ACB335D04146884206
:101A300032D0484530D050452ED058452CD0E549BD
:101A40001831884228D0E3493031884224D0E14916
:101A50004831884220D0E04988421DD0DE49183103
:101A6000884219D0DC493031884215D0DA494831F2
:101A7000884211D0DFF860E30EF1600E70450BD0A4
:101A8000D54A7832904207D0D34B9033984203D056
:101A9000D149A83188427DD194F85C20082102F018
:101AA0001F0201FA02F23A424AD0B04232D0404517
:101AB00030D048452ED050452CD058452AD0C54A64
:101AC0001832904226D0C34A3032904222D0C14AC6
:101AD000483290421ED0C04A90421BD0BE4A1832B3
:101AE000904217D0BC4A3032904213D0BA4A4832A2
:101AF00090420FD0B84A603290420BD0B64A78324A
:101B0000904207D0B44A9032904203D0B24AA832F1
:101B1000904203D1026802F0040202E0026802F07F
:101B200008026AB1026822F00402026094F85C00C4
:101B300000F01F008140A960606D40F00100606509
:101B400094F85C00012100F01F008140394240D030
:101B50002068B04234D0404532D0484530D050455E
:101B60002ED058452CD09B4A1832904228D0994A02
:101B70003032904224D0974A4832904220D0964A40
:101B800090421DD0944A1832904219D0924A303275
:101B9000904200E0AFE113D08F4A483290420FD01C
:101BA0008D4A603290420BD08B4A7832904207D0F7
:101BB000894A9032904203D0874AA83290427DD120
:101BC000406910F0800F04D0A960606D40F0020001
:101BD000606594F85C00042100F01F0081403942E8
:101BE0003ED02068B04232D0404530D048452ED05B
:101BF00050452CD058452AD0764A1832904226D0EB
:101C0000744A3032904222D0724A483290421ED0FA
:101C1000714A90421BD0704A1832904217D06E4AD7
:101C20003032904213D06C4A483290420FD06A4A08
:101C3000603290420BD0684A7832904207D0664AB0
:101C40009032904203D0644AA83290424ED100684C
:101C500010F0020F04D0A960606D40F004006065D0
:101C600094F85C00102100F01F008140394258D0E8
:101C70002068B04234D0404532D0484530D050453D
:101C80002ED058452CD0534A1832904228D0514A71
:101C90003032904224D04F4A4832904220D04E4AAF
:101CA00090421DD04C4A1832904219D04A4A3032E4
:101CB000904215D0484A4832904200E014E00FD0DC
:101CC000454A603290420BD0434A7832904207D066
:101CD000414A9032904203D03F4AA832904207D105
:101CE000006800F0080006E0006872E70068B7E7E7
:101CF000006800F00400A0B1A960206801684903F1
:101D000004D50068000308D5A16C07E00168C90587
:101D100003D4016821F008010160216C09B120465B
:101D2000884794F85C00202100F01F008140394270
:101D300079D02068B04232D0404530D048452ED0CE
:101D400050452CD058452AD0224A1832904226D0ED
:101D5000204A3032904222D01E4A483290421ED051
:101D60001D4A90421BD01C4A1832904217D01A4A82
:101D70003032904213D0184A483290420FD0164A5F
:101D8000603290420BD0144A7832904207D0124A07
:101D90009032904203D0104AA832904203D100689A
:101DA00000F0100002E0006800F00200B0B3A9608B
:101DB00094F835000428206801680FD049037ED5C7
:101DC000006800032BD4616C2AE000001000024080
:101DD00040000020700002401004024021F0160173
:101DE00001602068416921F080014161206C08B9DF
:101DF000A06C20B12068016821F00801016094F80E
:101E00005C303F21012003F01F0300229940A960AC
:101E100084F8350084F83420216D65E003E0E16B3F
:101E200009B120468847606D00287DD0606DC007ED
:101E300059D02068042184F83510B0422BD0404599
:101E400029D0484527D0504525D0584523D09D4915
:101E5000884220D09B49183188421CD099493031A2
:101E6000884218D09849884215D09749183188423D
:101E700011D09549303188420DD09349483188427C
:101E800009D091496031884205D08F497831884224
:101E900001D08D499031016821F001010160206875
:101EA0000099019A491C0091914202D80168C90722
:101EB000F6D10068C00710D003200FE0FFE70168EB
:101EC000C905ACD403680121002223F0100303608C
:101ED00084F8351084F83420A1E7012084F8350017
:101EE000002084F83400E16C00291DD002B02046A7
:101EF000BDE8F05F0847754988421DD07349143129
:101F0000884219D071492831884215D06F493C3137
:101F1000884211D06D49503188420DD06B496431EF
:101F2000884209D0694900E084E07831884203D0D2
:101F300066498C3188427DD194F85C800427016821
:101F400008F01F0807FA08F717EA0C0F009746D0A9
:101F50004F0744D500980F04686003D5C8033CD4EC
:101F6000A16CC1E7880638D42068B0422DD055490D
:101F70006039884229D0484527D0504525D058455A
:101F800023D05049884220D04E49183188421CD075
:101F90004C493031884218D04B49884215D04A49C3
:101FA0001831884211D04849303188420DD0464915
:101FB0004831884209D0704507D0904205D09842F8
:101FC00003D04149A831884203D1016821F00801BA
:101FD00002E0016821F004010160216C84E702271E
:101FE00007FA08F717EA0C0F00974ED08F074CD569
:101FF00000980F04686003D5C80344D4616C73E78C
:10200000880640D42068B0422FD02E4960398842DB
:102010002BD0484529D0504527D0584525D02949AF
:10202000884222D02749183188421ED025493031B4
:10203000884200E044E018D02349884215D0224964
:102040001831884211D02049303188420DD01E49C4
:102050004831884209D0704507D0904205D0984257
:1020600003D01949A831884203D1016821F0140135
:1020700002E0016821F00A010160012184F83510B5
:10208000002084F83400E16B2EE7082202FA08F2FF
:1020900012EA0C0F14D0090712D5016821F00E01C5
:1020A000016094F85C100120002201F01F0100FA89
:1020B00001F16960606584F8350084F8342012E726
:1020C000BDE8FC9F880002401004024008540258FA
:1020D0002DE9F05F044600F063FC002C07467DD03C
:1020E000E34E022120684FF00308DFF888934FF099
:1020F0000005DFF884A3B042DFF880B334D0DC4AB7
:102100001832904230D048452ED050452CD05845FA
:102110002AD0DA4A1832904226D0D84A3032904239
:1021200022D0D64A483290421ED0D54A90421BD087
:10213000D34A1832904217D0D14A3032904213D04D
:10214000CF4A483290420FD0CD4A603290420BD0F5
:10215000CB4A7832904207D0C94A9032904203D09D
:10216000C74AA83290427DD184F83510B04284F835
:1021700034502ED0BE49183188422AD0484528D044
:10218000504526D0584524D0BC491831884220D02B
:10219000BA49303188421CD0B8494831884218D0F9
:1021A000B749884215D0B6491831884211D0B44990
:1021B000303188420DD0B2494831884209D0B04907
:1021C0006031884205D0AE497831884201D0AC49AF
:1021D0009031016821F00101016008E027E100BFB2
:1021E00000F0DEFBC01B052801D920211CE120687E
:1021F0000068C007F4D104F108002168D4E9053C67
:102200008E4685C809681043D4E907281F43636ACE
:1022100038439C4F40EA0C001043394040EA080024
:10222000042B40EA010003D1D4E90B121143084307
:10223000954909686FF30F01B1F1005F0FD3616831
:10224000A1F12902052A08D9163A032A05D9083A24
:10225000012A02D94F39032901D840F48010CEF861
:10226000000000E023E02068676A4069042F20F046
:10227000070047EA00070DD1D4E90A01074349B135
:102280002046FEF761FC28B140206065012184F8FA
:102290003510CCE0206847612046FEF773FB94F8C8
:1022A0005C203F2102F01F029140816054E0774A98
:1022B00090421BD0754B1433984217D0734B283380
:1022C000984213D0714B3C3398420FD06F4B503330
:1022D00098420BD06D4B6433984207D06B4B7833E8
:1022E000984203D0694B8C3398427DD184F83510E5
:1022F00084F83450664B0168A26801EA030E402A54
:1023000073D0802A72D00022D4E90378D4E9053151
:1023100042EAD70242EAD8085C4AD4E9077C48EA94
:10232000D30848EAD10141EAD701524241EA1C11DF
:10233000142341EA0E01016020681044B0FBF3F061
:102340008000E0652046FEF71DFB94F85C2001212B
:1023500002F01F02914041602068B04257D04449CA
:102360001831884253D0484551D050454FD0584538
:102370004DD042491831884249D0404930318842D5
:1023800045D03E494831884241D03D4988423ED0FF
:102390003B49183188423AD039493031884236D0E9
:1023A00037494831884232D03549603188422ED091
:1023B0003349783188422AD031499031884226D039
:1023C0002F49A831884222D0304988421FD02F4956
:1023D000143188421BD02D492831884217D02B490F
:1023E0003C31884213D002E01DE017E018E0274995
:1023F000503188420BD025496431884207D02349A7
:102400007831884203D021498C31884229D1204635
:10241000FEF712FBA06880280CD00CE0102273E7B6
:102420004FF4804270E74021616584F835800120D7
:10243000BDE8F09F6560216E20790860D4E919013C
:1024400041606068401E072808D82046FEF742FB1E
:10245000E06E0560D4E91C01416002E0E566256795
:1024600065670120656584F835000020E0E700001D
:10247000100002404000024058000240700002403C
:10248000100402403F8010FE0010005C0854025807
:102490000F00FEFF2DE9F84F04008C464FF00000BE
:1024A000009014D094F83400012812D094F83550DC
:1024B0000120002184F83400012D0CD0C002606599
:1024C0000120009084F834100098BDE8F88F0120B6
:1024D000FBE70220F9E78C4D0226206884F835607E
:1024E000A8428A4D61658A4E8A4FDFF82C82DFF858
:1024F0002C92DFF82CA2DFF82CB226D0A84224D0F0
:10250000B04222D0B84220D040451ED048451CD011
:1025100050451AD0584518D08349884215D0824971
:102520001831884211D08049303188420DD07E491F
:102530004831884209D07C496031884205D07A49C7
:102540007831884201D078499031016821F0010149
:10255000016061462046FEF771FB6B4920688842A6
:102560002CD0A8422AD0B04228D0B84226D040452C
:1025700024D0484522D0504520D058451ED06A4A24
:1025800090421BD0684A1832904217D0664A3032C7
:10259000904213D0644A483290420FD0624A60326F
:1025A00090420BD0604A7832904207D05E4A903217
:1025B000904203D05C4AA83290420CD1026822F0CB
:1025C0001E0242F016020260206C88B12068026888
:1025D00042F008020BE0026822F00E0242F00A020A
:1025E0000260206C20B12068026842F004020260A0
:1025F000206888424BD0A84249D0B04247D0B84268
:1026000045D0404543D0484541D050453FD058453E
:102610003DD0454A90423AD0434A1832904236D093
:10262000414A3032904232D03F4A483290422ED016
:102630003D4A603290422AD03B4A7832904226D0BE
:10264000394A9032904222D0374AA83290421ED066
:10265000364A90421BD0354A1432904217D0334A42
:102660002832904213D0314A3C3290420FD02F4A48
:10267000503290420BD02D4A6432904207D02B4A00
:102680007832904203D0294A8C3290420DD1206E8C
:102690000268D20303D5026842F480720260E06EE1
:1026A00018B1026842F4807202602068884226D025
:1026B000A84224D0B04222D0B84220D040451ED0FB
:1026C00048451CD050451AD0584518D01649884264
:1026D00015D015491831884211D01349303188423C
:1026E0000DD011494831884209D00F4960318842E4
:1026F00005D00D497831884201D00B4990310168ED
:1027000041F001010160DFE61000024028000240B4
:102710004000024058000240700002408800024021
:10272000A0000240B80002401004024008540258C1
:1027300070B5044600F034F90546601C02D0044828
:102740000078044400F02CF9401BA042FAD370BD7D
:10275000340000202DE9F84F03247D4D00234FF075
:1027600001094FF0B04B4FF00F0AE9E009FA03F707
:102770003A4076D00E7906F00306012E01D0022EE3
:1027800018D1D0F808C04FEA430ECE6804FA0EF80C
:102790002CEA080C06FA0EF646EA0C068660D0F81B
:1027A00004C00E792CEA070CC6F300169E4046EAD8
:1027B0000C0646600E79F643B6070BD0C6684FEAA2
:1027C00043088F6804FA08FC26EA0C0607FA08F7A3
:1027D0003743C7600E7906F00306022E12D1DE08D9
:1027E0000F694FEA437C00EB8606B646366A4FEA2D
:1027F000DC6C0AFA0CF807FA0CF726EA08063743ED
:10280000CEF820700F7906684FEA430807F00307F7
:1028100004FA08FC07FA08F726EA0C0637430760B3
:102820004E6816F4403F1CD04A4E376847F0020706
:10283000376036689F0706F00206009623F003060D
:1028400006F1B046B6463F0FD6F80864DFF80881B7
:102850000AFA07FC404526EA0C0603D14FF0000CAB
:1028600041E06CE0DFF8F4C0604502D14FF0010CAC
:1028700039E0DFF8ECC0604502D14FF0020C32E0E5
:10288000DFF8E0C0604502D14FF0030C2BE0DFF829
:10289000D8C0604502D14FF0040C24E0DFF8CCC072
:1028A000604502D14FF0050C1DE0DFF8C4C0604563
:1028B00002D14FF0060C16E0DFF8B8C0604502D137
:1028C0004FF0070C0FE0DFF8B0C0604502D14FF0C9
:1028D000080C08E0DFF8A4C0604502D14FF0090CF5
:1028E00001E04FF00A0C0CFA07FC4CEA060CCEF89B
:1028F00008C44F68DBF80060FF0226EA020600D534
:1029000016435F46CBF80060D1F804C0DBF80460E2
:102910005FEA8C2C26EA020600D516437E606E68BC
:102920004F6826EA0206BF0300D516436E602E6884
:102930004F6826EA0206FF0300D516432E605B1C93
:102940000A6832FA03F67FF411AFBDE8F88F000091
:1029500080000058F4440258000002580004025855
:1029600000080258000C02580010025800140258C7
:1029700000180258001C0258002002580024025877
:102980000069084000D0012070470AB1816170479A
:102990000904FBE701480068000C70470010005C68
:1029A00001488068704700003400002002488168B8
:1029B000027811448160704734000020032010B574
:1029C00000F0D4F801F0D6FC0F4A104914681368DF
:1029D000C4F3032203F00F038A5CC95C02F01F02F8
:1029E00001F01F01D0400A4A20FA01F111600949A3
:1029F00008600F2000F010F808B1012010BD00F0B1
:102A000079F8002010BD00001844025872A0000898
:102A1000440000204000002070B50D4D0446287889
:102A2000A0B14FF47A71B1FBF0F00A490968B1FB2B
:102A3000F0F002F06BFB48B9102C07D200222146BF
:102A4000501E00F073F800206C6070BD012070BD56
:102A50003400002040000020F0B5154C4378211DC3
:102A60000A1D23600378F3B143680B60057BC67AC7
:102A7000817A437B2D07847B45EA0665C77B90F806
:102A800009C0067A90F800E045EAC14040EA834078
:102A900040EA444040EA074040EA0C2040EA460051
:102AA00040EA0E0001E0002008601060F0BD000068
:102AB00098ED00E0BFF35F8F044800210368034AEC
:102AC00023F48033036070321160704724ED00E01E
:102AD000074A40F00100064970321060086840F46F
:102AE00080300860BFF34F8FBFF36F8F70470000D7
:102AF00024ED00E0054808B5016841F002010160DD
:102B0000006800F00200009008BD0000F444025884
:102B1000002809DB410900F01F028900012001F1B2
:102B2000E0219040C1F80001704700000E4BF0B466
:102B30001B680D46C3F30223C3F10706042E00D918
:102B40000426191D072901D2002300E0DB1E012401
:102B500004FA06F19C40491E2940641E9940144025
:102B60002143F0BC05F0C2BB0CED00E0064900F0CB
:102B7000070210B54FF6FF040868044B204040EAF6
:102B800002201843086010BD0CED00E00000FA05BB
:102B90007047D0F8080504F02DBD01EBC10200EB31
:102BA0008202D0F80805926C04F080BC01EBC102EF
:102BB00000EB8202D0F80805D2F8882204F0D2BCDB
:102BC000D0F8080504F018BD0A0601F00F0101EB6A
:102BD000C10100EB810101D53C3101E001F51F711C
:102BE000006805F0F7B970B54268044601F00F00BF
:102BF000904201D9012070BD01F00F024FF0000595
:102C00000B0602EBC2014FF0010204EB810103D578
:102C100081F83D203C3103E081F87D5201F51F71C0
:102C20008D70087094F8BC04012808D084F8BC2486
:102C3000206805F05BF8002084F8BC5470BD0220C9
:102C400070BD2DE9F04101F00F0604460D064FF06E
:102C5000010006EBC6014FF0000504EB810103D52E
:102C600081F83D003C3103E081F87D5201F51F7190
:102C70004F788A600B710E7007B14E83022B00D122
:102C80004D7194F8BC24012A09D084F8BC04206852
:102C900004F0B2FF284684F8BC54BDE8F08102205D
:102CA000FBE770B501F00F05002405EBC50100EB53
:102CB000810101F5227181E81C0001F80B4C01F83B
:102CC0000C5DC368012B00D1CA61027B006805F06E
:102CD00065F8002070BD70B50D464168044605F0EA
:102CE0000F00884201D9012070BD29064FF000066F
:102CF0004FF0010207D500EBC00104EB810181F820
:102D00003D203C3107E005EBC50104EB810181F872
:102D10007D6201F51F718A70087094F8BC04012867
:102D200007D084F8BC24206805F00CF8280702D0EE
:102D300007E0022070BD217B04F2C442206804F049
:102D4000A9FF002084F8BC6470BD70B501F00F04C9
:102D5000002504EBC401012600EB8101483181E824
:102D60002C0001F80B6C01F80C4DC368012B00D14D
:102D7000CA61027B006805F011F8002070BD0000F8
:102D80002DE9FC5F05680446284605F0A0F90028F7
:102D90007ED1206805F0C7F9002879D0D5F8080859
:102DA000C0F30D20C4F8FC04206805F0BCF98007CE
:102DB00004D52068416901F002014161206805F0F5
:102DC000B2F9C10604F2C440009034D5206881698C
:102DD00021F0100181612F6A07F00F01C7F3434012
:102DE00001EBC101022804EB810606F51F7602D033
:102DF000062811D01AE047F6F070074216D0C7F344
:102E00000A12F1681746284605F091F9F1687069D1
:102E10003944F160384408E000990822284605F05A
:102E200086F97069C7F30A110844706120688169E6
:102E300041F010018161206805F075F900034FF041
:102E4000000A4FF0020B4FF001097CD520680026E4
:102E500005F048F9074674E0F80770D02068F1B231
:102E600005F059F98046C00707D005EB4611C1F8B7
:102E7000089B3146204603F033F85FEA087025D5F9
:102E800005EB46110820C1F8080BFC49206800E05A
:102E900042E2026C00EB461001928A42D0F8081B15
:102EA00005D9090403D54FF40041C0F8081B20469A
:102EB00000F06EFAF1490198884207D9E0680128CC
:102EC00004D120680121009A04F0E4FE5FEAC860A2
:102ED00004D505EB46111020C1F8080B5FEA887095
:102EE0001CD56869000605D5D5F8040840F4806152
:102EF000C5F8041806EBC60004EB800090F87F12BA
:102F000000F51F70012905D180F803A02046F1B219
:102F100000F008FA05EB4611C1F808BB5FEA8860CB
:102F200004D505EB46112020C1F8080B5FEA884064
:102F300005D505EB46114FF40050C1F8080B7F088A
:102F4000761C002F88D1206805F0EDF840036FD57E
:102F5000206805F0C0F80026074667E0F80763D050
:102F60002068F1B205F0C5F88046C00723D0D5F837
:102F7000342806F00F0C05EB461309FA0CF08243D7
:102F8000C5F83428C3F80899E06801280FD106EB8A
:102F9000C60004EB8000D0E911121144816436B9F7
:102FA000E06C20B920680121009A04F073FE2046ED
:102FB000F1B2FFF7F2FD5FEA087004D505EB4611A8
:102FC0000820C1F808095FEAC86004D505EB46117E
:102FD0001020C1F808095FEA486004D505EB4611E6
:102FE0004020C1F808095FEA887016D531462846A6
:102FF00005F040F806EBC60004EB800090F83F10A7
:103000003C30012905D180F803A02046F1B200F040
:1030100085F905EB4611C1F808B95FEA086003D5E8
:103020003146204602F0C2FF7F08761C002F95D162
:10303000206805F078F8002811DAD5F8040820F0A7
:103040000101C5F8041894F8F40401283BD0204687
:1030500000F082F92068416901F000414161206877
:1030600005F061F800050BD5D5F80808C00702D0B7
:10307000204600F095F92068416901F40061416142
:10308000206805F050F800010AD52068416901F078
:103090000061416194F8F404E0B1204600F080F949
:1030A000206805F040F8C00472D5D5F8040820F077
:1030B0000101C5F804182068102104F0DBFF00218D
:1030C0004FF67F322DE00021204684F8F4A4FFF76C
:1030D0005FFDBFE784F8F4942068406D0121C0F3E0
:1030E0008300C4F8F8042046FFF752FDD8E700BF7C
:1030F00005EB4110C0F80829D0F8003923F400137B
:10310000C0F80039C0F8082BD0F8003B23F40013B6
:10311000C0F8003BD0F8003B43F00063C0F8003B30
:10312000491C60688842E3D8D5F81C0840F00111BA
:10313000C5F81C18206B68B1D5F8840840F00B0165
:10314000C5F88418D5F8440840F00B012846C5F8A6
:1031500044180DE0D5F8140842F22B010843C5F8D5
:103160001408D5F8100840F00B012846C5F81018CF
:10317000D0F8000820F4FE61C5F80018217B206813
:10318000009A04F087FD2068416901F48051416193
:10319000206804F0C8FF800417D5206804F06CFD97
:1031A000206804F087FF206101F09EF8217C2368ED
:1031B000CAB20146184604F0EBFF204600F0B6F80C
:1031C0002068416901F400514161206804F0ABFFBF
:1031D000000707D5204600F0C3F82068416901F0D8
:1031E00008014161206804F09EFF000616D5A86919
:1031F000012620F08001A9610DE000BF06EBC600AA
:1032000004EB800090F87F02012803D12046F1B240
:10321000FFF7DAFC761C6068B042EFD8206804F053
:1032200082FFC00221D501264F4616E006EBC601FB
:1032300005EB461004EB8101D0F8000991F840201D
:10324000012A09D1002807DAF0B281F83F7040F076
:1032500080012046FFF7B8FC761C6068B042E5D8D4
:103260002068416901F480114161206804F05BFF2E
:10327000800234D501204B4629E000000A30544F2B
:1032800000EBC00205EB401104EB8202D1F8001BF9
:1032900092F88062012E19D1002917DA94F8FC64A3
:1032A00001F4803106F00106B1420FD182F87F327D
:1032B000A96941F08002AA616969090606D4D5F8B6
:1032C000040840F40070C5F8040803E0401C61687D
:1032D0008142D5D82068416901F40011416120681C
:1032E00004F021FF400007D52046FFF752FC20687C
:1032F000416901F080414161206804F014FF4007FA
:103300000AD520684568680702D52046FFF758FCB3
:103310002068416829434160BDE8FC9FD0F808055A
:1033200004F08AB9D0F8080504F09AB970B50446DB
:103330000069012570B1022801D0FDF790FDD4F895
:103340000805294604F0FBF9D4F80805BDE87040EB
:1033500004F0AFB90025F2E7D0F8080504F0D8B9B9
:10336000D0F8080504F0DEB910B5044690F8BC04A6
:1033700001280BD0012084F8381084F8BC042068A0
:1033800004F0F5FE002084F8BC0410BD022010BD3E
:10339000D0F8082500F2C441104604F0DCB9000062
:1033A00010B50446D0F8080504F00EFA2068D0F8ED
:1033B000001E41F00101C0F8001E206A002804D060
:1033C0000248016841F00601016010BD10ED00E007
:1033D000134970B50A68D243520705D5096801F050
:1033E0000701814213D118E00A6822F00702024364
:1033F0000A60FFF7D5FA0A4D4FF47A760446083D85
:1034000007E000BFFFF7CCFA001BB04201D9012052
:1034100070BD2868C0438004F4D4002070BD000053
:103420000C4802580248016841F4807101607047FD
:103430000048025810B500F057FF05490968054AD1
:10344000C1F30211515C01F01F01C84010BD000022
:103450002044025872A00008494930B5484C0B1D61
:103460000A68143409681D68246802F00303C5F370
:103470000012C1F30531C4F3CC04002914FB02F29D
:1034800000EE102AF8EE400A75D03F4A9FED3D1A33
:10349000B7EE000A6BB1DFED3D1A012B01D0022B14
:1034A00064D002EE101A1168F8EE422A81EEA22AC8
:1034B00021E0334C283C23689B0612D5344B24680A
:1034C00001EE901A1168C4F3C104F8EE612AE340DA
:1034D00001EE903AC1F30801F8EE611A81EEA22ADA
:1034E0000BE001EE901ADFED2B2A00BFF8EE611A17
:1034F000116882EEA12AC1F3080101EE901A116849
:10350000F8EE611A40EE811A71EE800A62EE200A2E
:10351000C1F3462101EE101AB8EE411A31EE001A3D
:10352000C0EE811ABCEEE11A80ED001A1168C1F3F9
:10353000064101EE101AB8EE411A31EE001AC0EE43
:10354000811ABCEEE11A80ED011A1168C1F306611F
:1035500001EE101AB8EE411A31EE000A80EE801A20
:10356000BCEEC10A80ED020A30BD04E001EE901A03
:10357000DFED092ABAE70021016041608160F3E7CD
:103580002844025800000039384402580024744A84
:103590000090D0030024744C20BCBE4B494930B588
:1035A000484C0B1D0A681C3409681D68246802F029
:1035B0000303C5F30022C1F30551C4F3CC04002971
:1035C00014FB02F200EE102AF8EE400A75D03F4AD2
:1035D0009FED3D1AB7EE000A6BB1DFED3D1A012BEE
:1035E00001D0022B64D002EE101A1168F8EE422AC4
:1035F00081EEA22A21E0334C283C23689B0612D599
:10360000344B246801EE901A1168C4F3C104F8EE3B
:10361000612AE34001EE903AC1F30801F8EE611A25
:1036200081EEA22A0BE001EE901ADFED2B2A00BFFB
:10363000F8EE611A116882EEA12AC1F3080101EEC9
:10364000901A1168F8EE611A40EE811A71EE800A44
:1036500062EE200AC1F3462101EE101AB8EE411ABB
:1036600031EE001AC0EE811ABCEEE11A80ED001AAC
:103670001168C1F3064101EE101AB8EE411A31EE9D
:10368000001AC0EE811ABCEEE11A80ED011A116831
:10369000C1F3066101EE101AB8EE411A31EE000ACC
:1036A00080EE801ABCEEC10A80ED020A30BD04E053
:1036B00001EE901ADFED092ABAE7002101604160AE
:1036C0008160F3E728440258000000394044025862
:1036D0000024744A0090D0030024744C20BCBE4BDC
:1036E0002DE9FE4F0546DFF8E48350F8081B00245F
:1036F000F64FC943019005F12800264608F1240839
:10370000009008011DD4A86E50B1B0F5801F0CD0F8
:10371000B0F5001F0ED0B0F5401F1ED001240FE001
:10372000386840F40030386017E00198022102F058
:103730008FFC03E00098022102F01AFD04000CD077
:1037400026462888C043C00523D4A86D05281ED26C
:10375000DFE800F00C11161B1B00AA6ED8F8001051
:1037600021F440111143C8F80010EAE7386840F42A
:103770000030386009E00198002102F069FC03E0A4
:103780000098002102F0F4FC044674B100E001242A
:1037900026462888C043800528D4E86D80281ED09E
:1037A0000CDC90B140280ED114E0AA6DD8F80010BE
:1037B00021F007011143C8F80010EAE7C02813D030
:1037C000B0F5807F10D001240FE0386840F400305D
:1037D000386009E00198002102F03AFC03E000980B
:1037E000002102F0C5FC04469CB126462888DFF87B
:1037F000DC92C04309F12C0940052CD4D5F8A8006F
:10380000B0F5800F20D00DDCA0B1B0F5001F0FD1B6
:1038100015E0EA6DD8F8001021F4E0711143C8F802
:103820000010E3E7B0F5C00F13D0B0F5000F10D0D3
:1038300001240FE0386840F40030386009E0019856
:10384000002102F005FC03E00098002102F090FC4A
:1038500004467CB126462888C04300052DD4D5F8FF
:10386000AC00B0F1007F21D00EDCA8B1B0F1807FB8
:1038700010D116E0D5F8A820D9F8001021F4600185
:103880001143C9F80010E6E7B0F1407F13D0B0F162
:10389000806F10D001240FE0386840F400303860A9
:1038A00009E00198002102F0D3FB03E00098002119
:1038B00002F05EFC044674B126462868C0438001CD
:1038C0001FD4E86CD8B110280FD0202812D030288F
:1038D00015D0012414E0D5F8AC20D9F8001021F05F
:1038E000E0611143C9F80010E7E7386840F40030A0
:1038F000386004E00198022102F0AAFB044674B18A
:1039000026462888C043C0042BD4286EB0F5005F3B
:1039100020D00DDCA0B1B0F5805F0FD115E06B4871
:10392000EA6C2030016821F0300111430160E8E7C2
:10393000B0F5405F13D0B0F5804F10D001240FE0F8
:10394000386840F40030386009E00198002102F046
:103950007FFB03E00098002102F00AFC04468CB1D2
:1039600026462888C043800429D4686EB0F5403FBD
:1039700023D010DC08B3B0F5803F14D0B0F5003F81
:103980000FD115E02A6ED8F8001021F4E041114360
:10399000C8F80010E5E7B0F5802F0ED0B0F5A02FE5
:1039A0000BD001240AE00198012102F051FB03E051
:1039B0000098012102F0DCFB044694B126462888D9
:1039C000C04340042AD4D5F8B000B0F1405F23D002
:1039D00010DC08B3B0F1805F14D0B0F1005F0FD1FC
:1039E00015E06A6ED8F8001021F4E0211143C8F800
:1039F0000010E4E7B0F1804F0ED0B0F1A04F0BD033
:103A000001240AE00198012102F022FB03E0009862
:103A1000012102F0ADFB044674B126462888C0435C
:103A200000041FD4286FD8B1B0F1805F0ED0B0F180
:103A3000005F10D0012414E0D5F8B020D9F80010B0
:103A400021F0E0411143C9F80010E7E7386840F47D
:103A50000030386004E00198012102F0F9FA0446D0
:103A600074B126462868C043C0011ED4A86CD0B1EA
:103A700001280ED0022811D0032814D0012413E00D
:103A80002A6FD8F8001021F040511143C8F80010F7
:103A9000E8E7386840F40030386004E0019802211B
:103AA00002F0D6FA0446ACB126462868DFF81CB00E
:103AB000C043ABF11C0B400252D40548016841F4ED
:103AC00080710160FEF76CFF824611E02C440258C1
:103AD00000480258FA48AA6C016821F0030111431A
:103AE0000160E2E7FEF75CFFA0EB0A00642835D82E
:103AF000F4480068C005F5D58CBBDFF8C4A3B5F861
:103B0000B4100AF1240ADAF8000001F4407100F45C
:103B10004070884211D0DAF80010DAF8002021F461
:103B2000407142F48032CAF80020DAF8002022F412
:103B30008032CAF80020CAF80010D5F8B400B0F5F9
:103B4000807F1AD1FEF72CFF029012E0FEF728FFCB
:103B50000299411A41F2883081420AD9032426464B
:103B60002878DFF85CA3C0430AF1080AC00721D017
:103B70003CE0DAF800008007E8D5D5F8B410C1F3CE
:103B80000120032858460DD0016821F47C510160C2
:103B9000B5F8B420DAF80010C2F30B021143CAF8EA
:103BA0000010DDE7C84A036802EA111223F47C51D1
:103BB0001143ECE7E86F182816D005DCA0B10828FF
:103BC00008D0102804D10AE020280DD028280BD0D6
:103BD00001240AE00198012102F03AFA03E000987A
:103BE000012102F0C5FA044664B126462878C04394
:103BF00080071ED4A86F062819D2DFE800F0160C43
:103C000011161616EA6FDAF8001021F03801114388
:103C1000CAF80010EAE70198012102F019FA03E05E
:103C20000098012102F0A4FA04467CB100E00124CE
:103C300026462878C04340071FD4D5F894000628AC
:103C400019D2DFE800F0160C11161616AA6FDAF872
:103C5000001021F007011143CAF80010E9E70198AC
:103C6000012102F0F5F903E00098012102F080FA49
:103C70000446A4B100E0012426462878C04380060B
:103C80002BD4D5F89000B0F1405F24D011DC10B3F4
:103C9000B0F1805F15D0B0F1005F10D116E0D5F81B
:103CA0009420D9F8001021F007011143C9F8001041
:103CB000E3E7B0F1804F0ED0B0F1A04F0BD001245C
:103CC0000AE00198002102F0C3F903E00098022104
:103CD00002F04EFA044694B126462878C0434006C6
:103CE0002BD4D5F89C00B0F5406F24D011DC10B374
:103CF000B0F5806F15D0B0F5006F10D116E0D5F893
:103D00009020DAF8001021F0E0411143CAF80010C9
:103D1000E3E7B0F5805F0ED0B0F5A05F0BD00124D3
:103D20000AE00198002102F093F903E000980221D3
:103D300002F01EFA044694B126462878C0430006D5
:103D40002BD4D5F8A000B0F5C04F24D011DC10B3AF
:103D5000B0F5005F15D0B0F5804F10D116E0D5F862
:103D60009C20D9F8001021F4E0511143C9F800104B
:103D7000E3E7B0F5004F0ED0B0F5204F0BD0012493
:103D80000AE00198002102F063F903E000980221A3
:103D900002F0EEF9044654B126462878C0430007E5
:103DA0001ED4D5F88400B0F5805F0AD00FE0D5F8B6
:103DB000A020D9F8001021F460411143C9F8001087
:103DC000EBE70098022102F0D3F900B10126D5F803
:103DD0008420DAF8001021F440511143CAF8001091
:103DE0002878C043C00613D4D5F89800B0F5807F7A
:103DF00005D10098022102F0BBF900B10126D5F8E7
:103E00009820D9F8001021F440711143C9F800102E
:103E10002868C043000316D4D5F8A40038B1B0F523
:103E2000803F09D0B0F5003F0BD001240AE0019893
:103E3000002102F00DF903E00098022102F098F948
:103E400004468CB126462868C043400322D4D5F8E6
:103E50008800B0F5801F11D0B0F5001F13D0B0F569
:103E6000401F15D0012414E0D5F8A420D9F8001083
:103E700021F440311143C9F80010E4E7386840F4F8
:103E80000030386004E00098012102F071F9044626
:103E90005CB126462868C043C00323D4286DA8B16E
:103EA000B0F5803F17D001241BE0D5F88820DAF860
:103EB000001021F440111143CAF80010EAE7000095
:103EC0004C44025800480258CFFFFF00386840F4C5
:103ED0000030386004E00198022102F0B9F804468D
:103EE000E4B126462868C043800005D4009802212A
:103EF00002F03EF900B101262868C04380031BD4BC
:103F0000D5F88000B0B1B0F5807F0FD0B0F5007F5C
:103F100010D0B0F5407F0DD001240CE05A482A6D36
:103F2000016821F4803111430160DBE7386840F417
:103F300000303860ECB326462868C043C00207D47E
:103F40006A6FD8F8001021F000411143C8F8001042
:103F50002868C043C00008D4D5F8B820DBF80010AA
:103F600021F480411143CBF800102868C04380023F
:103F700007D4EA6ED8F8001021F080711143C8F818
:103F800000102868C04340000CD4DBF8001021F476
:103F90000041CBF80010DBF80010D5F8BC2011432D
:103FA000CBF800102868C04308D437486A6D016810
:103FB00000E018E021F04051114301602868C0433F
:103FC000000208D4D5F88C20DAF8001021F4400162
:103FD0001143CAF8001028790024C04300F0010002
:103FE00020430AD00FE0D5F88020DAF8001021F441
:103FF00040711143CAF800109EE70198002102F0B9
:1040000027F800B106462879C04300F0020020439B
:1040100005D10198012102F01BF800B1064628796C
:10402000C04300F00400204305D10198022102F0B2
:104030000FF800B106462879C04300F0080020437D
:1040400005D10098002102F093F800B106462879C6
:10405000C04300F01000204305D10098012102F078
:1040600087F800B106462879C04300F020000443D9
:1040700004D10098022102F07BF800B916B10120AA
:10408000BDE8FE8F0020FBE74C4402582DE9F05FAD
:1040900004000F467ED0DFF83882D8F8000000F028
:1040A0000F00B8420CD2D8F8001021F00F013943AC
:1040B000C8F80010D8F8000000F00F00B84269D12D
:1040C0002078844D40070AD52069296801F07001E5
:1040D000884204D9296821F07001014329602078C1
:1040E0007C4E361D00070AD56069316801F0700109
:1040F000884204D9316821F0700101433160207891
:10410000C0060AD5A069316801F4E061884204D98B
:10411000316821F4E061014331602078DFF8B4B107
:1041200080060BF1080B0CD5E1695846DBF800203E
:1041300002F07002914204D9026822F070020A4330
:104140000260207880070AD5E068296801F00F0135
:10415000884204D9296821F00F01014329602078A1
:10416000C0073ED05B49A2682868183920F4706007
:10417000104328606068022818D0032819D0096805
:10418000012819D0490700294ADADFF848A1AAF125
:10419000080A00E044E0DAF8002022F007020243B7
:1041A000CAF80020FEF7FCFB814612E0096889038B
:1041B000E9E709688901E6E7C905E4E7FEF7F0FBEE
:1041C000A0EB090141F28830814202D90320BDE809
:1041D000F09F6168DAF8000000F03800B0EBC10F22
:1041E000ECD1207880070AD5E068296801F00F013A
:1041F000884204D2296821F00F0101432960D8F8D0
:104200000010404601F00F01B9420BD9016821F0BE
:104210000F0139430160006800F00F00B84201D07F
:104220000120D4E7207840070AD52069296801F0E9
:104230007001884204D2296821F07001014329608D
:10424000207800070AD56069316801F07001884262
:1042500004D2316821F07001014331602078C0063A
:104260000AD5A069316801F4E061884204D231685E
:1042700021F4E06101433160207880060CD5E169CA
:104280005846DBF8002002F07002914204D2026826
:1042900022F070020A43026000F06CF80E492A68AE
:1042A0002B68C2F3032203F00F038A5CC95C02F09F
:1042B0001F0201F01F01D040084A20FA01F11160ED
:1042C0000749086007480068BDE8F05FFEF7A4BB37
:1042D000002000521844025872A000084400002038
:1042E000400000203800002030B500F043F80B4AB1
:1042F0000B490C4B15681468C5F3032204F00F0436
:104300008A5C095D02F01F0201F01F01D040064ADD
:1043100020FA01F119601060084630BD18440258B7
:1043200072A00008440000204000002000B5FFF704
:10433000DBFF05490968054AC1F30211515C01F030
:104340001F01C84000BD00001C44025872A00008B4
:1043500000B5FFF7C9FF05490968054AC1F3022105
:10436000515C01F01F01C84000BD00001C44025810
:1043700072A00008454970B545480968434B103B99
:1043800011F0380208D00111082A03D0102A0BD0EE
:10439000182A0BD0084670BD19688906FBD5196824
:1043A000C1F3C101C84070BD3A4870BD3749374DAF
:1043B00018310C1D24350A68096826682D6802F03A
:1043C000030406F00102C1F30511C5F3CC0515FB8A
:1043D00002F200EE102AB8EE400AE9B32F4ADFEDF0
:1043E0002E0AB7EE001A6CB1DFED2D1A012C01D0A8
:1043F000022C43D002EE101A1068F8EE422A81EE29
:10440000A22A1EE01C68A40611D51B6801EE901AB2
:104410001168C3F3C103F8EE612AD84001EE900A97
:10442000C1F30800F8EE611A81EEA22A0BE001EE5A
:10443000901ADFED1C2A00BFF8EE611A106882EEB8
:10444000A12AC0F3080001EE900AF8EE611A40EECE
:10445000201A31EE810A00E015E022EE000A106811
:10446000C0F34620401C00EE900AF8EE600A80EE91
:10447000201ABCEEC10A10EE100A70BD01EE901AAF
:10448000DFED092AD8E7002070BD00001044025873
:104490000090D00340787D0100000039304402587C
:1044A0000024744A0024744C20BCBE4B2DE9F05FFC
:1044B00004007DD0FF4F2078FE4D1837DFF8F493CD
:1044C000103DC00748D0D9F80000396800F0380026
:1044D000102815D0182803D101F0030002280FD0AE
:1044E0006068B0F5803F12D010B1B0F5A02F18D0A1
:1044F000286820F480302860286820F4802009E0B3
:104500002868800328D560680028D2D024E0286875
:1045100040F480302860606888B1FEF741FA0646B2
:1045200009E0286840F480202860F0E7FEF738FAB8
:10453000801B64286FD828688003F7D50CE0FEF74D
:104540002FFA064605E000BFFEF72AFA801B642812
:10455000F0D828688003F7D4207841F20308D54EBC
:104560000C3E800769D5D9F80000396810F0380092
:104570000ED0182801D188070AD0E06890B32968C6
:1045800021F0190101432960FEF70AFA824631E061
:104590002868400702D5E06800288AD0E1682868CA
:1045A00020F0190008432860FEF7FAF9824607E078
:1045B000DFE000BFFEF7F4F9A0EB0A000228B9D84B
:1045C00028684007F6D500BFFEF7E4F940451BD840
:1045D0002069402812D0316821F47C3141EA003052
:1045E00030602AE018E000BFFEF7DAF9A0EB0A001D
:1045F00002289FD828684007F6D5E5E7306820F400
:104600007C3040F40030EBE7207C316821F0FE4143
:1046100041EA0060E4E70DE1286820F0010028602D
:10462000FEF7BEF9824605E0FEF7BAF9A0EB0A00F4
:1046300002288DD828684007F6D42078C0065DD5BA
:10464000D9F80000DFF86CB2396800F03800ABF13F
:10465000040B082810D0182803D101F0030001280A
:104660000AD0E0690028286838D040F0800028602F
:10467000FEF796F9824623E02868C00523D5E06955
:10468000802876D11FE0206A202821D0316821F0CF
:10469000F84141EA8060306030E000BF94F82010BB
:1046A000DBF8002022F07C5242EA0161CBF80010D6
:1046B00024E000BFFEF774F9A0EB0A00022898D8A6
:1046C0002868C005F6D5FEF765F94045E6D8DAE773
:1046D000306820F0F84040F08040DCE720F08000B7
:1046E0002860FEF75DF9064605E000BFFEF758F9C1
:1046F000801B02289DD82868C005F7D420780007C1
:1047000029D56C486169643000298046016811D060
:1047100041F001010160FEF743F9064605E000BFE4
:10472000FEF73EF9801B0228C9D8D8F800008007A0
:10473000F6D510E021F001010160FEF731F90646DF
:1047400005E000BFFEF72CF9801B022872D8D8F8CC
:1047500000008007F6D42078800623D5A0690028C1
:10476000286810D040F480502860FEF719F90646FA
:1047700005E036E1FEF714F9801B02285AD82868B4
:104780008004F7D50EE020F480502860FEF708F989
:10479000064604E0FEF704F9801B02284AD8286880
:1047A0008004F7D4207840074FD5DFF80C81D8F883
:1047B000001041F48071C8F80010FEF7F1F80646C9
:1047C00005E000BFFEF7ECF8801B642832D8D8F86B
:1047D0000000C005F6D5374EA068603601280AD023
:1047E00008B1052813D0306820F00100306030682F
:1047F00020F0040002E0306840F001003060A06862
:1048000041F2883A90B1FEF7CBF880460AE0306872
:1048100040F004003060EEE7FEF7C2F8A0EB0801BC
:10482000514507D830688007F6D50EE0FEF7B8F896
:10483000804607E084E000BFFEF7B2F8A0EB080175
:1048400051457DD830688007F6D4606AB0B3DFF890
:104850006480D9F8001008F120084FF6F87B08F1C1
:104860000409C1F3C2010329A8F1040A69D002288E
:10487000286820F08070286003D0FEF791F8044685
:1048800084E0FEF78DF8064605E000BFFEF788F8E5
:10489000801B022877D828688001F7D4E26A40F2AA
:1048A000F331386854F8283F884340EA021018432F
:1048B000386004E01044025800480258B5E0217BFB
:1048C000434622894FF4FE0C208A4FF0FE474902EE
:1048D000267D521E401EA1F50071C2F308088AB25F
:1048E000761E0CEA004042EA08020243504607EAFC
:1048F00006610A431A60DAF8002022F00102CAF8C1
:104900000020D9F80020266A22EA0B0242EAC602F9
:10491000C9F80020DAF80010A26921F00C01114357
:10492000CAF800100168E26921F002011143016038
:10493000016841F480310160016841F4003101E017
:1049400021E027E00160016841F4802101600168F5
:1049500041F001010160286840F080702860FEF796
:104960001FF8044605E000BFFEF71AF8001B0228F6
:1049700009D828688001F7D557E000BFFEF710F886
:10498000001B022802D90320BDE8F09F286880019F
:10499000F4D44AE039680128D8F8000021D0A26A8E
:1049A00001F0030393421CD1E26AC1F305118A426C
:1049B00017D1216BC0F30802491E8A4211D1616BE5
:1049C000C0F34622491E91420BD1A16BC0F30642AF
:1049D000491E914205D1E16BC0F30660491E814238
:1049E00001D00120D0E7A16C4E46D9F80000C0F3F9
:1049F000CC00814219D0DAF80000554620F00100C1
:104A0000CAF80000FDF7CCFF4FEA0007FDF7C8FF2A
:104A1000B842FBD0A26C306820EA0B0040EAC2002A
:104A20003060286840F0010028600020ACE7704743
:104A300070477047704770472DE9F8430446006897
:104A4000E56A416B09041BD5290719D5D4E909503A
:104A5000202813D30026206801F0A7FE020A287040
:104A6000010C6A70030EA970761CEB70082E05F11C
:104A70000405F0D3A06A2038C4E90950BDE8F883E2
:104A8000416B0127DFF8EC810026C90551D53902B9
:104A90004CF23A12816329072068C16B21EA0201B6
:104AA000C1632068C16B21F08051C1632068C16877
:104AB00021F04001C16018D515F0220F09D02068FF
:104AC00001F0B4FD28B1616B014361632046FFF73B
:104AD000B2FF2168AA07C1F8388084F83070E66216
:104AE00023D1204600F0C9F8C8E72806C6D52068BB
:104AF00015F0220F86622068C6622068066509D01C
:104B0000206801F093FD28B1616B01436163204689
:104B1000FFF791FF15F0300F84F83070E66202D095
:104B2000204600F0AAF8A807A8D0204600F0A4F874
:104B3000A4E7416B490421D529071FD5D4E90750C3
:104B400020289BD3002628780090697840EA01202D
:104B50000090A97840EA01400090E9782D1D40EAD4
:104B6000016000902068694601F036FE761C082E30
:104B7000E9D3206A2038C4E907507FE7416B11F080
:104B80003A0F416B58D0890703D5616B41F00201A0
:104B90006163416B090703D5616B41F008016163F3
:104BA000416B890603D5616B41F020016163416B64
:104BB000C90603D5616B41F010016163C0F838800C
:104BC0002068C16B21F49D71C1632068C16821F028
:104BD0004001C1602068C16A41F40051C16220688F
:104BE000C16841F08001C160206801F01FFD626B67
:104BF0002B074FF4006140EA020060632068C2683E
:104C000022F08002C2602068816303D584F830708E
:104C1000E6620DE028068BD5606B002888D02068FE
:104C2000C16B21F08051C1632068066584F8307043
:104C30002046FFF700FF21E7C9009ED54FF08051C5
:104C400081632068006D40074FEA856008D4002822
:104C5000204602DAFFF7EEFE10E7FFF7E9FE0DE768
:104C60000028204602DAFFF7E4FE07E7FFF7DFFE41
:104C700004E700003A0F0018704770472DE9F0472D
:104C8000040029D0594A4FF000092068584B594D6B
:104C90009042C4F8289006D0984204D0A84202D08E
:104CA000E1680F2918D8E1684FF0010AE76B083175
:104CB000C9080AEB57167143904205D0984203D0B9
:104CC000A84201D0082907D8904203D0984201D0C9
:104CD000A84204D1102902D90120BDE8F08794F838
:104CE000810020B9204684F8809000F085F80220E9
:104CF00084F881002068016821F0010101602068CA
:104D0000A1698268B1F1806F02F4F81110D1626874
:104D1000B2F5800F01D01AB10AE0A26B22B107E010
:104D2000A26BB2F1805F03D1026842F4805202604C
:104D30006068400209D5E068072806D32068236D23
:104D4000026822F480721A4303E02068026822F4A9
:104D500080720260A66AE069E26B25683043E3680E
:104D60000A4310431843A860D4E90D02D4E9058131
:104D7000636A25691843D4F820C00A4326681043A3
:104D80002843A56DD4E90172D4E9123140EA080044
:104D900040EA0C0038430843104318432843F060AE
:104DA000606868B92068816821F4C05141F40061ED
:104DB00081602068816821F4C06141F48061816074
:104DC0002068016D21F0010101656068400206D58F
:104DD0002068626DC16821F000411143C160C4F8D0
:104DE000849084F881A0002077E700000030014023
:104DF00000380040003C0040F0B5B7B00446142134
:104E000030A8FBF79DFAC0216846FBF799FA2349C1
:104E10002068884240D14114002019900446CDE911
:104E200000106846FEF75CFC08B1FCF718F81C4857
:104E3000016841F400510160006800F400503590B1
:104E400017481038016841F010010160006830AD6A
:104E50000221144F00F0100035904FF4B0400523AC
:104E600085E8130003223846CDE9332330A9FDF746
:104E700071FC01260C484FF400453095CDE93164B2
:104E800030A93394FDF766FC309530A9CDE9316443
:104E900038463394FDF75EFC37B0F0BD0034014076
:104EA000F044025800100258000C02582DE9F84F47
:104EB0008A4690F8801099461746012904464FF01B
:104EC000000B0DD04FF0010884F88080FDF768FDDD
:104ED000064694F881000025012804D0022034E021
:104EE0000220BDE8F88FBAF1000F2DD067B3A1689A
:104EF0000320C4F85CA0A4F8607084F88100C4F8B2
:104F00008450A4F862706566A4F86850A4F86A50EA
:104F1000B1F5C02F65672567206819D0C16821F4F5
:104F2000C02141F40031C160206841686FF30F0176
:104F3000394341602068016841F001010160606807
:104F4000B0F5800F09D00DE0012084F88050C8E74B
:104F5000016841F400610160E6E72068016841F4FE
:104F600000710160E0680F281CD82EE020684169BC
:104F700089070BD5E16D09680162E06D001DE065F0
:104F8000B4F86200401EA4F862000BE0FDF708FDD3
:104F9000811B494503D3B9F1FF3F03D007E0B9F1C5
:104FA000000F04D0B4F862000028DFD183E020466F
:104FB00001F017FCD4F8841084F8805041F480711B
:104FC000C4F8841084F881809CE007282CD86EE017
:104FD0002068416989071BD5B4F8621001290BD9F3
:104FE000E16B49B1E16D09680162E06D001DE065AA
:104FF000B4F86200801E08E0E16D09880184E06D6C
:10500000801CE065B4F86200401EA4F862000BE06A
:10501000FDF7C6FC811B494503D3B9F1FF3F03D01F
:10502000C5E7B9F1000FC2D0B4F862000028CFD1B3
:1050300041E02068416989072DD5B4F86210032941
:105040000CD9E16B402909D9E16D09680162E06D75
:10505000001DE065B4F86200001F19E0B4F86210AA
:1050600001290BD9E16B49B1E16D09880184E06D3B
:10507000801CE065B4F86200801E09E0E16D0978EB
:1050800080F82010E06D401CE065B4F86200401E1E
:10509000A4F862000BE0FDF783FC811B494503D3B4
:1050A000B9F1FF3F03D020E0B9F1000F1DD0B4F8F3
:1050B00062000028BDD100224B4608212046009600
:1050C00001F0CCFC28B1D4F8840040F02000C4F8F2
:1050D0008400204601F085FB84F88180D4F88400A8
:1050E00084F8805080B10120FBE6204601F079FB76
:1050F000D4F8840084F8805040F48070C4F88400B0
:1051000084F881800320ECE65846EAE6401EB0F1C0
:10511000807F10B501D3012010BD4FF0E024606105
:105120000F21601703F0E2F80020A0610721216140
:1051300010BD30B590F88410012918D0012280F8F4
:1051400084202421C0F888100022202401680B68E4
:105150000D6823F0005325F001050D6042660168DB
:105160000B60C0F8884080F88420104630BD0220D3
:1051700030BD70B5044690F8840001281DD001228E
:1051800084F884202420C4F8880020680568026818
:1051900022F0010202602068826822F060620A4305
:1051A0008260204601F082FD2268202100201560E7
:1051B000C4F8881084F8840070BD022070BD70B5FA
:1051C000044690F8840001281DD0012284F8842030
:1051D0002420C4F8880020680568026822F00102D3
:1051E00002602068826822F060420A4382602046A2
:1051F00001F05CFD2268202100201560C4F88810B1
:1052000084F8840070BD022070BD10B5040003D086
:10521000D4F8880010B107E0012010BD002084F808
:105220008400204600F026F82420C4F88800206876
:10523000016821F001010160204601F03DFE0128D6
:10524000EBD0A06A10B1204601F052FD2068416801
:1052500021F4904141602068816821F02A01816039
:105260002068016841F0010101602046BDE810405E
:1052700001F0A2BD10B5B6B00446142130A8FBF76A
:105280005FF8C0216846FBF75BF81A49206888423E
:105290002DD100201F9001210446CDE90010684661
:1052A000FEF71EFA08B1FBF7DAFD1348016841F07A
:1052B00010010160006800F0100035900E481038B1
:1052C000016841F00101016000680DF1C00C02218C
:1052D00000F0010035904FF4C06007238CE8130004
:1052E00003220648CDE9332330A9FDF733FA36B05F
:1052F00010BD000000100140F044025800000258A8
:105300002DE9F8430446D0F88800984616460D4625
:10531000202802D00220BDE8F883A5B19EB100216B
:10532000C4F890102120C4F888001834FDF738FB29
:10533000814654F8100CA687E6872027183CB0F564
:10534000805F02D003E00120E5E7206910B12E461E
:10535000002510E000260EE08021204601F082FFAB
:10536000C0B9DEB116F8010B21688862B4F85600A6
:10537000401EA4F85600B4F856004B464FF0000209
:10538000CDF800800028E7D14FF04001204601F021
:1053900069FF48B1C4F888700320BCE735F8020BF8
:1053A0002168C0F30800E0E7C4F888700020B2E785
:1053B000FEE7000070B5134C6189A089491E8AB2CE
:1053C000401E83B20021084600F0B6FA01220E48C2
:1053D000D103FDF7DAFAA4F688050F20E860284625
:1053E000FFF74CFC6289A089A188424389B2284614
:1053F00000F02AF90720E8602846BDE87040FFF772
:105400003DBC0000A0090020001002582DE9F04129
:1054100017461C460A19C519069E521E93B26D1EE8
:10542000AAB200F089FA01220B48D103FDF7ADFAC8
:105430000A4D0F20E8602846FFF720FC07FB04F226
:105440003146284600F0ACF90720E8602846BDE860
:10545000F041FFF713BC00000010025818010020B3
:105460002DE9F05FDFF8A0E0203A0023274E02F09C
:10547000FF0A894683461A46DEF80800194626E0E8
:10548000234DD0F80080B5F800C0AF880AFB048532
:105490001FFA8CFCBFB2002413F805505FEAC578F0
:1054A00002D026F812C001E026F81270B0F804808D
:1054B000491C521C89B26D0892B2884501D1002165
:1054C00003E0641CA4B2082CE8D35B1C9BB20489E3
:1054D0009C42D5D8C288A9F101018388ABF10100B3
:1054E0001144744618448BB2494682B2584600F0C3
:1054F00023FAA0688188C088BDE8F05F4143034873
:1055000089B200F09FBA000008000020A00100202E
:10551000A00900207FB51E46094B05460C46187AA7
:105520001346324648B107A1684602F0CBFE6A46F0
:105530002146284600F00CF87FBD03A1F4E70000E7
:10554000A0090020252A640025302E2A64000000CE
:105550002DE9F0410B4F15460B4E8846044608E0F6
:1055600041462046FFF77CFFB8686D1C80882044C8
:1055700084B27089A04202D92A78002AF0D1BDE80D
:10558000F081000008000020A009002010B502688A
:1055900040F26F335169946944F0080494610268E1
:1055A000946944F0100494610268146824F00104C2
:1055B0001460026814699C4314610268936823F4C0
:1055C0004043936090F88120042A0CD08A060AD5C3
:1055D000D0F8842042F08002C0F8842002689369E9
:1055E00043F02003936190F88120032A0CD04A06EF
:1055F0000AD5D0F8842042F00402C0F88420026862
:10560000936943F0400393618A050AD5D0F884205A
:1056100042F00102C0F884200268936943F40073E9
:105620009361C9050AD5D0F8841041F00801C0F88B
:10563000841001688A6942F480728A610021A0F8AE
:105640006210A0F86A1010BD2DE9FC5F8A4690F840
:105650008010044616460020019001294FF47A7705
:105660000DD04FF0010884F88080FDF799F981464C
:1056700094F881000025012804D0022017E00220C0
:10568000BDE8FC9F96B1A16803204AEA0A4B84F862
:105690008100C4F884506566A4F86850A4F86A5084
:1056A000B1F5C02F6567256704D008E0012084F8B4
:1056B0008050E5E72068016841F4006101602068DE
:1056C00041686FF30F0141602068016841F00101FA
:1056D00001606068B0F5800F04D12068016841F472
:1056E000007101602068416989070DD5B4F8621026
:1056F000012905D9E16B19B1C0F820B0B61E17E039
:10570000A0F820A0761E13E0FDF74AF9A0EB0900EF
:10571000B8420DD32046FFF739FFD4F8841084F83F
:10572000805041F48071C4F8841084F8818033E0A3
:10573000002ED7D100224B464FF4805120460097CF
:1057400000F0D9F828B1D4F8840040F02000C4F863
:1057500084002068016841F48061016000224B46AA
:105760004FF400612046009700F0C5F828B1D4F846
:10577000840040F02000C4F884002046FFF706FFB4
:105780002068826942F40062826184F8805084F863
:105790008180D4F8840008B1012071E701986FE797
:1057A0002DE9F84F0E4690F880104FF47A771546A1
:1057B000012904464FF0000B0DD04FF0010984F889
:1057C0008090FDF7EDF894F88110824600200129C1
:1057D00004D0022116E00220BDE8F88F8DB1A26846
:1057E0000321804684F88110C4F884006066A4F820
:1057F0006800A4F86A00B2F5C02F6067206705D082
:1058000009E0012184F880000846E5E72068016886
:1058100041F400610160206841686FF30F0141604D
:105820002068016841F0010101606068B0F5800FF7
:1058300004D12068016841F4007101602068416969
:1058400089070CD5012D05D9E16B19B102CE016292
:10585000AD1E18E036F8021B01846D1E13E0FDF743
:105860009FF8A0EB0A00B8420DD32046FFF78EFE4A
:10587000D4F8842084F8808042F48071C4F88410C5
:1058800084F8819033E0002DD8D1002253464FF4A4
:1058900080512046009700F02EF828B1D4F88400FB
:1058A00040F02000C4F884002068016841F4806161
:1058B0000160002253464FF400612046009700F03B
:1058C0001AF828B1D4F8840040F02000C4F884000D
:1058D0002046FFF75BFE2068836943F40063836121
:1058E00084F8808084F88190D4F8840008B1012085
:1058F00072E7584670E72DE9F041984616460D4686
:105900000746069C09E0FDF74BF8A0EB0800A04213
:1059100002D3601C01D00BE054B13868406935EA0D
:10592000000007D00020B042EDD00020BDE8F0819B
:105930000320FBE70120F6E72DE9F04198461546E4
:105940000E4607462A2000F09DF80F4CA07B3844F5
:1059500080B200F0ABF8A07B284480B200F0A6F83B
:105960002B2000F08FF8E07B304480B200F09EF8EE
:10597000E17B01EB080080B200F098F8BDE8F0414F
:105980002C2000F07FB80000A00900204FF47841DF
:105990004FF4FC6301EA1021C0F3C40203EA501083
:1059A000014302481143416070470000A0090020F4
:1059B0004FF478414FF4FC6301EA1021C0F3C402B4
:1059C00003EA501001430248114301607047000090
:1059D000A00900202DE9F041194C002514264FF0B4
:1059E000F0084FF48C77607298B1022816D0012825
:1059F00019D003280BD1362000F044F85FF0C00026
:105A000000F06CF8A573E673A4F80A80A781BDE8DE
:105A1000F081362000F036F8702008E0362000F0E3
:105A200031F80020ECE7362000F02CF8A02000F040
:105A300055F8A673E5736781A4F80C80E7E70000CA
:105A4000A009002070B501220C4605460B48D10381
:105A5000FCF79BFF0A4E0F20F0603046FFF70EF96F
:105A60004FF47A73224629463046FFF71FFA072083
:105A7000F0603046BDE87040FFF700B900100258F2
:105A80001801002001B5074800224FF40041FCF73F
:105A90007CFF054801224FF47A736946FFF706FA46
:105AA00008BD00000010025818010020012238B57E
:105AB000D10304460748FCF768FF200A8DF8000070
:105AC000054802224FF47A7369468DF80140FFF7CA
:105AD000EDF938BD0010025818010020012201B56F
:105AE0000548D103FCF751FF044801224FF47A73B3
:105AF0006946FFF7DBF908BD0010025818010020C5
:105B00001FB5FCF7D7FF01218DF80F1000208DF88D
:105B10000E1012238DF8083003248DF80B408DF8F9
:105B200000104FF010528DF80D108DF80A00019200
:105B30008DF801008DF809008DF80C006846FCF71F
:105B40008BFF0420FCF7C4FF1FBD0000124800219A
:105B5000104A10B5C0E900218160C1600161416156
:105B60008161016241628162C1620163FBF714FAE3
:105B7000052200214E20FCF7D9FF4E20FCF7C8FF7C
:105B80000548FBF709FA002803D0BDE81040FBF7F1
:105B900066B910BD000002485000002030B587B043
:105BA00014216846FAF7CCFB2248016841F0100145
:105BB0000160016801F010010591016841F00401E4
:105BC0000160016801F004010591016841F0800164
:105BD0000160016801F080010591016841F0010157
:105BE0000160016801F001010591016841F00201C5
:105BF0000160016801F002010591016841F00801AE
:105C0000016000684FF400540B4D002200F00800C2
:105C1000214605902846FCF7B8FE0021009401209B
:105C2000CDE90101284603916946FCF793FD07B0D1
:105C300030BD0000E04402580008025870B5154815
:105C40004FF480050021124CEB010722C0E903212B
:105C5000C0E90513C1615A000162202341626E113F
:105C60008162C162C0E90D21C0E90F3141648164E4
:105C7000C16401654165816580E87000FEF7FEFF43
:105C8000002803D0BDE87040FBF7E9B870BD000004
:105C900000340140180100201848002110B5164CAE
:105CA0000C224FF4E1330460C0E90131C160C0E966
:105CB00004128161C161016241628162FFF7A5FA4C
:105CC00008B1FBF7CCF80D480021FFF778FA08B1CE
:105CD000FBF7C5F809480021FFF74BFA08B1FBF7BD
:105CE000BEF80648FFF725FA002803D0BDE81040AB
:105CF000FBF7B5B810BD000000100140B00900204E
:105D0000FEE7FEE70148FDF73BB80000640C002009
:105D100070B50024054605E005EB4401497800F024
:105D200071FC641C15F814000028F5D170BD00004A
:105D300038B590424FF0FF3401D2994201D320464A
:105D400038BD121A95B25A1A04EB400302EBD27214
:105D5000491E88B2009004EB6202054892B22946BF
:105D60009BB2FBF77EF80248FBF796F8002038BD9F
:105D7000500000201748F8B5016841F002010160A9
:105D800000684B27144E154C00F0020000900020D4
:105D90003115C4E90067A0600C348A000B018D1036
:105DA0002FC40426032784E8C100E0602061203C62
:105DB0000A48FCF78DF9A4F15000002211468464D2
:105DC000A0634620FCF7B2FEBDE8F8404620FCF791
:105DD0009FBE0000D8440258B8040240A000002032
:105DE00070B50C46084905464FF48070C8610846F6
:105DF000FCF76EF9044823462A46BDE870400021AE
:105E00005038FBF7BBB90000A000002001B500220C
:105E100049F6404181B00CE0ADF8002005E000BF3C
:105E2000BDF80000401CADF80000BDF8000088423D
:105E3000F6D30198431E0193EED20CBD0121FF2041
:105E400010B500F0DFFB0A2000F000FB04460B2039
:105E500000F0FCFA40EA042010BD0000052010B557
:105E6000FFF7D4FF0A4800224FF48041FCF78DFD74
:105E70000520FFF7CBFF0121FF2000F0C3FB8021AD
:105E8000122000F0BFFBBDE810400A20FFF7BEBFA4
:105E9000000C025870B50C4605462043800702D01E
:105EA0004FF0FF3070BD0021FF2000F0ABFB5A2007
:105EB000C5F3870100F0A6FB5B20C4F3870100F067
:105EC000A1FB042000EA1421C5F3812211435C20C8
:105ED00000F098FB0021E02000F094FB002070BD52
:105EE0002DE9F0410446C0680D46202723680128AB
:105EF0004FF4004604F2C44203EB4511D3F840C00E
:105F0000D1F8080B09D0DFF89CE0F4453AD102043F
:105F100033D500BFC1F8086B40E0234B5FEA007E39
:105F200004D59C453AD90004F4D437E05FEA806E8A
:105F300002D5C1F8087B31E010F0280F2ED19C4526
:105F400001D90004E6D4D1F8101B05EBC50004EB21
:105F50008000C1F31201D0F89C32A3EB0101C0F81C
:105F6000901200F51F70ADB903691BB1C2681144EE
:105F7000C1600FE0206801210AE080060AD5C1F85F
:105F8000087B07E035B9D4F88C0218B9002118460F
:105F900001F080FE2046E9B2FCF708FE0020BDE8D3
:105FA000F08100000A31544F0A30544F2DE9F84F68
:105FB0000E460568814601EBC60100EB8104D4E979
:105FC00013203C34904202D90120BDE8F88FA1682B
:105FD000101A814200D20846C01C05EB46188708FB
:105FE0001BE000BFA268A0EB010A524500D2924616
:105FF00099F80C100AF1030000911FFA8AF3E16886
:1060000087082846F2B202F037F9E16801EB0A008E
:10601000E060616901EB0A006061D8F8180980B29C
:10602000B84205D3D4E90401814201D20028D9D174
:10603000D4E90401884208D8D5F83418012006F0C4
:106040000F0290408143C5F834180020BDE7704727
:106050002DE9F047454D044689464FF0000A28686F
:10606000C04380070AD0414E283E306820F080604F
:106070003060FCF795FC0746B04608E00120BDE81B
:10608000F08700BFFCF78CFCC01B022867D8D8F84B
:1060900000000001F6D4206829684FF4FE0721F4BF
:1060A0007C313E0241EA00302860207AA389B4F8AE
:1060B00004C040022D4D2D495B1E227CACF1010C29
:1060C0001035091DA0F5007080B2521ECCF3080CEB
:1060D00007EA034340EA0C00184306EA0262104351
:1060E00028600868626920F0C000104308600A68F0
:1060F000A06922F0200202430A60281D0A6822F0EB
:1061000010020A6002684FF6F873E4699A4342EAA3
:10611000C40202600868B9F1000F40F010020A6082
:1061200011D00868B9F1010F11D040F400100860D7
:10613000D8F80000444640F08060C8F80000FCF742
:106140002FFC05460DE0086840F40020EFE740F41E
:106150008010ECE7FCF724FC401B022801D9032047
:106160008DE720680001F5D5504688E7284402589D
:106170002DE9F047454D044689464FF0000A28684E
:10618000C04380070AD0414E283E306820F080503E
:106190003060FCF705FC0746B04608E00120BDE88A
:1061A000F08700BFFCF7FCFBC01B022867D8D8F8BB
:1061B00000008000F6D4208829684FF4FE0721F003
:1061C0007C713E0241EA00502860207AA389B4F82D
:1061D00004C040022D4D2D495B1E227CACF1010C08
:1061E0001835091DA0F5007080B2521ECCF3080CC2
:1061F00007EA034340EA0C00184306EA0262104330
:1062000028600868626920F44060104308600A68EA
:10621000A06922F4007202430A60281D0A6822F471
:1062200080720A6002684FF6F873E4699A4342EAA2
:10623000C40202600868B9F1000F40F480720A607D
:1062400011D00868B9F1010F11D040F080700860DA
:10625000D8F80000444640F08050C8F80000FCF731
:106260009FFB05460DE0086840F48000EFE740F42E
:106270000000ECE7FCF794FB401B022801D9032047
:106280008DE720688000F5D5504688E728440258FD
:1062900070B5154D4FF48074002221462846FCF756
:1062A00074FB082000F022F86600284600223146E0
:1062B000FCF76BFB082000F019F801222146284664
:1062C000FCF763FB082000F011F800222146284665
:1062D000FCF75BFB012231462846FCF756FBBDE884
:1062E0007040082000F002B800040258002208B5EF
:1062F0000DE000BFADF8002005E000BFBDF80010C4
:10630000491CADF80010BDF800100629F6D3401E58
:10631000F0D208BD70B586B014216846FAF710F8BF
:106320001948016841F002010160016801F00201B1
:106330000591016841F002010160006811214FF4EC
:106340008074124E00F00200059000200094CDE908
:106350000110694603903046FCF7FCF96500694678
:1063600030460095FCF7F6F9012130460A460191C6
:1063700002912146FCF709FB012229463046FCF731
:1063800004FB06B070BD0000E0440258000402584F
:1063900070B5124D4FF48074002221462846FCF758
:1063A000F4FA0820FFF7A2FF012228465102FCF769
:1063B000ECFA0820FFF79AFF012221462846FCF755
:1063C000E4FA0820FFF792FF002221462846FCF756
:1063D000DCFABDE870400820FFF788BF00040258CF
:1063E0002DE9F047184F00254FF4807681464FF491
:1063F000007A2C466806314601224FEA106838467A
:10640000FCF7C3FA0820FFF771FF51463846FCF746
:10641000B7FA00F0010531460022384645EA080582
:10642000FCF7B3FA0820FFF761FF641CE4B2082C04
:10643000E0D3B9F1010F04D0FFF7AAFF2846BDE869
:10644000F087FFF725FFF9E70004025870B5002434
:10645000054600F015F8284600F0C6F870B900F0BF
:1064600035F800F00DF8612000F088F8012803D11C
:106470000020FFF7B5FF044600F028F8204670BD65
:1064800070B50122104D540228462146FCF77DFAD2
:106490000122284616023146FCF777FA0820FFF75A
:1064A00025FF002221462846FCF76FFA0820FFF757
:1064B0001DFF002231462846FCF767FABDE8704010
:1064C0000820FFF713BF00000004025870B5134DF9
:1064D0004FF48074002221462846FCF756FA082023
:1064E000FFF704FF6600284600223146FCF74DFA0C
:1064F0000820FFF7FBFE012221462846FCF745FA5B
:106500000820FFF7F3FE012231462846FCF73DFA4A
:10651000BDE870400820FFF7E9BE00000004025803
:1065200070B50122144C550220462946FCF72DFA7D
:106530000820FFF7DBFE0122204616023146FCF759
:1065400024FA0820FFF7D2FE29462046FCF718FA65
:1065500000284FF000023146204606D0FCF715FA1D
:106560000820FFF7C3FE002070BDFCF70EFA0820DC
:10657000FFF7BCFE012070BD000402582DE9F04178
:10658000184E00244FF4807705464FF40078280613
:1065900001D5012200E0002241463046FCF7F5F922
:1065A0000820FFF7A3FE012239463046FCF7EDF93B
:1065B0000820FFF79BFE002239463046FCF7E5F93C
:1065C000072C04D1012241463046FCF7DEF968066B
:1065D000641C050EE4B2082CD9D3BDE8F041FFF7E6
:1065E0009FBF00000004025810B50446FFF748FFA3
:1065F0006020FFF7C3FF012802D12046FFF7BEFF4E
:10660000002010BD70B50D460446FFF739FF204647
:10661000FFF7EAFF10B92846FFF7B0FFFFF756FF74
:10662000002070BD0020FEF707BA000010B585B04D
:1066300004464FF4807200200C2113018DE80700FE
:10664000CDE90303E06840F08000E060E06820F0FE
:106650004000E0606946204600F0AAF8074A0C2195
:10666000204600F00DF8E168B0F1007F21F08001D4
:10667000E16000D1002005B010BD000000E1F5058B
:1066800030B5464D4FF4FA53434C2D68B5FBF3F348
:1066900053435B1E02D24FF0004030BD426B22429A
:1066A000F7D09204F5D4426B520703D504218163DD
:1066B000084630BD426BD20702D00121816306E05B
:1066C000354A803282630269D2B28A4201D0012007
:1066D00030BD002100F066F83149084201D10020A8
:1066E00030BD002802DA4FF0007030BD410001D506
:1066F000402030BD810001D5802030BDC10002D5D1
:106700004FF4807030BD010102D54FF4007030BDF0
:10671000410102D54FF4806030BDC10102D54FF474
:10672000006030BD010202D54FF4805030BD4102FF
:1067300002D54FF4005030BD810202D54FF48040A5
:1067400030BDC10202D54FF4004030BD410302D537
:106750004FF4003030BD810302D54FF4802030BDAE
:10676000C10302D54FF4002030BD010402D54FF41F
:10677000801030BD410402D54FF4001030BD8104BB
:1067800002D54FF4800030BD000702D54FF4000061
:1067900030BD4FF4803030BD450020004000002067
:1067A00008E0FFFD084440697047D0F8800070475A
:1067B00070B5084D0A688260C368D1E90126D1E945
:1067C00003412B4032430C4322431343C360002058
:1067D00070BD0000C0E0FEFF0968C0F88010002016
:1067E000704710B5026840F26F335169946944F004
:1067F000080494610268946944F01004946102688A
:10680000146824F001041460026814699C43146144
:106810000268936823F44043936090F88120042A2F
:106820000CD08A060AD5D0F8842042F08002C0F845
:1068300084200268936943F02003936190F88120DB
:10684000032A0CD04A060AD5D0F8842042F004026C
:10685000C0F884200268936943F0400393618A057D
:106860000AD5D0F8842042F00102C0F884200268E2
:10687000936943F400739361C9050AD5D0F8841075
:1068800041F00801C0F8841001688A6942F48072FE
:106890008A610021A0F86210A0F86A1010BD000003
:1068A00010B5FFF7CBF90A20FBF742FF3620FFF7C0
:1068B000E9F80020FFF712F93A20FFF7E3F8052086
:1068C000FFF70CF9B220FFF7DDF80C20FFF706F90F
:1068D0000C20FFF703F90020FFF700F93320FFF742
:1068E000FDF83320FFF7FAF8B720FFF7CBF8352093
:1068F000FFF7F4F8BB20FFF7C5F81920FFF7EEF813
:10690000C020FFF7BFF82C20FFF7E8F8C220FFF700
:10691000B9F80120FFF7E2F8C320FFF7B3F812201F
:10692000FFF7DCF8C420FFF7ADF82020FFF7D6F81A
:10693000C620FFF7A7F80F20FFF7D0F8D020FFF709
:10694000A1F8A420FFF7CAF8A120FFF7C7F8E020BC
:10695000FFF798F8D020FFF7C1F80420FFF7BEF842
:106960000D20FFF7BBF81120FFF7B8F81320FFF751
:10697000B5F82B20FFF7B2F83F20FFF7AFF854200F
:10698000FFF7ACF84C20FFF7A9F81820FFF7A6F89E
:106990000D20FFF7A3F80B20FFF7A0F81F20FFF74B
:1069A0009DF82320FFF79AF8E120FFF76BF8D0203D
:1069B000FFF794F80420FFF791F80C20FFF78EF80A
:1069C0001120FFF78BF81320FFF788F82C20FFF732
:1069D00085F83F20FFF782F84420FFF77FF8512029
:1069E000FFF77CF82F20FFF779F81F20FFF776F8E4
:1069F0001F20FFF773F82020FFF770F82320FFF720
:106A00006DF82120FFF73EF81120FFF73BF87820C2
:106A1000FBF78EFE2920FFF735F80220FEF7DAFF9C
:106A20000020FEF7B3FF6FF07F40FEF7C1FFFEF7D7
:106A3000C1FC074901220548886000200549087209
:106A4000D103BDE810400448FBF79FBF2800002099
:106A500008000020A0090020000C02582DE9F04198
:106A60001C4616460D460746DDF818800AE000BFB2
:106A7000FBF796FFA0EB0800A04202D3601C01D0F8
:106A80000BE054B13868406935EA000007D00020B7
:106A9000B042EDD00020BDE8F0810320FBE70120EB
:106AA000F6E770470178407841EA00207047FBF72D
:106AB0007DBF0000F0B5CDB04C2130A8F9F740FC07
:106AC000202143A8F9F73CFCC0216846F9F738FCBF
:106AD0000220FCF77DFC3A4900243A480A6822F07B
:106AE00001020A600A68026842F4404202600268D9
:106AF00002F440424B9202689204FCD5324A136879
:106B000043F002031360126802F002024B92026823
:106B100042F44042026002680A6842F001020A60E0
:106B2000096801F001014B9101688904FCD5FCF76B
:106B300079FCFBF72FFF2449843901220B680220DE
:106B400008252526C70323F018030B600521329280
:106B5000CDE930673AAF3692C0233990042687E8F2
:106B60000B00CDE93D06CDE940543F9030A842945A
:106B7000FDF79CFC08B172B6FEE740204A903F2129
:106B80000301CDE946500322CDE9480343AB43A8B6
:106B900083E816000421FDF779FA08B172B6FEE722
:106BA00000210A481F941494CDE900016846FCF7BF
:106BB00097FD002801D072B6FEE74DB0F0BD000091
:106BC0002C04005818480258F4440258010001806F
:106BD0002C48F0B52C4A016841F47001016010683E
:106BE00000F00F00072804D2106820F00F00C01D2D
:106BF000106026490020254C10340B68244D43F0CA
:106C000001030B6020600B682B400B60136803F0DE
:106C10000F03072B04D9136823F00F03DB1D136048
:106C20001A4C1C4A18341C4B261D371D2060174C6B
:106C30001A4D28343060261D3860371D23603B1DF7
:106C400035601C1D3A60251D2E1D1860331D226005
:106C50002860326018600A680C4B114C22F48022C4
:106C600060330A60186020686FF30F00B0F1005FB6
:106C700003D20C490120C1F8080143F2D2000A49AD
:106C80000860F0BD88ED00E000200052004402588A
:106C90007FEDF6EA80020101000202020000FF011E
:106CA0000010005C008000510040005230B5416E81
:106CB000B9B101680D4B03F108048A688968C2F311
:106CC0004262490F5D5C615C2D01B5FBF1F1A0F8FA
:106CD0006A10995CA25C0901B1FBF2F1A0F868109E
:106CE00030BD0121A0F86A10F8E7000062A000089A
:106CF00090F82810C90706D00168C36A4A6822F4D0
:106D000000321A434A6090F82810890706D50168B6
:106D1000036B4A6822F480321A434A6090F82810C4
:106D2000490706D50168436B4A6822F480221A435A
:106D30004A6090F82810090706D50168836B4A68F5
:106D400022F400421A434A6090F82810C90606D57A
:106D50000168C36B8A6822F480521A438A6090F8F3
:106D60002810890606D50168036C8A6822F400524F
:106D70001A438A6090F82810490611D50168436CBF
:106D80004A6822F480121A434A60416CB1F5801FB0
:106D900006D10168836C4A6822F4C0021A434A6033
:106DA00090F82810090606D50168C26C486820F4DE
:106DB00000201043486070472DE9F8430025044641
:106DC000C0F89050FBF7ECFD8046206820266FF05D
:106DD0007E470068000713D5002243463104204651
:106DE000009700F03FFA58B1216851E8000F20F0F9
:106DF000800041E80002002AF6D1C4F8886021E052
:106E000020680068400722D5002243464FF48001E5
:106E10002046009700F026FAC8B1206850E8001F0D
:106E200021F4907140E80012002AF6D12068083061
:106E300050E8001F21F0010140E80012002AF5D1BE
:106E4000C4F88C60032084F88450BDE8F883C4F84B
:106E50008860C4F88C60E5662567002084F884505B
:106E6000F3E7000010B5026852E8001F21F49071AA
:106E700042E80013002BF6D10E4B0268083252E8AC
:106E8000001F194042E80014002CF6D1C16E012900
:106E900008D1026852E8001F21F0100142E80013F7
:106EA000002BF6D100212022C0F88C20C16641675A
:106EB00010BD0000FEFFFFEF2DE9F043044680689F
:106EC000D84E87B0D84B2168D4E90427D4F81CC029
:106ED00010430A68002547EA0C0738433240024352
:106EE0000A602068E268416821F440511143416022
:106EF0002268A1699A4201D0206A01439768DFF8AD
:106F00002CC3CB4ECB4807EA0C070F439760216890
:106F1000676ACA6A22F00F023A43CA622268B24222
:106F20000ED1006800F03800182873D047DCB8B3E1
:106F3000082879D010286FD178E028287ED17BE00E
:106F4000BD498A4209D1006800F00700062875D2C1
:106F5000DFE800F0546A6C6E7072B8498A4209D159
:106F6000006800F00700062868D2DFE800F0475DFF
:106F70005F616365B2498A4209D1006800F0070089
:106F800006285BD2DFE800F03A5052545658AD491B
:106F90008A420BD1006800F0070006284ED200E0BC
:106FA00010E0DFE800F02B4143454749A6498A42FB
:106FB0000AD1006800F03800182839D0B7DD202841
:106FC000BBD13CE001203AE0A0498A4209D10068E7
:106FD00000F00700062831D2DFE800F01026282A4A
:106FE0002C2E9B498A420BD1006800F0070006282E
:106FF00024D2DFE800F003191B1D1F2100201EE032
:107000009A421BD18B48001D006800F0070006283B
:1070100014D202E00CE007E010E0DFE800F0030526
:1070200007090B0D02200AE0042008E0082006E012
:10703000102004E0202002E0402000E0802085496C
:10704000DFF814829A42854A4FF400434FEA211731
:107050004FF000064ED110281AD006DC022809D0C5
:1070600004280BD008287CD10DE020283ED04028F1
:1070700077D13DE0FCF7DEF9014610E06846FCF709
:10708000EBF901990BE003A8FCF788FA049906E0F4
:107090001068800605D51068C0F3C100C140002902
:1070A00070D0606A676838F8102007EB4703B1FBBF
:1070B000F2F0834255D8B0EB073F52D80023084680
:1070C0001946F9F705F902467808130E120243EA49
:1070D000012110183A4671410023F9F7F9F8604A86
:1070E000A0F5407191423CD821688FE03946D8E73D
:1070F0001946D6E7D4F81CC04FF6EF799C4546D127
:10710000082819D005DC58B101280CD0042875D105
:107110000DE0102815D0202835D040286ED134E05D
:10712000FDF704F901E0FDF713F9014610E06846A8
:10713000FCF792F901990BE003A8FCF72FFA0499E8
:1071400006E01068800604D51068C0F3C100C14095
:10715000C1B1636A606838F81330B1FBF3F14900DC
:1071600000E04BE001EB5001B1FBF0F0A0F11001A9
:10717000494543D84FF6F0732168C0F342021840E6
:10718000104343E043E03946E3E71946E1E70828C6
:1071900019D005DC58B101280CD004282ED10DE0FF
:1071A000102815D020282BD0402827D12AE0FDF721
:1071B000BDF801E0FDF7CCF8014610E06846FCF7A9
:1071C0004BF901990BE003A8FCF7E8F9049906E0F4
:1071D0001068800604D51068C0F3C100C140B1B189
:1071E000636A606838F81330B1FBF3F101EB5001CA
:1071F000B1FBF0F0A0F11001494505D9012506E0E9
:107200003946EDE71946EBE7216880B2C8600120F6
:10721000A4F86A00A4F8680028466667A66707B065
:10722000BDE8F083F369FFCF000C0058FFF4FF11B5
:1072300000100140544402580044004000480040FF
:10724000004C004000500040001401400078004015
:10725000007C00400090D0034AA00008004402587F
:10726000FFFC0F002DE9F047994617460E460446ED
:10727000089D4FF000082FE0681C2DD0FBF790FB15
:10728000A0EB0900A84214D89DB120680168490705
:1072900022D5C169C94309070DD4082505622046D6
:1072A000FFF7E0FDC4F89050012084F88480BDE829
:1072B000F0870320FBE7C069C04300050CD42168B8
:1072C0004FF4006008622046FFF7CCFD2021C4F88F
:1072D000901084F88480ECE72068C06936EA0000EA
:1072E00004D00020B842C7D00020E0E70120F9E731
:1072F00010B5D0F8B82200245268904700B103249A
:10730000204610BD002070470020704713460A46F3
:10731000002110B500F0C4F9002010BD13460A4644
:10732000002110B500F05DFA002010BD10B58021DD
:10733000044600F040FA2046BDE81040002100F06D
:107340003ABA10B50521C0F8941200231A4619461E
:1073500000F0A6F9002010BD10B582610223C0F82C
:107360009432C26113460A46002100F03AFA002026
:1073700010BD10B50421C0F8941200231A46194616
:1073800000F02FFA002010BDF8B504460D4600208D
:10739000ADF800004888010A062947D006DC01291B
:1073A0000FD0022912D0032962D11DE0072946D04F
:1073B0000F295DD1D4F8B402C26920E06946904734
:1073C0003BE0D4F8B412207C0A68F7E7207C022660
:1073D0000028D4F8B80205D0C16A6846884701463B
:1073E000467036E0816AF8E7C0B2062840D2DFE88E
:1073F00000F003090D111519D4F8B4024268B2B3B4
:10740000207CDBE7D4F8B4028268F8E7D4F8B40251
:10741000C268F4E7D4F8B4020269F0E7D4F8B40221
:107420004269ECE7D4F8B4028269E8E7207CF0B95D
:10743000D4F8B802416B68468847014609E0207CD1
:10744000A8B9D4F8B802016B6846884701460720FE
:107450004870EA888AB1BDF8000040B1824200D984
:1074600002462046ADF80020FFF776FFF8BDFFE7A3
:1074700029462046FFF75AFFF8E72046FFF779FF35
:10748000F4E701004FF0000004D0012901D00229E7
:1074900001D0032070470120704710B5D0F8C80212
:1074A000FBF7A1FBBDE81040FFF7EBBF2DE9F04172
:1074B000174604464FF0000521B194F89C020328BA
:1074C00042D04CE0D4F8941204F11400022935D1D2
:1074D000D0E902639E4206D9F21A394682602046FC
:1074E000FFF71CFF0FE0B34214D14068984211D35C
:1074F000D4F8981288420DD2002220461146FFF798
:107500000DFFC4F8985200231A461946204600F091
:10751000C7F813E094F89C02032808D1D4F8B80205
:10752000C16821B1C4F8D452C1682046884780217F
:10753000204600F040F92046FFF703FF94F8A00230
:1075400068B184F8A0520AE0D4F8B802426932B1B6
:10755000C4F8D452426920469047002800D1002048
:10756000BDE8F08170B5134604464FF0000221B12A
:1075700094F89C02032830D03AE0D4F8941204F531
:10758000AA70032934D1D0E902518D420AD96A1A6E
:1075900082600846824200D3024619462046FFF721
:1075A000B5FE25E094F8AA0210F01F0003D00128D0
:1075B00002D0022800D0002294F89C02032808D1AF
:1075C000D4F8B802016921B1C4F8D4220169204677
:1075D00088472046FFF7CDFE0AE0D4F8B802836959
:1075E00033B1C4F8D422826920469047002800D1E4
:1075F000002070BD0020704710B5D0F8B8120122ED
:1076000080F89C22002429B103794A68D9B29047B6
:1076100000B10324204610BDD0F8C82201F07F003D
:107620000B0600EBC00002EB800002D590F83E0094
:10763000704790F87E02704710B5D0F8D42200EB66
:107640008202D2F8B82222B190F89C32032B02D0E9
:1076500004E0032010BD126A02B19047002010BD63
:1076600010B5D0F8D42200EB8202D2F8B82222B1B1
:1076700090F89C32032B02D004E0032010BD526A24
:1076800002B19047002010BD10B51C46D0F8C802CA
:1076900013462246FBF7D5FABDE81040FFF7F1BECE
:1076A00010B5D0F8C802FBF7FCFABDE81040FFF7B0
:1076B000E8BE2DE9F041044601250020D4F8B812B7
:1076C000064684F89C52C4F894026060C4F8A40290
:1076D00084F8A00231B14A6822B1002120469047C7
:1076E00000B103262046002240231146FFF7CCFFBD
:1076F0004027A4F8645100223B4680212046C4F86C
:107700006071FFF7C1FFA58430462762BDE8F081B4
:1077100090F89C12042903D190F89D1280F89C12D5
:107720000020704710B590F89C12032905D1D0F8BD
:10773000B81211B1C96901B18847002010BD0174A8
:107740000020704710B5D0F8C802FBF70DFEBDE869
:107750001040FFF796BE70B5044600F2AA20054619
:1077600000F048F894F8AA020123B4F8B01210F01F
:107770001F02C4F89432C4F898120AD0012A0ED01D
:10778000022A12D000F080012046BDE8704000F0CF
:1077900012B829462046BDE8704000F0A9B8294635
:1077A0002046BDE8704000F0ECB929462046BDE80F
:1077B000704000F034B910B5D0F8C802FBF78BFA6E
:1077C000BDE81040FFF75DBE90F89C12042903D07D
:1077D00090F89C1280F89D12042180F89C120020E1
:1077E000704710B5D0F8C802FBF7AFFABDE81040FB
:1077F000FFF747BE70B5054608788C1C287048789E
:1078000068702046FFF74EF9A41C68802046FFF7F9
:1078100049F9A880A01CFFF745F9E88070BDD0F8B1
:10782000B83202460020002B02D01B6810461847D1
:10783000704700002DE9F0412C4E04468878002561
:107840008846C1B20129317006D941462046FFF76A
:107850006DFD0320BDE8F08194F89C020227022808
:107860000CD003281DD041462046FFF75FFD31783C
:107870002046FFF73DFD03252846EBE789B3204668
:107880006160FFF7CCFF050004D041462046FFF7BA
:107890004DFD1DE02046FFF76CFD032084F89C029F
:1078A000EAE7C1B1606888421BD0C1B22046FFF749
:1078B0001FFD317820466160FFF7B1FF050010D051
:1078C00041462046FFF732FD21792046FFF710FDA3
:1078D00084F89C72D0E7616084F89C722046FFF7C0
:1078E00007FD2046FFF745FDC6E7000048000020E1
:1078F0002DE9F0410A784FF0000512F060020CD03B
:10790000202A01D0402A7DD1D0F8D42200EB820277
:10791000D2F8B8229268904731E04B7800220126D5
:107920000A2B6FD2DFE803F041666E586E08056ED1
:107930002D29FFF729FD67E004468888D8B9C88853
:10794000C8B94888802816D294F89C2200F07F0796
:10795000032A10D03946204684F89E72FFF7F2FEC3
:107960002046FFF706FD1FB1022084F89C024BE081
:1079700084F89C6248E0204644E0FFF75BFF054640
:1079800042E0CB88012B3DD190F89C32012B04D0F2
:10799000022B02D0032B35D104E000F108018260F4
:1079A000012216E00122011D13E090F89C22012A19
:1079B00003D0022A01D0032A24D1CA88022A21D165
:1079C000D0F8A412C66009B10321C160022200F1FF
:1079D0000C01FFF7C1FC17E04A88012A02D0022AF5
:1079E00003D00FE0C0F8A46216E08988090A80F885
:1079F000A01211E090F89C32012B08D0022B06D087
:107A0000032B04D0FFF792FC2846BDE8F08149889B
:107A10000129F9D1C0F8A422FFF7ABFCF4E72DE966
:107A2000F0410A780E460979054612F060004FF0E1
:107A30000008CCB20BD0202801D040286AD12146C2
:107A40002846FFF75FFCFF2800D0D8B396E0707897
:107A5000C8B3012824D003285CD195F89C020228E1
:107A600002D0032856D10CE0002C53D0802C51D0EA
:107A700021462846FFF79FFE80212846FFF79BFE00
:107A80007CE0708840B93CB1802C05D0F08818B9F2
:107A900021462846FFF78FFE2846FFF76AFC6DE077
:107AA00095F89C020228DFD0032863D1708880BB40
:107AB000600603D021462846FFF7EFFC2846FFF773
:107AC00058FCBCE700E00AE0C5F8D402D5F8B802DB
:107AD0008268F2B131462846904780464EE095F8DC
:107AE0009C020027022802D0032843D113E00CB1E6
:107AF000802C3FD1200604F07F0000EB800005EBD6
:107B0000800101D5143101E001F5AA7102220F6054
:107B10002CE033E02EE0200604F00F0000EB8000A4
:107B200005EB800009D5808C20B304F07F0000EBCA
:107B3000800005EB800614360AE0B0F86401C8B195
:107B400004F07F0000EB800005EB800606F5AA76C6
:107B50004CB1802C07D021462846FFF75DFD10B1BF
:107B60000120306000E03760022231462846FFF7EE
:107B7000F3FB03E031462846FFF7D8FB4046BDE85B
:107B8000F08170B5054608780E464FF0000410F0FD
:107B9000600003D0202801D0402827D195F89C020E
:107BA000012803D0022801D003281FD1B088C1B218
:107BB00001291AD8C1B22846FFF7A6FBFF280CD02E
:107BC00058B9D5F8B8128A683AB1C5F8D40228462F
:107BD0008A6831469047044600E00324F088204339
:107BE00007D12846FFF7C5FB03E031462846FFF7DB
:107BF0009DFB204670BD000070B54D7801230A78CA
:107C0000012D1C4C02F00F0503FA05F3D0F81C58A7
:107C100017D000EB421245EA0343C0F81C38D2F8F3
:107C2000000B00040BD40B890979D2F8000BC3F3C5
:107C30000A03184344EA81410843C2F8000B0020BC
:107C400070BD9EB23543C0F81C5800EB4213D3F808
:107C500000090004F3D40D890979D3F80009C5F3AC
:107C60000A058904284341EA825108432043C3F8A6
:107C70000009E4E700800010D0F800196FF30A0152
:107C8000C0F80019D0F8041841F48071C0F8041845
:107C90000020704710B5144C036CA34203D9D0F8F0
:107CA000003B002B1EDB0023C0F8103B0129D0F85D
:107CB000101B41F40021C0F8101BD0F8101B41F03C
:107CC0001801C0F8101BD0F8101B41F0C041C0F8DB
:107CD000101B07D1C0F8142BD0F8001B41F08021F5
:107CE000C0F8001B002010BD0A30544F0B784A78B2
:107CF000012A00EB43100BD0D0F8002B22F4001225
:107D0000C0F8002B0979032914D0022912D017E0FA
:107D1000D0F8002922F40012C0F8002909790329BB
:107D200001D002290CD1D0F8001941F08051C0F8DF
:107D3000001905E0D0F8001B41F08051C0F8001B8D
:107D4000002070470A784B78D1B2012B00EB42102B
:107D500012D0D0F8002B002A06DB29B1D0F8001B86
:107D600021F08041C0F8001BD0F8001B41F4001145
:107D7000C0F8001B00207047D0F80029002A06DB5D
:107D800029B1D0F8001921F08041C0F80019D0F8CD
:107D9000001941F40011C0F80019EBE7F8B50B78B1
:107DA0006FF060464F788A4DDCB2012F00EB431331
:107DB0002BD0D3F8107B002C07EAC544C3F8104B36
:107DC000D3F8104B04EA0504C3F8104B7ED00D69BC
:107DD000002D7CD08C6825446D1EB5FBF4F5ADB24A
:107DE0006C430C6206EAC545D3F8104B2C43C3F82C
:107DF000104BD3F8104B0D6AC5F3120554EA050475
:107E0000C3F8104B012A6ED0C9E00F6937B3D3F81D
:107E100010796FF31207C3F81079D3F8107907EAD5
:107E20000507C3F810794CB30F698D68D3F810C9F2
:107E30002F447F1EB7FBF5F506EAC54545EA0C055C
:107E4000C3F810590E69D3F81059C6F3120635431A
:107E5000C3F810590D79012D1CD027E0D3F8106913
:107E60002E40C3F81069D3F8105945F40025C3F823
:107E70001059D3F810596FF3120515E00E698D688B
:107E8000AE4200D90D61D0F8106946F40026C0F862
:107E90001069D7E7D3F8105925F0C045C3F8105939
:107EA000D3F8105945F00055C3F81059012A1BD0DA
:107EB00000EB4413D3F8004944F00444C3F80049EC
:107EC0000C79012C31D00A6972B301E042E055E02F
:107ED0000B78D0F83418012203F00F039A401143B5
:107EE000C0F8341871E056E0CA691AB100EB4413C7
:107EF000C3F81429097901290ED1D0F80818C90549
:107F000000EB4411D1F8002902D442F0005201E004
:107F100042F08052C1F8002900EB4410D0F800195B
:107F200041F00441C0F800194FE0D0F80848E405DA
:107F3000D3F8004902D444F0005401E044F08054E6
:107F4000C3F8004900920B8A0A78C9689BB200F016
:107F500093F93AE00C690CB18C680C618C680C6286
:107F6000C4F31205D0F8104B2C43C0F8104BD0F8D6
:107F7000104B44F40024C0F8104B43E78D68D3F84D
:107F8000104BC5F312052C43C3F8104BD3F8104B1C
:107F900044F4002434E7CA680AB1C3F8142B097901
:107FA00001290CD1D0F80808C005D3F8000B02D481
:107FB00040F0005001E040F08050C3F8000BD3F8CF
:107FC000000B40F00440C3F8000B0020F8BD000097
:107FD000FFFF07E038B5002242F210740023009240
:107FE0000A784D78012D00EB421219D0D2F8005BCF
:107FF000002D3CDAD2F8005B45F00065C2F8005B6A
:108000000A7800EB4212D2F8005B45F08045C2F8D6
:10801000005B009A521C0092A24221D9012326E063
:10802000D2F80059002D22DAD2F8005945F0006547
:10803000C2F800590A7800EB4212D2F8005945F014
:108040008045C2F80059009A521C0092A242E5D81D
:108050000A7800EB4212D2F80029002AF3DB06E08E
:108060000A7800EB4212D2F8002B002AD1DB184626
:1080700038BD000018B50E4A00230093009C641C14
:10808000009494420CD80469002CF7DA2024009361
:1080900044EA811101610099491C0091914201D982
:1080A000032018BD01698906F5D4002018BD000021
:1080B000400D0300D0F8080810F0060004D0022894
:1080C00003D0062801D00F20704702207047406976
:1080D00000F001007047D0F81818D0F81C080840CC
:1080E00080B27047D0F81818D0F81C080840000C6F
:1080F000704710B5D0F8102801F00F0300EB4114C1
:10810000D0F83418D4F80809D94001F0010142EA46
:10811000C111084010BD00EB4111D1F8081BD0F887
:108120001408084070474169806908407047034659
:10813000084630B5940802F00301002203F580538D
:1081400003E01D68521C40F8045BA242F9D30029E9
:108150000CD01C680023491EDD00090403F1010353
:10816000090C24FA05F200F8012BF4D130BDD0F847
:1081700000284FF4FE6303EA011322F4FE62C0F804
:108180000028D0F800181943C0F8001800207047E4
:10819000022A3ED1264A274B0A449A4201D20F2195
:1081A00038E0254A254B0A449A4201D20E2131E09B
:1081B000234A244B0A449A4201D20D212AE0224A42
:1081C000224B0A449A4201D20C2123E0204B214A3F
:1081D0000B44934201D20B211CE01F4B1F4A0B445E
:1081E000934201D20A2115E01D4B1E4A0B449342D3
:1081F0000FD31D4B1D4A0B44934201D2082109E0C5
:108200001B4B1C4A1944914201D2072102E006216E
:1082100000E00921C2684FF4705322F47052C2602A
:1082200003EA8123C1681943C16000207047000040
:10823000405327FF00350C00401E1BFF40420F003B
:1082400000DC0BFF804F1200808CF9FE20D613005B
:1082500060B6E5FE60E3160000D3CEFE40771B005B
:10826000C05BB3FEC091210000CA91FE20753800AA
:10827000E05459FEE09C410010B5029C74B900EB3B
:108280000232DB1C00209B0802F5805204E000BF94
:1082900051F8044B1460401C9842F9D3002010BDE3
:1082A000FEE700000FB4054B10B503A9044A02987D
:1082B00000F0FEF810BC5DF814FB0000E98B00082C
:1082C0004C0000200FB4084B10B504A902AA039873
:1082D00000F0EEF8044602A9002000F080FC2046E1
:1082E00010BC5DF814FB0000DF8B000809070028B4
:1082F0004FEA116104DB00F1E02080F800147047C0
:1083000000F00F0000F1E02080F8141D704702E03B
:1083100008C8121F08C1002AFAD170477047002010
:1083200001E001C1121F002AFBD170472DE9FF5F58
:1083300082B00021DDE90430020DDDF840B00343D6
:1083400018D044F61050A2F2FF324243151411988F
:1083500001281FD0A5EB0B00401C5FEA000A4FF07C
:1083600000064E4FDFF83891B046504615D5CAF199
:10837000000413E0119801244AA3012801D16FEAF7
:108380000B010298119AC0E90031C0E9024206B01F
:10839000BDE8F09FCBF10000DFE704460021404A32
:1083A000491842EB0450CDE9001012E0E00707D075
:1083B00032463B4640464946F8F7A9F8804689468A
:1083C00032463B4610461946F8F7A1F806460F46D6
:1083D0006410002CEAD1DDE90401DDE90023BAF1E3
:1083E000000F06DAF8F793F842464B46F8F78FF895
:1083F00005E0F8F7FEF842464B46F8F7FAF804466F
:108400000E460022284BF8F77BF903D84FF0FF30D7
:10841000014607E00022254B20463146F7F7D0FF02
:10842000F8F756F9102409E0002C0ADB0A22002391
:10843000F7F74EFF039B30321A55641E50EA0102D3
:10844000F2D1641C039AC4F111031444119A012A55
:1084500003D0012208430DD10AE0084304D00020D4
:108460004FF0110B119072E7A3EB0B056D1E0DE0A1
:108470005B4504DD4FF0000205F1010504E003DA7D
:108480004FF00002A5F10105002AECD002981199E5
:10849000C0E90231C0E9004579E70000000014405E
:1084A0000000F03F300000000000F0430000E03F1B
:1084B0002DE9FF4F95B09B468946064600250FE201
:1084C000252877D100242746F84A0121059400E0A9
:1084D000044316F8013F203B01FA03F01042F7D1A4
:1084E00030782A2811D06FF02F033078A0F13002B5
:1084F000092A16D8059A44F0020402EB820203EB23
:1085000042021044761C0590EFE759F8042B0592BF
:10851000002A03DA504244F40054059044F0020467
:10852000761C30782E2816D116F8010F44F004047A
:108530002A280DD06FF02F023078A0F13003092BDC
:1085400009D807EB870302EB4303C718761CF3E750
:1085500059F8047B761C30786C280FD006DC4C2848
:1085600017D068280DD06A2814D104E0742810D0E0
:108570007A280FD10DE044F400140AE044F480148A
:1085800001E044F440147278824202D104F5801470
:10859000761C761C307866280BD013DC582877D0F0
:1085A00009DC002875D04528F6D04628F4D04728A5
:1085B0001AD19DE118E0632835D0642879D0652868
:1085C00012D195E1702873D008DC6728F1D06928B2
:1085D0006FD06E280DD06F2806D1B5E073282CD04F
:1085E000752875D0782874D05A46179990476D1C15
:1085F00075E1C4F30250022809D003280DD0D9F840
:10860000001004280DD00D6009F1040967E1D9F8C4
:108610000010EA17C1E90052F6E7D9F800100D8002
:10862000F2E70D70F0E719F8041B8DF80010002038
:108630008DF80100EA46012003E059F804AB4FF041
:10864000FF3061074FF0000102D40DE008F1010195
:108650008846B9420FDA8045F8DB1AF8081000297D
:10866000F4D108E008F1010188468142FADB1AF8EA
:1086700008100029F6D105985B46A0EB08072146B3
:108680003846179A00F094FA284400EB080507E0F2
:108690004DE029E10DE01AF8010B5A461799904771
:1086A000B8F10108F7D25B4621463846179A13E124
:1086B00042E00A220092C4F302524FF0000A022A5A
:1086C00008D059F804CB032A4FEAEC710AD00DE028
:1086D00029E02AE009F1070121F00702F2E802C1CE
:1086E000914609E00FFA8CFC4FEAEC71042A03D1A1
:1086F0004FFA8CFC4FEAEC71002907DA0A46002198
:10870000DCF1000C61EB02012D2202E0220504D510
:108710002B228DF80420012203E0E20701D0202261
:10872000F7E7904659E00A2102E010220DE01021FF
:108730004FF0000A00910BE010224FF0000A44F0C5
:1087400004040827009203E008224FF0000A009278
:10875000C4F30252022A05D059F804CB0021032A9F
:1087600008D009E009F1070121F00702F2E802C18F
:10877000914605E01FFA8CFC042A01D10CF0FF0C95
:108780004FF00008220728D5702806D0009B83F000
:10879000100353EA0A0305D00EE040228DF80420AE
:1087A000012208E05CEA010206D030228DF80420A4
:1087B0008DF8050002229046009B83F0080353EADF
:1087C0000A030AD15CEA010201D1620705D5302211
:1087D0008DF804204FF001087F1E582804D034A0E3
:1087E00003900EA802900DE036A0F9E753466046CC
:1087F000009AF7F76DFD84460398825C0298401E4C
:10880000029002705CEA0100F0D1029806A9081AF1
:1088100000F1200A600702D524F4803400E001272B
:10882000574502DDA7EB0A0000E0002000EB0A013B
:10883000009005984144401A0590E00306D45B4639
:108840002146179A059800F0B3F90544002706E081
:1088500001A85A46C05D179990476D1C7F1C47457B
:10886000F6DBE0030CD55B462146179A059800F02D
:108870009FF9054404E030205A46179990476D1C33
:108880000099481E00900029F5DC08E00298029942
:108890005A460078491C0291179990476D1CBAF10D
:1088A0000001AAF1010AF1DC65E1000009280100DC
:1088B0003031323334353637383961626364656656
:1088C0000000000030313233343536373839414218
:1088D000434445460000000000F058F90544761C6A
:1088E000307800287FF4ECAD19B02846BDE8F08F51
:1088F000620700D4062709F1070222F0070CFCE802
:108900000223E14603F000485FEA080C02D00FF2B0
:10891000702C0DE05FEA045C02D50FF2682C07E0D2
:108920005FEAC47C02D00FF2602C01E0AFF2700C61
:108930004FF0FF3823F00043CDF850C065280CD02D
:1089400006DC452809D046281DD047283DD13DE00A
:10895000662818D067287ED138E00021112F01DB6E
:10896000112000E0781CCDE9000106A90EA8FFF750
:10897000DDFCDDE90F010E9A03910021009207F161
:10898000010A04914DE04FF000400097CDE901103D
:1089900006A90EA8FFF7CAFCDDE90F0203920E9BA1
:1089A00011990022DDF80CA00093049211B9791CF2
:1089B00000EB010AB7EB0A0004D4C0F1FF3007F165
:1089C000010A0490AAEB0700019044E0012F00DAAD
:1089D00001270021112F01DD112000E03846CDE9EB
:1089E000000106A90EA8FFF7A1FCDDE90F010E9A10
:1089F0000391002104910092BA4621070CD40399F7
:108A0000514500DA8A46BAF1010F05DD009AAAF154
:108A10000101515C302908D0B84202DA10F1040F8C
:108A200006DA0121CDE9011015E0AAF10101E9E71B
:108A3000002805DC049901440491AAEB000102E03E
:108A4000411C514500DD8A460499401A401C0190A2
:108A50004FF000400290200704D40198504501DBFC
:108A6000CDF8048000208DF84F0002980DF14F07DB
:108A7000B0F1004F25D02B200E9002984FF0020845
:108A800000280CDA404202902D200E9007E00A21C7
:108A90000298F7F760FC3031029007F8011DB8F139
:108AA0000001A8F10108F2DC02980028EFD1791E3C
:108AB0000E980870307800F0200040F0450007F86C
:108AC000020D12A8C01B00F107081498007800B12D
:108AD000012000EB0A01019801EBE0710598414487
:108AE000401A401E0590E00306D45B462146179AC3
:108AF000059800F05DF805441498007818B15A46BE
:108B0000179990476D1CE00324D55B462146179AC0
:108B1000059800F04DF805441CE00498002807DB98
:108B2000DDE90301884203DD0098405C179901E00C
:108B3000179930205A469047049805F10105401CCA
:108B400004900198401E019004D12E205A46179996
:108B500090476D1CBAF10001AAF1010ADDDC05E0C5
:108B600017F8010B5A46179990476D1CB8F1000190
:108B7000A8F10108F4DC5B462146179A0598ABE69C
:108B80002D0000002B000000200000002DE9F04126
:108B9000044600251E461746880404D405E03946DD
:108BA0002020B0476D1C641EF9D52846BDE8F08131
:108BB0002DE9F041044600251E469046C80301D524
:108BC000302700E02027880404D505E041463846D8
:108BD000B0476D1C641EF9D52846BDE8F0810A68CF
:108BE000531C0B601070704713B5044864230122B6
:108BF0006946FCF785FB00981CBD0000B009002009
:108C000008B5FCF77DFF364900240868800311D4BD
:108C1000BFF34F8FBFF36F8F32480460BFF34F8FA6
:108C2000BFF36F8F086840F400300860BFF34F8FC8
:108C3000BFF36F8F0868C00323D4294870300460E5
:108C4000BFF34F8F001F43F6FF7C0068254D1035A2
:108C5000C0F34E32C0F3C9030CEA4216184600BFF7
:108C600046EA80772F60401EFAD2521EF4D2BFF33C
:108C70004F8F086840F480300860BFF34F8FBFF318
:108C80006F8FF9F79BFEFDF715FFFCF787FFFDF7E8
:108C900003F8FDF705FEF7F725FE4FF0105548F2F3
:108CA00040312846FDF79CF80F4E4FF48C780F4F5B
:108CB00030780128FCD134700021F0224346084668
:108CC0000095FCF7A3FBF021542009A2FCF740FC1F
:108CD0003A780223F0218420FCF71CFCE8E700002E
:108CE00014ED00E050EF00E0000000200200002042
:108CF0004650533A00000000FF00DA09D703E000B5
:108D000005000000FF00DA10E177D703E00005005E
:108D10000000FF011280FF002CFF2EDFFF013C321C
:108D20002C0C33783A333BFB3E004311161039923A
:108D300035DA221A37C3361A4C005B0042034A81E7
:108D400021995C0063007C056C006D806E007002F0
:108D5000719473C12080283037C03D386D002300E6
:108D6000068807C00D870E41110009020428124031
:108D7000144815003209038A46002440253826820B
:108D800034C0617062801711184319011A9713E5F6
:108D90000C3A4FBB509C5A23FF00E57F412476FFDD
:108DA00033A0422043184C00D703D910883FC8088D
:108DB000C9807C007D007C037D487D487C087D2047
:108DC0007D107D0E9000910E911A9131915A91690A
:108DD0009175917E9188918F919691A391AF91C455
:108DE00091D791E891209200930693E39305930520
:108DF00093009304930093009300930093009300D7
:108E000093009600970897199702970C972497302C
:108E10009728972697029798978097009700A40025
:108E2000A800C511C651BF80C710B666B8A5B76403
:108E3000B97CB3AFB497B5FFB0C5B194B20FC45C01
:108E40007F00F9C0E01487D0C3EDC20E863DDA0979
:108E5000C064C14B8C00500051C85296530054005E
:108E600055005700D304E51FE167DD7FE0000500F2
:108E700000000000000000000000000000000000F2
:108E800000000000000000000000000000000000E2
:108E900000000000000000000000000000000000D2
:108EA00000000000000000000000600060006000A2
:108EB0006000600060006000400020002000200092
:108EC0000000000000006000600060000000000082
:108ED0000000000000006006600630039801880072
:108EE000440000000000000000000000000000003E
:108EF0000000000000000000000000000000000072
:108F0000000000000000000000001002100210022B
:108F10001002FE07FE070802080108010801080107
:108F2000FE07FE0704010401040104010000000023
:108F3000000000000000000040004000F001580365
:108F40004C03CC034C0058007000E000C001C0018D
:108F500040034C035C034C034801F0004000400018
:108F6000000000000000000000000E010A01910056
:108F700091009100510051003A00AE03A00250044C
:108F8000500448044804480484028403000000009C
:108F90000000000000000000000038006C006C00C1
:108FA0006C006C006C002C0098071C011A01330146
:108FB00033016301E300C308C6093C070000000059
:108FC0000000000000000C001C0010001000080051
:108FD000040000000000000000000000000000008D
:108FE0000000000000000000000000000000000081
:108FF000000000000000000400020001800080006A
:109000004000400020002000200020002000200020
:1090100020004000400080008000000100020004A9
:109020000000000000000200040008001000100012
:109030002000200040004000400040004000400070
:109040004000200020001000100008000400020072
:1090500000000000000000000000000000004000D0
:10906000C0004000460C4E0FD001F0015E0F460CD0
:109070004000400040000000000000000000000030
:1090800000000000000000000000000000000000E0
:1090900040004000400040004000FE0F4000400003
:1090A0004000400040000000000000000000000000
:1090B00000000000000000000000000000000000B0
:1090C00000000000000000000000000000000000A0
:1090D0000000000000000C001C0010001000080040
:1090E000040000000000000000000000000000007C
:1090F00000000000000000000000FE07000000006B
:10910000000000000000000000000000000000005F
:10911000000000000000000000000000000000004F
:10912000000000000000000000000000000000003F
:109130000000000000001C001C001C0000000000DB
:10914000000000000000000400060002000300010F
:1091500000018000800040004000600020002000EE
:1091600010001000080008000C00040006000200B7
:10917000000000000000000000000000F000980166
:109180000C030C0306060606060606060606060679
:10919000060606060C030C039801F0000000000010
:1091A00000000000000000000000000040007C0003
:1091B00060006000600060006000600060006000AF
:1091C00060006000600060006000FC0300000000C0
:1091D000000000000000000000000000F800840112
:1091E000020306030603000300018001C0006000C3
:1091F00020001000080204020602FE030000000026
:109200000000000000000000000000007800C60020
:109210008601860180018001C0007000800100018C
:1092200000030003060306038601F80000000000A7
:10923000000000000000000000000000800180012C
:10924000C001A001A0019001880188018401820170
:10925000FE0F8001800180018001E0070000000016
:10926000000000000000000000000000FC030400FB
:109270000400040004000400F4008C010403000353
:1092800000030603060382018401F80000000000C9
:10929000000000000000000000000000E0011803D2
:1092A0000C030C0004000600E60116030E06060679
:1092B0000606060604060C021803F0000000000073
:1092C000000000000000000000000000F8070C068D
:1092D0000402040100010001800080004000400001
:1092E000400060006000600060006000000000005E
:1092F000000000000000000000000000F8010C0366
:109300000606060606060C021C03F000C8010C0344
:1093100006060606060606060C03F001000000001D
:10932000000000000000000000000000F0000C0140
:109330000C03060206060606060606078C067806D5
:109340000006000300030C018C01780000000000FF
:10935000000000000000000000000000000000000D
:10936000000000000000E000E000E000000000005D
:10937000000000000000E000E000E000000000004D
:1093800000000000000000000000000000000000DD
:10939000000000000000600060000000000000000D
:1093A000000000000000000060006000400020009D
:1093B0002000000000000000000000040002000186
:1093C0008000400020001000080004000800100089
:1093D00020004000800000010002000400000000A6
:1093E000000000000000000000000000000000007D
:1093F000000000000000FE07000000000000FE0763
:10940000000000000000000000000000000000005C
:109410000000000000000000000004000800100030
:109420002000400080000001000200040002000152
:109430008000400020001000080004000000000030
:10944000000000000000000000000000E00318061B
:10945000040C040C0C0C0C0C0007800140004000B4
:10946000400000000000E000E000E000000000001C
:1094700000000000000000000000E00018030C02E3
:10948000CC0564056605A605B604B604B604B604A4
:10949000B602E4010C040C021803F0000000000006
:1094A00000000000000000000000000060006000FC
:1094B0005000D00090009000880088010801F80159
:1094C000040304030402020202060F0F000000005E
:1094D000000000000000000000000000FE008C03FF
:1094E0000C030C030C030C038C01FC000C030C029A
:1094F0000C060C060C060C060C03FE010000000016
:10950000000000000000000000000000E00318035D
:109510000C060C0404040600060006000600060003
:10952000060006040C040C021803F0000000000002
:109530000000000000000000000000007F008C011F
:109540000C030C030C060C060C060C060C060C0691
:109550000C060C060C030C038C017F0000000000BD
:10956000000000000000000000000000FF030603F0
:1095700006040604060086008600FE0086008600BB
:1095800086000600060406040602FF030000000031
:10959000000000000000000000000000FF030603C0
:1095A00006040604060086008600FE00860086008B
:1095B000860006000600060006001F0000000000EE
:1095C000000000000000000000000000F000180192
:1095D0000C020C0204020600060006000600C60F7C
:1095E000060306030C030C031803F0000000000040
:1095F0000000000000000000000000000F0F060641
:1096000006060606060606060606FE070606060601
:10961000060606060606060606060F0F00000000F0
:10962000000000000000000000000000FC036000DB
:10963000600060006000600060006000600060002A
:1096400060006000600060006000FC03000000003B
:10965000000000000000000000000000F807C0004B
:10966000C000C000C000C000C000C000C000C000FA
:10967000C000C000C000C000C000C000C60066003E
:109680003C0000000000000000000000CF03860145
:10969000C60046002600160036002E006E0046006A
:1096A000C60086008601060106038F070000000041
:1096B0000000000000000000000000001F00060085
:1096C000060006000600060006000600060006006A
:1096D00006000600060406040602FF030000000060
:1096E00000000000000000000000000007078603E3
:1096F00086038E038E034E034E034A035A035A0316
:109700003A033203320332031203870700000000DA
:109710000000000000000000000000008E0F0C029E
:109720001C021C0234023402640264024402C402B9
:10973000840284038403040304031F020000000066
:10974000000000000000000000000000F000980190
:109750000C030C02060606060606060606060606A4
:10976000060606060C020C039801F000000000003B
:10977000000000000000000000000000FF000603E1
:10978000060606060606060606068603FE00060010
:10979000060006000600060006001F00000000008C
:1097A000000000000000000000000000F000980130
:1097B0000C030C0206060606060606060606060644
:1097C000060676064C02CC039801F00080070003E1
:1097D000000000000000000000000000FF01060380
:1097E00006060606060606060603FE004600C60036
:1097F000860086010603060306060F0E0000000021
:10980000000000000000000000000000F8020C034F
:109810000602060206000E003C00F800E00380038A
:1098200000070206020606060C03F0010000000015
:10983000000000000000000000000000FE076204BD
:109840006108610860006000600060006000600006
:1098500060006000600060006000F801000000002F
:109860000000000000000000000000001E070C02C5
:109870000C020C020C020C020C020C020C020C0278
:109880000C020C020C020C021801F0000000000097
:109890000000000000000000000000000F070602AA
:1098A000040104010C010C01880088009800980054
:1098B0005000500070003000200020000000000028
:1098C000000000000000000000000000F70E62042D
:1098D00042044604460464026402E402E4029C0278
:1098E0009C01980198018801880088000000000010
:1098F0000000000000000000000000009E070C01B6
:10990000080118019000B0006000200060006000B5
:10991000D00090008801080104038E0700000000B9
:109920000000000000000000000000000F0F06040F
:1099300004020C0208011801B800B00070006000B9
:1099400060006000600060006000F801000000003E
:10995000000000000000000000000000FC070C02F6
:10996000060302018001800040004000200020002A
:109970001000180008040C040402FE03000000009C
:10998000000000000000E003200020002000200074
:1099900020002000200020002000200020002000C7
:1099A0002000200020002000200020002000E003F4
:1099B0000000000000000000000004000400080097
:1099C000080010001000100020002000400040009F
:1099D000C0008000800000010001000200020002BF
:1099E0000004000000007C004000400040004000F7
:1099F0004000400040004000400040004000400067
:109A000040004000400040004000400040007C001A
:109A1000000000006000900008010000000000004D
:109A20000000000000000000000000000000000036
:109A30000000000000000000000000000000000026
:109A40000000000000000000000000000000000016
:109A50000000000000000000000000000000000006
:109A600000000000000000000000000000000000F6
:109A7000FF0F000000001800600000000000000060
:109A800000000000000000000000000000000000D6
:109A900000000000000000000000000000000000C6
:109AA00000000000000000000000000000000000B6
:109AB000000000000000F0010C030C030003E003B1
:109AC0001C030E03060306038E0B7C0E0000000031
:109AD0000000000000000000000008000E000C0064
:109AE0000C000C000C00CC013C031C060C060C0600
:109AF0000C060C060C060C021C03E401000000001E
:109B00000000000000000000000000000000000055
:109B1000000000000000F0008C018C0186010600AE
:109B20000600060006020C020C01F0000000000016
:109B3000000000000000000000000002C00300035D
:109B400000030003000378038C030C0306030603E1
:109B500006030603060304038C07780100000000D7
:109B600000000000000000000000000000000000F5
:109B7000000000000000E001180308020C060C06BB
:109B8000FC070C000C0018041802E00100000000A3
:109B9000000000000000000000000000C00360069C
:109BA000300630003000FE01300030003000300060
:109BB00030003000300030003000FC0100000000B8
:109BC0000000000000000000000000000000000095
:109BD000000000000000F007D8068C018C018C0109
:109BE0009801F8000C00FC00CC03060306038E036A
:109BF000F800000000000000000008000E000C004B
:109C00000C000C000C00EC011C030C030C030C03F7
:109C10000C030C030C030C030C039E070000000054
:109C20000000000000000000000000006000600074
:109C30000000000040007C006000600060006000E8
:109C400060006000600060006000FC030000000035
:109C5000000000000000000000000000C001C00182
:109C6000000000000001F0018001800180018001FE
:109C70008001800180018001800180018001CC0091
:109C80007C00000000000000000008000E000C0036
:109C90000C000C000C008C038C008C004C006C0041
:109CA0005C008C008C010C010C039E07000000007E
:109CB0000000000000000000000040007C00600088
:109CC0006000600060006000600060006000600094
:109CD00060006000600060006000FC0300000000A5
:109CE0000000000000000000000000000000000074
:109CF0000000000000003707EE06660666066606EE
:109D000066066606660666066606FF0F0000000029
:109D10000000000000000000000000000000000043
:109D2000000000000000EE011C030C030C030C03F8
:109D30000C030C030C030C030C039E070000000033
:109D40000000000000000000000000000000000013
:109D5000000000000000F00098010C030606060653
:109D60000606060606060C030C03F00000000000C1
:109D700000000000000000000000000000000000E3
:109D8000000000000000EE011C030C060C060C068F
:109D90000C060C060C060C031C03EC010C000C005A
:109DA0003E00000000000000000000000000000075
:109DB00000000000000078028C030C030603060379
:109DC00006030603060304038C0378030003000361
:109DD000C0070000000000000000000000000000BC
:109DE0000000000000009F03580638061800180005
:109DF00018001800180018001800FF0000000000EC
:109E00000000000000000000000000000000000052
:109E1000000000000000F0031C030C020C023800DC
:109E2000F000C003040304038C03FC0100000000E5
:109E30000000000000000000000000000000200002
:109E4000200030003000FE013000300030003000D3
:109E500030003000300030023002E001000000002D
:109E600000000000000000000000000000000000F2
:109E70000000000008028E030C030C030C030C030B
:109E80000C030C030C030C039C077801000000007A
:109E900000000000000000000000000000000000C2
:109EA0000000000000001E070C0208010801180154
:109EB0009000B000B00060006000200000000000D2
:109EC0000000000000000000000000000000000092
:109ED000000000000000F70E620446046402640201
:109EE000EC029C0198019801980108000000000014
:109EF0000000000000000000000000000000000062
:109F0000000000000000BC0718011001B000600054
:109F10006000E0009000080108039E0700000000B8
:109F20000000000000000000000000000000000031
:109F30000000000000009E070801080108019000D1
:109F40009000B0006000600060002000200024004D
:109F50001C000000000000000000000000000000E5
:109F6000000000000000FC018401C4004400600007
:109F700020003000180208020C03FC010000000061
:109F800000000000000000038000800080008000CE
:109F900080008000800080004000200040008000A1
:109FA000800080008000800080008000800000032E
:109FB00000004000400040004000400040004000E1
:109FC0004000400040004000400040004000400091
:109FD0004000400040004000400040004000400081
:109FE0004000000000000C001000100010001000E5
:109FF0001000100010001000200040002000100091
:10A0000010001000100010001000100010000C00D4
:10A01000000000001C002204C204800300000000B5
:10A020000000000000000000000000000000000030
:10A030000000000000000000000000000000000020
:10A0400000000006101600061016010002000400B1
:10A05000060008000A000C001000200040008000EC
:10A0600000010101010307010000080402040801C6
:10A0700001010000000001020304010203040607BD
:10A0800008090000A4A00008000000205000000003
:10A090000E830008F4A000085000002020150000E6
:10A0A0001E83000800000000000000000000000007
:10A0B00000000000000000000000000000000000A0
:10A0C000000000000000000001000000728E000887
:10A0D0000C0018003000000001000000100000001B
:10A0E000000000000090D0030090D00300000000AA
:04A0F000000000006C
:040000050800029954
:00000001FF
