:020000040800F2
:10000000300C0124AD0200086735000815340008E3
:100010006535000857080008F55900080000000081
:100020000000000000000000000000001D42000869
:100030005908000800000000E336000829420008C3
:10004000C7020008C7020008C7020008C70200086C
:10005000C7020008C7020008C7020008C70200085C
:10006000C7020008C7020008C7020008C70200084C
:10007000C7020008C7020008C7020008C70200083C
:10008000C7020008C7020008C7020008C70200082C
:10009000C7020008C7020008C7020008C70200081C
:1000A000C7020008C7020008C7020008C70200080C
:1000B000C7020008C7020008C7020008C7020008FC
:1000C000C7020008C7020008C7020008C7020008EC
:1000D000C7020008C7020008C7020008C7020008DC
:1000E000C7020008C702000800000000C70200089D
:1000F000C7020008C7020008C7020008C7020008BC
:10010000C7020008C7020008C7020008C7020008AB
:10011000C7020008C7020008C7020008C70200089B
:10012000C7020008C7020008C7020008C70200088B
:10013000C7020008C7020008C7020008C70200087B
:1001400000000000000000000000000000000000AF
:10015000C7020008C7020008C7020008C70200085B
:10016000C7020008C7020008C7020008C70200084B
:10017000C7020008C7020008C7020008C70200083B
:10018000C7020008C7020008C7020008C70200082B
:10019000C7020008C7020008C7020008C70200081B
:1001A000C7020008C7020008C7020008C70200080B
:1001B000C7020008C7020008C7020008C7020008FB
:1001C000C7020008C7020008C7020008C7020008EB
:1001D000C702000869350008C7020008C702000806
:1001E000C7020008C7020008C7020008C7020008CB
:1001F000C7020008C7020008C7020008C7020008BB
:10020000C7020008C7020008C7020008C7020008AA
:10021000C7020008C7020008C7020008C70200089A
:10022000C7020008C7020008C7020008000000005B
:10023000C7020008C702000800000000C70200084B
:10024000C7020008C7020008C7020008C70200086A
:10025000C7020008C7020008C7020008C70200085A
:10026000C7020008C7020008C7020008C70200084A
:10027000C7020008C7020008C7020008000000000B
:10028000C7020008C7020008C702000800000000FB
:1002900000000000C7020008DFF80CD000F05AFA96
:1002A0000048004725630008300C012406488047B9
:1002B00006480047FEE7FEE7FEE7FEE7FEE7FEE74B
:1002C000FEE7FEE7FEE7FEE7254300089902000887
:1002D0002DE9F05F0546002092469B46884606467B
:1002E000814640241BE0284641464746224600F00E
:1002F00069F853465A46C01A914110D31146184620
:10030000224600F050F82D1A67EB01084F462246AE
:100310000120002100F047F817EB00094E41201E94
:10032000A4F10104DFDC484631462A464346BDE8D5
:10033000F09F40EA01039B0703D009E008C9121FA0
:1003400008C0042AFAD203E011F8013B00F8013B8F
:10035000521EF9D27047D2B201E000F8012B491EBB
:10036000FBD270470022F6E710B513460A46044652
:100370001946FFF7F0FF204610BD30B50B46014689
:1003800000202022012409E021FA02F59D4205D334
:1003900003FA02F5491B04FA02F52844151EA2F1DE
:1003A0000102F1DC30BD202A04DB203A00FA02F120
:1003B000002070479140C2F1200320FA03F3194353
:1003C00090407047202A04DB203A21FA02F00021F5
:1003D000704721FA02F3D040C2F120029140084355
:1003E000194670472DE9FE4F804681EA0300C00F91
:1003F0000C46009021F0004123F00045B8EB0200CC
:10040000A94105D24046214690461C460B4602466D
:1004100023F00040104347D0270DC7F30A00C3F371
:100420000A510290401A019040286BDAC3F313007E
:1004300040F4801B0098924620B10023D2EB030ABF
:1004400063EB0B0B01985946C0F140025046FFF791
:10045000AAFF06460D4650465946019A00F08CF90F
:1004600010EB08006141002487EA115284EAE77327
:100470001A4340D0009A62B3019A012A4FEA075208
:1004800015DC001B61EB02014FF0004202EA07524B
:10049000CDE90042001C41F5801132462B4600F0A8
:1004A0008CF903B0BDE8F08F40462146F9E7001B08
:1004B00061EB0201001C41F5801300185B4120181C
:1004C000A2F5001747EB030140EAD570B6196D415C
:1004D00011E06D084FEA360645EAC0754FEA07524B
:1004E000001B61EB0201001C41F5801149084FEA35
:1004F00030000019514132462B4603B0BDE8F04FA1
:1005000000F04CB90098012240000023D0EB020219
:1005100063EBE073009821464FEAE074B8EB00000B
:1005200061EB0401E9E783F000435BE781F0004100
:1005300058E72DE9FE4F81EA030404F0004421F05E
:10054000004100944FF0000B23F0004350EA0104F7
:100550005ED052EA03045BD0C3F30A54C1F30A55D8
:100560002C44A4F2F3340194A0FB0254C1F3130110
:1005700041F48011C3F3130343F4801301FB0244DD
:1005800000FB034E840A970A44EA815447EA8357E2
:10059000A4FB076802958D0A05FB07854FEA932C9B
:1005A00004FB0C542705029D4FEA065847EA16370C
:1005B000B5EB08056EEB070C870E920E47EA811724
:1005C00042EA8312A7FB0201B6EB0B0164EB0004C5
:1005D0002B0D43EA0C335E1844EB1C50DA465146AF
:1005E000E7FB0201C5F313044FEA0B3343EA14534C
:1005F0004FEA0432019C43EA0603A4F10C0402947E
:10060000009CCDE900B400F0D8F803B0BDE8F08F4D
:1006100000200146F9E72DE9F04D81EA030404F0DA
:10062000004B21F0004514464FF0000A23F0004132
:1006300050EA050220D054EA01021DD0C5F30A5742
:100640000246C5F31303C1F31300C1F30A5640F485
:10065000801543F48013A7EB0608101BD64608F25A
:10066000FD3873EB050002D308F1010801E0921890
:100670005B41B8F1000F03DA00200146BDE8F08DC0
:1006800000204FF48011064684460EE0171B73EBE2
:10069000050705D3121B63EB050306434CEA010C67
:1006A00049084FEA300092185B4150EA0107EDD14A
:1006B00052EA030012D082EA040083EA05010843EB
:1006C00005D0101BAB4106D20122002306E0002218
:1006D0004FF0004302E06FF0010253101AEB0600E6
:1006E0004CEB085110EB0A0041EB0B01BDE8F04D5B
:1006F00000F054B8C1F30A52C1F3130140F2FF33C2
:1007000041F480119A4202DA00200146704740F21B
:1007100033439A42A2F2334202DC5242FFF752BE06
:10072000FFF741BE30B5041E71F1000404DB4FF049
:100730000044404264EB0101141E73F1000405DB28
:100740001C464FF00043524263EB0403994208BF3A
:10075000904230BD064C074D06E0E06840F00103D2
:1007600094E8070098471034AC42F6D3FFF798FDA1
:1007700084650008A4650008202A06DBCB17203A10
:1007800041FA02F043EAE07306E041FA02F3D04096
:10079000C2F12002914008431946704710B5141E5B
:1007A00073F1000408DA401C41F1000192185B412A
:1007B0001A4301D120F0010010BD2DE9F04D924601
:1007C0009B4611B1B1FA81F202E0B0FA80F2203218
:1007D0009046FFF7E8FD04460F4640EA0A0041EA6A
:1007E0000B0153465A46084313D0114653EA010001
:1007F00019D0C8F140025046FFF7E4FD05460E4609
:10080000504659464246FFF7CEFD084305D0012029
:1008100004E020463946BDE8F08D0020054346EA55
:10082000E0762C4337430A986305E40AA0EB0800FE
:100830000022FD0A44EA47540A3002D5002001464E
:10084000E9E7010510196941DDE908450019694129
:10085000BDE8F04DA2E7FEE7704772B6FEE7000084
:1008600070B5044600F0E8F90546601C02D0044863
:100870000078044400F0E0F9401BA042FAD370BDB8
:10088000080000242DE9F04F4F4D00224FF0010ADF
:100890004FF00F0B92E000BF0AFA02F919EA0103C8
:1008A0007ED022F0030606F1B0469407D6F808C4BD
:1008B000270FDFF818810BFA07FE40450EEA0C04FB
:1008C00002D14FF0000C40E0DFF804C1604502D1D6
:1008D0004FF0010C39E0DFF8FCC0604502D14FF069
:1008E000020C32E0DFF8F0C0604502D14FF0030C9B
:1008F0002BE0DFF8E8C0604502D14FF0040C24E0A3
:10090000DFF8DCC0604502D14FF0050C1DE0DFF8D8
:10091000D4C0604502D14FF0060C16E0DFF8C8C025
:10092000604502D14FF0070C0FE0DFF8C0C0604512
:1009300002D14FF0080C08E0DFF8B4C0604502D1E6
:100940004FF0090C01E04FF00A0C0CFA07FCA4452B
:1009500013D12C689C432C606F684FF0B0449F43C8
:100960006F6067689F43676027689F432760D6F87A
:10097000084424EA0E04C6F8084407680323D40890
:100980004FEA42084FEA427C03FA08F34FEADC6C74
:100990001F4307600BFA0CF600EB8404276A00E0A3
:1009A0000BE0B7432762C4689C43C460446824EAF0
:1009B0000904446084689C438460521C31FA02F349
:1009C0007FF46AAFBDE8F08F800000580000025845
:1009D0000004025800080258000C02580010025887
:1009E0000014025800180258001C02580020025837
:1009F000002402582DE9F84F03247D4D00234FF0C9
:100A000001094FF0B04B4FF00F0AE9E009FA03F784
:100A10003A4076D00E7906F00306012E01D0022E60
:100A200018D1D0F808C04FEA430ECE6804FA0EF889
:100A30002CEA080C06FA0EF646EA0C068660D0F898
:100A400004C00E792CEA070CC6F300169E4046EA55
:100A50000C0646600E79F643B6070BD0C6684FEA1F
:100A600043088F6804FA08FC26EA0C0607FA08F720
:100A70003743C7600E7906F00306022E12D1DE0856
:100A80000F694FEA437C00EB8606B646366A4FEAAA
:100A9000DC6C0AFA0CF807FA0CF726EA080637436A
:100AA000CEF820700F7906684FEA430807F0030775
:100AB00004FA08FC07FA08F726EA0C063743076031
:100AC0004E6816F4403F1CD04A4E376847F0020784
:100AD000376036689F0706F00206009623F003068B
:100AE00006F1B046B6463F0FD6F80864DFF8088135
:100AF0000AFA07FC404526EA0C0603D14FF0000C29
:100B000041E06CE0DFF8F4C0604502D14FF0010C29
:100B100039E0DFF8ECC0604502D14FF0020C32E062
:100B2000DFF8E0C0604502D14FF0030C2BE0DFF8A6
:100B3000D8C0604502D14FF0040C24E0DFF8CCC0EF
:100B4000604502D14FF0050C1DE0DFF8C4C06045E0
:100B500002D14FF0060C16E0DFF8B8C0604502D1B4
:100B60004FF0070C0FE0DFF8B0C0604502D14FF046
:100B7000080C08E0DFF8A4C0604502D14FF0090C72
:100B800001E04FF00A0C0CFA07FC4CEA060CCEF818
:100B900008C44F68DBF80060FF0226EA020600D5B1
:100BA00016435F46CBF80060D1F804C0DBF8046060
:100BB0005FEA8C2C26EA020600D516437E606E683A
:100BC0004F6826EA0206BF0300D516436E602E6802
:100BD0004F6826EA0206FF0300D516432E605B1C11
:100BE0000A6832FA03F67FF411AFBDE8F88F00000F
:100BF00080000058F44402580000025800040258D3
:100C000000080258000C0258001002580014025844
:100C100000180258001C02580020025800240258F4
:100C20000AB1816170470904FBE7000001480068D0
:100C3000000C70470010005C01488068704700009D
:100C400008000024024881680278114481607047DE
:100C500008000024032010B500F078F801F02AFF06
:100C60000F4A104914681368C4F3032203F00F03FA
:100C70008A5CC95C02F01F0201F01F01D0400A4AE1
:100C800020FA01F11160094908600F2000F010F806
:100C900008B1012010BD00F02BF8002010BD0000AD
:100CA000184402586464000818000024140000244A
:100CB00070B50D4D04462878A0B14FF47A71B1FBA0
:100CC000F0F00A490968B1FBF0F002F050FA48B9B7
:100CD000102C07D200222146501E00F017F80020E9
:100CE0006C6070BD012070BD080000241400002459
:100CF000054808B5016841F002010160006800F094
:100D00000200009008BD0000F44402580E4BF0B4FD
:100D10001B680D46C3F30223C3F10706042E00D956
:100D20000426191D072901D2002300E0DB1E01243F
:100D300004FA06F19C40491E2940641E9940144063
:100D40002143F0BC04F068BE0CED00E0064900F061
:100D5000070210B54FF6FF040868044B204040EA34
:100D600002201843086010BD0CED00E00000FA05F9
:100D70007047D0F8080503F0E7BF01EBC10200EBB4
:100D80008202D0F80805926C03F03ABF01EBC10271
:100D900000EB8202D0F80805D2F8882203F08CBF5D
:100DA000D0F8080503F0D2BF0A0601F00F0101EBED
:100DB000C10100EB810101D53C3101E001F51F715A
:100DC000006804F0B1BC70B54268044601F00F0041
:100DD000904201D9012070BD01F00F024FF00005D3
:100DE0000B0602EBC2014FF0010204EB810103D5B7
:100DF00081F83D203C3103E081F87D5201F51F71FF
:100E00008D70087094F8BC04012808D084F8BC24C4
:100E1000206804F015FB002084F8BC5470BD02204B
:100E200070BD2DE9F04101F00F0604460D064FF0AC
:100E3000010006EBC6014FF0000504EB810103D56C
:100E400081F83D003C3103E081F87D5201F51F71CE
:100E50004F788A600B710E7007B14E83022B00D160
:100E60004D7194F8BC24012A09D084F8BC04206890
:100E700004F06CFA284684F8BC54BDE8F0810220E6
:100E8000FBE770B501F00F05002405EBC50100EB91
:100E9000810101F5227181E81C0001F80B4C01F879
:100EA0000C5DC368012B00D1CA61027B006804F0AD
:100EB0001FFB002070BD70B50D464168044605F06B
:100EC0000F00884201D9012070BD29064FF00006AD
:100ED0004FF0010207D500EBC00104EB810181F85E
:100EE0003D203C3107E005EBC50104EB810181F8B1
:100EF0007D6201F51F718A70087094F8BC040128A6
:100F000007D084F8BC24206804F0C6FA280702D071
:100F100007E0022070BD217B04F2C442206804F087
:100F200063FA002084F8BC6470BD70B501F00F0452
:100F3000002504EBC401012600EB8101483181E862
:100F40002C0001F80B6C01F80C4DC368012B00D18B
:100F5000CA61027B006804F0CBFA002070BD00007B
:100F60002DE9FC5F05680446284604F05AFC002879
:100F70007ED1206804F081FC002879D0D5F80808DB
:100F8000C0F30D20C4F8FC04206804F076FC800750
:100F900004D52068416901F002014161206804F034
:100FA0006CFCC10604F2C440009034D5206881690D
:100FB00021F0100181612F6A07F00F01C7F3434050
:100FC00001EBC101022804EB810606F51F7602D071
:100FD000062811D01AE047F6F070074216D0C7F382
:100FE0000A12F1681746284604F04BFCF168706954
:100FF0003944F160384408E000990822284604F09A
:1010000040FC7069C7F30A11084470612068816967
:1010100041F010018161206804F02FFC00034FF0C3
:10102000000A4FF0020B4FF001097CD52068002622
:1010300004F002FC074674E0F80770D02068F1B2B3
:1010400004F013FC8046C00707D005EB4611C1F839
:10105000089B3146204602F08DFA5FEA087025D5DC
:1010600005EB46110820C1F8080BFC49206800E098
:1010700042E2026C00EB461001928A42D0F8081B53
:1010800005D9090403D54FF40041C0F8081B2046D8
:1010900000F06EFAF1490198884207D9E06801280A
:1010A00004D120680121009A04F09EF95FEAC8602B
:1010B00004D505EB46111020C1F8080B5FEA8870D3
:1010C0001CD56869000605D5D5F8040840F4806190
:1010D000C5F8041806EBC60004EB800090F87F12F8
:1010E00000F51F70012905D180F803A02046F1B258
:1010F00000F008FA05EB4611C1F808BB5FEA88600A
:1011000004D505EB46112020C1F8080B5FEA8840A2
:1011100005D505EB46114FF40050C1F8080B7F08C8
:10112000761C002F88D1206804F0A7FB40036FD500
:10113000206804F07AFB0026074667E0F80763D0D2
:101140002068F1B204F07FFB8046C00723D0D5F8B9
:10115000342806F00F0C05EB461309FA0CF0824315
:10116000C5F83428C3F80899E06801280FD106EBC8
:10117000C60004EB8000D0E911121144816436B935
:10118000E06C20B920680121009A04F02DF9204676
:10119000F1B2FFF7F2FD5FEA087004D505EB4611E6
:1011A0000820C1F808095FEAC86004D505EB4611BC
:1011B0001020C1F808095FEA486004D505EB461124
:1011C0004020C1F808095FEA887016D531462846E4
:1011D00004F0FAFA06EBC60004EB800090F83F102A
:1011E0003C30012905D180F803A02046F1B200F07F
:1011F00085F905EB4611C1F808B95FEA086003D527
:101200003146204602F01CFA7F08761C002F95D14B
:10121000206804F032FB002811DAD5F8040820F029
:101220000101C5F8041894F8F40401283BD02046C5
:1012300000F082F92068416901F0004141612068B5
:1012400004F01BFB00050BD5D5F80808C00702D039
:10125000204600F095F92068416901F40061416180
:10126000206804F00AFB00010AD52068416901F0FA
:101270000061416194F8F404E0B1204600F080F987
:10128000206804F0FAFAC00472D5D5F8040820F0FA
:101290000101C5F804182068102104F095FA002116
:1012A0004FF67F322DE00021204684F8F4A4FFF7AA
:1012B0005FFDBFE784F8F4942068406D0121C0F31E
:1012C0008300C4F8F8042046FFF752FDD8E700BFBA
:1012D00005EB4110C0F80829D0F8003923F40013B9
:1012E000C0F80039C0F8082BD0F8003B23F40013F5
:1012F000C0F8003BD0F8003B43F00063C0F8003B6F
:10130000491C60688842E3D8D5F81C0840F00111F8
:10131000C5F81C18206B68B1D5F8840840F00B01A3
:10132000C5F88418D5F8440840F00B012846C5F8E4
:1013300044180DE0D5F8140842F22B010843C5F813
:101340001408D5F8100840F00B012846C5F810180D
:10135000D0F8000820F4FE61C5F80018217B206851
:10136000009A04F041F82068416901F4805141611C
:10137000206804F082FA800417D5206804F026F86B
:10138000206804F041FA206101F04EFB217C2368C3
:10139000CAB20146184604F0A5FA204600F0B6F895
:1013A0002068416901F400514161206804F065FA48
:1013B000000707D5204600F0C3F82068416901F016
:1013C00008014161206804F058FA000616D5A869A2
:1013D000012620F08001A9610DE000BF06EBC600E8
:1013E00004EB800090F87F02012803D12046F1B27F
:1013F000FFF7DAFC761C6068B042EFD8206804F092
:101400003CFAC00221D501264F4616E006EBC60184
:1014100005EB461004EB8101D0F8000991F840205B
:10142000012A09D1002807DAF0B281F83F7040F0B4
:1014300080012046FFF7B8FC761C6068B042E5D812
:101440002068416901F480114161206804F015FAB7
:10145000800234D501204B4629E000000A30544F69
:1014600000EBC00205EB401104EB8202D1F8001B37
:1014700092F88062012E19D1002917DA94F8FC64E1
:1014800001F4803106F00106B1420FD182F87F32BB
:10149000A96941F08002AA616969090606D4D5F8F4
:1014A000040840F40070C5F8040803E0401C6168BB
:1014B0008142D5D82068416901F40011416120685A
:1014C00004F0DBF9400007D52046FFF752FC206806
:1014D000416901F080414161206804F0CEF9400784
:1014E0000AD520684568680702D52046FFF758FCF2
:1014F0002068416829434160BDE8FC9FD0F8080599
:1015000003F044BCD0F8080503F054BC70B50446A1
:101510000069012570B1022801D0FFF79EF9D4F8C7
:101520000805294603F0B5FCD4F80805BDE870406D
:1015300003F069BC0025F2E7D0F8080503F092BC7F
:10154000D0F8080503F098BC10B5044690F8BC0428
:1015500001280BD0012084F8381084F8BC042068DE
:1015600004F0AFF9002084F8BC0410BD022010BDC7
:10157000D0F8082500F2C441104603F096BC0000E4
:1015800010B50446D0F8080503F0C8FC2068D0F870
:10159000001E41F00101C0F8001E206A002804D09E
:1015A0000248016841F00601016010BD10ED00E045
:1015B000134970B50A68D243520705D5096801F08E
:1015C0000701814213D118E00A6822F007020243A2
:1015D0000A60FFF731FB0A4D4FF47A760446083D66
:1015E00007E000BFFFF728FB001BB04201D9012034
:1015F00070BD2868C0438004F4D4002070BD000092
:101600000C4802580248016841F48071016070473B
:10161000004802582DE9F84F1E4615468A460446F2
:10162000FFF70AFB814694F8400001280ED00127FD
:101630004FF0000884F8407094F84100012807D06A
:101640005FF0020084F84080BDE8F88F0220FBE7DD
:101650004221C4F8448084F84110002220214B46E6
:101660002046009602F096FC0028EBD121682868FD
:1016700088622168686848622168A868C862206832
:101680002969026822F4400242F480021143016099
:10169000E9684FF000622046CAF82810514602F06F
:1016A00021F801224B4608212046009602F072FCE8
:1016B0000028C7D122680821D16084F84170C1E7B1
:1016C0002DE9F84F17468B460446FFF7B5FA8246D8
:1016D00094F8400001280ED001264FF0000884F84D
:1016E000406094F84100012807D0022584F840802A
:1016F0002846BDE8F88F0220FBE74FF00209C4F846
:10170000448084F8419000222021534620460097CF
:1017100002F040FC0500E9D100225946204601F0C4
:10172000E1FFDBF8240058B901225346022120468C
:10173000009702F02FFC0500D8D12168C1F80C9069
:1017400084F84160D2E710B504000CD0206801682D
:1017500021F001010160204600F0A4F8002060643F
:1017600084F8410010BD012010BD0000F8B504460A
:10177000FFF762FA05461CB194F8410010B107E08A
:101780000120F8BD204600F0B1F841F28830A06495
:1017900020686FF0FF02A168036802EB012223F4C6
:1017A000F85111430160A06C002220212B460090CB
:1017B000204602F0EFFB0028E3D12268D4E9073588
:1017C0002679E168176845EA0665DFF844C01943E1
:1017D000104B29430025012607EA0C073943116005
:1017E0002268D4E90517B4F810C0D2F804E03943F0
:1017F0000EEA030E4EEA0C431943516021680A6851
:1018000042F001020A60656484F84160F8BD00009E
:101810002FFFFF00FEF8E0FF2DE9F843164688464B
:101820000446FFF709FA034694F8400001280ED059
:10183000012084F84000002794F84100012808D0D6
:101840005FF0020584F840702846BDE8F883022066
:10185000FBE7A06C8221676484F8411000222021FC
:101860000090204602F096FB0500EBD120687268DC
:10187000016821F0080111430160706808280AD14D
:1018800022681021306810632068C16020680168F8
:1018900041F4801101604FF040624146204601F062
:1018A00021FFCFE710B500680B49884213D10B48E0
:1018B000016821F48041016009480421FEF7E2FF3C
:1018C00008484421FEF7DEFFBDE8104006484FF40B
:1018D0006051FEF7D7BF10BD00500052D4440258EB
:1018E0000010025800040258000C02582DE9F04183
:1018F000B6B00446142130A8FEF734FDC021684676
:10190000FEF730FD38492068884269D100211391E3
:101910004FF000700C46CDE90001684600F080FAF7
:1019200008B1FEF79AFF3148016841F48041016037
:10193000006800F4804035902C485838016841F424
:1019400080410160016821F48041016027480C302A
:10195000016841F010010160016801F0100135914A
:10196000016841F002010160016801F00201359156
:10197000016841F008010160006809274FF0040880
:10198000CDF8C08000F00800022503263396CDE98B
:101990003470174830A9CDE93154FFF72BF8CDE961
:1019A000308532AADFF84C8030A9404682E8D0006A
:1019B000FFF720F84FF4605032AACDE930050E4809
:1019C00030A982E8D000FFF715F80A2132944020B0
:1019D000CDE93361CDE9300530A94046FFF70AF87B
:1019E00036B0BDE8F081000000500052D4440258E7
:1019F0000010025800040258000C02582DE9F84F5C
:101A000015460E460446FFF717F98246206881699D
:101A100094F8403000F12009012B0DD001274FF040
:101A2000000884F8407094F84120012A06D0022072
:101A300084F84080BDE8F88F0220FBE7C4F84480BA
:101A4000A6B3222284F841200269521CA2630269D3
:101A5000521C62632663426922F0406242F0806257
:101A60004261206881610EE00621204602F092FA70
:101A7000C8B999F80000216B0870206B401C2063E6
:101A8000A06B401EA063A06B53464FF0010200956F
:101A90000028E9D14FF00201204602F07BFA10B98C
:101AA00022680221D16084F84170C1E7FFE7616CD0
:101AB000012041F008016164BAE700002DE9F84F08
:101AC00015460E460446FFF7B7F894F840108246D4
:101AD0002068012900F120090ED001274FF00008ED
:101AE00084F8407094F84110012907D05FF002009B
:101AF00084F84080BDE8F88F0220FBE7C4F84480FA
:101B000086B3122184F841100169491CE162016920
:101B1000491CA1626662416921F0406141610EE0A9
:101B20000421204602F036FAC8B9606A017889F8C3
:101B30000010606A401C6062E06A401EE062E06A79
:101B400053464FF0010200950028E9D14FF0020101
:101B5000204602F01FFA10B922680221D16084F8F1
:101B60004170C5E7FFE7616C012041F00801616445
:101B7000BEE7000010B500F057FF05490968054AA7
:101B8000C1F30211515C01F01F01C84010BD0000FB
:101B90002044025864640008494930B5484C0B1D84
:101BA0000A68143409681D68246802F00303C5F349
:101BB0000012C1F30531C4F3CC04002914FB02F276
:101BC00000EE102AF8EE400A75D03F4A9FED3D1A0C
:101BD000B7EE000A6BB1DFED3D1A012B01D0022BED
:101BE00064D002EE101A1168F8EE422A81EEA22AA1
:101BF00021E0334C283C23689B0612D5344B2468E3
:101C000001EE901A1168C4F3C104F8EE612AE340B2
:101C100001EE903AC1F30801F8EE611A81EEA22AB2
:101C20000BE001EE901ADFED2B2A00BFF8EE611AEF
:101C3000116882EEA12AC1F3080101EE901A116821
:101C4000F8EE611A40EE811A71EE800A62EE200A07
:101C5000C1F3462101EE101AB8EE411A31EE001A16
:101C6000C0EE811ABCEEE11A80ED001A1168C1F3D2
:101C7000064101EE101AB8EE411A31EE001AC0EE1C
:101C8000811ABCEEE11A80ED011A1168C1F30661F8
:101C900001EE101AB8EE411A31EE000A80EE801AF9
:101CA000BCEEC10A80ED020A30BD04E001EE901ADC
:101CB000DFED092ABAE70021016041608160F3E7A6
:101CC0002844025800000039384402580024744A5D
:101CD0000090D0030024744C20BCBE4B494930B561
:101CE000484C0B1D0A681C3409681D68246802F002
:101CF0000303C5F30022C1F30551C4F3CC0400294A
:101D000014FB02F200EE102AF8EE400A75D03F4AAA
:101D10009FED3D1AB7EE000A6BB1DFED3D1A012BC6
:101D200001D0022B64D002EE101A1168F8EE422A9C
:101D300081EEA22A21E0334C283C23689B0612D571
:101D4000344B246801EE901A1168C4F3C104F8EE14
:101D5000612AE34001EE903AC1F30801F8EE611AFE
:101D600081EEA22A0BE001EE901ADFED2B2A00BFD4
:101D7000F8EE611A116882EEA12AC1F3080101EEA2
:101D8000901A1168F8EE611A40EE811A71EE800A1D
:101D900062EE200AC1F3462101EE101AB8EE411A94
:101DA00031EE001AC0EE811ABCEEE11A80ED001A85
:101DB0001168C1F3064101EE101AB8EE411A31EE76
:101DC000001AC0EE811ABCEEE11A80ED011A11680A
:101DD000C1F3066101EE101AB8EE411A31EE000AA5
:101DE00080EE801ABCEEC10A80ED020A30BD04E02C
:101DF00001EE901ADFED092ABAE700210160416087
:101E00008160F3E72844025800000039404402583A
:101E10000024744A0090D0030024744C20BCBE4BB4
:101E20002DE9FE4F0546DFF8E48350F8081B002437
:101E3000F64FC943019005F12800264608F1240811
:101E4000009008011DD4A86E50B1B0F5801F0CD0D1
:101E5000B0F5001F0ED0B0F5401F1ED001240FE0DA
:101E6000386840F40030386017E00198022102F031
:101E7000B5F803E00098022102F040F904000CD00C
:101E800026462888C043C00523D4A86D05281ED245
:101E9000DFE800F00C11161B1B00AA6ED8F800102A
:101EA00021F440111143C8F80010EAE7386840F403
:101EB0000030386009E00198002102F08FF803E05B
:101EC0000098002102F01AF9044674B100E00124E0
:101ED00026462888C043800528D4E86D80281ED077
:101EE0000CDC90B140280ED114E0AA6DD8F8001097
:101EF00021F007011143C8F80010EAE7C02813D009
:101F0000B0F5807F10D001240FE0386840F4003035
:101F1000386009E00198002102F060F803E00098C1
:101F2000002102F0EBF804469CB126462888DFF831
:101F3000DC92C04309F12C0940052CD4D5F8A80047
:101F4000B0F5800F20D00DDCA0B1B0F5001F0FD18F
:101F500015E0EA6DD8F8001021F4E0711143C8F8DB
:101F60000010E3E7B0F5C00F13D0B0F5000F10D0AC
:101F700001240FE0386840F40030386009E001982F
:101F8000002102F02BF803E00098002102F0B6F8DF
:101F900004467CB126462888C04300052DD4D5F8D8
:101FA000AC00B0F1007F21D00EDCA8B1B0F1807F91
:101FB00010D116E0D5F8A820D9F8001021F460015E
:101FC0001143C9F80010E6E7B0F1407F13D0B0F13B
:101FD000806F10D001240FE0386840F40030386082
:101FE00009E00198002101F0F9FF03E000980021C9
:101FF00002F084F8044674B126462868C043800184
:102000001FD4E86CD8B110280FD0202812D0302867
:1020100015D0012414E0D5F8AC20D9F8001021F037
:10202000E0611143C9F80010E7E7386840F4003078
:10203000386004E00198022101F0D0FF044674B139
:1020400026462888C043C0042BD4286EB0F5005F14
:1020500020D00DDCA0B1B0F5805F0FD115E06B484A
:10206000EA6C2030016821F0300111430160E8E79B
:10207000B0F5405F13D0B0F5804F10D001240FE0D1
:10208000386840F40030386009E00198002101F020
:10209000A5FF03E00098002102F030F804468CB15F
:1020A00026462888C043800429D4686EB0F5403F96
:1020B00023D010DC08B3B0F5803F14D0B0F5003F5A
:1020C0000FD115E02A6ED8F8001021F4E041114339
:1020D000C8F80010E5E7B0F5802F0ED0B0F5A02FBE
:1020E0000BD001240AE00198012101F077FF03E001
:1020F0000098012102F002F8044694B1264628888F
:10210000C04340042AD4D5F8B000B0F1405F23D0DA
:1021100010DC08B3B0F1805F14D0B0F1005F0FD1D4
:1021200015E06A6ED8F8001021F4E0211143C8F8D8
:102130000010E4E7B0F1804F0ED0B0F1A04F0BD00B
:1021400001240AE00198012101F048FF03E0009812
:10215000012101F0D3FF044674B126462888C0430C
:1021600000041FD4286FD8B1B0F1805F0ED0B0F159
:10217000005F10D0012414E0D5F8B020D9F8001089
:1021800021F0E0411143C9F80010E7E7386840F456
:102190000030386004E00198012101F01FFF04467F
:1021A00074B126462868C043C0011ED4A86CD0B1C3
:1021B00001280ED0022811D0032814D0012413E0E6
:1021C0002A6FD8F8001021F040511143C8F80010D0
:1021D000E8E7386840F40030386004E001980221F4
:1021E00001F0FCFE0446ACB126462868DFF81CB0BE
:1021F000C043ABF11C0B400252D40548016841F4C6
:1022000080710160FEF718FD824611E02C440258EF
:1022100000480258FA48AA6C016821F003011143F2
:102220000160E2E7FEF708FDA0EB0A00642835D85C
:10223000F4480068C005F5D58CBBDFF8C4A3B5F839
:10224000B4100AF1240ADAF8000001F4407100F435
:102250004070884211D0DAF80010DAF8002021F43A
:10226000407142F48032CAF80020DAF8002022F4EB
:102270008032CAF80020CAF80010D5F8B400B0F5D2
:10228000807F1AD1FEF7D8FC029012E0FEF7D4FC52
:102290000299411A41F2883081420AD90324264624
:1022A0002878DFF85CA3C0430AF1080AC00721D0F0
:1022B0003CE0DAF800008007E8D5D5F8B410C1F3A7
:1022C0000120032858460DD0016821F47C5101609B
:1022D000B5F8B420DAF80010C2F30B021143CAF8C3
:1022E0000010DDE7C84A036802EA111223F47C51AA
:1022F0001143ECE7E86F182816D005DCA0B10828D8
:1023000008D0102804D10AE020280DD028280BD0AE
:1023100001240AE00198012101F060FE03E0009829
:10232000012101F0EBFE044664B126462878C04343
:1023300080071ED4A86F062819D2DFE800F0160C1B
:1023400011161616EA6FDAF8001021F03801114361
:10235000CAF80010EAE70198012101F03FFE03E00E
:102360000098012101F0CAFE04467CB100E001247E
:1023700026462878C04340071FD4D5F89400062885
:1023800019D2DFE800F0160C11161616AA6FDAF84B
:10239000001021F007011143CAF80010E9E7019885
:1023A000012101F01BFE03E00098012101F0A6FECF
:1023B0000446A4B100E0012426462878C0438006E4
:1023C0002BD4D5F89000B0F1405F24D011DC10B3CD
:1023D000B0F1805F15D0B0F1005F10D116E0D5F8F4
:1023E0009420D9F8001021F007011143C9F800101A
:1023F000E3E7B0F1804F0ED0B0F1A04F0BD0012435
:102400000AE00198002101F0E9FD03E000980221B3
:1024100001F074FE044694B126462878C043400675
:102420002BD4D5F89C00B0F5406F24D011DC10B34C
:10243000B0F5806F15D0B0F5006F10D116E0D5F86B
:102440009020DAF8001021F0E0411143CAF80010A2
:10245000E3E7B0F5805F0ED0B0F5A05F0BD00124AC
:102460000AE00198002101F0B9FD03E00098022183
:1024700001F044FE044694B126462878C043000685
:102480002BD4D5F8A000B0F5C04F24D011DC10B388
:10249000B0F5005F15D0B0F5804F10D116E0D5F83B
:1024A0009C20D9F8001021F4E0511143C9F8001024
:1024B000E3E7B0F5004F0ED0B0F5204F0BD001246C
:1024C0000AE00198002101F089FD03E00098022153
:1024D00001F014FE044654B126462878C043000794
:1024E0001ED4D5F88400B0F5805F0AD00FE0D5F88F
:1024F000A020D9F8001021F460411143C9F8001060
:10250000EBE70098022101F0F9FD00B10126D5F8B2
:102510008420DAF8001021F440511143CAF8001069
:102520002878C043C00613D4D5F89800B0F5807F52
:1025300005D10098022101F0E1FD00B10126D5F896
:102540009820D9F8001021F440711143C9F8001007
:102550002868C043000316D4D5F8A40038B1B0F5FC
:10256000803F09D0B0F5003F0BD001240AE001986C
:10257000002101F033FD03E00098022101F0BEFDCF
:1025800004468CB126462868C043400322D4D5F8BF
:102590008800B0F5801F11D0B0F5001F13D0B0F542
:1025A000401F15D0012414E0D5F8A420D9F800105C
:1025B00021F440311143C9F80010E4E7386840F4D1
:1025C0000030386004E00098012101F097FD0446D6
:1025D0005CB126462868C043C00323D4286DA8B147
:1025E000B0F5803F17D001241BE0D5F88820DAF839
:1025F000001021F440111143CAF80010EAE700006E
:102600004C44025800480258CFFFFF00386840F49D
:102610000030386004E00198022101F0DFFC04463C
:10262000E4B126462868C043800005D40098022102
:1026300001F064FD00B101262868C04380031BD46B
:10264000D5F88000B0B1B0F5807F0FD0B0F5007F35
:1026500010D0B0F5407F0DD001240CE05A482A6D0F
:10266000016821F4803111430160DBE7386840F4F0
:1026700000303860ECB326462868C043C00207D457
:102680006A6FD8F8001021F000411143C8F800101B
:102690002868C043C00008D4D5F8B820DBF8001083
:1026A00021F480411143CBF800102868C043800218
:1026B00007D4EA6ED8F8001021F080711143C8F8F1
:1026C00000102868C04340000CD4DBF8001021F44F
:1026D0000041CBF80010DBF80010D5F8BC20114306
:1026E000CBF800102868C04308D437486A6D0168E9
:1026F00000E018E021F04051114301602868C04318
:10270000000208D4D5F88C20DAF8001021F440013A
:102710001143CAF8001028790024C04300F00100DA
:1027200020430AD00FE0D5F88020DAF8001021F419
:1027300040711143CAF800109EE70198002101F092
:102740004DFC00B106462879C04300F0020020434A
:1027500005D10198012101F041FC00B1064628791C
:10276000C04300F00400204305D10198022101F08C
:1027700035FC00B106462879C04300F0080020432C
:1027800005D10098002101F0B9FC00B10646287976
:10279000C04300F01000204305D10098012101F052
:1027A000ADFC00B106462879C04300F02000044388
:1027B00004D10098022101F0A1FC00B916B101205A
:1027C000BDE8FE8F0020FBE74C4402582DE9F05F86
:1027D00004000F467ED0DFF83882D8F8000000F001
:1027E0000F00B8420CD2D8F8001021F00F01394385
:1027F000C8F80010D8F8000000F00F00B84269D106
:102800002078844D40070AD52069296801F07001BD
:10281000884204D9296821F0700101432960207899
:102820007C4E361D00070AD56069316801F07001E1
:10283000884204D9316821F0700101433160207869
:10284000C0060AD5A069316801F4E061884204D964
:10285000316821F4E061014331602078DFF8B4B1E0
:1028600080060BF1080B0CD5E1695846DBF8002017
:1028700002F07002914204D9026822F070020A4309
:102880000260207880070AD5E068296801F00F010E
:10289000884204D9296821F00F010143296020787A
:1028A000C0073ED05B49A2682868183920F47060E0
:1028B000104328606068022818D0032819D00968DE
:1028C000012819D0490700294ADADFF848A1AAF1FE
:1028D000080A00E044E0DAF8002022F00702024390
:1028E000CAF80020FEF7A8F9814612E009688903BA
:1028F000E9E709688901E6E7C905E4E7FEF79CF91D
:10290000A0EB090141F28830814202D90320BDE8E1
:10291000F09F6168DAF8000000F03800B0EBC10FFA
:10292000ECD1207880070AD5E068296801F00F0112
:10293000884204D2296821F00F0101432960D8F8A8
:102940000010404601F00F01B9420BD9016821F097
:102950000F0139430160006800F00F00B84201D058
:102960000120D4E7207840070AD52069296801F0C2
:102970007001884204D2296821F070010143296066
:10298000207800070AD56069316801F0700188423B
:1029900004D2316821F07001014331602078C00613
:1029A0000AD5A069316801F4E061884204D2316837
:1029B00021F4E06101433160207880060CD5E169A3
:1029C0005846DBF8002002F07002914204D20268FF
:1029D00022F070020A43026000F06CF80E492A6887
:1029E0002B68C2F3032203F00F038A5CC95C02F078
:1029F0001F0201F01F01D040084A20FA01F11160C6
:102A00000749086007480068BDE8F05FFEF750B965
:102A10000020005218440258646400081800002482
:102A2000140000240C00002430B500F043F80B4AD9
:102A30000B490C4B15681468C5F3032204F00F040E
:102A40008A5C095D02F01F0201F01F01D040064AB6
:102A500020FA01F119601060084630BD1844025890
:102A600064640008180000241400002400B5FFF777
:102A7000DBFF05490968054AC1F30211515C01F009
:102A80001F01C84000BD00001C44025864640008D7
:102A900000B5FFF7C9FF05490968054AC1F30221DE
:102AA000515C01F01F01C84000BD00001C440258E9
:102AB00064640008454970B545480968434B103BBC
:102AC00011F0380208D00111082A03D0102A0BD0C7
:102AD000182A0BD0084670BD19688906FBD51968FD
:102AE000C1F3C101C84070BD3A4870BD3749374D88
:102AF00018310C1D24350A68096826682D6802F013
:102B0000030406F00102C1F30511C5F3CC0515FB62
:102B100002F200EE102AB8EE400AE9B32F4ADFEDC8
:102B20002E0AB7EE001A6CB1DFED2D1A012C01D080
:102B3000022C43D002EE101A1068F8EE422A81EE01
:102B4000A22A1EE01C68A40611D51B6801EE901A8B
:102B50001168C3F3C103F8EE612AD84001EE900A70
:102B6000C1F30800F8EE611A81EEA22A0BE001EE33
:102B7000901ADFED1C2A00BFF8EE611A106882EE91
:102B8000A12AC0F3080001EE900AF8EE611A40EEA7
:102B9000201A31EE810A00E015E022EE000A1068EA
:102BA000C0F34620401C00EE900AF8EE600A80EE6A
:102BB000201ABCEEC10A10EE100A70BD01EE901A88
:102BC000DFED092AD8E7002070BD0000104402584C
:102BD0000090D00340787D01000000393044025855
:102BE0000024744A0024744C20BCBE4B2DE9F05FD5
:102BF00004007DD0FF4F2078FE4D1837DFF8F493A6
:102C0000103DC00748D0D9F80000396800F03800FE
:102C1000102815D0182803D101F0030002280FD086
:102C20006068B0F5803F12D010B1B0F5A02F18D079
:102C3000286820F480302860286820F4802009E08B
:102C40002868800328D560680028D2D024E028684E
:102C500040F480302860606888B1FDF7EDFF0646DB
:102C600009E0286840F480202860F0E7FDF7E4FFE1
:102C7000801B64286FD828688003F7D50CE0FDF727
:102C8000DBFF064605E000BFFDF7D6FF801B64288A
:102C9000F0D828688003F7D4207841F20308D54E95
:102CA0000C3E800769D5D9F80000396810F038006B
:102CB0000ED0182801D188070AD0E06890B329689F
:102CC00021F0190101432960FDF7B6FF824631E08A
:102CD0002868400702D5E06800288AD0E1682868A3
:102CE00020F0190008432860FDF7A6FF824607E0A0
:102CF000DFE000BFFDF7A0FFA0EB0A000228B9D873
:102D000028684007F6D500BFFDF790FF40451BD867
:102D10002069402812D0316821F47C3141EA00302A
:102D200030602AE018E000BFFDF786FFA0EB0A0044
:102D300002289FD828684007F6D5E5E7306820F4D8
:102D40007C3040F40030EBE7207C316821F0FE411C
:102D500041EA0060E4E70DE1286820F00100286006
:102D6000FDF76AFF824605E0FDF766FFA0EB0A006B
:102D700002288DD828684007F6D42078C0065DD593
:102D8000D9F80000DFF86CB2396800F03800ABF118
:102D9000040B082810D0182803D101F003000128E3
:102DA0000AD0E0690028286838D040F08000286008
:102DB000FDF742FF824623E02868C00523D5E0697D
:102DC000802876D11FE0206A202821D0316821F0A8
:102DD000F84141EA8060306030E000BF94F8201094
:102DE000DBF8002022F07C5242EA0161CBF80010AF
:102DF00024E000BFFDF720FFA0EB0A00022898D8CE
:102E00002868C005F6D5FDF711FF4045E6D8DAE79A
:102E1000306820F0F84040F08040DCE720F080008F
:102E20002860FDF709FF064605E000BFFDF704FF37
:102E3000801B02289DD82868C005F7D42078000799
:102E400029D56C486169643000298046016811D039
:102E500041F001010160FDF7EFFE064605E000BF0D
:102E6000FDF7EAFE801B0228C9D8D8F800008007C9
:102E7000F6D510E021F001010160FDF7DDFE064608
:102E800005E000BFFDF7D8FE801B022872D8D8F8F5
:102E900000008007F6D42078800623D5A06900289A
:102EA000286810D040F480502860FDF7C5FE064623
:102EB00005E036E1FDF7C0FE801B02285AD82868DD
:102EC0008004F7D50EE020F480502860FDF7B4FEB2
:102ED000064604E0FDF7B0FE801B02284AD82868A9
:102EE0008004F7D4207840074FD5DFF80C81D8F85C
:102EF000001041F48071C8F80010FDF79DFE0646F1
:102F000005E000BFFDF798FE801B642832D8D8F892
:102F10000000C005F6D5374EA068603601280AD0FB
:102F200008B1052813D0306820F001003060306807
:102F300020F0040002E0306840F001003060A0683A
:102F400041F2883A90B1FDF777FE80460AE030689A
:102F500040F004003060EEE7FDF76EFEA0EB0801E4
:102F6000514507D830688007F6D50EE0FDF764FEBE
:102F7000804607E084E000BFFDF75EFEA0EB08019D
:102F800051457DD830688007F6D4606AB0B3DFF869
:102F90006480D9F8001008F120084FF6F87B08F19A
:102FA0000409C1F3C2010329A8F1040A69D0022867
:102FB000286820F08070286003D0FDF73DFE0446AD
:102FC00084E0FDF739FE064605E000BFFDF734FE5C
:102FD000801B022877D828688001F7D4E26A40F283
:102FE000F331386854F8283F884340EA0210184308
:102FF000386004E01044025800480258B5E0217BD4
:10300000434622894FF4FE0C208A4FF0FE474902C6
:10301000267D521E401EA1F50071C2F308088AB237
:10302000761E0CEA004042EA08020243504607EAD4
:1030300006610A431A60DAF8002022F00102CAF899
:103040000020D9F80020266A22EA0B0242EAC602D2
:10305000C9F80020DAF80010A26921F00C01114330
:10306000CAF800100168E26921F002011143016011
:10307000016841F480310160016841F4003101E0F0
:1030800021E027E00160016841F4802101600168CE
:1030900041F001010160286840F080702860FDF770
:1030A000CBFD044605E000BFFDF7C6FD001B02286E
:1030B00009D828688001F7D557E000BFFDF7BCFDAF
:1030C000001B022802D90320BDE8F09F2868800178
:1030D000F4D44AE039680128D8F8000021D0A26A67
:1030E00001F0030393421CD1E26AC1F305118A4245
:1030F00017D1216BC0F30802491E8A4211D1616BBE
:10310000C0F34622491E91420BD1A16BC0F3064287
:10311000491E914205D1E16BC0F30660491E814210
:1031200001D00120D0E7A16C4E46D9F80000C0F3D1
:10313000CC00814219D0DAF80000554620F0010099
:10314000CAF80000FDF778FD4FEA0007FDF774FDAF
:10315000B842FBD0A26C306820EA0B0040EAC20003
:103160003060286840F0010028600020ACE7401E75
:10317000B0F1807F10B501D3012010BD4FF0E024E5
:1031800060610F21601702F047FC0020A061072159
:10319000216110BD30B590F88410012918D00122AA
:1031A00080F884202421C0F888100022202401689F
:1031B0000B680D6823F0005325F001050D60426691
:1031C00001680B60C0F8884080F88420104630BD4C
:1031D000022030BD70B5044690F8840001281DD04F
:1031E000012284F884202420C4F88800206805681F
:1031F000026822F0010202602068826822F06062A8
:103200000A438260204601F0FBF82268202100205A
:103210001560C4F8881084F8840070BD022070BD69
:1032200070B5044690F8840001281DD0012284F86E
:1032300084202420C4F8880020680568026822F0F1
:10324000010202602068826822F060420A438260C4
:10325000204601F0D5F82268202100201560C4F82E
:10326000881084F8840070BD022070BD10B5040081
:1032700003D0D4F8880010B107E0012010BD002071
:1032800084F88400204600F027F82420C4F8880041
:103290002068016821F001010160204601F0B6F9C3
:1032A0000128EBD0A06A10B1204601F0CBF82068CD
:1032B000416821F4904141602068816821F02A0131
:1032C00081602068016841F0010101602046BDE88D
:1032D000104001F01BB9000010B5B6B0044614212F
:1032E00030A8FDF73FF8C0216846FDF73BF81A49C2
:1032F000206888422DD100201F9001210446CDE98D
:1033000000106846FEF78CFD08B1FDF7A6FA1348D9
:10331000016841F010010160006800F01000359074
:103320000E481038016841F00101016000680DF19C
:10333000C00C022100F0010035904FF4C06007235B
:103340008CE8130003220648CDE9332330A9FDF7AA
:1033500051FB36B010BD000000100140F04402588F
:10336000000002582DE9F8430446D0F8880098463A
:1033700016460D46202802D00220BDE8F883A5B1EC
:103380009EB10021C4F890102120C4F888001834A0
:10339000FDF752FC814654F8100CA687E6872027DB
:1033A000183CB0F5805F02D003E00120E5E720691A
:1033B00010B12E46002510E000260EE080212046A8
:1033C00001F0FAFAC0B9DEB116F8010B2168886283
:1033D000B4F85600401EA4F85600B4F856004B4608
:1033E0004FF00002CDF800800028E7D14FF04001F7
:1033F000204601F0E1FA48B1C4F888700320BCE728
:1034000035F8020B2168C0F30800E0E7C4F88870C3
:103410000020B2E7FEE7000030B587B0142168460F
:10342000FCF7A0FF2248016841F01001016001682B
:1034300001F010010591016841F00401016001688B
:1034400001F004010591016841F08001016001680B
:1034500001F080010591016841F0010101600168FE
:1034600001F001010591016841F00201016001686C
:1034700001F002010591016841F008010160006856
:103480004FF400540B4D002200F008002146059037
:103490002846FDF7C5FB002100940120CDE901017C
:1034A000284603916946FDF7A5FA07B030BD000034
:1034B000E0440258000802582DE9F0410D48FEF79B
:1034C00042F90C48012200210B4B02242025C0E9BF
:1034D0000512C16110261627016280E8F800FEF788
:1034E00045F9002803D0BDE8F041FDF7B6B9BDE8C5
:1034F000F0810000240001240050005218480021EF
:1035000010B5164C0C224FF4E1330460C0E90131D0
:10351000C160C0E904128161C161016241628162DE
:10352000FFF7A4FE08B1FDF798F90D480021FFF759
:1035300077FE08B1FDF791F909480021FFF74AFE2F
:1035400008B1FDF78AF90648FFF724FE002803D0EA
:10355000BDE81040FDF781B910BD0000001001402A
:1035600070000124FEE7FEE70148FDF7F9BC00000A
:10357000240301242DE9F0410446C0680D462027AC
:10358000236801284FF4004604F2C44203EB4511BE
:10359000D3F840C0D1F8080B09D0DFF89CE0F4451F
:1035A0003AD1020433D500BFC1F8086B40E0234B89
:1035B0005FEA007E04D59C453AD90004F4D437E094
:1035C0005FEA806E02D5C1F8087B31E010F0280F69
:1035D0002ED19C4501D90004E6D4D1F8101B05EB8F
:1035E000C50004EB8000C1F31201D0F89C32A3EBBC
:1035F0000101C0F8901200F51F70ADB903691BB14D
:10360000C2681144C1600FE0206801210AE0800611
:103610000AD5C1F8087B07E035B9D4F88C0218B98F
:103620000021184601F0E0FE2046E9B2FDF7AEFBAE
:103630000020BDE8F08100000A31544F0A30544F99
:103640002DE9F84F0E460568814601EBC60100EBF7
:103650008104D4E913203C34904202D90120BDE812
:10366000F88FA168101A814200D20846C01C05EBF1
:10367000461887081BE000BFA268A0EB010A52456C
:1036800000D2924699F80C100AF1030000911FFA3B
:103690008AF3E16887082846F2B202F097F9E168F8
:1036A00001EB0A00E060616901EB0A006061D8F893
:1036B000180980B2B84205D3D4E90401814201D28D
:1036C0000028D9D1D4E90401884208D8D5F83418A3
:1036D000012006F00F0290408143C5F83418002005
:1036E000BDE770472DE9F0434B6A4FF040652BB1C1
:1036F000AA4203D004688B6A5B1E23618B69002B8E
:1037000068D00C6AB4B303688C68DC61CC69FCB126
:10371000D1E90B38D1F824C04E6B8F8A43EA0803F5
:1037200046EA0C0633430E6A43EA8743D1E9037C39
:1037300043EA0C0333438E693B430F682343046819
:1037400033433B4365E0006849688161BDE8F0832D
:10375000D1E90B364F6A4C6B8D8A33433C430E697B
:1037600023430C6A43EA85438D6933430968234345
:103770002B4362E0FFE7CC69B4F1000918D0D1E92E
:103780000B484F6A4E6BB1F814C044EA08043E433C
:103790000F683443CE6844EA8C44344344EA090455
:1037A0001C4303683C431443AA425C61CBD1CDE780
:1037B000D1E90B464F6A4D6BB1F814C034433D4319
:1037C00000682C43096844EA8C441C430C431443AE
:1037D0004461BBE70B6AABB303688C68DC61CC69FE
:1037E000E4B1D1E90B38D1F824C04E6B8F8A43EA9B
:1037F000080346EA0C0633430E6A43EA8743D1E9DD
:10380000037C43EA0C0333438E693B432343046840
:1038100033431343AA42636195D197E7D1E90B364D
:103820004F6A4C6B8D8A33433C430E6923430C6AC9
:1038300043EA854389693343234300680B431343B9
:10384000436183E7FFE7CC6984B1D1E90B384F6A64
:103850004E6BB1F814C043EA08033E433343CE68CD
:1038600043EA8C43334323430468D2E74C6A002C79
:103870009DD0D1E90B368F8A4D6B016833432543C8
:103880002B4343EA8740104348615FE730B595B06A
:103890000020012110240C900B020D9305230E90A3
:1038A0000A0610928D050190CDE906530F9001AAEA
:1038B000129041F2883313901490CDE90410CDE9B1
:1038C0000214054807A9FDF7A5FE002801D06FF0F6
:1038D000020015B030BD00002400012410B58EB0E8
:1038E00000214FF4807406946201089152240B91D8
:1038F0000C91D3100D910591CDE9004009910793EA
:10390000039200F0D7FA18B16FF001000EB010BDAD
:10391000084841F288326946FDF7D2FE10B16FF0D7
:103920000300F3E7FFF7B2FF0028EFD06FF00200CB
:10393000ECE700002400012410B5FFF7BDFD00F006
:1039400081F800F051F801460648814204D106A0F2
:1039500002F052F8002010BD09A002F04DF84FF01F
:10396000FF3010BD1740EF00573235513634204F2D
:103970004B2C666C6173682049443A25580D0A0047
:10398000573235513634204552524F522121212190
:1039900021202049443A25580D0A000030B591B045
:1039A00000204FF480744FF44061099465010B903E
:1039B000EB2406958A030F90062308930C9210902F
:1039C000CDE902040E900A91019000F03BF8054801
:1039D00001AA03A9FDF720FF002801D06FF0050020
:1039E00011B030BD2400012410B590B04FF48073A5
:1039F00000205C01069319040394032208909F237E
:103A00000C90009341F288340B900D900790059034
:103A1000CDE909120A4822466946FDF751FE0848D9
:103A20000EA92246FDF7EAFF9DF838209DF83900DF
:103A30009DF83A1010B0120442EA0020084310BD6D
:103A40002400012470B58EB041F2883400204FF478
:103A5000807166220890CDE90610009222460B90F4
:103A600069460C900D90099005900E48FDF728FED0
:103A70004FF0FF3560B9FFF709FF6FF0020670B92C
:103A800099200090074822466946FDF719FE10B1BB
:103A900028460EB070BDFFF7F9FE0028F9D0304679
:103AA000F7E70000240001242DE9F0412DED028B01
:103AB000002482B0FDF7C0F85F4D06462868FFF786
:103AC0000DFF6860FDF7B8F86968801B19B15BA04D
:103AD00001F092FFFEE7014660A001F08DFF6B4F01
:103AE0004FF400463C55641CB442FBD3FDF7A4F8E8
:103AF000296804466548324600F0AAF96860FDF777
:103B00009BF8021B9FED628A00EE102A6968F8EEAE
:103B1000400A88EE200A19B15EA001F06DFFFEE7B1
:103B2000B7EEC00A202163A08DED000B01F064FF09
:103B3000704801F061FFFFF731FF011E696003D09B
:103B40006DA001F059FFFEE774A001F055FFFDF7ED
:103B500073F8296804467B483246A1F1E041FCF73E
:103B6000E8FBFDF769F8021BDFED778A00EE102A0B
:103B70006968B8EE400AC8EE000A20EEA80A19B13A
:103B800072A001F039FFFEE7B7EEC00A202177A04E
:103B90008DED000B01F030FF6A4900203A5C0B5CB0
:103BA0009A4203D081A001F027FFFEE7401CB042FB
:103BB000F4D384A001F020FF4E4801F01DFF8C4893
:103BC00001F01AFF8B4801F017FF8BA001F014FFE2
:103BD000FDF732F800240746B046296859484246A6
:103BE0000E46A1F1E041FCF7A4FB641CFF2C06F596
:103BF00000462E60F1D9FDF71FF8C21BDFED830AE6
:103C000000EE102A6968B8EE400A80EE801A21EEB4
:103C1000280A19B14DA001F0EFFEFEE7B7EEC00A89
:103C200008217BA08DED000B01F0E6FE02B0002024
:103C3000BDEC028BBDE8F081000000240D0A20B22B
:103C4000C1B3FDCAA7B0DC21212121212020B4ED80
:103C5000CEF3B4FAC2EB3A25640D0A000D0A5732CE
:103C60003551363420B2C1B3FDB3C9B9A62C20B248
:103C7000C1B3FD33324BD7D6BDDACBF9D0E8CAB1E8
:103C8000BCE43A202564206D730D0A002400002452
:103C9000000000470D0AD0B4C8EBB4EDCEF32121EB
:103CA0002121212020B4EDCEF3B4FAC2EB3A2564F1
:103CB0000D0A00000D0AD0B4C8EBB3C9B9A62CCACE
:103CC000FDBEDDB4F3D0A1A3BA2564204B422C2065
:103CD000BAC4CAB13A202564206D732C20D0B4C870
:103CE000EBCBD9B6C8A3BA252E3266204B422F7330
:103CF0000D0A0000746400080D0AC4DAB4E6D3B3F8
:103D0000C9E4B4EDCEF3A3A1A3A12020B4EDCEF37A
:103D1000B4FAC2EB3A25640D0A0000000D0ABDF8A2
:103D2000C8EBC4DAB4E6D3B3C9E4C4A3CABDB3C90B
:103D3000B9A6A3ACBFAACABCB6C1C8A13E3E3E3E0E
:103D40000D0A0000248000240000803A0D0AB6C14C
:103D5000C8A1B4EDCEF321212121212020B4EDCE44
:103D6000F3B4FAC2EB3A25640D0A00000D0AB6C19D
:103D7000C8A1B3C9B9A62CCAFDBEDDB4F3D0A1A3B6
:103D8000BA2564204B422C20BAC4CAB13A2025641B
:103D9000206D732C20B6C1C8A1CBD9B6C8A3BA2553
:103DA0002E3266204D422F73200D0A000D0ACAFDE7
:103DB000BEDDD0A3D1E9CAA7B0DC21212121210D8C
:103DC0000A0000000D0AD0A3D1E9CDA8B9FD212138
:103DD0002121212051535049C7FDB6AF57323551EB
:103DE0003634B2E2CAD4D5FDB3A30D0A00000000F8
:103DF00024650008E06400080D0ABFAACABCB6C169
:103E0000C8A13E3E3E3E0D0A000000000000004BEF
:103E10000D0AB6C1C8A1B3C9B9A62CCAFDBEDDB48E
:103E2000F3D0A1A3BA2564204D422C20BAC4CAB154
:103E30003A202564206D732C20B6C1C8A1CBD9B619
:103E4000C8A3BA252E3266204D422F73200D0A00DA
:103E50002DE9F041CBB2C3F58074944200D91446E9
:103E60000D468F1806464FF4807800BF00F022F808
:103E700018B16FF00100BDE8F081A2B229463046CA
:103E800000F04EF810B16FF00400F4E7FFF7FEFC0D
:103E900010B16FF00200EEE7254405F58070B842DE
:103EA000264401D97C1B00E04446BD42DED30020FD
:103EB000E1E70000F0B595B041F2883500242A46CC
:103EC0004FF4807006210E94CDE90C040B94134836
:103ED0001194129413940F94069106A9FDF7F0FB28
:103EE00010B1A01E15B0F0BD0220009001214305C5
:103EF000102205260696CDE90221CDE90443C70527
:103F00000190CDE90F71054806A92B466A46FDF7D9
:103F100081FB0028E6D06FF00200E3E724000124D3
:103F200070B58EB004464FF48070002345010395B0
:103F30008600069008934FF040700C9332250B9347
:103F40000D9307960593CDE90902CDE90051FFF7DE
:103F5000B1FF18B16FF001000EB070BD41F28836AC
:103F60000B4832466946FDF7ABFB6FF0040528B9F4
:103F7000074832462146FDF7A1FD08B12846EBE788
:103F8000FFF784FC0028E7D06FF00200E4E70000B0
:103F9000240001242DE9F041984616460F460446B8
:103FA000069D08E0681C06D0FCF746FEA0EB080062
:103FB000A8420AD84DB120688068384000D001205E
:103FC000B042EFD10020BDE8F081042084F8410028
:103FD000606C40F0010060640120F4E72DE9F047D7
:103FE000454D044689464FF0000A2868C0438007C3
:103FF0000AD0414E283E306820F080603060FCF7E7
:104000001BFE0746B04608E00120BDE8F08700BF70
:10401000FCF712FEC01B022867D8D8F80000000188
:10402000F6D4206829684FF4FE0721F47C313E0263
:1040300041EA00302860207AA389B4F804C0400225
:104040002D4D2D495B1E227CACF1010C1035091D54
:10405000A0F5007080B2521ECCF3080C07EA0343AF
:1040600040EA0C00184306EA026210432860086820
:10407000626920F0C000104308600A68A06922F05D
:10408000200202430A60281D0A6822F010020A601A
:1040900002684FF6F873E4699A4342EAC402026088
:1040A0000868B9F1000F40F010020A6011D00868EA
:1040B000B9F1010F11D040F400100860D8F80000E9
:1040C000444640F08060C8F80000FCF7B5FD0546A6
:1040D0000DE0086840F40020EFE740F48010ECE7C2
:1040E000FCF7AAFD401B022801D903208DE72068B8
:1040F0000001F5D5504688E7284402582DE9F047DD
:10410000454D044689464FF0000A2868C0438007A1
:104110000AD0414E283E306820F080503060FCF7D5
:104120008BFD0746B04608E00120BDE8F08700BFE0
:10413000FCF782FDC01B022867D8D8F80000800079
:10414000F6D4208829684FF4FE0721F07C713E02E6
:1041500041EA00502860207AA389B4F804C04002E4
:104160002D4D2D495B1E227CACF1010C1835091D2B
:10417000A0F5007080B2521ECCF3080C07EA03438E
:1041800040EA0C00184306EA0262104328600868FF
:10419000626920F44060104308600A68A06922F454
:1041A000007202430A60281D0A6822F480720A60C5
:1041B00002684FF6F873E4699A4342EAC402026067
:1041C0000868B9F1000F40F480720A6011D00868E5
:1041D000B9F1010F11D040F080700860D8F80000EC
:1041E000444640F08050C8F80000FCF725FD054625
:1041F0000DE0086840F48000EFE740F40000ECE7D1
:10420000FCF71AFD401B022801D903208DE7206826
:104210008000F5D5504688E7284402587047017859
:10422000407841EA00207047FCF70CBDF0B59DB026
:104230004C216846FCF796F8202113A8FCF792F869
:104240000220FDF7B5F93449002434480A6822F009
:1042500001020A600A68026842F440420260026891
:1042600002F440421B9202689204FCD52C4A136867
:1042700043F002031360126802F002021B9202680C
:1042800042F44042026002680A6842F001020A6099
:10429000096801F001011B9101688904FCD5FDF753
:1042A000B1F9FCF7C3FC1E49843901220B680220D6
:1042B00008252526C70323F018030B600521029269
:1042C000CDE900670AAF0692C0230990042687E86B
:1042D0000B00CDE90D06CDE910540F9068461294FD
:1042E000FEF784FC08B172B6FEE740201A903F2129
:1042F0000301CDE916500322CDE9180313AB13A82F
:1043000083E816000421FEF761FA002801D072B696
:10431000FEE71DB0F0BD00002C04005818480258FC
:10432000F44402582C48F0B52C4A016841F470015D
:104330000160106800F00F00072804D2106820F018
:104340000F00C01D106026490020254C10340B685A
:10435000244D43F001030B6020600B682B400B6081
:10436000136803F00F03072B04D9136823F00F031E
:10437000DB1D13601A4C1C4A18341C4B261D371DBC
:104380002060174C1A4D28343060261D3860371DC8
:1043900023603B1D35601C1D3A60251D2E1D1860D5
:1043A000331D22602860326018600A680C4B114C83
:1043B00022F4802260330A60186020686FF30F00D7
:1043C000B0F1005F03D20C490120C1F8080143F2AB
:1043D000D2000A490860F0BD88ED00E000200052DC
:1043E000004402587FEDF6EA800201010002020259
:1043F0000000FF010010005C0080005100400052EE
:1044000030B5416EB9B101680D4B03F108048A68FB
:104410008968C2F34262490F5D5C615C2D01B5FBA6
:10442000F1F1A0F86A10995CA25C0901B1FBF2F10C
:10443000A0F8681030BD0121A0F86A10F8E700006C
:104440005464000890F82810C90706D00168C36AB0
:104450004A6822F400321A434A6090F8281089070B
:1044600006D50168036B4A6822F480321A434A6019
:1044700090F82810490706D50168436B4A6822F472
:1044800080221A434A6090F82810090706D501686F
:10449000836B4A6822F400421A434A6090F828105D
:1044A000C90606D50168C36B8A6822F480521A4394
:1044B0008A6090F82810890606D50168036C8A681E
:1044C00022F400521A438A6090F82810490611D548
:1044D0000168436C4A6822F480121A434A60416CB6
:1044E000B1F5801F06D10168836C4A6822F4C002CE
:1044F0001A434A6090F82810090606D50168C26C74
:10450000486820F400201043486070472DE9F843C4
:1045100000250446C0F89050FCF78EFB80462068CA
:1045200020266FF07E470068000713D5002243461F
:1045300031042046009700F03FFA58B1216851E855
:10454000000F20F0800041E80002002AF6D1C4F8F4
:10455000886021E020680068400722D50022434699
:104560004FF480012046009700F026FAC8B1206879
:1045700050E8001F21F4907140E80012002AF6D1A3
:104580002068083050E8001F21F0010140E80012C7
:10459000002AF5D1C4F88C60032084F88450BDE86B
:1045A000F883C4F88860C4F88C60E566256700204D
:1045B00084F88450F3E7000010B5026852E8001F49
:1045C00021F4907142E80013002BF6D10E4B0268E3
:1045D000083252E8001F194042E80014002CF6D1BE
:1045E000C16E012908D1026852E8001F21F01001B4
:1045F00042E80013002BF6D100212022C0F88C20C5
:10460000C166416710BD0000FEFFFFEF2DE9F043DA
:1046100004468068D84E87B0D84B2168D4E9042777
:10462000D4F81CC010430A68002547EA0C07384339
:10463000324002430A602068E268416821F4405138
:10464000114341602268A1699A4201D0206A014366
:104650009768DFF82CC3CB4ECB4807EA0C070F4313
:1046600097602168676ACA6A22F00F023A43CA62F9
:104670002268B2420ED1006800F03800182873D0CA
:1046800047DCB8B3082879D010286FD178E0282803
:104690007ED17BE0BD498A4209D1006800F0070065
:1046A000062875D2DFE800F0546A6C6E7072B84963
:1046B0008A4209D1006800F00700062868D2DFE8C6
:1046C00000F0475D5F616365B2498A4209D10068C5
:1046D00000F0070006285BD2DFE800F03A505254A1
:1046E0005658AD498A420BD1006800F007000628F1
:1046F0004ED200E010E0DFE800F02B41434547498F
:10470000A6498A420AD1006800F03800182839D03A
:10471000B7DD2028BBD13CE001203AE0A0498A4225
:1047200009D1006800F00700062831D2DFE800F068
:104730001026282A2C2E9B498A420BD1006800F0B3
:104740000700062824D2DFE800F003191B1D1F21F3
:1047500000201EE09A421BD18B48001D006800F02B
:104760000700062814D202E00CE007E010E0DFE8C2
:1047700000F0030507090B0D02200AE0042008E001
:10478000082006E0102004E0202002E0402000E0A5
:1047900080208549DFF814829A42854A4FF400430D
:1047A0004FEA21174FF000064ED110281AD006DC30
:1047B000022809D004280BD008287CD10DE020283D
:1047C0003ED0402877D13DE0FDF7D4F9014610E016
:1047D0006846FDF7E1F901990BE003A8FDF77EFAC1
:1047E000049906E01068800605D51068C0F3C10082
:1047F000C140002970D0606A676838F8102007EB64
:104800004703B1FBF2F0834255D8B0EB073F52D8D3
:10481000002308461946FBF75BFD02467808130E95
:10482000120243EA012110183A4671410023FBF7B6
:104830004FFD604AA0F5407191423CD821688FE05D
:104840003946D8E71946D6E7D4F81CC04FF6EF79B9
:104850009C4546D1082819D005DC58B101280CD058
:10486000042875D10DE0102815D0202835D0402817
:104870006ED134E0FEF7FAF801E0FEF709F90146DF
:1048800010E06846FDF788F901990BE003A8FDF7F1
:1048900025FA049906E01068800604D51068C0F374
:1048A000C100C140C1B1636A606838F81330B1FB20
:1048B000F3F1490000E04BE001EB5001B1FBF0F0F7
:1048C000A0F11001494543D84FF6F0732168C0F3B9
:1048D00042021840104343E043E03946E3E71946FB
:1048E000E1E7082819D005DC58B101280CD00428CC
:1048F0002ED10DE0102815D020282BD0402827D10C
:104900002AE0FEF7B3F801E0FEF7C2F8014610E036
:104910006846FDF741F901990BE003A8FDF7DEF9C0
:10492000049906E01068800604D51068C0F3C10041
:10493000C140B1B1636A606838F81330B1FBF3F17C
:1049400001EB5001B1FBF0F0A0F11001494505D990
:10495000012506E03946EDE71946EBE7216880B20C
:10496000C8600120A4F86A00A4F8680028466667B9
:10497000A66707B0BDE8F083F369FFCF000C0058CD
:10498000FFF4FF110010014054440258004400405D
:1049900000480040004C004000500040001401401E
:1049A00000780040007C00400090D0033C64000888
:1049B00000440258FFFC0F002DE9F04799461746C6
:1049C0000E460446089D4FF000082FE0681C2DD0CD
:1049D000FCF732F9A0EB0900A84214D89DB1206879
:1049E0000168490722D5C169C94309070DD40825C3
:1049F00005622046FFF7E0FDC4F89050012084F8DE
:104A00008480BDE8F0870320FBE7C069C043000550
:104A10000CD421684FF4006008622046FFF7CCFDFB
:104A20002021C4F8901084F88480ECE72068C069E5
:104A300036EA000004D00020B842C7D00020E0E7EA
:104A40000120F9E710B5D0F8B82200245268904749
:104A500000B10324204610BD00207047002070479D
:104A600013460A46002110B500F0C4F9002010BD1D
:104A700013460A46002110B500F05DFA002010BD73
:104A800010B58021044600F040FA2046BDE81040F1
:104A9000002100F03ABA10B50521C0F894120023A5
:104AA0001A46194600F0A6F9002010BD10B5826123
:104AB0000223C0F89432C26113460A46002100F076
:104AC0003AFA002010BD10B50421C0F8941200235A
:104AD0001A46194600F02FFA002010BDF8B504461A
:104AE0000D460020ADF800004888010A062947D08D
:104AF00006DC01290FD0022912D0032962D11DE062
:104B0000072946D00F295DD1D4F8B402C26920E04C
:104B1000694690473BE0D4F8B412207C0A68F7E776
:104B2000207C02260028D4F8B80205D0C16A684665
:104B300088470146467036E0816AF8E7C0B2062829
:104B400040D2DFE800F003090D111519D4F8B402C2
:104B50004268B2B3207CDBE7D4F8B4028268F8E79D
:104B6000D4F8B402C268F4E7D4F8B4020269F0E7FA
:104B7000D4F8B4024269ECE7D4F8B4028269E8E7F9
:104B8000207CF0B9D4F8B802416B684688470146EA
:104B900009E0207CA8B9D4F8B802016B68468847C0
:104BA000014607204870EA888AB1BDF8000040B18C
:104BB000824200D902462046ADF80020FFF776FF7A
:104BC000F8BDFFE729462046FFF75AFFF8E72046E1
:104BD000FFF779FFF4E701004FF0000004D001294E
:104BE00001D0022901D0032070470120704710B581
:104BF000D0F8C802FCF7E7F8BDE81040FFF7EBBFBC
:104C00002DE9F041174604464FF0000521B194F814
:104C10009C02032842D04CE0D4F8941204F1140012
:104C2000022935D1D0E902639E4206D9F21A3946EB
:104C300082602046FFF71CFF0FE0B34214D14068AA
:104C4000984211D3D4F8981288420DD200222046FF
:104C50001146FFF70DFFC4F8985200231A46194673
:104C6000204600F0C7F813E094F89C02032808D10E
:104C7000D4F8B802C16821B1C4F8D452C168204642
:104C800088478021204600F040F92046FFF703FFC7
:104C900094F8A00268B184F8A0520AE0D4F8B802EF
:104CA000426932B1C4F8D452426920469047002884
:104CB00000D10020BDE8F08170B5134604464FF0E6
:104CC000000221B194F89C02032830D03AE0D4F8D5
:104CD000941204F5AA70032934D1D0E902518D420F
:104CE0000AD96A1A82600846824200D302461946EF
:104CF0002046FFF7B5FE25E094F8AA0210F01F0049
:104D000003D0012802D0022800D0002294F89C028F
:104D1000032808D1D4F8B802016921B1C4F8D4221B
:104D20000169204688472046FFF7CDFE0AE0D4F807
:104D3000B802836933B1C4F8D4228269204690470F
:104D4000002800D1002070BD0020704710B5D0F8B9
:104D5000B812012280F89C22002429B103794A6804
:104D6000D9B2904700B10324204610BDD0F8C82224
:104D700001F07F000B0600EBC00002EB800002D5C3
:104D800090F83E00704790F87E02704710B5D0F85A
:104D9000D42200EB8202D2F8B82222B190F89C32E1
:104DA000032B02D004E0032010BD126A02B1904729
:104DB000002010BD10B5D0F8D42200EB8202D2F84A
:104DC000B82222B190F89C32032B02D004E00320D9
:104DD00010BD526A02B19047002010BD10B51C46AC
:104DE000D0F8C80213462246FCF71BF8BDE8104075
:104DF000FFF7F1BE10B5D0F8C802FCF742F8BDE8E5
:104E00001040FFF7E8BE2DE9F041044601250020DF
:104E1000D4F8B812064684F89C52C4F89402606034
:104E2000C4F8A40284F8A00231B14A6822B100217A
:104E30002046904700B10326204600224023114619
:104E4000FFF7CCFF4027A4F8645100223B468021A5
:104E50002046C4F86071FFF7C1FFA5843046276281
:104E6000BDE8F08190F89C12042903D190F89D12BE
:104E700080F89C120020704710B590F89C1203290E
:104E800005D1D0F8B81211B1C96901B18847002025
:104E900010BD01740020704710B5D0F8C802FCF7AF
:104EA00053FBBDE81040FFF796BE70B5044600F214
:104EB000AA20054600F048F894F8AA020123B4F8A5
:104EC000B01210F01F02C4F89432C4F898120AD03D
:104ED000012A0ED0022A12D000F080012046BDE83F
:104EE000704000F012B829462046BDE8704000F03E
:104EF000A9B829462046BDE8704000F0ECB9294623
:104F00002046BDE8704000F034B910B5D0F8C802B2
:104F1000FBF7D1FFBDE81040FFF75DBE90F89C1293
:104F2000042903D090F89C1280F89D12042180F887
:104F30009C120020704710B5D0F8C802FBF7F5FFAF
:104F4000BDE81040FFF747BE70B5054608788C1CD9
:104F50002870487868702046FFF761F9A41C6880C3
:104F60002046FFF75CF9A880A01CFFF758F9E880FD
:104F700070BDD0F8B83202460020002B02D01B686A
:104F800010461847704700002DE9F0412C4E0446AA
:104F9000887800258846C1B20129317006D941467A
:104FA0002046FFF76DFD0320BDE8F08194F89C02D8
:104FB000022702280CD003281DD041462046FFF7C7
:104FC0005FFD31782046FFF73DFD03252846EBE7DE
:104FD00089B320466160FFF7CCFF050004D041464D
:104FE0002046FFF74DFD1DE02046FFF76CFD032036
:104FF00084F89C02EAE7C1B1606888421BD0C1B264
:105000002046FFF71FFD317820466160FFF7B1FFB2
:10501000050010D041462046FFF732FD2179204699
:10502000FFF710FD84F89C72D0E7616084F89C72F1
:105030002046FFF707FD2046FFF745FDC6E70000C5
:105040001C0000242DE9F0410A784FF0000512F011
:1050500060020CD0202A01D0402A7DD1D0F8D42281
:1050600000EB8202D2F8B8229268904731E04B7888
:10507000002201260A2B6FD2DFE803F041666E584A
:105080006E08056E2D29FFF729FD67E00446888824
:10509000D8B9C888C8B94888802816D294F89C2204
:1050A00000F07F07032A10D03946204684F89E720C
:1050B000FFF7F2FE2046FFF706FD1FB1022084F83D
:1050C0009C024BE084F89C6248E0204644E0FFF7F5
:1050D0005BFF054642E0CB88012B3DD190F89C3226
:1050E000012B04D0022B02D0032B35D104E000F1B8
:1050F00008018260012216E00122011D13E090F8F0
:105100009C22012A03D0022A01D0032A24D1CA8872
:10511000022A21D1D0F8A412C66009B10321C160CE
:10512000022200F10C01FFF7C1FC17E04A88012AB6
:1051300002D0022A03D00FE0C0F8A46216E08988EA
:10514000090A80F8A01211E090F89C32012B08D0D7
:10515000022B06D0032B04D0FFF792FC2846BDE8B3
:10516000F08149880129F9D1C0F8A422FFF7ABFCEE
:10517000F4E72DE9F0410A780E460979054612F068
:1051800060004FF00008CCB20BD0202801D040289E
:105190006AD121462846FFF75FFCFF2800D0D8B32C
:1051A00096E07078C8B3012824D003285CD195F824
:1051B0009C02022802D0032856D10CE0002C53D0C8
:1051C000802C51D021462846FFF79FFE802128469B
:1051D000FFF79BFE7CE0708840B93CB1802C05D085
:1051E000F08818B921462846FFF78FFE2846FFF7BA
:1051F0006AFC6DE095F89C020228DFD0032863D199
:10520000708880BB600603D021462846FFF7EFFC7C
:105210002846FFF758FCBCE700E00AE0C5F8D402D6
:10522000D5F8B8028268F2B13146284690478046E8
:105230004EE095F89C020027022802D0032843D1B3
:1052400013E00CB1802C3FD1200604F07F0000EB6E
:10525000800005EB800101D5143101E001F5AA7150
:1052600002220F602CE033E02EE0200604F00F0055
:1052700000EB800005EB800009D5808C20B304F0A2
:105280007F0000EB800005EB800614360AE0B0F8E2
:105290006401C8B104F07F0000EB800005EB8006DC
:1052A00006F5AA764CB1802C07D021462846FFF798
:1052B0005DFD10B10120306000E037600222314610
:1052C0002846FFF7F3FB03E031462846FFF7D8FBFB
:1052D0004046BDE8F08170B5054608780E464FF0AF
:1052E000000410F0600003D0202801D0402827D10E
:1052F00095F89C02012803D0022801D003281FD171
:10530000B088C1B201291AD8C1B22846FFF7A6FB5E
:10531000FF280CD058B9D5F8B8128A683AB1C5F848
:10532000D40228468A6831469047044600E00324A8
:10533000F088204307D12846FFF7C5FB03E031463C
:105340002846FFF79DFB204670BD000070B54D78E4
:1053500001230A78012D1C4C02F00F0503FA05F316
:10536000D0F81C5817D000EB421245EA0343C0F8AE
:105370001C38D2F8000B00040BD40B890979D2F841
:10538000000BC3F30A03184344EA81410843C2F8FF
:10539000000B002070BD9EB23543C0F81C5800EBD6
:1053A0004213D3F800090004F3D40D890979D3F826
:1053B0000009C5F30A058904284341EA82510843DC
:1053C0002043C3F80009E4E700800010D0F800197A
:1053D0006FF30A01C0F80019D0F8041841F4807185
:1053E000C0F804180020704710B5144C036CA34299
:1053F00003D9D0F8003B002B1EDB0023C0F8103B84
:105400000129D0F8101B41F40021C0F8101BD0F87E
:10541000101B41F01801C0F8101BD0F8101B41F010
:10542000C041C0F8101B07D1C0F8142BD0F8001BE6
:1054300041F08021C0F8001B002010BD0A30544FFD
:105440000B784A78012A00EB43100BD0D0F8002BE0
:1054500022F40012C0F8002B0979032914D0022984
:1054600012D017E0D0F8002922F40012C0F8002969
:105470000979032901D002290CD1D0F8001941F093
:105480008051C0F8001905E0D0F8001B41F08051B0
:10549000C0F8001B002070470A784B78D1B2012B6E
:1054A00000EB421012D0D0F8002B002A06DB29B105
:1054B000D0F8001B21F08041C0F8001BD0F8001B81
:1054C00041F40011C0F8001B00207047D0F80029FB
:1054D000002A06DB29B1D0F8001921F08041C0F87C
:1054E0000019D0F8001941F40011C0F80019EBE7D9
:1054F000F8B50B786FF060464F788A4DDCB2012F1B
:1055000000EB43132BD0D3F8107B002C07EAC544E3
:10551000C3F8104BD3F8104B04EA0504C3F8104B42
:105520007ED00D69002D7CD08C6825446D1EB5FBA6
:10553000F4F5ADB26C430C6206EAC545D3F8104BE6
:105540002C43C3F8104BD3F8104B0D6AC5F312056A
:1055500054EA0504C3F8104B012A6ED0C9E00F6964
:1055600037B3D3F810796FF31207C3F81079D3F873
:10557000107907EA0507C3F810794CB30F698D68F5
:10558000D3F810C92F447F1EB7FBF5F506EAC545D1
:1055900045EA0C05C3F810590E69D3F81059C6F343
:1055A00012063543C3F810590D79012D1CD027E0A0
:1055B000D3F810692E40C3F81069D3F8105945F498
:1055C0000025C3F81059D3F810596FF3120515E0F0
:1055D0000E698D68AE4200D90D61D0F8106946F4AD
:1055E0000026C0F81069D7E7D3F8105925F0C04558
:1055F000C3F81059D3F8105945F00055C3F81059A5
:10560000012A1BD000EB4413D3F8004944F00444B2
:10561000C3F800490C79012C31D00A6972B301E05A
:1056200042E055E00B78D0F83418012203F00F0364
:105630009A401143C0F8341871E056E0CA691AB1B3
:1056400000EB4413C3F81429097901290ED1D0F8CD
:105650000818C90500EB4411D1F8002902D442F022
:10566000005201E042F08052C1F8002900EB4410E2
:10567000D0F8001941F00441C0F800194FE0D0F80B
:105680000848E405D3F8004902D444F0005401E08E
:1056900044F08054C3F8004900920B8A0A78C96824
:1056A0009BB200F093F93AE00C690CB18C680C6184
:1056B0008C680C62C4F31205D0F8104B2C43C0F870
:1056C000104BD0F8104B44F40024C0F8104B43E7C3
:1056D0008D68D3F8104BC5F312052C43C3F8104B5B
:1056E000D3F8104B44F4002434E7CA680AB1C3F875
:1056F000142B097901290CD1D0F80808C005D3F87A
:10570000000B02D440F0005001E040F08050C3F89C
:10571000000BD3F8000B40F00440C3F8000B00204E
:10572000F8BD0000FFFF07E038B5002242F2107418
:10573000002300920A784D78012D00EB421219D017
:10574000D2F8005B002D3CDAD2F8005B45F0006532
:10575000C2F8005B0A7800EB4212D2F8005B45F019
:105760008045C2F8005B009A521C0092A24221D9E7
:10577000012326E0D2F80059002D22DAD2F8005990
:1057800045F00065C2F800590A7800EB4212D2F8E1
:10579000005945F08045C2F80059009A521C009209
:1057A000A242E5D80A7800EB4212D2F80029002A7A
:1057B000F3DB06E00A7800EB4212D2F8002B002A55
:1057C000D1DB184638BD000018B50E4A00230093FF
:1057D000009C641C009494420CD80469002CF7DAF5
:1057E0002024009344EA811101610099491C009131
:1057F000914201D9032018BD01698906F5D4002022
:1058000018BD0000400D0300D0F8080810F0060095
:1058100004D0022803D0062801D00F2070470220B0
:105820007047406900F001007047D0F81818D0F8B0
:105830001C08084080B27047D0F81818D0F81C082F
:105840000840000C704710B5D0F8102801F00F0385
:1058500000EB4114D0F83418D4F80809D94001F00D
:10586000010142EAC111084010BD00EB4111D1F81D
:10587000081BD0F814080840704741698069084047
:1058800070470346084630B5940802F00301002231
:1058900003F5805303E01D68521C40F8045BA242EC
:1058A000F9D300290CD01C680023491EDD0009042F
:1058B00003F10103090C24FA05F200F8012BF4D1DD
:1058C00030BDD0F800284FF4FE6303EA011322F440
:1058D000FE62C0F80028D0F800181943C0F800187C
:1058E00000207047022A3ED1264A274B0A449A429A
:1058F00001D20F2138E0254A254B0A449A4201D2B1
:105900000E2131E0234A244B0A449A4201D20D2150
:105910002AE0224A224B0A449A4201D20C2123E077
:10592000204B214A0B44934201D20B211CE01F4B18
:105930001F4A0B44934201D20A2115E01D4B1E4A17
:105940000B4493420FD31D4B1D4A0B44934201D28B
:10595000082109E01B4B1C4A1944914201D207213E
:1059600002E0062100E00921C2684FF4705322F4DE
:105970007052C26003EA8123C1681943C1600020EC
:1059800070470000405327FF00350C00401E1BFFEE
:1059900040420F0000DC0BFF804F1200808CF9FEAC
:1059A00020D6130060B6E5FE60E3160000D3CEFEFD
:1059B00040771B00C05BB3FEC091210000CA91FE7E
:1059C00020753800E05459FEE09C410010B5029C5F
:1059D00074B900EB0232DB1C00209B0802F58052F8
:1059E00004E000BF51F8044B1460401C9842F9D306
:1059F000002010BDFEE700000FB4054B10B503A951
:105A0000044A029800F0EAF810BC5DF814FB0000AC
:105A10000D63000820000024090700284FEA1161E7
:105A200004DB00F1E02080F80014704700F00F0064
:105A300000F1E02080F8141D704702E008C8121F32
:105A400008C1002AFAD170477047002001E001C167
:105A5000121F002AFBD170472DE9FF5F82B00021A1
:105A6000DDE90430020DDDF840B0034318D044F600
:105A70001050A2F2FF3242431514119801281FD092
:105A8000A5EB0B00401C5FEA000A4FF000064E4FEA
:105A9000DFF83891B046504615D5CAF1000413E03E
:105AA000119801244AA3012801D16FEA0B01029841
:105AB000119AC0E90031C0E9024206B0BDE8F09F8A
:105AC000CBF10000DFE704460021404A491842EBD1
:105AD0000450CDE9001012E0E00707D032463B4603
:105AE00040464946FAF725FD8046894632463B4600
:105AF00010461946FAF71DFD06460F466410002CA5
:105B0000EAD1DDE90401DDE90023BAF1000F06DA8C
:105B1000FAF70FFD42464B46FAF70BFD05E0FAF7A0
:105B20007AFD42464B46FAF776FD04460E460022C1
:105B3000284BFAF7F7FD03D84FF0FF30014607E096
:105B40000022254B20463146FAF74CFCFAF7D2FDED
:105B5000102409E0002C0ADB0A220023FAF7B8FB24
:105B6000039B30321A55641E50EA0102F2D1641CC4
:105B7000039AC4F111031444119A012A03D001229B
:105B800008430DD10AE0084304D000204FF0110B68
:105B9000119072E7A3EB0B056D1E0DE05B4504DD74
:105BA0004FF0000205F1010504E003DA4FF00002B6
:105BB000A5F10105002AECD002981199C0E9023143
:105BC000C0E9004579E70000000014400000F03F04
:105BD000300000000000F0430000E03F2DE9FF4FDF
:105BE00095B09B468946064600250FE2252877D1C9
:105BF00000242746F84A0121059400E0044316F8E2
:105C0000013F203B01FA03F01042F7D130782A28F7
:105C100011D06FF02F033078A0F13002092A16D886
:105C2000059A44F0020402EB820203EB42021044A4
:105C3000761C0590EFE759F8042B0592002A03DA49
:105C4000504244F40054059044F00204761C30782D
:105C50002E2816D116F8010F44F004042A280DD07E
:105C60006FF02F023078A0F13003092B09D807EB31
:105C7000870302EB4303C718761CF3E759F8047B4C
:105C8000761C30786C280FD006DC4C2817D068289A
:105C90000DD06A2814D104E0742810D07A280FD1CE
:105CA0000DE044F400140AE044F4801401E044F4EC
:105CB00040147278824202D104F58014761C761C5E
:105CC000307866280BD013DC582877D009DC002800
:105CD00075D04528F6D04628F4D047281AD19DE142
:105CE00018E0632835D0642879D0652812D195E171
:105CF000702873D008DC6728F1D069286FD06E282F
:105D00000DD06F2806D1B5E073282CD0752875D03A
:105D1000782874D05A46179990476D1C75E1C4F3E2
:105D20000250022809D003280DD0D9F80010042809
:105D30000DD00D6009F1040967E1D9F80010EA17E8
:105D4000C1E90052F6E7D9F800100D80F2E70D70B6
:105D5000F0E719F8041B8DF8001000208DF8010001
:105D6000EA46012003E059F804AB4FF0FF30610729
:105D70004FF0000102D40DE008F101018846B9425C
:105D80000FDA8045F8DB1AF808100029F4D108E092
:105D900008F1010188468142FADB1AF8081000294F
:105DA000F6D105985B46A0EB080721463846179ABE
:105DB00000F094FA284400EB080507E04DE029E1E3
:105DC0000DE01AF8010B5A4617999047B8F10108EF
:105DD000F7D25B4621463846179A13E142E00A2281
:105DE0000092C4F302524FF0000A022A08D059F878
:105DF00004CB032A4FEAEC710AD00DE029E02AE037
:105E000009F1070121F00702F2E802C1914609E019
:105E10000FFA8CFC4FEAEC71042A03D14FFA8CFC88
:105E20004FEAEC71002907DA0A460021DCF1000C88
:105E300061EB02012D2202E0220504D52B228DF810
:105E40000420012203E0E20701D02022F7E7904678
:105E500059E00A2102E010220DE010214FF0000A63
:105E600000910BE010224FF0000A44F004040827D0
:105E7000009203E008224FF0000A0092C4F302529D
:105E8000022A05D059F804CB0021032A08D009E0E2
:105E900009F1070121F00702F2E802C1914605E08D
:105EA0001FFA8CFC042A01D10CF0FF0C4FF0000803
:105EB000220728D5702806D0009B83F0100353EAF0
:105EC0000A0305D00EE040228DF80420012208E0EC
:105ED0005CEA010206D030228DF804208DF805001E
:105EE00002229046009B83F0080353EA0A030AD17A
:105EF0005CEA010201D1620705D530228DF8042049
:105F00004FF001087F1E582804D034A003900EA83B
:105F100002900DE036A0F9E753466046009AFAF782
:105F2000D7F984460398825C0298401E0290027062
:105F30005CEA0100F0D1029806A9081A00F1200AD3
:105F4000600702D524F4803400E00127574502DDC4
:105F5000A7EB0A0000E0002000EB0A010090059882
:105F60004144401A0590E00306D45B462146179A47
:105F7000059800F0B3F90544002706E001A85A4649
:105F8000C05D179990476D1C7F1C4745F6DBE00309
:105F90000CD55B462146179A059800F09FF90544F9
:105FA00004E030205A46179990476D1C0099481E0E
:105FB00000900029F5DC08E0029802995A46007822
:105FC000491C0291179990476D1CBAF10001AAF182
:105FD000010AF1DC65E100000928010030313233AB
:105FE0003435363738396162636465660000000015
:105FF00030313233343536373839414243444546FF
:106000000000000000F058F90544761C30780028A4
:106010007FF4ECAD19B02846BDE8F08F620700D4DC
:10602000062709F1070222F0070CFCE80223E146EB
:1060300003F000485FEA080C02D00FF2702C0DE06C
:106040005FEA045C02D50FF2682C07E05FEAC47CCB
:1060500002D00FF2602C01E0AFF2700C4FF0FF386D
:1060600023F00043CDF850C065280CD006DC45284D
:1060700009D046281DD047283DD13DE0662818D0DC
:1060800067287ED138E00021112F01DB112000E0CC
:10609000781CCDE9000106A90EA8FFF7DDFCDDE9BB
:1060A0000F010E9A03910021009207F1010A049159
:1060B0004DE04FF000400097CDE9011006A90EA871
:1060C000FFF7CAFCDDE90F0203920E9B1199002233
:1060D000DDF80CA00093049211B9791C00EB010AC1
:1060E000B7EB0A0004D4C0F1FF3007F1010A0490B5
:1060F000AAEB0700019044E0012F00DA01270021FC
:10610000112F01DD112000E03846CDE9000106A97C
:106110000EA8FFF7A1FCDDE90F010E9A0391002103
:1061200004910092BA4621070CD40399514500DA34
:106130008A46BAF1010F05DD009AAAF10101515C0E
:10614000302908D0B84202DA10F1040F06DA012132
:10615000CDE9011015E0AAF10101E9E7002805DC0D
:10616000049901440491AAEB000102E0411C51454D
:1061700000DD8A460499401A401C01904FF000400F
:106180000290200704D40198504501DBCDF804802B
:1061900000208DF84F0002980DF14F07B0F1004F2D
:1061A00025D02B200E9002984FF0020800280CDA20
:1061B000404202902D200E9007E00A210298FAF743
:1061C000DCF83031029007F8011DB8F10001A8F1A8
:1061D0000108F2DC02980028EFD1791E0E980870B1
:1061E000307800F0200040F0450007F8020D12A8BA
:1061F000C01B00F107081498007800B1012000EBE3
:106200000A01019801EBE07105984144401A401ED3
:106210000590E00306D45B462146179A059800F0E6
:106220005DF805441498007818B15A4617999047BC
:106230006D1CE00324D55B462146179A059800F0B3
:106240004DF805441CE00498002807DBDDE9030154
:10625000884203DD0098405C179901E017993020CF
:106260005A469047049805F10105401C0490019896
:10627000401E019004D12E205A46179990476D1C5C
:10628000BAF10001AAF1010ADDDC05E017F8010B03
:106290005A46179990476D1CB8F10001A8F1010802
:1062A000F4DC5B462146179A0598ABE62D0000000A
:1062B0002B000000200000002DE9F04104460025DD
:1062C0001E461746880404D405E039462020B0470E
:1062D0006D1C641EF9D52846BDE8F0812DE9F0411A
:1062E000044600251E469046C80301D5302700E02D
:1062F0002027880404D505E041463846B0476D1C88
:10630000641EF9D52846BDE8F081000013B50448A5
:10631000642301226946FDF725F800981CBD0000A2
:1063200070000124354B00201968890311D4BFF394
:106330004F8FBFF36F8F32490860BFF34F8FBFF3AA
:106340006F8F196841F400311960BFF34F8FBFF3AD
:106350006F8F1968C90322D4284970310860BFF3D0
:106360004F8F081F43F6FF740068254D1035C0F3AA
:106370004E31C0F3C90204EA4116104646EA80775E
:106380002F60401EFAD2491EF5D2BFF34F8F186816
:1063900040F480301860BFF34F8FBFF36F8FFAF770
:1063A00059FCFDF743FFFDF737F8FDF7A7F8FDF7B8
:1063B000C3FAFDF779FB134C4FF400564FF47A758E
:1063C00011A0FFF719FB002231462046FAF728FCFE
:1063D0002846FAF745FA012231462046FAF720FC12
:1063E0002846FAF73DFA0BA0FFF706FB0DA0FFF7D2
:1063F00003FB2846FAF734FAE2E7000014ED00E068
:1064000050EF00E00008025872756EA3A1A3A10D21
:106410000A0000004D616B657242617365200D0AD0
:10642000000000007777772E67656E626F74746581
:10643000722E636F6D200D0A000000000100020043
:106440000400060008000A000C00100020004000B4
:10645000800000010101010307010000080402049B
:10646000080101010000000001020304010203040D
:10647000060708090D0A2A2A2A2A2A2A2A2A2A2A43
:106480002A2A2A2A2A2A2A2A2A2A2A2A2A2A2A2A6C
:106490002A2A2A2A2A2A2A2A2A2A2A2A2A2A2A2A5C
:1064A0002A2A2A2A2A2A2A2A2A2A2A2A2A2A2A2A4C
:1064B0002A2A2A2A2A2A2A2A2A2A2A2A2A2A2A2A3C
:1064C0002A2A2A2A2A2A2A2A2A2A2A2A2A2A2A2A2C
:1064D0002A2A2A2A2A2A2A2A2A2A2A0D0A000000D7
:1064E0000D0ABDD3CFC2C0B4B6C1C8A1D5FBC6ACDE
:1064F000666C617368B5C4CAFDBEDDD3C3D2D4B2C5
:10650000E2CAD4CBD9B6C8A3ACD5E2D1F9B5C3B3EE
:10651000F6B5C4CBD9B6C8CEF3B2EEB1C8BDCFD0B4
:10652000A10D0A000D0AC9CFC3E6B5C4B2E2CAD4B0
:10653000D6D0A3ACB6C1C8A1B5C4CAFDBEDDB1C832
:10654000BDCFD0A1A3ACBAC4CAB1BADCB6CCA3AC9F
:10655000BCD3D6AEB2E2C1BFB5C4D7EED0A1B5A50B
:10656000CEBBCEAA6D73A3ACBCC6CBE3B3F6B5C4A9
:10657000B6C1C8A1CBD9B6C8CEF3B2EEBDCFB4F385
:106580000D0A0000A465000800000024240000009B
:106590003A5A0008C8650008240000240C0C0100C9
:1065A0004A5A00080000000000000000010000003E
:1065B00010000000000000000090D0030090D00305
:0865C0000000000000000000D3
:040000050800029954
:00000001FF
