:020000040800F2
:10000000600C0124AD020008B3400008793F0008ED
:10001000B140000833090008C16B0008000000006F
:10002000000000000000000000000000C5530008B0
:1000300035090008000000002F420008D1530008D5
:10004000C7020008C7020008C7020008C70200086C
:10005000C7020008C7020008C7020008C70200085C
:10006000C7020008C7020008C7020008C70200084C
:10007000C7020008C7020008C7020008C70200083C
:10008000C7020008C7020008C7020008C70200082C
:10009000C7020008C7020008C7020008C70200081C
:1000A000C7020008C7020008C7020008C70200080C
:1000B000C7020008C7020008C7020008C7020008FC
:1000C000C7020008C7020008C7020008C7020008EC
:1000D000C7020008C7020008C7020008C7020008DC
:1000E000C7020008C702000800000000C70200089D
:1000F000C7020008C7020008C7020008C7020008BC
:10010000C702000871440008C7020008C7020008BF
:10011000C7020008C7020008C7020008C70200089B
:10012000C7020008C7020008C7020008C70200088B
:10013000C7020008C7020008C7020008C70200087B
:1001400000000000000000000000000000000000AF
:10015000C7020008C7020008C7020008C70200085B
:10016000C7020008C7020008C7020008C70200084B
:10017000C7020008C7020008C7020008C70200083B
:10018000C7020008C7020008C7020008C70200082B
:10019000C7020008C7020008C7020008C70200081B
:1001A000C7020008C7020008C7020008C70200080B
:1001B000C7020008C7020008C7020008C7020008FB
:1001C000C7020008C7020008C7020008C7020008EB
:1001D000C7020008B5400008C7020008C7020008AF
:1001E000C7020008C7020008C7020008C7020008CB
:1001F000C7020008C7020008C7020008C7020008BB
:10020000C7020008C7020008C7020008C7020008AA
:10021000C7020008C7020008C7020008C70200089A
:10022000C7020008C7020008C7020008000000005B
:10023000C7020008C702000800000000C70200084B
:10024000C7020008C7020008C7020008C70200086A
:10025000C7020008C7020008C7020008C70200085A
:10026000C7020008C7020008C7020008C70200084A
:10027000C7020008C7020008C7020008000000000B
:10028000C7020008C7020008C702000800000000FB
:1002900000000000C7020008DFF80CD000F048FAA8
:1002A00000480047F1740008600C012406488047AC
:1002B00006480047FEE7FEE7FEE7FEE7FEE7FEE74B
:1002C000FEE7FEE7FEE7FEE7F154000899020008AA
:1002D0002DE9F05F0546002092469B46884606467B
:1002E000814640241BE0284641464746224600F00E
:1002F00057F853465A46C01A914110D31146184632
:10030000224600F03EF82D1A67EB01084F462246C0
:100310000120002100F035F817EB00094E41201EA6
:10032000A4F10104DFDC484631462A464346BDE8D5
:10033000F09FD2B201E000F8012B491EFBD27047BA
:100340000022F6E710B513460A4604461946FFF7A1
:10035000F0FF204610BD30B50B460146002020229C
:10036000012409E021FA02F59D4205D303FA02F5C2
:10037000491B04FA02F52844151EA2F10102F1DC22
:1003800030BD202A04DB203A00FA02F10020704739
:100390009140C2F1200320FA03F3194390407047C3
:1003A000202A04DB203A21FA02F00021704721FACA
:1003B00002F3D040C2F12002914008431946704731
:1003C0002DE9FE4F804681EA0300C00F0C460090E5
:1003D00021F0004123F00045B8EB0200A94105D20D
:1003E0004046214690461C460B46024623F00040FC
:1003F000104347D0270DC7F30A00C3F30A510290F8
:10040000401A019040286BDAC3F3130040F4801BBC
:100410000098924620B10023D2EB030A63EB0B0B4A
:1004200001985946C0F140025046FFF7AAFF064620
:100430000D4650465946019A00F08CF910EB080021
:100440006141002487EA115284EAE7731A4340D0DD
:10045000009A62B3019A012A4FEA075215DC001B89
:1004600061EB02014FF0004202EA0752CDE900427F
:10047000001C41F5801132462B4600F08CF903B088
:10048000BDE8F08F40462146F9E7001B61EB020111
:10049000001C41F5801300185B412018A2F50017DD
:1004A00047EB030140EAD570B6196D4111E06D08C4
:1004B0004FEA360645EAC0754FEA0752001B61EB6A
:1004C0000201001C41F5801149084FEA3000001973
:1004D000514132462B4603B0BDE8F04F00F04CB915
:1004E0000098012240000023D0EB020263EBE0738E
:1004F000009821464FEAE074B8EB000061EB04017C
:10050000E9E783F000435BE781F0004158E72DE91C
:10051000FE4F81EA030404F0004421F000410094FE
:100520004FF0000B23F0004350EA01045ED052EA82
:1005300003045BD0C3F30A54C1F30A552C44A4F25C
:10054000F3340194A0FB0254C1F3130141F4801170
:10055000C3F3130343F4801301FB024400FB034E77
:10056000840A970A44EA815447EA8357A4FB076840
:1005700002958D0A05FB07854FEA932C04FB0C546A
:100580002705029D4FEA065847EA1637B5EB0805DE
:100590006EEB070C870E920E47EA811742EA831230
:1005A000A7FB0201B6EB0B0164EB00042B0D43EA41
:1005B0000C335E1844EB1C50DA465146E7FB02014F
:1005C000C5F313044FEA0B3343EA14534FEA0432E2
:1005D000019C43EA0603A4F10C040294009CCDE9BB
:1005E00000B400F0D8F803B0BDE8F08F0020014659
:1005F000F9E72DE9F04D81EA030404F0004B21F006
:10060000004514464FF0000A23F0004150EA05026D
:1006100020D054EA01021DD0C5F30A570246C5F3A3
:100620001303C1F31300C1F30A5640F4801543F4D9
:100630008013A7EB0608101BD64608F2FD3873EBB3
:10064000050002D308F1010801E092185B41B8F1FE
:10065000000F03DA00200146BDE8F08D00204FF4C2
:100660008011064684460EE0171B73EB050705D381
:10067000121B63EB050306434CEA010C49084FEAE1
:10068000300092185B4150EA0107EDD152EA0300B5
:1006900012D082EA040083EA0501084305D0101B4A
:1006A000AB4106D20122002306E000224FF00043B6
:1006B00002E06FF0010253101AEB06004CEB0851F8
:1006C00010EB0A0041EB0B01BDE8F04D00F054B80F
:1006D000C1F30A52C1F3130140F2FF3341F4801118
:1006E0009A4202DA00200146704740F233439A42B0
:1006F000A2F2334202DC5242FFF752BEFFF741BE84
:1007000030B5041E71F1000404DB4FF00044404298
:1007100064EB0101141E73F1000405DB1C464FF06D
:100720000043524263EB0403994208BF904230BD3C
:10073000064C074D06E0E06840F0010394E807002E
:1007400098471034AC42F6D3FFF7AAFD5C76000858
:100750007C760008202A06DBCB17203A41FA02F00B
:1007600043EAE07306E041FA02F3D040C2F120020E
:10077000914008431946704710B5141E73F10004E8
:1007800008DA401C41F1000192185B411A4301D183
:1007900020F0010010BD2DE9F04D92469B4611B1AD
:1007A000B1FA81F202E0B0FA80F220329046FFF70F
:1007B000E8FD04460F4640EA0A0041EA0B015346B1
:1007C0005A46084313D0114653EA010019D0C8F124
:1007D00040025046FFF7E4FD05460E465046594696
:1007E0004246FFF7CEFD084305D0012004E0204635
:1007F0003946BDE8F08D0020054346EAE0762C43FB
:1008000037430A986305E40AA0EB08000022FD0ABA
:1008100044EA47540A3002D500200146E9E70105C1
:1008200010196941DDE9084500196941BDE8F04D3D
:10083000A2E7000010B54FF0000408B1A41E06E0C6
:1008400004480A4402F0DAFC08B16FF003042046C1
:1008500010BD0000200001240649C0EB401010B577
:1008600001EB800002F00CFE042801D0012010BD35
:10087000002010BD2000012470B54FF0000508B124
:10088000AD1E1CE000F020F8012802D06FF0060534
:1008900015E00C4C204604F0C7FA204603F0BEFBDE
:1008A0006FF0030628B94FF48041204602F0E2FBC6
:1008B00008B1354603E00221204602F079FB2846C4
:1008C00070BD00002000012410B16FF001007047DE
:1008D0000120704738B564254FF00004002803FB61
:1008E00005F001D0A41E06E00090044803F00AF8C9
:1008F00008B16FF00304204638BD00002000012439
:100900007047000038B564254FF00004002803FB51
:1009100005F001D0A41E06E00090044803F0ECF8B6
:1009200008B16FF00304204638BD00002000012408
:100930007047FEE7704772B6FEE7000070B50446E8
:1009400000F030F90546601C02D0044800780444E9
:1009500000F028F9401BA042FAD370BD0400002427
:100960002DE9F84F03247D4D00234FF001094FF08E
:10097000B04B4FF00F0AE9E009FA03F73A4076D09E
:100980000E7906F00306012E01D0022E18D1D0F800
:1009900008C04FEA430ECE6804FA0EF82CEA080CA1
:1009A00006FA0EF646EA0C068660D0F804C00E7908
:1009B0002CEA070CC6F300169E4046EA0C06466079
:1009C0000E79F643B6070BD0C6684FEA43088F6826
:1009D00004FA08FC26EA0C0607FA08F73743C76052
:1009E0000E7906F00306022E12D1DE080F694FEAD7
:1009F000437C00EB8606B646366A4FEADC6C0AFAA0
:100A00000CF807FA0CF726EA08063743CEF82070F0
:100A10000F7906684FEA430807F0030704FA08FC59
:100A200007FA08F726EA0C06374307604E6816F403
:100A3000403F1CD04A4E376847F00207376036689F
:100A40009F0706F00206009623F0030606F1B04663
:100A5000B6463F0FD6F80864DFF808810AFA07FCAB
:100A6000404526EA0C0603D14FF0000C41E06CE053
:100A7000DFF8F4C0604502D14FF0010C39E0DFF837
:100A8000ECC0604502D14FF0020C32E0DFF8E0C06C
:100A9000604502D14FF0030C2BE0DFF8D8C0604571
:100AA00002D14FF0040C24E0DFF8CCC0604502D145
:100AB0004FF0050C1DE0DFF8C4C0604502D14FF0D7
:100AC000060C16E0DFF8B8C0604502D14FF0070C05
:100AD0000FE0DFF8B0C0604502D14FF0080C08E02D
:100AE000DFF8A4C0604502D14FF0090C01E04FF0DF
:100AF0000A0C0CFA07FC4CEA060CCEF808C44F6846
:100B0000DBF80060FF0226EA020600D516435F46C6
:100B1000CBF80060D1F804C0DBF804605FEA8C2CED
:100B200026EA020600D516437E606E684F6826EA04
:100B30000206BF0300D516436E602E684F6826EA92
:100B40000206FF0300D516432E605B1C0A6832FACA
:100B500003F67FF411AFBDE8F88F00008000005865
:100B6000F4440258000002580004025800080258D9
:100B7000000C0258001002580014025800180258C5
:100B8000001C025800200258002402580AB181615A
:100B900070470904FBE7000001480068000C70473B
:100BA0000010005C014880687047000004000024C9
:100BB0000248816802781144816070470400002473
:100BC000032010B500F086F801F090FE0F4A10499E
:100BD00014681368C4F3032203F00F038A5CC95C32
:100BE00002F01F0201F01F01D0400A4A20FA01F171
:100BF0001160094908600F2000F010F808B10120C9
:100C000010BD00F02BF8002010BD00001844025861
:100C10004C760008140000241000002470B50D4D1F
:100C200004462878A0B14FF47A71B1FBF0F00A497C
:100C30000968B1FBF0F003F04DF848B9102C07D269
:100C400000222146501E00F025F800206C6070BD87
:100C5000012070BD0400002410000024054808B5E0
:100C6000016841F002010160006800F0020000909C
:100C700008BD0000F4440258002809DB410900F0D7
:100C80001F028900012001F1E0219040C1F800011C
:100C9000704700000E4BF0B41B680D46C3F30223EF
:100CA000C3F10706042E00D90426191D072901D215
:100CB000002300E0DB1E012404FA06F19C40491EDB
:100CC0002940641E994014402143F0BC05F08ABFBE
:100CD0000CED00E0064900F0070210B54FF6FF04E6
:100CE0000868044B204040EA02201843086010BD09
:100CF0000CED00E00000FA057047D0F8080505F09B
:100D000009B901EBC10200EB8202D0F80805926C30
:100D100005F05CB801EBC10200EB8202D0F80805D7
:100D2000D2F8882205F0AEB8D0F8080505F0F4B87E
:100D30000A0601F00F0101EBC10100EB810101D5B1
:100D40003C3101E001F51F71006805F0D3BD70B5BD
:100D50004268044601F00F00904201D9012070BDA5
:100D600001F00F024FF000050B0602EBC2014FF03D
:100D7000010204EB810103D581F83D203C3103E001
:100D800081F87D5201F51F718D70087094F8BC04D4
:100D9000012808D084F8BC24206805F037FC002026
:100DA00084F8BC5470BD022070BD2DE9F04101F003
:100DB0000F0604460D064FF0010006EBC6014FF08A
:100DC000000504EB810103D581F83D003C3103E0CF
:100DD00081F87D5201F51F714F788A600B710E709A
:100DE00007B14E83022B00D14D7194F8BC24012A27
:100DF00009D084F8BC04206805F08EFB284684F8EE
:100E0000BC54BDE8F0810220FBE770B501F00F058E
:100E1000002405EBC50100EB810101F5227181E899
:100E20001C0001F80B4C01F80C5DC368012B00D1CC
:100E3000CA61027B006805F041FC002070BD70B5FE
:100E40000D464168044605F00F00884201D9012093
:100E500070BD29064FF000064FF0010207D500EBE8
:100E6000C00104EB810181F83D203C3107E005EB36
:100E7000C50104EB810181F87D6201F51F718A7063
:100E8000087094F8BC04012807D084F8BC242068BA
:100E900005F0E8FB280702D007E0022070BD217BA7
:100EA00004F2C442206805F085FB002084F8BC648D
:100EB00070BD70B501F00F04002504EBC4010126DC
:100EC00000EB8101483181E82C0001F80B6C01F83E
:100ED0000C4DC368012B00D1CA61027B006805F08C
:100EE000EDFB002070BD00002DE9FC5F05680446A5
:100EF000284605F07CFD00287ED1206805F0A3FD82
:100F0000002879D0D5F80808C0F30D20C4F8FC04F7
:100F1000206805F098FD800704D52068416901F03C
:100F200002014161206805F08EFDC10604F2C44053
:100F3000009034D52068816921F0100181612F6A09
:100F400007F00F01C7F3434001EBC101022804EB96
:100F5000810606F51F7602D0062811D01AE047F662
:100F6000F070074216D0C7F30A12F16817462846F8
:100F700005F06DFDF16870693944F160384408E0AE
:100F800000990822284605F062FD7069C7F30A112E
:100F9000084470612068816941F010018161206816
:100FA00005F051FD00034FF0000A4FF0020B4FF027
:100FB00001097CD52068002605F024FD074674E071
:100FC000F80770D02068F1B205F035FD8046C00703
:100FD00007D005EB4611C1F8089B3146204603F0C7
:100FE0006FF85FEA087025D505EB46110820C1F8B7
:100FF000080BFC49206800E042E2026C00EB46105E
:1010000001928A42D0F8081B05D9090403D54FF490
:101010000041C0F8081B204600F06EFAF149019823
:10102000884207D9E068012804D120680121009A8C
:1010300005F0C0FA5FEAC86004D505EB4611102040
:10104000C1F8080B5FEA88701CD56869000605D5F1
:10105000D5F8040840F48061C5F8041806EBC60012
:1010600004EB800090F87F1200F51F70012905D174
:1010700080F803A02046F1B200F008FA05EB461113
:10108000C1F808BB5FEA886004D505EB4611202053
:10109000C1F8080B5FEA884005D505EB46114FF40F
:1010A0000050C1F8080B7F08761C002F88D12068FB
:1010B00005F0C9FC40036FD5206805F09CFC0026B4
:1010C000074667E0F80763D02068F1B205F0A1FC9D
:1010D0008046C00723D0D5F8342806F00F0C05EB66
:1010E000461309FA0CF08243C5F83428C3F808996E
:1010F000E06801280FD106EBC60004EB8000D0E9C0
:1011000011121144816436B9E06C20B920680121C4
:10111000009A05F04FFA2046F1B2FFF7F2FD5FEAC0
:10112000087004D505EB46110820C1F808095FEAEC
:10113000C86004D505EB46111020C1F808095FEA24
:10114000486004D505EB46114020C1F808095FEA64
:10115000887016D53146284605F01CFC06EBC60003
:1011600004EB800090F83F103C30012905D180F855
:1011700003A02046F1B200F085F905EB4611C1F855
:1011800008B95FEA086003D53146204602F0FEFF49
:101190007F08761C002F95D1206805F054FC0028AC
:1011A00011DAD5F8040820F00101C5F8041894F804
:1011B000F40401283BD0204600F082F92068416900
:1011C00001F000414161206805F03DFC00050BD5B0
:1011D000D5F80808C00702D0204600F095F920682D
:1011E000416901F400614161206805F02CFC0001B7
:1011F0000AD52068416901F00061416194F8F40466
:10120000E0B1204600F080F9206805F01CFCC00425
:1012100072D5D5F8040820F00101C5F8041820683B
:10122000102105F0B7FB00214FF67F322DE00021A1
:10123000204684F8F4A4FFF75FFDBFE784F8F49438
:101240002068406D0121C0F38300C4F8F8042046F3
:10125000FFF752FDD8E700BF05EB4110C0F80829A1
:10126000D0F8003923F40013C0F80039C0F8082B77
:10127000D0F8003B23F40013C0F8003BD0F8003B4B
:1012800043F00063C0F8003B491C60688842E3D823
:10129000D5F81C0840F00111C5F81C18206B68B186
:1012A000D5F8840840F00B01C5F88418D5F8440837
:1012B00040F00B012846C5F844180DE0D5F8140895
:1012C00042F22B010843C5F81408D5F8100840F085
:1012D0000B012846C5F81018D0F8000820F4FE616C
:1012E000C5F80018217B2068009A05F063F9206892
:1012F000416901F480514161206805F0A4FB80043C
:1013000017D5206805F048F9206805F063FB2061D7
:1013100001F0A6FA217C2368CAB20146184605F0FE
:10132000C7FB204600F0B6F82068416901F400517F
:101330004161206805F087FB000707D5204600F0D3
:10134000C3F82068416901F008014161206805F097
:101350007AFB000616D5A869012620F08001A96154
:101360000DE000BF06EBC60004EB800090F87F02A2
:10137000012803D12046F1B2FFF7DAFC761C606841
:10138000B042EFD8206805F05EFBC00221D50126EF
:101390004F4616E006EBC60105EB461004EB810153
:1013A000D0F8000991F84020012A09D1002807DA75
:1013B000F0B281F83F7040F080012046FFF7B8FCA2
:1013C000761C6068B042E5D82068416901F480115C
:1013D0004161206805F037FB800234D501204B467F
:1013E00029E000000A30544F00EBC00205EB401129
:1013F00004EB8202D1F8001B92F88062012E19D111
:10140000002917DA94F8FC6401F4803106F0010633
:10141000B1420FD182F87F32A96941F08002AA61FE
:101420006969090606D4D5F8040840F40070C5F8C7
:10143000040803E0401C61688142D5D820684169F6
:1014400001F400114161206805F0FDFA400007D564
:101450002046FFF752FC2068416901F0804141615C
:10146000206805F0F0FA40070AD52068456868074B
:1014700002D52046FFF758FC2068416829434160A7
:10148000BDE8FC9FD0F8080504F066BDD0F808055B
:1014900004F076BD70B504460069012570B10228DC
:1014A00001D0FFF748FAD4F80805294604F0D7FD23
:1014B000D4F80805BDE8704004F08BBD0025F2E7C4
:1014C000D0F8080504F0B4BDD0F8080504F0BABDA2
:1014D00010B5044690F8BC0401280BD0012084F814
:1014E000381084F8BC04206805F0D1FA002084F894
:1014F000BC0410BD022010BDD0F8082500F2C44184
:10150000104604F0B8BD000010B50446D0F8080538
:1015100004F0EAFD2068D0F8001E41F00101C0F897
:10152000001E206A002804D00248016841F006012C
:10153000016010BD10ED00E0134970B50A68D24398
:10154000520705D5096801F00701814213D118E05F
:101550000A6822F0070202430A60FFF723FB0A4DE4
:101560004FF47A760446083D07E000BFFFF71AFB08
:10157000001BB04201D9012070BD2868C04380041F
:10158000F4D4002070BD00000C48025802480168E5
:1015900041F48071016070470048025810B501F0B5
:1015A0005FF905490968054AC1F30211515C01F070
:1015B0001F01C84010BD0000204402584C760008AE
:1015C0004A4930B5494C0B1D0A680C3409681D683E
:1015D000246802F0030305F00102C1F30511C4F30E
:1015E000CC04002914FB02F200EE102AF8EE400AA7
:1015F00076D0414A9FED3E1ADFED3E1AB7EE000A63
:1016000023B1012B5AD0022B18D15CE0374C283C77
:1016100023689B0612D5394B246801EE901A116895
:10162000C4F3C104F8EE612AE34001EE903AC1F33D
:101630000801F8EE611A81EEA22A07E002EE101A04
:101640001168F8EE422A81EEA22A45E001EE901AD6
:101650001168F8EE611A40EE811A71EE800A62EEAE
:10166000200AC1F3462101EE101AB8EE411A31EEFC
:10167000001AC0EE811ABCEEE11A80ED001A116862
:10168000C1F3064101EE101AB8EE411A31EE001A0C
:10169000C0EE811ABCEEE11A80ED011A1168C1F3A7
:1016A000066101EE101AB8EE411A31EE000A80EE22
:1016B000801ABCEEC10A80ED020A30BD01EE901A1C
:1016C000DFED0F2A03E001EE901ADFED0E2A11681C
:1016D000F8EE611A82EEA12AC1F30801B6E7FFE72E
:1016E000002101604160816030BD00002844025843
:1016F000000000390024744C304402580090D0039C
:101700000024744A20BCBE4B494930B5484C0B1DDF
:101710000A68143409681D68246802F00303C5F3DD
:101720000012C1F30531C4F3CC04002914FB02F20A
:1017300000EE102AF8EE400A75D03F4A9FED3D1AA0
:10174000B7EE000A6BB1DFED3D1A012B01D0022B81
:1017500064D002EE101A1168F8EE422A81EEA22A35
:1017600021E0334C283C23689B0612D5344B246877
:1017700001EE901A1168C4F3C104F8EE612AE34047
:1017800001EE903AC1F30801F8EE611A81EEA22A47
:101790000BE001EE901ADFED2B2A00BFF8EE611A84
:1017A000116882EEA12AC1F3080101EE901A1168B6
:1017B000F8EE611A40EE811A71EE800A62EE200A9C
:1017C000C1F3462101EE101AB8EE411A31EE001AAB
:1017D000C0EE811ABCEEE11A80ED001A1168C1F367
:1017E000064101EE101AB8EE411A31EE001AC0EEB1
:1017F000811ABCEEE11A80ED011A1168C1F306618D
:1018000001EE101AB8EE411A31EE000A80EE801A8D
:10181000BCEEC10A80ED020A30BD04E001EE901A70
:10182000DFED092ABAE70021016041608160F3E73A
:101830002844025800000039384402580024744AF1
:101840000090D0030024744C20BCBE4B494930B5F5
:10185000484C0B1D0A681C3409681D68246802F096
:101860000303C5F30022C1F30551C4F3CC040029DE
:1018700014FB02F200EE102AF8EE400A75D03F4A3F
:101880009FED3D1AB7EE000A6BB1DFED3D1A012B5B
:1018900001D0022B64D002EE101A1168F8EE422A31
:1018A00081EEA22A21E0334C283C23689B0612D506
:1018B000344B246801EE901A1168C4F3C104F8EEA9
:1018C000612AE34001EE903AC1F30801F8EE611A93
:1018D00081EEA22A0BE001EE901ADFED2B2A00BF69
:1018E000F8EE611A116882EEA12AC1F3080101EE37
:1018F000901A1168F8EE611A40EE811A71EE800AB2
:1019000062EE200AC1F3462101EE101AB8EE411A28
:1019100031EE001AC0EE811ABCEEE11A80ED001A19
:101920001168C1F3064101EE101AB8EE411A31EE0A
:10193000001AC0EE811ABCEEE11A80ED011A11689E
:10194000C1F3066101EE101AB8EE411A31EE000A39
:1019500080EE801ABCEEC10A80ED020A30BD04E0C0
:1019600001EE901ADFED092ABAE70021016041601B
:101970008160F3E7284402580000003940440258CF
:101980000024744A0090D0030024744C20BCBE4B49
:101990002DE9F04FAC4A0546DFF8A8A280F480702C
:1019A000DFF8AC9289B01311AA4C0843A748AAF1FA
:1019B00004064FF0805C4FF000582CD085F400777F
:1019C0000F4357D0DFF87CB285F480670F430BF1EB
:1019D000080B61D085F400670F4374D085F48057FD
:1019E0000F436ED085F400570F434FF480394FF406
:1019F000003E67D085F400270F4371D085F480370F
:101A00000F436ED085F480460E436BD085F40042C0
:101A10000A4368D02AE0DAF8001001F0070105292E
:101A200024D2DFE801F075BC7D25B10006A8FFF7E0
:101A3000C7FD079809B0BDE8F08F6846FFF764FE60
:101A40000098F7E703A8FFF701FF0398F2E7206883
:101A5000C0F3C10022FA00F0ECE72268D20571D58C
:101A600061456FD11846E5E74145E3D00020E1E745
:101A70004846DFE7DAF8001001F4E07180294FD022
:101A800004DC002944D04029F0D188E0C029EFD0FF
:101A9000B1F5807FEAD177E0DBF8001001F4600156
:101AA000B1F5800F3CD004DC91B3B1F5001FDDD15E
:101AB00075E0B1F5C00FDBD0B1F5000FD6D163E012
:101AC00001E018E030E0DBF8001001F0E061B1F176
:101AD000007F25D008DCD9B1B1F1807FC6D15EE0AE
:101AE00049E06CE079E09CE0B1F1407FC0D0B1F119
:101AF000806FBBD148E0DAF8001001F4E041B1F5A5
:101B0000005F0DD005DC19B1B1F5805FAED146E0C4
:101B100094E0B1F5405FABD0B1F5804FA6D133E092
:101B200020688000A2D58DE7DAF8001001F4E021EA
:101B3000B1F5403F6CD006DC61B149457AD07145C2
:101B400094D157E037E0B1F5802F65D0B1F5A02FE3
:101B50008CD10CE000F0A6FE6CE76846FFF7D4FDE0
:101B6000019867E703A8FFF771FE049862E7216810
:101B70008903F1D47AE7DBF8001011F440310ED07C
:101B8000494510D07145F5D13168256801F04051C3
:101B90006D077FF562AF00297FF45FAF57E72068DC
:101BA0000001E7D549E720688000E3D503A8FFF7E7
:101BB0004DFE05983EE722689203DBD554E7306876
:101BC00010F480303AD04845D4D120680001D1D5F6
:101BD0006846FFF799FD02982CE7DBF8001001F04A
:101BE000E041B1F1405F13D008DC71B1614521D013
:101BF0004145BFD120688000B4D437E7B1F1804FB0
:101C00000AD0B1F1A04FB2D030E7FFF7C7FC11E71F
:101C100020684007AED51AE72068C005AAD521E79D
:101C200008E0DAF8001011F04051A0D0614505D06D
:101C300041459FD1206800018FD417E720688001BB
:101C400098D5F3E6504402580090D00340787D01C7
:101C50000080BB00004402582DE9FE4F0546DFF826
:101C6000E48350F8081B0024F64FC943019005F1A6
:101C70002800264608F12408009008011DD4A86E0B
:101C800050B1B0F5801F0CD0B0F5001F0ED0B0F5EC
:101C9000401F1ED001240FE0386840F40030386047
:101CA00017E00198022102F0C3FA03E00098022134
:101CB00002F04EFB04000CD026462888C043C00525
:101CC00023D4A86D05281ED2DFE800F00C11161BE6
:101CD0001B00AA6ED8F8001021F440111143C8F877
:101CE0000010EAE7386840F40030386009E00198F5
:101CF000002102F09DFA03E00098002102F028FB89
:101D0000044674B100E0012426462888C0438005BB
:101D100028D4E86D80281ED00CDC90B140280ED16C
:101D200014E0AA6DD8F8001021F007011143C8F89B
:101D30000010EAE7C02813D0B0F5807F10D001244E
:101D40000FE0386840F40030386009E00198002165
:101D500002F06EFA03E00098002102F0F9FA04465E
:101D60009CB126462888DFF8DC92C04309F12C0993
:101D700040052CD4D5F8A800B0F5800F20D00DDC9C
:101D8000A0B1B0F5001F0FD115E0EA6DD8F8001032
:101D900021F4E0711143C8F80010E3E7B0F5C00F7B
:101DA00013D0B0F5000F10D001240FE0386840F4D4
:101DB0000030386009E00198002102F039FA03E0B0
:101DC0000098002102F0C4FA04467CB12646288817
:101DD000C04300052DD4D5F8AC00B0F1007F21D070
:101DE0000EDCA8B1B0F1807F10D116E0D5F8A820A4
:101DF000D9F8001021F460011143C9F80010E6E79A
:101E0000B0F1407F13D0B0F1806F10D001240FE00B
:101E1000386840F40030386009E00198002102F091
:101E200007FA03E00098002102F092FA044674B128
:101E300026462868C04380011FD4E86CD8B110281A
:101E40000FD0202812D0302815D0012414E0D5F866
:101E5000AC20D9F8001021F0E0611143C9F800105E
:101E6000E7E7386840F40030386004E00198022168
:101E700002F0DEF9044674B126462888C043C00447
:101E80002BD4286EB0F5005F20D00DDCA0B1B0F5EA
:101E9000805F0FD115E06B48EA6C2030016821F0BB
:101EA000300111430160E8E7B0F5405F13D0B0F5B1
:101EB000804F10D001240FE0386840F400303860C3
:101EC00009E00198002102F0B3F903E00098002135
:101ED00002F03EFA04468CB126462888C0438004AE
:101EE00029D4686EB0F5403F23D010DC08B3B0F5BC
:101EF000803F14D0B0F5003F0FD115E02A6ED8F81E
:101F0000001021F4E0411143C8F80010E5E7B0F5F6
:101F1000802F0ED0B0F5A02F0BD001240AE001983D
:101F2000012102F085F903E00098012102F010FA86
:101F3000044694B126462888C04340042AD4D5F8E4
:101F4000B000B0F1405F23D010DC08B3B0F1805F87
:101F500014D0B0F1005F0FD115E06A6ED8F8001010
:101F600021F4E0211143C8F80010E4E7B0F1804FFC
:101F70000ED0B0F1A04F0BD001240AE0019801214E
:101F800002F056F903E00098012102F0E1F904465D
:101F900074B126462888C04300041FD4286FD8B1E6
:101FA000B0F1805F0ED0B0F1005F10D0012414E0DA
:101FB000D5F8B020D9F8001021F0E0411143C9F85C
:101FC0000010E7E7386840F40030386004E001981A
:101FD000012102F02DF9044674B126462868C04359
:101FE000C0011ED4A86CD0B101280ED0022811D097
:101FF000032814D0012413E02A6FD8F8001021F030
:1020000040511143C8F80010E8E7386840F4003048
:10201000386004E00198022102F00AF90446ACB1EC
:1020200026462868DFF81CB0C043ABF11C0B400209
:1020300052D40548016841F480710160FEF7B2FD99
:10204000824611E02C44025800480258FA48AA6C13
:10205000016821F0030111430160E2E7FEF7A2FDF0
:10206000A0EB0A00642835D8F4480068C005F5D50F
:102070008CBBDFF8C4A3B5F8B4100AF1240ADAF86F
:10208000000001F4407100F44070884211D0DAF889
:102090000010DAF8002021F4407142F48032CAF8CE
:1020A0000020DAF8002022F48032CAF80020CAF8B2
:1020B0000010D5F8B400B0F5807F1AD1FEF772FD9C
:1020C000029012E0FEF76EFD0299411A41F288304B
:1020D00081420AD9032426462878DFF85CA3C0434E
:1020E0000AF1080AC00721D03CE0DAF800008007B6
:1020F000E8D5D5F8B410C1F30120032858460DD017
:10210000016821F47C510160B5F8B420DAF80010C0
:10211000C2F30B021143CAF80010DDE7C84A036896
:1021200002EA111223F47C511143ECE7E86F1828FE
:1021300016D005DCA0B1082808D0102804D10AE088
:1021400020280DD028280BD001240AE00198012175
:1021500002F06EF803E00098012102F0F9F804465D
:1021600064B126462878C04380071ED4A86F06288D
:1021700019D2DFE800F0160C11161616EA6FDAF81D
:10218000001021F038011143CAF80010EAE7019865
:10219000012102F04DF803E00098012102F0D8F887
:1021A00004467CB100E0012426462878C04340075D
:1021B0001FD4D5F89400062819D2DFE800F0160CD9
:1021C00011161616AA6FDAF8001021F00701114354
:1021D000CAF80010E9E70198012102F029F803E0AC
:1021E0000098012102F0B4F80446A4B100E00124F3
:1021F00026462878C04380062BD4D5F89000B0F14D
:10220000405F24D011DC10B3B0F1805F15D0B0F185
:10221000005F10D116E0D5F89420D9F8001021F015
:1022200007011143C9F80010E3E7B0F1804F0ED069
:10223000B0F1A04F0BD001240AE00198002101F079
:10224000F7FF03E00098022102F082F8044694B1FF
:1022500026462878C04340062BD4D5F89C00B0F51C
:10226000406F24D011DC10B3B0F5806F15D0B0F5FD
:10227000006F10D116E0D5F89020DAF8001021F0A8
:10228000E0411143CAF80010E3E7B0F5805F0ED0DB
:10229000B0F5A05F0BD001240AE00198002101F005
:1022A000C7FF03E00098022102F052F8044694B1FF
:1022B00026462878C04300062BD4D5F8A000B0F5F8
:1022C000C04F24D011DC10B3B0F5005F15D0B0F5CD
:1022D000804F10D116E0D5F89C20D9F8001021F4D9
:1022E000E0511143C9F80010E3E7B0F5004F0ED0FC
:1022F000B0F5204F0BD001240AE00198002101F035
:1023000097FF03E00098022102F022F8044654B13E
:1023100026462878C04300071ED4D5F88400B0F5BF
:10232000805F0AD00FE0D5F8A020D9F8001021F482
:1023300060411143C9F80010EBE70098022102F058
:1023400007F800B10126D5F88420DAF8001021F44E
:1023500040511143CAF800102878C043C00613D476
:10236000D5F89800B0F5807F05D10098022101F0E2
:10237000EFFF00B10126D5F89820D9F8001021F41C
:1023800040711143C9F800102868C043000316D4F7
:10239000D5F8A40038B1B0F5803F09D0B0F5003FC2
:1023A0000BD001240AE00198002101F041FF03E075
:1023B0000098022101F0CCFF04468CB12646286823
:1023C000C043400322D4D5F88800B0F5801F11D057
:1023D000B0F5001F13D0B0F5401F15D0012414E054
:1023E000D5F8A420D9F8001021F440311143C9F8E0
:1023F0000010E4E7386840F40030386004E00098EA
:10240000012101F0A5FF04465CB126462868C043BF
:10241000C00323D4286DA8B1B0F5803F17D00124A4
:102420001BE0D5F88820DAF8001021F440111143A0
:10243000CAF80010EAE700004C440258004802586D
:10244000CFFFFF00386840F40030386004E00198A6
:10245000022101F0EDFE0446E4B126462868C0439F
:10246000800005D40098022101F072FF00B101261E
:102470002868C04380031BD4D5F88000B0B1B0F504
:10248000807F0FD0B0F5007F10D0B0F5407F0DD029
:1024900001240CE05A482A6D016821F4803111436F
:1024A0000160DBE7386840F400303860ECB3264662
:1024B0002868C043C00207D46A6FD8F8001021F022
:1024C00000411143C8F800102868C043C00008D478
:1024D000D5F8B820DBF8001021F480411143CBF887
:1024E00000102868C043800207D4EA6ED8F80010B4
:1024F00021F080711143C8F800102868C0434000E3
:102500000CD4DBF8001021F40041CBF80010DBF80C
:102510000010D5F8BC201143CBF800102868C04348
:1025200008D437486A6D016800E018E021F0405196
:10253000114301602868C043000208D4D5F88C20FC
:10254000DAF8001021F440011143CAF8001028798C
:102550000024C04300F0010020430AD00FE0D5F86A
:102560008020DAF8001021F440711143CAF80010FD
:102570009EE70198002101F05BFE00B10646287934
:10258000C04300F00200204305D10198012101F071
:102590004FFE00B106462879C04300F004002043F6
:1025A00005D10198022101F043FE00B106462879C9
:1025B000C04300F00800204305D10098002101F03D
:1025C000C7FE00B106462879C04300F01000204342
:1025D00005D10098012101F0BBFE00B10646287923
:1025E000C04300F02000044304D10098022101F010
:1025F000AFFE00B916B10120BDE8FE8F0020FBE759
:102600004C4402582DE9F05F04000F467ED0DFF8FD
:102610003882D8F8000000F00F00B8420CD2D8F889
:10262000001021F00F013943C8F80010D8F800005D
:1026300000F00F00B84269D12078844D40070AD5D8
:102640002069296801F07001884204D9296821F0C5
:1026500070010143296020787C4E361D00070AD5A1
:102660006069316801F07001884204D9316821F055
:102670007001014331602078C0060AD5A069316835
:1026800001F4E061884204D9316821F4E06101433A
:1026900031602078DFF8B4B180060BF1080B0CD55F
:1026A000E1695846DBF8002002F07002914204D93B
:1026B000026822F070020A430260207880070AD57F
:1026C000E068296801F00F01884204D9296821F0E7
:1026D0000F01014329602078C0073ED05B49A26802
:1026E0002868183920F47060104328606068022858
:1026F00018D0032819D00968012819D049070029E2
:102700004ADADFF848A1AAF1080A00E044E0DAF862
:10271000002022F007020243CAF80020FEF742FA26
:10272000814612E009688903E9E709688901E6E75B
:10273000C905E4E7FEF736FAA0EB090141F288305B
:10274000814202D90320BDE8F09F6168DAF80000F9
:1027500000F03800B0EBC10FECD1207880070AD52B
:10276000E068296801F00F01884204D2296821F04D
:102770000F0101432960D8F80010404601F00F0115
:10278000B9420BD9016821F00F013943016000689B
:1027900000F00F00B84201D00120D4E720784007B4
:1027A0000AD52069296801F07001884204D229689D
:1027B00021F0700101432960207800070AD5606983
:1027C000316801F07001884204D2316821F0700153
:1027D000014331602078C0060AD5A069316801F450
:1027E000E061884204D2316821F4E0610143316044
:1027F000207880060CD5E1695846DBF8002002F00D
:102800007002914204D2026822F070020A43026010
:1028100000F06CF80E492A682B68C2F3032203F01B
:102820000F038A5CC95C02F01F0201F01F01D04057
:10283000084A20FA01F1116007490860074800685A
:10284000BDE8F05FFEF7EAB90020005218440258D4
:102850004C76000814000024100000240800002416
:1028600030B500F043F80B4A0B490C4B156814685F
:10287000C5F3032204F00F048A5C095D02F01F0215
:1028800001F01F01D040064A20FA01F119601060E2
:10289000084630BD184402584C7600081400002445
:1028A0001000002400B5FFF7DBFF05490968054A61
:1028B000C1F30211515C01F01F01C84000BD0000CE
:1028C0001C4402584C76000800B5FFF7C9FF0549C3
:1028D0000968054AC1F30221515C01F01F01C8409B
:1028E00000BD00001C4402584C760008454970B5F4
:1028F00045480968434B103B11F0380208D00111DC
:10290000082A03D0102A0BD0182A0BD0084670BD15
:1029100019688906FBD51968C1F3C101C84070BDAB
:102920003A4870BD3749374D18310C1D24350A68B7
:10293000096826682D6802F0030406F00102C1F35D
:102940000511C5F3CC0515FB02F200EE102AB8EE16
:10295000400AE9B32F4ADFED2E0AB7EE001A6CB138
:10296000DFED2D1A012C01D0022C43D002EE101AFB
:102970001068F8EE422A81EEA22A1EE01C68A40626
:1029800011D51B6801EE901A1168C3F3C103F8EE6C
:10299000612AD84001EE900AC1F30800F8EE611AEE
:1029A00081EEA22A0BE001EE901ADFED1C2A00BF97
:1029B000F8EE611A106882EEA12AC0F3080001EE59
:1029C000900AF8EE611A40EE201A31EE810A00E01A
:1029D00015E022EE000A1068C0F34620401C00EE0D
:1029E000900AF8EE600A80EE201ABCEEC10A10EEE2
:1029F000100A70BD01EE901ADFED092AD8E7002019
:102A000070BD0000104402580090D00340787D0152
:102A100000000039304402580024744A0024744CE9
:102A200020BCBE4B2DE9F05F04007DD0FF4F207825
:102A3000FE4D1837DFF8F493103DC00748D0D9F8A1
:102A40000000396800F03800102815D0182803D18C
:102A500001F0030002280FD06068B0F5803F12D06B
:102A600010B1B0F5A02F18D0286820F4803028606D
:102A7000286820F4802009E02868800328D5606851
:102A80000028D2D024E0286840F4803028606068B4
:102A900088B1FEF787F8064609E0286840F48020F0
:102AA0002860F0E7FEF77EF8801B64286FD828685E
:102AB0008003F7D50CE0FEF775F8064605E000BF89
:102AC000FEF770F8801B6428F0D828688003F7D4DC
:102AD000207841F20308D54E0C3E800769D5D9F81D
:102AE0000000396810F038000ED0182801D188078E
:102AF0000AD0E06890B3296821F0190101432960E8
:102B0000FEF750F8824631E02868400702D5E068B9
:102B100000288AD0E168286820F01900084328605E
:102B2000FEF740F8824607E0DFE000BFFEF73AF824
:102B3000A0EB0A000228B9D828684007F6D500BFE4
:102B4000FEF72AF840451BD82069402812D031688A
:102B500021F47C3141EA003030602AE018E000BF07
:102B6000FEF720F8A0EB0A0002289FD8286840074B
:102B7000F6D5E5E7306820F47C3040F40030EBE730
:102B8000207C316821F0FE4141EA0060E4E70DE17C
:102B9000286820F001002860FEF704F8824605E06E
:102BA000FEF700F8A0EB0A0002288DD8286840073D
:102BB000F6D42078C0065DD5D9F80000DFF86CB2F5
:102BC000396800F03800ABF1040B082810D0182841
:102BD00003D101F0030001280AD0E0690028286829
:102BE00038D040F080002860FDF7DCFF824623E00B
:102BF0002868C00523D5E069802876D11FE0206AC7
:102C0000202821D0316821F0F84141EA806030600D
:102C100030E000BF94F82010DBF8002022F07C5256
:102C200042EA0161CBF8001024E000BFFDF7BAFFD3
:102C3000A0EB0A00022898D82868C005F6D5FDF751
:102C4000ABFF4045E6D8DAE7306820F0F84040F0C6
:102C50008040DCE720F080002860FDF7A3FF0646F7
:102C600005E000BFFDF79EFF801B02289DD8286865
:102C7000C005F7D42078000729D56C486169643015
:102C800000298046016811D041F001010160FDF783
:102C900089FF064605E000BFFDF784FF801B022880
:102CA000C9D8D8F800008007F6D510E021F001015E
:102CB0000160FDF777FF064605E000BFFDF772FFF4
:102CC000801B022872D8D8F800008007F6D420783C
:102CD000800623D5A0690028286810D040F48050D1
:102CE0002860FDF75FFF064605E036E1FDF75AFF75
:102CF000801B02285AD828688004F7D50EE020F4FB
:102D000080502860FDF74EFF064604E0FDF74AFFBD
:102D1000801B02284AD828688004F7D4207840070E
:102D20004FD5DFF80C81D8F8001041F48071C8F855
:102D30000010FDF737FF064605E000BFFDF732FF44
:102D4000801B642832D8D8F80000C005F6D5374E6D
:102D5000A068603601280AD008B1052813D0306871
:102D600020F001003060306820F0040002E030689C
:102D700040F001003060A06841F2883A90B1FDF760
:102D800011FF80460AE0306840F004003060EEE752
:102D9000FDF708FFA0EB0801514507D83068800710
:102DA000F6D50EE0FDF7FEFE804607E084E000BFAA
:102DB000FDF7F8FEA0EB080151457DD8306880078B
:102DC000F6D4606AB0B3DFF86480D9F8001008F177
:102DD00020084FF6F87B08F10409C1F3C20103296A
:102DE000A8F1040A69D00228286820F080702860C1
:102DF00003D0FDF7D7FE044684E0FDF7D3FE064678
:102E000005E000BFFDF7CEFE801B022877D82868BA
:102E10008001F7D4E26A40F2F331386854F8283F71
:102E2000884340EA02101843386004E01044025816
:102E300000480258B5E0217B434622894FF4FE0C3E
:102E4000208A4FF0FE474902267D521E401EA1F502
:102E50000071C2F308088AB2761E0CEA004042EA0A
:102E600008020243504607EA06610A431A60DAF88C
:102E7000002022F00102CAF80020D9F80020266ABA
:102E800022EA0B0242EAC602C9F80020DAF8001072
:102E9000A26921F00C011143CAF800100168E2692F
:102EA00021F0020111430160016841F480310160A9
:102EB000016841F4003101E021E027E00160016890
:102EC00041F480210160016841F00101016028683E
:102ED00040F080702860FDF765FE044605E000BF05
:102EE000FDF760FE001B022809D828688001F7D58D
:102EF00057E000BFFDF756FE001B022802D9032051
:102F0000BDE8F09F28688001F4D44AE039680128C0
:102F1000D8F8000021D0A26A01F0030393421CD12B
:102F2000E26AC1F305118A4217D1216BC0F308028E
:102F3000491E8A4211D1616BC0F34622491E91425B
:102F40000BD1A16BC0F30642491E914205D1E16B42
:102F5000C0F30660491E814201D00120D0E7A16C78
:102F60004E46D9F80000C0F3CC00814219D0DAF8FF
:102F70000000554620F00100CAF80000FDF712FEDF
:102F80004FEA0007FDF70EFEB842FBD0A26C306896
:102F900020EA0B0040EAC2003060286840F00100DF
:102FA00028600020ACE7704770477047704700000A
:102FB0002DE9F0410446032084F830004FF480737B
:102FC0002A4A4FF400784FF0000541B1012927D07B
:102FD00002290ED0606B012540F000601AE0A06D60
:102FE000404504D0984202D0A06B012813D111466D
:102FF00008E0A06D4045FAD09842F8D0A06B0128B7
:10300000F5D003E0204602F029F820B1606B0125DD
:1030100040F080506063FDF7C5FD0126074608E0DB
:103020001249491EEEE700BFFDF7BCFDC01B401C66
:1030300015D0204600F024FA0428F5D12068414636
:1030400001F04AFA30B12268012509499163616BA8
:103050000143616384F830602846BDE8F0814FF099
:103060000040606384F830600320F6E701FFFF80D2
:10307000FF0FE01F2DE9FC5F0446806B0E46032125
:1030800084F83010002703285CD0B6F5004F59D0E3
:10309000B6F5804F4FF000054FF400684FF080699F
:1030A00004D006B3606B40F000603FE00095002163
:1030B0000195206801F092FD80011CD469462046EC
:1030C00001F0C4FD70BB019840032DD5B4F8441045
:1030D0002068090401F0CFF920BB206802211DE01F
:1030E000606B284322E0009500210195206801F0E3
:1030F00075FD800101D54546F2E76946204601F09D
:10310000A5FD78B90198C0030ED5B4F84410206825
:10311000090401F0B0F928B92068002101F0F5F99F
:103120000028DDD00546DBE74D46D9E76063606BDC
:103130004FF4007BDFF8B8A040B121680127C1F847
:1031400038A042E0606B40F08050EFE700214FF480
:103150008030FEF71DFC010032D0264D3346D4E905
:1031600004C0B1FBF5F8D4E90192804510D9A66DF1
:103170005E450DD0B6F5807F11D04FEA6506E0B10F
:103180004FEA4008B1FBF8F8B04501D9B1FBF5F0C2
:103190004946CDE900C0206801F024FD15E0164E37
:1031A00030B14FEA4008B1FBF8F8A84502D8EFE784
:1031B000A942EDD9B1FBF6F0EAE7B142E6D8E7E77C
:1031C000606B012740F0006060632068594601F0A1
:1031D00083F930B122680127C2F838A0616B01433E
:1031E0006163012084F830003846BDE8FC9F000090
:1031F000FF0FE01F80F0FA0200E1F5052DE9F04134
:10320000044690F830000E461546012802D00220F0
:10321000BDE8F08100206063B54203D2606B40F0EE
:10322000006005E0206DA84204D2606B40F00070A1
:1032300060633CE094F840100320012784F83000DC
:10324000DFF87880880606D42168C1F83880606B82
:1032500040F080600BE02068002101F0BFFC80019D
:1032600007D52168C1F83880606B40F40060606366
:103270001BE0A06B012803D076026D02032809D061
:103280002068314601F002FA48B92068294601F069
:10329000E3F920B92068002101F051F948B1226812
:1032A000C2F83880616B0143616384F8307001209B
:1032B000AEE784F830700020AAE70000FF0FE01F9F
:1032C00070470000F0B5C26D920F0A70C26DC2F374
:1032D00083624A70C26DC2F301628A70C26D120CC1
:1032E000CA70B0F85C20120A0A7190F85C204A712A
:1032F000026E120DCA80026EC2F303420A72B0F867
:103300006020C2F3C0324A72B0F86020C2F380324B
:103310008A72B0F86020C2F34032CA72B0F86020FE
:103320000026C2F300320A734E730122836B4FF4FE
:10333000007463B1012B3AD0036850499963416B23
:1033400041F08051416380F830200120F0BDB0F899
:103350006030456E9B051B0D43EA95730B61436E10
:10336000C3F3C2630B75436EC3F302634B75436EC5
:10337000C3F342538B75436EC3F38243CB75436EE5
:10338000C3F3C2330B760D696D1C85640B7E03F0AD
:1033900007039B1C9D4085640B7A446503F00F0373
:1033A00002FA03F35F0A7D43C0E913350EE090F89B
:1033B0006050436EAD06AD0A45EA13430B610B69DD
:1033C0005B1C9B028364C0E913434465B0F864301E
:1033D000C3F380334B76B0F86430C3F3C6138B76F7
:1033E00090F8643003F07F03CB76836EDB0F0B77AE
:1033F000836EC3F341734B77836EC3F382638B7722
:10340000836EC3F38353CB77836EC3F3405381F84A
:10341000203081F82160836EC3F3004381F82230AD
:10342000B0F86830C3F3C03381F82330B0F86830A7
:10343000C3F3803381F82430B0F86830C3F34033ED
:1034400081F82530B0F86830C3F3003381F82630B6
:10345000B0F86830C3F3812381F82730B0F86830C2
:10346000C3F3012381F8283090F86800C0F34600C8
:1034700081F8290081F82A200020F0BDFF0FE01F0D
:1034800070B5B0F84410002504460068090401F046
:1034900077F918B1616B0143616304E02068002192
:1034A00001F09CFB0546C5F3432070BD2DE9F041BA
:1034B000054690F8300090B00C460026032810D046
:1034C0006946284601F058FD2A4F4FF0010860B1C7
:1034D0002A68012697636A6B02436A6385F8308025
:1034E0003AE0012010B0BDE8F08100994FF47F4030
:1034F000C1F3811121700099C1F3401161700099ED
:103500000A4600EA112141EA12616180019909BA73
:103510006160029921720299090A61720299C1F3EC
:103520000351A172DDE9022100EA1240C9B2084349
:10353000A0810398C0F38520A0730398C0F30120F5
:10354000E0730398C0F303102074039800F00F0099
:1035500060740498000EA07428684FF4007100F0A5
:10356000BBFF28B12A6801269763686385F830801D
:103570003046B7E7FF0FE01F2DE9F8430446006827
:10358000E56A416B09041BD5290719D5D4E909500F
:10359000202813D30026206801F03AFB020A287085
:1035A000010C6A70030EA970761CEB70082E05F1F1
:1035B0000405F0D3A06A2038C4E90950BDE8F883B7
:1035C000416B0127DFF8EC810026C90551D539028E
:1035D0004CF23A12816329072068C16B21EA02018B
:1035E000C1632068C16B21F08051C1632068C1684C
:1035F00021F04001C16018D515F0220F09D02068D4
:1036000001F00AF928B1616B014361632046FFF7BD
:1036100057FE2168AA07C1F8388084F83070E66246
:1036200023D1204600F05CFAC8E72806C6D52068FA
:1036300015F0220F86622068C6622068066509D0F0
:10364000206801F0E9F828B1616B0143616320460D
:10365000FFF736FE15F0300F84F83070E66202D0C6
:10366000204600F03DFAA807A8D0204600F02CFA2A
:10367000A4E7416B490421D529071FD5D4E9075098
:1036800020289BD3002628780090697840EA012002
:103690000090A97840EA01400090E9782D1D40EAA9
:1036A000016000902068694601F0CAFA761C082E75
:1036B000E9D3206A2038C4E907507FE7416B11F055
:1036C0003A0F416B58D0890703D5616B41F0020175
:1036D0006163416B090703D5616B41F008016163C8
:1036E000416B890603D5616B41F020016163416B39
:1036F000C90603D5616B41F010016163C0F83880E1
:103700002068C16B21F49D71C1632068C16821F0FC
:103710004001C1602068C16A41F40051C162206863
:10372000C16841F08001C160206801F075F8626BEA
:103730002B074FF4006140EA020060632068C26812
:1037400022F08002C2602068816303D584F8307063
:10375000E6620DE028068BD5606B002888D02068D3
:10376000C16B21F08051C1632068066584F8307018
:103770002046FFF7A5FD21E7C9009ED54FF08051F7
:1037800081632068006D40074FEA856008D40028F7
:10379000204602DAFFF70AFC10E7FFF705FC0DE709
:1037A0000028204602DAFFF700FC07E7FFF7FBFBE3
:1037B00004E700003A0F0018F0B5040085B020D0EF
:1037C00094F83000002518B92046257600F098F8C6
:1037D000042084F83000204600F03CF888B969469F
:1037E0002046FFF763FE60B99DF81010A26B9DF8AC
:1037F0001100012A08D0A5652046E168FFF73AFCD0
:1038000058B1012005B0F0BD014302D04FF4007063
:1038100001E04FF48070A065EEE7FDF7C3F90127E2
:10382000064604E0FDF7BEF9801B401C0AD0204686
:10383000FFF726FE0428F5D16563E56284F8307051
:103840000020DFE74FF00040606384F83070032011
:10385000D8E700002DE9FC414FF0000804464FF482
:1038600080304146FEF794F805004FF0010723D061
:103870002048434642464146B5FBF0F6CDE9008676
:10388000206801F0AFF9206801F0BCF91EB17000AA
:10389000B5FBF0F52DB11848B0FBF5F0401CFDF775
:1038A0004DF8204601F00EFB60B100BF84F8307087
:1038B000616B0143616319E04FF0006084F8307080
:1038C000606313E0204601F033FA0028EED120684F
:1038D0004FF4007100F000FE002808D0226807496C
:1038E0009163616B0143616384F830700120BDE82E
:1038F000FC81000000350C0010210100FF0FE01FCB
:10390000704700002DE9F04F87B0994617460D46E5
:103910000446FDF747F906903DB194F830000128C0
:1039200007D0606B40F000500DE0606B40F000602D
:1039300009E0226D002007EB09016063914204D980
:10394000606B40F000706063A8E0032184F83010E1
:103950002168C862A16B012900D07F024FF0020AE2
:10396000CDE903A090264FF0FF324FEA492305909E
:103970008DE84C0080462068694600F0C5FF20684D
:10398000B9F1010F4FF00106C16841F04001C1607B
:1039900006D9C4F82CA03946206800F029FE04E0BE
:1039A000E6623946206800F03DFEDFF814A150B110
:1039B0002368C3F838A0616B0143616384F8306009
:1039C000C4F82C806AE0DDF804B01FE0406B00040E
:1039D00014D5BBF1200F11D30027206801F018F98E
:1039E000020A2870010C6A70030EA9707F1CEB702C
:1039F000082F05F10405F0D3ABF1200BFDF7D2F849
:103A00000699411A1098814221D200B32068416B77
:103A100011F4957FDAD0C16821F04001C1602068BF
:103A2000416BC90522D5B9F1010F1FD9A16B03293B
:103A30001CD000F0F1FEC8B12368C3F838A0626B57
:103A40000243626384F83060C4F82C8026E0226868
:103A5000C2F838A0606B40F00040606384F83060CA
:103A6000C4F82C80032007B0BDE8F08F2068416BBC
:103A7000090706D5C0F838A0616B404641F008013F
:103A800008E0416B89070BD5C0F838A0616B404650
:103A900041F00201616384F83060E0620120E2E7F6
:103AA000416B890606D5C0F838A0616B404641F0ED
:103AB0002001EFE70349816384F830600020D2E7FA
:103AC000FF0FE01F3A0F0018044910B5884201D0DB
:103AD000012000E00020FCF713FF10BD20000124AE
:103AE000044910B5884201D0012000E00020FCF715
:103AF0001FFF10BD200001242DE9F04F89B09A4628
:103B000016460D460446FDF74DF806903DB194F873
:103B10003000012807D0606B40F000500DE0606B72
:103B200040F0006009E0226D002006EB0A016063AE
:103B3000914204D9606B40F000706063B2E00321F1
:103B400084F830102168C862A16B012900D0760288
:103B50004FF0FF314FEA4A22059090230490CDE9BF
:103B60000230CDE9001280462068694600F0CCFEA4
:103B70002068C168BAF1010F41F04002C26006D965
:103B80002020E0622068314600F08AFE05E0102027
:103B9000E0622068314600F09DFEDFF830B106009B
:103BA0004FF001090AD02368C3F838B0606B304386
:103BB000606384F83090C4F82C8073E0019808901A
:103BC00027E0406B40041CD50898202819D3002713
:103BD00028780790697840EA01200790A97840EAA0
:103BE00001400790E9782D1D40EA016007902068A8
:103BF00007A901F025F87F1C082FE9D30898203881
:103C00000890FCF7CFFF0699411A1298814221D201
:103C100000B32068416B11F48D7FD2D0C16821F0D0
:103C20004001C1602068416BC90521D5BAF1010F7F
:103C30001ED9A16B03291BD000F0EEFDC0B1256891
:103C4000C5F838B0616B0143616384F83090C4F803
:103C50002C8027E02368C3F838B0626B324362637C
:103C600084F83090C4F82C80032009B0BDE8F08FB0
:103C70002068416B090707D54946C0F838B0626B28
:103C8000404642F0080209E0416B89070CD54946DD
:103C9000C0F838B0626B404642F00202626384F8BA
:103CA0003010E0620120E0E7416BC90607D54946C4
:103CB000C0F838B0626B404642F01002EEE7044AAA
:103CC000826384F830900020CFE70000FF0FE01FF0
:103CD0003A0F0018401EB0F1807F10B501D30120CB
:103CE00010BD4FF0E02460610F21601702F07AFFF1
:103CF0000020A0610721216110BD30B590F884102B
:103D0000012918D0012280F884202421C0F88810CD
:103D10000022202401680B680D6823F0005325F071
:103D200001050D60426601680B60C0F8884080F8AC
:103D30008420104630BD022030BD70B5044690F896
:103D4000840001281DD0012284F884202420C4F896
:103D5000880020680568026822F00102026020687D
:103D6000826822F060620A438260204601F02EFCE5
:103D70002268202100201560C4F8881084F884008F
:103D800070BD022070BD70B5044690F88400012813
:103D90001DD0012284F884202420C4F888002068E3
:103DA0000568026822F0010202602068826822F041
:103DB00060420A438260204601F008FC226820210C
:103DC00000201560C4F8881084F8840070BD0220BB
:103DD00070BD10B5040003D0D4F8880010B107E01E
:103DE000012010BD002084F88400204600F026F851
:103DF0002420C4F888002068016821F001010160D6
:103E0000204601F0E9FC0128EBD0A06A10B1204661
:103E100001F0FEFB2068416821F490414160206878
:103E2000816821F02A0181602068016841F0010168
:103E300001602046BDE8104001F04EBC10B5B6B0A0
:103E40000446142130A8FCF77BFAC0216846FCF731
:103E500077FA1A49206888422DD100201F9001214D
:103E60000446CDE900106846FDF7F6FE08B1FCF700
:103E700062FD1348016841F010010160006800F024
:103E8000100035900E481038016841F001010160C2
:103E900000680DF1C00C022100F0010035904FF4D4
:103EA000C06007238CE8130003220648CDE93323C2
:103EB00030A9FCF755FD36B010BD000000100140E0
:103EC000F0440258000002582DE9F8430446D0F8A7
:103ED0008800984616460D46202802D00220BDE8EC
:103EE000F883A5B19EB10021C4F890102120C4F838
:103EF00088001834FCF756FE814654F8100CA6874B
:103F0000E6872027183CB0F5805F02D003E001204F
:103F1000E5E7206910B12E46002510E000260EE0EE
:103F20008021204601F02EFEC0B9DEB116F8010B4B
:103F300021688862B4F85600401EA4F85600B4F810
:103F400056004B464FF00002CDF800800028E7D124
:103F50004FF04001204601F015FE48B1C4F88870CA
:103F60000320BCE735F8020B2168C0F30800E0E746
:103F7000C4F888700020B2E7FEE7000030B587B0D3
:103F800014216846FCF7DCF92248016841F0100171
:103F90000160016801F010010591016841F0040120
:103FA0000160016801F004010591016841F08001A0
:103FB0000160016801F080010591016841F0010193
:103FC0000160016801F001010591016841F0020101
:103FD0000160016801F002010591016841F00801EA
:103FE000016000684FF400540B4D002200F00800FF
:103FF000214605902846FCF7C9FD002100940120C8
:10400000CDE90101284603916946FCF7A9FC07B0F8
:1040100030BD0000E044025800080258002110B5ED
:10402000084C4FF480430622C0E90041C0E9021366
:10403000C0E904120C46FFF7BFFB00B10124204683
:1040400010BD0000007000521848002110B5164C39
:104050000C224FF4E1330460C0E90131C160C0E9D2
:1040600004128161C161016241628162FFF7B1FEA8
:1040700008B1FCF760FC0D480021FFF784FE08B191
:10408000FCF759FC09480021FFF757FE08B1FCF77F
:1040900052FC0648FFF731FE002803D0BDE810406F
:1040A000FCF749BC10BD0000001001409C00012439
:1040B000FEE7FEE70148FCF717BF000050030124AC
:1040C0002DE9F0410446C0680D46202723680128E9
:1040D0004FF4004604F2C44203EB4511D3F840C04C
:1040E000D1F8080B09D0DFF89CE0F4453AD102047E
:1040F00033D500BFC1F8086B40E0234B5FEA007E78
:1041000004D59C453AD90004F4D437E05FEA806EC8
:1041100002D5C1F8087B31E010F0280F2ED19C4564
:1041200001D90004E6D4D1F8101B05EBC50004EB5F
:104130008000C1F31201D0F89C32A3EB0101C0F85A
:10414000901200F51F70ADB903691BB1C26811442C
:10415000C1600FE0206801210AE080060AD5C1F89D
:10416000087B07E035B9D4F88C0218B9002118464D
:1041700002F020FA2046E9B2FCF7CCFD0020BDE8B1
:10418000F08100000A31544F0A30544F2DE9F84FA6
:104190000E460568814601EBC60100EB8104D4E9B7
:1041A00013203C34904202D90120BDE8F88FA16869
:1041B000101A814200D20846C01C05EB4618870839
:1041C0001BE000BFA268A0EB010A524500D2924654
:1041D00099F80C100AF1030000911FFA8AF3E168C4
:1041E00087082846F2B202F0D7FCE16801EB0A002A
:1041F000E060616901EB0A006061D8F8180980B2DB
:10420000B84205D3D4E90401814201D20028D9D1B2
:10421000D4E90401884208D8D5F83418012006F002
:104220000F0290408143C5F834180020BDE7704765
:104230002DE9F047454D044689464FF0000A2868AD
:10424000C04380070AD0414E283E306820F080608D
:104250003060FCF7A7FC0746B04608E00120BDE847
:10426000F08700BFFCF79EFCC01B022867D8D8F877
:1042700000000001F6D4206829684FF4FE0721F4FD
:104280007C313E0241EA00302860207AA389B4F8EC
:1042900004C040022D4D2D495B1E227CACF1010C67
:1042A0001035091DA0F5007080B2521ECCF3080C29
:1042B00007EA034340EA0C00184306EA026210438F
:1042C00028600868626920F0C000104308600A682E
:1042D000A06922F0200202430A60281D0A6822F029
:1042E00010020A6002684FF6F873E4699A4342EAE2
:1042F000C40202600868B9F1000F40F010020A60C1
:1043000011D00868B9F1010F11D040F40010086015
:10431000D8F80000444640F08060C8F80000FCF780
:1043200041FC05460DE0086840F40020EFE740F44A
:104330008010ECE7FCF736FC401B022801D9032073
:104340008DE720680001F5D5504688E728440258DB
:104350002DE9F047454D044689464FF0000A28688C
:10436000C04380070AD0414E283E306820F080507C
:104370003060FCF717FC0746B04608E00120BDE8B6
:10438000F08700BFFCF70EFCC01B022867D8D8F8E6
:1043900000008000F6D4208829684FF4FE0721F041
:1043A0007C713E0241EA00502860207AA389B4F86B
:1043B00004C040022D4D2D495B1E227CACF1010C46
:1043C0001835091DA0F5007080B2521ECCF3080C00
:1043D00007EA034340EA0C00184306EA026210436E
:1043E00028600868626920F44060104308600A6829
:1043F000A06922F4007202430A60281D0A6822F4B0
:1044000080720A6002684FF6F873E4699A4342EAE0
:10441000C40202600868B9F1000F40F480720A60BB
:1044200011D00868B9F1010F11D040F08070086018
:10443000D8F80000444640F08050C8F80000FCF76F
:10444000B1FB05460DE0086840F48000EFE740F45A
:104450000000ECE7FCF7A6FB401B022801D9032073
:104460008DE720688000F5D5504688E7284402583B
:104470000020FFF781B830B585B0044637204FF4EF
:1044800080720DF1080CCDE900100023694615017A
:1044900020468CE82C0000F0BFFB372141F2883227
:1044A000204600F045FA05B030BD30B585B0044671
:1044B00029204FF480720DF1080CCDE90010002383
:1044C0006946150120468CE82C0000F0A5FB20462B
:1044D00000F0EAFA05B030BD30B50446102085B0D2
:1044E0000DF1080C02010502CDE900100023694618
:1044F0008CE82C00204600F08FFB102141F288321E
:10450000204600F015FA05B030BD30B585B0044640
:1045100006204FF480720DF1080CCDE90010002345
:104520006946150120468CE82C0000F075FB062139
:1045300041F28832204600F0FBF905B030BD30B5BD
:1045400085B0044626204FF480720DF1080CCDE9A9
:10455000001000236946150120468CE82C0000F06D
:104560005BFB26214FF21862204600F0E1F905B00E
:1045700030BD000030B585B00546002469464FF4D3
:104580008050009401940294CDE90340284600F045
:1045900043FB0B4A4FF4FA5041F288311268B2FBE8
:1045A000F0F04843401E03D24FF0004005B030BD4C
:1045B000696B0906F6D503492046A963F6E70000B2
:1045C00010000024C500200030B50821044685B045
:1045D0004FF4D5704A0100234D028DE82F00694643
:1045E000204600F019FB204600F0C8FA05B030BDA7
:1045F00030B585B0044612204FF480720DF1080CDE
:10460000CDE9001000236946150120468CE82C00F6
:1046100000F002FB122141F28832204600F088F9B6
:1046200005B030BD30B585B0044611204FF480721E
:104630000DF1080CCDE90010002369461501204654
:104640008CE82C0000F0E8FA112141F28832204673
:1046500000F06EF905B030BD30B585B004462120BC
:104660004FF480720DF1080CCDE90010002369466B
:10467000150120468CE82C0000F0CEFA212141F2F1
:104680008832204600F054F905B030BD30B50446FC
:10469000202085B00DF1080CC200C501CDE9001045
:1046A000002369468CE82C00204600F0B5FA202152
:1046B00041F28832204600F03BF905B030BD30B5FC
:1046C00085B0044607204FF480720DF1080CCDE947
:1046D000001000236946150120468CE82C0000F0EC
:1046E0009BFA072141F28832204600F021F905B0FB
:1046F00030BD10B585B00446002102204FF4407251
:10470000C3020493CDE90010CDE902216946204699
:1047100000F082FA204600F09DF905B010BD30B5DA
:1047200085B0044609200DF1080C0023CDE90010E6
:104730004FF4407269464FF4805520468CE82C00B7
:1047400000F06AFA204600F085F905B030BD10B5DA
:1047500085B00446002133204FF48072CDE9022158
:10476000CDE90010130169462046049300F054FA85
:10477000332141F28832204600F0DAF805B010BD4E
:1047800030B585B004460D204FF480720DF1080C51
:10479000CDE9001000236946150120468CE82C0065
:1047A00000F03AFA0D2141F28832204600F0C0F8BC
:1047B00005B030BD30B585B00C460021054603205C
:1047C0004FF48072CDE90221CDE900101301694652
:1047D0002846049300F020FA03212246284600F0E0
:1047E00087F905B030BD10B585B0044600210D2015
:1047F0004FF48072CDE90221CDE900101301694622
:104800002046049300F008FA0D2141F28832204638
:1048100000F08EF805B010BD10B585B004464FF419
:10482000807200200C2113018DE80700CDE90303FD
:10483000E06840F08000E060E06820F04000E06068
:104840006946204600F0E8F9074A0C21204600F0AE
:104850006FF8E168B0F1007F21F08001E16000D1E4
:10486000002005B010BD000000E1F50530B585B0B1
:10487000044606204FF480720DF1080CCDE90010BB
:1048800000236946150120468CE82C0000F0C4F98D
:10489000062141F28832204600F04AF805B030BDCA
:1048A00030B585B0044619204FF480720DF1080C24
:1048B000CDE9001000236946150120468CE82C0044
:1048C00000F0AAF9192141F28832204600F030F8B0
:1048D00005B030BD30B585B0044618204FF4807265
:1048E0000DF1080CCDE900100023694615012046A2
:1048F0008CE82C0000F090F9182141F28832204613
:1049000000F016F805B030BD70B50A6842624A681A
:104910008262C46AD1E90225D1E9043624F0FF019C
:104920002A4333431A431143C162002070BD000083
:1049300030B5464D4FF4FA53434C2D68B5FBF3F3B5
:1049400053435B1E02D24FF0004030BD426B224207
:10495000F7D09204F5D4426B520703D5042181634A
:10496000084630BD426BD20702D00121816306E0C8
:10497000354A803282630269D2B28A4201D0012074
:1049800030BD002100F02AF93149084201D1002050
:1049900030BD002802DA4FF0007030BD410001D573
:1049A000402030BD810001D5802030BDC10002D53E
:1049B0004FF4807030BD010102D54FF4007030BD5E
:1049C000410102D54FF4806030BDC10102D54FF4E2
:1049D000006030BD010202D54FF4805030BD41026D
:1049E00002D54FF4005030BD810202D54FF4804013
:1049F00030BDC10202D54FF4004030BD410302D5A5
:104A00004FF4003030BD810302D54FF4802030BD1B
:104A1000C10302D54FF4002030BD010402D54FF48C
:104A2000801030BD410402D54FF4001030BD810428
:104A300002D54FF4800030BD000702D54FF40000CE
:104A400030BD4FF4803030BD450020001000002400
:104A500008E0FFFD124B4FF4FA5141F288321B6817
:104A6000B3FBF1F15143491E02D24FF000407047B1
:104A7000426B12F0450FF6D09204F4D4416B490713
:104A800003D50421816308467047416BC90703D0F1
:104A90000121816308467047024981630020704705
:104AA00010000024C50020000F4B4FF4FA5141F2D2
:104AB00088321B68B3FBF1F15143491E02D24FF01B
:104AC00000407047426B12F0450FF6D09204F4D4C8
:104AD000416B490703D504218163084670470349A8
:104AE000816300207047000010000024C5002000F2
:104AF00030B5204D4FF4FA5341F288342D68B5FBA0
:104B0000F3F363435B1E02D24FF0004030BD446BB1
:104B100014F0450FF6D0A404F4D4436B5B0703D51F
:104B200004218163084630BD436BDB0702D00121BD
:104B3000816303E00369DBB28B4201D0012030BD09
:104B40000D498163002100F049F810F4604F04D052
:104B5000410406D54FF4005030BD000C10800020F9
:104B600030BD000402D54FF4805030BD4FF480308A
:104B700030BD000010000024C5002000144B4FF48D
:104B8000FA5141F288321B68B3FBF1F15143491EDF
:104B900002D24FF000407047426B12F0450FF6D042
:104BA0009204F4D4416B490703D50421816308467C
:104BB0007047416BC90703D00121816308467047E4
:104BC000416B490601D540218163002070470000F8
:104BD00010000024006800F003007047084440699A
:104BE0007047000030B511434268DDE903542B43A0
:104BF000034D194321432A400A434260002030BD3F
:104C0000002CC0FF016841F00301016000207047E3
:104C1000D0F880007047000070B5084D0A688260C7
:104C2000C368D1E90126D1E903412B4032430C434B
:104C300022431343C360002070BD0000C0E0FEFFAC
:104C40000968C0F880100020704700002DE9F04F7F
:104C500087B00D460446FBF7A5FF002606902068A6
:104C60000821B3463746FFF737FC002833D1B4F8A4
:104C7000441020680904FFF7FEFB00282BD1431ED7
:104C80004FF008094FF0020A4FF0300C4FF00108C6
:104C9000CDF80CA08DE80812CDE9046820686946BB
:104CA000FFF732FE2068FFF752FD002813D140F2D3
:104CB0002A582068416B11EA080F06D1416B09039D
:104CC00015D4BBF1000F09D011E0416B090717D5CE
:104CD000C0F83890082007B0BDE8F08FFFF798FFC4
:104CE00006462068FFF794FF07464FF0010BFBF7DD
:104CF00059FF0699401A401CDBD14FF00040EAE70B
:104D0000416B890703D5C0F838A00220E3E7416B67
:104D1000890603D5202181630846DCE7034A39BAB6
:104D200033BA82630020C5E90013D4E73A0F0018B4
:104D300070B58CB004460020ADF82C00FBF732FFB4
:104D400005462068FFF746FF002853D0A06B0328D4
:104D500041D02068FFF7CDFC002849D12068002110
:104D6000FFF73CFFE06604212068FFF737FF20676C
:104D700008212068FFF732FF60670C212068FFF7E9
:104D80002DFFA16BA067032925D041F2883600BF13
:104D9000BDF82C0088B3A06B03281CD0BDF82C10E4
:104DA000616420680904FFF7BAFC002820D120685C
:104DB0000021FFF713FFE06504212068FFF70EFFD5
:104DC000206608212068FFF709FF60660C21206833
:104DD000FFF704FFA06604212068FFF7FFFE000D27
:104DE000694620642046FEF76DFAA8B14FF0805066
:104DF0000CB070BD4FF08060FAE7FFE720680BA9A8
:104E0000FFF7D8FC0028F3D1FBF7CCFE401BB042E3
:104E1000BED34FF00040EBE7B4F84410206809041B
:104E2000FFF74DFCE4E70000224910B5884286B048
:104E30003ED12148016841F480310160006800F4EE
:104E4000803005901C480C30016841F0040101607D
:104E5000016801F004010591016841F00801016059
:104E600000680221012200F00800059003230C24B1
:104E70004FF4F8508DE81F0010486946FBF770FDAD
:104E8000042000900E486946FBF76AFD0A4858382E
:104E9000016841F480310160016821F480310160D2
:104EA00000220E213120FBF7F5FE3120FBF7E4FE56
:104EB00006B010BD20000124D44402580008025856
:104EC000000C02582DE9F84F002604463546B0463E
:104ED00000960068FFF74EFB002829D12068FFF7F5
:104EE00073FBB0F1004F4FF001094FF0805B4FF6BC
:104EF000FF7702D0C4F83C9008E0E6632068FFF733
:104F000039FB002814D1E06B01281ED12068002154
:104F1000FFF7B1FA58B918E020680021FFF7ABFAA3
:104F2000002805D120685146FFF7BFFA10B1584656
:104F3000BDE8F88F20680021FFF750FE4FEAD078D7
:104F400005460098401C009002E0DFF828A0009879
:104F5000B84202D2B8F1000FDED00098B84202D3B6
:104F60004FF08070E4E76800A66301D5C4F838907C
:104F70000020DDE7000010C12DE9F04186B00D46AC
:104F80000446FBF70FFE002107462068FFF726FEC8
:104F9000800104D54FF4006006B0BDE8F0812068C0
:104FA0004021FFF799FAC0B9B4F844102068090409
:104FB000FFF761FA88B940214FF0FF3060224FF0CF
:104FC000010C022300268DE84F1020686946FFF788
:104FD0009BFC2068FFF707FC98B1616B6163DBE71E
:104FE000406B000407D500262068FFF711FE761CF1
:104FF000082E01C5F8D3FBF7D5FDC01B401C02D11C
:1050000027E04FF000482068416B11F4957FE7D00E
:10501000416B090701D50820BEE7416B890701D51F
:105020000220B9E7406B80060AD52020B4E700BF14
:10503000FFF7EEFD01C5FBF7B5FDC01B401C08D016
:105040002068416BC904F3D40146034888630020FB
:10505000A2E74046A0E700003A0F00182DE9F04F04
:105060009BB00F460025044640216846FBF768F9CF
:105070000026FBF797FD8046A06DE0B3FF285FD9BF
:105080002068C56240212068FFF726FA002838D141
:1050900012AB4FF00209401E4FF0010A402160227E
:1050A00083E80702CDE9165A206812A9FFF72CFC05
:1050B00020683946FFF7DAFB050022D140F22A5B6F
:1050C00021684A6B12EA0B0F1ED1486B00040BD506
:1050D00000272068FFF79CFD07EBC6027F1C082F06
:1050E0004DF82200F5D3761CFBF75CFDA0EB080021
:1050F000401CE5D100E00DE04FF00040606384F813
:1051000030A01BB0BDE8F08F486B000705D5082024
:10511000886315E04FF08060F3E7486B800701D5A6
:10512000484603E0486B800602D520208863E8E704
:10513000044888639DF80D00800701D44FF0805526
:105140002846DEE73A0F0018F0B52DED028B83B04C
:10515000FBF728FD0021044640220846FBF76AFBC6
:10516000444E30600020FBF777FB0028FAD1FBF7B4
:1051700019FD3168001B19B13FA001F023FDFEE7C6
:10518000014645A001F01EFD4C4C00204FF4005597
:1051900044F82000401CA842FAD3FBF703FD00228C
:1051A0004649402307461046FBF7ACFB3060002021
:1051B000FBF752FB0028FAD1FBF7F4FCC21B316865
:1051C00000EE102A9FED3E8ADFED3E8AB8EE400ADF
:1051D000C8EE000A20EEA80A19B13BA001F0F2FCCB
:1051E000FEE7B7EEC00A20213FA08DED000B01F0D5
:1051F000E9FCFBF7D7FC00224B4940230746104649
:10520000FBF768FB30600020FBF726FB0028FAD193
:10521000FBF7C8FCC21B316800EE102AB8EE400A4A
:10522000C8EE000A20EEA80A19B140A001F0CAFC9D
:10523000FEE7B7EEC00A202144A08DED000B01F07F
:10524000C1FC39495FF0000054F8202051F82030AB
:105250009A4203D04DA001F0B5FCFEE7401CA842E5
:10526000F2D350A001F0AEFC03B00020BDEC028BE5
:10527000F0BD0000000000240D0A20B2C1B3FDCA39
:10528000A7B0DC21212121212020B4EDCEF3B4FAF6
:10529000C2EB3A25640D0A000D0A20B2C1B3FDB37A
:1052A000C9B9A62C20B2C1B3FDCBF9D0E8CAB1BCB4
:1052B000E43A202564206D730D0A000020000024CC
:1052C000000000470000803A0D0AD0B4C8EBB4EDEE
:1052D000CEF321212121212020B4EDCEF3B4FAC256
:1052E000EB3A25640D0A00000D0AD0B4C8EBB3C92F
:1052F000B9A62CCAFDBEDDB4F3D0A1A3BA256420A3
:105300004B422C20BAC4CAB13A202564206D732CBC
:1053100020D0B4C8EBCBD9B6C8A3BA252E326620AC
:105320004D422F730D0A0000208000240D0AB6C1E3
:10533000C8A1B4EDCEF321212121212020B4EDCE4E
:10534000F3B4FAC2EB3A25640D0A00000D0AB6C1A7
:10535000C8A1B3C9B9A62CCAFDBEDDB4F3D0A1A3C0
:10536000BA2564204B422C20BAC4CAB13A20256425
:10537000206D732C20B6C1C8A1CBD9B6C8A3BA255D
:105380002E3266204D422F73200D0A000D0ACAFDF1
:10539000BEDDD0A3D1E9CAA7B0DC21212121210D96
:1053A0000A0000000D0AD0A3D1E9CDA8B9FD212142
:1053B0002121215344BFA8B2E2CAD4D5FDB3A30D25
:1053C0000A00000070470178407841EA00207047E9
:1053D000FBF7EEBBF0B5CDB04C2130A8FAF7B0FF2B
:1053E000202143A8FAF7ACFFC0216846FAF7A8FFCE
:1053F0000220FCF7A1F83A4900243A480A6822F052
:1054000001020A600A68026842F4404202600268CF
:1054100002F440424B9202689204FCD5324A13686F
:1054200043F002031360126802F002024B9202681A
:1054300042F44042026002680A6842F001020A60D7
:10544000096801F001014B9101688904FCD5FCF762
:105450009DF8FBF7A1FB2449843901220B68022047
:1054600008252526C70323F018030B600521329277
:10547000CDE930673AAF3692C0233990042687E8E9
:105480000B00CDE93D06CDE940543F9030A8429451
:10549000FDF7C8FA08B172B6FEE740204A903F21F6
:1054A0000301CDE946500322CDE9480343AB43A8AD
:1054B00083E816000421FDF7A5F808B172B6FEE7EF
:1054C00000210A481F941494CDE900016846FCF7B6
:1054D000C3FB002801D072B6FEE74DB0F0BD00005E
:1054E0002C04005818480258F44402580100018066
:1054F0002C48F0B52C4A016841F470010160106835
:1055000000F00F00072804D2106820F00F00C01D23
:10551000106026490020254C10340B68244D43F0C0
:1055200001030B6020600B682B400B60136803F0D5
:105530000F03072B04D9136823F00F03DB1D13603F
:105540001A4C1C4A18341C4B261D371D2060174C62
:105550001A4D28343060261D3860371D23603B1DEE
:1055600035601C1D3A60251D2E1D1860331D2260FC
:105570002860326018600A680C4B114C22F48022BB
:1055800060330A60186020686FF30F00B0F1005FAD
:1055900003D20C490120C1F8080143F2D2000A49A4
:1055A0000860F0BD88ED00E0002000520044025881
:1055B0007FEDF6EA80020101000202020000FF0115
:1055C0000010005C008000510040005230B5416E78
:1055D000B9B101680D4B03F108048A688968C2F308
:1055E0004262490F5D5C615C2D01B5FBF1F1A0F8F1
:1055F0006A10995CA25C0901B1FBF2F1A0F8681095
:1056000030BD0121A0F86A10F8E700003C760008E0
:1056100090F82810C90706D00168C36A4A6822F4C6
:1056200000321A434A6090F82810890706D50168AD
:10563000036B4A6822F480321A434A6090F82810BB
:10564000490706D50168436B4A6822F480221A4351
:105650004A6090F82810090706D50168836B4A68EC
:1056600022F400421A434A6090F82810C90606D571
:105670000168C36B8A6822F480521A438A6090F8EA
:105680002810890606D50168036C8A6822F4005246
:105690001A438A6090F82810490611D50168436CB6
:1056A0004A6822F480121A434A60416CB1F5801FA7
:1056B00006D10168836C4A6822F4C0021A434A602A
:1056C00090F82810090606D50168C26C486820F4D5
:1056D00000201043486070472DE9F8430025044638
:1056E000C0F89050FBF75EFA8046206820266FF0E5
:1056F0007E470068000713D5002243463104204648
:10570000009700F03FFA58B1216851E8000F20F0EF
:10571000800041E80002002AF6D1C4F8886021E048
:1057200020680068400722D5002243464FF48001DC
:105730002046009700F026FAC8B1206850E8001F04
:1057400021F4907140E80012002AF6D12068083058
:1057500050E8001F21F0010140E80012002AF5D1B5
:10576000C4F88C60032084F88450BDE8F883C4F842
:105770008860C4F88C60E5662567002084F8845052
:10578000F3E7000010B5026852E8001F21F49071A1
:1057900042E80013002BF6D10E4B0268083252E8A3
:1057A000001F194042E80014002CF6D1C16E0129F7
:1057B00008D1026852E8001F21F0100142E80013EE
:1057C000002BF6D100212022C0F88C20C166416751
:1057D00010BD0000FEFFFFEF2DE9F0430446806896
:1057E000D84E87B0D84B2168D4E90427D4F81CC020
:1057F00010430A68002547EA0C0738433240024349
:105800000A602068E268416821F440511143416018
:105810002268A1699A4201D0206A01439768DFF8A3
:105820002CC3CB4ECB4807EA0C070F439760216887
:10583000676ACA6A22F00F023A43CA622268B24219
:105840000ED1006800F03800182873D047DCB8B3D8
:10585000082879D010286FD178E028287ED17BE005
:10586000BD498A4209D1006800F00700062875D2B8
:10587000DFE800F0546A6C6E7072B8498A4209D150
:10588000006800F00700062868D2DFE800F0475DF6
:105890005F616365B2498A4209D1006800F0070080
:1058A00006285BD2DFE800F03A5052545658AD4912
:1058B0008A420BD1006800F0070006284ED200E0B3
:1058C00010E0DFE800F02B4143454749A6498A42F2
:1058D0000AD1006800F03800182839D0B7DD202838
:1058E000BBD13CE001203AE0A0498A4209D10068DE
:1058F00000F00700062831D2DFE800F01026282A41
:105900002C2E9B498A420BD1006800F00700062824
:1059100024D2DFE800F003191B1D1F2100201EE028
:105920009A421BD18B48001D006800F00700062832
:1059300014D202E00CE007E010E0DFE800F003051D
:1059400007090B0D02200AE0042008E0082006E009
:10595000102004E0202002E0402000E08020854963
:10596000DFF814829A42854A4FF400434FEA211728
:105970004FF000064ED110281AD006DC022809D0BC
:1059800004280BD008287CD10DE020283ED04028E8
:1059900077D13DE0FBF702FE014610E06846FBF7D9
:1059A000B3FE01990BE003A8FBF750FF049906E052
:1059B0001068800605D51068C0F3C100C1400029F9
:1059C00070D0606A676838F8102007EB4703B1FBB6
:1059D000F2F0834255D8B0EB073F52D80023084677
:1059E0001946FAF775FC02467808130E120243EACC
:1059F000012110183A4671410023FAF769FC604A08
:105A0000A0F5407191423CD821688FE03946D8E733
:105A10001946D6E7D4F81CC04FF6EF799C4546D11D
:105A2000082819D005DC58B101280CD0042875D1FC
:105A30000DE0102815D0202835D040286ED134E054
:105A4000FCF730FF01E0FCF73FFF014610E068463D
:105A5000FBF75AFE01990BE003A8FBF7F7FE049948
:105A600006E01068800604D51068C0F3C100C1408C
:105A7000C1B1636A606838F81330B1FBF3F14900D3
:105A800000E04BE001EB5001B1FBF0F0A0F11001A0
:105A9000494543D84FF6F0732168C0F342021840DD
:105AA000104343E043E03946E3E71946E1E70828BD
:105AB00019D005DC58B101280CD004282ED10DE0F6
:105AC000102815D020282BD0402827D12AE0FCF719
:105AD000E9FE01E0FCF7F8FE014610E06846FBF73E
:105AE00013FE01990BE003A8FBF7B0FE049906E052
:105AF0001068800604D51068C0F3C100C140B1B180
:105B0000636A606838F81330B1FBF3F101EB5001C0
:105B1000B1FBF0F0A0F11001494505D9012506E0DF
:105B20003946EDE71946EBE7216880B2C8600120ED
:105B3000A4F86A00A4F8680028466667A66707B05C
:105B4000BDE8F083F369FFCF000C0058FFF4FF11AC
:105B500000100140544402580044004000480040F6
:105B6000004C00400050004000140140007800400C
:105B7000007C00400090D0032476000800440258C6
:105B8000FFFC0F002DE9F047994617460E460446E4
:105B9000089D4FF000082FE0681C2DD0FBF702F89D
:105BA000A0EB0900A84214D89DB1206801684907FC
:105BB00022D5C169C94309070DD4082505622046CD
:105BC000FFF7E0FDC4F89050012084F88480BDE820
:105BD000F0870320FBE7C069C04300050CD42168AF
:105BE0004FF4006008622046FFF7CCFD2021C4F886
:105BF000901084F88480ECE72068C06936EA0000E1
:105C000004D00020B842C7D00020E0E70120F9E727
:105C100010B5D0F8B82200245268904700B1032490
:105C2000204610BD002070470020704713460A46EA
:105C3000002110B500F0C4F9002010BD13460A463B
:105C4000002110B500F05DFA002010BD10B58021D4
:105C5000044600F040FA2046BDE81040002100F064
:105C60003ABA10B50521C0F8941200231A46194615
:105C700000F0A6F9002010BD10B582610223C0F823
:105C80009432C26113460A46002100F03AFA00201D
:105C900010BD10B50421C0F8941200231A4619460D
:105CA00000F02FFA002010BDF8B504460D46002084
:105CB000ADF800004888010A062947D006DC012912
:105CC0000FD0022912D0032962D11DE0072946D046
:105CD0000F295DD1D4F8B402C26920E0694690472B
:105CE0003BE0D4F8B412207C0A68F7E7207C022657
:105CF0000028D4F8B80205D0C16A68468847014632
:105D0000467036E0816AF8E7C0B2062840D2DFE884
:105D100000F003090D111519D4F8B4024268B2B3AA
:105D2000207CDBE7D4F8B4028268F8E7D4F8B40248
:105D3000C268F4E7D4F8B4020269F0E7D4F8B40218
:105D40004269ECE7D4F8B4028269E8E7207CF0B954
:105D5000D4F8B802416B68468847014609E0207CC8
:105D6000A8B9D4F8B802016B6846884701460720F5
:105D70004870EA888AB1BDF8000040B1824200D97B
:105D800002462046ADF80020FFF776FFF8BDFFE79A
:105D900029462046FFF75AFFF8E72046FFF779FF2C
:105DA000F4E701004FF0000004D0012901D00229DE
:105DB00001D0032070470120704710B5D0F8C80209
:105DC000FAF7C5FFBDE81040FFF7EBBF2DE9F04142
:105DD000174604464FF0000521B194F89C020328B1
:105DE00042D04CE0D4F8941204F11400022935D1C9
:105DF000D0E902639E4206D9F21A394682602046F3
:105E0000FFF71CFF0FE0B34214D14068984211D352
:105E1000D4F8981288420DD2002220461146FFF78E
:105E20000DFFC4F8985200231A461946204600F088
:105E3000C7F813E094F89C02032808D1D4F8B802FC
:105E4000C16821B1C4F8D452C16820468847802176
:105E5000204600F040F92046FFF703FF94F8A00227
:105E600068B184F8A0520AE0D4F8B802426932B1AD
:105E7000C4F8D452426920469047002800D100203F
:105E8000BDE8F08170B5134604464FF0000221B121
:105E900094F89C02032830D03AE0D4F8941204F528
:105EA000AA70032934D1D0E902518D420AD96A1A65
:105EB00082600846824200D3024619462046FFF718
:105EC000B5FE25E094F8AA0210F01F0003D00128C7
:105ED00002D0022800D0002294F89C02032808D1A6
:105EE000D4F8B802016921B1C4F8D422016920466E
:105EF00088472046FFF7CDFE0AE0D4F8B802836950
:105F000033B1C4F8D422826920469047002800D1DA
:105F1000002070BD0020704710B5D0F8B8120122E3
:105F200080F89C22002429B103794A68D9B29047AD
:105F300000B10324204610BDD0F8C82201F07F0034
:105F40000B0600EBC00002EB800002D590F83E008B
:105F5000704790F87E02704710B5D0F8D42200EB5D
:105F60008202D2F8B82222B190F89C32032B02D0E0
:105F700004E0032010BD126A02B19047002010BD5A
:105F800010B5D0F8D42200EB8202D2F8B82222B1A8
:105F900090F89C32032B02D004E0032010BD526A1B
:105FA00002B19047002010BD10B51C46D0F8C802C1
:105FB00013462246FAF7F9FEBDE81040FFF7F1BE9E
:105FC00010B5D0F8C802FAF720FFBDE81040FFF77F
:105FD000E8BE2DE9F041044601250020D4F8B812AE
:105FE000064684F89C52C4F894026060C4F8A40287
:105FF00084F8A00231B14A6822B1002120469047BE
:1060000000B103262046002240231146FFF7CCFFB3
:106010004027A4F8645100223B4680212046C4F862
:106020006071FFF7C1FFA58430462762BDE8F081AB
:1060300090F89C12042903D190F89D1280F89C12CC
:106040000020704710B590F89C12032905D1D0F8B4
:10605000B81211B1C96901B18847002010BD01749F
:106060000020704710B5D0F8C802FBF731FABDE840
:106070001040FFF796BE70B5044600F2AA20054610
:1060800000F048F894F8AA020123B4F8B01210F016
:106090001F02C4F89432C4F898120AD0012A0ED014
:1060A000022A12D000F080012046BDE8704000F0C6
:1060B00012B829462046BDE8704000F0A9B829462C
:1060C0002046BDE8704000F0ECB929462046BDE806
:1060D000704000F034B910B5D0F8C802FAF7AFFE3E
:1060E000BDE81040FFF75DBE90F89C12042903D074
:1060F00090F89C1280F89D12042180F89C120020D8
:10610000704710B5D0F8C802FAF7D3FEBDE81040CA
:10611000FFF747BE70B5054608788C1C2870487894
:1061200068702046FFF74FF9A41C68802046FFF7EF
:106130004AF9A880A01CFFF746F9E88070BDD0F8A6
:10614000B83202460020002B02D01B6810461847C8
:10615000704700002DE9F0412C4E04468878002558
:106160008846C1B20129317006D941462046FFF761
:106170006DFD0320BDE8F08194F89C0202270228FF
:106180000CD003281DD041462046FFF75FFD317833
:106190002046FFF73DFD03252846EBE789B320465F
:1061A0006160FFF7CCFF050004D041462046FFF7B1
:1061B0004DFD1DE02046FFF76CFD032084F89C0296
:1061C000EAE7C1B1606888421BD0C1B22046FFF740
:1061D0001FFD317820466160FFF7B1FF050010D048
:1061E00041462046FFF732FD21792046FFF710FD9A
:1061F00084F89C72D0E7616084F89C722046FFF7B7
:1062000007FD2046FFF745FDC6E700001800002403
:106210002DE9F0410A784FF0000512F060020CD031
:10622000202A01D0402A7DD1D0F8D42200EB82026E
:10623000D2F8B8229268904731E04B7800220126CC
:106240000A2B6FD2DFE803F041666E586E08056EC8
:106250002D29FFF729FD67E004468888D8B9C8884A
:10626000C8B94888802816D294F89C2200F07F078D
:10627000032A10D03946204684F89E72FFF7F2FEBA
:106280002046FFF706FD1FB1022084F89C024BE078
:1062900084F89C6248E0204644E0FFF75BFF054637
:1062A00042E0CB88012B3DD190F89C32012B04D0E9
:1062B000022B02D0032B35D104E000F108018260EB
:1062C000012216E00122011D13E090F89C22012A10
:1062D00003D0022A01D0032A24D1CA88022A21D15C
:1062E000D0F8A412C66009B10321C160022200F1F6
:1062F0000C01FFF7C1FC17E04A88012A02D0022AEC
:1063000003D00FE0C0F8A46216E08988090A80F87B
:10631000A01211E090F89C32012B08D0022B06D07D
:10632000032B04D0FFF792FC2846BDE8F081498892
:106330000129F9D1C0F8A422FFF7ABFCF4E72DE95D
:10634000F0410A780E460979054612F060004FF0D8
:106350000008CCB20BD0202801D040286AD12146B9
:106360002846FFF75FFCFF2800D0D8B396E070788E
:10637000C8B3012824D003285CD195F89C020228D8
:1063800002D0032856D10CE0002C53D0802C51D0E1
:1063900021462846FFF79FFE80212846FFF79BFEF7
:1063A0007CE0708840B93CB1802C05D0F08818B9E9
:1063B00021462846FFF78FFE2846FFF76AFC6DE06E
:1063C00095F89C020228DFD0032863D1708880BB37
:1063D000600603D021462846FFF7EFFC2846FFF76A
:1063E00058FCBCE700E00AE0C5F8D402D5F8B802D2
:1063F0008268F2B131462846904780464EE095F8D3
:106400009C020027022802D0032843D113E00CB1DC
:10641000802C3FD1200604F07F0000EB800005EBCC
:10642000800101D5143101E001F5AA7102220F604B
:106430002CE033E02EE0200604F00F0000EB80009B
:1064400005EB800009D5808C20B304F07F0000EBC1
:10645000800005EB800614360AE0B0F86401C8B18C
:1064600004F07F0000EB800005EB800606F5AA76BD
:106470004CB1802C07D021462846FFF75DFD10B1B6
:106480000120306000E03760022231462846FFF7E5
:10649000F3FB03E031462846FFF7D8FB4046BDE852
:1064A000F08170B5054608780E464FF0000410F0F4
:1064B000600003D0202801D0402827D195F89C0205
:1064C000012803D0022801D003281FD1B088C1B20F
:1064D00001291AD8C1B22846FFF7A6FBFF280CD025
:1064E00058B9D5F8B8128A683AB1C5F8D402284626
:1064F0008A6831469047044600E00324F088204330
:1065000007D12846FFF7C5FB03E031462846FFF7D1
:106510009DFB204670BD000070B54D7801230A78C0
:10652000012D1C4C02F00F0503FA05F3D0F81C589E
:1065300017D000EB421245EA0343C0F81C38D2F8EA
:10654000000B00040BD40B890979D2F8000BC3F3BC
:106550000A03184344EA81410843C2F8000B0020B3
:1065600070BD9EB23543C0F81C5800EB4213D3F8FF
:1065700000090004F3D40D890979D3F80009C5F3A3
:106580000A058904284341EA825108432043C3F89D
:106590000009E4E700800010D0F800196FF30A0149
:1065A000C0F80019D0F8041841F48071C0F804183C
:1065B0000020704710B5144C036CA34203D9D0F8E7
:1065C000003B002B1EDB0023C0F8103B0129D0F854
:1065D000101B41F40021C0F8101BD0F8101B41F033
:1065E0001801C0F8101BD0F8101B41F0C041C0F8D2
:1065F000101B07D1C0F8142BD0F8001B41F08021EC
:10660000C0F8001B002010BD0A30544F0B784A78A8
:10661000012A00EB43100BD0D0F8002B22F400121B
:10662000C0F8002B0979032914D0022912D017E0F1
:10663000D0F8002922F40012C0F8002909790329B2
:1066400001D002290CD1D0F8001941F08051C0F8D6
:10665000001905E0D0F8001B41F08051C0F8001B84
:10666000002070470A784B78D1B2012B00EB421022
:1066700012D0D0F8002B002A06DB29B1D0F8001B7D
:1066800021F08041C0F8001BD0F8001B41F400113C
:10669000C0F8001B00207047D0F80029002A06DB54
:1066A00029B1D0F8001921F08041C0F80019D0F8C4
:1066B000001941F40011C0F80019EBE7F8B50B78A8
:1066C0006FF060464F788A4DDCB2012F00EB431328
:1066D0002BD0D3F8107B002C07EAC544C3F8104B2D
:1066E000D3F8104B04EA0504C3F8104B7ED00D69B3
:1066F000002D7CD08C6825446D1EB5FBF4F5ADB241
:106700006C430C6206EAC545D3F8104B2C43C3F822
:10671000104BD3F8104B0D6AC5F3120554EA05046B
:10672000C3F8104B012A6ED0C9E00F6937B3D3F814
:1067300010796FF31207C3F81079D3F8107907EACC
:106740000507C3F810794CB30F698D68D3F810C9E9
:106750002F447F1EB7FBF5F506EAC54545EA0C0553
:10676000C3F810590E69D3F81059C6F31206354311
:10677000C3F810590D79012D1CD027E0D3F810690A
:106780002E40C3F81069D3F8105945F40025C3F81A
:106790001059D3F810596FF3120515E00E698D6882
:1067A000AE4200D90D61D0F8106946F40026C0F859
:1067B0001069D7E7D3F8105925F0C045C3F8105930
:1067C000D3F8105945F00055C3F81059012A1BD0D1
:1067D00000EB4413D3F8004944F00444C3F80049E3
:1067E0000C79012C31D00A6972B301E042E055E026
:1067F0000B78D0F83418012203F00F039A401143AC
:10680000C0F8341871E056E0CA691AB100EB4413BD
:10681000C3F81429097901290ED1D0F80818C9053F
:1068200000EB4411D1F8002902D442F0005201E0FB
:1068300042F08052C1F8002900EB4410D0F8001952
:1068400041F00441C0F800194FE0D0F80848E405D1
:10685000D3F8004902D444F0005401E044F08054DD
:10686000C3F8004900920B8A0A78C9689BB200F00D
:1068700093F93AE00C690CB18C680C618C680C627D
:10688000C4F31205D0F8104B2C43C0F8104BD0F8CD
:10689000104B44F40024C0F8104B43E78D68D3F844
:1068A000104BC5F312052C43C3F8104BD3F8104B13
:1068B00044F4002434E7CA680AB1C3F8142B0979F8
:1068C00001290CD1D0F80808C005D3F8000B02D478
:1068D00040F0005001E040F08050C3F8000BD3F8C6
:1068E000000B40F00440C3F8000B0020F8BD00008E
:1068F000FFFF07E038B5002242F210740023009237
:106900000A784D78012D00EB421219D0D2F8005BC5
:10691000002D3CDAD2F8005B45F00065C2F8005B60
:106920000A7800EB4212D2F8005B45F08045C2F8CD
:10693000005B009A521C0092A24221D9012326E05A
:10694000D2F80059002D22DAD2F8005945F000653E
:10695000C2F800590A7800EB4212D2F8005945F00B
:106960008045C2F80059009A521C0092A242E5D814
:106970000A7800EB4212D2F80029002AF3DB06E085
:106980000A7800EB4212D2F8002B002AD1DB18461D
:1069900038BD000018B50E4A00230093009C641C0B
:1069A000009494420CD80469002CF7DA2024009358
:1069B00044EA811101610099491C0091914201D979
:1069C000032018BD01698906F5D4002018BD000018
:1069D000400D0300D0F8080810F0060004D002288B
:1069E00003D0062801D00F2070470220704740696D
:1069F00000F001007047D0F81818D0F81C080840C3
:106A000080B27047D0F81818D0F81C080840000C65
:106A1000704710B5D0F8102801F00F0300EB4114B7
:106A2000D0F83418D4F80809D94001F0010142EA3D
:106A3000C111084010BD00EB4111D1F8081BD0F87E
:106A40001408084070474169806908407047034650
:106A5000084630B5940802F00301002203F5805384
:106A600003E01D68521C40F8045BA242F9D30029E0
:106A70000CD01C680023491EDD00090403F101034A
:106A8000090C24FA05F200F8012BF4D130BDD0F83E
:106A900000284FF4FE6303EA011322F4FE62C0F8FB
:106AA0000028D0F800181943C0F8001800207047DB
:106AB000022A3ED1264A274B0A449A4201D20F218C
:106AC00038E0254A254B0A449A4201D20E2131E092
:106AD000234A244B0A449A4201D20D212AE0224A39
:106AE000224B0A449A4201D20C2123E0204B214A36
:106AF0000B44934201D20B211CE01F4B1F4A0B4455
:106B0000934201D20A2115E01D4B1E4A0B449342C9
:106B10000FD31D4B1D4A0B44934201D2082109E0BB
:106B20001B4B1C4A1944914201D2072102E0062165
:106B300000E00921C2684FF4705322F47052C26021
:106B400003EA8123C1681943C16000207047000037
:106B5000405327FF00350C00401E1BFF40420F0032
:106B600000DC0BFF804F1200808CF9FE20D6130052
:106B700060B6E5FE60E3160000D3CEFE40771B0052
:106B8000C05BB3FEC091210000CA91FE20753800A1
:106B9000E05459FEE09C410010B5029C74B900EB32
:106BA0000232DB1C00209B0802F5805204E000BF8B
:106BB00051F8044B1460401C9842F9D3002010BDDA
:106BC000FEE700000FB4054B10B503A9044A029874
:106BD00000F0EAF810BC5DF814FB0000D97400085E
:106BE0001C000024090700284FEA116104DB00F1B2
:106BF000E02080F80014704700F00F0000F1E02062
:106C000080F8141D704702E008C8121F08C1002A4E
:106C1000FAD170477047002001E001C1121F002A1D
:106C2000FBD170472DE9FF5F82B00021DDE9043020
:106C3000020DDDF840B0034318D044F61050A2F224
:106C4000FF3242431514119801281FD0A5EB0B0009
:106C5000401C5FEA000A4FF000064E4FDFF8389103
:106C6000B046504615D5CAF1000413E0119801242E
:106C70004AA3012801D16FEA0B010298119AC0E9D9
:106C80000031C0E9024206B0BDE8F09FCBF1000040
:106C9000DFE704460021404A491842EB0450CDE9A1
:106CA000001012E0E00707D032463B464046494616
:106CB000F9F72DFC8046894632463B461046194678
:106CC000F9F725FC06460F466410002CEAD1DDE9F1
:106CD0000401DDE90023BAF1000F06DAF9F717FC29
:106CE00042464B46F9F713FC05E0F9F782FC4246B1
:106CF0004B46F9F77EFC04460E460022284BF9F776
:106D0000FFFC03D84FF0FF30014607E00022254B7F
:106D100020463146F9F754FBF9F7DAFC102409E074
:106D2000002C0ADB0A220023F9F7D2FA039B303247
:106D30001A55641E50EA0102F2D1641C039AC4F190
:106D400011031444119A012A03D0012208430DD1E2
:106D50000AE0084304D000204FF0110B119072E7B5
:106D6000A3EB0B056D1E0DE05B4504DD4FF000024B
:106D700005F1010504E003DA4FF00002A5F1010579
:106D8000002AECD002981199C0E90231C0E900450F
:106D900079E70000000014400000F03F30000000E0
:106DA0000000F0430000E03F2DE9FF4F95B09B4607
:106DB0008946064600250FE2252877D1002427467C
:106DC000F84A0121059400E0044316F8013F203BF6
:106DD00001FA03F01042F7D130782A2811D06FF071
:106DE0002F033078A0F13002092A16D8059A44F012
:106DF000020402EB820203EB42021044761C05906F
:106E0000EFE759F8042B0592002A03DA504244F4C4
:106E10000054059044F00204761C30782E2816D1D8
:106E200016F8010F44F004042A280DD06FF02F0249
:106E30003078A0F13003092B09D807EB870302EB68
:106E40004303C718761CF3E759F8047B761C3078A7
:106E50006C280FD006DC4C2817D068280DD06A2883
:106E600014D104E0742810D07A280FD10DE044F436
:106E700000140AE044F4801401E044F440147278F1
:106E8000824202D104F58014761C761C3078662884
:106E90000BD013DC582877D009DC002875D04528A2
:106EA000F6D04628F4D047281AD19DE118E063288F
:106EB00035D0642879D0652812D195E1702873D037
:106EC00008DC6728F1D069286FD06E280DD06F28B4
:106ED00006D1B5E073282CD0752875D0782874D0E9
:106EE0005A46179990476D1C75E1C4F30250022869
:106EF00009D003280DD0D9F8001004280DD00D605A
:106F000009F1040967E1D9F80010EA17C1E9005254
:106F1000F6E7D9F800100D80F2E70D70F0E719F8E8
:106F2000041B8DF8001000208DF80100EA460120B6
:106F300003E059F804AB4FF0FF3061074FF0000158
:106F400002D40DE008F101018846B9420FDA80450C
:106F5000F8DB1AF808100029F4D108E008F1010163
:106F600088468142FADB1AF808100029F6D1059804
:106F70005B46A0EB080721463846179A00F094FAC2
:106F8000284400EB080507E04DE029E10DE01AF880
:106F9000010B5A4617999047B8F10108F7D25B46A2
:106FA00021463846179A13E142E00A220092C4F3C0
:106FB00002524FF0000A022A08D059F804CB032AE3
:106FC0004FEAEC710AD00DE029E02AE009F107014F
:106FD00021F00702F2E802C1914609E00FFA8CFCA9
:106FE0004FEAEC71042A03D14FFA8CFC4FEAEC71A2
:106FF000002907DA0A460021DCF1000C61EB0201EE
:107000002D2202E0220504D52B228DF80420012236
:1070100003E0E20701D02022F7E7904659E00A2179
:1070200002E010220DE010214FF0000A00910BE069
:1070300010224FF0000A44F004040827009203E0F5
:1070400008224FF0000A0092C4F30252022A05D02F
:1070500059F804CB0021032A08D009E009F10701FF
:1070600021F00702F2E802C1914605E01FFA8CFC0C
:10707000042A01D10CF0FF0C4FF00008220728D59C
:10708000702806D0009B83F0100353EA0A0305D052
:107090000EE040228DF80420012208E05CEA0102A3
:1070A00006D030228DF804208DF80500022290468B
:1070B000009B83F0080353EA0A030AD15CEA010249
:1070C00001D1620705D530228DF804204FF0010868
:1070D0007F1E582804D034A003900EA802900DE023
:1070E00036A0F9E753466046009AF9F7F1F884466E
:1070F0000398825C0298401E029002705CEA0100D4
:10710000F0D1029806A9081A00F1200A600702D5FA
:1071100024F4803400E00127574502DDA7EB0A0084
:1071200000E0002000EB0A01009005984144401A5D
:107130000590E00306D45B462146179A059800F0B7
:10714000B3F90544002706E001A85A46C05D179927
:1071500090476D1C7F1C4745F6DBE0030CD55B4672
:107160002146179A059800F09FF9054404E0302065
:107170005A46179990476D1C0099481E00900029A7
:10718000F5DC08E0029802995A460078491C029101
:10719000179990476D1CBAF10001AAF1010AF1DCC0
:1071A00065E10000092801003031323334353637CB
:1071B0003839616263646566000000003031323343
:1071C00034353637383941424344454600000000E3
:1071D00000F058F90544761C307800287FF4ECADB7
:1071E00019B02846BDE8F08F620700D4062709F1E0
:1071F000070222F0070CFCE80223E14603F00048F6
:107200005FEA080C02D00FF2702C0DE05FEA045C1C
:1072100002D50FF2682C07E05FEAC47C02D00FF2BF
:10722000602C01E0AFF2700C4FF0FF3823F0004308
:10723000CDF850C065280CD006DC452809D046287A
:107240001DD047283DD13DE0662818D067287ED163
:1072500038E00021112F01DB112000E0781CCDE97E
:10726000000106A90EA8FFF7DDFCDDE90F010E9A6B
:1072700003910021009207F1010A04914DE04FF0C3
:1072800000400097CDE9011006A90EA8FFF7CAFC3F
:10729000DDE90F0203920E9B11990022DDF80CA08C
:1072A0000093049211B9791C00EB010AB7EB0A00B4
:1072B00004D4C0F1FF3007F1010A0490AAEB0700E3
:1072C000019044E0012F00DA01270021112F01DD98
:1072D000112000E03846CDE9000106A90EA8FFF70D
:1072E000A1FCDDE90F010E9A0391002104910092A7
:1072F000BA4621070CD40399514500DA8A46BAF1FF
:10730000010F05DD009AAAF10101515C302908D076
:10731000B84202DA10F1040F06DA0121CDE90110BA
:1073200015E0AAF10101E9E7002805DC0499014410
:107330000491AAEB000102E0411C514500DD8A46A0
:107340000499401A401C01904FF000400290200721
:1073500004D40198504501DBCDF8048000208DF85D
:107360004F0002980DF14F07B0F1004F25D02B20B0
:107370000E9002984FF0020800280CDA404202906A
:107380002D200E9007E00A210298F8F7E4FF303133
:10739000029007F8011DB8F10001A8F10108F2DC24
:1073A00002980028EFD1791E0E980870307800F00E
:1073B000200040F0450007F8020D12A8C01B00F1A4
:1073C00007081498007800B1012000EB0A01019829
:1073D00001EBE07105984144401A401E0590E0031E
:1073E00006D45B462146179A059800F05DF80544DF
:1073F0001498007818B15A46179990476D1CE0030D
:1074000024D55B462146179A059800F04DF80544AF
:107410001CE00498002807DBDDE90301884203DD56
:107420000098405C179901E0179930205A46904720
:10743000049805F10105401C04900198401E01903C
:1074400004D12E205A46179990476D1CBAF10001BD
:10745000AAF1010ADDDC05E017F8010B5A4617997D
:1074600090476D1CB8F10001A8F10108F4DC5B46FF
:107470002146179A0598ABE62D0000002B0000006E
:10748000200000002DE9F041044600251E46174665
:10749000880404D405E039462020B0476D1C641EE2
:1074A000F9D52846BDE8F0812DE9F04104460025D4
:1074B0001E469046C80301D5302700E020278804E7
:1074C00004D505E041463846B0476D1C641EF9D529
:1074D0002846BDE8F081000013B50448642301226A
:1074E0006946FCF7F1FC00981CBD00009C000124DB
:1074F00037490A680020920311D4BFF34F8FBFF3BE
:107500006F8F344A1060BFF34F8FBFF36F8F0A68DD
:1075100042F400320A60BFF34F8FBFF36F8F0A68E7
:10752000D20322D42A4A70321060BFF34F8F101F4B
:1075300043F6FF740068274D1035C0F34E32C0F398
:10754000C90304EA4216184646EA80772F60401EB7
:10755000FAD2521EF5D2BFF34F8F086840F4803044
:107560000860BFF34F8FBFF36F8FF9F729FBFDF76B
:1075700031FFFCF703FDFCF767FD0020F9F77CF90C
:10758000154A011E11601ED014A0FFF71BFB00BF9F
:10759000FDF7DAFD18A0FFF715FB1C4C4FF4005661
:1075A0004FF47A75314601222046F9F7EFFA284662
:1075B000F9F7C4F9002231462046F9F7E7FA2846E0
:1075C000F9F7BCF9EEE712A0FFF7FCFAE0E70000DC
:1075D00014ED00E050EF00E000000024BCECB2E24B
:1075E000B2BBB5BD5344BFA8A3AC4552524F523AAB
:1075F0002025640D0A0000005344BFA8B6C1D0B4D2
:10760000B2E2CAD4B3C9B9A6200D0A0000080258D4
:107610005344BFA8B3F5CABCBBAFB3C9B9A6200DCC
:107620000A000000010002000400060008000A0031
:107630000C00100020004000800000010101010347
:107640000701000008040204080101010000000015
:107650000102030401020304060708097C760008FE
:107660000000002420000000066C00089C76000842
:1076700020000024400C0100166C000800000000EF
:107680000100000010000000000000000090D00386
:0C7690000090D00300000000000000008B
:040000050800029954
:00000001FF
