:020000040000FA
:1000000040BA704740BA704740BA704740BA70472C
:1000100040BA704740BA704740BA704740BA70471C
:1000200040BA7047C0BA7047C0BA7047C0BA70478C
:10003000C0BA7047C0BA7047C0BA7047C0BA7047FC
:10004000C0BA7047C0BA70474FEA3000704700002E
:100050004FEA3000704700004FEA30007047000060
:100060004FEA3000704700004FEA30007047000050
:100070004FEA3000704700004FEA30007047000040
:100080004FEA3000704700004FEA30007047000030
:1000900070B504460D46164602F0F0FE00F0B1FBC6
:1000A00000F02EF908B1012070BD0020FCE710B56A
:1000B000044600F025F908B1012010BD0020FCE73E
:1000C00010B500F0B4FA08B1012010BD0020FCE723
:1000D00010B5044604F1E044204600F078FA08B177
:1000E000012010BD0020FCE703460120704770B5D9
:1000F00004460D46164604F1E0412A46304600F01B
:1001000017FB002070BD2DE9F04105460E4617464D
:1001100005F1E04132460A48484400F032FB002431
:1001200009E007484844005D395D884202D028193B
:10013000BDE8F081641CB442F3D3A819F8E70000CD
:100140001800000010B586B00446142101A803F081
:1001500032F8F749206888427ED100BFF548006830
:1001600040F48040F34908600846006800F480408D
:10017000009000BF00BFEF485838006840F480404E
:10018000EC49583908600846006820F4804008604F
:1001900000BFE8480C30006840F00200E5490C312F
:1001A00008600846006800F00200009000BF00BF31
:1001B00000BF0846006840F002000860084600687A
:1001C00000F00200009000BF00BF00BF08460068BA
:1001D00040F0080008600846006800F00800009041
:1001E00000BF00BF00BF0846006840F0080008607C
:1001F0000846006800F00800009000BF00BF00BF84
:100200000846006840F0100008600846006800F0EA
:100210001000009000BF00BF00BF0846006840F01B
:10022000080008600846006800F00800009000BF61
:1002300000BF0220029000200390032004900420BD
:1002400001900920059001A9BB4801F0FDFC402068
:1002500001900A20059000E026E001A9B64801F0CF
:10026000F3FC4FF4006001900920059001A9B34808
:1002700001F0EAFC4FF4805001900920059001A99B
:10028000AE4801F0E1FC042001900920059001A98D
:10029000AB4801F0D9FC4FF40050019009200590C3
:1002A00001A9A64801F0D0FC06B010BD70B5A54D5F
:1002B0004D44002403E0002005F8010B641C4C2C85
:1002C000F9D39B489F4949440860084602F0F1F879
:1002D00097489C494944086001204860202199487A
:1002E000484481601021C1601621016100214161F3
:1002F000012181610021C161016202F085F870BDB8
:1003000010B5FFF7D3FF002010BD00B595B04FF436
:1003100080700D9000200E900F901290139014900A
:100320004FF08070109000200C9005200790002066
:100330000190059010200390800406900120049005
:10034000029041F2883301AA07A97E48484402F08E
:10035000DBFB18B16FF0020015B000BD0020FBE719
:1003600000B58FB04FF4807007900020089009907E
:100370000C900D900E900A9006906620019041F22C
:10038000883201A96F48484402F09BF918B14FF038
:10039000FF300FB000BDFFF7B8FF10B16FF00200E3
:1003A000F7E79920019041F2883201A96548484455
:1003B00002F087F910B14FF0FF30EAE7FFF7A5FF31
:1003C00010B16FF00200E4E70020E2E710B590B052
:1003D0004FF4807008904001059000200A900D9025
:1003E0000E900F9009904FF080700B9000200790B6
:1003F00003200C909F20029041F2883202A95148BC
:10040000484402F05EF941F2883201A94D4848445F
:1004100002F072FA9DF8040000049DF8051040EA0D
:1004200001209DF8061040EA0104204610B010BDDE
:1004300000B591B04FF48070099040010690002003
:100440000B900E900F9010904FF440600A90800334
:100450000C9006200890EB20039000200290019061
:10046000FFF77EFF01AA03A93648484402F018FCB2
:1004700018B16FF0050011B000BD0020FBE700B51A
:1004800095B04FF480700D9000200E900F90129058
:100490001390149010900C900620079041F288322F
:1004A00007A92848484402F00CF918B16FF0010080
:1004B00015B000BD0220019002900020059001209F
:1004C00004901020039080040690052007904FF0C0
:1004D000807010900120119041F2883301AA07A981
:1004E0001848484402F010FB10B16FF00200DFE73B
:1004F0000020DDE710B58EB004464FF48070069002
:1005000040010390002008900B900C900D904FF448
:1005100080600790002009900590019420200090B1
:10052000FFF7ADFF80B16FF001000EB010BD00000D
:1005300000500052D444025800040258000C0258E3
:10054000001002581820000041F288326946A9487C
:10055000484402F0B6F810B16FF00300E5E7FFF78A
:10056000D4FE10B16FF00200DFE70020DDE710B528
:100570008EB004464FF48070069040010390002036
:1005800008900B900C900D904FF480600790002025
:1005900009900590019452200090FFF770FF18B168
:1005A0006FF001000EB010BD41F2883269469148EB
:1005B000484402F086F810B16FF00300F2E7FFF74D
:1005C000A4FE10B16FF00200ECE70020EAE710B5DE
:1005D0008EB004464FF480700690400103900020D6
:1005E00008900B900C900D904FF4806007900020C5
:1005F000099005900194D8200090FFF740FF18B1B2
:100600006FF001000EB010BD41F2883269467948A2
:10061000484402F056F810B16FF00300F2E7FFF71C
:1006200074FE10B16FF00200ECE70020EAE700B5BD
:1006300095B04FF480700D9040010A9000200F900B
:100640001290139014900E9010900C90C720079069
:10065000FFF715FF18B16FF0010015B000BD41F2B2
:10066000883207A96348484402F02BF810B16FF0B4
:100670000300F2E700200190059010200390800411
:100680000690012004900290052007904FF08070A2
:10069000109001201190584B01AA07A955484844D1
:1006A00002F032FA10B16FF00200D6E70020D4E772
:1006B00070B58EB004460D4616464FF48070069015
:1006C00040010390002008900B900C900D904FF487
:1006D000806007904FF040700990002005900A96C6
:1006E000019532200090FFF7CAFE18B16FF00100AB
:1006F0000EB070BD41F2883269463E48484401F070
:10070000E0FF10B16FF00400F2E741F288322146B9
:100710003848484402F081F810B16FF00400E7E770
:10072000FFF7F3FD10B16FF00200E1E70020DFE713
:100730002DE9F04D83460D461646E8B2C0F58078A7
:10074000B04500D9B0462C46AF19DA4600BF1FFAB3
:1007500088F221465046FFF7ABFF18B16FF0040056
:10076000BDE8F08D4444C24404F58070B84201D91C
:10077000381B01E04FF480708046BC42E7D3002074
:10078000EEE770B58EB004460D4616464FF4807005
:10079000069040010390002008900B900C900D9063
:1007A0004FF44060079080030990062005900A9658
:1007B0000195EB20009041F2883269460D4848448B
:1007C00001F07FFF18B16FF004000EB070BD41F270
:1007D000883221460748484402F08EF810B16FF085
:1007E0000400F2E7FFF791FD10B16FF00200ECE7B3
:1007F0000020EAE718200000A08601000146002042
:10080000704700B59DB04C210AA802F0D4FC20210D
:1008100002A802F0D0FC3048006820F004002E4905
:10082000086000BF002001902B480C30006840F4A5
:10083000404029490C3108600846006800F44040F7
:1008400001902648006840F00100244908600846ED
:10085000006800F00100019000BF00BF00BF1E480B
:100860000C30006800F40050B0F5005FF7D10120B3
:100870000A9000040B90022013900221149105218C
:100880001591C021169102211791189119910821F3
:100890001A9100211B911C910AA800F018FC10B1BC
:1008A00001201DB000BD3F200290032003900020D6
:1008B00004900820059040200690079000010890C1
:1008C00040200990042102A800F053FE08B1012045
:1008D000E7E70020E5E700000C4802582C04005828
:1008E000704770B50446FE484844007808B90120B6
:1008F00070BDFB48484400784FF47A71B1FBF0F0CA
:10090000F84949440968B1FBF0F5284601F02EFC8E
:1009100008B10120ECE7102C08D200222146501E1D
:1009200001F094FBF0484844046001E00120DFE757
:100930000020DDE710B5032001F076FB00F016FD86
:10094000EA490968C1F30321E94A7A44515C01F09C
:100950001F0120FA01F4E548006800F00F0011467D
:10096000085C00F01F0024FA00F0E24949440860E6
:10097000DC48484404600F20FFF740FF08B1012025
:1009800010BDFFF7ADFF0020FAE7704710B5DA4859
:10099000D6496431086000200860D848091D086005
:1009A0000020086040F27120091D086000200860E6
:1009B000D348091D0860002008601820091D086040
:1009C00000200860CF48091D0860002008604FF42F
:1009D0009B70091D086000200860CB48091D086055
:1009E00000200860C948091D086000200860FFF762
:1009F000CCFF002010BDC64848440068B8494944AF
:100A000009780844C249494408607047C0484844CE
:100A100000687047B44848440068704770B50446A1
:100A20000025AF4848440078A0420DD0AC48484467
:100A300006780470AC4848440068FFF7DFFE0546BE
:100A400015B1A74848440670284670BDA4484844DC
:100A50000078704770B50446FFF7D8FF0646254674
:100A6000681C18B19E4848440078054400BFFFF751
:100A7000CDFF801BA842FAD370BD4FF0E020006983
:100A800020F002004FF0E021086170474FF0E020B5
:100A9000006940F002004FF0E021086170479D4876
:100AA00070479D480068000C70479B480068C0F381
:100AB0000B0070479948006870479848001D00680F
:100AC000704796480830006870479549096821F0DA
:100AD00070010143924A116070479149096821F001
:100AE000020101438E4A116070478D49091D096852
:100AF00021F03F0101438A4A121D1160704710B571
:100B00008748006840F0010085490860FFF77EFFD4
:100B1000044606E0FFF77AFF001B0A2801D90320EC
:100B200010BD7F48006800F008000028F2D00020C7
:100B3000F6E77B48006820F00100794908607047BB
:100B40007849096821F460010143764A11607047D1
:100B5000744A126882430A43724B1A6070477148A4
:100B6000006840F480706F49086070476D48006805
:100B700020F480706B490860704738B90B0C6A4AE2
:100B8000126863F31F42684B1A6009E0664A121D3F
:100B900012686FF30F0242EA1142634B1B1D1A6089
:100BA000704760481C30006840F001005D491C310E
:100BB000086070475B481C30006820F0010059490C
:100BC0001C310860704757481C30006840F4803082
:100BD00054491C310860704752481C30006820F4AA
:100BE000803050491C31086070474E491C310968FB
:100BF00021F0020101434B4A1C3211607047494AFF
:100C00002432126822F0FF0241EA00131A43454BD6
:100C100024331A6070474048406840F001003E4964
:100C2000486070473C48406820F001003A494860FD
:100C300070473948406840F00200374948607047C3
:100C40003548406820F00200334948607047324818
:100C5000406840F004003049486070472E484068C2
:100C600020F004002C49486070473049096821F0A1
:100C7000407101432D4A116070472C48006800F014
:100C80004070704710B54209520102F1B0425268FB
:100C900000F01F040123A3409A4343095B0103F1C1
:100CA000B0435A604209520102F1B042126800F0AA
:100CB0001F040123A3409A4343095B0103F1B0439E
:100CC0001A6001F48012B2F5801F37D14209520137
:100CD00002F1B042126800F01F040123A34027E094
:100CE0000C0000001000000008000000184402582A
:100CF0007E280000140000003150010023C0000ACB
:100D0000FF072803FFC3FFE83330D731AADE2000F6
:100D10000400000000010B010010005C00E8F11F5E
:100D2000003C0058040400580807005800400052D6
:100D30001A4343095B0103F1B0431A6001F4001246
:100D4000B2F5001F0ED14209520102F1B0425268C1
:100D500000F01F040123A3401A4343095B0103F180
:100D6000B0435A6010BD4109490101F1B0418968A1
:100D700000F01F0301229A4011434209520102F17F
:100D8000B0429160704700F01F020121914042097A
:100D9000120102F1B042C2F88810704730B501F478
:100DA0008033B3F5803F23D18AB943091B0103F196
:100DB000B043D3F8803000F01F050124AC40A343BA
:100DC0004409240104F1B044C4F8803010E0430920
:100DD0001B0103F1B043D3F8803000F01F0501245C
:100DE000AC4023434409240104F1B044C4F88030EA
:100DF00001F40033B3F5003F23D18AB943091B0145
:100E000003F1B043D3F8843000F01F050124AC4057
:100E1000A3434409240104F1B044C4F8843010E031
:100E200043091B0103F1B043D3F8843000F01F05E0
:100E30000124AC4023434409240104F1B044C4F824
:100E4000843030BD70B50B467BB94409640104F1B0
:100E5000B044E46800F01F060125B540AC434509E5
:100E60006D0105F1B045EC600EE04409640104F148
:100E7000B044E46800F01F060125B5402C43450945
:100E80006D0105F1B045EC60C0F3001424B94409CC
:100E90000B4D05EB441104E04409094D2D1D05EBF4
:100EA00044110C681F2505EA40060325B540AC43F4
:100EB0001F2505EA400502FA05F52C430C6070BDBC
:100EC0001000005810B5FE48006800F00F00072819
:100ED0000ED2FB48006820F00F00C01DF8490860E2
:100EE0000846006800F00F00072801D0012010BD5F
:100EF000FFF78CFD0446F348006840F00100F1491B
:100F0000086006E0FFF782FD001B022801D90320DC
:100F1000EDE7EC48006800F004000028F2D0E94852
:100F2000001D006840F08040E649091D086000206F
:100F3000E44910310860E448E44949440860E44960
:100F400049440860E34848440068FFF757FC08B18B
:100F50000120CCE7FFF75AFD044608E0FFF756FDF5
:100F6000001B41F28831884201D90320BFE7D548F0
:100F70001030006800F038000028EFD1FFF746FD80
:100F80000446D0480068D4490840CE49086006E0CD
:100F9000FFF73CFD001B642801D90320A7E7C948DF
:100FA000006800F400300028F2D1FFF72FFD04465E
:100FB000C448006820F08070C249086006E0FFF76E
:100FC00025FD001B022801D9032090E7BD480068D9
:100FD00000F000700028F2D1FFF718FD0446B94870
:100FE000006820F08060B749086006E0FFF70EFD5A
:100FF000001B022801D9032079E7B248006800F0FD
:1010000000600028F2D1FFF701FD0446AD480068FA
:1010100020F08050AB49086006E0FFF7F7FC001BAA
:10102000022801D9032062E7A648006800F00050BA
:101030000028F2D1A34918310860091D0860091D74
:101040000860A6489F4928310860A548091D086026
:10105000A448091D08600020091D0860A148091D59
:1010600008600020091D08609E48091D08600020D6
:10107000091D08609348006820F4802091490860A9
:101080000020904960310860401E8E496831086038
:101090008C48D030006840F480308A49D0310860F4
:1010A0008748006800F00F0007280ED984480068C0
:1010B00020F00F00C01D824908600846006800F05B
:1010C0000F00072801D0012011E700200FE7F0B53D
:1010D00001467C481030006800F038047948283018
:1010E000056809B90120F0BD087800F0010000286A
:1010F00059D0102C05D0182C0ED105F00300022871
:101100000AD170480068C0F3404000284BD04868BE
:10111000002848D10120E6E700BF4868B0F5803FCD
:1011200006D16848006840F48030664E306028E0A0
:10113000486858B96348006820F48030614E3060D8
:101140003046006820F4802030601AE04868B0F52E
:10115000A02F0BD15B48006840F48020594E3060CE
:101160003046006840F4803030600AE0554800683E
:1011700020F48030534E30603046006820F48020E8
:10118000306000BF486838B100BF4E480068C0F307
:1011900040400028F9D006E000BF4A480068C0F38C
:1011A00040400028F9D1486A00287DD045481030D9
:1011B000006800F03800182877D0486A022875D1F6
:1011C0004048006820F080703E4E306000BF3D48CF
:1011D0000068C0F340600028F9D100BFD1E90A607F
:1011E00046EA0010374E2836366840F2F337BE43E1
:1011F0003043344E28363060088E401EC0F308005D
:101200004E6B761E4FF47E4707EA462630430E8F1C
:10121000761EFF0107EA064630433C26765C761EC2
:101220003F0207EA06663043264E3036306000BF84
:10123000301F006820F00100361F30602148343034
:1012400000684FF6F876B0438E6C40EAC6001D4E3B
:10125000343630601B482C30006820F00C000E6CD7
:101260003043184E2C3630603046006820F00200C3
:101270004E6C3043134E2C3630603046006840F4DC
:10128000803030603046006840F4003030603046D6
:10129000006840F4802030603046006840F0010073
:1012A00030600848006802E05EE030E021E040F095
:1012B0008070044E306000BF0248006814E00000F7
:1012C00000200052004402580090D003100000009B
:1012D000140000000800000045EDF6FF00020202C5
:1012E0000000FF0180020101C0F340600028E3D04C
:1012F0003AE0F948006820F08070F74E306000BF97
:10130000F5480068C0F340600028F9D12CE0F248AD
:1013100028300368F04830300268486A012821D03C
:1013200003F00306886A86421CD1C3F30516C86A17
:10133000B04217D1C2F30806086B401E864211D195
:10134000486B401EC2F34626B0420BD1886B401E4C
:10135000C2F30646B04205D1C86B401EC2F3066612
:10136000B04201D00120BEE60020BCE6F0B5DA4E66
:101370001036366806F0380636B1082E13D0102E17
:1013800013D0182E7DD112E0D34E3668C6F3401626
:101390003EB1D14E3668C6F3C107D04E26FA07F0EB
:1013A00000E0CE48E3E0CE48E1E0CE48DFE0CA4EC0
:1013B0002836366806F00304C74E28363668C6F36A
:1013C0000511C54E2C36366806F00105C24E34367E
:1013D0003668C6F3CC0616FB05F601EE106AB8EEC9
:1013E000410A00296FD024B1012C4ED0022C6BD1C0
:1013F0006BE0B94E3668C6F3401636B3B64E366863
:10140000C6F3C107B54E26FA07F301EE103AF8EE1F
:10141000411A01EE101AB8EE411A81EE812A9FEDB1
:10142000B21AC0EE011AAC4E30363668C6F3080662
:1014300001EE106AB8EE411A31EE811AF7EE001A89
:1014400031EE211A62EE010A1EE001EE101AB8EE2A
:10145000411ADFEDA61A81EE812A9FEDA31AC0EE94
:10146000011A9D4E30363668C6F3080601EE106A42
:10147000B8EE411A31EE811AF7EE001A31EE211A58
:1014800000E072E062EE010A5BE001EE101AB8EED5
:10149000411A9FED972AC2EE011A9FED931A80EE32
:1014A000012A8D4E30363668C6F3080601EE106A02
:1014B000B8EE411A32EE011AB7EE002A31EE021AE6
:1014C00061EE810A3DE04EE01DE001EE101AB8EE3B
:1014D000411ADFED881A81EE812A9FED831AC0EE52
:1014E000011A7D4E30363668C6F3080601EE106AE2
:1014F000B8EE411A31EE811AF7EE001A31EE211AD8
:1015000062EE010A1DE001EE101AB8EE411A9FEDDD
:10151000782AC2EE011A9FED741A80EE012A6E4EEF
:1015200030363668C6F3080601EE106AB8EE411A86
:1015300032EE011AB7EE002A31EE021A61EE810A8C
:1015400000BF00BF644E30363668C6F34626721CB4
:1015500001EE102AB8EE411AC0EE811ABCEEE11A73
:1015600011EE100A00E0002001E05D4800BF00BF5E
:10157000F0BD2DE9F04104460D4614B90120BDE847
:10158000F0815D48006800F00F00A8420ED25A4872
:10159000006820F00F00284357490860084600689B
:1015A00000F00F00A84201D00120E8E7207800F009
:1015B0000400042811D1484918312069096801F054
:1015C0007001884209D944481830006820F0700042
:1015D00021690843404918310860207800F008006C
:1015E000082811D13C491C316069096801F070017B
:1015F000884209D938481C30006820F070006169C1
:10160000084335491C310860207800F0100010288C
:1016100011D131491C31A069096801F4E0618842A7
:1016200009D92D481C30006820F4E060A169084306
:1016300029491C310860207800F02000202811D1B1
:1016400025492031E069096801F07001884209D913
:1016500021482030006820F07000E16908431E49ED
:1016600020310860207800F00200022811D11A49C8
:101670001831E068096801F00F01884209D916485D
:101680001830006820F00F00E16808431249183153
:101690000860207800F00100E8B10F4818300068B9
:1016A00020F47060A16808430B4918310860606835
:1016B000022806D108480068C0F3404078BB0120EA
:1016C0005DE76068032819D103480068C0F34060F3
:1016D00028BB012053E737E0004402580090D003B4
:1016E00000093D0040787D01000000460024744C54
:1016F0000024744A20BCBE4B0020005260680128C0
:1017000006D1F9480068C0F3002040B9012036E74F
:10171000F5480068C0F3800008B901202FE7FFE713
:10172000F1481030006820F0070061680843EE4976
:101730001031086000BFEC481030006800F038003D
:101740006168B0EBC10FF6D1207800F002000228EA
:1017500011D1E5491831E068096801F00F018842AC
:1017600009D2E1481830006820F00F00E168084312
:10177000DD4918310860DD48006800F00F00A8421C
:101780000ED9DA48006820F00F002843D7490860D6
:101790000846006800F00F00A84201D00120EEE6E4
:1017A000207800F00400042811D1CF4918312069B5
:1017B000096801F07001884209D2CB4818300068EE
:1017C00020F0700021690843C7491831086020786B
:1017D00000F00800082811D1C3491C31606909686C
:1017E00001F07001884209D2BF481C30006820F027
:1017F000700061690843BC491C310860207800F022
:101800001000102811D1B8491C31A069096801F4F1
:10181000E061884209D2B4481C30006820F4E060DE
:10182000A1690843B0491C310860207800F020000D
:10183000202811D1AC492031E069096801F070011C
:10184000884209D2A8482030006820F07000E16981
:101850000843A54920310860FFF788FDA2491831E7
:101860000968C1F30321A24A7A44515C01F01F01C7
:1018700020FA01F69C481830006800F00F0011466D
:10188000085C00F01F0026FA00F09A4949440860FD
:10189000994848440660994848440068FEF7AEFFFE
:1018A000074638466BE670B586B006460C461546C8
:1018B0004EBB00BF8C48E030006840F001008A4910
:1018C000E03108600846006800F00100009000BFA9
:1018D00000BF4FF48070019002200290032004901A
:1018E00000200390059001A9854800F0ADF97E48DD
:1018F0001030006820F0FE7044EA050108437A4980
:101900001031086028E000BF7748E030006840F000
:1019100004007549E03108600846006800F00400E2
:10192000009000BF00BF4FF40070019002200290B1
:101930000320049000200390059001A9714800F055
:1019400083F969481030006820F07E4044EAC511F0
:10195000084365491031086006B070BD62480068F0
:1019600040F400206049086070475F48006820F438
:1019700000205D490860704710B5FFF7F7FC5A4931
:1019800018310968C1F303215F4A7A44515C01F0C0
:101990001F0120FA01F454481830006800F00F00CD
:1019A0001146085C00F01F0024FA00F05149494438
:1019B00008605148484404600846006810BD00B5FE
:1019C000FFF7DAFF48491C310968C1F302114E4A9A
:1019D0007A44463A515C01F01F01C84000BD00B591
:1019E000FFF7CAFF40491C310968C1F30221464A8A
:1019F0007A44663A515C01F01F01C84000BD10B541
:101A000004463F2020603848006800F48020B0F58C
:101A1000802F03D14FF4A02060600CE032480068B2
:101A200000F48030B0F5803F03D14FF48030606027
:101A300001E0002060602C48006800F080008028F1
:101A400001D1E06101E00020E061FFF72AF841F2F6
:101A50000301884206D82448001D0068C0F3846052
:101A6000206205E020480C300068C0F30560206269
:101A70001D48006800F0010010B10120E06001E0A5
:101A80000020E060FFF70DF841F20301884206D81C
:101A90001548001D0068C0F30530206105E01248BC
:101AA000001D0068C0F3066020610F4870300068B8
:101AB00000F00400042802D10520A0600AE00A48D2
:101AC0007030006800F0010010B10120A06001E05A
:101AD0000020A06004487430006800F00100A8B144
:101AE0000120606114E00000004402580020005210
:101AF0006019000014000000100000000800000041
:101B000000000258000802583E18000000206061E2
:101B10004B48006800F48050B0F5805F02D101208E
:101B2000A06101E00020A0614548006800F08070DD
:101B3000B0F1807F02D10220606201E0012060628A
:101B40003F482830006800F00301A1623C4828307B
:101B50000068C0F30511E162394830300068C0F315
:101B60000800401C2063364830300068C0F306602F
:101B7000401CE063324830300068C0F34620401C0F
:101B800060632F4830300068C0F30640401CA063FB
:101B90002B482C30006800F00C01216428482C30C0
:101BA0000068C0F340016164254834300068C0F328
:101BB000CC01A16410BD3F220260214A103212689C
:101BC00002F0070242601E4A1832126802F4706284
:101BD00082601B4A1832126802F00F02C260184A73
:101BE0001832126802F070020261154A1C32126843
:101BF00002F070024261124A1C32126802F4E06282
:101C000082610F4A2032126802F07002C2610D4AEE
:101C1000126802F00F020A607047704710B508485A
:101C20006430006800F48060B0F5806F06D1FFF783
:101C3000F4FF4FF4806002496831086010BD000075
:101C40000044025800200052F8B502460B4600211D
:101C5000E04DD7E001278F401E6806EA0704002CFC
:101C600072D01E7906F00306012E04D01E7906F00C
:101C70000306022E13D190684F000326BE40B043E6
:101C80004F00DE68BE4030439060506801268E40B1
:101C9000B0431E79C6F300168E40304350601E7963
:101CA00006F00306032E09D0D0684F000326BE407D
:101CB000B0434F009E68BE403043D0601E7906F0AE
:101CC0000306022E13D1CF0802F1200656F8270092
:101CD0004E07F70E0F26BE40B0434F07FF0E1E699A
:101CE000BE403043CF0802F1200646F827001068B6
:101CF0004F000326BE40B0431E7906F003064F0096
:101D0000BE40304310605E6806F44036002E78D046
:101D100000BFB14E366846F00206AF4F3E603E4609
:101D2000366806F00206009600BF00BFAB4E8F0873
:101D300056F827008E07370F0F26BE40B043A84E37
:101D4000B24202D100262EE05BE0A64EB24201D1A3
:101D5000012628E0A44EB24201D1022623E0A34E80
:101D6000B24201D103261EE0A14EB24201D10426A7
:101D700019E0A04EB24201D1052614E09E4EB242B7
:101D800001D106260FE09D4EB24201D107260AE09E
:101D90009B4EB24201D1082605E09A4EB24201D1D3
:101DA000092600E00A268F073F0FBE4030438B4EC6
:101DB0008F0846F827004FF0B0463068A0435E68B1
:101DC00006F4801606B120434FF0B04630607068CC
:101DD000A0435E6806F4001606B120434FF0B046FB
:101DE00070606868A0435E6806F4003606B1204360
:101DF00068602868A0435E6806F4803606B1204318
:101E00002860491C1E68CE40002E7FF423AFF8BD29
:101E1000F0B50C4600216F4B98E001268E4006EA93
:101E20000402002A7ED06D4E8F0856F827508E0788
:101E3000370F0F26BE403540694EB04201D1002613
:101E40002DE0684EB04201D1012628E0664EB04236
:101E500001D1022623E0654EB04201D103261EE0E7
:101E6000634EB04201D1042619E0624EB04201D166
:101E7000052614E0604EB04201D106260FE05F4E09
:101E8000B04201D107260AE05D4EB04201D10826DA
:101E900005E05C4EB04201D1092600E00A268F071A
:101EA0003F0FBE40AE421FD11E6896431E605E6863
:101EB00096435E604FF0B046766896434FF0B04769
:101EC0007E603E46366896433E608E07370F0F268B
:101ED00006FA07F5414E8F0856F82760AE433F4F8C
:101EE0004FEA910C47F82C6006684FEA410C032733
:101EF00007FA0CF73E430660CF0800F1200656F8BB
:101F000027604F074FEAD76C0F2707FA0CF7BE433D
:101F10004FEAD10C00F1200747F82C60C6684FEA61
:101F2000410C00E011E0032707FA0CF7BE43C6603E
:101F3000476801268E40B743476086684FEA410CE8
:101F4000032707FA0CF7BE438660491C24FA01F602
:101F5000002E7FF462AFF0BD024613690B400BB157
:101F6000012000E0002070470AB1816101E00B040C
:101F70008361704710B5426921EA020302EA010455
:101F800043EA0443836110BD08B502464FF4803034
:101F900000900098084300900098D061D1610098AB
:101FA000D061D0690090D06900F4803008B1002081
:101FB00008BD0120FCE7704710B50446054808300D
:101FC0000068204028B10348083004602046FFF72D
:101FD000F2FF10BD80000058F44402580804005875
:101FE000000002580004025800080258000C025871
:101FF000001002580014025800180258001C025821
:10200000002002580024025810B5002804DB0A07FB
:10201000130EEF4A135406E00A07140EED4A00F0BF
:102020000F031B1FD45410BD00BF00F00702E94B83
:102030000C3B19684FF6FF031940E74B0B4343EA8B
:102040000221E44B0C3B196000BF70472DE9F04DB5
:1020500080460D46164600F0B4F9074639462A4632
:10206000334601F00700C0F1070BBBF1040F02D9A2
:102070004FF0040B01E0C0F1070BDA4600F1040B4E
:10208000BBF1070F02D24FF0000B01E0A0F1030BF0
:10209000DC464FF0010B0BFA0AFBABF1010B0BEA2C
:1020A000020B0BFA0CFB4FF0010E0EFA0CFEAEF118
:1020B000010E0EEA030E4BEA0E0421464046FFF7DE
:1020C000A3FFBDE8F08D0146084600280DDB00BFE8
:1020D00000BF00F01F0301229A4043099B0003F157
:1020E000E023C3F8002100BF00BF00BF704710B558
:1020F00001460846002817DB00F01F0301229A4022
:10210000B64B440943F8242000BF00BF00BFBFF313
:102110004F8F00BF00BF00BF00BF00BF00BFBFF3B5
:102120006F8F00BF00BF00BF00BF10BD00BF00BF6A
:1021300000BF00BF00BFBFF34F8F00BF00BF00BF95
:10214000A4480C38006800F4E060A3490843001D6F
:10215000A0490C39086000BF00BF00BFBFF34F8F1C
:1021600000BF00BF00BF00BF00BFFDE770B5044661
:102170002546681EB0F1807F01D301200FE0681E64
:102180004FF0E02148610F214FF0FF30FFF73CFF97
:1021900000204FF0E021886107200861002070BD19
:1021A00000BF00BF00BFBFF35F8F00BF00BF00BF15
:1021B00088480C30006820F4803086490C31086073
:1021C000002084497C310860704740F00101814A59
:1021D0007C3211607F490C31096841F480317D4ABD
:1021E0000C32116000BF00BF00BFBFF34F8F00BFB4
:1021F00000BF00BF00BF00BF00BFBFF36F8F00BFB5
:1022000000BF00BF70474178724A80321160017888
:10221000F9B1121D41681160017B0907C27A41EAD8
:102220000261827A41EAC241427B41EA8241827B79
:1022300041EA4241C27B41EA0241427A41EA02213B
:10224000027A41EA420102781143624A88321160FF
:1022500005E000215F4A84321160121D1160704751
:1022600010B500F0AEF810BD2DE9F045044620464B
:10227000002803DB564F3F5C3F0907E0554F00F055
:102280000F0CACF1040C17F80C703F093D460E46DC
:1022900006F00700C0F10708B8F1040F02D94FF0AB
:1022A000040801E0C0F10708C44600F10408B8F1D1
:1022B000070F02D24FF0000801E0A0F103084746E3
:1022C00025FA07F84FF0010A0AFA0CFAAAF1010AF6
:1022D00008EA0A08C2F800804FF0010808FA07F877
:1022E000A8F1010808EA0508C3F8008000BFBDE8AE
:1022F000F08510B501460846002808DB00F01F03F2
:1023000001229A40354B8033440943F8242000BF12
:1023100010BD10B50146084600280EDB2F4A80325A
:10232000430952F8232000F01F040123A3401A4060
:102330000AB1012202E0002200E00022104610BD96
:1023400010B501460846002807DB00F01F030122F4
:102350009A40234B440943F8242000BF10BD10B518
:102360000146084600280EDB1D4A8032430952F818
:10237000232000F01F040123A3401A400AB10122C8
:1023800002E0002200E00022104610BD042808D11F
:102390004FF0E021096941F004014FF0E0221161A2
:1023A00007E04FF0E021096921F004014FF0E0223D
:1023B00011617047704710B5FFF7FCFF10BD032097
:1023C000704704480C380068C0F3022070470000D2
:1023D00000E400E018ED00E00000FA0580E100E014
:1023E00080E200E030B50446039D00BF20688068AD
:1023F000084008B1012000E000209042F6D1002002
:1024000030BD816470477047F8B50446FEF7FEFAA8
:1024100006460CB90120F8BD206A402800D000BF54
:1024200094F8410038B92046FDF78CFE41F288311E
:102430002046FFF7E6FF2068006820F4F851A06806
:10244000401E41EA002021680860A06C334600224B
:10245000202100902046FFF7C5FF054635BB2179B6
:10246000E06840EA0160E1690843216A08432168A5
:102470000968FE4A1140084321680860208A6169A2
:1024800041EA0040A169084321684968F84A1140BF
:102490000843216848602068006840F00100216816
:1024A000086000206064012084F841002846B2E7FB
:1024B000704710B504460CB9012010BD20680068B3
:1024C00020F00100216808602046FFF7F1FF00209E
:1024D000606484F8410000BFEFE710B54B6A33B188
:1024E000B2F1406F03D08B6A5B1E046823618B6975
:1024F000002B76D00B6AE3B38B680468E361CB6989
:10250000FBB1D1E90B3423434C6B23434C6A234387
:102510008C8A43EA84430C6923430C6A2343CC68C6
:102520002343CC6923438C6923430C68234313431F
:1025300004686361B2F1406F02D04B680468A36124
:10254000BEE0D1E90B3423434C6B23434C6A234355
:102550008C8A43EA84430C6923430C6A2343CC6985
:1025600023438C6923430C6823431343046863614A
:10257000A6E0FFE7CB69EBB1D1E90B3423434C6B09
:1025800023434C6A23438C8A43EA84430C6A2343E3
:10259000CC682343CC6923438C6923430C682343D1
:1025A000134304686361B2F1406FC9D04B6804689B
:1025B000A36185E0D1E90B3423434C6B23434C6A80
:1025C00023438C8A43EA84430C6A2343CC69234324
:1025D0008C6923430C6823431343046863616FE0F1
:1025E000FFE70B6AC3B38B680468E361CB69EBB1A7
:1025F000D1E90B3423434C6B23434C6A23438C8A2D
:1026000043EA84430C6923430C6A2343CC68234385
:10261000CC6923438C692343134304686361B2F19B
:10262000406F4DD04B680468A36149E0D1E90B3499
:1026300023434C6B23434C6A23438C8A43EA8443F1
:102640000C6923430C6A2343CC6923438C692343DD
:1026500013430468636133E0FFE7CB69DBB1D1E981
:102660000B3423434C6B23434C6A23438C8A43EA49
:1026700084430C6A2343CC682343CC6923438C698D
:102680002343134304686361B2F1406F18D04B6871
:102690000468A36114E04B6A93B1D1E90B3423437E
:1026A0004C6B23434C6A23438C8A43EA84430C6A71
:1026B0002343CC6923438C69234313430468636138
:1026C00010BD2DE9F84304460D461746FEF79EF966
:1026D0008046A86900B100BFE86900B100BF286A60
:1026E00000B100BF00BF94F84000012802D10220D1
:1026F000BDE8F883012084F8400000BF94F8410051
:10270000012828D100206064022084F8410043465B
:102710000022202120460097FFF764FE0646DEB91E
:10272000002229462046FFF7D8FE686A78B943465A
:102730000122022120460097FFF754FE06465EB9AB
:1027400002202168C860012084F8410004E00120D3
:1027500084F8410000E0022600BF002084F8400019
:1027600000BF3046C4E7F8B504460D46FEF74EF903
:102770000746A86900B100BFE86900B100BF286A38
:1027800000B100BF00BF94F84000012801D1022031
:10279000F8BD012084F8400000BF94F841000128F2
:1027A00033D100206064022084F84100A06C3B46D5
:1027B0000022202100902046FFF714FE0646FEB9B5
:1027C000686A10B903202168C860002229462046A3
:1027D000FFF783FE686A58B900BF002084F8400004
:1027E00000BF2068006840F440302168086012E0B3
:1027F000012084F8410000BF002084F840000AE076
:1028000000BF002084F8400005E0022600BF002041
:1028100084F8400000BF3046BAE72DE9F845044689
:102820000E4617460025FEF7F1F88046206800F1B5
:10283000200A00BF94F84000012802D10220BDE820
:10284000F885012084F8400000BF94F84100012879
:102850004AD100206064002E40D0122084F841004C
:1028600020680069401CE062206803E02FFFFF0041
:10287000FEF8E0FF0069401CA062666220684069C3
:1028800020F040602168486113E0434601220421A2
:1028900020460097FFF7A6FD054605B10CE0606AEB
:1028A00000788AF80000606A401C6062E06A401E9E
:1028B000E062E06A0028E8D100BF5DB9434601222A
:1028C000022120460097FFF78DFD054615B902202D
:1028D0002168C860012084F8410006E0606C40F087
:1028E00008006064012500E0022500BF002084F894
:1028F000400000BF2846A2E72DE9F84F04460E46E7
:1029000017460025FEF782F880462068D0F818A008
:10291000206800F1200B00BF94F84000012802D18C
:102920000220BDE8F88F012084F8400000BF94F831
:10293000410001284AD100206064002E40D02220AE
:1029400084F8410020680069401CA0632068006989
:10295000401C606326632068406920F0406040F0BE
:102960008060216848612068C0F818A013E04346E1
:102970000122062120460097FFF734FD054605B1E8
:102980000CE09BF80000216B0870206B401C20635A
:10299000A06B401EA063A06B0028E8D100BF5DB90A
:1029A00043460122022120460097FFF71BFD054602
:1029B00015B902202168C860012084F8410006E0B2
:1029C000606C40F008006064012500E0022500BF53
:1029D000002084F8400000BF2846A2E710B5024658
:1029E000002300BF92F84000012801D1022010BD51
:1029F000012082F8400000BF92F8410001282DD14B
:102A00000020506401B3122082F841001068006970
:102A1000401CD06210680069401C90625162032023
:102A20001468E0601068406920F0406014686061DC
:102A300000BF002082F8400000BF1068006840F42A
:102A4000E020146820600FE0506C40F008005064F3
:102A5000012300BF002082F8400005E0022300BFF0
:102A6000002082F8400000BF1846C0E730B502469B
:102A700000231068846900BF92F84000012801D14A
:102A8000022030BD012082F8400000BF92F84100D2
:102A9000012831D10020506421B3222082F8410066
:102AA00010680069401C906310680069401C506306
:102AB000116303201568E8601068406920F04060E9
:102AC00040F08060156868611068846100BF002074
:102AD00082F8400000BF1068006840F4E0201568EC
:102AE00028600FE0506C40F008005064012300BFE4
:102AF000002082F8400005E0022300BF002082F899
:102B0000400000BF1846BCE72DE9F84504460E46D4
:102B100015469846FDF77AFF8246B06900B100BFBE
:102B2000F06900B100BF306A00B100BF00BF94F887
:102B30004000012802D10220BDE8F885012084F878
:102B4000400000BF94F8410001283AD100206064A1
:102B5000422084F841005346002220212046CDF82F
:102B60000080FFF73FFC074657BB28682168886252
:102B7000686821684862A8682168C862206800689F
:102B800020F44000296941F480010843216808606D
:102B9000E868B0624FF0006231462046FFF79DFCC6
:102BA0005346012208212046CDF80080FFF71AFC89
:102BB00007462FB908202168C860012084F8410029
:102BC00000E0022700BF002084F8400000BF384624
:102BD000B2E72DE9F84304460E461546FDF716FF09
:102BE0008046B06900B100BFF06900B100BF306A33
:102BF00000B100BF00BF94F84000012802D10220BC
:102C0000BDE8F883012084F8400000BF94F841003B
:102C100001283DD100206064422084F84100A06C6E
:102C200043460022202100902046FFF7DBFB0746A9
:102C30004FBB286821688862686821684862A86874
:102C40002168C862D5E9040108432168096821F4B4
:102C5000400108432168086009202168C860E868CD
:102C6000B0624FF0006231462046FFF736FC00BFED
:102C7000002084F8400000BF2068006840F4102065
:102C8000216808600AE000BF002084F8400005E0E9
:102C9000022700BF002084F8400000BF3846AFE79D
:102CA0002DE9F84304460D461646FDF7AFFE804673
:102CB000A86900B100BFE86900B100BF286A00B18F
:102CC00000BF00BF94F84000012802D10220BDE8F7
:102CD000F883012084F8400000BF94F841000128E7
:102CE0002CD100206064822084F84100A06C43460F
:102CF0000022202100902046FFF774FB0746F7B919
:102D00002068006820F008007168084321680860A6
:102D1000706808280BD1306821680863102021688A
:102D2000C8602068006840F48010216808604FF097
:102D3000406229462046FFF7D0FB00E0022700BF93
:102D4000002084F8400000BF3846C0E77047704755
:102D5000704770477047704770477047014691F859
:102D6000410070470146486C7047F8B5044600259D
:102D7000FDF74CFE064694F8410000F0020050B307
:102D800000BF002084F8400000BF2068006840F0C9
:102D9000020021680860A06C3346012202210090E5
:102DA0002046FFF71FFB05465DB902202168C86079
:102DB000A06C33460022202100902046FFF712FB32
:102DC000054645B92068406920F0406021684861A7
:102DD000012084F841002846F8BD10B502460023C2
:102DE00000BF92F84000012801D1022010BD01204F
:102DF00082F8400000BF92F8410001280BD1916099
:102E00001068006820F4F8549068401E44EA0020DE
:102E10001468206000E0022300BF002082F8400018
:102E200000BF1846E2E7014608680068C0F30420C6
:102E3000401C704710B50246002300BF92F84000C6
:102E4000012801D1022010BD012082F8400000BFFE
:102E500092F84100012808D1D1611068006820F083
:102E6000800008431468206000E0022300BF0020B7
:102E700082F8400000BF1846E5E70000B748006848
:102E800040F47000B5490860B548006800F00F00D4
:102E9000072806D2B248006820F00F00C01DB049D4
:102EA0000860B048006840F00100AE4908600020AA
:102EB000AC4910310860AB480068AB490840A949EB
:102EC0000860A748006800F00F00072806D9A4484A
:102ED000006820F00F00C01DA14908600020A14932
:102EE00018310860091D0860091D08609F489D4948
:102EF000283108609E48091D08609E48091D086029
:102F00000020091D08609B48091D08600020091D5C
:102F100008609848091D08600020091D0860914854
:102F2000006820F480208F49086000208D496031BE
:102F30000860914800686FF30F00B0F1005F02D2A3
:102F400001208E49086043F2D2008D490860704725
:102F5000F0B5844F10373F6807F0380737B1082FB6
:102F60000CD0102F0CD0182F73D10BE07D4F3F6881
:102F7000C7F3C10C834F27FA0CF1CEE08249CCE0B5
:102F80008249CAE0774F28373F6807F00304754F3E
:102F900028373F68C7F30510724F2C373F6807F09A
:102FA0000105704F34373F68C7F3CC0717FB05F7AF
:102FB00001EE107AB8EE410A00287BD024B1012C32
:102FC00029D0022C64D145E0664F3F68C7F3C10C9D
:102FD0006C4F27FA0CF201EE102AB8EE412A01EEEE
:102FE000100AB8EE411AC2EE011A9FED691A80EE7E
:102FF000012A5C4F30373F68C7F3080701EE107AAB
:10300000B8EE411A32EE011AB7EE002A31EE021A7A
:1030100061EE810A65E001EE100AB8EE411A9FEDFB
:103020005D2AC2EE011A9FED5A1A80EE012A4D4F19
:1030300030373F68C7F3080701EE107AB8EE411A3F
:1030400032EE011AB7EE002A31EE021A61EE810A61
:1030500047E05AE001EE100AB8EE411A9FED4E2A01
:10306000C2EE011A9FED4A1A80EE012A3D4F303719
:103070003F68C7F3080701EE107AB8EE411A32EE46
:10308000011AB7EE002A31EE021A61EE810A28E039
:10309000344F3F68C7F3C10C3A4F27FA0CF201EEE8
:1030A000102AB8EE412A01EE100AB8EE411AC2EE1B
:1030B000011A00E027E09FED361A80EE012A294F21
:1030C00030373F68C7F3080701EE107AB8EE411AAF
:1030D00032EE011AB7EE002A31EE021A61EE810AD1
:1030E00000BF00BF1F4F30373F68C7F346277B1C28
:1030F00001EE103AB8EE411AC0EE811ABCEEE11AA8
:1031000011EE101A00E0002107E0164F3F68C7F3E8
:10311000C10C1C4F27FA0CF100BF00BF114F18372C
:103120003F68C7F30327DFF874C0FC441CF807604E
:10313000F1400C4F18373F6807F00F071CF8077075
:1031400007F01F0721FA07F7DFF854C0CC44CCF88A
:103150000070144F4F443960F0BD000088ED00E06E
:1031600000200052004402587FEDF6EA00020202FD
:103170000000FF01800201010010005C0881005185
:10318000004000520090D00300093D0040787D01CE
:10319000000000460024744A20BCBE4B9E00000084
:1031A0001400000010000000D2B201E000F8012B72
:1031B000491EFBD270470022F6E710B513460A46B7
:1031C00004461946FFF7F0FF204610BD000000003E
:1031D00001020304010203040607080900000000BD
:1031E0000000000010000000010000000090D0036B
:0431F0000090D00378
:020000040000FA
:1031F40001014452475F53544D3332483735305FF1
:103204005631000000000000000000000000000033
:1032140000000000000000000000000000000000AA
:10322400000000000000000000000000000000009A
:10323400000000000000000000000000000000008A
:10324400000000000000000000000000000000007A
:10325400000000000000000000000000000000006A
:10326400000000000000000000000000000000005A
:103274000000050000000090000080000020000015
:1032840000000000FF000000E803000070170000C9
:103294000000010000000000FFFFFFFFFFFFFFFF31
:1032A400000000000000000000000000000000001A
:1032B400000000000000000000000000000000000A
:1032C40000000000000000000000000000000000FA
:1032D40000000000000000000000000000000000EA
:0400000500000000F7
:00000001FF
