:020000040800F2
:10000000382B0024AD02000837510008753900086C
:100010003551000837040008CD7D000800000000BD
:10002000000000000000000000000000135A00085B
:10003000F105000800000000B3520008915A0008C2
:10004000C7020008C7020008C7020008C70200086C
:10005000C7020008C7020008C7020008C70200085C
:10006000C7020008C7020008C7020008C70200084C
:10007000C7020008C7020008C7020008C70200083C
:10008000C7020008C7020008C7020008C70200082C
:10009000C7020008C7020008C7020008C70200081C
:1000A000C7020008C7020008C7020008C70200080C
:1000B000C7020008C7020008C7020008C7020008FC
:1000C000C7020008C7020008C7020008C7020008EC
:1000D000C7020008C7020008C7020008C7020008DC
:1000E000C7020008C702000800000000C70200089D
:1000F000C7020008C7020008C7020008C7020008BC
:10010000C702000897550008C7020008C702000888
:10011000C7020008C7020008C7020008C70200089B
:10012000C7020008C7020008C7020008C70200088B
:10013000C7020008C7020008C7020008C70200087B
:1001400000000000000000000000000000000000AF
:10015000C7020008C7020008C7020008C70200085B
:10016000C7020008C7020008C7020008C70200084B
:10017000C7020008C7020008C7020008C70200083B
:10018000C7020008C7020008C7020008C70200082B
:10019000C7020008C7020008C7020008C70200081B
:1001A000C7020008C7020008C7020008C70200080B
:1001B000C7020008C7020008C7020008C7020008FB
:1001C000C7020008C7020008C7020008C7020008EB
:1001D000C702000839510008C7020008C70200081A
:1001E000C7020008C7020008C7020008C7020008CB
:1001F000C7020008C7020008C7020008C7020008BB
:10020000C7020008C7020008C7020008C7020008AA
:10021000C7020008C7020008C7020008C70200089A
:10022000C7020008C7020008C7020008000000005B
:10023000C7020008C702000800000000C70200084B
:10024000C7020008C7020008C7020008C70200086A
:10025000C7020008C7020008C7020008C70200085A
:10026000C7020008C7020008C7020008C70200084A
:10027000C7020008C7020008C7020008000000000B
:10028000C7020008C7020008C702000800000000FB
:1002900000000000C7020008DFF80CD000F08CF866
:1002A00000480047DD880008382B002406488047B6
:1002B00006480047FEE7FEE7FEE7FEE7FEE7FEE74B
:1002C000FEE7FEE7FEE7FEE7B15B000899020008E3
:1002D0002DE9F05F0546002092469B46884606467B
:1002E000814640241BE0284641464746224600F00E
:1002F00053F853465A46C01A914110D31146184636
:10030000224600F03AF82D1A67EB01084F462246C4
:100310000120002100F031F817EB00094E41201EAA
:10032000A4F10104DFDC484631462A464346BDE8D5
:10033000F09F40EA01039B0703D009E008C9121FA0
:1003400008C0042AFAD203E011F8013B00F8013B8F
:10035000521EF9D27047D2B201E000F8012B491EBB
:10036000FBD270470022F6E710B513460A46044652
:100370001946FFF7F0FF204610BD202A04DB203A83
:1003800000FA02F1002070479140C2F1200320FAE8
:1003900003F3194390407047202A04DB203A21FAE6
:1003A00002F00021704721FA02F3D040C2F120028E
:1003B0009140084319467047064C074D06E0E06837
:1003C00040F0010394E8070098471034AC42F6D39C
:1003D000FFF766FFA81B0108C81B010870B58C1841
:1003E00010F8015B15F0070301D110F8013B2A1149
:1003F00006D110F8012B03E010F8016B01F8016B36
:100400005B1EF9D12B0705D40023521E0DD401F831
:10041000013BFAE710F8013BCB1A921C03E013F8FA
:10042000015B01F8015B521EF9D5A142D8D300202F
:1004300070BD70477047FEE700207047002070478E
:1004400005490022054810B506F028F9044903487B
:1004500006F017F9002010BD081800242C0B00240A
:10046000081000240146044810B506F00AF90248B5
:1004700006F0E0F8002010BD2C0B0024002070478F
:100480007CB50C460546002004F072FBC4F17804EC
:100490004DB1681E00EB4000400000EE100A012242
:1004A000B8EEC00A16E001228C2178209FED220AC6
:1004B00005F0E2FA8C222146684600F03BFBDDE9BC
:1004C000000182B28BB28C21782003F035FE9FEDC3
:1004D0001B0A01228C21782005F0CEFA8C222146BD
:1004E000684600F027FBDDE9000182B28BB28C2167
:1004F000782003F021FE05EB45000122400000EECC
:10050000100A8C217820B8EEC00A05F0B5FA8C22CA
:100510002146684600F00EFBDDE900454FF47F40C0
:1005200004F026FB02B0ABB2A2B2BDE870408C2151
:10053000782003F001BE0000000000000000B1437D
:1005400000EB40002DE9FC4140000D4600EE100A92
:10055000002401228C217820B8EEC00A05F08CFA24
:100560008C226846C5F1780100F0E4FA4FF47F4729
:10057000DDE90056384604F0FBFAB3B2AAB28C218A
:10058000782003F0D9FD322000F0ECFA002004F0CE
:10059000EFFAB3B2AAB28C21782003F0CDFD384631
:1005A00004F0E6FAC4EB04100122400000EE100A49
:1005B0008C217820B8EE400A05F05EFA8C2268465D
:1005C0001E2100F0B7FA8C2268462821DDE900568A
:1005D00000F0B0FADDE90023B1B2A8B29BB292B24A
:1005E00003F0AAFD641CE4B20C2CDBD3BDE8FC8153
:1005F000704700002DE9F05F0746994650000E460F
:1006000000254FF0010AC0F1000B1446C2F10108A9
:1006100050E000BFB8F1000F03DB0BF1020B641ECA
:10062000D8440AF1020A5FEA4972D04405F1010593
:100630000DD5301981B27A1990B2204A03F016FE16
:10064000701981B23A1990B21C4A03F00FFE5FEAAA
:1006500089700DD5301B81B27A1990B2174A03F018
:1006600005FE701B81B23A1990B2144A03F0FEFDE8
:100670005FEA09700DD5701981B23A1B90B20F4A2A
:1006800003F0F4FD301981B27A1B90B20B4A03F0EB
:10069000EDFD5FEAC9700DD0701B81B23A1B90B2BC
:1006A000064A03F0E3FD301B81B27A1B90B2034A85
:1006B00003F0DCFDA542ADDBBDE8F09F80FF8000CC
:1006C0002DE9FF5F81468846500014460127DDF87A
:1006D00038A00025C2F10106C0F1000B42E0002E57
:1006E00003DB0BF1020B641E5E44039807F1020763
:1006F0003E44C00705F1010518D00AEB4400401C38
:1007000082B2A8EB040309EB050C99B21FFA8CF036
:1007100003F08CFD0AEB4500A8EB050291B2401CEA
:1007200082B209EB040398B203F080FD03988007BE
:1007300018D50AEB4400401C82B2A8EB040CA9EBCC
:1007400005031FFA8CF198B203F070FD0AEB450027
:10075000A8EB050291B2401C82B2A9EB040398B247
:1007600003F064FDA542BADBBDE8FF9F2DE9FF4F12
:10077000C2F1010015461C468946411BAB4603FBEE
:1007800004F205FB05F091B061430023019057008E
:1007900007934600984607FB05F001FB04FA0C920C
:1007A000CDE904303FE0079A07991198521CA9EB54
:1007B00001010D925844109192B20F9089B280B20B
:1007C00003F034FD119810990D9AA0EB0B0089B23B
:1007D0000E9080B292B203F029FD0F981FFA89F1B2
:1007E0000D9A80B292B203F021FD0D9A1FFA89F1A1
:1007F0000E9892B280B203F019FD07980199401C3F
:100800000790049888443044049001980AEB48010A
:1008100000293044019006DD0598D044ABF1010B6E
:10082000C01B0590BA44DDE904018142BBDAC4F182
:100830000100A0EB04080C980021089108FB05F8C2
:1008400006FB04FB08FB05F88A460591029038E098
:10085000A9EB04000D9081B2089B1198651CAAB207
:1008600018440E9080B203F0E1FC0D98089A81B212
:100870001198801A0D9080B2AAB203F0D7FC0E989E
:10088000AAB21FFA89F180B203F0D0FC0D98AAB287
:100890001FFA89F180B203F0C9FC08980299401C44
:1008A000089005988A4438440590029808EB4A015C
:1008B00000293844029004DDC244641EABEB060BF1
:1008C000B04405985845C3DD15B0BDE8F08F2DE95B
:1008D000F04F87B004461E469046B1420D46DDE912
:1008E00010094FF0000BCDF800B007DD04EB080154
:1008F000EA180C1B551B561BA1EB04084E450ADDDC
:1009000009EB060200EB0801081AA2EB0909A2EBA9
:100910000906A1EB0008B54207DD04EB0801AA199E
:100920000C1B551B561BA1EB04084D4518D1A045C7
:100930002146424601DA144601E000DD1146A0429C
:1009400001DA044602E0884200DD01460A1B07B0D6
:10095000A9B2A0B2BDE8F04F521C92B203F046BC5F
:10096000A8EB04010691011BA0EB08000390701B8B
:100970000590A9EB05004E45CDE90110A9EB060055
:10098000049001D1B24601E0A6F1010A2F461BE016
:10099000059900989BFBF1F3029990FBF1F20699FF
:1009A0008B44DDE9000108440090181911198842B0
:1009B00002DD0144081A091A0A1A521C80B2B9B29F
:1009C00092B203F013FC7F1C5745E1DD0398BE1B78
:1009D0007D1B46430198454319E0049896FBF0F2CD
:1009E000029895FBF0F1039806440198054402EB48
:1009F00008002144884202DD0144081A091A0A1A33
:100A0000521C80B2B9B292B203F0F0FB7F1C4F458A
:100A1000E3DD07B0BDE8F08F2DE9F84F9846914629
:100A20000D4606460A9F89B2C7F1000BC41902EBB6
:100A30004B0A1FFA8AF2A0B203F0D8FB05EB0800BC
:100A40000090401E81B21FFA8AF2A0B203F0CEFBE2
:100A500008EB4B083D44B0B21FFA88F2A9B203F08C
:100A6000E5FB4E44701E1FFA88F2A9B280B203F073
:100A7000DDFB0123294620463A46FFF7BBFDF61B66
:100A80002946701E3A460223FFF7B4FD009804235E
:100A90003A46C51B701E691EFFF7ACFD01B020462B
:100AA000691E3A460823BDE8F04FFFF7A3BD2DE9C4
:100AB000F047984691460E460746DDE9085403F094
:100AC0003BFB23462A464146484603F035FB334666
:100AD0003A4621462846BDE8F04703F02DBB2DE9F4
:100AE000F84F15469A46884681460A9C89B2674265
:100AF000061902EB470292B2B0B203F05DFC09EBBB
:100B000005002246001B0AEB470708EB04057F1E81
:100B1000294601230097401EFFF7D2FD02232946F4
:100B2000304622460097FFF7CBFDBDE8F88F72B63E
:100B3000FEE700003EB5044602ABCDE90112084ACB
:100B4000D068009092ED020AD2E9000101AAB7EE46
:100B5000C00A04F0CFFCDDE90101C4E900013EBD9B
:100B60001000002470B5044600F030F90546601C02
:100B700002D004480078044400F028F9401BA04249
:100B8000FAD370BDDC0000242DE9F84F03247D4D1D
:100B900000234FF001094FF0B04B4FF00F0AE9E08E
:100BA00009FA03F73A4076D00E7906F00306012ED3
:100BB00001D0022E18D1D0F808C04FEA430ECE68FB
:100BC00004FA0EF82CEA080C06FA0EF646EA0C06B1
:100BD0008660D0F804C00E792CEA070CC6F3001624
:100BE0009E4046EA0C0646600E79F643B6070BD0E7
:100BF000C6684FEA43088F6804FA08FC26EA0C0628
:100C000007FA08F73743C7600E7906F00306022E8D
:100C100012D1DE080F694FEA437C00EB8606B64628
:100C2000366A4FEADC6C0AFA0CF807FA0CF726EA87
:100C300008063743CEF820700F7906684FEA43085C
:100C400007F0030704FA08FC07FA08F726EA0C067F
:100C5000374307604E6816F4403F1CD04A4E376851
:100C600047F00207376036689F0706F002060096D5
:100C700023F0030606F1B046B6463F0FD6F80864E7
:100C8000DFF808810AFA07FC404526EA0C0603D182
:100C90004FF0000C41E06CE0DFF8F4C0604502D199
:100CA0004FF0010C39E0DFF8ECC0604502D14FF0A5
:100CB000020C32E0DFF8E0C0604502D14FF0030CD7
:100CC0002BE0DFF8D8C0604502D14FF0040C24E0DF
:100CD000DFF8CCC0604502D14FF0050C1DE0DFF815
:100CE000C4C0604502D14FF0060C16E0DFF8B8C072
:100CF000604502D14FF0070C0FE0DFF8B0C060454F
:100D000002D14FF0080C08E0DFF8A4C0604502D122
:100D10004FF0090C01E04FF00A0C0CFA07FC4CEA0A
:100D2000060CCEF808C44F68DBF80060FF0226EA24
:100D3000020600D516435F46CBF80060D1F804C028
:100D4000DBF804605FEA8C2C26EA020600D5164325
:100D50007E606E684F6826EA0206BF0300D5164320
:100D60006E602E684F6826EA0206FF0300D5164320
:100D70002E605B1C0A6832FA03F67FF411AFBDE8FF
:100D8000F88F000080000058F44402580000025818
:100D90000004025800080258000C025800100258C3
:100DA0000014025800180258001C02580020025873
:100DB000002402580AB1816170470904FBE7000072
:100DC00001480068000C70470010005C0148806812
:100DD00070470000DC00002402488168027811445A
:100DE00081607047DC000024032010B500F086F815
:100DF00001F0E4FD0F4A104914681368C4F303229C
:100E000003F00F038A5CC95C02F01F0201F01F01AE
:100E1000D0400A4A20FA01F11160094908600F2008
:100E200000F010F808B1012010BD00F02BF80020F0
:100E300010BD000018440258D4190108EC00002429
:100E4000E800002470B50D4D04462878A0B14FF499
:100E50007A71B1FBF0F00A490968B1FBF0F002F0D9
:100E60008FFC48B9102C07D200222146501E00F0FA
:100E700025F800206C6070BD012070BDDC000024EE
:100E8000E8000024054808B5016841F0020101604E
:100E9000006800F00200009008BD0000F444025811
:100EA000002809DB410900F01F028900012001F13F
:100EB000E0219040C1F80001704700000E4BF0B4F3
:100EC0001B680D46C3F30223C3F10706042E00D9A5
:100ED0000426191D072901D2002300E0DB1E01248E
:100EE00004FA06F19C40491E2940641E99401440B2
:100EF0002143F0BC06F083BF0CED00E0064900F092
:100F0000070210B54FF6FF040868044B204040EA82
:100F100002201843086010BD0CED00E00000FA0547
:100F200001680123C0F80035002280F8F4248869A4
:100F3000044A40F000608861486D10434865002015
:100F400070470000030000107047006841620020F5
:100F50007047F0B503685D6A39B19F6A4C1E002086
:100F60004FF4827605EB17450BE045EA02409862A4
:100F700010E0471C06EB800053F800C0F8B205EB08
:100F80001C45A042F5D34FF4807000EB810045EA88
:100F900002421A500020F0BDD0F8080505F061BEED
:100FA00001EBC10200EB8202D0F80805926C05F05B
:100FB000B4BD01EBC10200EB8202D0F80805D2F803
:100FC000882205F006BED0F8080505F04CBE0A06DA
:100FD00001F00F0101EBC10100EB810101D53C31B2
:100FE00001E001F51F71006806F036BD01F00F0247
:100FF0000B0670B502EBC20104464FF001004FF042
:10100000000504EB810103D581F83D003C3103E08C
:1010100081F87D5201F51F710A7094F8BC24012AF1
:1010200008D084F8BC04206806F032FA002084F866
:10103000BC5470BD022070BD70B54268044601F01A
:101040000F00904201D9012070BD01F00F024FF056
:1010500000050B0602EBC2014FF0010204EB810117
:1010600003D581F83D203C3103E081F87D5201F544
:101070001F718D70087094F8BC04012808D084F8A2
:10108000BC24206806F074FB002084F8BC5470BDBA
:10109000022070BD01F00F0101EBC10100EB8100E6
:1010A000D0F8900270472DE9F04101F00F06044698
:1010B0000D064FF0010006EBC6014FF0000504EBF2
:1010C000810103D581F83D003C3103E081F87D5278
:1010D00001F51F714F788A600B710E7007B14E8356
:1010E000022B00D14D7194F8BC24012A09D084F858
:1010F000BC04206806F01AF9284684F8BC54BDE800
:10110000F0810220FBE770B501F00F05002405EB2C
:10111000C50100EB810101F5227181E81C0001F895
:101120000B4C01F80C5DC368012B00D1CA61027B36
:10113000006806F075FB002070BD70B50D46416873
:10114000044605F00F00884201D9012070BD290630
:101150004FF000064FF0010207D500EBC00104EB91
:10116000810181F83D203C3107E005EBC50104EB2E
:10117000810181F87D6201F51F718A70087094F811
:10118000BC04012807D084F8BC24206806F01CFBAE
:10119000280702D007E0022070BD217B04F2C44280
:1011A000206806F0B9FA002084F8BC6470BD70B500
:1011B00001F00F04002504EBC401012600EB8101BE
:1011C000483181E82C0001F80B6C01F80C4DC36824
:1011D000012B00D1CA61027B006806F021FB0020D0
:1011E00070BD00002DE9FC5F05680446284606F046
:1011F000D4FC00287ED1206806F0FBFC002879D0C2
:10120000D5F80808C0F30D20C4F8FC04206806F0E7
:10121000F0FC800704D52068416901F002014161BA
:10122000206806F0E6FCC10604F2C440009034D504
:101230002068816921F0100181612F6A07F00F0198
:10124000C7F3434001EBC101022804EB810606F518
:101250001F7602D0062811D01AE047F6F070074238
:1012600016D0C7F30A12F1681746284606F0C5FCE7
:10127000F16870693944F160384408E00099082247
:10128000284606F0BAFC7069C7F30A110844706179
:101290002068816941F010018161206806F0A9FC95
:1012A00000034FF0000A4FF0020B4FF001097CD50C
:1012B0002068002606F07CFC074674E0F80770D032
:1012C0002068F1B206F08DFC8046C00707D005EB20
:1012D0004611C1F8089B3146204603F033FF5FEA10
:1012E000087025D505EB46110820C1F8080BFC490C
:1012F000206800E042E2026C00EB461001928A4254
:10130000D0F8081B05D9090403D54FF40041C0F8F3
:10131000081B204600F038FBF1490198884207D9A4
:10132000E068012804D120680121009A06F0F4F950
:101330005FEAC86004D505EB46111020C1F8080B20
:101340005FEA88701CD56869000605D5D5F80408E1
:1013500040F48061C5F8041806EBC60004EB800079
:1013600090F87F1200F51F70012905D180F803A0C5
:101370002046F1B200F008FA05EB4611C1F808BBAF
:101380005FEA886004D505EB46112020C1F8080B00
:101390005FEA884005D505EB46114FF40050C1F8CF
:1013A000080B7F08761C002F88D1206806F021FCEE
:1013B00040036FD5206806F0F4FB0026074667E07F
:1013C000F80763D02068F1B206F0F9FB8046C00749
:1013D00023D0D5F8342806F00F0C05EB461309FA94
:1013E0000CF08243C5F83428C3F80899E068012856
:1013F0000FD106EBC60004EB8000D0E911121144B6
:10140000816436B9E06C20B920680121009A06F0A9
:1014100083F92046F1B2FFF7C3FD5FEA087004D5F7
:1014200005EB46110820C1F808095FEAC86004D539
:1014300005EB46111020C1F808095FEA486004D5A1
:1014400005EB46114020C1F808095FEA887016D5FF
:101450003146284606F074FB06EBC60004EB80001C
:1014600090F83F103C30012905D180F803A02046B8
:10147000F1B200F085F905EB4611C1F808B95FEA51
:10148000086003D53146204603F0C2FE7F08761C73
:10149000002F95D1206806F0ACFB002811DAD5F8B2
:1014A000040820F00101C5F8041894F8F404012898
:1014B0003BD0204600F04CFA2068416901F0004121
:1014C0004161206806F095FB00050BD5D5F80808AA
:1014D000C00702D0204600F07FFA2068416901F47D
:1014E00000614161206806F084FB00010AD5206894
:1014F000416901F00061416194F8F404E0B12046D3
:1015000000F06AFA206806F074FBC00472D5D5F8C2
:10151000040820F00101C5F804182068102106F025
:101520000FFB00214FF67F322DE00021204684F88A
:10153000F4A4FFF709FDBFE784F8F4942068406D38
:101540000121C0F38300C4F8F8042046FFF7FCFC37
:10155000D8E700BF05EB4110C0F80829D0F80039E2
:1015600023F40013C0F80039C0F8082BD0F8003B72
:1015700023F40013C0F8003BD0F8003B43F00063B5
:10158000C0F8003B491C60688842E3D8D5F81C08C5
:1015900040F00111C5F81C18206B68B1D5F884081B
:1015A00040F00B01C5F88418D5F8440840F00B0151
:1015B0002846C5F844180DE0D5F8140842F22B016E
:1015C0000843C5F81408D5F8100840F00B01284668
:1015D000C5F81018D0F8000820F4FE61C5F800180E
:1015E000217B2068009A06F097F82068416901F491
:1015F00080514161206806F0FCFA800417D520680C
:1016000005F0D4FE206806F0BBFA206101F090F9E5
:10161000217C2368CAB20146184606F04FFB2046DB
:1016200000F080F92068416901F4005141612068AF
:1016300006F0DFFA000707D5204600F08DF9206894
:10164000416901F008014161206806F0D2FA000604
:1016500016D5A869012620F08001A9610DE000BF20
:1016600006EBC60004EB800090F87F02012803D14E
:101670002046F1B2FFF7ABFC761C6068B042EFD8B1
:10168000206806F0B6FAC00221D501264F4616E0C2
:1016900006EBC60105EB461004EB8101D0F800090A
:1016A00091F84020012A09D1002807DAF0B281F828
:1016B0003F7040F080012046FFF789FC761C60688F
:1016C000B042E5D82068416901F480114161206889
:1016D00006F08FFA800234D501204B4629E0000045
:1016E0000A30544F00EBC00205EB401104EB8202BC
:1016F000D1F8001B92F88062012E19D1002917DA67
:1017000094F8FC6401F4803106F00106B1420FD177
:1017100082F87F32A96941F08002AA6169690906ED
:1017200006D4D5F8040840F40070C5F8040803E0B6
:10173000401C61688142D5D82068416901F40011DC
:101740004161206806F055FA400007D52046FFF7B2
:1017500023FC2068416901F080414161206806F066
:1017600048FA40070AD520684568680702D5204630
:10177000FFF729FC2068416829434160BDE8FC9FD0
:10178000D0F8080505F0C6BAD0F8080505F0D6BAB5
:101790002DE9F04104008AB005D094F8BD0400257D
:1017A000266820B108E001200AB0BDE8F08120469B
:1017B00084F8BC5400F066F8032084F8BD04F06B94
:1017C000C00500D4E560206805F0A0FF04F1100119
:1017D000684628228846FEF7ACFD94E80F0005F025
:1017E000F3FD0227D8BB2068002106F026FA00206E
:1017F000012610E000EBC001421C04EB810181F8DE
:101800003D6081F840504D648D64CD6481F83C00AA
:10181000A1F85600D0B261688142EBD8002011E0F7
:1018200000EBC001421C04EB810181F87D5281F87C
:101830008052C1F88452C1F88852C1F88C5281F8A4
:101840007C02D0B261688142EAD8282241466846CB
:10185000FEF76FFD94E80F0005F09CFE10B184F8D0
:10186000BD74A0E7606A84F8385084F8BD6401282C
:1018700002D12046FFF754FB206805F07DFE0020D2
:1018800092E7000010B5B6B00446142130A8FEF768
:1018900069FDC0216846FEF765FD1F492068884242
:1018A00038D100204FF480214FF440122292CDE92C
:1018B0000010684600F038FA08B1FFF738F900F078
:1018C000CDF81648016841F00101016000680A2363
:1018D000022200F00100359000204FF4C0513091F9
:1018E00030A9CDE93120CDE933030D48FFF74CF99C
:1018F0000A480838016841F0006101600068002270
:10190000114600F0006035906520FFF7D7FA65209A
:10191000FFF7C6FA36B010BD00000840E044025898
:101920000000025870B504460069012570B1022814
:1019300001D0FFF7FCF8D4F80805294605F06DFA48
:10194000D4F80805BDE8704005F021BA0025F2E79B
:10195000D0F8080505F04ABAD0F8080505F050BAE5
:1019600010B5044690F8BC0401280BD0012084F87F
:10197000381084F8BC04206806F08EF9002084F842
:10198000BC0410BD022010BDD0F8082500F2C441EF
:10199000104605F04EBA10B590F8BC140446006825
:1019A000012909D0012184F8BC14C16BC90509D4EF
:1019B000A16A012902D005E0022010BD816B41F42B
:1019C00080318163206806F096F8206805F0C6FD36
:1019D000002084F8BC0410BD10B50446D0F80805FA
:1019E00005F069FA2068D0F8001E41F00101C0F846
:1019F000001E206A002804D00248016841F0060158
:101A0000016010BD10ED00E0134970B50A68D243C3
:101A1000520705D5096801F00701814213D118E08A
:101A20000A6822F0070202430A60FFF7CFF90A4D65
:101A30004FF47A760446083D07E000BFFFF7C6F989
:101A4000001BB04201D9012070BD2868C04380044A
:101A5000F4D4002070BD00000C4802580248016810
:101A600041F08071016070470C48025802480168DB
:101A700041F48071016070470048025810B500F0D1
:101A800057FF05490968054AC1F30211515C01F08D
:101A90001F01C84010BD000020440258D41901089D
:101AA000494930B5484C0B1D0A68143409681D6853
:101AB000246802F00303C5F30012C1F30531C4F337
:101AC000CC04002914FB02F200EE102AF8EE400AC2
:101AD00075D03F4A9FED3D1AB7EE000A6BB1DFEDBE
:101AE0003D1A012B01D0022B64D002EE101A1168AE
:101AF000F8EE422A81EEA22A21E0334C283C2368EA
:101B00009B0612D5344B246801EE901A1168C4F379
:101B1000C104F8EE612AE34001EE903AC1F30801F6
:101B2000F8EE611A81EEA22A0BE001EE901ADFEDC9
:101B30002B2A00BFF8EE611A116882EEA12AC1F3C8
:101B4000080101EE901A1168F8EE611A40EE811A50
:101B500071EE800A62EE200AC1F3462101EE101AEE
:101B6000B8EE411A31EE001AC0EE811ABCEEE11A4D
:101B700080ED001A1168C1F3064101EE101AB8EEAB
:101B8000411A31EE001AC0EE811ABCEEE11A80ED66
:101B9000011A1168C1F3066101EE101AB8EE411A7C
:101BA00031EE000A80EE801ABCEEC10A80ED020A16
:101BB00030BD04E001EE901ADFED092ABAE70021FA
:101BC000016041608160F3E7284402580000003959
:101BD000384402580024744A0090D0030024744C06
:101BE00020BCBE4B494930B5484C0B1D0A681C341B
:101BF00009681D68246802F00303C5F30022C1F3DD
:101C00000551C4F3CC04002914FB02F200EE102AA3
:101C1000F8EE400A75D03F4A9FED3D1AB7EE000A34
:101C20006BB1DFED3D1A012B01D0022B64D002EE27
:101C3000101A1168F8EE422A81EEA22A21E0334CF4
:101C4000283C23689B0612D5344B246801EE901A79
:101C50001168C4F3C104F8EE612AE34001EE903A42
:101C6000C1F30801F8EE611A81EEA22A0BE001EE41
:101C7000901ADFED2B2A00BFF8EE611A116882EE90
:101C8000A12AC1F3080101EE901A1168F8EE611A59
:101C900040EE811A71EE800A62EE200AC1F34621FD
:101CA00001EE101AB8EE411A31EE001AC0EE811A98
:101CB000BCEEE11A80ED001A1168C1F3064101EE95
:101CC000101AB8EE411A31EE001AC0EE811ABCEEBD
:101CD000E11A80ED011A1168C1F3066101EE101AD4
:101CE000B8EE411A31EE000A80EE801ABCEEC10A4D
:101CF00080ED020A30BD04E001EE901ADFED092A02
:101D0000BAE70021016041608160F3E7284402588E
:101D100000000039404402580024744A0090D00367
:101D20000024744C20BCBE4B2DE9FE4F0546DFF865
:101D3000E48350F8081B0024F64FC943019005F1D5
:101D40002800264608F12408009008011DD4A86E3A
:101D500050B1B0F5801F0CD0B0F5001F0ED0B0F51B
:101D6000401F1ED001240FE0386840F40030386076
:101D700017E00198022103F09DFA03E00098022188
:101D800003F028FB04000CD026462888C043C00579
:101D900023D4A86D05281ED2DFE800F00C11161B15
:101DA0001B00AA6ED8F8001021F440111143C8F8A6
:101DB0000010EAE7386840F40030386009E0019824
:101DC000002103F077FA03E00098002103F002FB02
:101DD000044674B100E0012426462888C0438005EB
:101DE00028D4E86D80281ED00CDC90B140280ED19C
:101DF00014E0AA6DD8F8001021F007011143C8F8CB
:101E00000010EAE7C02813D0B0F5807F10D001247D
:101E10000FE0386840F40030386009E00198002194
:101E200003F048FA03E00098002103F0D3FA0446D7
:101E30009CB126462888DFF8DC92C04309F12C09C2
:101E400040052CD4D5F8A800B0F5800F20D00DDCCB
:101E5000A0B1B0F5001F0FD115E0EA6DD8F8001061
:101E600021F4E0711143C8F80010E3E7B0F5C00FAA
:101E700013D0B0F5000F10D001240FE0386840F403
:101E80000030386009E00198002103F013FA03E004
:101E90000098002103F09EFA04467CB1264628886B
:101EA000C04300052DD4D5F8AC00B0F1007F21D09F
:101EB0000EDCA8B1B0F1807F10D116E0D5F8A820D3
:101EC000D9F8001021F460011143C9F80010E6E7C9
:101ED000B0F1407F13D0B0F1806F10D001240FE03B
:101EE000386840F40030386009E00198002103F0C0
:101EF000E1F903E00098002103F06CFA044674B1A4
:101F000026462868C04380011FD4E86CD8B1102849
:101F10000FD0202812D0302815D0012414E0D5F895
:101F2000AC20D9F8001021F0E0611143C9F800108D
:101F3000E7E7386840F40030386004E00198022197
:101F400003F0B8F9044674B126462888C043C0049B
:101F50002BD4286EB0F5005F20D00DDCA0B1B0F519
:101F6000805F0FD115E06B48EA6C2030016821F0EA
:101F7000300111430160E8E7B0F5405F13D0B0F5E0
:101F8000804F10D001240FE0386840F400303860F2
:101F900009E00198002103F08DF903E00098002189
:101FA00003F018FA04468CB126462888C043800402
:101FB00029D4686EB0F5403F23D010DC08B3B0F5EB
:101FC000803F14D0B0F5003F0FD115E02A6ED8F84D
:101FD000001021F4E0411143C8F80010E5E7B0F526
:101FE000802F0ED0B0F5A02F0BD001240AE001986D
:101FF000012103F05FF903E00098012103F0EAF901
:10200000044694B126462888C04340042AD4D5F813
:10201000B000B0F1405F23D010DC08B3B0F1805FB6
:1020200014D0B0F1005F0FD115E06A6ED8F800103F
:1020300021F4E0211143C8F80010E4E7B0F1804F2B
:102040000ED0B0F1A04F0BD001240AE0019801217D
:1020500003F030F903E00098012103F0BBF90446D6
:1020600074B126462888C04300041FD4286FD8B115
:10207000B0F1805F0ED0B0F1005F10D0012414E009
:10208000D5F8B020D9F8001021F0E0411143C9F88B
:102090000010E7E7386840F40030386004E0019849
:1020A000012103F007F9044674B126462868C043AD
:1020B000C0011ED4A86CD0B101280ED0022811D0C6
:1020C000032814D0012413E02A6FD8F8001021F05F
:1020D00040511143C8F80010E8E7386840F4003078
:1020E000386004E00198022103F0E4F80446ACB142
:1020F00026462868DFF81CB0C043ABF11C0B400239
:1021000052D40548016841F480710160FEF75EFE1B
:10211000824611E02C44025800480258FA48AA6C42
:10212000016821F0030111430160E2E7FEF74EFE72
:10213000A0EB0A00642835D8F4480068C005F5D53E
:102140008CBBDFF8C4A3B5F8B4100AF1240ADAF89E
:10215000000001F4407100F44070884211D0DAF8B8
:102160000010DAF8002021F4407142F48032CAF8FD
:102170000020DAF8002022F48032CAF80020CAF8E1
:102180000010D5F8B400B0F5807F1AD1FEF71EFE1E
:10219000029012E0FEF71AFE0299411A41F28830CD
:1021A00081420AD9032426462878DFF85CA3C0437D
:1021B0000AF1080AC00721D03CE0DAF800008007E5
:1021C000E8D5D5F8B410C1F30120032858460DD046
:1021D000016821F47C510160B5F8B420DAF80010F0
:1021E000C2F30B021143CAF80010DDE7C84A0368C6
:1021F00002EA111223F47C511143ECE7E86F18282E
:1022000016D005DCA0B1082808D0102804D10AE0B7
:1022100020280DD028280BD001240AE001980121A4
:1022200003F048F803E00098012103F0D3F80446D6
:1022300064B126462878C04380071ED4A86F0628BC
:1022400019D2DFE800F0160C11161616EA6FDAF84C
:10225000001021F038011143CAF80010EAE7019894
:10226000012103F027F803E00098012103F0B2F800
:1022700004467CB100E0012426462878C04340078C
:102280001FD4D5F89400062819D2DFE800F0160C08
:1022900011161616AA6FDAF8001021F00701114383
:1022A000CAF80010E9E70198012103F003F803E000
:1022B0000098012103F08EF80446A4B100E0012447
:1022C00026462878C04380062BD4D5F89000B0F17C
:1022D000405F24D011DC10B3B0F1805F15D0B0F1B5
:1022E000005F10D116E0D5F89420D9F8001021F045
:1022F00007011143C9F80010E3E7B0F1804F0ED099
:10230000B0F1A04F0BD001240AE00198002102F0A7
:10231000D1FF03E00098022103F05CF8044694B179
:1023200026462878C04340062BD4D5F89C00B0F54B
:10233000406F24D011DC10B3B0F5806F15D0B0F52C
:10234000006F10D116E0D5F89020DAF8001021F0D7
:10235000E0411143CAF80010E3E7B0F5805F0ED00A
:10236000B0F5A05F0BD001240AE00198002102F033
:10237000A1FF03E00098022103F02CF8044694B179
:1023800026462878C04300062BD4D5F8A000B0F527
:10239000C04F24D011DC10B3B0F5005F15D0B0F5FC
:1023A000804F10D116E0D5F89C20D9F8001021F408
:1023B000E0511143C9F80010E3E7B0F5004F0ED02B
:1023C000B0F5204F0BD001240AE00198002102F063
:1023D00071FF03E00098022102F0FCFF044654B1B3
:1023E00026462878C04300071ED4D5F88400B0F5EF
:1023F000805F0AD00FE0D5F8A020D9F8001021F4B2
:1024000060411143C9F80010EBE70098022102F087
:10241000E1FF00B10126D5F88420DAF8001021F49C
:1024200040511143CAF800102878C043C00613D4A5
:10243000D5F89800B0F5807F05D10098022102F010
:10244000C9FF00B10126D5F89820D9F8001021F471
:1024500040711143C9F800102868C043000316D426
:10246000D5F8A40038B1B0F5803F09D0B0F5003FF1
:102470000BD001240AE00198002102F01BFF03E0C9
:102480000098022102F0A6FF04468CB12646286877
:10249000C043400322D4D5F88800B0F5801F11D086
:1024A000B0F5001F13D0B0F5401F15D0012414E083
:1024B000D5F8A420D9F8001021F440311143C9F80F
:1024C0000010E4E7386840F40030386004E0009819
:1024D000012102F07FFF04465CB126462868C04314
:1024E000C00323D4286DA8B1B0F5803F17D00124D4
:1024F0001BE0D5F88820DAF8001021F440111143D0
:10250000CAF80010EAE700004C440258004802589C
:10251000CFFFFF00386840F40030386004E00198D5
:10252000022102F0C7FE0446E4B126462868C043F3
:10253000800005D40098022102F04CFF00B1012672
:102540002868C04380031BD4D5F88000B0B1B0F533
:10255000807F0FD0B0F5007F10D0B0F5407F0DD058
:1025600001240CE05A482A6D016821F4803111439E
:102570000160DBE7386840F400303860ECB3264691
:102580002868C043C00207D46A6FD8F8001021F051
:1025900000411143C8F800102868C043C00008D4A7
:1025A000D5F8B820DBF8001021F480411143CBF8B6
:1025B00000102868C043800207D4EA6ED8F80010E3
:1025C00021F080711143C8F800102868C043400012
:1025D0000CD4DBF8001021F40041CBF80010DBF83C
:1025E0000010D5F8BC201143CBF800102868C04378
:1025F00008D437486A6D016800E018E021F04051C6
:10260000114301602868C043000208D4D5F88C202B
:10261000DAF8001021F440011143CAF800102879BB
:102620000024C04300F0010020430AD00FE0D5F899
:102630008020DAF8001021F440711143CAF800102C
:102640009EE70198002102F035FE00B10646287988
:10265000C04300F00200204305D10198012102F09F
:1026600029FE00B106462879C04300F0040020434B
:1026700005D10198022102F01DFE00B1064628791D
:10268000C04300F00800204305D10098002102F06B
:10269000A1FE00B106462879C04300F01000204397
:1026A00005D10098012102F095FE00B10646287977
:1026B000C04300F02000044304D10098022102F03E
:1026C00089FE00B916B10120BDE8FE8F0020FBE7AE
:1026D0004C4402582DE9F05F04000F467ED0DFF82D
:1026E0003882D8F8000000F00F00B8420CD2D8F8B9
:1026F000001021F00F013943C8F80010D8F800008D
:1027000000F00F00B84269D12078844D40070AD507
:102710002069296801F07001884204D9296821F0F4
:1027200070010143296020787C4E361D00070AD5D0
:102730006069316801F07001884204D9316821F084
:102740007001014331602078C0060AD5A069316864
:1027500001F4E061884204D9316821F4E061014369
:1027600031602078DFF8B4B180060BF1080B0CD58E
:10277000E1695846DBF8002002F07002914204D96A
:10278000026822F070020A430260207880070AD5AE
:10279000E068296801F00F01884204D9296821F016
:1027A0000F01014329602078C0073ED05B49A26831
:1027B0002868183920F47060104328606068022887
:1027C00018D0032819D00968012819D04907002911
:1027D0004ADADFF848A1AAF1080A00E044E0DAF892
:1027E000002022F007020243CAF80020FEF7EEFAAA
:1027F000814612E009688903E9E709688901E6E78B
:10280000C905E4E7FEF7E2FAA0EB090141F28830DE
:10281000814202D90320BDE8F09F6168DAF8000028
:1028200000F03800B0EBC10FECD1207880070AD55A
:10283000E068296801F00F01884204D2296821F07C
:102840000F0101432960D8F80010404601F00F0144
:10285000B9420BD9016821F00F01394301600068CA
:1028600000F00F00B84201D00120D4E720784007E3
:102870000AD52069296801F07001884204D22968CC
:1028800021F0700101432960207800070AD56069B2
:10289000316801F07001884204D2316821F0700182
:1028A000014331602078C0060AD5A069316801F47F
:1028B000E061884204D2316821F4E0610143316073
:1028C000207880060CD5E1695846DBF8002002F03C
:1028D0007002914204D2026822F070020A43026040
:1028E00000F06CF80E492A682B68C2F3032203F04B
:1028F0000F038A5CC95C02F01F0201F01F01D04087
:10290000084A20FA01F11160074908600748006889
:10291000BDE8F05FFEF796BA002000521844025856
:10292000D4190108EC000024E8000024E000002491
:1029300030B500F043F80B4A0B490C4B156814688E
:10294000C5F3032204F00F048A5C095D02F01F0244
:1029500001F01F01D040064A20FA01F11960106011
:10296000084630BD18440258D4190108EC00002470
:10297000E800002400B5FFF7DBFF05490968054AB8
:10298000C1F30211515C01F01F01C84000BD0000FD
:102990001C440258D419010800B5FFF7C9FF0549C6
:1029A0000968054AC1F30221515C01F01F01C840CA
:1029B00000BD00001C440258D4190108454970B5F7
:1029C00045480968434B103B11F0380208D001110B
:1029D000082A03D0102A0BD0182A0BD0084670BD45
:1029E00019688906FBD51968C1F3C101C84070BDDB
:1029F0003A4870BD3749374D18310C1D24350A68E7
:102A0000096826682D6802F0030406F00102C1F38C
:102A10000511C5F3CC0515FB02F200EE102AB8EE45
:102A2000400AE9B32F4ADFED2E0AB7EE001A6CB167
:102A3000DFED2D1A012C01D0022C43D002EE101A2A
:102A40001068F8EE422A81EEA22A1EE01C68A40655
:102A500011D51B6801EE901A1168C3F3C103F8EE9B
:102A6000612AD84001EE900AC1F30800F8EE611A1D
:102A700081EEA22A0BE001EE901ADFED1C2A00BFC6
:102A8000F8EE611A106882EEA12AC0F3080001EE88
:102A9000900AF8EE611A40EE201A31EE810A00E049
:102AA00015E022EE000A1068C0F34620401C00EE3C
:102AB000900AF8EE600A80EE201ABCEEC10A10EE11
:102AC000100A70BD01EE901ADFED092AD8E7002048
:102AD00070BD0000104402580090D00340787D0182
:102AE00000000039304402580024744A0024744C19
:102AF00020BCBE4B2DE9F05F04007DD0FF4F207855
:102B0000FE4D1837DFF8F493103DC00748D0D9F8D0
:102B10000000396800F03800102815D0182803D1BB
:102B200001F0030002280FD06068B0F5803F12D09A
:102B300010B1B0F5A02F18D0286820F4803028609C
:102B4000286820F4802009E02868800328D5606880
:102B50000028D2D024E0286840F4803028606068E3
:102B600088B1FEF733F9064609E0286840F4802072
:102B70002860F0E7FEF72AF9801B64286FD82868E0
:102B80008003F7D50CE0FEF721F9064605E000BF0B
:102B9000FEF71CF9801B6428F0D828688003F7D45E
:102BA000207841F20308D54E0C3E800769D5D9F84C
:102BB0000000396810F038000ED0182801D18807BD
:102BC0000AD0E06890B3296821F019010143296017
:102BD000FEF7FCF8824631E02868400702D5E0683D
:102BE00000288AD0E168286820F01900084328608E
:102BF000FEF7ECF8824607E0DFE000BFFEF7E6F8FC
:102C0000A0EB0A000228B9D828684007F6D500BF13
:102C1000FEF7D6F840451BD82069402812D031680D
:102C200021F47C3141EA003030602AE018E000BF36
:102C3000FEF7CCF8A0EB0A0002289FD828684007CE
:102C4000F6D5E5E7306820F47C3040F40030EBE75F
:102C5000207C316821F0FE4141EA0060E4E70DE1AB
:102C6000286820F001002860FEF7B0F8824605E0F1
:102C7000FEF7ACF8A0EB0A0002288DD828684007C0
:102C8000F6D42078C0065DD5D9F80000DFF86CB224
:102C9000396800F03800ABF1040B082810D0182870
:102CA00003D101F0030001280AD0E0690028286858
:102CB00038D040F080002860FEF788F8824623E094
:102CC0002868C00523D5E069802876D11FE0206AF6
:102CD000202821D0316821F0F84141EA806030603D
:102CE00030E000BF94F82010DBF8002022F07C5286
:102CF00042EA0161CBF8001024E000BFFEF766F85D
:102D0000A0EB0A00022898D82868C005F6D5FEF77F
:102D100057F84045E6D8DAE7306820F0F84040F050
:102D20008040DCE720F080002860FEF74FF8064680
:102D300005E000BFFEF74AF8801B02289DD82868EE
:102D4000C005F7D42078000729D56C486169643044
:102D500000298046016811D041F001010160FEF7B1
:102D600035F8064605E000BFFEF730F8801B022864
:102D7000C9D8D8F800008007F6D510E021F001018D
:102D80000160FEF723F8064605E000BFFEF71EF8D7
:102D9000801B022872D8D8F800008007F6D420786B
:102DA000800623D5A0690028286810D040F4805000
:102DB0002860FEF70BF8064605E036E1FEF706F858
:102DC000801B02285AD828688004F7D50EE020F42A
:102DD00080502860FDF7FAFF064604E0FDF7F6FF95
:102DE000801B02284AD828688004F7D4207840073E
:102DF0004FD5DFF80C81D8F8001041F48071C8F885
:102E00000010FDF7E3FF064605E000BFFDF7DEFF1B
:102E1000801B642832D8D8F80000C005F6D5374E9C
:102E2000A068603601280AD008B1052813D03068A0
:102E300020F001003060306820F0040002E03068CB
:102E400040F001003060A06841F2883A90B1FDF78F
:102E5000BDFF80460AE0306840F004003060EEE7D5
:102E6000FDF7B4FFA0EB0801514507D83068800793
:102E7000F6D50EE0FDF7AAFF804607E084E000BF2C
:102E8000FDF7A4FFA0EB080151457DD8306880070D
:102E9000F6D4606AB0B3DFF86480D9F8001008F1A6
:102EA00020084FF6F87B08F10409C1F3C201032999
:102EB000A8F1040A69D00228286820F080702860F0
:102EC00003D0FDF783FF044684E0FDF77FFF06464D
:102ED00005E000BFFDF77AFF801B022877D828683D
:102EE0008001F7D4E26A40F2F331386854F8283FA1
:102EF000884340EA02101843386004E01044025846
:102F000000480258B5E0217B434622894FF4FE0C6D
:102F1000208A4FF0FE474902267D521E401EA1F531
:102F20000071C2F308088AB2761E0CEA004042EA39
:102F300008020243504607EA06610A431A60DAF8BB
:102F4000002022F00102CAF80020D9F80020266AE9
:102F500022EA0B0242EAC602C9F80020DAF80010A1
:102F6000A26921F00C011143CAF800100168E2695E
:102F700021F0020111430160016841F480310160D8
:102F8000016841F4003101E021E027E001600168BF
:102F900041F480210160016841F00101016028686D
:102FA00040F080702860FDF711FF044605E000BF87
:102FB000FDF70CFF001B022809D828688001F7D50F
:102FC00057E000BFFDF702FF001B022802D90320D3
:102FD000BDE8F09F28688001F4D44AE039680128F0
:102FE000D8F8000021D0A26A01F0030393421CD15B
:102FF000E26AC1F305118A4217D1216BC0F30802BE
:10300000491E8A4211D1616BC0F34622491E91428A
:103010000BD1A16BC0F30642491E914205D1E16B71
:10302000C0F30660491E814201D00120D0E7A16CA7
:103030004E46D9F80000C0F3CC00814219D0DAF82E
:103040000000554620F00100CAF80000FDF7BEFE62
:103050004FEA0007FDF7BAFEB842FBD0A26C306819
:1030600020EA0B0040EAC2003060286840F001000E
:1030700028600020ACE77047704770477047704782
:103080002DE9F84304460068E56A416B09041BD545
:10309000290719D5D4E90950202813D30026206820
:1030A00002F03BFB020A2870010C6A70030EA97043
:1030B000761CEB70082E05F10405F0D3A06A2038C9
:1030C000C4E90950BDE8F883416B0127DFF8EC81C2
:1030D0000026C90551D539024CF23A1281632907FD
:1030E0002068C16B21EA0201C1632068C16B21F035
:1030F0008051C1632068C16821F04001C16018D5CA
:1031000015F0220F09D0206802F048FA28B1616B4F
:10311000014361632046FFF7B2FF2168AA07C1F8A7
:10312000388084F83070E66223D1204600F0D4F86D
:10313000C8E72806C6D5206815F0220F86622068E9
:10314000C6622068066509D0206802F027FA28B117
:10315000616B014361632046FFF791FF15F0300F6B
:1031600084F83070E66202D0204600F0B5F8A80777
:10317000A8D0204600F0A4F8A4E7416B490421D56B
:1031800029071FD5D4E9075020289BD3002628788B
:103190000090697840EA01200090A97840EA014057
:1031A0000090E9782D1D40EA016000902068694692
:1031B00002F0CAFA761C082EE9D3206A2038C4E946
:1031C00007507FE7416B11F03A0F416B58D08907E8
:1031D00003D5616B41F002016163416B090703D5BF
:1031E000616B41F008016163416B890603D5616B36
:1031F00041F020016163416BC90603D5616B41F069
:1032000010016163C0F838802068C16B21F49D71A2
:10321000C1632068C16821F04001C1602068C16AB3
:1032200041F40051C1622068C16841F08001C16071
:10323000206802F0B3F9626B2B074FF4006140EA9B
:10324000020060632068C26822F08002C2602068C9
:10325000816303D584F83070E6620DE028068BD5D3
:10326000606B002888D02068C16B21F08051C16359
:103270002068066584F830702046FFF700FF21E7DC
:10328000C9009ED54FF0805181632068006D4007D2
:103290004FEA856008D40028204602DAFFF7EEFEE8
:1032A00010E7FFF7E9FE0DE70028204602DAFFF7F6
:1032B000E4FE07E7FFF7DFFE04E700003A0F00181F
:1032C000044910B5884201D0012000E00020FDF73C
:1032D000B0F810BD84010024044910B5884201D023
:1032E000012000E00020FDF7A5F810BD84010024B6
:1032F0002DE9F047040029D0594A4FF00009206811
:10330000584B594D9042C4F8289006D0984204D0AA
:10331000A84202D0E1680F2918D8E1684FF0010AED
:10332000E76B0831C9080AEB57167143904205D084
:10333000984203D0A84201D0082907D8904203D070
:10334000984201D0A84204D1102902D90120BDE839
:10335000F08794F8810020B9204684F8809000F02E
:1033600085F8022084F881002068016821F00101BD
:1033700001602068A1698268B1F1806F02F4F811E0
:1033800010D16268B2F5800F01D01AB10AE0A26BC9
:1033900022B107E0A26BB2F1805F03D1026842F470
:1033A000805202606068400209D5E068072806D3B1
:1033B0002068236D026822F480721A4303E02068BB
:1033C000026822F480720260A66AE069E26B2568F6
:1033D0003043E3680A4310431843A860D4E90D0260
:1033E000D4E90581636A25691843D4F820C00A43EB
:1033F000266810432843A56DD4E90172D4E912313F
:1034000040EA080040EA0C003843084310431843E0
:103410002843F060606868B92068816821F4C05171
:1034200041F4006181602068816821F4C06141F449
:10343000806181602068016D21F001010165606893
:10344000400206D52068626DC16821F00041114339
:10345000C160C4F8849084F881A0002077E7000060
:103460000030014000380040003C0040F0B5B7B0EB
:103470000446142130A8FCF775FFC0216846FCF70C
:1034800071FF23492068884240D1411400201990DF
:103490000446CDE900106846FEF746FC08B1FDF78A
:1034A00046FB1C48016841F400510160006800F4CB
:1034B0000050359017481038016841F01001016044
:1034C000006830AD0221144F00F0100035904FF429
:1034D000B040052385E8130003223846CDE93323A5
:1034E00030A9FDF751FB01260C484FF400453095FB
:1034F000CDE9316430A93394FDF746FB309530A90E
:10350000CDE9316438463394FDF73EFB37B0F0BD6A
:1035100000340140F044025800100258000C0258D8
:103520002DE9F84F8A4690F88010994617460129F0
:1035300004464FF0000B0DD04FF0010884F8808056
:10354000FDF744FC064694F881000025012804D0CC
:10355000022034E00220BDE8F88FBAF1000F2DD030
:1035600067B3A1680320C4F85CA0A4F8607084F875
:103570008100C4F88450A4F862706566A4F86850AD
:10358000A4F86A50B1F5C02F65672567206819D087
:10359000C16821F4C02141F40031C1602068416854
:1035A0006FF30F01394341602068016841F0010168
:1035B00001606068B0F5800F09D00DE0012084F84B
:1035C0008050C8E7016841F400610160E6E72068C7
:1035D000016841F400710160E0680F281CD82EE0FA
:1035E0002068416989070BD5E16D09680162E06DCA
:1035F000001DE065B4F86200401EA4F862000BE014
:10360000FDF7E4FB811B494503D3B9F1FF3F03D02C
:1036100007E0B9F1000F04D0B4F862000028DFD150
:1036200083E0204602F095F8D4F8841084F88050A6
:1036300041F48071C4F8841084F881809CE00728EC
:103640002CD86EE02068416989071BD5B4F8621058
:1036500001290BD9E16B49B1E16D09680162E06DA7
:10366000001DE065B4F86200801E08E0E16D098885
:103670000184E06D801CE065B4F86200401EA4F88F
:1036800062000BE0FDF7A2FB811B494503D3B9F1B2
:10369000FF3F03D0C5E7B9F1000FC2D0B4F8620014
:1036A0000028CFD141E02068416989072DD5B4F8C1
:1036B000621003290CD9E16B402909D9E16D096831
:1036C0000162E06D001DE065B4F86200001F19E0C2
:1036D000B4F8621001290BD9E16B49B1E16D098899
:1036E0000184E06D801CE065B4F86200801E09E092
:1036F000E16D097880F82010E06D401CE065B4F8B9
:103700006200401EA4F862000BE0FDF75FFB811B26
:10371000494503D3B9F1FF3F03D020E0B9F1000FD1
:103720001DD0B4F862000028BDD100224B4608210C
:103730002046009602F04AF928B1D4F8840040F0FF
:103740002000C4F88400204602F003F884F8818049
:10375000D4F8840084F8805080B10120FBE6204634
:1037600001F0F7FFD4F8840084F8805040F48070B2
:10377000C4F8840084F881800320ECE65846EAE629
:10378000401EB0F1807F10B501D3012010BD4FF075
:10379000E02460610F21601704F031FB0020A0617C
:1037A0000721216110BD30B590F88410012918D08F
:1037B000012280F884202421C0F8881000222024CF
:1037C00001680B680D6823F0005325F001050D60BA
:1037D000426601680B60C0F8884080F8842010467B
:1037E00030BD022030BD70B5044690F88400012839
:1037F0001DD0012284F884202420C4F88800206889
:103800000568026822F0010202602068826822F0E6
:1038100060620A438260204602F038FA2268202162
:1038200000201560C4F8881084F8840070BD022060
:1038300070BD70B5044690F8840001281DD00122A7
:1038400084F884202420C4F8880020680568026871
:1038500022F0010202602068826822F060420A437E
:103860008260204602F012FA2268202100201560B2
:10387000C4F8881084F8840070BD022070BD10B5B3
:10388000040003D0D4F8880010B107E0012010BD77
:10389000002084F88400204600F026F82420C4F894
:1038A00088002068016821F001010160204602F0D3
:1038B000F3FA0128EBD0A06A10B1204602F008FA12
:1038C0002068416821F4904141602068816821F0BE
:1038D0002A0181602068016841F0010101602046F1
:1038E000BDE8104002F058BA10B5B6B00446142135
:1038F00030A8FCF737FDC0216846FCF733FD1A49B4
:10390000206888422DD100201F9001210446CDE976
:1039100000106846FEF708FA08B1FDF708F91348E9
:10392000016841F010010160006800F0100035905E
:103930000E481038016841F00101016000680DF186
:10394000C00C022100F0010035904FF4C060072345
:103950008CE8130003220648CDE9332330A9FDF794
:1039600013F936B010BD000000100140F0440258B9
:1039700000000258FEE70000F0B500230A251C46AF
:103980003026372711E000BFB5EB107F02D906EBD8
:10399000107C01E007EB107C01F813C001EB430C35
:1039A00000015B1C8CF80140DBB29342ECD3F0BD0C
:1039B0002DE9FC4100F08AF8354801F0D9F80024DF
:1039C0004FF47F454FF4B47600EE104AB8EEC00ACB
:1039D00002F026F88C21782002F048F8E6226846AA
:1039E0007821FDF7A7F8DDE900012A4680B289B207
:1039F00000F03CFC0520FDF7B5F8641CB442E3DBA5
:103A00005A228C21782000F0D3F9C820FDF7AAF8BB
:103A10000124A2B28C21782000F086FC1E20FDF744
:103A2000A1F8641C1E2CF4DBC820FDF79BF80024D1
:103A30004FEA050800EE104AB8EEC00A01F0F0FFA8
:103A40008C21782002F012F8E62268467821FDF7F2
:103A500071F8DDE90057404601F08AF8B9B2A8B222
:103A60000A2200F061FC3220FDF77CF8002001F012
:103A70007FF8B9B2A8B20A2200F056FC641CB44226
:103A8000D8DBBDE8FC414FF4FA70FDF76BB80000DD
:103A900080FF800010B500F019F80B4801F068F8BD
:103AA00064228C21782000F083F9C820FDF75AF8B1
:103AB00064228C21782000F037FCBDE810404FF4E0
:103AC000FA70FDF74FB8000080FF800070B5134C0E
:103AD0006189A089491E8AB2401E83B2002108462E
:103AE00001F004F801220E48D103FDF763F9A4F6B2
:103AF00088050F20E8602846FFF7FAFB6289A08955
:103B0000A188424389B2284600F022FF0720E860DE
:103B10002846BDE87040FFF7EBBB0000880A002490
:103B20000010025870B5FFF7D1FF194801F020F8D6
:103B30005A228C21782000F03BF9002628213046BB
:103B4000FCF79EFC002501E0B54203D12821304658
:103B5000FCF796FC002450212046FCF7F1FCAC4217
:103B600007D13C212846FCF78BFC28213046FCF786
:103B700087FCB44205D128213046FCF781FC641C47
:103B8000E9E7641C3C2CE6DB6D1C032DDCDB70BD1F
:103B900080FF80002DE9F05FDFF8A0E0203A0023ED
:103BA000274E02F0FF0A894683461A46DEF80800CF
:103BB000194626E0234DD0F80080B5F800C0AF8844
:103BC0000AFB04851FFA8CFCBFB2002413F80550D1
:103BD0005FEAC57802D026F812C001E026F812701C
:103BE000B0F80480491C521C89B26D0892B2884515
:103BF00001D1002103E0641CA4B2082CE8D35B1CB3
:103C00009BB204899C42D5D8C288A9F1010183885E
:103C1000ABF101001144744618448BB2494682B29C
:103C2000584600F063FFA0688188C088BDE8F05F57
:103C30004143034889B201F031B90000000000247B
:103C400088020024880A00242DE9F05FDFF8D08084
:103C50008346177800238A461946D8F80C00048951
:103C600006685D1C04FB05FC16F80CC0BC4508D1B9
:103C700005FB046592F801C06D78654501D1994650
:103C800004E045899B1C9BB29D42EAD80022254E48
:103C90001346C64627E0DFF890C0056809FB0455C7
:103CA000BCF800800024BCF804C01FFA88F75D5DF2
:103CB0001FFA8CFC5FEAC57802D026F8127001E08A
:103CC00026F812C0B0F80480491C521C89B26D0855
:103CD00092B2884501D1002103E0641CA4B2082CF3
:103CE000E8D35B1C9BB204899C42D4D8C288AAF159
:103CF00001018388ABF101001144744618448BB272
:103D0000514682B2584600F0F1FEE0688188C088D2
:103D1000BDE8F05F4143034889B201F0BFB800003D
:103D20000000002488020024880A00242DE9F041C4
:103D30000B4F15460B4E8846044608E04146204688
:103D4000FFF728FFB8686D1C8088204484B2708912
:103D5000A04202D92A78002AF0D1BDE8F081000003
:103D600000000024880A00242DE9F0410F4E14467B
:103D70000F46054615E07F2A09D839462846FFF741
:103D800009FFB068641C8088284485B209E0224697
:103D900039462846FFF758FFF068A41C808828445D
:103DA00085B22278002AE6D1BDE8F0810000002427
:103DB0002DE9F84F5542814602201F4F00268846C4
:103DC00000EB450408EB060A3A68A9EB05001FFA68
:103DD0008AF1009080B200F049FA09EB050B3A68CD
:103DE0001FFA8AF11FFA8BF000F040FAA8EB060ADE
:103DF0003A681FFA8BF01FFA8AF100F037FA009840
:103E00001FFA8AF13A6880B200F030FAB4422046D4
:103E100008DC761C00EB4604641CF54202D1A84283
:103E200000DC0020A84203DD6D1C04EB4504641C8B
:103E3000002DC7DDBDE8F88F880A00242DE9F05F6A
:103E400000EE102A00EE903AC2F1000780460220F0
:103E50000E46B8EEC00AF8EEE00A00EB47046D48E3
:103E60009A424FF000052DED028B67DD80EE208A2F
:103E70004FEA000900EE105AA8EB070BD9F8002012
:103E8000B8EEC00AC0EE080ABCEEE00A10EE100A56
:103E9000304481B21FFA8BF000F0E8F900EE105ABE
:103EA00008EB070AD9F80020B8EEC00AC0EE080AED
:103EB000BCEEE00A10EE100A304481B21FFA8AF01C
:103EC00000F0D4F900EE105AD9F80020B8EEC00A7C
:103ED000C0EE080ABCEEE00A10EE100A301A81B2F9
:103EE0001FFA8AF000F0C2F900EE105AD9F800204B
:103EF000F8EEC00A80EE880ABCEEC00A10EE100A86
:103F0000301A81B21FFA8BF000F0B0F9AC422046B3
:103F100008DC6D1C00EB4504641CEF4202D1B84282
:103F200000DC0020B84203DD7F1C04EB4704641C66
:103F3000002F9FDDBDEC028BBDE8F09F80EE808AF4
:103F40005F424FEA0009002500EE105A06EB070A0F
:103F5000D9F800201FFA8AF1B8EEC00AC0EE080AAC
:103F6000BCEEE00A10EE100AA8EB000080B200F0F0
:103F70007DF900EE105A1FFA8AF1D9F80020B8EE48
:103F8000C00AC0EE080ABCEEE00A10EE100A404477
:103F900080B200F06BF900EE105AA6EB070AD9F8D0
:103FA00000201FFA8AF1B8EEC00AC0EE080ABCEE83
:103FB000E00A10EE100A404480B200F057F900EE1B
:103FC000105A1FFA8AF1D9F80020B8EEC00AC0EEE4
:103FD000080ABCEEE00A10EE100AA8EB000080B25E
:103FE00000F044F9AC4220460ADC6D1C05EB4502AA
:103FF0001418EF4204F1010402D1B84200DC0020A1
:10400000B84204DD7F1C07EB47000444641C002F0A
:104010009ADD8FE7880A00242DE9FF4F4FF4806175
:104020009B46B1FBFBF183B0144607464FF0000AF4
:104030003E465546049800903819401EDDF84090E1
:10404000CDE901106EE00020B4EE001A27E0384BF5
:10405000002199F80020A3F5006EB3F800C09B88FA
:104060001FFA8CFC1FFA83F35FEAC27802D02EF8A5
:1040700015C001E02EF81530761CB6B26D1C520842
:10408000A6EB0708ADB2A04501D13E4603E0491CAE
:1040900089B20829E8D3401C80B209F1010900EE79
:1040A000104A00EE900AF8EE401AB8EE600A61EE8F
:1040B000810AF4EEC00AF1EE10FAC8DC0198604300
:1040C000A84216D1DDE90001002500EB01080299A4
:1040D000A8F1010083B238468AB2009900F006FDCB
:1040E0000198604381B2134800F0D8FE1FFA88F0AF
:1040F00000900AF10108D84512D1049938468A4443
:1041000002991FFA8AF38AB2009900F0EFFC009935
:10411000AAEB0100401C604381B2064800F0BEFEDD
:104120001FFA88FADA458ED307B0BDE8F08F000099
:10413000880A0024880200242DE9FC5F151A002754
:10414000002D00DC851A5C1A0FFA85FC002C00DCBF
:10415000CC1A06B282424FF0FF320DB220B203D326
:1041600001240094A24601E0924600928B4203D3C0
:104170004FF0010BD94601E09346D9464FF00001BC
:10418000844507DB894600910CEBDC71E046019029
:104190004C1025E08A464FF0000B00EBD0718046B2
:1041A000CDF804C04C101BE00F48A9B20268B0B2B1
:1041B00000F05CF80198204404B2444508DB009804
:1041C000A4EB08010CB2321805EB0B0016B205B2D5
:1041D0007F1C06EB0A0105EB09000EB205B23FB2E7
:1041E0004745E1DDBDE8FC9F880A00240B460D49E8
:1041F00070B514460A88A1F50065002192B203E06B
:104200004E1C25F81120B1B2A142F9D30119491E63
:104210008AB2194600F06AFC21460348BDE87040A6
:1042200000F03CBE880A00248802002470B51446C1
:104230000C4AA2F50065138800229BB203E0561CCD
:1042400025F81230B2B2A242F9D30A19521E93B223
:10425000024600F04BFC21460348BDE8704000F0E8
:104260001DBE0000880A00248802002410B51446F0
:104270000B46024600F03AFCA0B2BDE8104000F048
:1042800041BE2DE9F0411C4616460D460746FFF794
:10429000ADFF28193246401E81B23846FFF7A6FF0F
:1042A000224629463846FFF7C1FFB819224629465B
:1042B000BDE8F041401E80B2FFF7B8BF10B5FFF770
:1042C00005FC174800F054FC5A233C228C2178202E
:1042D000FFF7B4FDC820FCF745FC5A233C228C2193
:1042E0007820FCF743FAC820FCF73CFCFFF7EEFB14
:1042F0000C4800F03DFC322350228C217820FFF73F
:104300009DFDC820FCF72EFC322350228C21782002
:10431000FCF72CFABDE810404FF4FA70FCF722BC11
:1043200080FF800080FFFF002DE9F84F8B4690460C
:104330000321074600244FF6FF79A1EB48061546F6
:1043400031E08DB13B1BABEB0501009109EA450261
:1043500098B2924689B2FFF769FF0099381980B286
:10436000524689B2FFF762FF8CB17B1BABEB0401B5
:10437000009109EA440298B2924689B2FFF756FFCB
:104380000099781980B2524689B2FFF74FFF002E8C
:1043900003DA06EB8406B61D04E0601B6D1E06EB17
:1043A00080060A36641CAC42CBD942465946384690
:1043B000BDE8F84FFFF7FCBC70B51D4614464B191D
:1043C00002195B1E521E9BB292B200F08FFB0122BB
:1043D0000C48D103FCF7EEFC0B4E0F20F06030468A
:1043E000FEF786FF06F6880004FB05F2008881B21E
:1043F000304600F0ADFA0720F0603046BDE870406E
:10440000FEF776BF001002580002002470B5FFF7D7
:104410005DFB214800F0ACFB00244FF48C7500BF1D
:1044200004EB84002B4682B20E210C20FFF784FEA1
:104430000A20FCF797FB641C302CF1DD174800F0D4
:1044400097FB00242B4660420E2100EB8000F030E9
:1044500082B2E420FFF770FE0A20FCF783FB641CA5
:10446000302CEFDD0E4800F083FB00242B46604229
:104470008B2100EB8000F03082B27820FFF75CFEE9
:104480000A20FCF76FFB641C302CEFDDBDE87040A8
:104490004FF4FA70FCF766BBFF80800080FF80005D
:1044A0008080FF0038B5FFF711FB0E4800F060FB7D
:1044B0000D48EF2314211A4600900020FFF7ACFDB1
:1044C0004FF47A742046FCF74DFB0848EF23142183
:1044D0001A4600900020FFF79FFD2046BDE83840B7
:1044E000FCF740BB80FF8000AAFD0008A8E100089F
:1044F0002DE9F04F01244FF0780B00204FF08C0A8B
:104500002DED028BCBB04FF0500821944690FFF771
:10451000DDFA434800F02CFBFFF7D8FA002540E015
:1045200000EE105A9FED3F8B00EE904AB8EE401B14
:10453000B8EEE02B21EE081B81EE020B03F050FEDB
:1045400001EE10BA01EE908AB8EEC12BB8EEE11B75
:1045500001EE002B00EE904ABDEEC20BB8EEE02B50
:1045600010EE101A00EE105A4DF82510B8EE401B50
:1045700021EE081B81EE020B03F08AFE01EE10AA69
:1045800001EE908A22A9B8EEC12BB8EEE11B6A1C9D
:1045900001EE002BBDEEC20B10EE100A41F8250013
:1045A000D5B2A542BCDB0025A4F102091DE0681CC0
:1045B0004890671EC6B214E022A83DF826203DF8B8
:1045C00025C092B230F8263030F825009BB281B277
:1045D0001FFA8CF0FFF7B0FD0220FCF7C3FA761C3F
:1045E000F6B2BE42E8DD4898C5B24D45DFDD219800
:1045F00004440F2C00D00CB9404221903220FCF72B
:10460000B1FA4698401C46901E2803D03220FCF791
:10461000A9FA81E74BB0BDEC028BBDE8F08F00003A
:1046200080FF80004AD8124DFB2119402DE9F05F30
:10463000FFF74CFA724800F09BFA02244FF6FF771E
:10464000F0264FF48C7500BFA4EBC402A4EB8403E6
:1046500004EB440005EB420206EB830C93B2C4EB7F
:10466000C40189B21FFA8CF207EA4000FFF709FE85
:104670001E20FCF777FA641C142CE5DBC820FCF73D
:1046800071FA1324A4EBC402A4EB840304EB4400EA
:1046900005EB420206EB830C93B2C4EBC40189B272
:1046A0001FFA8CF207EA4000FFF786FE1E20FCF797
:1046B00059FA641E022CE5DAC820FCF753FA0020F0
:1046C00000F056FA0224A946B246BB46A4EBC40643
:1046D000A4EB840704EB440809EB46030AEB8702CA
:1046E000C4EBC4059BB292B2A9B20BEA4800FFF733
:1046F000C8FDEE204FF48B7100EB8702012303EB22
:10470000480001EB46018BB205F1010C92B21FFA91
:104710008CF180B2FFF7B5FDEC2000EB870202239D
:104720004FF48A7103EB480001EB46018BB205F1AF
:10473000020C92B21FFA8CF180B2FFF7A2FDEA20C0
:104740004FF4897100EB8702032303EB480001EB70
:1047500046018BB205F1030C92B21FFA8CF180B2C4
:10476000FFF78FFD0421E8204FF4887201EB480821
:1047700002EB460200EB870793B2291DBAB289B259
:104780001FFA88F0FFF77DFD4FF4877000EB4600BD
:1047900083B26D1DBAB2A9B21FFA88F0FFF771FD9E
:1047A0001E20FCF7DFF9641C142C8FDBC820FCF7FB
:1047B000D9F9002000F0DCF913244D4656465F4637
:1047C000A4EBC402A4EB840304EB440005EB420217
:1047D00006EB830C93B2C4EBC40189B21FFA8CF2CE
:1047E00007EA4000FFF7E8FD1E20FCF7BBF9641E56
:1047F000022CE5DABDE8F05F4FF4FA70FCF7B2B9CD
:1048000080FF8000F8B5FFF761F9214800F0B0F9AA
:1048100002240C255FF0F0074FF48C760095A4EB92
:10482000C401A4EB840204EB440006EB410307EB54
:1048300082024000C4EBC401DBB2D2B2FCF7ECF858
:104840001E20FCF78FF9641C132CE7DBC820FCF753
:1048500089F912240095A4EBC402A4EB840006EBB2
:10486000420304EB440107EB80024800C4EBC4019F
:10487000DBB2D2B2FCF733F91E20FCF773F9641EE9
:10488000022CE7DABDE8F8404FF4FA70FCF76AB999
:1048900080FF800010B5026840F26F33516994695F
:1048A00044F0080494610268946944F0100494612F
:1048B0000268146824F001041460026814699C43BF
:1048C00014610268936823F44043936090F8812058
:1048D000042A0CD08A060AD5D0F8842042F080023F
:1048E000C0F884200268936943F02003936190F834
:1048F0008120032A0CD04A060AD5D0F8842042F041
:104900000402C0F884200268936943F04003936175
:104910008A050AD5D0F8842042F00102C0F884202C
:104920000268936943F400739361C9050AD5D0F80E
:10493000841041F00801C0F8841001688A6942F4CB
:1049400080728A610021A0F86210A0F86A1010BD80
:104950002DE9FC5F8A4690F8801004461646002038
:10496000019001294FF47A770DD04FF0010884F8B7
:104970008080FCF72BFA814694F8810000250128FD
:1049800004D0022017E00220BDE8FC9F96B1A16888
:1049900003204AEA0A4B84F88100C4F88450656613
:1049A000A4F86850A4F86A50B1F5C02F6567256770
:1049B00004D008E0012084F88050E5E72068016811
:1049C00041F400610160206841686FF30F014160AC
:1049D0002068016841F0010101606068B0F5800F56
:1049E00004D12068016841F40071016020684169C8
:1049F00089070DD5B4F86210012905D9E16B19B109
:104A0000C0F820B0B61E17E0A0F820A0761E13E074
:104A1000FCF7DCF9A0EB0900B8420DD32046FFF704
:104A200039FFD4F8841084F8805041F48071C4F8C0
:104A3000841084F8818033E0002ED7D100224B46C9
:104A40004FF480512046009700F02EF828B1D4F89A
:104A5000840040F02000C4F884002068016841F41C
:104A60008061016000224B464FF4006120460097B0
:104A700000F01AF828B1D4F8840040F02000C4F8FF
:104A800084002046FFF706FF2068826942F4006236
:104A9000826184F8805084F88180D4F8840008B161
:104AA000012071E701986FE72DE9F041984616461D
:104AB0000D460746069C09E0FCF788F9A0EB0800C4
:104AC000A04202D3601C01D00BE054B138684069A9
:104AD00035EA000007D00020B042EDD00020BDE84C
:104AE000F0810320FBE70120F6E700002DE9F0410B
:104AF000984615460E4607462A2000F0EFF90F4C5F
:104B0000A07B384480B200F0FDF9A07B284480B23D
:104B100000F0F8F92B2000F0E1F9E07B304480B29E
:104B200000F0F0F9E17B01EB080080B200F0EAF957
:104B3000BDE8F0412C2000F0D1B90000880A002423
:104B40000149886070470000000000244FF478415C
:104B50004FF4FC6301EA1021C0F3C40203EA5010D1
:104B6000014302481143416070470000880A002455
:104B70004FF478414FF4FC6301EA1021C0F3C40202
:104B800003EA5010014302481143016070470000DE
:104B9000880A00242DE9F041194C002514264FF015
:104BA000F0084FF48C77607298B1022816D0012873
:104BB00019D003280BD1362000F090F95FF0C00027
:104BC00000F0B8F9A573E673A4F80A80A781BDE8E0
:104BD000F081362000F082F9702008E0362000F0E5
:104BE0007DF90020ECE7362000F078F9A02000F0F5
:104BF000A1F9A673E5736781A4F80C80E7E70000CC
:104C0000880A00240C49C860808814280FD005DC6D
:104C10000C280AD0102807D1084804E0182808D02A
:104C2000202801D10648886070470648FBE70648FF
:104C3000F9E70648F7E70000000000245C000024C4
:104C400038000024680000245000002444000024A0
:104C5000002010B5FFF77AFFFEF738FF2648FFF770
:104C600087FF2648FFF76CFF1921142024A2FFF7C5
:104C70005DF8C820FBF776FF2448FFF761FF2A2183
:104C800014201FA2FFF752F8C820FBF76BFF204843
:104C9000FFF756FF4121142019A2FFF747F8C8205B
:104CA000FBF760FF1B48FFF74BFF5F21142014A2A6
:104CB000FFF73CF8C820FBF755FF1748FFF740FF08
:104CC000822114200EA2FFF731F8C820FBF74AFF1B
:104CD0001248FFF797FFB421142011A2FFF744F800
:104CE000E121142010A2FFF73FF8BDE810404FF477
:104CF000FA70FBF737BF000080FF800068000024D7
:104D00004D616B6572626173650000005C00002498
:104D10005000002444000024380000242C0000240B
:104D2000B4B4BFCD00000000BBF9B5D8000000004E
:104D30002DE9F05F00240220FFF72CFF2448FFF745
:104D400061FF0020FFF714FFDFF88C90DFF884B0DC
:104D5000204D09F17F09204E0BF17F0B1F4FDFF82B
:104D60008080DFF880A0082C0AD2DFE804F0040677
:104D70002426282A2C2E284600E03046FFF7E6FE9F
:104D8000FEF7A4FE46210D2017A2FEF7EDFF6A21D3
:104D90000D201AA2FEF7E8FF8E210D201CA2FEF7BF
:104DA000E3FF4FF47A70FBF7DDFE641CE4B2082CDD
:104DB000D9D3BDE8F09F3846E0E74046DEE74846F5
:104DC000DCE75046DAE75846D8E76FF07F40D5E792
:104DD000200000248080FF0080FF8000FF80800092
:104DE00080FFFF00A3A3A30053544D333248372064
:104DF000CBA2C6C1B2E2CAD400000000C6C1C4BB87
:104E0000B7D6B1E6C2CA3A3234302A32383000005E
:104E1000BFD8D6C6C6F73A535437373839000000E2
:104E20007CB5FEF753FE1B48FFF7A2FEFF25E424E6
:104E30000E2322460C201946CDE90045FBF737FE2C
:104E4000C820FBF78FFE0E23E42219460C20CDE983
:104E50000045FBF73CFDC820FBF784FE0E48FFF73A
:104E600087FE0C22FF2310460E21CDE90045FBF7FB
:104E70001EFEC820FBF776FE0C22FF2310460E21F3
:104E8000CDE90045FBF723FDBDE87C404FF4FA7007
:104E9000FBF768BE80FF800080FFFF0070B5012235
:104EA0000C4605460B48D103FBF784FF0A4E0F2042
:104EB000F0603046FEF71CFA4FF47A73224629461A
:104EC0003046FEF72DFB0720F0603046BDE870400D
:104ED000FEF70EBA001002580002002401B5074880
:104EE00000224FF40041FBF765FF054801224FF413
:104EF0007A736946FEF714FB08BD000000100258E3
:104F000000020024012238B5D10304460748FBF70C
:104F100051FF200A8DF80000054802224FF47A73F1
:104F200069468DF80140FEF7FBFA38BD00100258C3
:104F300000020024012201B50548D103FBF73AFF26
:104F4000044801224FF47A736946FEF7E9FA08BD76
:104F5000001002580002002430B587B014216846C2
:104F6000FBF700FA2248016841F010010160016876
:104F700001F010010591016841F004010160016830
:104F800001F004010591016841F0800101600168B0
:104F900001F080010591016841F0010101600168A3
:104FA00001F001010591016841F002010160016811
:104FB00001F002010591016841F0080101600068FB
:104FC0004FF400540B4D002200F0080021460590DC
:104FD0002846FBF7EFFE002100940120CDE90101F6
:104FE000284603916946FBF7CFFD07B030BD0000AE
:104FF000E04402580008025870B515484FF4800587
:105000000021124CEB010722C0E90321C0E905137E
:10501000C1615A000162202341626E118162C16246
:10502000C0E90D21C0E90F3141648164C1640165AB
:105030004165816580E87000FEF75AF9002803D0C9
:10504000BDE87040FBF773BD70BD00000034014047
:10505000000200241848002110B5164C0C224FF411
:10506000E1330460C0E90131C160C0E9041281612B
:10507000C161016241628162FEF701FC08B1FBF788
:1050800056FD0D480021FEF7D4FB08B1FBF74FFD9C
:1050900009480021FEF7A7FB08B1FBF748FD0648C9
:1050A000FEF781FB002803D0BDE81040FBF73FBDB1
:1050B00010BD000000100140980A002470B5194985
:1050C0000022194801F004FD08B1FBF730FD174933
:1050D000154801F01BFF08B1FBF729FD14491248E0
:1050E00001F0C4FA08B1FBF722FD0F4801F094FF6C
:1050F00008B1FBF71CFDFCF7B1FC4FF47A75FBF728
:1051000065FE094E044604E0FBF760FE001BA84262
:1051100003D896F89C020328F6D1BDE87040C82059
:10512000FBF720BD740000242C0B00244801002450
:10513000C8000024FEE7FEE70148FCF753B8000072
:10514000282200242DE9F0410446C0680D4620279E
:10515000236801284FF4004604F2C44203EB4511D2
:10516000D3F840C0D1F8080B09D0DFF89CE0F44533
:105170003AD1020433D500BFC1F8086B40E0234B9D
:105180005FEA007E04D59C453AD90004F4D437E0A8
:105190005FEA806E02D5C1F8087B31E010F0280F7D
:1051A0002ED19C4501D90004E6D4D1F8101B05EBA3
:1051B000C50004EB8000C1F31201D0F89C32A3EBD0
:1051C0000101C0F8901200F51F70ADB903691BB161
:1051D000C2681144C1600FE0206801210AE0800626
:1051E0000AD5C1F8087B07E035B9D4F88C0218B9A4
:1051F0000021184602F090FA2046E9B2FBF7D9FEEA
:105200000020BDE8F08100000A31544F0A30544FAD
:105210002DE9F84F0E460568814601EBC60100EB0B
:105220008104D4E913203C34904202D90120BDE826
:10523000F88FA168101A814200D20846C01C05EB05
:10524000461887081BE000BFA268A0EB010A524580
:1052500000D2924699F80C100AF1030000911FFA4F
:105260008AF3E16887082846F2B202F09BFDE16804
:1052700001EB0A00E060616901EB0A006061D8F8A7
:10528000180980B2B84205D3D4E90401814201D2A1
:105290000028D9D1D4E90401884208D8D5F83418B7
:1052A000012006F00F0290408143C5F83418002019
:1052B000BDE770472DE9F047454D044689464FF05C
:1052C000000A2868C04380070AD0414E283E306853
:1052D00020F080603060FBF779FD0746B04608E0BB
:1052E0000120BDE8F08700BFFBF770FDC01B02285E
:1052F00067D8D8F800000001F6D4206829684FF478
:10530000FE0721F47C313E0241EA00302860207A19
:10531000A389B4F804C040022D4D2D495B1E227CA8
:10532000ACF1010C1035091DA0F5007080B2521EC1
:10533000CCF3080C07EA034340EA0C00184306EAE2
:105340000262104328600868626920F0C0001043C0
:1053500008600A68A06922F0200202430A60281D42
:105360000A6822F010020A6002684FF6F873E469D6
:105370009A4342EAC40202600868B9F1000F40F0A3
:1053800010020A6011D00868B9F1010F11D040F481
:1053900000100860D8F80000444640F08060C8F86B
:1053A0000000FBF713FD05460DE0086840F40020FF
:1053B000EFE740F48010ECE7FBF708FD401B022804
:1053C00001D903208DE720680001F5D5504688E714
:1053D000284402582DE9F047454D044689464FF0D0
:1053E000000A2868C04380070AD0414E283E306832
:1053F00020F080503060FBF7E9FC0746B04608E03B
:105400000120BDE8F08700BFFBF7E0FCC01B0228CD
:1054100067D8D8F800008000F6D4208829684FF4B7
:10542000FE0721F07C713E0241EA00502860207A9C
:10543000A389B4F804C040022D4D2D495B1E227C87
:10544000ACF1010C1835091DA0F5007080B2521E98
:10545000CCF3080C07EA034340EA0C00184306EAC1
:105460000262104328600868626920F440601043BB
:1054700008600A68A06922F4007202430A60281DCD
:105480000A6822F480720A6002684FF6F873E469D1
:105490009A4342EAC40202600868B9F1000F40F47E
:1054A00080720A6011D00868B9F1010F11D040F084
:1054B00080700860D8F80000444640F08050C8F87A
:1054C0000000FBF783FC05460DE0086840F480000F
:1054D000EFE740F40000ECE7FBF778FC401B022804
:1054E00001D903208DE720688000F5D5504688E774
:1054F000284402582DE9F0410C4605461E46174641
:105500002DED048BB0EE409B19681068091BDDF887
:105510002880401B494300FB001000EE100AB8EE43
:10552000C00A03F059FA30683968B7EEC08A001B28
:10553000491B00EE900A00EE101AB8EEE01BB8EE20
:10554000C00B02F06DFDB8F1000F02D030EE090B78
:1055500001E030EE490BB0EE409B02F041FE01EE5F
:10556000105AB8EEC11B08EE001BBDEEC10B87ED53
:10557000000AB0EE490B02F08BFE01EE104AB8EEC5
:10558000C11B08EE001BBDEEC10B86ED000ABDEC91
:10559000048BBDE8F0810020FDF772BD10B585B029
:1055A00004464FF4807200200C2113018DE807009F
:1055B000CDE90303E06840F08000E060E06820F09F
:1055C0004000E0606946204600F0AAF8074A0C2136
:1055D000204600F00DF8E168B0F1007F21F0800175
:1055E000E16000D1002005B010BD000000E1F5052C
:1055F00030B5464D4FF4FA53434C2D68B5FBF3F3E9
:1056000053435B1E02D24FF0004030BD426B22423A
:10561000F7D09204F5D4426B520703D5042181637D
:10562000084630BD426BD20702D00121816306E0FB
:10563000354A803282630269D2B28A4201D00120A7
:1056400030BD002100F066F83149084201D1002048
:1056500030BD002802DA4FF0007030BD410001D5A6
:10566000402030BD810001D5802030BDC10002D571
:105670004FF4807030BD010102D54FF4007030BD91
:10568000410102D54FF4806030BDC10102D54FF415
:10569000006030BD010202D54FF4805030BD4102A0
:1056A00002D54FF4005030BD810202D54FF4804046
:1056B00030BDC10202D54FF4004030BD410302D5D8
:1056C0004FF4003030BD810302D54FF4802030BD4F
:1056D000C10302D54FF4002030BD010402D54FF4C0
:1056E000801030BD410402D54FF4001030BD81045C
:1056F00002D54FF4800030BD000702D54FF4000002
:1057000030BD4FF4803030BD45002000E80000245B
:1057100008E0FFFD084440697047D0F880007047FA
:1057200070B5084D0A688260C368D1E90126D1E9E5
:1057300003412B4032430C4322431343C3600020F8
:1057400070BD0000C0E0FEFF0968C0F880100020B6
:10575000704710B5026840F26F335169946944F0A4
:10576000080494610268946944F01004946102682A
:10577000146824F001041460026814699C431461E5
:105780000268936823F44043936090F88120042AD0
:105790000CD08A060AD5D0F8842042F08002C0F8E6
:1057A00084200268936943F02003936190F881207C
:1057B000032A0CD04A060AD5D0F8842042F004020D
:1057C000C0F884200268936943F0400393618A051E
:1057D0000AD5D0F8842042F00102C0F88420026883
:1057E000936943F400739361C9050AD5D0F8841016
:1057F00041F00801C0F8841001688A6942F480729F
:105800008A610021A0F86210A0F86A1010BD0000A3
:1058100010B5FFF7F1FB0A20FBF7A4F93620FFF7DC
:105820005DFB0020FFF786FB3A20FFF757FB0520C2
:10583000FFF780FBB220FFF751FB0C20FFF77AFB4C
:105840000C20FFF777FB0020FFF774FB3320FFF7F6
:1058500071FB3320FFF76EFBB720FFF73FFB3520CE
:10586000FFF768FBBB20FFF739FB1920FFF762FB4E
:10587000C020FFF733FB2C20FFF75CFBC220FFF7B3
:105880002DFB0120FFF756FBC320FFF727FB12205B
:10589000FFF750FBC420FFF721FB2020FFF74AFB56
:1058A000C620FFF71BFB0F20FFF744FBD020FFF7BC
:1058B00015FBA420FFF73EFBA120FFF73BFBE020F8
:1058C000FFF70CFBD020FFF735FB0420FFF732FB7E
:1058D0000D20FFF72FFB1120FFF72CFB1320FFF704
:1058E00029FB2B20FFF726FB3F20FFF723FB54204B
:1058F000FFF720FB4C20FFF71DFB1820FFF71AFBDA
:105900000D20FFF717FB0B20FFF714FB1F20FFF7FD
:1059100011FB2320FFF70EFBE120FFF7DFFAD02079
:10592000FFF708FB0420FFF705FB0C20FFF702FB45
:105930001120FFF7FFFA1320FFF7FCFA2C20FFF7E6
:10594000F9FA3F20FFF7F6FA4420FFF7F3FA512067
:10595000FFF7F0FA2F20FFF7EDFA1F20FFF7EAFA22
:105960001F20FFF7E7FA2020FFF7E4FA2320FFF7D4
:10597000E1FA2120FFF7B2FA1120FFF7AFFA782001
:10598000FBF7F0F82920FFF7A9FA0220FFF702F948
:105990000020FFF7DBF86FF07F40FFF7E9F8FEF734
:1059A00095F80749012205488860002005490872DA
:1059B000D103BDE810400448FBF7FCB944000024C3
:1059C00000000024880A0024000C02582DE9F04150
:1059D0001C4616460D460746DDF818800AE000BF53
:1059E000FBF7F4F9A0EB0800A04202D3601C01D041
:1059F0000BE054B13868406935EA000007D0002058
:105A0000B042EDD00020BDE8F0810320FBE701208B
:105A1000F6E770470178407841EA002070470000BF
:105A2000B5EEC00AF1EE10FA02D19FED090B09E0C4
:105A3000B7EEC00A9FED082B9FED091B20EE022B4D
:105A400082EE010B0848B7EEC00B80ED020A7047EA
:105A500000000000000000006E861BF0F9210940E4
:105A6000000000000080664010000024014AC2E9E6
:105A70000001704710000024134600B5FFF7F6FF41
:105A80000248C3605DF804EBFFF7CABF10000024B2
:105A9000FBF7A2B9F0B5CDB04C2130A8FAF762FC03
:105AA000202143A8FAF75EFCC0216846FAF75AFCA9
:105AB0000220FBF7A9FF3A4900243A480A6822F07D
:105AC00001020A600A68026842F440420260026809
:105AD00002F440424B9202689204FCD5324A1368A9
:105AE00043F002031360126802F002024B92026854
:105AF00042F44042026002680A6842F001020A6011
:105B0000096801F001014B9101688904FCD5FBF79C
:105B1000ADFFFBF755F92449843901220B680220B7
:105B200008252526C70323F018030B6005213292B0
:105B3000CDE930673AAF3692C0233990042687E822
:105B40000B00CDE93D06CDE940543F9030A842948A
:105B5000FCF7D0FF08B172B6FEE740204A903F2123
:105B60000301CDE946500322CDE9480343AB43A8E6
:105B700083E816000421FCF7ADFD08B172B6FEE71C
:105B800000210A481F941494CDE900016846FCF7EF
:105B9000CBF8002801D072B6FEE74DB0F0BD000092
:105BA0002C04005818480258F4440258010001809F
:105BB0002C48F0B52C4A016841F47001016010686E
:105BC00000F00F00072804D2106820F00F00C01D5D
:105BD000106026490020254C10340B68244D43F0FA
:105BE00001030B6020600B682B400B60136803F00F
:105BF0000F03072B04D9136823F00F03DB1D136079
:105C00001A4C1C4A18341C4B261D371D2060174C9B
:105C10001A4D28343060261D3860371D23603B1D27
:105C200035601C1D3A60251D2E1D1860331D226035
:105C30002860326018600A680C4B114C22F48022F4
:105C400060330A60186020686FF30F00B0F1005FE6
:105C500003D20C490120C1F8080143F2D2000A49DD
:105C60000860F0BD88ED00E00020005200440258BA
:105C70007FEDF6EA80020101000202020000FF014E
:105C80000010005C008000510040005230B5416EB1
:105C9000B9B101680D4B03F108048A688968C2F341
:105CA0004262490F5D5C615C2D01B5FBF1F1A0F82A
:105CB0006A10995CA25C0901B1FBF2F1A0F86810CE
:105CC00030BD0121A0F86A10F8E70000C4190108EE
:105CD00090F82810C90706D00168C36A4A6822F400
:105CE00000321A434A6090F82810890706D50168E7
:105CF000036B4A6822F480321A434A6090F82810F5
:105D0000490706D50168436B4A6822F480221A438A
:105D10004A6090F82810090706D50168836B4A6825
:105D200022F400421A434A6090F82810C90606D5AA
:105D30000168C36B8A6822F480521A438A6090F823
:105D40002810890606D50168036C8A6822F400527F
:105D50001A438A6090F82810490611D50168436CEF
:105D60004A6822F480121A434A60416CB1F5801FE0
:105D700006D10168836C4A6822F4C0021A434A6063
:105D800090F82810090606D50168C26C486820F40E
:105D900000201043486070472DE9F8430025044671
:105DA000C0F89050FBF712F88046206820266FF06C
:105DB0007E470068000713D5002243463104204681
:105DC000009700F03FFA58B1216851E8000F20F029
:105DD000800041E80002002AF6D1C4F8886021E082
:105DE00020680068400722D5002243464FF4800116
:105DF0002046009700F026FAC8B1206850E8001F3E
:105E000021F4907140E80012002AF6D12068083091
:105E100050E8001F21F0010140E80012002AF5D1EE
:105E2000C4F88C60032084F88450BDE8F883C4F87B
:105E30008860C4F88C60E5662567002084F884508B
:105E4000F3E7000010B5026852E8001F21F49071DA
:105E500042E80013002BF6D10E4B0268083252E8DC
:105E6000001F194042E80014002CF6D1C16E012930
:105E700008D1026852E8001F21F0100142E8001327
:105E8000002BF6D100212022C0F88C20C16641678A
:105E900010BD0000FEFFFFEF2DE9F04304468068CF
:105EA000D84E87B0D84B2168D4E90427D4F81CC059
:105EB00010430A68002547EA0C0738433240024382
:105EC0000A602068E268416821F440511143416052
:105ED0002268A1699A4201D0206A01439768DFF8DD
:105EE0002CC3CB4ECB4807EA0C070F4397602168C1
:105EF000676ACA6A22F00F023A43CA622268B24253
:105F00000ED1006800F03800182873D047DCB8B311
:105F1000082879D010286FD178E028287ED17BE03E
:105F2000BD498A4209D1006800F00700062875D2F1
:105F3000DFE800F0546A6C6E7072B8498A4209D189
:105F4000006800F00700062868D2DFE800F0475D2F
:105F50005F616365B2498A4209D1006800F00700B9
:105F600006285BD2DFE800F03A5052545658AD494B
:105F70008A420BD1006800F0070006284ED200E0EC
:105F800010E0DFE800F02B4143454749A6498A422B
:105F90000AD1006800F03800182839D0B7DD202871
:105FA000BBD13CE001203AE0A0498A4209D1006817
:105FB00000F00700062831D2DFE800F01026282A7A
:105FC0002C2E9B498A420BD1006800F0070006285E
:105FD00024D2DFE800F003191B1D1F2100201EE062
:105FE0009A421BD18B48001D006800F0070006286C
:105FF00014D202E00CE007E010E0DFE800F0030557
:1060000007090B0D02200AE0042008E0082006E042
:10601000102004E0202002E0402000E0802085499C
:10602000DFF814829A42854A4FF400434FEA211761
:106030004FF000064ED110281AD006DC022809D0F5
:1060400004280BD008287CD10DE020283ED0402821
:1060500077D13DE0FBF712FD014610E06846FBF703
:106060001FFD01990BE003A8FBF7BCFD049906E0B6
:106070001068800605D51068C0F3C100C140002932
:1060800070D0606A676838F8102007EB4703B1FBEF
:10609000F2F0834255D8B0EB073F52D800230846B0
:1060A0001946FAF715F902467808130E120243EA68
:1060B000012110183A4671410023FAF709F9604AA4
:1060C000A0F5407191423CD821688FE03946D8E76D
:1060D0001946D6E7D4F81CC04FF6EF799C4546D157
:1060E000082819D005DC58B101280CD0042875D136
:1060F0000DE0102815D0202835D040286ED134E08E
:10610000FCF738FC01E0FCF747FC014610E068466C
:10611000FBF7C6FC01990BE003A8FBF763FD0499AC
:1061200006E01068800604D51068C0F3C100C140C5
:10613000C1B1636A606838F81330B1FBF3F149000C
:1061400000E04BE001EB5001B1FBF0F0A0F11001D9
:10615000494543D84FF6F0732168C0F34202184016
:10616000104343E043E03946E3E71946E1E70828F6
:1061700019D005DC58B101280CD004282ED10DE02F
:10618000102815D020282BD0402827D12AE0FCF752
:10619000F1FB01E0FCF700FC014610E06846FBF76C
:1061A0007FFC01990BE003A8FBF71CFD049906E0B6
:1061B0001068800604D51068C0F3C100C140B1B1B9
:1061C000636A606838F81330B1FBF3F101EB5001FA
:1061D000B1FBF0F0A0F11001494505D9012506E019
:1061E0003946EDE71946EBE7216880B2C860012027
:1061F000A4F86A00A4F8680028466667A66707B096
:10620000BDE8F083F369FFCF000C0058FFF4FF11E5
:10621000001001405444025800440040004800402F
:10622000004C004000500040001401400078004045
:10623000007C00400090D003AC19010800440258D3
:10624000FFFC0F002DE9F047994617460E4604461D
:10625000089D4FF000082FE0681C2DD0FAF7B6FD1E
:10626000A0EB0900A84214D89DB120680168490735
:1062700022D5C169C94309070DD408250562204606
:10628000FFF7E0FDC4F89050012084F88480BDE859
:10629000F0870320FBE7C069C04300050CD42168E8
:1062A0004FF4006008622046FFF7CCFD2021C4F8BF
:1062B000901084F88480ECE72068C06936EA00001A
:1062C00004D00020B842C7D00020E0E70120F9E761
:1062D0002DE9F0410C46D0F8D412D0F8C83200EBCA
:1062E0008101D1F8C01229B304F00F02002702EB9C
:1062F000820500EB8506B5694DB102EBC20203EBE6
:106300008202526CB5FBF2F302FB1352A2B1C1F848
:106310001472D0F8D42200EB8200D0F8C4020369D2
:106320002BB1D1F8080201F50471224698470020EC
:10633000BDE8F0810320FBE7002321461A46B76140
:1063400000F0C6FDF3E770B50546D0F8D40205EBC2
:106350008000D0F8C04294B1284600F094FCC4F804
:106360000C02D5F8D40205EB8000D0F8C412D4F8A2
:106370000402CA6804F503719047002070BD032031
:1063800070BD000070B5224D0446297800F0BCFBBA
:106390002878002600F00F0000EB800004EB80005E
:1063A00086842046697800F0AFFB687800F00F0023
:1063B00000EB800004EB8000A0F864612046A9781F
:1063C00000F0A2FBA87800F00F0000EB800004EBC7
:1063D00080008684C684D4F8D40204EB8000D0F810
:1063E000C01299B1D0F8C40240688047D4F8D402F2
:1063F00004EB8000D0F8C00200F093FFD4F8D40280
:1064000004EB8000C0F8C062C4F8BC62002070BD1C
:10641000F400002410B5D0F8D41200EB8100D0F8BD
:10642000C04284B1D0F8C41259B194F80002FF28D8
:1064300007D08B68214694F801229847FF2084F802
:106440000002002010BD032010BD00000A210180C1
:1064500000487047F800002470B5822106460D48B8
:1064600000F0E1FA012105460A4800F0DCFA81213A
:106470000446084800F0D7FA0DB11021A9714FF079
:10648000400104B1A18000B18180432030800148E7
:1064900070BD00000401002470B5822106460D483D
:1064A00000F0C1FA012105460A4800F0BCFA81213A
:1064B0000446084800F0B7FA0DB11021A9714FF455
:1064C000007104B1A18000B1818043203080014877
:1064D00070BD00000401002470B5822106460D48FD
:1064E00000F0A1FA012105460A4800F09CFA81213A
:1064F0000446084800F097FA0DB11021A9714FF039
:10650000400104B1A18000B1818043203080014866
:1065100070BD0000040100242DE9F0474FF4077519
:106520000446284600F0FEFE06004FF0000965D044
:106530002946F9F717FFD4F8D40201273C4D4FF450
:10654000007A4FF0100804EB8000C0F8C062C4F875
:10655000BC62207CF0B3297840230222204600F060
:1065600001FC2878402300F00F0000EB800004EBD2
:106570008000878402226978204600F0F3FB697866
:1065800008230322204601F00F0101EB810104EBF7
:106590008101A1F86471A97801F00F0101EB81017B
:1065A00004EB8101A1F82680A97800F0DBFBA97833
:1065B000C84601F00F0101EB810104EB81018F84DA
:1065C000C6F80492D4F8D40204EB8000D0F8C402D8
:1065D000006800E01AE006F501768047C6F81080F2
:1065E000C6F8148032687AB1207CF8B1402369780B
:1065F000204600F0C3FB0020BDE8F087D4F8D41299
:1066000004EB8101C1F8C0920220F5E7297802224B
:106610005346204600F0A6FB2878534600F00F00B2
:1066200000EB800004EB80008784A3E75346DEE79D
:10663000F400002410B5D0F8D41200EB8101D1F899
:10664000C01259B1027C084C002AD1F8042207D0AC
:106650004023617800F092FB002010BD032010BDA4
:106660004FF40073F5E70000F400002439B1D0F8CE
:10667000D42200EB8200C0F8C4120020704703202F
:106680007047D0F8D42200EB8200D0F8C00218B1D5
:10669000C0F804120020704703207047D0F8D432AD
:1066A00000EB8300D0F8C00228B1C0F81022C0F877
:1066B000081200207047032070472DE9FC41064670
:1066C000D0F8D4020C46002106EB80000D46D0F82D
:1066D000C0728DF80010ADF8041037B1217811F0B8
:1066E00060022CD0202A48D102E00320BDE8FC81C2
:1066F000E288E2B109060BD5D0F8C40239468368B6
:1067000060789847E288072A00D9072239462CE0AA
:10671000607887F80002E088402800D3402039469E
:10672000C2B2304687F8012200F057F82AE0D0F8CC
:10673000C4020022214683686078984722E060788E
:1067400030B101281ED00A2809D00B2815D110E03D
:1067500096F89C02032810D1022201A905E096F8C0
:106760009C02032809D101226946304600F04FF807
:1067700008E096F89C02032804D02146304600F039
:1067800021F803252846B1E710B5D0F8B822002437
:106790005268904700B10324204610BD0020704786
:1067A0000020704713460A46002110B500F0E6FAB3
:1067B000002010BD13460A46002110B500F088FBEA
:1067C000002010BD10B58021044600F062FB204679
:1067D000BDE81040002100F05CBB10B5C0F85821A6
:1067E0000323C0F89432C0F85C2113460A46002106
:1067F00000F0C4FA002010BD10B50521C0F89412B5
:1068000000231A46194600F0B9FA002010BD10B551
:1068100082610223C0F89432C26113460A46002105
:1068200000F056FB002010BD10B50421C0F89412F2
:1068300000231A46194600F04BFB002010BD000053
:1068400004A00A46024910B500F011F9004810BD35
:10685000080E002443444320436F6E6669670000BE
:1068600012200880004870479800002404A00A46BF
:10687000024910B500F0FBF8004810BD080E0024D6
:1068800043444320496E746572666163650000008D
:1068900004200880004870479400002404A00A46A1
:1068A000024910B500F0E3F8004810BD080E0024BE
:1068B00053544D6963726F656C656374726F6E6972
:1068C0006373000004A00A46024910B500F0CFF837
:1068D000004810BD080E002453544D333220566931
:1068E000727475616C20436F6D506F72740000009C
:1068F00010B51A2008800B480A490830021F0968A1
:1069000000681468081809D007490822FDF734F810
:106910000549042220461031FDF72EF80248801E5A
:1069200010BD000000E8F11FAE000024F8B50446D9
:106930000D460020ADF800004888010A062947D01E
:1069400006DC01290FD0022912D0032962D11DE0F3
:10695000072946D00F295DD1D4F8B402C26920E0DE
:10696000694690473BE0D4F8B412207C0A68F7E708
:10697000207C02260028D4F8B80205D0C16A6846F7
:1069800088470146467036E0816AF8E7C0B20628BB
:1069900040D2DFE800F003090D111519D4F8B40254
:1069A0004268B2B3207CDBE7D4F8B4028268F8E72F
:1069B000D4F8B402C268F4E7D4F8B4020269F0E78C
:1069C000D4F8B4024269ECE7D4F8B4028269E8E78B
:1069D000207CF0B9D4F8B802416B6846884701467C
:1069E00009E0207CA8B9D4F8B802016B6846884752
:1069F000014607204870EA888AB1BDF8000040B11E
:106A0000824200D902462046ADF80020FFF7FFFE83
:106A1000F8BDFFE729462046FFF7D4FEF8E72046F9
:106A2000FFF702FFF4E778B542880D4601780026AB
:106A300004468A4212D9ADF800100AE0694600F017
:106A40000FF84178052904D181780646A94205D07E
:106A500000266188BDF800209142EFD8304678BD0D
:106A60000A8803781A440A8001780844704770B590
:106A700000284FF000051ED004462E4602E0761C8A
:106A8000641CF6B22378002BF9D1022404EB4604EF
:106A9000148012786B1C03264A550024AA1CCE547D
:106AA00006E0551C8B54EAB2531C401C8C54DAB2DD
:106AB0000378002BF5D170BD01004FF0000004D029
:106AC000012901D0022901D003207047012070471D
:106AD00078B10023C0F8B832C0F8C432C0F8D03260
:106AE00009B1C0F8B4120121027080F89C1200F0C4
:106AF000CFB80320704710B5D0F8C802FAF79CFA57
:106B0000BDE81040FFF7D8BF10B5D0F8C802FAF7BB
:106B10006DFABDE81040FFF7CFBF2DE9F0411746F1
:106B200004464FF0000521B194F89C02032842D09E
:106B30004CE0D4F8941204F11400022935D1D0E9C4
:106B400002639E4206D9F21A394682602046FFF758
:106B500031FE0FE0B34214D14068984211D3D4F80B
:106B6000981288420DD2002220461146FFF722FEDD
:106B7000C4F8985200231A461946204600F0FEF841
:106B800013E094F89C02032808D1D4F8B802C16835
:106B900021B1C4F8D452C1682046884780212046DC
:106BA00000F077F92046FFF727FE94F8A00268B1BD
:106BB00084F8A0520AE0D4F8B802426932B1C4F8AD
:106BC000D452426920469047002800D10020BDE8F9
:106BD000F08170B5134604464FF0000221B194F8DD
:106BE0009C02032830D03AE0D4F8941204F5AA703D
:106BF000032934D1D0E902518D420AD96A1A826040
:106C00000846824200D3024619462046FFF7CAFDD5
:106C100025E094F8AA0210F01F0003D0012802D04A
:106C2000022800D0002294F89C02032808D1D4F84E
:106C3000B802016921B1C4F8D4220169204688470D
:106C40002046FFF7F1FD0AE0D4F8B802836933B1BA
:106C5000C4F8D422826920469047002800D1002041
:106C600070BD0020704710B5D0F8B812012280F82E
:106C70009C22002429B103794A68D9B2904700B117
:106C80000324204610BDD0F8C802FAF703BA00006A
:106C900070B5017839BB154902230022144C09252F
:106CA000C1F80805C0F8C8120846C1E90323C1E9C4
:106CB00006320A624A628A62CA620A63C1E9004510
:106CC000FAF766FD08B1F9F732FF08488021FAF7B4
:106CD0003CF9064840220021FAF73BF9034880229C
:106CE0000121FAF736F9002070BD000028220024A7
:106CF00000000840D0F8C82201F07F000B0600EB2E
:106D0000C00002EB800002D590F83E00704790F87A
:106D10007E02704710B5D0F8D42200EB8202D2F880
:106D2000B82222B190F89C32032B02D004E0032059
:106D300010BD126A02B19047002010BD10B5D0F806
:106D4000D42200EB8202D2F8B82222B190F89C3211
:106D5000032B02D004E0032010BD526A02B1904719
:106D6000002010BD10B51C46D0F8C80213462246BC
:106D7000FAF799F9BDE81040FFF79EBE10B5D0F8BC
:106D8000C802FAF7C0F9BDE81040FFF795BE2DE93B
:106D9000F041044601250020D4F8B812064684F8D4
:106DA0009C52C4F894026060C4F8A40284F8A00263
:106DB00031B14A6822B100212046904700B1032634
:106DC0002046002240231146FFF7CCFF4027A4F8BD
:106DD000645100223B4680212046C4F86071FFF7D1
:106DE000C1FFA58430462762BDE8F08190F89C126F
:106DF000042903D190F89D1280F89C12002070475E
:106E000010B590F89C12032905D1D0F8B81211B131
:106E1000C96901B18847002010BD01740020704786
:106E200010B5D0F8C802FAF79BFDBDE81040FFF797
:106E300043BE70B5044600F2AA20054600F051F8A2
:106E400094F8AA020123B4F8B01210F01F02C4F89B
:106E50009432C4F898120AD0012A0ED0022A12D015
:106E600000F080012046BDE8704000F012B82946CD
:106E70002046BDE8704000F0D1B829462046BDE864
:106E8000704000F014BA29462046BDE8704000F07A
:106E90005CB910B5D0F8C802FAF74FF9BDE8104058
:106EA000FFF70ABE10B5D0F8C802FAF774FDBDE8C6
:106EB0001040FFF701BE90F89C12042903D090F80F
:106EC0009C1280F89D12042180F89C1200207047CB
:106ED00010B5D0F8C802FAF76AF9BDE81040FFF71C
:106EE000EBBD70B5054608788C1C28704878687032
:106EF0002046FEF78FFDA41C68802046FEF78AFD21
:106F0000A880A01CFEF786FDE88070BD38B5044659
:106F10000020ADF80000A1B1C4F8B812D4F8D40232
:106F200004EB8000D0F8B802C16A19B168468847FE
:106F3000C4F8D002D4F8D802401CC4F8D80200200B
:106F400038BD032038BDD0F8B83202460020002BEF
:106F500002D01B6810461847704700002DE9F04129
:106F60002C4E0446887800258846C1B2012931702C
:106F700006D941462046FFF725FC0320BDE8F081F5
:106F800094F89C02022702280CD003281DD0414609
:106F90002046FFF717FC31782046FFF7F5FB032565
:106FA0002846EBE789B320466160FFF7CCFF050078
:106FB00004D041462046FFF705FC1DE02046FFF7C0
:106FC00033FC032084F89C02EAE7C1B16068884280
:106FD0001BD0C1B22046FFF7D7FB31782046616055
:106FE000FFF7B1FF050010D041462046FFF7EAFB4E
:106FF00021792046FFF7C8FB84F89C72D0E76160D6
:1070000084F89C722046FFF7BFFB2046FFF70CFC7C
:10701000C6E70000F0000024FFF744BF2DE9F0416F
:107020000A784FF0000512F060020CD0202A01D03F
:10703000402A7DD1D0F8D42200EB8202D2F8B822C7
:107040009268904731E04B78002201260A2B6FD2DC
:10705000DFE803F041666E586E08056E2D29FFF7D4
:1070600065FC67E004468888D8B9C888C8B94888EC
:10707000802816D294F89C2200F07F07032A10D0B3
:107080003946204684F89E72FFF7CAFE2046FFF775
:10709000CBFB1FB1022084F89C024BE084F89C6279
:1070A00048E0204644E0FFF759FF054642E0CB8820
:1070B000012B3DD190F89C32012B04D0022B02D041
:1070C000032B35D104E000F108018260012216E0B3
:1070D0000122011D13E090F89C22012A03D0022A0C
:1070E00001D0032A24D1CA88022A21D1D0F8A412BF
:1070F000C66009B10321C160022200F10C01FFF753
:1071000086FB17E04A88012A02D0022A03D00FE04A
:10711000C0F8A46216E08988090A80F8A01211E07C
:1071200090F89C32012B08D0022B06D0032B04D000
:10713000FFF748FB2846BDE8F08149880129F9D1CD
:10714000C0F8A422FFF770FBF4E72DE9F0410A78BC
:107150000E460979054612F060004FF00008CCB2E7
:107160000BD0202801D040286AD121462846FFF7BD
:1071700015FBFF2800D0D8B396E07078C8B301287B
:1071800024D003285CD195F89C02022802D0032861
:1071900056D10CE0002C53D0802C51D021462846EB
:1071A000FFF777FE80212846FFF773FE7CE07088AA
:1071B00040B93CB1802C05D0F08818B9214628464A
:1071C000FFF767FE2846FFF72FFB6DE095F89C025E
:1071D0000228DFD0032863D1708880BB600603D00B
:1071E00021462846FFF787FC2846FFF71DFBBCE732
:1071F00000E00AE0C5F8D402D5F8B8028268F2B11E
:1072000031462846904780464EE095F89C0200277C
:10721000022802D0032843D113E00CB1802C3FD1C7
:10722000200604F07F0000EB800005EB800101D513
:10723000143101E001F5AA7102220F602CE033E065
:107240002EE0200604F00F0000EB800005EB80002C
:1072500009D5808C20B304F07F0000EB800005EBA3
:10726000800614360AE0B0F86401C8B104F07F006B
:1072700000EB800005EB800606F5AA764CB1802C69
:1072800007D021462846FFF735FD10B101203060B8
:1072900000E03760022231462846FFF7B8FA03E0E3
:1072A00031462846FFF78EFA4046BDE8F08170B5BA
:1072B000054608780E464FF0000410F0600003D039
:1072C000202801D0402827D195F89C02012803D01E
:1072D000022801D003281FD1B088C1B201291AD8D1
:1072E000C1B22846FFF75CFAFF280CD058B9D5F890
:1072F000B8128A683AB1C5F8D40228468A6831467D
:107300009047044600E00324F088204307D1284634
:10731000FFF78AFA03E031462846FFF753FA204682
:1073200070BD7047004870470820002470B54D7844
:1073300001230A78012D1C4C02F00F0503FA05F316
:10734000D0F81C5817D000EB421245EA0343C0F8AE
:107350001C38D2F8000B00040BD40B890979D2F841
:10736000000BC3F30A03184344EA81410843C2F8FF
:10737000000B002070BD9EB23543C0F81C5800EBD6
:107380004213D3F800090004F3D40D890979D3F826
:107390000009C5F30A058904284341EA82510843DC
:1073A0002043C3F80009E4E700800010D0F800197A
:1073B0006FF30A01C0F80019D0F8041841F4807185
:1073C000C0F804180020704770B504461D460699A1
:1073D0000A9E0D9801291DD0E06840F04000E06051
:1073E000204600F035F8A16B5EB321F48031A16333
:1073F000012D0ED1E16D144A89B2E165E16D1143B1
:10740000E165A16841F00601A160A16841F0200199
:10741000A16070BDA26B01280C4922F48030A063EA
:10742000E06800EA0100E060E06820F44010E060FD
:1074300003D1E06840F48010E060204600F008F8D6
:10744000D6E741F48031D2E70000EE03BFFFBDFF75
:1074500008B50E4900220092009B5B1C00938B42F2
:107460000CD80369002BF7DA0092026942F001029E
:107470000261009A521C00928A4201D9032008BD81
:107480000269D207F5D1002008BD0000400D0300BD
:1074900070B50A7801234C78012C00EB42122CD0F5
:1074A000D2F8004B002C0BDAD2F8004B44F0006409
:1074B000C2F8004BD2F8004B44F08044C2F8004BB5
:1074C0000C78D0F83C5804F00F0403FA04F425EAD1
:1074D0000444C0F83C480978D0F81C4801F00F017A
:1074E0008B401C4924EA0343C0F81C38D2F8000B37
:1074F0000840C2F8000B002070BDD2F80049002CF3
:107500000BDAD2F8004944F00064C2F80049D2F81E
:10751000004944F08044C2F800490D78D0F83C4856
:1075200005F00F050C4E03FA05F5ADB2AC43C0F8FB
:107530003C48D0F81C48097801F00F018B4099B203
:107540008C43C0F81C48D2F800093040C2F800094A
:10755000D1E700000078F3EF007833ECD0F8001E9C
:1075600021F00301C0F8001ED0F8041821F0020138
:10757000C0F8041800207047D0F8001E21F0030165
:10758000C0F8001ED0F8041841F00201C0F8041839
:10759000002070472DE9F04F9A460E460021044620
:1075A000DDE90B3B109F0D46099A084604EB800C61
:1075B000CCF80411401C0F28F8D32046A7B1806BEB
:1075C00040F4001CC4F838C088460846C4F8000ED1
:1075D0002046D4F80018012BC4F800181AD0D0F8AF
:1075E000001841F003011AE0D0F8040840F0020C42
:1075F000C4F804C8A06B20F4001CC4F838C020688C
:1076000040F0400CC4F800C0206840F0800CC4F882
:1076100000C0D9E7D0F800180AB141F00101C0F864
:107620000018102100F08CFA00B10125204600F06E
:1076300069FA00B1012540464FF000684FF67F33EC
:107640004FF09049C4F81008C4F81408C4F81C0896
:10765000002114E004EB4112D2F800C9BCF1000F84
:1076600006DA11B1C2F8009904E0C4F8008901E01B
:10767000C2F80009C2F81009C2F80839491C8E4244
:10768000E8D8002115E000BF04EB4112D2F800CB8E
:10769000BCF1000F06DA11B1C2F8009B04E0C4F897
:1076A000008B01E0C2F8000BC2F8100BC2F8083BD7
:1076B000491C8E42E8D8D4F81038BAF1000F6FF0A8
:1076C000804223F48073C4F81038A061626103D152
:1076D000A06940F01000A061A069BBF1000F094A49
:1076E00040EA0200A06103D0A06940F00800A06158
:1076F000012F03D1A06904490843A0612846BDE8D1
:10770000F08F000000383C8004000040816821F0C8
:10771000010181600020704710B5144C036CA34236
:1077200003D9D0F8003B002B1EDB0023C0F8103B30
:107730000129D0F8101B41F40021C0F8101BD0F82B
:10774000101B41F01801C0F8101BD0F8101B41F0BD
:10775000C041C0F8101B07D1C0F8142BD0F8001B93
:1077600041F08021C0F8001B002010BD0A30544FAA
:107770000B784A78012A00EB43100BD0D0F8002B8D
:1077800022F40012C0F8002B0979032914D0022931
:1077900012D017E0D0F8002922F40012C0F8002916
:1077A0000979032901D002290CD1D0F8001941F040
:1077B0008051C0F8001905E0D0F8001B41F080515D
:1077C000C0F8001B002070470A784B78D1B2012B1B
:1077D00000EB421012D0D0F8002B002A06DB29B1B2
:1077E000D0F8001B21F08041C0F8001BD0F8001B2E
:1077F00041F40011C0F8001B00207047D0F80029A8
:10780000002A06DB29B1D0F8001921F08041C0F828
:107810000019D0F8001941F40011C0F80019EBE785
:10782000F8B50B786FF060464F788A4DDCB2012FC7
:1078300000EB43132BD0D3F8107B002C07EAC54490
:10784000C3F8104BD3F8104B04EA0504C3F8104BEF
:107850007ED00D69002D7CD08C6825446D1EB5FB53
:10786000F4F5ADB26C430C6206EAC545D3F8104B93
:107870002C43C3F8104BD3F8104B0D6AC5F3120517
:1078800054EA0504C3F8104B012A6ED0C9E00F6911
:1078900037B3D3F810796FF31207C3F81079D3F820
:1078A000107907EA0507C3F810794CB30F698D68A2
:1078B000D3F810C92F447F1EB7FBF5F506EAC5457E
:1078C00045EA0C05C3F810590E69D3F81059C6F3F0
:1078D00012063543C3F810590D79012D1CD027E04D
:1078E000D3F810692E40C3F81069D3F8105945F445
:1078F0000025C3F81059D3F810596FF3120515E09D
:107900000E698D68AE4200D90D61D0F8106946F459
:107910000026C0F81069D7E7D3F8105925F0C04504
:10792000C3F81059D3F8105945F00055C3F8105951
:10793000012A1BD000EB4413D3F8004944F004445F
:10794000C3F800490C79012C31D00A6972B301E007
:1079500042E055E00B78D0F83418012203F00F0311
:107960009A401143C0F8341871E056E0CA691AB160
:1079700000EB4413C3F81429097901290ED1D0F87A
:107980000818C90500EB4411D1F8002902D442F0CF
:10799000005201E042F08052C1F8002900EB44108F
:1079A000D0F8001941F00441C0F800194FE0D0F8B8
:1079B0000848E405D3F8004902D444F0005401E03B
:1079C00044F08054C3F8004900920B8A0A78C968D1
:1079D0009BB200F0E7F93AE00C690CB18C680C61DD
:1079E0008C680C62C4F31205D0F8104B2C43C0F81D
:1079F000104BD0F8104B44F40024C0F8104B43E770
:107A00008D68D3F8104BC5F312052C43C3F8104B07
:107A1000D3F8104B44F4002434E7CA680AB1C3F821
:107A2000142B097901290CD1D0F80808C005D3F826
:107A3000000B02D440F0005001E040F08050C3F849
:107A4000000BD3F8000B40F00440C3F8000B0020FB
:107A5000F8BD0000FFFF07E038B5002242F21074C5
:107A6000002300920A784D78012D00EB421219D0C4
:107A7000D2F8005B002D3CDAD2F8005B45F00065DF
:107A8000C2F8005B0A7800EB4212D2F8005B45F0C6
:107A90008045C2F8005B009A521C0092A24221D994
:107AA000012326E0D2F80059002D22DAD2F800593D
:107AB00045F00065C2F800590A7800EB4212D2F88E
:107AC000005945F08045C2F80059009A521C0092B6
:107AD000A242E5D80A7800EB4212D2F80029002A27
:107AE000F3DB06E00A7800EB4212D2F8002B002A02
:107AF000D1DB184638BD816841F00101816000206A
:107B00007047000008B50D4900220092009B5B1CE5
:107B100000938B420AD80369002BF7DA00921023F6
:107B20000361009A521C00928A4201D9032008BDC9
:107B30000269D206F5D4002008BD0000400D030004
:107B400018B50E4A00230093009C641C00949442D4
:107B50000CD80469002CF7DA2024009344EA811140
:107B600001610099491C0091914201D9032018BD7F
:107B700001698906F5D4002018BD0000400D0300FE
:107B8000D0F8080810F0060004D0022803D0062818
:107B900001D00F20704702207047406900F00100BB
:107BA0007047D0F81818D0F81C08084080B2704709
:107BB000D0F81818D0F81C080840000C704710B511
:107BC000D0F8102801F00F0300EB4114D0F834185E
:107BD000D4F80809D94001F0010142EAC111084076
:107BE00010BD00EB4111D1F8081BD0F81408084073
:107BF000704741698069084070470346084630B5C0
:107C0000940802F00301002203F5805303E01D688D
:107C1000521C40F8045BA242F9D300290CD01C6826
:107C20000023491EDD00090403F10103090C24FAB5
:107C300005F200F8012BF4D130BD70B50446C068E0
:107C400001294FF0000520F0C040E06001D079B17B
:107C500020E0E06840F00050E0600120F8F782FF8B
:107C600060696D1C10F0010F10D1322DF5D30DE0BD
:107C7000E06840F08040E0600120F8F773FF606941
:107C80006D1C10F0010F01D0322DF5D3322D01D033
:107C9000002070BD012070BDD0F800284FF4FE63B5
:107CA00003EA011322F4FE62C0F80028D0F800189D
:107CB0001943C0F80018002070470000022A3ED186
:107CC000264A274B0A449A4201D20F2138E0254A1E
:107CD000254B0A449A4201D20E2131E0234A244B1B
:107CE0000A449A4201D20D212AE0224A224B0A4438
:107CF0009A4201D20C2123E0204B214A0B449342AB
:107D000001D20B211CE01F4B1F4A0B44934201D2AE
:107D10000A2115E01D4B1E4A0B4493420FD31D4B05
:107D20001D4A0B44934201D2082109E01B4B1C4A17
:107D30001944914201D2072102E0062100E0092105
:107D4000C2684FF4705322F47052C26003EA812378
:107D5000C1681943C160002070470000405327FFED
:107D600000350C00401E1BFF40420F0000DC0BFFE3
:107D7000804F1200808CF9FE20D6130060B6E5FE1D
:107D800060E3160000D3CEFE40771B00C05BB3FE5D
:107D9000C091210000CA91FE20753800E05459FEC0
:107DA000E09C410010B5029C74B900EB0232DB1C70
:107DB00000209B0802F5805204E000BF51F8044BFC
:107DC0001460401C9842F9D3002010BDFEE703B4B4
:107DD00001984100009850EAC12018BF04204A0DC4
:107DE00018BF40F0010040F2FF72B2EB515F08BFD4
:107DF00040F00200012808BF052002B070470907C3
:107E000000284FEA116104DB00F1E02080F8001443
:107E1000704700F00F0000F1E02080F8141D70475B
:107E200070B565482DED020B2DED048B059D25F0F9
:107E30000044A04218DC6148844202DC0AD1049864
:107E400040B19DED040BBDEC048B02B0BDE8704069
:107E500000F0FABC002DCCBF9FED590B9FED5A0BE3
:107E6000BDEC048B02B070BD5948A04215DD5948E5
:107E7000A042D8BF4FF0FF3455DD9DED040B51EC0F
:107E8000100BFFF7A4FF042808BF00F0F1FC9DEDE4
:107E9000040BBDEC048B02B070BD9DED040B51ECE6
:107EA000100B00F00FFDCDE904014B489FED4C0B8A
:107EB000A0421CDD4C48A0420BDD9DED042B0024AC
:107EC0009FED4B1B12EE010B32EE011B80EE012BDE
:107ED00027E09DED041B9DED042B012431EE401B9A
:107EE00032EE000B81EE002B8DED042B1BE042489F
:107EF000A0420FDD9DED042B02249FED411B9DED63
:107F0000043B32EE412B03EE010B82EE001B8DEDA4
:107F1000041B08E09DED040B9FED3B1B032481EE49
:107F2000002B8DED042B9DED040B3948062120EE2E
:107F3000009B29EE098BB0EE480B784400F0F8FB6B
:107F400020EE099B3348B0EE480B0521784400F041
:107F5000EFFB20EE080B002C0BDA9DED042B39EE25
:107F6000001B9DED040BBDEC048B02B002EE410B37
:107F700070BD2948784439EE000B00EBC4009DED3C
:107F8000042B90ED001B254812EE001B9DED040B09
:107F900031EE400B784400EBC400002D90ED001B47
:107FA00031EE400BB8BFB1EE400BBDEC048B02B01C
:107FB00070BD000000000000000010440000F07FD1
:107FC000182D4454FB21F93F182D4454FB21F9BFCF
:107FD0000000DC3F0000203E0000F33F00000000F6
:107FE000000000000000F03F0000E63F000000003D
:107FF000000000000000004000800340000000007E
:10800000000000000000F83F000000000000F0BF8A
:10801000129B0000D89A0000909A0000509A00002D
:1080200070B55F4E2DED040B2DED028B82B0DDF8A7
:108030001CC0DDE905235C422CF000411C4341EAF1
:10804000D474049D22F00040B44205D86C422C4305
:1080500040EAD474B4420BD99DED061B9DED040B90
:1080600002B0BDEC028B04B0BDE8704000F0EFBB85
:10807000ACF14054A4F17F641C430BD0022404EA09
:10808000AC7444EAD27405439FED478B9FED482BB7
:108090000DD016E09DED040B51EC100B00F00AFC26
:1080A00041EC100B02B0BDEC028B04B070BD002C93
:1080B00014BF012C9DED040BF4D0022C2ED0032C08
:1080C0002FD00B439FED3C1B9FED3D0B0AD0B142DF
:1080D0001DD1B04209D121F0804120F080400791AC
:1080E000059014E0002ADDDA15E0374B7B44002CC4
:1080F00008BF93ED000BD5D0012C04BF93ED000B0E
:10810000B1EE400BCED0022C08D0032C09D0B042E7
:108110000AD1002AC6DAB0EE410BC3E7B0EE480B35
:10812000C0E7B0EE420BBDE7401A00153C28C8BFBF
:108130008DED000B17DCBCF1000FBEBF10F13C0F42
:108140009FED230B8DED000B0DDB9DED041B9DEDD5
:10815000062B81EE020B51EC100B00F0B3FB00F08C
:10816000A9FBCDE90001002C08BF9DED000B99D0C3
:10817000012C0CD09DED001B9FED170B022C31EE56
:10818000400B0CBF38EE400B30EE480B8AE70198ED
:1081900080F0004001909DED000B83E7000000009F
:1081A0000000F07F00000000182D4454FB2109401E
:1081B000182D4454FB2109C0182D4454FB21F9BF4C
:1081C000182D4454FB21F93FC09900000000000025
:1081D0000000000000000000075C143326A6A13C4C
:1081E00010B529499FED261B2DED020B84B0059893
:1081F00020F000408842D8BF9DED040B2DDD2349BF
:10820000884209D1049840B94FF0010000F04CFBBE
:1082100000F022FB06B010BD05DB9DED040B30EE37
:10822000000B06B010BD68469DED040B00F088F809
:1082300010F0030004BF9DED021B9DED000B0CD060
:1082400001280ED09DED021B9DED000B022810D0E1
:10825000012000F0A5FA06B010BD00F0F9F906B053
:1082600010BD9DED021B9DED000B012000F098FA62
:1082700001E000F0EDF906B0B1EE400B10BD0000DA
:108280000000000000000000FB21E93F0000F07F3B
:1082900010B529499FED261B2DED020B84B00598E2
:1082A00020F000408842DCBF00209DED040B2EDD55
:1082B0002249884209D1049840B94FF0010000F0EA
:1082C000F3FA00F0C9FA06B010BD05DB9DED040B12
:1082D00030EE000B06B010BD68469DED040B00F0BB
:1082E0002FF810F003000DD0012814D09DED021BD3
:1082F0009DED000B022816D000F0AAF906B0B1EEF1
:10830000400B10BD9DED021B9DED000B012000F008
:1083100047FA06B010BD9DED021B9DED000B00F06D
:1083200097F906B010BD012000F03AFAE6E7000028
:108330000000000000000000FB21E93F0000F07F8A
:108340002DE9F14F04462DED020B2DED048B94B079
:108350009FED9D0B80ED020B199E9D4826F0004578
:1083600085420ADC9DED180B002084ED000B14B053
:10837000BDEC048B03B0BDE8F08F96489FED969B53
:108380009FED978BA84225DD97489FED991B9FEDA8
:108390009A2B9DED180B002E0DDD30EE490B85421A
:1083A00012BF30EE480B30EE410B30EE420B84ED45
:1083B000000B0120DBE730EE090B854212BF30EEE7
:1083C000080B30EE010B30EE020B84ED000B4FF08A
:1083D000FF30CCE78A48A84253DB9DED180B51ECE7
:1083E000100B00F06FFA41EC100BB0EE401B9FED4C
:1083F000862B9FED870B290DDFF81CC201EE020BC7
:108400000120FDEEC00B10EE903A00EE903AB8EE6F
:10841000E02BB0EE410B02EE490B22EE081BFC44B0
:10842000032830EE411B84ED001B1DD011EE902A75
:1084300000EB4015113DC2F30A528A1A954213DA35
:108440000CEB0012B0EE403B92ED000B401C20EE16
:10845000021B33EE410B33EE403B33EE411B92EDFA
:10846000023B12EE031BDBE7002EA8BF1846BFF647
:108470007EAF94ED000B5842B1EE400B84ED000B43
:1084800075E7C6F3130040F4801EC6F30A50A0F24D
:10849000F530471100F01F05C5F12000DDF860B090
:1084A000139000200890099005200DF1080C5B49FD
:1084B000002D07EB0002794408BF51F8221009D0C3
:1084C00051F8223001EB8201AB404A68139922FA3D
:1084D00001F11943A1FB0E26A1FB0B131A449A428A
:1084E00034BF0123002303EB06080CEB8003D3E920
:1084F00001A60E448E4234BF0121002192448A44D9
:1085000011B1924502D903E0924501D2012100E068
:108510000021C3E901A641444CF82010011EA0F13E
:108520000100C4DC04989DED050A00F10050810FA4
:1085300004989FED3B4B800001EE100ADDED060A2A
:108540009DED072AB8EEC13BB8EE401BB8EE600BBC
:10855000B8EE422B002021EE041B9FED334B20EEA2
:10856000040B9FED334B22EE042B30EE024B34EE26
:10857000014B34EE034B8DED004B00909DED004B15
:10858000199834EE433B10F0004F33EE411B31EEAF
:10859000400B32EE401B9DED000B9FED272B20EE94
:1085A000020B9FED272B01EE020B9DED001B9FEDB3
:1085B000262B01EE020B1CBF4942B1EE400B84EDAD
:1085C000000B0846D3E60000000000000000000099
:1085D000FB21E93F7CD9024000004054FB21F93FD8
:1085E0003163621A61B4D03DFB21F93F0000000005
:1085F0000000601A61B4D03D7370032E8A19A33B4A
:10860000FB2139410000000083C8C96D305FE43FA1
:10861000000000000000E03F969600002E9600004B
:10862000000000000000103E000000000000103CB0
:10863000000000000000103A3326A611460B113C42
:10864000182D4454FB21F93D00000054FB21F93D55
:1086500010B52DED040B2DED068B82B0B0EE41ABC5
:1086600009989FED299B20F00044B4F1795F0FDA5F
:108670009DED080BBDEEC00B10EE100A002801BFE7
:10868000B0EE490B02B0BDEC068B04B008BF10BDC4
:108690009DED080B1E48062120EE008BB0EE480B26
:1086A000784400F045F820EE080B9DED081B1C48AF
:1086B000844228EE000B01EE4A0B9FED171B28EEBB
:1086C000011BBCBF31EE400B39EE400B16DB1548E9
:1086D000A042BCBF9FED142B8DED002B06DBA4F553
:1086E00000100190002000909DED002B31EE421B08
:1086F00039EE422B31EE400B32EE400B02B0BDECB6
:10870000068B04B010BD0000000000000000F03F28
:10871000DC93000000000000000000000000E03FCB
:108720003333D33F0000E93F000000000000D23F98
:10873000491E00EBC102B0EE401B92ED000B31F080
:1087400006020DD0491E00EBC102B0EE403B92ED97
:10875000002B31F00602B0EE420B03EE010BF1D11B
:10876000022914D004290AD0062918BF704790EDB9
:108770000A2B00EE012B90ED080B02EE010B90EDA1
:10878000062B00EE012B90ED040B02EE010B90ED99
:10879000022B00EE012B90ED000B02EE010B704757
:1087A00031B504462DED040B2DED068BB0EE419B4B
:1087B00007989DED060B20F00040B0F1795F0DDACF
:1087C00051EC100BFFF703FB042808BF00F050F832
:1087D0009DED060BBDEC068B05B030BD20EE008B89
:1087E0001348052128EE00ABB0EE480B7844FFF7A4
:1087F0009FFF9FED111B8CB19FED112B29EE022BDA
:108800000AEE402B9DED060B18EE029B0AEE419BF3
:1088100030EE490BBDEC068B05B030BD08EE001BF9
:108820009DED060B0AEE010BBDEC068B05B030BDCD
:108830009093000000000000495555555555C5BF9F
:10884000000000000000E03F30EE000B704730EE0B
:10885000010B7047000000009FED031B81EE010B30
:108860007047000000000000000000000000000051
:108870009FED030B20EE000B70470000000000008E
:10888000000000000000001002E008C8121F08C12C
:10889000002AFAD170477047002001E001C1121F81
:1088A000002AFBD1704700000149086070470000B2
:1088B0008001002410B541EC100BFFF7B1FA51EC28
:1088C000100B10BD82B0CDE9000121F000400190F5
:1088D0009DED000B02B051EC100B70473B4B00209C
:1088E0001968890311D4BFF34F8FBFF36F8F3849D5
:1088F0000860BFF34F8FBFF36F8F196841F40031E9
:108900001960BFF34F8FBFF36F8F1968C90322D46B
:108910002E4970310860BFF34F8F081F43F6FF7474
:1089200000682B4D1035C0F34E31C0F3C90204EA84
:108930004116104646EA80772F60401EFAD2491E43
:10894000F5D2BFF34F8F186840F480301860BFF342
:108950004F8FBFF36F8FF8F747FAFDF79BF8FCF7DF
:10896000FBFAFCF777FBFCF7A9FBFCF751FF194C6E
:108970004FF400564FF47A75FCF7DAF9FCF768F912
:10898000FBF790FDFBF742FDFBF750FEFBF73AFFCC
:10899000FBF794FCFBF77EF8FCF742FAFBF708F8CC
:1089A000FBF7A6FDFBF7BEF8012231462046F8F79B
:1089B00001FA2846F8F7D6F8002231462046F8F7A3
:1089C000F9F92846F8F7CEF8D6E7000014ED00E0F4
:1089D00050EF00E00008025810EE100A0649B6EE0B
:1089E000001A0844400800EE900AC0EE201A31EE4A
:1089F000A00A20EE010A704762CF763F0000008097
:108A00000000C00030C001304006302018302098EF
:108A100031101031080031F80F31140431120431D3
:108A200010043110043110043190073110833010DC
:108A30001030101030101030303030E01F1E0000A9
:108A400008000000B4B400000000000000000000B6
:108A50000000000000000000000000000000000016
:108A60000000000000000000000000000000000006
:108A700000000000000000000000000000000000F6
:108A800000000000000000000000000000000000E6
:108A90000400001800001010F8FF3F0802180C0333
:108AA0000804FF0580820340C200206400103800E3
:108AB00008380000EE00008303E0017E9CFF1B806D
:108AC000000380000380000380000380FF03C000D8
:108AD00001000000BFCD0000000000000000000009
:108AE0000000000000000000000000000000000086
:108AF0000000000000000000000000000000000076
:108B00000000000000000000000000000000000065
:108B100000000000000000000000000000000080D5
:108B20008000808101808001FCFF1F80800180FF28
:108B30000180800180800180FF01808001808011A0
:108B4000FEFF3F80890080980140080320881CD8E0
:108B5000FF39060800000800000808FCFF1F00009D
:108B600000000000BBF90000000000000000000051
:108B700000000000000000000000000000000000F5
:108B800000000000000000000000000000000000E5
:108B900000000000000000000000000000000000D5
:108BA00000000000000000000000000000000000C5
:108BB000C000308000308000308400308C00308C69
:108BC00008308C1E308C09FEFD08308E08B08D08F0
:108BD000308C08308C08308C0830CC0F30CC2CB066
:108BE000CF20700C201E0C20040C6000F83F000009
:108BF00000000000B5D800000000000000000000E8
:108C00000000000000000000000000000000000064
:108C10000000000000000000000000000000000054
:108C20000000000000000000000000000000000044
:108C30000000000000000000000000000000000034
:108C400000000000000000000000C0F8FFC018C0D5
:108C5000CC18C0CCF8FFCC18C0CC180CCC180CCC5D
:108C6000D8FFCCD8CCCCD8CCCCD8CCCCCCCCC0CCED
:108C7000CCC004FCC0060C7E000000000000000018
:108C800000000000CBA22000000000000000000057
:108C900000000000000000000000000000000000D4
:108CA00000000000000000000000000000000000C4
:108CB00000000000000000000000000000000000B4
:108CC00000000000000000000000000000000000A4
:108CD0000000000000000000000000F8FF7F180006
:108CE00060180060F8FF7F180666180C0618080365
:108CF000D8FF7F180C06180C06F8FFFF0C0C060CAA
:108D00000C06040606060306030106000000000028
:108D100000000000C6C120000000000000000000AC
:108D20000000000000000000000000000000000043
:108D30000000000000000000000000000000000033
:108D40000000000000000000000000000000000023
:108D50000000000000000000000000000000000013
:108D600000000000000000000200C084FFCC9CC195
:108D7000CC88C1CC80D9CC83D9CC8ED9CC98D9CC55
:108D800080D9CC80D9CC88D9CC98CDCC0C0CCC0C4B
:108D900036C00C63C0C6C1C074807D0000000000F6
:108DA00000000000B2E2200000000000000000000F
:108DB00000000000000000000000000000000000B3
:108DC00000000000000000000000000000000000A3
:108DD0000000000000000000000000000000000093
:108DE0000000000000000000000000000000000083
:108DF000000000000000000002001B0C00731800BF
:108E00004338000380FFFF0000031F000318000326
:108E100098FF03181802181806981806D8188678AC
:108E2000188C38F88D9C0F980800F00000000000A6
:108E300000000000CAD42000000000000000000074
:108E40000000000000000000000000000000000022
:108E50000000000000000000000000000000000012
:108E60000000000000000000000000000000000002
:108E700000000000000000000000000000000000F2
:108E80000000000000000000008301FEFFFF0083DF
:108E900001F0FF3F300030F0FF3F300030F0FF3F87
:108EA000300C30000600FEFFFFC0300CF8FF7F677B
:108EB000309860301860301F003000000000000063
:108EC00000000000C4BB2000000000000000000003
:108ED0000000000000000000000000000000000092
:108EE0000000000000000000000000000000000082
:108EF0000000000000000000000000000000000072
:108F00000000000000000000000000000000000061
:108F1000000000000000000000630080C100C0806D
:108F20000160000330000618001C0E00700200C033
:108F3000F8FF0F00030E00030E800106800106C03B
:108F4000000660000738FC030E000000000000006F
:108F500000000000B7D62000000000000000000064
:108F60000000000000000000000000000000000001
:108F700000000000000000000000000000000000F1
:108F800000000000000000000000000000000000E1
:108F900000000000000000000000000000000000D1
:108FA000000000000018600C306018306010FEE116
:108FB000FF00600082EDC1C46C636C6C36FE65FF1F
:108FC000306618306618306018FEB1FF303018383F
:108FD00018181C1C180E0E180202180000000000C1
:108FE00000000000B1E620000000000000000000CA
:108FF0000000000000000000000000000000000071
:109000000000000000000000000000000000000060
:109010000000000000000000000000000000000050
:109020000000000000000000000000000000000040
:109030000000000000000000003800007000FFFF8A
:10904000FF003800064E608C6338D03F08001C00DB
:10905000202604F8C31CCFFFF1023041003000FF8E
:10906000FFFF003000003000003000000000000072
:1090700000000000C2CA2000000000000000000044
:1090800000000000000000000000000000000000E0
:1090900000000000000000000000000000000000D0
:1090A00000000000000000000000000000000000C0
:1090B00000000000000000000000000000000000B0
:1090C000000000000030800030800130000330FEDE
:1090D000FFFE06C03086C430401830303030186093
:1090E000F00FC03EF87F3000033000033000033043
:1090F000000330000330FFFF1E00000000000000EE
:1091000000000000BFD820000000000000000000A8
:10911000000000000000000000000000000000004F
:10912000000000000000000000000000000000003F
:10913000000000000000000000000000000000002F
:10914000000000000000000000000000000000001F
:1091500000000000000000008001609801608C01A8
:1091600063FC3F63860163820163FFFF63800163E9
:10917000800163FC7F638C61638C61638C61608CB4
:1091800061608C3D6080013F000000000000000035
:1091900000000000D6C62000000000000000000013
:1091A00000000000000000000000000000000000BF
:1091B00000000000000000000000000000000000AF
:1091C000000000000000000000000000000000009F
:1091D000000000000000000000000000000000008F
:1091E0000000000000000000000000FCC77F0CC66B
:1091F000600CC660FCC77F0CC660003006FEFFFF37
:10920000006E0000C701F0010F1F00F8FCC77F0CC3
:10921000C6600CC660FCC77F0CC660000000000082
:1092200000000000C6F72000000000000000000061
:10923000000000000000000000000000000000002E
:10924000000000000000000000000000000000001E
:10925000000000000000000000000000000000000E
:1092600000000000000000000000000000000000FE
:109270000000000000000800001800003000FEFFA1
:10928000FF0600C00600C0E0FF0F000007008001DD
:1092900000E000003000FFFFFF0030000030000061
:1092A0003000003000801F000000000000000000BF
:1092B00000000000D7D620000000000000000000E1
:1092C000000000000000000000000000000000009E
:1092D000000000000000000000000000000000008E
:1092E000000000000000000000000000000000007E
:1092F000000000000000000000000000000000006E
:10930000000000000020800130C000F8DFFFC860CE
:109310000684710C02390801100060000C70000C0A
:10932000B8FFFF3C000C36040C320C0C30180C302B
:10933000100C30000C30000C30E007000000000082
:1093400000000000B7FB200000000000000000004B
:10935000000000000000000000000000000000000D
:1093600000000000000000000000000000000000FD
:1093700000000000000000000000000000000000ED
:1093800000000000000000000000000000000000DD
:109390000000000000000000C0300060E000F0FFAE
:1093A000FF386000F6FFFF336000F0FFFF30600021
:1093B000F0FFFF300000003000003000FEFFFF0033
:1093C000FE018031077030380F30C000000000000F
:1093D00000000000BCAF2000000000000000000002
:1093E000000000000000000000000000000000007D
:1093F000000000000000000000000000000000006D
:10940000000000000000000000000000000000005C
:10941000000000000000000000000000000000004C
:1094200000000000000000000018000018000018F4
:1094300000001800FCFF7F0C18600C18600C18600E
:109440000C18600C1860FCFF7F0C186000180000FE
:1094500018000018000018000018000000000000AC
:1094600000000000D6D02000000000000000000036
:1094700000000000000000000000000000000000EC
:1094800000000000000000000000000000000000DC
:1094900000000000000000000000000000000000CC
:1094A00000000000000000000000000000000000BC
:1094B0000000000000001C00003800006000FFFFFA
:1094C000FF60000C60000CC00006C00006800103B5
:1094D00000830100C700006C0000380000EE00C0EF
:1094E000830778003C0600E0000000000000000058
:1094F00000000000CEC420000000000000000000BA
:10950000000000000000000000000000000000005B
:10951000000000000000000000000000000000004B
:10952000000000000000000000000000000000003B
:10953000000000000000000000000000000000002B
:109540000000000000000000000000F8FF3F1800CD
:1095500030180030F8FF3F180030180030F8FF3F97
:1095600018003004C62008C63018C63830C6182087
:10957000C60800C600FEFFFF00000000000000005B
:1095800000000000CFD42000000000000000000018
:1095900000000000000000000000000000000000CB
:1095A00000000000000000000000000000000000BB
:1095B00000000000000000000000000000000000AB
:1095C000000000000000000000000000000000009B
:1095D0000000000000000000000000FCFF7F000011
:1095E00000000000000000000000FFFFFF0030004E
:1095F00020300430300C3830181830300C30600611
:1096000030C0023080003000801F000000000000E9
:1096100000000000CABE20000000000000000000A2
:10962000000000000000000000000000000000003A
:10963000000000000000000000000000000000002A
:10964000000000000000000000000000000000001A
:10965000000000000000000000000000000000000A
:109660000000000000000000000000FEFFFF0030CE
:10967000000030000030003030003030003030006A
:1096800030F07F303000303000303000303000308B
:109690003000303000FFFFFF00000000000000003D
:1096A00000000000D5FD20000000000000000000C8
:1096B00000000000000000000000000000000000AA
:1096C000000000000000000000000000000000009A
:1096D000000000000000000000000000000000008A
:1096E000000000000000000000000000000000007A
:1096F0000000000000000000000300800100C0FF27
:10970000076000033880010C6000F4FF3F30003038
:109710003030303030303030303030303030303049
:10972000F83000980300070EE001781E00C000002A
:1097300000000000B8BA2000000000000000000097
:109740000000000000000000000000000000000019
:109750000000000000000000000000000000000009
:1097600000000000000000000000000000000000F9
:1097700000000000000000000000000000000000E9
:109780000000000000000000003000003000003049
:109790000000300060300630300C30301C1830389B
:1097A0001830300C30600E30E00630C002308000DF
:1097B0003000003000C01F0000000000000000006A
:1097C00000000000D0A12000000000000000000008
:1097D0000000000000000000000000000000000089
:1097E0000000000000000000000000000000000079
:1097F0000000000000000000000000000000000069
:109800000000000000000000000000000000000058
:109810000000000000000000C00003C60C01C48668
:1098200001C080FFFECF60E0C060F8E360CCFE3195
:10983000C39831308031FF0F1B0C0C1B06060E3C09
:10984000070EE0031BE0C3313C76E0071880000000
:1098500000000000CAFD2000000000000000000021
:1098600000000000000000000000000000000000F8
:1098700000000000000000000000000000000000E8
:1098800000000000000000000000000000000000D8
:1098900000000000000000000000000000000000C8
:1098A000000000000000000030000330000330FE24
:1098B000FF300003300003FFFD7F300C6030FC7F81
:1098C000300C6030FC7F300C60B0FD7F780C60079E
:1098D000FFFF00601C001CF080030000000000007F
:1098E00000000000CCEE200000000000000000009E
:1098F0000000000000000000000000000000000068
:109900000000000000000000000000000000000057
:109910000000000000000000000000000000000047
:109920000000000000000000000000000000000037
:1099300000000000000000000008000018000038CF
:1099400000FFFFFF000E00808301C0000770000CC5
:10995000FCFF3F00C32000C30080C10080C1C0E005
:10996000C0C038C0C007807F0000000000000000B9
:1099700000000000B3E42000000000000000000030
:1099800000000000000000000000000000000000D7
:1099900000000000000000000000000000000000C7
:1099A00000000000000000000000000000000000B7
:1099B00000000000000000000000000000000000A7
:1099C0000000000000000000003800007000FEFFF2
:1099D000FF0600C00686C3C0011E3800700600C026
:1099E000000000F8FF3F00180000180000180000F9
:1099F0001800001800FEFFFF00000000000000003B
:109A000000000000BFD520000000000000000000A2
:109A10000000000000000000000000000000000046
:109A20000000000000000000000000000000000036
:109A30000000000000000000000000000000000026
:109A40000000000000000000000000000000000016
:109A5000000000000000000030600030300030F0F6
:109A60007F307870FF5B3830CC0CF88007B8C10FBE
:109A70003C7A78360EC033F87F3118603018603089
:109A8000186030186030F87F301860000000000067
:109A900000000000B8F120000000000000000000FD
:109AA00000000000000000000000000000000000B6
:109AB00000000000000000000000000000000000A6
:109AC0000000000000000000000000000000000096
:109AD0000000000000000000000000000000000086
:109AE0000000000000020000000E0018000700182F
:109AF000001B00188071001880C100188080211898
:109B0000C080631840002118200020183040201821
:109B1000F0FF201868602018646020186260201828
:109B20006060201860602018606020186060201855
:109B3000603C2018601820186000021860000218AD
:109B4000600002186000021840000318C0FFC71F21
:109B5000C0FF030F0000000400000000B4B40000C8
:109B600000000000000000000000000000000000F5
:109B700000000000000000000000000000000000E5
:109B800000000000000000000000000000000000D5
:109B900000000000000000000000000000000000C5
:109BA00000000000000000000000000000000000B5
:109BB00000000000000000000000000000000000A5
:109BC0000000000000000000000000000000000095
:109BD0000000000000000000000000000000000085
:109BE0000000000000000000000000000000000075
:109BF0000080000000C0030000800300FCFFFF7F26
:109C0000FCFFFF7F0C0800600C0E00600CFFFF677C
:109C100080FFFF07E00F8003781CE00118F87C004C
:109C200000C00F0000FFFF00FF1FF0FF3E0000FC20
:109C3000C0FFFF07C0FFFF07C0000006C00000060E
:109C4000C0000006C0FFFF07C0FFFF07C0000006FE
:109C5000000000000000000000000000BFCD000078
:109C600000000000000000000000000000000000F4
:109C700000000000000000000000000000000000E4
:109C800000000000000000000000000000000000D4
:109C900000000000000000000000000000000000C4
:109CA00000000000000000000000000000000000B4
:109CB00000000000000000000000000000000000A4
:109CC0000000000000000000000000000000000094
:109CD0000000000000000000000000000000000084
:109CE0000000000000021000000E700000063000AE
:109CF0000006300CF8FFFF1F0006300000063000A1
:109D00000006300000FE3F00000630000006300074
:109D100000FE3F0000063000000630080006301C40
:109D2000FCFFFF3F000C0800008610000087610068
:109D30000083C001C080800F6080307E18FF7F18D4
:109D40000480000000800000008000000080000609
:109D5000F8FFFF0F0000000000000000BBF900004A
:109D600000000000000000000000000000000000F3
:109D700000000000000000000000000000000000E3
:109D800000000000000000000000000000000000D3
:109D900000000000000000000000000000000000C3
:109DA00000000000000000000000000000000000B3
:109DB00000000000000000000000000000000000A3
:109DC0000000000000000000000000000000000093
:109DD0000000000000000000000000000000000083
:109DE000000000000000080000003800C00018005B
:109DF000C0001800C0401800C0C01800C0C0180043
:109E0000C0C01804C0C0180FC0C0F806C0C41806EF
:109E1000FCCF1F06C0E01806C0D81806C0C418063C
:109E2000C0C01806C0C01806C0C01806C0C01806BA
:109E3000C0C09807C0C01813C0D81810C0C71810E9
:109E4000E0C100107CC000101CC0003004C0FF3F07
:109E50000080FF1F0000000000000000B5D80000D7
:109E600000000000000000000000000000000000F2
:109E700000000000000000000000000000000000E2
:109E800000000000000000000000000000000000D2
:109E900000000000000000000000000000000000C2
:109EA00000000000000000000000000000000000B2
:109EB00000000000000000000000000000000000A2
:109EC0000000000000000000000000000000000092
:109ED0000000000000000000000000000000000082
:109EE0000000000000000000000000000000000072
:109EF0000000000000000000000000000000000062
:109F00000000000000000000000000000000000051
:109F10000000000000000000000000000000000041
:109F20000000000000000000C003C003C003C00325
:109F3000C003C00380038001800180018001800193
:109F40008001800180010000000000008001C0034A
:109F5000C0038001000000000000000000000000BD
:109F6000C018E01CE01C700E300618038C01840041
:109F700000000000000000000000000000000000E1
:109F800000000000000000000000000000000000D1
:109F900000000000000000000000000000000000C1
:109FA00000000000000000002010201020102010F1
:109FB0002010FE7FFE7FFE7F10081008100810089A
:109FC00010081008FE7FFE7FFE7F180C08040804AE
:109FD0000804080400000000000000000000000069
:109FE0000000000080008000C003B00C901898189A
:109FF000981C981CB800B000F000E000C003800777
:10A00000800F800C801C80189C189C188C188C0C5D
:10A010009806E0038000800080000000000000003F
:10A0200000000000000000001C0836082204630441
:10A03000630263026302630163012201B61C9C3662
:10A04000402240634063206320631063106310224A
:10A050000836081C0000000000000000000000009E
:10A060000000000000000000F00098008C018C014E
:10A070008C018C018C00CC005C0038001C3E3C083C
:10A08000320873086304E304C3048303834306674D
:10A090008C3E781C00000000000000000000000062
:10A0A0001C003C003C003000300010000C0006009A
:10A0B00000000000000000000000000000000000A0
:10A0C0000000000000000000000000000000000090
:10A0D0000000000000000000000000000000000080
:10A0E0000040002000100018000C000400060002D0
:10A0F0000003000380018001800180018001800154
:10A1000080018001800100030003000200060004BA
:10A11000000C0018001000200040000000000000AB
:10A120000200040008001800300020006000400019
:10A13000C000C00080018001800180018001800199
:10A14000800180018001C000C000C00060002000CC
:10A1500030001800080004000200000000000000A9
:10A160000000000000000000000000000003800369
:10A1700080030C631C713839600D80038003600D0F
:10A1800038391C718C61800380038003000000005B
:10A1900000000000000000000000000000000000BF
:10A1A00000000000000000000000000000000001AE
:10A1B000000100010001000100010001FC7F00011D
:10A1C0000001000100010001000100010000000089
:10A1D000000000000000000000000000000000007F
:10A1E000000000000000000000000000000000006F
:10A1F000000000000000000000000000000000005F
:10A200000000000000000000000000001C003C00F6
:10A210003C003000300010000C0006000000000080
:10A22000000000000000000000000000000000002E
:10A23000000000000000000000000000FE7F0000A1
:10A24000000000000000000000000000000000000E
:10A2500000000000000000000000000000000000FE
:10A2600000000000000000000000000000000000EE
:10A2700000000000000000000000000000000000DE
:10A2800000000000000000000000000018003C007A
:10A290003C0018000000000000000000000000006A
:10A2A000000000400060002000300010001800088E
:10A2B000000C000400060002000300018001800081
:10A2C000C0004000600020003000100018000800AE
:10A2D0000C00040006000200000000000000000066
:10A2E0000000000000000000C0036004300C1818DB
:10A2F000181818100C300C300C300C300C300C309E
:10A300000C300C300C300C30181018181818300C99
:10A310006004C00300000000000000000000000016
:10A32000000000000000000000018001F801800131
:10A330008001800180018001800180018001800115
:10A340008001800180018001800180018001800105
:10A35000C003F81F00000000000000000000000023
:10A360000000000000000000E007101C0818043086
:10A3700004300C300C30003000180018000C0006BF
:10A3800000038001C000400020201020082004307D
:10A39000FC1FFC1F00000000000000000000000087
:10A3A0000000000000000000E00318060C0C0C1870
:10A3B0000C180C1800180018000C0006C003000E42
:10A3C00000180010003000300C300C300C100C184D
:10A3D000180CE00300000000000000000000000076
:10A3E0000000000000000000000600060007000753
:10A3F0008006800640062006200610061006080685
:10A400000C0604060206FE3F0006000600060006D3
:10A410000006C03F00000000000000000000000037
:10A420000000000000000000F03FF03F08000800BE
:10A430000800080008000800C807280C18180810B1
:10A4400000300030003000300C300C30041804189C
:10A45000180CE003000000000000000000000000F5
:10A46000000000000000000080076018301810187D
:10A470001800080008000C00CC076C0C1C181C10FD
:10A480000C300C300C300C300C30183018103018E8
:10A49000700CC00700000000000000000000000079
:10A4A0000000000000000000F83FF83F08100C0812
:10A4B000040804040004000200020002000100017C
:10A4C0008000800080008000C000C000C000C0008C
:10A4D000C000C000000000000000000000000000FC
:10A4E0000000000000000000E007300C18180C30DD
:10A4F0000C300C301C301C107818F004E003180FDE
:10A500000C1E0C1C063806300630063006300C18BF
:10A51000180CE00300000000000000000000000034
:10A520000000000000000000E00318040C080C18F4
:10A530000610063006300630063006300E380C3471
:10A540001836F03100300018001800080C0C0C060A
:10A550000C03F001000000000000000000000000FB
:10A5600000000000000000000000000000000000EB
:10A570000000000000008001C003C0038001000053
:10A580000000000000000000000000008001C00387
:10A59000C003800100000000000000000000000077
:10A5A00000000000000000000000000000000000AB
:10A5B0000000000000000000C001C001C001000058
:10A5C0000000000000000000000000000000C001CA
:10A5D000C001C0018001C000C000000000000000F8
:10A5E000000000000000000000200010000800042F
:10A5F0000002000180004000200010000800080058
:10A60000100020004000800000010002000400084B
:10A61000001000200000000000000000000000000A
:10A62000000000000000000000000000000000002A
:10A63000000000000000FE7F00000000000000009D
:10A640000000FE7F0000000000000000000000008D
:10A6500000000000000000000000000000000000FA
:10A6600000000000000000000400080010002000AE
:10A6700040008000000100020004000800100010EB
:10A6800000080004000200018000400020001000CB
:10A6900008000400000000000000000000000000AE
:10A6A0000000000000000000C007301818300860EB
:10A6B0000C601C601C601C6000300018000E000361
:10A6C0000001000100010001000000008001C00342
:10A6D000C003800100000000000000000000000036
:10A6E0000000000000000000C007600830101820C3
:10A6F0000C2B8C4D844CC64CC64466446644664460
:10A700006646662666266417CC0C0C400820183076
:10A710003018C0070000000000000000000000002A
:10A720000000000000000000C001C001C001C00125
:10A730002003200320032003300210061006100619
:10A740001004F80F080C080C080C0418041804185E
:10A7500006381F7C00000000000000000000000020
:10A760000000000000000000FE07181C1818183038
:10A7700018301830183018301818180CF807181836
:10A7800018301820186018601860186018601830A9
:10A790001818FE0F0000000000000000000000007C
:10A7A0000000000000000000C00760381030186092
:10A7B0000C400C400C0006000600060006000600D7
:10A7C00006000600060006000C400C400820181089
:10A7D0003008C0070000000000000000000000007A
:10A7E0000000000000000000FE03180E18181810EA
:10A7F00018301830186018601860186018601860F9
:10A8000018601860186018201830183018181818B8
:10A810001806FE0300000000000000000000000019
:10A820000000000000000000FE3F18301820184013
:10A8300018401800180018081808180CF80F180C01
:10A840001808180818001800180018401840182098
:10A850001830FE3F00000000000000000000000073
:10A860000000000000000000FE3F183818201840CB
:10A8700018401800180018081808180CF80F180CC1
:10A8800018081808180818001800180018001800F0
:10A8900018007E0000000000000000000000000022
:10A8A0000000000000000000C003300C1008181861
:10A8B0000C100C100400060006000600060006003E
:10A8C000067E0618061804180C180C180818181814
:10A8D0003004E00300000000000000000000000061
:10A8E00000000000000000003FFC0C300C300C3079
:10A8F0000C300C300C300C300C300C30FC3F0C3079
:10A900000C300C300C300C300C300C300C300C3067
:10A910000C303FFC000000000000000000000000C0
:10A920000000000000000000F81F8001800180018D
:10A93000800180018001800180018001800180010F
:10A9400080018001800180018001800180018001FF
:10A950008001F81F0000000000000000000000005F
:10A960000000000000000000E07F00060006000676
:10A9700000060006000600060006000600060006A7
:10A980000006000600060006000600060006000697
:10A99000000600060E060E038E01FC0000000000FB
:10A9A00000000000000000007E3E180C180418068D
:10A9B00018021801180198009800D800B801B801D1
:10A9C0001803180318061806180C180C180C181879
:10A9D00018187E7C0000000000000000000000004D
:10A9E00000000000000000007E00180018001800A1
:10A9F0001800180018001800180018001800180097
:10AA000018001800180018001800184018401820E6
:10AA10001830FE3F000000000000000000000000B1
:10AA200000000000000000000FF01C381C381C382B
:10AA30001C381C34343434343434343234326432D8
:10AA40006432643264314431C431C431C430C430FE
:10AA500084308FFC000000000000000000000000B7
:10AA600000000000000000000FF81C201C20342013
:10AA7000342064206420C420C42084218421042341
:10AA8000042304260426042C042C0438043804303F
:10AA900004301F2000000000000000000000000043
:10AAA0000000000000000000C003300C181808105F
:10AAB0000C300C30062006600660066006600660FA
:10AAC00006600660066004600C300C300810181830
:10AAD000300CC00300000000000000000000000077
:10AAE0000000000000000000FE0F18181830186069
:10AAF0001860186018601860186018301818F80787
:10AB00001800180018001800180018001800180085
:10AB100018007E000000000000000000000000009F
:10AB20000000000000000000C003300C18180810DE
:10AB30000C300C3006600660066006600660066039
:10AB40000660066006600660E4211C331C36181E91
:10AB5000300EC007004C003C003800000000000030
:10AB60000000000000000000FE07181C1818183034
:10AB700018301830183018301818180CF807180347
:10AB80001803180618061806180C180C180C1818B4
:10AB900018187E780000000000000000000000008F
:10ABA0000000000000000000F013181E0C1806182A
:10ABB0000610061006000E003C00F800E003800FAF
:10ABC000001E0018003802300230063004300C1825
:10ABD0001C0CE40700000000000000000000000062
:10ABE0000000000000000000FC3F8C2184618241D5
:10ABF000824180018001800180018001800180010B
:10AC0000800180018001800180018001800180013C
:10AC10008001E007000000000000000000000000CC
:10AC200000000000000000003F7C0C100C100C1015
:10AC30000C100C100C100C100C100C100C100C1034
:10AC40000C100C100C100C100C100C100C10180820
:10AC50003804E003000000000000000000000000D5
:10AC600000000000000000003E7818301810181096
:10AC700018103008300830083008300460046004D0
:10AC800060046002C002C002C002C00180018001F5
:10AC900080008000000000000000000000000000B4
:10ACA0000000000000000000CFF3866186218421AF
:10ACB00004210C238C238C238C138C1388134812AF
:10ACC00058165816580E380E300E300E300C300410
:10ACD000100410040000000000000000000000004C
:10ACE00000000000000000003E7C1810180830082A
:10ACF000300460046002C002C00180018001800154
:10AD00008003400340062006200E100C100C18187B
:10AD100008383E7C00000000000000000000000039
:10AD200000000000000000007E7C1C1018101808B5
:10AD300030083008300460046004C002C002C00162
:10AD400080018001800180018001800180018001FB
:10AD50008001E0070000000000000000000000008B
:10AD60000000000000000000F87F383018300C1898
:10AD70000418000C00060006000300038001800197
:10AD8000C000C000600060003000184018600C2057
:10AD90000C38FE3F00000000000000000000000032
:10ADA0000000C03FC000C000C000C000C000C00024
:10ADB000C000C000C000C000C000C000C000C00093
:10ADC000C000C000C000C000C000C000C000C00083
:10ADD000C000C000C000C03F000000000000000034
:10ADE00000000000000018001800100030002000D3
:10ADF000600060004000C000800080018001000110
:10AE00000003000200060006000C000C000C0018F5
:10AE1000001800300030003000600000000000002A
:10AE20000000FC0300030003000300030003000311
:10AE300000030003000300030003000300030003FA
:10AE400000030003000300030003000300030003EA
:10AE5000000300030003FC030000000000000000EA
:10AE6000C003C007600410080000000000000000DC
:10AE700000000000000000000000000000000000D2
:10AE800000000000000000000000000000000000C2
:10AE900000000000000000000000000000000000B2
:10AEA00000000000000000000000000000000000A2
:10AEB0000000000000000000000000000000000092
:10AEC0000000000000000000000000000000000082
:10AED00000000000000000000000FFFF0000000074
:10AEE0007800C00000010000000000000000000029
:10AEF0000000000000000000000000000000000052
:10AF00000000000000000000000000000000000041
:10AF10000000000000000000000000000000000031
:10AF20000000000000000000000000000000000021
:10AF3000000000000000E007180C0C180C180C189A
:10AF4000001CE01B38180C1806180618061806987E
:10AF50000C9EF871000000000000000000000000DE
:10AF600000000000000010001E001800180018006B
:10AF70001800180018009807581C38183830183076
:10AF80001830183018301830183018301810381899
:10AF9000380CC8070000000000000000000000009E
:10AFA00000000000000000000000000000000000A1
:10AFB000000000000000C0077008301818180C18B6
:10AFC0000C000C000C000C000C000C2018201810B9
:10AFD0003008C00700000000000000000000000072
:10AFE0000000000000000010001E001800180018EB
:10AFF000001800180018E01B301C181818180C183E
:10B000000C180C180C180C180C180C180818181C14
:10B01000307AE0090000000000000000000000009D
:10B020000000000000000000000000000000000020
:10B03000000000000000C003300C101818100C3085
:10B040000C300C30FC3F0C000C000C0018201810C9
:10B050007018C007000000000000000000000000A1
:10B060000000000000000000003E80618060C060C1
:10B07000C000C000C000FC1FC000C000C000C00075
:10B08000C000C000C000C000C000C000C000C000C0
:10B09000C000F80F000000000000000000000000E9
:10B0A00000000000000000000000000000000000A0
:10B0B000000000000000C077306C10181818181835
:10B0C00018181018300CF00718001800F803F01FBB
:10B0D00018380C300C300C301818E0070000000055
:10B0E00000000000000010001E00180018001800EA
:10B0F0001800180018009807580C38181818181855
:10B1000018181818181818181818181818181818BF
:10B1100018187E7E00000000000000000000000003
:10B1200000000000000000008001C003800100005A
:10B13000000000000001F801800180018001800111
:10B1400080018001800180018001800180018001F7
:10B150008001F81F00000000000000000000000057
:10B160000000000000000000001C001E000C000099
:10B17000000000000008C00F000C000C000C000CC8
:10B18000000C000C000C000C000C000C000C000C5F
:10B19000000C000C000C18061802F0010000000062
:10B1A00000000000000010001E0018001800180029
:10B1B000180018001800183E180C1804180218017E
:10B1C0009801D801780338031806180C180C1818C1
:10B1D00018387E7C00000000000000000000000025
:10B1E0000000000000000001F801800180018001E2
:10B1F0008001800180018001800180018001800147
:10B200008001800180018001800180018001800136
:10B210008001F81F00000000000000000000000096
:10B22000000000000000000000000000000000001E
:10B23000000000000400F73C8E6386618661866131
:10B2400086618661866186618661866186618661C6
:10B250008661CFF300000000000000000000000045
:10B2600000000000000000000000000000000000DE
:10B2700000000000000090075E0C3818181818181D
:10B28000181818181818181818181818181818183E
:10B2900018187E7E00000000000000000000000082
:10B2A000000000000000000000000000000000009E
:10B2B000000000000000C003300C101818180830FF
:10B2C0000C300C300C300C300C300C3018181818B6
:10B2D000300CC0030000000000000000000000006F
:10B2E000000000000000000000000000000000005E
:10B2F00000000000000090075E0C3818181018308D
:10B30000183018301830183018301830181838180D
:10B31000780C98071800180018007E000000000044
:10B32000000000000000000000000000000000001D
:10B33000000000000000C013301E181C18180C1864
:10B340000C180C180C180C180C180C180818181CD1
:10B35000301EE019001800180018007E00000000E0
:10B3600000000000000000000000000000000000DD
:10B3700000000000000060387E666061E001E000CF
:10B3800060006000600060006000600060006000BD
:10B390006000FE0700000000000000000000000048
:10B3A000000000000000000000000000000000009D
:10B3B000000000000000C02760383030302030200E
:10B3C0007000E003800F001E00380830083018308D
:10B3D0003818C80F00000000000000000000000046
:10B3E000000000000000000000000000800080005D
:10B3F0008000C000E000FC1FC000C000C000C00012
:10B40000C000C000C000C000C000C000C020C020FC
:10B410008011000F0000000000000000000000008C
:10B42000000000000000000000000000000000001C
:10B430000000000010101E1E1818181818181818F0
:10B440001818181818181818181818181818181C78
:10B45000307AE00900000000000000000000000059
:10B4600000000000000000000000000000000000DC
:10B470000000000000003E7C18301810181830083A
:10B480003008200460046004C002C002C0038001D0
:10B4900080018000000000000000000000000000AB
:10B4A000000000000000000000000000000000009C
:10B4B000000000000000DFF3866184218C218C21D4
:10B4C0008C13881358135812580E700E300E300C0F
:10B4D0003004200400000000000000000000000014
:10B4E000000000000000000000000000000000005C
:10B4F0000000000000007C3E300870086004C002BC
:10B50000C00280018001800340062006200C101834
:10B5100018183E7E0000000000000000000000003F
:10B52000000000000000000000000000000000001B
:10B530000000000000003E7C1818180810083008B1
:10B540002004600460044002C00280028001800187
:10B5500080008000800040007C003C000000000073
:10B5600000000000000000000000000000000000DB
:10B57000000000000000FC1F0C1C0C0C040604075B
:10B5800000038001C001C00060007020302018302E
:10B590000C18FC1F0000000000000000000000006C
:10B5A000003000080004000400040004000400044B
:10B5B00000040004000400040004000380010002F1
:10B5C000000400040004000400040004000400045B
:10B5D0000004000400040008003000000001000125
:10B5E0000001000100010001000100010001000153
:10B5F0000001000100010001000100010001000143
:10B600000001000100010001000100010001000132
:10B610000001000100010001000100010000000024
:10B620001800200040004000400040004000400062
:10B6300040004000400040004000800100038000C6
:10B6400040004000400040004000400040004000FA
:10B65000400040004000200018000000000078007A
:10B66000C400824102410027001C000000000000CD
:10B6700000000000000000000000000000000000CA
:10B6800000000000000000000000000000000000BA
:10B6900000000000000000000000000000000000AA
:10B6A000000000000000000000000000000000009A
:10B6B000000000000000000000000000000000008A
:10B6C000000000000000000000000000000000007A
:10B6D000000000006000600060006000600060002A
:10B6E000600040002000200020000000000000005A
:10B6F000600060006000000000000000000000002A
:10B7000060066006300398018800440000000000D5
:10B710000000000000000000000000000000000029
:10B720000000000000000000000000000000000019
:10B73000000000001002100210021002FE07FE07B7
:10B7400008020801080108010801FE07FE070401BC
:10B7500004010401040100000000000000000000DA
:10B76000000040004000F00158034C03CC034C00A3
:10B7700058007000E000C001C00140034C035C03AE
:10B780004C034801F00040004000000000000000B1
:10B79000000000000E010A0191009100910051008B
:10B7A00051003A00AE03A00250045004480448047B
:10B7B0004804840284030000000000000000000030
:10B7C0000000000038006C006C006C006C006C0025
:10B7D0002C0098071C011A01330133016301E300B7
:10B7E000C308C6093C07000000000000000000007C
:10B7F0000C001C00100010000800040000000000F5
:10B800000000000000000000000000000000000038
:10B810000000000000000000000000000000000028
:10B820000004000200018000800040004000200071
:10B8300020002000200020002000200040004000C8
:10B8400080008000000100020004000000000000F1
:10B85000020004000800100010002000200040003A
:10B860004000400040004000400040002000200018
:10B87000100010000800040002000000000000009A
:10B8800000000000000000004000C0004000460C26
:10B890004E0FD001F0015E0F460C4000400040000A
:10B8A0000000000000000000000000000000000098
:10B8B00000000000000000000000400040004000C8
:10B8C00040004000FE0F40004000400040004000AB
:10B8D0000000000000000000000000000000000068
:10B8E0000000000000000000000000000000000058
:10B8F0000000000000000000000000000000000048
:10B900000C001C00100010000800040000000000E3
:10B910000000000000000000000000000000000027
:10B9200000000000FE070000000000000000000012
:10B930000000000000000000000000000000000007
:10B9400000000000000000000000000000000000F7
:10B9500000000000000000000000000000000000E7
:10B960001C001C001C000000000000000000000083
:10B9700000040006000200030001000180008000B6
:10B98000400040006000200020001000100008006F
:10B9900008000C0004000600020000000000000087
:10B9A000000000000000F00098010C030C030606E4
:10B9B00006060606060606060606060606060C0324
:10B9C0000C039801F00000000000000000000000DF
:10B9D00000000000000040007C006000600060008B
:10B9E0006000600060006000600060006000600057
:10B9F00060006000FC030000000000000000000088
:10BA0000000000000000F8008401020306030603A2
:10BA1000000300018001C000600020001000080247
:10BA200004020602FE030000000000000000000007
:10BA30000000000000007800C60086018601800139
:10BA40008001C000700080010001000300030603B4
:10BA500006038601F800000000000000000000005E
:10BA600000000000000080018001C001A001A001D1
:10BA700090018801880184018201FE0F800180010C
:10BA800080018001E00700000000000000000000CD
:10BA9000000000000000FC03040004000400040097
:10BAA0000400F4008C0104030003000306030603F2
:10BAB00082018401F8000000000000000000000086
:10BAC000000000000000E00118030C030C0004005B
:10BAD0000600E60116030E0606060606060604061E
:10BAE0000C021803F000000000000000000000003D
:10BAF000000000000000F8070C0604020401000129
:10BB000000018000800040004000400060006000B4
:10BB10006000600060000000000000000000000005
:10BB2000000000000000F8010C03060606060606E9
:10BB30000C021C03F000C8010C03060606060606EC
:10BB400006060C03F00100000000000000000000E9
:10BB5000000000000000F0000C010C0306020606C5
:10BB60000606060606078C06780600060003000394
:10BB70000C018C01780000000000000000000000B3
:10BB800000000000000000000000000000000000B5
:10BB9000E000E000E0000000000000000000000005
:10BBA000E000E000E00000000000000000000000F5
:10BBB0000000000000000000000000000000000085
:10BBC00060006000000000000000000000000000B5
:10BBD0000000600060004000200020000000000025
:10BBE000000000000004000200018000400020006E
:10BBF0001000080004000800100020004000800031
:10BC0000000100020004000000000000000000002D
:10BC10000000000000000000000000000000000024
:10BC2000FE07000000000000FE070000000000000A
:10BC30000000000000000000000000000000000004
:10BC400000000000040008001000200040008000F8
:10BC500000010002000400020001800040002000FA
:10BC600010000800040000000000000000000000B8
:10BC7000000000000000E0031806040C040C0C0C8B
:10BC80000C0C000780014000400040000000000054
:10BC9000E000E000E0000000000000000000000004
:10BCA00000000000E00018030C02CC0564056605E6
:10BCB000A605B604B604B604B604B602E4010C0444
:10BCC0000C021803F000000000000000000000005B
:10BCD000000000000000600060005000D0009000F4
:10BCE0009000880088010801F8010403040304029D
:10BCF000020202060F0F000000000000000000001A
:10BD0000000000000000FE008C030C030C030C0379
:10BD10000C038C01FC000C030C020C060C060C0638
:10BD20000C060C03FE0100000000000000000000F3
:10BD3000000000000000E00318030C060C040404DB
:10BD400006000600060006000600060006040C04B5
:10BD50000C021803F00000000000000000000000CA
:10BD60000000000000007F008C010C030C030C0697
:10BD70000C060C060C060C060C060C060C060C0336
:10BD80000C038C017F000000000000000000000098
:10BD9000000000000000FF0306030604060406007E
:10BDA00086008600FE0086008600860006000604E7
:10BDB00006040602FF03000000000000000000006F
:10BDC000000000000000FF0306030604060406004E
:10BDD00086008600FE0086008600860006000600BB
:10BDE000060006001F000000000000000000000028
:10BDF000000000000000F00018010C020C02040218
:10BE00000600060006000600C60F060306030C0324
:10BE10000C031803F0000000000000000000000008
:10BE20000000000000000F0F0606060606060606C4
:10BE300006060606FE0706060606060606060606A9
:10BE4000060606060F0F00000000000000000000BC
:10BE5000000000000000FC03600060006000600063
:10BE600060006000600060006000600060006000D2
:10BE700060006000FC030000000000000000000003
:10BE8000000000000000F807C000C000C000C000B3
:10BE9000C000C000C000C000C000C000C000C000A2
:10BEA000C000C000C000C60066003C0000000000EA
:10BEB000000000000000CF038601C60046002600F7
:10BEC000160036002E006E004600C6008600860171
:10BED000060106038F0700000000000000000000BC
:10BEE0000000000000001F0006000600060006001B
:10BEF000060006000600060006000600060006040E
:10BF000006040602FF03000000000000000000001D
:10BF10000000000000000707860386038E038E03DF
:10BF20004E034E034A035A035A033A0332033203C1
:10BF30003203120387070000000000000000000029
:10BF40000000000000008E0F0C021C021C023402D4
:10BF50003402640264024402C4028402840384033F
:10BF6000040304031F0200000000000000000000A2
:10BF7000000000000000F00098010C030C0206060F
:10BF800006060606060606060606060606060C024F
:10BF90000C039801F0000000000000000000000009
:10BFA000000000000000FF00060306060606060665
:10BFB000060606068603FE000600060006000600CA
:10BFC000060006001F000000000000000000000046
:10BFD000000000000000F00098010C030C020606AF
:10BFE00006060606060606060606060676064C023F
:10BFF000CC039801F000800700030000000000005F
:10C00000000000000000FF01060306060606060603
:10C0100006060603FE004600C600860086010603EB
:10C02000060306060F0E00000000000000000000DE
:10C03000000000000000F8020C03060206020600E1
:10C040000E003C00F800E003800300070206020631
:10C0500006060C03F00100000000000000000000D4
:10C06000000000000000FE07620461086108600033
:10C0700060006000600060006000600060006000C0
:10C0800060006000F80100000000000000000000F7
:10C090000000000000001E070C020C020C020C0243
:10C0A0000C020C020C020C020C020C020C020C0220
:10C0B0000C021801F0000000000000000000000069
:10C0C0000000000000000F070602040104010C013B
:10C0D0000C01880088009800980050005000700003
:10C0E00030002000200000000000000000000000E0
:10C0F000000000000000F70E6204420446044604FB
:10C1000064026402E402E4029C029C01980198012A
:10C110008801880088000000000000000000000086
:10C120000000000000009E070C01080118019000AB
:10C13000B0006000200060006000D0009000880126
:10C14000080104038E07000000000000000000004A
:10C150000000000000000F0F060404020C0208019A
:10C160001801B800B000700060006000600060005E
:10C1700060006000F8010000000000000000000006
:10C18000000000000000FC070C0206030201800111
:10C19000800040004000200020001000180008042B
:10C1A0000C040402FE030000000000000000000078
:10C1B000E0032000200020002000200020002000BC
:10C1C000200020002000200020002000200020006F
:10C1D0002000200020002000E003000000000000FC
:10C1E0000000000004000400080008001000100017
:10C1F00010002000200040004000C00080008000AF
:10C200000001000100020002000200040000000022
:10C210007C004000400040004000400040004000E2
:10C22000400040004000400040004000400040000E
:10C2300040004000400040007C0000000000600022
:10C240009000080100000000000000000000000055
:10C2500000000000000000000000000000000000DE
:10C2600000000000000000000000000000000000CE
:10C2700000000000000000000000000000000000BE
:10C2800000000000000000000000000000000000AE
:10C2900000000000000000000000FF0F0000000090
:10C2A0001800600000000000000000000000000016
:10C2B000000000000000000000000000000000007E
:10C2C000000000000000000000000000000000006E
:10C2D000000000000000000000000000000000005E
:10C2E000F0010C030C030003E0031C030E03060320
:10C2F00006038E0B7C0E0000000000000000000012
:10C300000000000008000E000C000C000C000C00E7
:10C31000CC013C031C060C060C060C060C060C0695
:10C320000C021C03E40100000000000000000000FB
:10C3300000000000000000000000000000000000FD
:10C34000F0008C018C018601060006000600060242
:10C350000C020C01F00000000000000000000000D2
:10C36000000000000002C0030003000300030003FC
:10C3700078038C030C030603060306030603060377
:10C3800004038C077801000000000000000000009A
:10C39000000000000000000000000000000000009D
:10C3A000E001180308020C060C06FC070C000C0048
:10C3B00018041802E0010000000000000000000066
:10C3C000000000000000C0036006300630003000AE
:10C3D000FE0130003000300030003000300030000E
:10C3E00030003000FC0100000000000000000000F0
:10C3F000000000000000000000000000000000003D
:10C40000F007D8068C018C018C019801F8000C0013
:10C41000FC00CC03060306038E03F80000000000B6
:10C420000000000008000E000C000C000C000C00C6
:10C43000EC011C030C030C030C030C030C030C0396
:10C440000C030C039E070000000000000000000029
:10C4500000000000000060006000000000004000DC
:10C460007C006000600060006000600060006000B0
:10C4700060006000FC0300000000000000000000FD
:10C48000000000000000C001C00100000000000129
:10C49000F001800180018001800180018001800124
:10C4A0008001800180018001CC007C000000000040
:10C4B0000000000008000E000C000C000C000C0036
:10C4C0008C038C008C004C006C005C008C008C0198
:10C4D0000C010C039E07000000000000000000009B
:10C4E0000000000040007C00600060006000600010
:10C4F000600060006000600060006000600060003C
:10C5000060006000FC03000000000000000000006C
:10C51000000000000000000000000000000000001B
:10C520003707EE0666066606660666066606660651
:10C5300066066606FF0F0000000000000000000015
:10C5400000000000000000000000000000000000EB
:10C55000EE011C030C030C030C030C030C030C0373
:10C560000C030C039E070000000000000000000008
:10C5700000000000000000000000000000000000BB
:10C58000F00098010C0306060606060606060606D7
:10C590000C030C03F000000000000000000000008D
:10C5A000000000000000000000000000000000008B
:10C5B000EE011C030C060C060C060C060C060C0601
:10C5C0000C031C03EC010C000C003E0000000000FA
:10C5D000000000000000000000000000000000005B
:10C5E00078028C030C030603060306030603060306
:10C5F00004038C03780300030003C007000000005D
:10C60000000000000000000000000000000000002A
:10C610009F03580638061800180018001800180064
:10C6200018001800FF0000000000000000000000DB
:10C6300000000000000000000000000000000000FA
:10C64000F0031C030C020C023800F000C0030403CA
:10C6500004038C03FC010000000000000000000047
:10C66000000000000000000020002000300030002A
:10C67000FE0130003000300030003000300030006B
:10C6800030023002E0010000000000000000000065
:10C690000000000000000000000000000000080290
:10C6A0008E030C030C030C030C030C030C030C0390
:10C6B0000C039C077801000000000000000000004F
:10C6C000000000000000000000000000000000006A
:10C6D0001E070C020801080118019000B000B0000C
:10C6E000600060002000000000000000000000006A
:10C6F000000000000000000000000000000000003A
:10C70000F70E6204460464026402EC029C01980184
:10C7100098019801080000000000000000000000DF
:10C720000000000000000000000000000000000009
:10C73000BC0718011001B00060006000E00090002C
:10C74000080108039E070000000000000000000030
:10C7500000000000000000000000000000000000D9
:10C760009E0708010801080190009000B0006000D9
:10C77000600060002000200024001C000000000079
:10C7800000000000000000000000000000000000A9
:10C79000FC018401C4004400600020003000180245
:10C7A00008020C03FC010000000000000000000073
:10C7B00000038000800080008000800080008000F6
:10C7C0008000400020004000800080008000800049
:10C7D00080008000800080000003000040004000D6
:10C7E0004000400040004000400040004000400049
:10C7F0004000400040004000400040004000400039
:10C8000040004000400040004000400000000000A8
:10C810000C0010001000100010001000100010009C
:10C820001000200040002000100010001000100038
:10C8300010001000100010000C00000000001C0090
:10C840002204C20480030000000000000000000079
:10C8500000000000000000000000000000000000D8
:10C8600000000000000000000000000000000000C8
:10C8700000000000000000000000000000000000B8
:10C8800000000000000000000000000000000000A8
:10C890000000000000000000000030003000300008
:10C8A0003000300020002000200020002000000088
:10C8B0000000300030000000000000000000D80040
:10C8C000D8006C00240012000000000000000000EE
:10C8D0000000000000000000000000000000000058
:10C8E0000000000000000000000000008400840040
:10C8F0008400FF0184008400C60042004200FF0162
:10C900004200420042000000000000000000000061
:10C9100000002000F80024012401A40128003000B8
:10C920006000A00020012C0124012401F800200057
:10C930002000000000000000000000008600490008
:10C940004900290029001900D600280128012801E2
:10C9500024012401C20000000000000000000000CB
:10C96000000000000C00120012001200EA00460055
:10C97000460025002900390011003201CC000000DA
:10C980000000000000000600060004000200010094
:10C990000000000000000000000000000000000097
:10C9A0000000000000000000000000000000000186
:10C9B0008000400020002000200010001000100027
:10C9C0001000100010002000200020004000800017
:10C9D000000100000000010002000400080008003F
:10C9E00008001000100010001000100010000800D7
:10C9F0000800080004000200010000000000000020
:10CA0000000000000000200020002603AE0370009C
:10CA10007000AE032603200020000000000000008C
:10CA200000000000000000000000000000001000F6
:10CA3000100010001000FF01100010001000100086
:10CA400000000000000000000000000000000000E6
:10CA500000000000000000000000000000000000D6
:10CA600000000000000000000000060006000400B6
:10CA700002000100000000000000000000000000B3
:10CA8000000000000000FE030000000000000000A5
:10CA90000000000000000000000000000000000096
:10CAA0000000000000000000000000000000000086
:10CAB000000000000000000000000600060000006A
:10CAC0000000000000000002000100018000800062
:10CAD000C000400060002000300010001800080076
:10CAE0000800040004000200000000000000000034
:10CAF00000000000780084008400020102010201AD
:10CB00000201020102010201840084007800000099
:10CB100000000000000000000000000010001C00E9
:10CB20001000100010001000100010001000100085
:10CB3000100010007C000000000000000000000059
:10CB4000000000007C00820002010201020180005E
:10CB5000400020001000080004010201FE01000056
:10CB60000000000000000000000000003C00420047
:10CB7000820082004000700080000001000102017C
:10CB8000020182007C0000000000000000000000A4
:10CB90000000400040006000500048004800440091
:10CBA00042004200FE01400040004000F001000051
:10CBB000000000000000000000000000FC01040074
:10CBC00004000400040074008C0000010001020154
:10CBD000020182007C000000000000000000000054
:10CBE00000000000F00008010401040002007A00C7
:10CBF00086000201020102010401840078000000A5
:10CC0000000000000000000000000000FE018200A3
:10CC1000420040002000100010000800080008003A
:10CC200008000800080000000000000000000000EC
:10CC3000000000007800840002010201020184006B
:10CC400078008400020102010201840078000000E3
:10CC500000000000000000000000000078008400D8
:10CC600082000201020102018401780100018000BA
:10CC7000820042003C0000000000000000000000B4
:10CC80000000000000000000000030003000000044
:10CC90000000000000000000000030003000000034
:10CCA0000000000000000000000000000000000084
:10CCB0000000000010000000000000000000000064
:10CCC0000000000010001000100010000000000024
:10CCD0000000800040002000100008000400020056
:10CCE0000400080010002000400080000000000048
:10CCF0000000000000000000000000000000000034
:10CD00000000FF01000000000000FF010000000023
:10CD10000000000000000000000000000000000013
:10CD20000000020004000800100020004000800005
:10CD30004000200010000800040002000000000075
:10CD400000000000000000000000780084000201E4
:10CD500006010601000180004000200020002000A4
:10CD60000000300030000000000000000000000063
:10CD7000000000007800C400F2015901490145019A
:10CD800025012501A500D9000201840078000000DA
:10CD90000000000000000000000000001000100073
:10CDA0002800280028002800440044007C0044009B
:10CDB00082008200C70100000000000000000000A7
:10CDC000000000003F0042004200420022003E00FE
:10CDD0004200820082008200820042003F00000088
:10CDE0000000000000000000000000007801840145
:10CDF0000201020101000100010001000100010126
:10CE00000201860078000000000000000000000021
:10CE1000000000003F00C200820002010201020186
:10CE20000201020102010201820042003F000000F3
:10CE3000000000000000000000000000FF00820071
:10CE40000201420042007E00420042000200020055
:10CE500002018200FF00000000000000000000004E
:10CE600000000000FF0082000201420042007E003C
:10CE7000420042000200020002000200070000001F
:10CE800000000000000000000000000070018801A8
:10CE900004010201020002000200820302010201F9
:10CEA00004010C01F0000000000000000000000080
:10CEB00000000000C7018200820082008200820020
:10CEC000FE0082008200820082008200C701000012
:10CED000000000000000000000000000FE00100044
:10CEE00010001000100010001000100010001000C2
:10CEF00010001000FE000000000000000000000014
:10CF000000000000FC012000200020002000200084
:10CF1000200020002000200020002000210011001F
:10CF20000E0000000000000000000000E7014200C9
:10CF30002200220012001A001600220022004200E5
:10CF400042008200C7010000000000000000000055
:10CF500000000000070002000200020002000200C0
:10CF6000020002000200020002018200FF00000035
:10CF7000000000000000000000000000C701C60023
:10CF8000C600C600AA00AA00AA00AA00AA00920031
:10CF900092009200D7010000000000000000000095
:10CFA00000000000C70186008A008A008A00920003
:10CFB0009200A200A200C200C200C20087000000CE
:10CFC0000000000000000000000000003800C60063
:10CFD00082000101010101010101010101010101C1
:10CFE0008200C600380000000000000000000000C1
:10CFF000000000007F0082000201020102018200A5
:10D000007E00020002000200020002000700000091
:10D010000000000000000000000000003800C60012
:10D020008200010101010101010101010101190158
:10D03000A600A60078004001C0000000000000002B
:10D04000000000003F0042008200820042003E00DB
:10D0500012002200220042004200820087010000EC
:10D0600000000000000000000000000078018401C2
:10D070000201020002000C007000800000010201A9
:10D08000020186007A00000000000000000000009D
:10D0900000000000FE00110111011000100010003E
:10D0A00010001000100010001000100038000000E8
:10D0B000000000000000000000000000C701820026
:10D0C0008200820082008200820082008200820050
:10D0D0008200440038000000000000000000000052
:10D0E00000000000C70182008200440044004400A8
:10D0F000440028002800280038001000100000001C
:10D10000000000000000000000000000BB019200D1
:10D11000920092009200AA00AA00AA006A004400AD
:10D120004400440044000000000000000000000033
:10D1300000000000CE0184004400480028003000B8
:10D14000100030002800480048008400CE01000094
:10D15000000000000000000000000000C701820085
:10D1600044004400280028001000100010001000A7
:10D170001000100038000000000000000000000057
:10D1800000000000FC0184008200400040002000FC
:10D19000100010000800080004018400FE000000D8
:10D1A000000000000000F00110001000100010004E
:10D1B00010001000100010001000100010001000EF
:10D1C000100010001000F00100000000000000003E
:10D1D000020004000400080008000800100010000D
:10D1E00020002000200040004000800080008000DF
:10D1F0000001000000003E00200020002000200070
:10D20000200020002000200020002000200020001E
:10D210002000200020003E00000000000000380038
:10D220002800440000000000000000000000000092
:10D2300000000000000000000000000000000000EE
:10D2400000000000000000000000000000000000DE
:10D2500000000000000000000000000000000000CE
:10D2600000000000000000000000FF0300001800A4
:10D27000200000000000000000000000000000008E
:10D28000000000000000000000000000000000009E
:10D29000000000000000000000000000000000008E
:10D2A000000000007C0082008200F0008C00820000
:10D2B0008200C202BC030000000000000000000069
:10D2C0000000000003000200020002003A004600D5
:10D2D0008200820082008200820046003A00000044
:10D2E000000000000000000000000000000000003E
:10D2F00000000000780084008200020002000200AA
:10D30000020184007800000000000000000000001E
:10D3100000000000C000800080008000B800C40051
:10D3200082008200820082008200C400B8010000F6
:10D3300000000000000000000000000000000000ED
:10D3400000000000780084000201FE0102000200DB
:10D3500002018400780000000000000000000000CE
:10D3600000000000E001100210001000FC0010009E
:10D37000100010001000100010001000FC00000051
:10D38000000000000000000000000000000000009D
:10D3900000000000F801840084008400840078000C
:10D3A00004007C00840102010201FC000000000076
:10D3B0000000000003000200020002007A00860064
:10D3C000820082008200820082008200C701000089
:10D3D000000000000000000000000000180018001D
:10D3E000000000001C0010001000100010001000D1
:10D3F000100010007C000000000000000000000091
:10D4000000000000600060000000000070004000AC
:10D41000400040004000400040004000400040000C
:10D4200022001E00000000000000000003000200B7
:10D4300002000200E200220012000A001600220090
:10D4400042008200C7010000000000000000000050
:10D45000000000001E00100010001000100010005E
:10D46000100010001000100010001000FE0000005E
:10D4700000000000000000000000000000000000AC
:10D48000000000007F009200920092009200920043
:10D4900092009200B70100000000000000000000B0
:10D4A0000000000000000000000000007B0086007B
:10D4B000820082008200820082008200C701000098
:10D4C000000000000000000000000000000000005C
:10D4D0000000000078008400020102010201020144
:10D4E000020184007800000000000000000000003D
:10D4F0000000000000000000000000003B004600AB
:10D500008200820082008200820046003A0002000F
:10D510000200070000000000000000000000000002
:10D5200000000000B800C400820082008200820077
:10D530008200C400B80080008000C001000000002C
:10D54000000000000000000000000000CE012801E3
:10D550001800080008000800080008003E0000004D
:10D5600000000000000000000000000000000000BB
:10D5700000000000BC00C200820006003800C000AD
:10D58000820086007A000000000000000000000019
:10D59000000000000000100010001000FC0010004F
:10D5A000100010001000100010009000600000003B
:10D5B000000000000000000000000000000000006B
:10D5C00000000000C300820082008200820082000E
:10D5D0008200C200BC01000000000000000000004A
:10D5E000000000000000000000000000C7018200F1
:10D5F00044004400440028002800100010000000EF
:10D60000000000000000000000000000000000001A
:10D6100000000000BB01920092009200AA00AA0044
:10D62000440044004400000000000000000000002E
:10D63000000000000000000000000000CE01840097
:10D64000480030003000300048008400CE01000067
:10D6500000000000000000000000000000000000CA
:10D6600000000000EE0184008800480048005000DF
:10D67000300020001000100010000C00000000001E
:10D68000000000000000000000000000FE0042005A
:10D69000220020001000080084008200FE0000002C
:10D6A00000000000000080014000400040004000F9
:10D6B000400040006000100060004000400040005A
:10D6C0004000400040004000800100002000200099
:10D6D000200020002000200020002000200020004A
:10D6E000200020002000200020002000200020003A
:10D6F00020002000000006000800080008000800C4
:10D7000008000800180020001800080008000800A1
:10D710000800080008000800060000001C0026029F
:10D720002203C00100000000000000000000000013
:10D7300000000000000000000000000000000000E9
:10D7400000000000000000000000000000000000D9
:10D750000000000000000008080808080808000091
:10D760001818000000486C2412000000000000009F
:10D77000000000000000002424247F1212127F12F7
:10D78000121200000000081C2A2A0A0C1828282A55
:10D790002A1C080800000022251515152A58545483
:10D7A000542200000000000C1212120A76252911E2
:10D7B000916E000000060604030000000000000057
:10D7C0000000000000402010100808080808081099
:10D7D000102040000002040808101010101010085B
:10D7E000080402000000000008086B1C1C6B0808FD
:10D7F0000000000000000000080808087F08080872
:10D800000800000000000000000000000000000010
:10D81000060604030000000000000000FE000000F7
:10D8200000000000000000000000000000000000F8
:10D830000606000000008040402020101008080468
:10D8400004020200000000182442424242424242C6
:10D8500024180000000000080E080808080808083E
:10D86000083E00000000003C424242202010080414
:10D87000427E00000000003C42422018204040420E
:10D88000221C0000000000203028242422227E20B8
:10D89000207800000000007E0202021A264040426A
:10D8A000221C0000000000382402021A26424242D4
:10D8B000241800000000007E22221010080808082A
:10D8C000080800000000003C424242241824424262
:10D8D000423C00000000001824424242645840408C
:10D8E000241C0000000000000000181800000000C8
:10D8F00018180000000000000000000800000000F0
:10D900000008080400000040201008040204081069
:10D91000204000000000000000007F0000007F00A9
:10D920000000000000000002040810204020100841
:10D93000040200000000003C42424640201010005B
:10D94000181800000000001C225A555555552D424C
:10D95000221C00000000000808181414243C224275
:10D9600042E700000000001F2222221E2242424203
:10D97000221F00000000007C42420101010101421F
:10D98000221C00000000001F22424242424242424A
:10D99000221F00000000003F4212121E121202421B
:10D9A000423F00000000003F4212121E121202020B
:10D9B000020700000000003C222201010171212227
:10D9C000221C0000000000E7424242427E424242E6
:10D9D00042E700000000003E0808080808080808A0
:10D9E000083E00000000007C1010101010101010F5
:10D9F0001010110F0000007722120A0E0A121222D4
:10DA00002277000000000007020202020202020266
:10DA1000427F000000000077363636362A2A2A2A4E
:10DA20002A6B0000000000E346464A4A5252526206
:10DA3000624700000000001C224141414141414138
:10DA4000221C00000000003F424242423E0202020D
:10DA5000020700000000001C2241414141414D539A
:10DA6000321C60000000003F4242423E121222225D
:10DA700042C700000000007C4242020418204042DD
:10DA8000423E00000000007F490808080808080816
:10DA9000081C0000000000E742424242424242426B
:10DAA000423C0000000000E74242222424141418E3
:10DAB000080800000000006B4949494955553622C5
:10DAC00022220000000000E7422424181818242411
:10DAD00042E700000000007722221414080808081A
:10DAE000081C00000000007E2120101008040442E1
:10DAF000423F0000007808080808080808080808DD
:10DB00000808780000000202040408080810102029
:10DB100020204040001E1010101010101010101087
:10DB200010101E000038440000000000000000003B
:10DB300000000000000000000000000000000000E5
:10DB4000000000FF000608000000000000000000C8
:10DB500000000000000000000000003C4278444249
:10DB600042FC0000000000030202021A2642424268
:10DB7000261A0000000000000000003844020202E3
:10DB80004438000000000060404040784442424277
:10DB900064D80000000000000000003C427E020249
:10DBA000423C0000000000F08808087E08080808D1
:10DBB000083E0000000000000000007C22221C0241
:10DBC0003C42423C000000030202023A464242420A
:10DBD00042E700000000000C0C00000E08080808D6
:10DBE000083E0000000000303000003820202020D7
:10DBF0002020221E0000000302020272120A1612E6
:10DC0000227700000000000E08080808080808082D
:10DC1000083E0000000000000000007F92929292F7
:10DC200092B70000000000000000003B4642424264
:10DC300042E70000000000000000003C4242424277
:10DC4000423C0000000000000000001B264242424F
:10DC5000221E0207000000000000007844424242F9
:10DC6000447840E000000000000000774C04040409
:10DC7000041F0000000000000000007C42023C4045
:10DC8000423E0000000000000008083E08080808A6
:10DC900008300000000000000000006342424242E1
:10DCA00062DC000000000000000000E742242414B1
:10DCB0000808000000000000000000EB494955552D
:10DCC000222200000000000000000076241818182E
:10DCD000246E000000000000000000E7422424142D
:10DCE00018080807000000000000007E2210080845
:10DCF000447E000000C02020202020102020202072
:10DD00002020C00010101010101010101010101053
:10DD10001010101000060808080808100808080865
:10DD2000080806000C32C2000000000000000000DD
:10DD300000000000000000000000000000000000E3
:10DD400000000404040404040004000000140A0A8F
:10DD50000000000000000000000014143F140A3FFF
:10DD60000A0A000000041E1505060C14150F040015
:10DD7000000012150D0A142C2A1200000000040ADB
:10DD80000A1E1515093600000002020100000000FD
:10DD900000000000002010080808080808102000F3
:10DDA0000002040808080808080402000000000433
:10DDB000150E0E150400000000000404041F0404E6
:10DDC000040000000000000000000000000202014A
:10DDD00000000000001F0000000000000000000024
:10DDE00000000000000200000010080808040402FF
:10DDF0000202010000000E1111111111110E00009C
:10DE00000000040604040404040E000000000E11C7
:10DE100011080402011F000000000E11100C101068
:10DE2000110E00000000080C0A0A091E0818000064
:10DE300000001F01010F1010110E000000000E095C
:10DE4000010F1111110E000000001F090804040445
:10DE50000404000000000E11110E1111110E00003B
:10DE600000000E1111111E10120E00000000000023
:10DE70000400000000040000000000000004000096
:10DE80000004040000201008040204081020000010
:10DE9000000000001F00001F000000000002040836
:10DEA000102010080402000000000E1111080404E4
:10DEB0000004000000000E111915151D011E0000C0
:10DEC000000004040C0A0A1E1233000000000F12A6
:10DED000120E1212120F000000001E1101010101AA
:10DEE000110E000000000F1212121212120F000089
:10DEF00000001F120A0E0A02121F000000001F126B
:10DF00000A0E0A020207000000001C12010139116A
:10DF1000120C000000003312121E12121233000005
:10DF200000001F0404040404041F000000003E0855
:10DF30000808080808090700000037120A060A0A3C
:10DF4000123700000000070202020202223F000016
:10DF500000001B1B1B1B15151515000000003B12B4
:10DF600016161A1A1217000000000E1111111111C5
:10DF7000110E000000000F12120E02020207000034
:10DF800000000E1111111117190E180000000F12C8
:10DF9000120E0A121237000000001E1101060810AE
:10DFA000110F000000001F1504040404040E0000FB
:10DFB0000000331212121212120C00000000331271
:10DFC000120A0A0C0404000000001515150E0A0AB6
:10DFD0000A0A000000001B0A0A04040A0A1B0000C7
:10DFE00000001B0A0A040404040E000000001F09BC
:10DFF00008040402121F0000001C040404040404AA
:10E0000004041C00000202020404080808100000B6
:10E01000000E08080808080808080E0000040A0096
:10E0200000000000000000000000000000000000F0
:10E030000000003F0004000000000000000000009D
:10E0400000000000000C121C123C00000000030243
:10E05000020E1212120E000000000000001C12023C
:10E06000021C000000001810101C1212123C0000CC
:10E0700000000000000C121E021C0000000038040A
:10E08000041E0404041E000000000000003C120CEA
:10E09000021E221C00000302020E121212370000A0
:10E0A0000000040000060404040E00000000080044
:10E0B000000C08080808080700000302023A0A0ECC
:10E0C000123700000000070404040404041F0000C9
:10E0D00000000000000F15151515000000000000DD
:10E0E000000F12121237000000000000000C121284
:10E0F000120C000000000000000F1212120E0207A6
:10E1000000000000001C1212121C10380000000059
:10E11000001B06020207000000000000001E020CA7
:10E12000101E000000000004040E04040418000087
:10E1300000000000001B1212123C00000000000052
:10E140000037120A0C040000000000000015150E34
:10E150000A0A000000000000001B0A040A1B00005D
:10E16000000000000037120A0C0404030000000045
:10E17000001E0804041E000000180808080408080F
:10E180000808180008080808080808080808080807
:10E190000006040404080404040406000225180010
:10E1A000000000000000000000000000000000006F
:10E1B000000000000000000000000000000000005F
:10E1C000000000000000000000000000000000004F
:10E1D000000000000000000000000000000000003F
:10E1E000000000000000000000000000000000002F
:10E1F000000000000000000000000000000000001F
:10E20000000000000000000000000000000000000E
:10E2100000000000000000000000000000000000FE
:10E2200000000000000000000000000000000000EE
:10E2300000000000000000000000000000000000DE
:10E2400000000000000000000000000000000000CE
:10E2500000000000000000000000000000000000BE
:10E2600000000000000000000000000000000000AE
:10E27000000000000000000000000000000000009E
:10E28000000000000000000000000000000000008E
:10E29000000000000000000000000000000000007E
:10E2A000000000000000000000000000000000006E
:10E2B000000000000000000000000000000000005E
:10E2C000000000000000000000000000000000004E
:10E2D000000000000000000000000000000000003E
:10E2E000000000000000000000000000000000002E
:10E2F000000000000000000000000000000000001E
:10E30000000000000000000000000000000000000D
:10E3100000000000000000000000000000000000FD
:10E3200000000000000000000000000000000000ED
:10E3300000000000000000000000000000000000DD
:10E3400000000000000000000000000000000000CD
:10E3500000000000000000000000000000000000BD
:10E3600000000000000000000000000000000000AD
:10E37000000000000000000000000000000000009D
:10E38000000000000000000000000000000000008D
:10E39000000000000000000000000000000000007D
:10E3A0000000000000000000FEFFFFFFFF00FCFF78
:10E3B000FF3F0000E0FF1FF801F8FFFF83FFFFFFB2
:10E3C000FF3F00000000FEFFFFFFFF00FCFFFF3FDC
:10E3D0000000E0FF3FF801F8FFFF83FFFFFFFF3F72
:10E3E00000000000FEFFFFFFFF00FCFFFF3F0000FA
:10E3F000E0FF1FF801F8FFFF83FFFFFFFF3F000072
:10E400000000FEFFFFFFFF00FCFFFF3F0000E0FFFA
:10E410001FF801F8FFFF83FFFFFFFF3F0000000030
:10E42000FEFFFFFFFF00FCFFFF3F0000E0FF1FF8C3
:10E4300001F8FFFF83FFFFFFFF3F00000000FEFF2A
:10E44000FFFFFF00FCFFFF3F0000E0FF1FF800F0B0
:10E45000FFFF83FFFFFFFF3F000000007E00000082
:10E46000FCE0033F003EF0FFE0FF1F0000007EE005
:10E47000831F0000003F000000007E000000FCE061
:10E48000033F003EF0FFE0FF1F0000007EE0831F1F
:10E490000000003F000000007E000000FCE0033FA1
:10E4A000003EF0FFE0FF1F0000007EE0831F000041
:10E4B000003F000000007E000000FCE0033F003E43
:10E4C000F0FFE0FF1F0000007EE0831F0000003F20
:10E4D000000000007E000000FCE0033F003EF0FF73
:10E4E000E0FF1F0000007EE0831F0000003F0000EF
:10E4F00000007EF0FF0FFC00FC00F0C1FFFF0000F9
:10E5000000F8C10700E0831FF8FF073F000000008C
:10E510007EF0FF1FFC00FC00F0C1FFFF000000F8D0
:10E52000C10700E0831FFCFF073F000000007EF0F2
:10E53000FF0FFC00FC00F0C1FFFF000000F8C10766
:10E5400000E0831FF8FF073F000000007EF0FF0F90
:10E55000FC00FC00F0C1FFFF000000F8C10700E074
:10E56000831FF8FF073F000000007EF0FF0FFC0054
:10E57000FC00F0C1FFFF000000F8C10700E0831FAE
:10E58000F8FF073F000000007EF0FF0FFC00001FB7
:10E59000F0C10FFE0000FF0700F8FF1F801FF8FF0B
:10E5A000073F000000007EF0FF0FFC00003FF0C1BD
:10E5B0000FFC0080FF0700F8FF1F801FF8FF073FD8
:10E5C000000000007EF0FF0FFC00003FF0C10FFCD8
:10E5D0000080FF0700F8FF1F801FF8FF073F0000C3
:10E5E00000007EF0FF0FFC00003FF0C10FFC008038
:10E5F000FF0700F8FF1F801FF8FF073F0000000023
:10E600007EF0FF0FFC00003FF0C10FFC0080FF0711
:10E6100000F8FF1F801FF8FF073F000000007EF09A
:10E62000FF0FFC00003FF0C10FFC0080FF0700F867
:10E63000FF1F801FF8FF073F000000007EF0FF0F64
:10E64000FC00F83FF0C10FFC1F7CE007FEFFC3FF9A
:10E65000831FF8FF073F000000007EF0FF0FFC0063
:10E66000FC3FF0C10FFC1F7CE007FEFF81FF831F12
:10E67000F8FF073F000000007EF0FF1FFC00FC3F9A
:10E68000F0C10FFC1F7CE007FEFF81FF831FF8FF36
:10E69000073F000000007EF0FF1FFC00FC3FF0C1C0
:10E6A0000FFE1F7CE007FEFF81FF831FFCFF073F7B
:10E6B000000000007EF0FF0FFC00FC3FF0C10FFCEB
:10E6C0001F7CE007FEFF81FF831FF8FF073F00006C
:10E6D00000007E800004FCC00700A00005D81FFCDD
:10E6E0003FFCE10F7EF8831F7000023F0000000036
:10E6F0007E000000FCE00300000000001FFC1FF88B
:10E70000C1077EE0831F0000003F000000007E0084
:10E710000000FCE00300000000001FFC1FF8C10720
:10E720007EE0831F0000003F000000007E0000002C
:10E73000FCE00300000000001FFC1FF8C1077EE0A2
:10E74000831F0000003F000000007E000000FCE08E
:10E750000300000000001FFC1FF8C1077EE0831FBC
:10E760000000003F000000007E000000FEE003000B
:10E77000000000001FFC1FF8C1077EE0833F00007F
:10E78000003F00000000FEFFFFFFFFE0033FF0C17D
:10E790000FFCE0831FF8C1077EE083FFFFFFFF3F10
:10E7A00000000000FEFFFFFFFFE0033FF0C10FFE8F
:10E7B000E0831FF8C1077EE083FFFFFFFF3F0000FB
:10E7C0000000FEFFFFFFFFE0033FF0C10FFCE0830E
:10E7D0001FF8C1077EE083FFFFFFFF3F000000003E
:10E7E000FEFFFFFFFFE0033FF0C10FFCE0831FF8D7
:10E7F000C1077EE083FFFFFFFF3F00000000FEFF38
:10E80000FFFFFFE0033FF0C10FFCE0831FF8C107EB
:10E810007EE083FFFFFFFF3F00000000FEFFFFFFE1
:10E82000FFE0033FF0C10FFEE0031FF8C1073CE02B
:10E8300083FFFFFFFF3F000000000000000000E03A
:10E8400003FFFFC1FFFFFF03E007FE07000000001A
:10E8500000000000000000000000000000E003FFD6
:10E86000FFC1FFFFFF03E007FE07000000000000FC
:10E870000000000000000000000000E003FFFFC1F6
:10E88000FFFFFF03E007FE0700000000000000009C
:10E89000000000000000000000E003FFFFC1FFFFD8
:10E8A000FF03E007FE07000000000000000000007A
:10E8B00000000000000000E003FFFFC1FFFFFF03B6
:10E8C000E007FE070000000000000000000000005C
:10E8D000000080FFFF1F00FFFF3F00FEE0831FF8E6
:10E8E0003FF881FF83FF0300F800000000000000F4
:10E8F00080FFFF1F00FFFF3F00FCE0831FF83FF891
:10E9000081FF83FF0700F80000000000000080FF87
:10E91000FF1F00FFFF3F00FCE0831FF83FF881FF6F
:10E9200083FF0700F80000000000000080FFFF1FC9
:10E9300000FFFF3F00FCE0831FF83FF881FF83FFEB
:10E940000700F80000000000000080FFFF1F00FF2C
:10E95000FF3F00FCE0831FF83FF881FF83FF0700C3
:10E96000F80000000000FE0F7EF003E003FFFFC18F
:10E97000FF03E07F00003FF8811F0000F83F000028
:10E9800000000000FE0F7EF003E003FFFFC1FF0365
:10E99000E07F00003EF8811F0000F83F000000000B
:10E9A0000000FE0F7EF003E003FFFFC1FF03E07FE6
:10E9B00000003EF8811F0000F83F0000000000004A
:10E9C000FE0F7EF003E003FFFFC1FF03E07F0000C6
:10E9D0003EF8811F0000F83F000000000000FE0F1D
:10E9E0007EF003E003FFFFC1FF03E07F00003EF87D
:10E9F000811F0000F83F000000000000FE0F7EE0D5
:10EA000003E003FFFFC1FF03E07F00003EF8811F2A
:10EA10000000F83F00000000000000000000FC1FA4
:10EA200000E00FFE1F001F7CC0FF01F8FF1F7C00ED
:10EA3000F83FF8000000000000000000FC1F00C0CC
:10EA40000FFE0F001F7CE0FF01F8FF1F7C00FC3F62
:10EA5000F8000000000000000000FC1F00C00FFED6
:10EA60000F001F7CE0FF01F8FF1F7C00F83FF8005B
:10EA70000000000000000000FC1F00C00FFE0F009F
:10EA80001F7CE0FF01F8FF1F7C00F83FF80000004A
:10EA9000000000000000FC1F00C00FFE0F001F7CE4
:10EAA000E0FF01F8FF1F7C00F83FF80000000000C5
:10EAB00000000000FC1F00C00FFE0F001FFCE0FF65
:10EAC00000F0FF1F7C00FC3FF801000000007E000A
:10EAD000FEFF0300FCC00F3EF0FFE0FF1F00000040
:10EAE000FEFF7FE003FFFF3F000000007E00FEFF0F
:10EAF0000300FCC00F3EF0FFE0FF1F000000FEFF20
:10EB00007FE007FFFF3F000000007E00FEFF0300E4
:10EB1000FCC00F3EF0FFE0FF1F000000FEFF7FE0A3
:10EB200007FFFF3F000000007E00FEFF0300FCC067
:10EB30000F3EF0FFE0FF1F000000FEFF7FE007FF39
:10EB4000FF3F000000007E00FEFF0300FCC00F3E00
:10EB5000F0FFE0FF1F000000FEFF7FE007FFFF3F28
:10EB6000000000007E00FEFF0300FCC00F3EF07FAF
:10EB7000E0FF1F000000FCFF7FE007FFFF3F0000F9
:10EB800000007EF0811FFCE00300F001F003E0FFD5
:10EB90001F003E0080FF83FF07FF073F00000000CB
:10EBA0007EF0810FFCE00300F001F003E0FF1F00A6
:10EBB0003E0080FF83FF07FF073F000000007EF05C
:10EBC000811FFCE00300F001F003E0FF1F003E00A6
:10EBD00080FF83FF07FF073F000000007EF0811FDA
:10EBE000FCE00300F001F003E0FF1F003E0080FFA7
:10EBF00083FF07FF073F000000007EF0810FFCE06D
:10EC00000300F001F001E0FF3F003E0080FF83FFC2
:10EC100007FF073F00000000800F000000FFFF3FDC
:10EC2000F00100000080FFFF3F007EE07F00FCC09D
:10EC3000070000000000800F000000FFFF3FF00110
:10EC400000000080FFFF3F007EE07F00FCC0070067
:10EC500000000000800F000000FFFF3FF0010000F7
:10EC60000080FFFF3F007EE07F00F8C0070000004B
:10EC70000000800F000000FFFF3FF00100000000D7
:10EC800000F03F007EE07F00F8C0070000000000B9
:10EC9000800F000000FFFF3FF00100000000008037
:10ECA0003F007EE07F00F8C0070000000000000089
:10ECB0007EE0FFFF033F0000000000000000C0FFF7
:10ECC000FFFF7F00F8FF07000000000000007EF05B
:10ECD000FFFF033F0000000000000000C0FFFFFF37
:10ECE0007F00F8FF07000000000000007EF0FFFF3B
:10ECF000033F0000000000000000C0FFFFFF7F0096
:10ED0000F8FF07000000000000007EF0FFFF033F57
:10ED10000000000000000000C0FFFFFF7F00F8FFC0
:10ED200007000000000000007EE0FFFF033F00003E
:10ED3000000000000000C0FFFFFF7F00F8FF070099
:10ED40000000000000007EF0FFFF033F0000000015
:10ED500000000000C0FFFFFF7F00F8FF0700000079
:10ED60000000FE0F7EF0031FFC3FF00F00000000CC
:10ED700000000000FE1F0000F8C0FF0000000000BF
:10ED8000FE0F7EF0031FFC3FF00F000000000000AC
:10ED90000000FE1F0000F8C0FF0000000000FE0F92
:10EDA0007EF0031FFC3FF00F000000000000000099
:10EDB000FE1F0000F8C0FF0000000000FE0F7EF004
:10EDC000031FFC3FF00F0000000000000000FE1FCA
:10EDD0000000F8C0FF0000000000FE0F7EF0031FDF
:10EDE000FC3FF00F0000000000000000FE1F0000CC
:10EDF000F8C0FF0000000000FE0FFEF0071FFC3F00
:10EE0000F00F0000000400000000FC0F0008F8E014
:10EE1000FF0000000000800FFEFFFFE0FF3FF00159
:10EE20000000101E0000C0070000FC1F00FF0700CC
:10EE300000000000800FFEFFFFE0FF3FF001000038
:10EE400030180000C0070000FC1F00FF0700000092
:10EE50000000800FFEFFFFE0FF3FF0010000180000
:10EE60000000C0070000FC1F00FF070000000000BA
:10EE7000800FFEFFFFE0FF3FF00100007C800100FB
:10EE8000C0070000FC1F00FF070000000000800F0B
:10EE9000FEFFFFE0FF3FF0010000EC980100C0071B
:10EEA0000000FC1F00FF070000000000C00FFEFF75
:10EEB0007FE0FF3FF0010060C41C0000C0070000BD
:10EEC000FC1F00FF070000000000FE0FFE1F00E017
:10EED000FFC00F000060001C00000000FEFF7F006C
:10EEE000F8C0070000000000FE0FFE0F00E0FFC0AA
:10EEF0000F0000F0003E00000000FEFF7F00FCC09D
:10EF0000070000000000FE0FFE0F00E0FFC00F0032
:10EF100000F0016000000000FEFF7F00F8C0070065
:10EF200000000000FE0FFE0F00E0FFC00F00009089
:10EF3000110004000000FEFF7F00F8C00700000081
:10EF40000000FE0FFE1F00E0FFC00F0000001800D1
:10EF500006000000FEFF7F00F8C007000000000070
:10EF6000FE0FFEFFFF1F003FF00F00007C000000BF
:10EF7000F8FF81FF831FF8C0070000000000FE0FAC
:10EF8000FEFFFF1F003FF00F0020C4300000F8FF1D
:10EF900081FF831FFCC0070000000000FE0FFEFF82
:10EFA000FF1F003FF00F002000300000F8FF81FF3E
:10EFB000831FF8C0070000000000FE0FFEFFFF1FC8
:10EFC000003FF00F003000180000F8FF81FF831FA2
:10EFD000F8C0070000000000FE0FFEFFFF1F003F0B
:10EFE000F00F00F8013C0000F8FF81FF831FFCC018
:10EFF00007000000000080FF7F0000FFFF00000E00
:10F00000000000C40000F807000080FFFFC0073FB9
:10F010000000000080FF7F0000FFFF00000E0000E6
:10F0200010800100F807000080FFFFC0073F0000CC
:10F03000000080FF7F0000FFFF00000E00001800AE
:10F040000000F807000080FFFFC0073F000000003D
:10F0500080FF7F0000FFFF00000E0000780000002E
:10F06000F807000080FFFFC0073F0000000080FF9E
:10F070007F0000FFFF00000E0000CC000000F8073A
:10F08000000080FFFFC0073F0000000000F07FE0AD
:10F09000FFE0071FF00F00000019000038F8810F93
:10F0A000FC3F00C007000000000000F07FE0FFE030
:10F0B000033FF00F00000018000038F8811FFC1F0C
:10F0C00000C007000000000000F07FF0FFE0033FF9
:10F0D000F00F00000018000038F8811FFC1F00C06E
:10F0E00007000000000000F07FF0FFE0033FF00F9A
:10F0F0000000601C000038F8811FFC1F00C00700E2
:10F100000000000000F07FF0FFE0033FF00F000080
:10F11000E01F000038F8811FFC1F00C0070000003E
:10F12000000000F07FE0FFE0033FF00F0000E01F71
:10F13000000038F8811FFC1F00C00700000000001D
:10F14000FEFF7F00001F00C0FF030000E01F000063
:10F150003800FE1FFC1FF0FF071E00000000FEFF2E
:10F160007F00001F00C0FF010000F01F00003800FA
:10F17000FE1FFC1FF8FF073F00000000FEFF7F009E
:10F18000001F00C0FF010000F03F00003800FE1F1C
:10F19000FC1FFCFF073F00000000FEFF7F00001F78
:10F1A00000C0FF010000F03F00003800FE1FFC1F00
:10F1B000FCFF073F00000000FEFF7F00001F00C0B3
:10F1C000FF010000000000003800FE1FFC1FF8FFD8
:10F1D000073F00000000FEFF7F00001F00E0FF016E
:10F1E0000000000000003800FE1FFC1FF8FF073E73
:10F1F00000000000FEFF810FFCE0FFFF0F00000099
:10F200000000000038F8FF1FFC1F00000000000095
:10F210000000FEFF811FFCE0FFFF0F000000000068
:10F2200000003CF8FF1FFC1F000000000000000071
:10F23000FEFF810FFCE0FFFF0F0000000000000058
:10F240003CF8FF1FFC1F0000000000000000FEFF54
:10F25000810FFCE0FFFF0F000000000000003CF801
:10F26000FF1FFC1F0000000000000000FEFF811FC8
:10F27000FCE0FFFF0F000000000000003EF8FF1F51
:10F28000FC1F0000000000000000FEFF810FFCE0FA
:10F29000FFFF0F000000000000003EF8FF1FFC1FF2
:10F2A0000000000000000000FEFF7F00001F003F84
:10F2B000003E0000000000803F007E007CE003C0B4
:10F2C000070000000000FEFF7F00001F003F003E1F
:10F2D0000000000000F03F007E007CE007C0070057
:10F2E00000000000FEFF7F00001F003F003EF00313
:10F2F000FF03E0FF3F007E007CE007C00700000046
:10F300000000FEFF7F00001F003F003EF083FF0370
:10F31000E0FF3F007E007CE007C007000000000027
:10F32000FEFF7F00001F003F003EF003FF03E0FFF1
:10F330003F007E007CE007C0070000000000800F57
:10F34000FE0FFCE0033F00FEFF031F7CE007FEFF13
:10F3500081FFFF1FF8C0FF3F00000000800FFE0F7D
:10F36000FCE0033F00FEFF031F7CE007FEFF81FF80
:10F37000FF1FFCC0FF3F00000000800FFE0FFCE0FD
:10F38000033F00FEFF031F7CE007FEFF81FFFF1F1E
:10F39000FCC0FF3F00000000800FFE0FFCE0033FB9
:10F3A00000FEFF031F7CE007FEFF81FFFF1FF8C088
:10F3B000FF3F00000000800FFE1FFCE0033F00FE47
:10F3C000FF031F7CE007FEFF81FFFF1FF8C0FF3F28
:10F3D000000000007EF081FF03E0033F00C0FF0358
:10F3E00000FC3FF801F8811F7C00F83FF8010000A5
:10F3F00000007EF081FF03E0033F00C0FF0300FC3C
:10F400001FF801F8811F7C00F83FF80000000000A1
:10F410007EF081FF03E0033F00C0FF0300FC1FF804
:10F4200001F8811F7C00F83FF800000000007EF02A
:10F4300081FF03E0033F00C0FF0300FC1FF801F859
:10F44000811F7C00F83FF800000000007EF081FF83
:10F4500003E0033F00C0FF0100FC1FF801F8811F1B
:10F460007C00F83FF800000000007EF081FF03E020
:10F47000033F00C0FF0300FC1FF801F8811F7C0060
:10F48000F83FF8000000000000F0FFFF7FE00300FD
:10F4900000FEFF7FE0FFFFFF0100FE1FFC1FF800E2
:10F4A00000000000000000F0FFFFFFE0030000FE8E
:10F4B000FFFFE0FFFFFF0100FE1FFC1FF8C0000080
:10F4C0000000000000F0FFFFFFE0030000FEFFFF70
:10F4D000E0FFFFFF0100FE1FFC1FF8C0000000005E
:10F4E000000000F0FFFFFFE0030000FEFFFFE0FF71
:10F4F000FFFF0100FE1FFC1FFC00000000000000D9
:10F5000000F0FFFFFFE0030000FEFFFFE0FFFFFF52
:10F510000100FE1FFC1FF80000000000000000F0CA
:10F52000FFFF7FE0070000FEFFFFE0FFFFFF01009D
:10F53000FE1FFC1F780000000000000000F001002A
:10F5400000E0FF00F0FF0FFEE00300F8C107FE1F20
:10F55000FC1F00C0073F0000000000F0010000E0B9
:10F56000FF00F0FF0FFCE00300F8C107FE1FFC1FC7
:10F5700000C0073F0000000000F0010000E0FF00B5
:10F58000F0FF0FFCE00300F8C107FE1FFC1F00C0E6
:10F59000073F0000000000F0010000E0FF00F0FF66
:10F5A0000FFCE00300F8C107FE1FFC1F00C0073F6F
:10F5B0000000000000F0010000E0FF00F0FF0FFC81
:10F5C000E00300F8C107FE1FFC1F00C0073F00005A
:10F5D000000000F0010000E0FF01F8FF0F7CE003F5
:10F5E00000F8C107FC1FFC3F00C0073F00000000FF
:10F5F000FEFF7FE0FF00FCFFFF01F00300801FF82B
:10F60000FF0700E0FFFFFFFFFF0000000000FEFF1C
:10F610007FF0FF00FCFFFF01F00300801FF8FF07F1
:10F6200000E0FFFFFFFFFF0000000000FEFF7FF093
:10F63000FF00FCFFFF01F00300801FF8FF0700E060
:10F64000FFFFFFFFFF0000000000FEFF7FF0FF0054
:10F65000FCFFFF01F00300801FF8FF0700E0FFFF41
:10F66000FFFFFF0000000000FEFF7FE0FF00FCFF47
:10F67000FF01F00300801FF8FF0700E0FFFFFFFF1E
:10F68000FF00000000000000000000E0FF00003E5E
:10F69000F003E00300F801007EE00300FC3FF80007
:10F6A000000000000000000000E0FF00003EF0034A
:10F6B000E00300F801007EE00300F83FF8000000DE
:10F6C00000000000000000E0FF00003EF003E00347
:10F6D00000F801007EE00300F83FF80000000000A1
:10F6E0000000000000E0FF00003EF003E00300F82F
:10F6F00001007EE00300F83FF80000000000000079
:10F70000000000E0FF00003EF003E00300F801000D
:10F710007EE00300F83FF80000000000FEFFFFFF5E
:10F72000FFE0FFFFFFFFFF7F00FCFF073E00FEFF43
:10F73000831FF8FF070000000000FEFFFFFFFFE04F
:10F74000FFFFFFFFFFFF00FCFF073E00FEFF831FE0
:10F75000F8FF070000000000FEFFFFFFFFE0FFFFD3
:10F76000FFFFFFFF00FCFF073E00FEFF831FF8FFC7
:10F77000070000000000FEFFFFFFFFE0FFFFFFFFAC
:10F78000FFFF00FCFF073E00FEFF831FF8FF07009E
:10F7900000000000FEFFFFFFFFE0FFFFFFFFFFFF95
:10F7A00000FCFF073E00FEFF831FF8FF070000007C
:10F7B0000000FEFFFFFFFFE0FFFFFFFFFFFF00FC79
:10F7C000FF073E00FEFF831FF8FF07000000000058
:10F7D0007E000000FEE007E0FF01F003FF03E0FF12
:10F7E00001007EF00300F8C00700000000007E006A
:10F7F0000000FCE003C0FF01F003FF03E0FF010095
:10F800007EE00300F8C00700000000007E0000005A
:10F81000FCE003C0FF01F003FF03E0FF01007EE016
:10F820000300F8C00700000000007E000000FCE0BC
:10F8300003C0FF01F003FF03E0FF01007EE00300CF
:10F84000F8C00700000000007E000000FCE003C0DC
:10F85000FF01F003FF03E0FF01007EE00300F8C0BA
:10F860000700000000007E600004FCE00FE0FF00E5
:10F87000F803FE03C0FF01027EE00781FCE1070000
:10F88000000000007EF0FF0FFCE0FF3F00C0FF0320
:10F89000000000F8C1077EE0FFFFFFFF0700000047
:10F8A00000007EF0FF1FFCE0FF3F00C0FF030000F0
:10F8B00000F8C1077EE0FFFFFFFF07000000000027
:10F8C0007EF0FF0FFCE0FF3F00C0FF03000000F8E8
:10F8D000C1077EE0FFFFFFFF0700000000007EF091
:10F8E000FF0FFCE0FF3F00C0FF03000000F8C1076E
:10F8F0007EE0FFFFFFFF0700000000007EF0FF0F2B
:10F90000FCE0FF3F00C0FF03000000F8C1077EE0FD
:10F91000FFFFFFFF0700000000007EF0FF0FFC006C
:10F92000FCC00FFEFF03007CC007C0FF7FE0831F09
:10F9300000FF0700000000007EF0FF0FFC00FCC08D
:10F940000FFEFF03007CE007C0FF7FE0831F00FF86
:10F950000700000000007EF0FF0FFC00FCC00FFE5F
:10F96000FF03007CE007C0FF7FE0831F00FF07006C
:10F97000000000007EF0FF0FFC00FCC00FFEFF0344
:10F98000007CE007C0FF7FE0831F00FF070000004E
:10F9900000007EF0FF0FFC00FCC00FFEFF03007CA8
:10F9A000E007C0FF7FE0831F00FF070000000000AA
:10F9B0007EF0FF0FFC00FCC00FFEFF03007CE007A1
:10F9C000C0FF7FE0831F00FF0700000000007EF003
:10F9D000FF0FFC00FCC00FC0FF03FF7FE0073E00ED
:10F9E0007EE0FFFF033FF800000000007EF0FF0F05
:10F9F000FC00FCC00FC0FF03FF7FE0073E007EE07D
:10FA0000FFFF073FF800000000007EF0FF0FFC0042
:10FA1000FCC00FC0FF03FF7FE0073E007EE0FFFF5A
:10FA2000073FF800000000007EF0FF1FFC00FCC054
:10FA30000FC0FF03FF7FE0073E007EE0FFFF073FB0
:10FA4000F800000000007EF0FF0FFC00FCC00FC0BB
:10FA5000FF03FF7FE0073E007EE0FFFF033FF8006B
:10FA6000000000007E000000FC00FC00F0C10F0060
:10FA7000E0FFFF07C007FE1F7C0000FFFF00000043
:10FA800000007E000000FC00FC00F0C10F00E0FF61
:10FA9000FF07C007FE1F7C0000FFFF000000000002
:10FAA0007E000000FC00FC00F0C10F00E0FFFF073B
:10FAB000C007FE1F7C0000FFFF00000000007E006A
:10FAC0000000FC00FC00F0C10F00E0FFFF07C007D2
:10FAD000FE1F7C0000FFFF00000000007E00000011
:10FAE000FC00FC00F0C10F00E0FFFF07C007FE1F95
:10FAF0007C0000FFFF0000000000FEFFFFFFFF0092
:10FB0000FCC0FF3FF0FF1FFCE007C0FF0100FCFF4F
:10FB100003C0FF3F00000000FEFFFFFFFF00FCC02E
:10FB2000FF3FF0FF1F7CE007C0FF0100FCFF03C0A8
:10FB3000FF3F00000000FEFFFFFFFF00FCC0FF3F93
:10FB4000F0FF1F7CE007C0FF0100FCFF07C0FF3F84
:10FB500000000000FEFFFFFFFF00FCC0FF3FF0FFC2
:10FB60001F7CE007C0FF0100FCFF07C0FF3F000053
:10FB70000000FEFFFFFFFF00FCC0FF3FF0FF1F7C07
:10FB8000E007C0FF0100FCFF07C0FF3F00000000CE
:10FB9000FEFFFFFFFF00FCC0FF3FF0FF1F7CE00700
:10FBA000C0FF0100FCFF03C0FF3F00000000000099
:10FBB0000000000000000000000000000000000045
:10FBC0000000000000000000000000000000000035
:10FBD0000000000000000000000000000000000025
:10FBE0000000000000000000000000000000000015
:10FF20000000800100000000000000000000000050
:10FF300000000000000000000000000000000000C1
:10FF4000C0030000000000000000000000000000EE
:10FF50000000000000000000000000000000C00FD2
:10FF60000000000000000000000000000000000091
:10FF7000000000000000000000000000C03F000082
:10FF80000000000000000000000000000000000071
:10FF900000000000000000000000E03F0000000042
:10FFA0000000000000000000000000000000000051
:10FFB0000000000000000000F03F00000000000012
:10FFC0000000000000000000000000000000000031
:10FFD000000000000000F83F0000000000000000EA
:10FFE0000000000000000000000000000000000011
:10FFF00000000000FC1F00000000000000000000E6
:020000040801F1
:1000000000000000000000000000000000000000F0
:100010000000FE1F000000000000000000000000C3
:1000200000000000000000000000000000000000D0
:10003000FE1F0000000000000000000000000000A3
:100040000000000000000000000000000000FE1F93
:1000500000000000000000000000000000000000A0
:10006000000000000000000000000000FF1F000072
:100070000000000000000000000000000000000080
:1000800000000000000000000080FF7F0000000072
:100090000000000000000000000000000000000060
:1000A000000000E001000080FFFF000000000000F1
:1000B0000000000000000000000000000000000040
:1000C00000E001000080FFFF0100000000000000D0
:1000D000000000000000000000000000000000F030
:1000E0000F0000C0FFFF070000000000000000003C
:1000F00000000000000000000000000000F81F00E9
:1001000000E0FFFF1F0000000000000000000000F2
:100110000000000000000000000000FCFF0000E004
:10012000FFFF3F0000000000000000000000000092
:10013000000000000000000000FCFF0000E0FFFFE6
:100140007F00000000000000000000000000000030
:1001500000000000000000FEFF0100F8FFFFFF00AC
:10016000000000000000000000000000000000008F
:100170000000000000FEFF0000F83FFCFF00000050
:10018000000000000000000000000000000000006F
:10019000000000FFFF0000E01FC07F000000000023
:1001A000000000000000000000000000000000004F
:1001B00080FFFF0000C01FC07F00000000000000A3
:1001C000000000000000000000000000000080FFB0
:1001D0007F0000C00FC07F00000000000000000092
:1001E000000000000000000000000000C0FF7F00D1
:1001F00000000F003F0000000000000000000000B1
:1002000000000000000000000000C0FF3F000000F0
:1002100000003C00000000000000000000000000A2
:100220000000000000000000C0FF3F0000000000D0
:1002300000000000000000000000000000000000BE
:10024000000000000000E0FF1F00000000000000B0
:10025000000000000000000000000000000000009E
:1002600000000000E0FF1F00000000000000000090
:10027000000000000000000000000000000000007E
:100280000000F8FF1F000000000000000000000058
:10029000000000000000000000000000000000005E
:1002A000FCFF7F00000000000000000000000000D4
:1002B0000000000000000000000000000000FEFF41
:1002C000FF0000000000000000000000000000002F
:1002D000000000000000000000000000FEFFFF0121
:1002E000000000000000000000000000000000000E
:1002F00000000000000000000000FEFFFF01000001
:1003000000000000001C00000000000000000000D1
:100310000000000000000000FEFFFF0F00000000D2
:100320000000007C00000000000000000000000051
:10033000000000000000FFFFFF3F00000000000081
:1003400000FE0000000000000000000000000000AF
:1003500000000000FFFFFFFF00000000000000FFA2
:10036000000000000000000000000000000000008D
:100370000080FFFFFFFF010000000000807F000001
:10038000000000000000000000000000000000C0AD
:10039000FFFFFFFF0F0000C00100807F0000000092
:1003A00000000000000000000000000000C0FFFF8F
:1003B000FFFF1F0000C00300807F0000000000005E
:1003C0000000000000000000000000E0FFFFFFFF51
:1003D0003F0000C00700807F000000000000000018
:1003E000000000000000000000E0FFFFFFFFFF0032
:1003F00000E03F00C0FF000000000000000000001F
:1004000000000000000000E0FFFFFFFFFF0000F819
:100410007F00C0FF0100000000000000000000009D
:1004200000000C0000F0FF87FFFFFF0000F87F00D6
:10043000C0FF0100000000000000000000000000FC
:100440007F0000F8FF03FEFFFF0000FCFF01E0FF5C
:100450000F00000000000000000000000000FF018D
:1004600000F0FF01E0FF3F0000FEFF01FCFF3F0046
:10047000000000000000000000000000FF0300E09A
:10048000FF01E0FF3F0000FEFF01FCFF7F000000D6
:1004900000000000000000000080FF0700E0FF01F6
:1004A000C0FF3F0000FEFF00FCF37F0000000000E3
:1004B0000000000000000080FF1F00C0FF0080FF60
:1004C0003F0000FEFF00F8C13F00000000000000F8
:1004D0000000000000C0FF1F0000FE0000FE1F0023
:1004E00000FF7F0040003F0000000000000000000F
:1004F000000000E0FF1F0000200000E0070080FF78
:100500007F0000001C000000000000000000000050
:1005100000E0FF1F0000000000C00300C0FF7F00DC
:10052000000000000000000000000000000000F0DB
:10053000FF1F0000000000800300C0FF3F0000001C
:1005400000000000000000000000000000FCFF0FA1
:100550000000000000000000C0FF1F0000000000BD
:100560000000000000000000000000FCFF0300008D
:10057000000000000000E0FF3F000000000000005D
:10058000000000000000000000FEFF01000000006D
:1005900000000000E0FF3F0000000000000000003D
:1005A00000000000000000FEFF010000000000004D
:1005B0000000E0FF7F0000000000000000000000DD
:1005C0000000000000FEFF0100000000000000002D
:1005D000F0FF7F00000000000000000000000000AD
:1005E000000000FEFF010000000000000000FCFF12
:1005F000FF030000000000000000000000000000F9
:1006000000FFFF010000000000000000FEFFFF0FE0
:10061000000000000000000000000000000000FFDB
:10062000FF030000000000000000FEFFFF3F00008D
:1006300000000000000000000000000080FFFF1F1D
:10064000000000C001000000FEFFFFFF00000000EE
:100650000000000000000000000080FFFF3F0000DD
:1006600000E003000000FFFFFFFF010000000000AA
:100670000000000000000000C0FFFF3F000000F08D
:100680000F0000809FFFFFFF03000000000000003C
:10069000000000000000C0FFFFFF000000F01F008E
:1006A00000809FFFFFFF0700000000000000000027
:1006B00000000000E0FFFFFF010000F87F00008065
:1006C000FFFFFFFF3F0000000000000000000000EF
:1006D0000000E0FFFFFF030000FC1F0100C0FFFF60
:1006E000FFFF7F000000000000000000000000008D
:1006F000F0FFFFFF070000FC1F0100C0FFFFFFFF2E
:100700007F00000000000000000000000000FCFF6F
:10071000FFFF3F0000FE1F0300E0FF1FFFFFFF0081
:10072000000000000000000000000000FEFFFFFFCE
:10073000FF0100FEFF0100F0FF03F8FF7F00003E15
:1007400000000000000000000000FEFFFFFFFF03AC
:1007500000FFFF0100F8FF03E0FF7F00007E0000C4
:100760000000000000000000FEFFFFFFFF0380FF0D
:10077000FF0100F8FF03E0FF7F00007E00000000A3
:10078000000000000000FEFFFFFFFF0780FFFF00EA
:1007900000E0FF03C0FF3F0000FF0000000000007A
:1007A00000000000FFFFF0FFFF0F80FFFF00008050
:1007B000FF0100FE3F0080FF01000000000000007C
:1007C0000000FF7F80FFFF0FC0FF7F000000FC01E3
:1007D00000F03F00C0FF010000000000000000002A
:1007E000FF7F00FFFF07C0FF7F000000F80000E070
:1007F0003F00C0FF00000000000000000000FE3FBE
:1008000000FEFF03E0FF3F000000600000C01F008B
:10081000C07F00000000000000000000E01F00E0BA
:10082000FF01E0FF1F000000000000000000E07F6B
:1008300000000000000000000000801F00C0FF005A
:10084000FCFF1F000000000000000000E07F00002F
:100850000000000000000000000F0000FF00FCFF8F
:100860001F000000000000000000F07F00000000FA
:1008700000000000000000070000FF00FCFF0F0068
:100880000000000000000000F07F000000000000F9
:1008900000000000000000007E00FEFF1F000000BE
:1008A000000000000000FCFF00000000000000004D
:1008B0000000000000003800FEFF3F0000000000C4
:1008C00000000000FCFF030000000000000000002A
:1008D000000000000000FEFFFF000000000000001C
:1008E0000000FEFF0F0000000000000000000000FC
:1008F00000000000FEFFFF030000000000000000F9
:10090000FEFF7F000000000000000000000000006B
:100910000000FFFFFF1F0000000000000000FFFFBD
:10092000FF00000000000000000000000000008048
:10093000FFFFFF3F0000000000000080FFFFFF03FB
:1009400000000000000000000000000000C0FFFFE9
:10095000FFFF0000000040000080FFFFFF070000D5
:100960000000000000000000000000C0FFFFFFFFCB
:1009700000000000E0000080FFFFFF070000000013
:10098000000000000000000000E0FFFFFFFF030088
:100990000000F00300C0FFFFFF07000000000000A0
:1009A00000000000000000E0FFFFFFFF1F0000004C
:1009B000F81F00C0FFF1FF0700000000000000006A
:1009C00000C0000000E0FFFFFFFF1F000000F81F55
:1009D0000080FFC0FF03000000000000000000F0E6
:1009E000030000F0FFFFFFFF7F000000FC3F00005E
:1009F0007E00FF00000000000000000000F83F0043
:100A000000FCFFFFFFFFFF030000FEFF01000000EE
:100A1000F000000000000000000000FCFF0000FCEF
:100A2000FFFFFFFFFF070000FFFF0F000000E000D7
:100A3000000000000000000000FCFF0000FEFFFFBF
:100A4000FFFFFF0F0000FFFF1F000000600000001D
:100A500000000000000000FCFF0000FEFFC3FFFFDD
:100A6000FF1F0000FFFF1F0000000000000000004B
:100A70000000000000FEFF0000FEFF01FFFFFF3F3F
:100A80000080FFFF1F0000000000000000000000C9
:100A9000000000FEFF0000FFFF01FCFFFF3F0080A1
:100AA000FFFF030000000000000000000000000045
:100AB00000FEFF0000FFFF01F8FFFF3F0080FFFF87
:100AC000030000000000000000000000000000FF24
:100AD0007F0000FFFF01E0FFFF1F00C0FFFF0300DA
:100AE00000000000000000000000000080FF3F0048
:100AF00000FEFF0000FEFF0F00E0FFFF010000000E
:100B00000000000000000000000080FF1F0000F057
:100B10007F0000FCFF0700F8FFFF0100000000005D
:100B20000000000000000000C0FF1F0000E03F00C8
:100B300000F8FF0700F8FFFF0100000000000000C0
:100B4000000000000000C0FF1F0000E03F0000F0B8
:100B5000FF0700F8FFFF0000000000000000000099
:100B600000000000E0FF1F0000803F0000C0FF0306
:100B700000FCFFFF0000000000000000000000007B
:100B80000000E0FF1F0000001E000000FF0300FC4B
:100B9000FF7F0000000000000000000000000000D7
:100BA000F0FF1F0000001C000000FC0100FCFF7FA4
:100BB0000000000000000000000000000000F8FF3E
:100BC0007F00000000000000F00100FEFF3F000079
:100BD000000000000000000000000000FEFFFF0118
:100BE000000000000000C00000FFFF3F0000000008
:100BF00000000000000000000000FEFFFF070000F2
:100C000000000000000080FFFF1F00000000000047
:100C10000000000000000000FEFFFF1F00000000B9
:100C20000000000080FFFF3F000000000000000007
:100C3000000000000000FEFFFF1F00000000000099
:100C4000000080FFFF3F00000000000000000000E7
:100C500000000000FFFFFF7F000000800100000097
:100C6000C0FFFF7F00000000000000000000000047
:100C70000000FFFFFFFF010000C007000000C0FFF1
:100C8000FFFF0100000000000000000000000080E5
:100C9000FFFFFFFF030000C01F000000C0FFFFFFB9
:100CA0000300000000000000000000000080FFFFC3
:100CB000FFFF1F0000E07F000000E0FFFFFF1F00BC
:100CC0000000000000000000000000C0FFFFFFFF68
:100CD0007F0000F0FF010000F8FFFFFF7F00000031
:100CE000000000000000000000E0FFFFFFFFFF0029
:100CF00000F8FF070000FCFFFFFFFF0100000000FD
:100D000000000000000000E0FFFFFFFFFF0000F810
:100D1000FF0F0000FCFFFFFFFF01000000000000CC
:100D20000000000000E0FF8FFFFFFF0000FCFF1F3E
:100D30000000FCFFFFFFFF030000000000000000B8
:100D4000000000F0FF03FEFFFF0000FCFF3F00007B
:100D5000FEFFFFFFFF070000000000000000000092
:100D600000E0FF01E0FF7F0000FEFF3F0000FEFF0C
:100D7000FFFFFF7F0000000000000000000000E017
:100D8000FF01E0FF3F0000FEFF1F0000FFFFFFFF2D
:100D9000FFFF010000000000000000000080FF01D4
:100DA00080FF3F0000FEFF1F0000FFFFFFFFFFFF6F
:100DB000010000000000000000000000FE0000FE36
:100DC0001F0000FFFF1F0080FFFFFFFFFFFF0F005E
:100DD00000000000000000000000700000E00F00B4
:100DE00080FFFF0F00C0FFFFC3FFFFFF3F000000B9
:100DF0000000000000000000600000E00700C0FFED
:100E0000FF0F00C0FFFFC3FFFFFFFF000000000057
:100E1000000000000000000000C00700C0FFFF0F3E
:100E200000C0FFFF81FFFFFFFF0100000000000086
:100E300000000000000000C00300C0FFFF0300E04E
:100E4000FFFF01FEFFFFFF010000000000000000A7
:100E50000000000000000000E0FFFF0100F0FF7F45
:100E600000E0FFFFFF0100000000000000000000A4
:100E7000000000000000E0FFFF0000F8FF7F00C05E
:100E8000FFFFFF0100000000000000000000000064
:100E900000000000F0FFFF0000F0FF3F0080FFFFB8
:100EA000FF00000000000000000000000000000043
:100EB0000000FCFFFF0000C0FF3F0000FEFFFF003E
:100EC0000000000000000000000000000000000022
:100ED000FCFF7F000000FF3F0000FCFF7F000000E0
:100EE0000000000000000000000000000000FEFF05
:100EF0007F000000FE1F0000F0FF3F000000000028
:100F0000000000000000000000000000FEFF7F0065
:100F10000000FC1F0000C0FF3F00000000000000B8
:100F200000000000000000000000FEFFFF000000C5
:100F3000F01F000080FF3F000000000000000000E4
:100F40000000000000000000FFFFFF010000C003E0
:100F5000000000FE1F000000000000000000000074
:100F6000000000000000FFFFFF07000080010000FC
:100F700000F01F0000000000000000000000000062
:100F800000000000FFFFFF1F00000000000000C085
:100F90000F00000000000000000000000000000042
:100FA00000C0FFFFFF7F00000000000000800F0076
:100FB000000000000000000000000000000000C071
:100FC000FFFFFFFF0100000000000000070000001D
:100FD00000000000000000000000000000E0FFFF33
:100FE000FFFF010000000000000000000000000002
:100FF0000000000000000000000000E0FFFFFFFF15
:1010000001000000000000000000000000000000DF
:10101000000000000000000000E0FFFFFFFF0F00E5
:1010200000000000000000000000000000000000C0
:1010300000000000000000F0FFFFFFFF7F00000045
:1010400000000000000000000000000000000000A0
:101050000000000000F8FFFFFFFFFF01000000009C
:101060000000000000000000000000000000000080
:10107000000000F8FFFFFFFFFF010000000000007C
:101080000000000000000000000000000000000060
:1010900000FCFFFFFFFFFF07000000000000000052
:1010A000000000000000000000000000000000FE42
:1010B000FFFFFFFFFF3F0000800100000000000075
:1010C00000000000000000000000000000FEFFFF24
:1010D000FFFFFF7F00008001000000000000000013
:1010E0000000000000000000000000FEFFFFFFFF06
:1010F000FFFF0000C0010000000000000000000031
:10110000000000000000000000FFFFFFFFFFFFFFE6
:101110000000C0010000000000000000000000000E
:1011200000000000000000FFFF03FEFFFFFF0700BC
:10113000E0010000000000000000000000000000CE
:101140000000000080FFFF03F0FFFFFF1F00F00121
:10115000000000000000000000000000000000008F
:101160000000C0FFFF01E0FFFFFF1F00F8010000CB
:10117000000000000000000000000000000000006F
:10118000C0FFFF01C0FFFFFF0F00FC0100000000D7
:101190000000000000000000000000000000C0FF90
:1011A000FF0100FEFFFF0700FC010000000000003F
:1011B000000000000000000000000000C0FFFF0170
:1011C00000FEFFFF0300FC01000000000000000023
:1011D0000000000000000000000000FFFF0000F819
:1011E000FFFF0100FE010000000000000000000001
:1011F000000000000000000000FEFF0000E0FFFF14
:101200000100FF01000000000000000000000000DD
:1012100000000000000000F87F000080FFFF008059
:10122000FF010000000000000000000000000000BE
:101230000000000000C03F000000FE7F0080FF01B2
:10124000000000000000000000000000000000009E
:10125000000000001F000000FC7F0080FF01000074
:10126000000000000000000000000000000000007E
:1012700000001E000000E07F00C0FF010000000031
:10128000000000000000000000000000000000005E
:101290001E000000C03F00C0FF0100000000000071
:1012A000000000000000000000000000000000003E
:1012B0000000803F00C0FF010000000000000000AF
:1012C000000000000000000000000000000000001E
:1012D000003F00E0FF0100000000000000000000EF
:1012E0000000000000000000000000000000001EE0
:1012F00000F8FF01000000000000000000000000F6
:10130000000000000000000000800100000000FC60
:10131000FF010000000000000000000000000000CD
:1013200000000000000000C00300000000FCFF01FE
:1013300000000000000000000000000000000000AD
:101340000000000000C00300000000FCFF010000DE
:10135000000000000000000000000000000000008D
:10136000000000C03F00000000FEFF010000000080
:10137000000000000000000000000000000000006D
:101380000080FF01000000FFFF01000000000000DE
:1013900000000000000000000000000000000080CD
:1013A000FF03000000FFFF0100000000000000003C
:1013B0000000000000000000000000000080FF03AB
:1013C000000080FFFF01000000000000000000009E
:1013D000000000000000000000000080FF0F00007F
:1013E00080FFFF010000000000000000000000007E
:1013F00000000000000000000080FF7F0000C0FF30
:10140000FF010000000000000000000000000000DC
:101410000000000000000080FFFF0300C0FFFF018C
:1014200000000000000000000000000000000000BC
:10143000000000000080FFFF0700E0FFFF01000048
:10144000000000000000000000000000000000009C
:1014500000000080FFFF1F00E0FFFF010000000010
:10146000000000000000000000000000000000007C
:101470000080FFFFFF00F0FFFF0100000000000000
:1014800000000000000000000000000000000080DC
:10149000FFFFFF01F8FFFF01000000000000000057
:1014A0000000000000000000000000000080FFFFBE
:1014B000FF01FCFFFF010000000000000000000031
:1014C000000000000000000000000080FFFFFF0F90
:1014D000FEFFFF010000000000000000000000000F
:1014E00000000000000000000080FFFFFF3FFEFF43
:1014F000FF010000000000000000000000000000EC
:101500000000000000000080FFFFFFFFFFFFFF0161
:1015100000000000000000000000000000000000CB
:10152000000000000080FFFFFFFFFFFFFF01000041
:1015300000000000000000000000000000000000AB
:1015400000000080FFFFFFFFFFFFFF010000000021
:10155000000000000000000000000000000000008B
:101560000080FFFFFFFFFFFFFF0100000000000001
:1015700000000000000000000000000000000080EB
:10158000FFFFFFFFFFFFFF01000000000000000061
:1015900000000000000000000000000000C0FFFF8D
:1015A000FFFFFFFFFF01000000000000000000003F
:1015B0000000000000000000000000C0FFFFFFFF6F
:1015C000FFFFFF030000000000000000000000001B
:1015D000000000000000000000C0FFFFFFFFFFFF51
:1015E000FF030000000000000000000000000000F9
:1015F00000000000000000C0FFFFFFFFFFFFFF032F
:1016000000000000000000000000000000000000DA
:101610000000000000C0FFFFFFFFFFFFFF0700000A
:1016200000000000000000000000000000000000BA
:10163000000000C0FFFFFFFFFFFFFF0700000000EA
:10164000000000000000000000000000000000009A
:1016500000C0FFFFFFFFFFFFFF07000000000000CA
:10166000000000000000000000000000000000C0BA
:10167000FFFFFFFFFFFFFF0F000000000000000062
:1016800000000000000000000000000000C0FFFF9C
:10169000FFFFFFFFFF0F0000000000000000000040
:1016A0000000000000000000000000C0FFFFFFFF7E
:1016B000FFFFFF0F0000000000000000000000001E
:1016C000000000000000000000E0FFFFFFFFFFFF40
:1016D000FF0F0000000000000000000000000000FC
:1016E00000000000000000F0FFFFFFFFFFFFFF0F02
:1016F00000000000000000000000000000000000EA
:101700000000000000F8FFFFFFFFFFFFFF1F0000C9
:1017100000000000000000000000000000000000C9
:10172000000000F8FFFFFFFFFFFFFF1F00000000A9
:1017300000000000000000000000000000000000A9
:1017400000F8FFFFFFFFFFFFFF1F00000000000089
:10175000000000000000000000000000000000FC8D
:10176000FFFFFFFFFFFFFF1F000000000000000061
:1017700000000000000000000000000000FCFFFF6F
:10178000FFFFFFFFFF1F000000000000000000003F
:101790000000000000000000000000FCFFFFFFFF51
:1017A000FFFFFF1F0000000000000000000000001D
:1017B000000000000000000000FEFFFFFFFFFFFF31
:1017C000FF3F0000000000000000000000000000DB
:1017D00000000000000000FEFFFFFFFFFFFFFF3FD3
:1017E00000000000000000000000000000000000F9
:1017F0000000000000FEFFFFFFFFFFFFFF3F0000B3
:1018000000000000000000000000000000000000D8
:10181000000000FEFFFFFFFFFFFFFF3F0000000092
:1018200000000000000000000000000000000000B8
:1018300000FEFFFFFFFFFFFFFF3F00000000000072
:10184000000000000000000000000000000000FF99
:10185000FFFFFFFFFFFFFF3F000000000000000050
:1018600000000000000000000000000080FFFFFFFB
:10187000FFFFFFFFFF3F000000000000000000002E
:101880000000000000000000000080FFFFFFFFFFDD
:10189000FFFFFF7F000000000000000000000000CC
:1018A0000000000000000000C0FFFFFFFFFFFFFF7F
:1018B000FFFF00000000000000000000000000002A
:1018C000000000000000C0FFFFFFFFFFFFFFFFFF61
:1018D0000000000000000000000000000000000008
:1018E00000000000E0FFFFFFFFFFFFFFFFFF010020
:1018F00000000000000000000000000000000000E8
:101900000000E0FFFFFFFFFFFFFFFFFF01000000FF
:1019100000000000000000000000000000000000C7
:10192000F0FFFFFFFFFFFFFFFFFF010000000000CF
:101930000000000000000000000000000000F0FFB8
:10194000FFFFFFFFFFFFFFFF03000000000000009C
:10195000000000000000000000000000F0FFFFFF9A
:10196000FFFFFFFFFFFF010000000000000000007C
:1019700000000000000000000000C00000000000A7
:10198000000000E000000000000000000000000077
:101990000000000000000000000000000000000047
:1019A0000000000000000000000000000100020034
:1019B0000400060008000A000C001000200040008F
:1019C0008000000101010103070100000804020476
:1019D00008010101000000000102030401020304E8
:1019E00006070809000000004FBB610567ACDD3F3A
:1019F000182D4454FB21E93F9BF681D20B73EF3F36
:101A0000182D4454FB21F93FE2652F227F2B7A3CAD
:101A1000075C143326A6813CBDCBF07A8807703C66
:101A2000075C143326A6913CC4EB98999999C9BFD9
:101A3000711623FEC671BCBF6D9A74AFF2B0B3BF0E
:101A40009AFDDE522DDEADBF2F6C6A2C44B4A2BFCE
:101A50000D5555555555D53FFF8300922449C23F3A
:101A60006E204CC5CD45B73F513DD0A0660DB13F6E
:101A7000EB0D76244B7BA93F11DA22E33AAD903F80
:101A80004C5555555555A53F7751C1166CC156BF9C
:101A90009015CB19A001FA3EAD529C804F7E92BEAC
:101AA000C4B1B4BD9EEE213ED43888BEE9FAA8BDCB
:101AB000000000000000000000004054FB21F93F3E
:101AC0003163621A61B4D03D0000601A61B4D03D48
:101AD0007370032E8A19A33B0000002E8A19A33BC2
:101AE000C14920259A837B390000000000000000D6
:101AF0006E83F9A22915444ED15727FCC0DD34F579
:101B0000999562DB4190433CAB6351FE61C5BBDEFE
:101B10003A6E24B7E0D24D42EA2E49061C92D10912
:101B20001CEB1DFE3EA729B1F53582E88444BB2E8F
:101B300026709CE9417E5FB439D69139F4395383DC
:101B40008B5F849C3B28F9BDFF97F81F0F9805DE3B
:101B50008B112FEF1F6D0A5ACF7E366DB709CB2739
:101B6000663F464F2DEA5F9EC7BA27757BF1E5EBCE
:101B7000F739073DEA92528AB15FFB6B085D8D1F12
:101B8000A6F810111111813FD561C119A0012ABF1A
:101B90007DFEB157E31DC73EEB9C2B8AE6E55ABE9E
:101BA0007CD5CF5A3AD9E53DC81B01080000002476
:101BB00084010000DC030008D01C0108840100241B
:101BC000B429000098880008011C320113FC891315
:101BD000081812181248123C13DC9A13082012201D
:101BE0001280120813DC9E1B08100C3240139CB6A6
:101BF0001B080C243230136CC813080A1214322844
:101C00001344D71308081A1002211334DD130806F1
:101C10001A0C02211361681B0891041A9D041AC54D
:101C2000041AF1041A41041A6D044117040309044B
:101C30001201140202021640830440571D020102E1
:101C4000038D031A1A031341041B083D041A3904B7
:101C50001A65041A7D0429C0297C513C90D00304E4
:101C60003114810182130A0632022A40241C09021F
:101C70004363111DC0320904F51A020B1305241623
:101C80001001052401100901042402020524061E86
:101C90000107058203CD1B090499320A1D070501BE
:101CA00002FD2C0705810711131965140885634C83
:101CB00008BB66C41315641408D1621B084714C11D
:101CC0001A99181A59041AD9041A4D04410000002F
:040000050800029954
:00000001FF
