Component: ARM Compiler 5.06 update 5 (build 528) Tool: armlink [4d35e2]

==============================================================================

Section Cross References

    startup_stm32h750xx.o(RESET) refers to startup_stm32h750xx.o(STACK) for __initial_sp
    startup_stm32h750xx.o(RESET) refers to startup_stm32h750xx.o(.text) for Reset_Handler
    startup_stm32h750xx.o(RESET) refers to stm32h7xx_it.o(i.NMI_Handler) for NMI_Handler
    startup_stm32h750xx.o(RESET) refers to stm32h7xx_it.o(i.HardFault_Handler) for HardFault_Handler
    startup_stm32h750xx.o(RESET) refers to stm32h7xx_it.o(i.MemManage_Handler) for MemManage_Handler
    startup_stm32h750xx.o(RESET) refers to stm32h7xx_it.o(i.BusFault_Handler) for BusFault_Handler
    startup_stm32h750xx.o(RESET) refers to stm32h7xx_it.o(i.UsageFault_Handler) for UsageFault_Handler
    startup_stm32h750xx.o(RESET) refers to stm32h7xx_it.o(i.SVC_Handler) for SVC_Handler
    startup_stm32h750xx.o(RESET) refers to stm32h7xx_it.o(i.DebugMon_Handler) for DebugMon_Handler
    startup_stm32h750xx.o(RESET) refers to stm32h7xx_it.o(i.PendSV_Handler) for PendSV_Handler
    startup_stm32h750xx.o(RESET) refers to stm32h7xx_it.o(i.SysTick_Handler) for SysTick_Handler
    startup_stm32h750xx.o(RESET) refers to stm32h7xx_it.o(i.SDMMC1_IRQHandler) for SDMMC1_IRQHandler
    startup_stm32h750xx.o(RESET) refers to stm32h7xx_it.o(i.OTG_FS_IRQHandler) for OTG_FS_IRQHandler
    startup_stm32h750xx.o(.text) refers to system_stm32h7xx.o(i.SystemInit) for SystemInit
    startup_stm32h750xx.o(.text) refers to entry.o(.ARM.Collect$$$$00000000) for __main
    main.o(i.SystemClock_Config) refers to memseta.o(.text) for __aeabi_memclr4
    main.o(i.SystemClock_Config) refers to stm32h7xx_hal_pwr_ex.o(i.HAL_PWREx_ConfigSupply) for HAL_PWREx_ConfigSupply
    main.o(i.SystemClock_Config) refers to stm32h7xx_hal_pwr.o(i.HAL_PWR_EnableBkUpAccess) for HAL_PWR_EnableBkUpAccess
==============================================================================

Removing Unused input sections from the image.

    Removing startup_stm32h750xx.o(HEAP), (512 bytes).
    Removing main.o(.rev16_text), (4 bytes).
    Removing main.o(.revsh_text), (4 bytes).
    Removing main.o(.rrx_text), (6 bytes).
    Removing gpio.o(.rev16_text), (4 bytes).
    Removing gpio.o(.revsh_text), (4 bytes).
    Removing gpio.o(.rrx_text), (6 bytes).
    Removing dcmi.o(.rev16_text), (4 bytes).
    Removing dcmi.o(.revsh_text), (4 bytes).
    Removing dcmi.o(.rrx_text), (6 bytes).
    Removing dcmi.o(i.HAL_DCMI_MspDeInit), (96 bytes).
    Removing dcmi.o(i.HAL_DCMI_MspInit), (236 bytes).
    Removing dcmi.o(i.MX_DCMI_Init), (60 bytes).
    Removing dcmi.o(.bss), (80 bytes).
    Removing quadspi.o(.rev16_text), (4 bytes).
    Removing quadspi.o(.revsh_text), (4 bytes).
    Removing quadspi.o(.rrx_text), (6 bytes).
    Removing quadspi.o(i.HAL_QSPI_MspDeInit), (72 bytes).
==============================================================================

Image Symbol Table

    Local Symbols

    Symbol Name                              Value     Ov Type        Size  Object(Section)

    ../Core/Src/dcmi.c                       0x00000000   Number         0  dcmi.o ABSOLUTE
    ../Core/Src/gpio.c                       0x00000000   Number         0  gpio.o ABSOLUTE
    ../Core/Src/main.c                       0x00000000   Number         0  main.o ABSOLUTE
    ../Core/Src/quadspi.c                    0x00000000   Number         0  quadspi.o ABSOLUTE
    ../Core/Src/rtc.c                        0x00000000   Number         0  rtc.o ABSOLUTE
    ../Core/Src/sdmmc.c                      0x00000000   Number         0  sdmmc.o ABSOLUTE
    ../Core/Src/spi.c                        0x00000000   Number         0  spi.o ABSOLUTE
    ../Core/Src/stm32h7xx_hal_msp.c          0x00000000   Number         0  stm32h7xx_hal_msp.o ABSOLUTE
    ../Core/Src/stm32h7xx_it.c               0x00000000   Number         0  stm32h7xx_it.o ABSOLUTE
    ../Core/Src/system_stm32h7xx.c           0x00000000   Number         0  system_stm32h7xx.o ABSOLUTE
    ../Core/Src/usart.c                      0x00000000   Number         0  usart.o ABSOLUTE
    ../Drivers/STM32H7xx_HAL_Driver/Src/stm32h7xx_hal.c 0x00000000   Number         0  stm32h7xx_hal.o ABSOLUTE
    ../Drivers/STM32H7xx_HAL_Driver/Src/stm32h7xx_hal_cortex.c 0x00000000   Number         0  stm32h7xx_hal_cortex.o ABSOLUTE
    ../Drivers/STM32H7xx_HAL_Driver/Src/stm32h7xx_hal_dcmi.c 0x00000000   Number         0  stm32h7xx_hal_dcmi.o ABSOLUTE
    ../Drivers/STM32H7xx_HAL_Driver/Src/stm32h7xx_hal_dma.c 0x00000000   Number         0  stm32h7xx_hal_dma.o ABSOLUTE
    ../Drivers/STM32H7xx_HAL_Driver/Src/stm32h7xx_hal_dma_ex.c 0x00000000   Number         0  stm32h7xx_hal_dma_ex.o ABSOLUTE
    ../Drivers/STM32H7xx_HAL_Driver/Src/stm32h7xx_hal_exti.c 0x00000000   Number         0  stm32h7xx_hal_exti.o ABSOLUTE
    ../Drivers/STM32H7xx_HAL_Driver/Src/stm32h7xx_hal_flash.c 0x00000000   Number         0  stm32h7xx_hal_flash.o ABSOLUTE
    ../Drivers/STM32H7xx_HAL_Driver/Src/stm32h7xx_hal_flash_ex.c 0x00000000   Number         0  stm32h7xx_hal_flash_ex.o ABSOLUTE
    ../Drivers/STM32H7xx_HAL_Driver/Src/stm32h7xx_hal_gpio.c 0x00000000   Number         0  stm32h7xx_hal_gpio.o ABSOLUTE
    ../Drivers/STM32H7xx_HAL_Driver/Src/stm32h7xx_hal_hsem.c 0x00000000   Number         0  stm32h7xx_hal_hsem.o ABSOLUTE
    ../Drivers/STM32H7xx_HAL_Driver/Src/stm32h7xx_hal_i2c.c 0x00000000   Number         0  stm32h7xx_hal_i2c.o ABSOLUTE
    ../Drivers/STM32H7xx_HAL_Driver/Src/stm32h7xx_hal_i2c_ex.c 0x00000000   Number         0  stm32h7xx_hal_i2c_ex.o ABSOLUTE
    ../Drivers/STM32H7xx_HAL_Driver/Src/stm32h7xx_hal_mdma.c 0x00000000   Number         0  stm32h7xx_hal_mdma.o ABSOLUTE
    ../Drivers/STM32H7xx_HAL_Driver/Src/stm32h7xx_hal_pcd.c 0x00000000   Number         0  stm32h7xx_hal_pcd.o ABSOLUTE
    ../Drivers/STM32H7xx_HAL_Driver/Src/stm32h7xx_hal_pcd_ex.c 0x00000000   Number         0  stm32h7xx_hal_pcd_ex.o ABSOLUTE
    ../Drivers/STM32H7xx_HAL_Driver/Src/stm32h7xx_hal_pwr.c 0x00000000   Number         0  stm32h7xx_hal_pwr.o ABSOLUTE
    ../Drivers/STM32H7xx_HAL_Driver/Src/stm32h7xx_hal_pwr_ex.c 0x00000000   Number         0  stm32h7xx_hal_pwr_ex.o ABSOLUTE
    ../Drivers/STM32H7xx_HAL_Driver/Src/stm32h7xx_hal_qspi.c 0x00000000   Number         0  stm32h7xx_hal_qspi.o ABSOLUTE
    ../Drivers/STM32H7xx_HAL_Driver/Src/stm32h7xx_hal_rcc.c 0x00000000   Number         0  stm32h7xx_hal_rcc.o ABSOLUTE
    ../Drivers/STM32H7xx_HAL_Driver/Src/stm32h7xx_hal_rcc_ex.c 0x00000000   Number         0  stm32h7xx_hal_rcc_ex.o ABSOLUTE
    ../Drivers/STM32H7xx_HAL_Driver/Src/stm32h7xx_hal_rtc.c 0x00000000   Number         0  stm32h7xx_hal_rtc.o ABSOLUTE
    ../Drivers/STM32H7xx_HAL_Driver/Src/stm32h7xx_hal_rtc_ex.c 0x00000000   Number         0  stm32h7xx_hal_rtc_ex.o ABSOLUTE
    ../Drivers/STM32H7xx_HAL_Driver/Src/stm32h7xx_hal_sd.c 0x00000000   Number         0  stm32h7xx_hal_sd.o ABSOLUTE
    ../Drivers/STM32H7xx_HAL_Driver/Src/stm32h7xx_hal_sd_ex.c 0x00000000   Number         0  stm32h7xx_hal_sd_ex.o ABSOLUTE
    ../Drivers/STM32H7xx_HAL_Driver/Src/stm32h7xx_hal_spi.c 0x00000000   Number         0  stm32h7xx_hal_spi.o ABSOLUTE
    ../Drivers/STM32H7xx_HAL_Driver/Src/stm32h7xx_hal_spi_ex.c 0x00000000   Number         0  stm32h7xx_hal_spi_ex.o ABSOLUTE
    ../Drivers/STM32H7xx_HAL_Driver/Src/stm32h7xx_hal_tim.c 0x00000000   Number         0  stm32h7xx_hal_tim.o ABSOLUTE
    ../Drivers/STM32H7xx_HAL_Driver/Src/stm32h7xx_hal_tim_ex.c 0x00000000   Number         0  stm32h7xx_hal_tim_ex.o ABSOLUTE
    ../Drivers/STM32H7xx_HAL_Driver/Src/stm32h7xx_hal_uart.c 0x00000000   Number         0  stm32h7xx_hal_uart.o ABSOLUTE
    ../Drivers/STM32H7xx_HAL_Driver/Src/stm32h7xx_hal_uart_ex.c 0x00000000   Number         0  stm32h7xx_hal_uart_ex.o ABSOLUTE
    ../Drivers/STM32H7xx_HAL_Driver/Src/stm32h7xx_ll_delayblock.c 0x00000000   Number         0  stm32h7xx_ll_delayblock.o ABSOLUTE
    ../Drivers/STM32H7xx_HAL_Driver/Src/stm32h7xx_ll_sdmmc.c 0x00000000   Number         0  stm32h7xx_ll_sdmmc.o ABSOLUTE
    ../Drivers/STM32H7xx_HAL_Driver/Src/stm32h7xx_ll_usb.c 0x00000000   Number         0  stm32h7xx_ll_usb.o ABSOLUTE
    ../Middlewares/ST/STM32_USB_Device_Library/Class/CDC/Src/usbd_cdc.c 0x00000000   Number         0  usbd_cdc.o ABSOLUTE
    ../Middlewares/ST/STM32_USB_Device_Library/Core/Src/usbd_core.c 0x00000000   Number         0  usbd_core.o ABSOLUTE
    ../Middlewares/ST/STM32_USB_Device_Library/Core/Src/usbd_ctlreq.c 0x00000000   Number         0  usbd_ctlreq.o ABSOLUTE
    ../Middlewares/ST/STM32_USB_Device_Library/Core/Src/usbd_ioreq.c 0x00000000   Number         0  usbd_ioreq.o ABSOLUTE
    ../USB_DEVICE/App/usb_device.c           0x00000000   Number         0  usb_device.o ABSOLUTE
    ../USB_DEVICE/App/usbd_cdc_if.c          0x00000000   Number         0  usbd_cdc_if.o ABSOLUTE
    ../USB_DEVICE/App/usbd_desc.c            0x00000000   Number         0  usbd_desc.o ABSOLUTE
    ../USB_DEVICE/Target/usbd_conf.c         0x00000000   Number         0  usbd_conf.o ABSOLUTE
    ../clib/../cmprslib/zerorunl2.c          0x00000000   Number         0  __dczerorl2.o ABSOLUTE
    ../clib/microlib/division.c              0x00000000   Number         0  uidiv.o ABSOLUTE
    ../clib/microlib/division.c              0x00000000   Number         0  uldiv.o ABSOLUTE
    ../clib/microlib/errno.c                 0x00000000   Number         0  errno.o ABSOLUTE
    ../clib/microlib/init/entry.s            0x00000000   Number         0  entry10a.o ABSOLUTE
    ../clib/microlib/init/entry.s            0x00000000   Number         0  entry9b.o ABSOLUTE
    ../clib/microlib/init/entry.s            0x00000000   Number         0  entry9a.o ABSOLUTE
    ../clib/microlib/init/entry.s            0x00000000   Number         0  entry8b.o ABSOLUTE
    ../clib/microlib/init/entry.s            0x00000000   Number         0  entry8a.o ABSOLUTE
    ../clib/microlib/init/entry.s            0x00000000   Number         0  entry7b.o ABSOLUTE
    ../clib/microlib/init/entry.s            0x00000000   Number         0  entry2.o ABSOLUTE
    ../clib/microlib/init/entry.s            0x00000000   Number         0  entry7a.o ABSOLUTE
    ../clib/microlib/init/entry.s            0x00000000   Number         0  entry.o ABSOLUTE
    ../clib/microlib/init/entry.s            0x00000000   Number         0  entry5.o ABSOLUTE
    ../clib/microlib/init/entry.s            0x00000000   Number         0  entry11b.o ABSOLUTE
    ../clib/microlib/init/entry.s            0x00000000   Number         0  entry11a.o ABSOLUTE
    ../clib/microlib/init/entry.s            0x00000000   Number         0  entry10b.o ABSOLUTE
    ../clib/microlib/longlong.c              0x00000000   Number         0  llshl.o ABSOLUTE
    ../clib/microlib/longlong.c              0x00000000   Number         0  llushr.o ABSOLUTE
    ../clib/microlib/longlong.c              0x00000000   Number         0  llsshr.o ABSOLUTE
    ../clib/microlib/printf/printf.c         0x00000000   Number         0  printfb.o ABSOLUTE
    ../clib/microlib/printf/printf.c         0x00000000   Number         0  printf0.o ABSOLUTE
    ../clib/microlib/printf/printf.c         0x00000000   Number         0  printf1.o ABSOLUTE
    ../clib/microlib/printf/printf.c         0x00000000   Number         0  printf2.o ABSOLUTE
    ../clib/microlib/printf/printf.c         0x00000000   Number         0  printf7.o ABSOLUTE
    ../clib/microlib/printf/printf.c         0x00000000   Number         0  printf6.o ABSOLUTE
    ../clib/microlib/printf/printf.c         0x00000000   Number         0  printf3.o ABSOLUTE
    ../clib/microlib/printf/printf.c         0x00000000   Number         0  printf4.o ABSOLUTE
    ../clib/microlib/printf/printf.c         0x00000000   Number         0  printf5.o ABSOLUTE
    ../clib/microlib/printf/printf.c         0x00000000   Number         0  printf8.o ABSOLUTE
    ../clib/microlib/printf/printf.c         0x00000000   Number         0  printfa.o ABSOLUTE
    ../clib/microlib/printf/stubs.s          0x00000000   Number         0  stubs.o ABSOLUTE
    ../clib/microlib/stdio/streams.c         0x00000000   Number         0  stdout.o ABSOLUTE
    ../clib/microlib/string/memcpy.c         0x00000000   Number         0  memcpyb.o ABSOLUTE
    ../clib/microlib/string/memcpy.c         0x00000000   Number         0  memcpya.o ABSOLUTE
    ../clib/microlib/string/memset.c         0x00000000   Number         0  memseta.o ABSOLUTE
    ../clib/microlib/stubs.s                 0x00000000   Number         0  iusefp.o ABSOLUTE
    ../fplib/microlib/fpadd.c                0x00000000   Number         0  dadd.o ABSOLUTE
    ../fplib/microlib/fpdiv.c                0x00000000   Number         0  ddiv.o ABSOLUTE
    ../fplib/microlib/fpepilogue.c           0x00000000   Number         0  depilogue.o ABSOLUTE
    ../fplib/microlib/fpfix.c                0x00000000   Number         0  dfixul.o ABSOLUTE
    ../fplib/microlib/fpmul.c                0x00000000   Number         0  dmul.o ABSOLUTE
    ../mathlib/atan.c                        0x00000000   Number         0  atan.o ABSOLUTE
    ../mathlib/atan.c                        0x00000000   Number         0  atan_x.o ABSOLUTE
    ../mathlib/atan2.c                       0x00000000   Number         0  atan2.o ABSOLUTE
    ../mathlib/atan2.c                       0x00000000   Number         0  atan2_x.o ABSOLUTE
    ../mathlib/cos.c                         0x00000000   Number         0  cos_x.o ABSOLUTE
    ../mathlib/cos.c                         0x00000000   Number         0  cos.o ABSOLUTE
    ../mathlib/cos_i.c                       0x00000000   Number         0  cos_i.o ABSOLUTE
    ../mathlib/dunder.c                      0x00000000   Number         0  dunder.o ABSOLUTE
    ../mathlib/fabs.c                        0x00000000   Number         0  fabs.o ABSOLUTE
    ../mathlib/fpclassify.c                  0x00000000   Number         0  fpclassify.o ABSOLUTE
    ../mathlib/poly.c                        0x00000000   Number         0  poly.o ABSOLUTE
    ../mathlib/qnan.c                        0x00000000   Number         0  qnan.o ABSOLUTE
    ../mathlib/rred.c                        0x00000000   Number         0  rred.o ABSOLUTE
    ../mathlib/sin.c                         0x00000000   Number         0  sin.o ABSOLUTE
    ../mathlib/sin.c                         0x00000000   Number         0  sin_x.o ABSOLUTE
    ../mathlib/sin_i.c                       0x00000000   Number         0  sin_i.o ABSOLUTE
    ../mathlib/sin_i.c                       0x00000000   Number         0  sin_i_x.o ABSOLUTE
    ..\Core\Src\dcmi.c                       0x00000000   Number         0  dcmi.o ABSOLUTE
    ..\Core\Src\gpio.c                       0x00000000   Number         0  gpio.o ABSOLUTE
    ..\Core\Src\main.c                       0x00000000   Number         0  main.o ABSOLUTE
    ..\Core\Src\quadspi.c                    0x00000000   Number         0  quadspi.o ABSOLUTE
    ..\Core\Src\rtc.c                        0x00000000   Number         0  rtc.o ABSOLUTE
    ..\Core\Src\sdmmc.c                      0x00000000   Number         0  sdmmc.o ABSOLUTE
    ..\Core\Src\spi.c                        0x00000000   Number         0  spi.o ABSOLUTE
    ..\Core\Src\stm32h7xx_hal_msp.c          0x00000000   Number         0  stm32h7xx_hal_msp.o ABSOLUTE
    ..\Core\Src\stm32h7xx_it.c               0x00000000   Number         0  stm32h7xx_it.o ABSOLUTE
    ..\Core\Src\system_stm32h7xx.c           0x00000000   Number         0  system_stm32h7xx.o ABSOLUTE
    ..\Core\Src\usart.c                      0x00000000   Number         0  usart.o ABSOLUTE
    ..\Drivers\Hare\Src\lcd_fonts.c          0x00000000   Number         0  lcd_fonts.o ABSOLUTE
    ..\Drivers\Hare\Src\lcd_image.c          0x00000000   Number         0  lcd_image.o ABSOLUTE
    ..\Drivers\Hare\Src\lcd_model.c          0x00000000   Number         0  lcd_model.o ABSOLUTE
    ..\Drivers\STM32H7xx_HAL_Driver\Src\stm32h7xx_hal.c 0x00000000   Number         0  stm32h7xx_hal.o ABSOLUTE
    ..\Drivers\STM32H7xx_HAL_Driver\Src\stm32h7xx_hal_cortex.c 0x00000000   Number         0  stm32h7xx_hal_cortex.o ABSOLUTE
    ..\Drivers\STM32H7xx_HAL_Driver\Src\stm32h7xx_hal_dcmi.c 0x00000000   Number         0  stm32h7xx_hal_dcmi.o ABSOLUTE
    ..\Drivers\STM32H7xx_HAL_Driver\Src\stm32h7xx_hal_dma.c 0x00000000   Number         0  stm32h7xx_hal_dma.o ABSOLUTE
    ..\Drivers\STM32H7xx_HAL_Driver\Src\stm32h7xx_hal_dma_ex.c 0x00000000   Number         0  stm32h7xx_hal_dma_ex.o ABSOLUTE
    ..\Drivers\STM32H7xx_HAL_Driver\Src\stm32h7xx_hal_exti.c 0x00000000   Number         0  stm32h7xx_hal_exti.o ABSOLUTE
    ..\Drivers\STM32H7xx_HAL_Driver\Src\stm32h7xx_hal_flash.c 0x00000000   Number         0  stm32h7xx_hal_flash.o ABSOLUTE
    ..\Drivers\STM32H7xx_HAL_Driver\Src\stm32h7xx_hal_flash_ex.c 0x00000000   Number         0  stm32h7xx_hal_flash_ex.o ABSOLUTE
    ..\Drivers\STM32H7xx_HAL_Driver\Src\stm32h7xx_hal_gpio.c 0x00000000   Number         0  stm32h7xx_hal_gpio.o ABSOLUTE
    ..\Drivers\STM32H7xx_HAL_Driver\Src\stm32h7xx_hal_hsem.c 0x00000000   Number         0  stm32h7xx_hal_hsem.o ABSOLUTE
    ..\Drivers\STM32H7xx_HAL_Driver\Src\stm32h7xx_hal_i2c.c 0x00000000   Number         0  stm32h7xx_hal_i2c.o ABSOLUTE
    ..\Drivers\STM32H7xx_HAL_Driver\Src\stm32h7xx_hal_i2c_ex.c 0x00000000   Number         0  stm32h7xx_hal_i2c_ex.o ABSOLUTE
    ..\Drivers\STM32H7xx_HAL_Driver\Src\stm32h7xx_hal_mdma.c 0x00000000   Number         0  stm32h7xx_hal_mdma.o ABSOLUTE
    ..\Drivers\STM32H7xx_HAL_Driver\Src\stm32h7xx_hal_pcd.c 0x00000000   Number         0  stm32h7xx_hal_pcd.o ABSOLUTE
    ..\Drivers\STM32H7xx_HAL_Driver\Src\stm32h7xx_hal_pcd_ex.c 0x00000000   Number         0  stm32h7xx_hal_pcd_ex.o ABSOLUTE
    ..\Drivers\STM32H7xx_HAL_Driver\Src\stm32h7xx_hal_pwr.c 0x00000000   Number         0  stm32h7xx_hal_pwr.o ABSOLUTE
    ..\Drivers\STM32H7xx_HAL_Driver\Src\stm32h7xx_hal_pwr_ex.c 0x00000000   Number         0  stm32h7xx_hal_pwr_ex.o ABSOLUTE
    ..\Drivers\STM32H7xx_HAL_Driver\Src\stm32h7xx_hal_qspi.c 0x00000000   Number         0  stm32h7xx_hal_qspi.o ABSOLUTE
    ..\Drivers\STM32H7xx_HAL_Driver\Src\stm32h7xx_hal_rcc.c 0x00000000   Number         0  stm32h7xx_hal_rcc.o ABSOLUTE
    ..\Drivers\STM32H7xx_HAL_Driver\Src\stm32h7xx_hal_rcc_ex.c 0x00000000   Number         0  stm32h7xx_hal_rcc_ex.o ABSOLUTE
    ..\Drivers\STM32H7xx_HAL_Driver\Src\stm32h7xx_hal_rtc.c 0x00000000   Number         0  stm32h7xx_hal_rtc.o ABSOLUTE
    ..\Drivers\STM32H7xx_HAL_Driver\Src\stm32h7xx_hal_rtc_ex.c 0x00000000   Number         0  stm32h7xx_hal_rtc_ex.o ABSOLUTE
    ..\Drivers\STM32H7xx_HAL_Driver\Src\stm32h7xx_hal_sd.c 0x00000000   Number         0  stm32h7xx_hal_sd.o ABSOLUTE
    ..\Drivers\STM32H7xx_HAL_Driver\Src\stm32h7xx_hal_sd_ex.c 0x00000000   Number         0  stm32h7xx_hal_sd_ex.o ABSOLUTE
    ..\Drivers\STM32H7xx_HAL_Driver\Src\stm32h7xx_hal_spi.c 0x00000000   Number         0  stm32h7xx_hal_spi.o ABSOLUTE
    ..\Drivers\STM32H7xx_HAL_Driver\Src\stm32h7xx_hal_spi_ex.c 0x00000000   Number         0  stm32h7xx_hal_spi_ex.o ABSOLUTE
    ..\Drivers\STM32H7xx_HAL_Driver\Src\stm32h7xx_hal_tim.c 0x00000000   Number         0  stm32h7xx_hal_tim.o ABSOLUTE
    ..\Drivers\STM32H7xx_HAL_Driver\Src\stm32h7xx_hal_tim_ex.c 0x00000000   Number         0  stm32h7xx_hal_tim_ex.o ABSOLUTE
    ..\Drivers\STM32H7xx_HAL_Driver\Src\stm32h7xx_hal_uart.c 0x00000000   Number         0  stm32h7xx_hal_uart.o ABSOLUTE
    ..\Drivers\STM32H7xx_HAL_Driver\Src\stm32h7xx_hal_uart_ex.c 0x00000000   Number         0  stm32h7xx_hal_uart_ex.o ABSOLUTE
    ..\Drivers\STM32H7xx_HAL_Driver\Src\stm32h7xx_ll_delayblock.c 0x00000000   Number         0  stm32h7xx_ll_delayblock.o ABSOLUTE
    ..\Drivers\STM32H7xx_HAL_Driver\Src\stm32h7xx_ll_sdmmc.c 0x00000000   Number         0  stm32h7xx_ll_sdmmc.o ABSOLUTE
    ..\Drivers\STM32H7xx_HAL_Driver\Src\stm32h7xx_ll_usb.c 0x00000000   Number         0  stm32h7xx_ll_usb.o ABSOLUTE
    ..\Middlewares\ST\STM32_USB_Device_Library\Class\CDC\Src\usbd_cdc.c 0x00000000   Number         0  usbd_cdc.o ABSOLUTE
    ..\Middlewares\ST\STM32_USB_Device_Library\Core\Src\usbd_core.c 0x00000000   Number         0  usbd_core.o ABSOLUTE
    ..\Middlewares\ST\STM32_USB_Device_Library\Core\Src\usbd_ctlreq.c 0x00000000   Number         0  usbd_ctlreq.o ABSOLUTE
    ..\Middlewares\ST\STM32_USB_Device_Library\Core\Src\usbd_ioreq.c 0x00000000   Number         0  usbd_ioreq.o ABSOLUTE
    ..\USB_DEVICE\App\usb_device.c           0x00000000   Number         0  usb_device.o ABSOLUTE
    ..\USB_DEVICE\App\usbd_cdc_if.c          0x00000000   Number         0  usbd_cdc_if.o ABSOLUTE
    ..\USB_DEVICE\App\usbd_desc.c            0x00000000   Number         0  usbd_desc.o ABSOLUTE
    ..\USB_DEVICE\Target\usbd_conf.c         0x00000000   Number         0  usbd_conf.o ABSOLUTE
    ..\\Drivers\\Hare\\Src\\lcd_model.c      0x00000000   Number         0  lcd_model.o ABSOLUTE
    cdrcmple.s                               0x00000000   Number         0  cdrcmple.o ABSOLUTE
    dc.s                                     0x00000000   Number         0  dc.o ABSOLUTE
    handlers.s                               0x00000000   Number         0  handlers.o ABSOLUTE
    init.s                                   0x00000000   Number         0  init.o ABSOLUTE
    startup_stm32h750xx.s                    0x00000000   Number         0  startup_stm32h750xx.o ABSOLUTE
    RESET                                    0x08000000   Section      664  startup_stm32h750xx.o(RESET)
    .ARM.Collect$$$$00000000                 0x08000298   Section        0  entry.o(.ARM.Collect$$$$00000000)
    .ARM.Collect$$$$00000001                 0x08000298   Section        4  entry2.o(.ARM.Collect$$$$00000001)
    .ARM.Collect$$$$00000004                 0x0800029c   Section        4  entry5.o(.ARM.Collect$$$$00000004)
    .ARM.Collect$$$$00000008                 0x080002a0   Section        0  entry7b.o(.ARM.Collect$$$$00000008)
    .ARM.Collect$$$$0000000A                 0x080002a0   Section        0  entry8b.o(.ARM.Collect$$$$0000000A)
    .ARM.Collect$$$$0000000B                 0x080002a0   Section        8  entry9a.o(.ARM.Collect$$$$0000000B)
    .ARM.Collect$$$$0000000D                 0x080002a8   Section        0  entry10a.o(.ARM.Collect$$$$0000000D)
    .ARM.Collect$$$$0000000F                 0x080002a8   Section        0  entry11a.o(.ARM.Collect$$$$0000000F)
    .ARM.Collect$$$$00002712                 0x080002a8   Section        4  entry2.o(.ARM.Collect$$$$00002712)
    __lit__00000000                          0x080002a8   Data           4  entry2.o(.ARM.Collect$$$$00002712)
    .text                                    0x080002ac   Section       36  startup_stm32h750xx.o(.text)
    $v0                                      0x080002ac   Number         0  startup_stm32h750xx.o(.text)
    .text                                    0x080002d0   Section        0  uldiv.o(.text)
    .text                                    0x08000332   Section        0  memcpya.o(.text)
    .text                                    0x08000356   Section        0  memseta.o(.text)
    .text                                    0x0800037a   Section        0  llshl.o(.text)
    .text                                    0x08000398   Section        0  llushr.o(.text)
    .text                                    0x080003b8   Section        0  iusefp.o(.text)
    .text                                    0x080003b8   Section       36  init.o(.text)
    .text                                    0x080003dc   Section        0  __dczerorl2.o(.text)
    i.BSP_SD_ReadCpltCallback                0x08000432   Section        0  sdmmc.o(i.BSP_SD_ReadCpltCallback)
    i.BSP_SD_WriteCpltCallback               0x08000434   Section        0  sdmmc.o(i.BSP_SD_WriteCpltCallback)
    i.BusFault_Handler                       0x08000436   Section        0  stm32h7xx_it.o(i.BusFault_Handler)
    i.CDC_Control_FS                         0x08000438   Section        0  usbd_cdc_if.o(i.CDC_Control_FS)
    CDC_Control_FS                           0x08000439   Thumb Code     4  usbd_cdc_if.o(i.CDC_Control_FS)
    i.CDC_DeInit_FS                          0x0800043c   Section        0  usbd_cdc_if.o(i.CDC_DeInit_FS)
    CDC_DeInit_FS                            0x0800043d   Thumb Code     4  usbd_cdc_if.o(i.CDC_DeInit_FS)
    i.CDC_Init_FS                            0x08000440   Section        0  usbd_cdc_if.o(i.CDC_Init_FS)
    CDC_Init_FS                              0x08000441   Thumb Code    24  usbd_cdc_if.o(i.CDC_Init_FS)
    i.CDC_Receive_FS                         0x08000464   Section        0  usbd_cdc_if.o(i.CDC_Receive_FS)
    CDC_Receive_FS                           0x08000465   Thumb Code    20  usbd_cdc_if.o(i.CDC_Receive_FS)
    i.CDC_TransmitCplt_FS                    0x0800047c   Section        0  usbd_cdc_if.o(i.CDC_TransmitCplt_FS)
    CDC_TransmitCplt_FS                      0x0800047d   Thumb Code     4  usbd_cdc_if.o(i.CDC_TransmitCplt_FS)
    i.Clock_Needle                           0x08000480   Section        0  lcd_model.o(i.Clock_Needle)
    i.Clock_Sec                              0x08000540   Section        0  lcd_model.o(i.Clock_Sec)
    i.DebugMon_Handler                       0x080005f0   Section        0  stm32h7xx_it.o(i.DebugMon_Handler)
    i.DrawCircleHelper                       0x080005f4   Section        0  spi.o(i.DrawCircleHelper)
    i.DrawFillCircleHelper                   0x080006c0   Section        0  spi.o(i.DrawFillCircleHelper)
    i.DrawFillEllipse                        0x0800076c   Section        0  spi.o(i.DrawFillEllipse)
    i.DrawFillTriangle                       0x080008ce   Section        0  spi.o(i.DrawFillTriangle)
    i.DrawRoundRect                          0x08000a18   Section        0  spi.o(i.DrawRoundRect)
    i.DrawTriangle                           0x08000aae   Section        0  spi.o(i.DrawTriangle)
    i.DrawfillRoundRect                      0x08000ade   Section        0  spi.o(i.DrawfillRoundRect)
    i.Error_Handler                          0x08000b2e   Section        0  main.o(i.Error_Handler)
    i.GetRotateXY                            0x08000b34   Section        0  spi.o(i.GetRotateXY)
    i.HAL_Delay                              0x08000b64   Section        0  stm32h7xx_hal.o(i.HAL_Delay)
    i.HAL_GPIO_Init                          0x08000b88   Section        0  stm32h7xx_hal_gpio.o(i.HAL_GPIO_Init)
    i.HAL_GPIO_WritePin                      0x08000db4   Section        0  stm32h7xx_hal_gpio.o(i.HAL_GPIO_WritePin)
    i.HAL_GetREVID                           0x08000dc0   Section        0  stm32h7xx_hal.o(i.HAL_GetREVID)
    i.HAL_GetTick                            0x08000dcc   Section        0  stm32h7xx_hal.o(i.HAL_GetTick)
    i.HAL_IncTick                            0x08000dd8   Section        0  stm32h7xx_hal.o(i.HAL_IncTick)
    i.HAL_Init                               0x08000de8   Section        0  stm32h7xx_hal.o(i.HAL_Init)
    i.HAL_InitTick                           0x08000e44   Section        0  stm32h7xx_hal.o(i.HAL_InitTick)
    i.HAL_MspInit                            0x08000e84   Section        0  stm32h7xx_hal_msp.o(i.HAL_MspInit)
    i.HAL_NVIC_EnableIRQ                     0x08000ea0   Section        0  stm32h7xx_hal_cortex.o(i.HAL_NVIC_EnableIRQ)
    i.HAL_NVIC_SetPriority                   0x08000ebc   Section        0  stm32h7xx_hal_cortex.o(i.HAL_NVIC_SetPriority)
    i.HAL_NVIC_SetPriorityGrouping           0x08000efc   Section        0  stm32h7xx_hal_cortex.o(i.HAL_NVIC_SetPriorityGrouping)
    i.HAL_PCDEx_ActivateLPM                  0x08000f20   Section        0  stm32h7xx_hal_pcd_ex.o(i.HAL_PCDEx_ActivateLPM)
    i.HAL_PCDEx_LPM_Callback                 0x08000f48   Section        0  stm32h7xx_hal_pcd_ex.o(i.HAL_PCDEx_LPM_Callback)
    i.HAL_PCDEx_SetRxFiFo                    0x08000f4a   Section        0  stm32h7xx_hal_pcd_ex.o(i.HAL_PCDEx_SetRxFiFo)
    i.HAL_PCDEx_SetTxFiFo                    0x08000f52   Section        0  stm32h7xx_hal_pcd_ex.o(i.HAL_PCDEx_SetTxFiFo)
    i.HAL_PCD_ConnectCallback                0x08000f98   Section        0  usbd_conf.o(i.HAL_PCD_ConnectCallback)
    i.HAL_PCD_DataInStageCallback            0x08000fa0   Section        0  usbd_conf.o(i.HAL_PCD_DataInStageCallback)
    i.HAL_PCD_DataOutStageCallback           0x08000fb2   Section        0  usbd_conf.o(i.HAL_PCD_DataOutStageCallback)
    i.HAL_PCD_DisconnectCallback             0x08000fc6   Section        0  usbd_conf.o(i.HAL_PCD_DisconnectCallback)
    i.HAL_PCD_EP_Abort                       0x08000fce   Section        0  stm32h7xx_hal_pcd.o(i.HAL_PCD_EP_Abort)
    i.HAL_PCD_EP_Close                       0x08000fec   Section        0  stm32h7xx_hal_pcd.o(i.HAL_PCD_EP_Close)
    i.HAL_PCD_EP_ClrStall                    0x08001038   Section        0  stm32h7xx_hal_pcd.o(i.HAL_PCD_EP_ClrStall)
    i.HAL_PCD_EP_GetRxCount                  0x08001094   Section        0  stm32h7xx_hal_pcd.o(i.HAL_PCD_EP_GetRxCount)
    i.HAL_PCD_EP_Open                        0x080010a6   Section        0  stm32h7xx_hal_pcd.o(i.HAL_PCD_EP_Open)
    i.HAL_PCD_EP_Receive                     0x08001106   Section        0  stm32h7xx_hal_pcd.o(i.HAL_PCD_EP_Receive)
    i.HAL_PCD_EP_SetStall                    0x0800113a   Section        0  stm32h7xx_hal_pcd.o(i.HAL_PCD_EP_SetStall)
    i.HAL_PCD_EP_Transmit                    0x080011ae   Section        0  stm32h7xx_hal_pcd.o(i.HAL_PCD_EP_Transmit)
    i.HAL_PCD_IRQHandler                     0x080011e4   Section        0  stm32h7xx_hal_pcd.o(i.HAL_PCD_IRQHandler)
    i.HAL_PCD_ISOINIncompleteCallback        0x08001780   Section        0  usbd_conf.o(i.HAL_PCD_ISOINIncompleteCallback)
    i.HAL_PCD_ISOOUTIncompleteCallback       0x08001788   Section        0  usbd_conf.o(i.HAL_PCD_ISOOUTIncompleteCallback)
    i.HAL_PCD_Init                           0x08001790   Section        0  stm32h7xx_hal_pcd.o(i.HAL_PCD_Init)
    i.HAL_PCD_MspInit                        0x08001884   Section        0  usbd_conf.o(i.HAL_PCD_MspInit)
    i.HAL_PCD_ResetCallback                  0x08001924   Section        0  usbd_conf.o(i.HAL_PCD_ResetCallback)
    i.HAL_PCD_ResumeCallback                 0x08001950   Section        0  usbd_conf.o(i.HAL_PCD_ResumeCallback)
    i.HAL_PCD_SOFCallback                    0x08001958   Section        0  usbd_conf.o(i.HAL_PCD_SOFCallback)
    i.HAL_PCD_SetAddress                     0x08001960   Section        0  stm32h7xx_hal_pcd.o(i.HAL_PCD_SetAddress)
    i.HAL_PCD_SetupStageCallback             0x08001988   Section        0  usbd_conf.o(i.HAL_PCD_SetupStageCallback)
    i.HAL_PCD_Start                          0x08001996   Section        0  stm32h7xx_hal_pcd.o(i.HAL_PCD_Start)
    i.HAL_PCD_SuspendCallback                0x080019d8   Section        0  usbd_conf.o(i.HAL_PCD_SuspendCallback)
    i.HAL_PWREx_ConfigSupply                 0x08001a08   Section        0  stm32h7xx_hal_pwr_ex.o(i.HAL_PWREx_ConfigSupply)
    i.HAL_PWREx_EnableUSBVoltageDetector     0x08001a5c   Section        0  stm32h7xx_hal_pwr_ex.o(i.HAL_PWREx_EnableUSBVoltageDetector)
    i.HAL_PWR_EnableBkUpAccess               0x08001a6c   Section        0  stm32h7xx_hal_pwr.o(i.HAL_PWR_EnableBkUpAccess)
    i.HAL_RCCEx_GetD3PCLK1Freq               0x08001a7c   Section        0  stm32h7xx_hal_rcc_ex.o(i.HAL_RCCEx_GetD3PCLK1Freq)
    i.HAL_RCCEx_GetPLL2ClockFreq             0x08001aa0   Section        0  stm32h7xx_hal_rcc_ex.o(i.HAL_RCCEx_GetPLL2ClockFreq)
    i.HAL_RCCEx_GetPLL3ClockFreq             0x08001be4   Section        0  stm32h7xx_hal_rcc_ex.o(i.HAL_RCCEx_GetPLL3ClockFreq)
    i.HAL_RCCEx_PeriphCLKConfig              0x08001d28   Section        0  stm32h7xx_hal_rcc_ex.o(i.HAL_RCCEx_PeriphCLKConfig)
    i.HAL_RCC_ClockConfig                    0x080026d4   Section        0  stm32h7xx_hal_rcc.o(i.HAL_RCC_ClockConfig)
    i.HAL_RCC_GetHCLKFreq                    0x08002930   Section        0  stm32h7xx_hal_rcc.o(i.HAL_RCC_GetHCLKFreq)
    i.HAL_RCC_GetPCLK1Freq                   0x08002974   Section        0  stm32h7xx_hal_rcc.o(i.HAL_RCC_GetPCLK1Freq)
    i.HAL_RCC_GetPCLK2Freq                   0x08002998   Section        0  stm32h7xx_hal_rcc.o(i.HAL_RCC_GetPCLK2Freq)
    i.HAL_RCC_GetSysClockFreq                0x080029bc   Section        0  stm32h7xx_hal_rcc.o(i.HAL_RCC_GetSysClockFreq)
    i.HAL_RCC_OscConfig                      0x08002af4   Section        0  stm32h7xx_hal_rcc.o(i.HAL_RCC_OscConfig)
    i.HAL_SDEx_Read_DMADoubleBuf0CpltCallback 0x08003076   Section        0  stm32h7xx_hal_sd.o(i.HAL_SDEx_Read_DMADoubleBuf0CpltCallback)
    i.HAL_SDEx_Read_DMADoubleBuf1CpltCallback 0x08003078   Section        0  stm32h7xx_hal_sd.o(i.HAL_SDEx_Read_DMADoubleBuf1CpltCallback)
    i.HAL_SDEx_Write_DMADoubleBuf0CpltCallback 0x0800307a   Section        0  stm32h7xx_hal_sd.o(i.HAL_SDEx_Write_DMADoubleBuf0CpltCallback)
    i.HAL_SDEx_Write_DMADoubleBuf1CpltCallback 0x0800307c   Section        0  stm32h7xx_hal_sd.o(i.HAL_SDEx_Write_DMADoubleBuf1CpltCallback)
    i.HAL_SD_ErrorCallback                   0x0800307e   Section        0  stm32h7xx_hal_sd.o(i.HAL_SD_ErrorCallback)
    i.HAL_SD_IRQHandler                      0x08003080   Section        0  stm32h7xx_hal_sd.o(i.HAL_SD_IRQHandler)
    i.HAL_SD_RxCpltCallback                  0x080032c0   Section        0  sdmmc.o(i.HAL_SD_RxCpltCallback)
    i.HAL_SD_TxCpltCallback                  0x080032d8   Section        0  sdmmc.o(i.HAL_SD_TxCpltCallback)
    i.HAL_SPI_Init                           0x080032f0   Section        0  stm32h7xx_hal_spi.o(i.HAL_SPI_Init)
    i.HAL_SPI_MspInit                        0x0800346c   Section        0  spi.o(i.HAL_SPI_MspInit)
    i.HAL_SPI_Transmit                       0x08003520   Section        0  stm32h7xx_hal_spi.o(i.HAL_SPI_Transmit)
    i.HAL_SYSTICK_Config                     0x08003780   Section        0  stm32h7xx_hal_cortex.o(i.HAL_SYSTICK_Config)
    i.HAL_UARTEx_DisableFifoMode             0x080037a6   Section        0  stm32h7xx_hal_uart_ex.o(i.HAL_UARTEx_DisableFifoMode)
    i.HAL_UARTEx_SetRxFifoThreshold          0x080037e6   Section        0  stm32h7xx_hal_uart_ex.o(i.HAL_UARTEx_SetRxFifoThreshold)
    i.HAL_UARTEx_SetTxFifoThreshold          0x08003832   Section        0  stm32h7xx_hal_uart_ex.o(i.HAL_UARTEx_SetTxFifoThreshold)
    i.HAL_UART_Init                          0x0800387e   Section        0  stm32h7xx_hal_uart.o(i.HAL_UART_Init)
    i.HAL_UART_MspInit                       0x080038e8   Section        0  usart.o(i.HAL_UART_MspInit)
    i.HardFault_Handler                      0x08003974   Section        0  stm32h7xx_it.o(i.HardFault_Handler)
    i.IntToUnicode                           0x08003978   Section        0  usbd_desc.o(i.IntToUnicode)
    IntToUnicode                             0x08003979   Thumb Code    56  usbd_desc.o(i.IntToUnicode)
    i.LCD_Arc                                0x080039b0   Section        0  lcd_model.o(i.LCD_Arc)
    i.LCD_Circle                             0x08003a94   Section        0  lcd_model.o(i.LCD_Circle)
    i.LCD_Clear                              0x08003acc   Section        0  spi.o(i.LCD_Clear)
    i.LCD_Clock                              0x08003b24   Section        0  lcd_model.o(i.LCD_Clock)
    i.LCD_DisplayChar                        0x08003b94   Section        0  spi.o(i.LCD_DisplayChar)
    i.LCD_DisplayChinese                     0x08003c48   Section        0  spi.o(i.LCD_DisplayChinese)
    i.LCD_DisplayString                      0x08003d2c   Section        0  spi.o(i.LCD_DisplayString)
    i.LCD_DisplayText                        0x08003d68   Section        0  spi.o(i.LCD_DisplayText)
    i.LCD_DrawCircle                         0x08003db0   Section        0  spi.o(i.LCD_DrawCircle)
    i.LCD_DrawEllipse                        0x08003e3c   Section        0  spi.o(i.LCD_DrawEllipse)
    i.LCD_DrawImage                          0x08004018   Section        0  spi.o(i.LCD_DrawImage)
    i.LCD_DrawLine                           0x08004138   Section        0  spi.o(i.LCD_DrawLine)
    i.LCD_DrawLine_H                         0x080041ec   Section        0  spi.o(i.LCD_DrawLine_H)
    i.LCD_DrawLine_V                         0x0800422c   Section        0  spi.o(i.LCD_DrawLine_V)
    i.LCD_DrawPoint                          0x0800426c   Section        0  spi.o(i.LCD_DrawPoint)
    i.LCD_DrawRect                           0x08004282   Section        0  spi.o(i.LCD_DrawRect)
    i.LCD_Ellipse                            0x080042bc   Section        0  lcd_model.o(i.LCD_Ellipse)
    i.LCD_FillCircle                         0x08004328   Section        0  spi.o(i.LCD_FillCircle)
    i.LCD_FillRect                           0x080043b8   Section        0  spi.o(i.LCD_FillRect)
    i.LCD_Line                               0x0800440c   Section        0  lcd_model.o(i.LCD_Line)
    i.LCD_Picture                            0x080044a4   Section        0  lcd_model.o(i.LCD_Picture)
    i.LCD_Polygon                            0x080044f0   Section        0  lcd_model.o(i.LCD_Polygon)
    i.LCD_Rectangle                          0x0800462c   Section        0  lcd_model.o(i.LCD_Rectangle)
    i.LCD_RouRectangle                       0x08004804   Section        0  lcd_model.o(i.LCD_RouRectangle)
    i.LCD_SPI_CloseTransfer                  0x08004894   Section        0  spi.o(i.LCD_SPI_CloseTransfer)
    i.LCD_SPI_Transmit                       0x08004950   Section        0  spi.o(i.LCD_SPI_Transmit)
    i.LCD_SPI_WaitOnFlagUntilTimeout         0x08004aa8   Section        0  spi.o(i.LCD_SPI_WaitOnFlagUntilTimeout)
    i.LCD_SetAddress                         0x08004aec   Section        0  spi.o(i.LCD_SetAddress)
    i.LCD_SetAsciiFont                       0x08004b40   Section        0  spi.o(i.LCD_SetAsciiFont)
    i.LCD_SetBackColor                       0x08004b4c   Section        0  spi.o(i.LCD_SetBackColor)
    i.LCD_SetColor                           0x08004b70   Section        0  spi.o(i.LCD_SetColor)
    i.LCD_SetDirection                       0x08004b94   Section        0  spi.o(i.LCD_SetDirection)
    i.LCD_SetTextFont                        0x08004c04   Section        0  spi.o(i.LCD_SetTextFont)
    i.LCD_Test                               0x08004c50   Section        0  lcd_model.o(i.LCD_Test)
    i.LCD_Test_Clear1                        0x08004d30   Section        0  lcd_model.o(i.LCD_Test_Clear1)
    i.LCD_Triangle                           0x08004e20   Section        0  lcd_model.o(i.LCD_Triangle)
    i.LCD_WriteBuff                          0x08004e9c   Section        0  spi.o(i.LCD_WriteBuff)
    i.LCD_WriteCommand                       0x08004edc   Section        0  spi.o(i.LCD_WriteCommand)
    i.LCD_WriteData_16bit                    0x08004f04   Section        0  spi.o(i.LCD_WriteData_16bit)
    i.LCD_WriteData_8bit                     0x08004f34   Section        0  spi.o(i.LCD_WriteData_8bit)
    i.MX_GPIO_Init                           0x08004f58   Section        0  gpio.o(i.MX_GPIO_Init)
    i.MX_SPI4_Init                           0x08004ff8   Section        0  spi.o(i.MX_SPI4_Init)
    i.MX_USART1_UART_Init                    0x08005054   Section        0  usart.o(i.MX_USART1_UART_Init)
    i.MX_USB_DEVICE_Init                     0x080050bc   Section        0  usb_device.o(i.MX_USB_DEVICE_Init)
    i.MemManage_Handler                      0x08005134   Section        0  stm32h7xx_it.o(i.MemManage_Handler)
    i.NMI_Handler                            0x08005136   Section        0  stm32h7xx_it.o(i.NMI_Handler)
    i.OTG_FS_IRQHandler                      0x08005138   Section        0  stm32h7xx_it.o(i.OTG_FS_IRQHandler)
    i.PCD_EP_OutXfrComplete_int              0x08005144   Section        0  stm32h7xx_hal_pcd.o(i.PCD_EP_OutXfrComplete_int)
    PCD_EP_OutXfrComplete_int                0x08005145   Thumb Code   194  stm32h7xx_hal_pcd.o(i.PCD_EP_OutXfrComplete_int)
    i.PCD_WriteEmptyTxFifo                   0x08005210   Section        0  stm32h7xx_hal_pcd.o(i.PCD_WriteEmptyTxFifo)
    PCD_WriteEmptyTxFifo                     0x08005211   Thumb Code   162  stm32h7xx_hal_pcd.o(i.PCD_WriteEmptyTxFifo)
    i.PendSV_Handler                         0x080052b2   Section        0  stm32h7xx_it.o(i.PendSV_Handler)
    i.RCCEx_PLL2_Config                      0x080052b4   Section        0  stm32h7xx_hal_rcc_ex.o(i.RCCEx_PLL2_Config)
    RCCEx_PLL2_Config                        0x080052b5   Thumb Code   284  stm32h7xx_hal_rcc_ex.o(i.RCCEx_PLL2_Config)
    i.RCCEx_PLL3_Config                      0x080053d4   Section        0  stm32h7xx_hal_rcc_ex.o(i.RCCEx_PLL3_Config)
    RCCEx_PLL3_Config                        0x080053d5   Thumb Code   284  stm32h7xx_hal_rcc_ex.o(i.RCCEx_PLL3_Config)
    i.Rotate                                 0x080054f4   Section        0  spi.o(i.Rotate)
    Rotate                                   0x080054f5   Thumb Code   162  spi.o(i.Rotate)
    i.SDMMC1_IRQHandler                      0x08005596   Section        0  stm32h7xx_it.o(i.SDMMC1_IRQHandler)
    i.SDMMC_CmdStopTransfer                  0x0800559c   Section        0  stm32h7xx_ll_sdmmc.o(i.SDMMC_CmdStopTransfer)
    i.SDMMC_GetCmdResp1                      0x080055f0   Section        0  stm32h7xx_ll_sdmmc.o(i.SDMMC_GetCmdResp1)
    i.SDMMC_GetResponse                      0x08005714   Section        0  stm32h7xx_ll_sdmmc.o(i.SDMMC_GetResponse)
    i.SDMMC_ReadFIFO                         0x0800571a   Section        0  stm32h7xx_ll_sdmmc.o(i.SDMMC_ReadFIFO)
    i.SDMMC_SendCommand                      0x08005720   Section        0  stm32h7xx_ll_sdmmc.o(i.SDMMC_SendCommand)
    i.SDMMC_WriteFIFO                        0x08005748   Section        0  stm32h7xx_ll_sdmmc.o(i.SDMMC_WriteFIFO)
    i.SPI_CloseTransfer                      0x08005752   Section        0  stm32h7xx_hal_spi.o(i.SPI_CloseTransfer)
    SPI_CloseTransfer                        0x08005753   Thumb Code   188  stm32h7xx_hal_spi.o(i.SPI_CloseTransfer)
    i.SPI_LCD_Init                           0x08005810   Section        0  spi.o(i.SPI_LCD_Init)
    i.SPI_WaitOnFlagUntilTimeout             0x080059cc   Section        0  stm32h7xx_hal_spi.o(i.SPI_WaitOnFlagUntilTimeout)
    SPI_WaitOnFlagUntilTimeout               0x080059cd   Thumb Code    70  stm32h7xx_hal_spi.o(i.SPI_WaitOnFlagUntilTimeout)
    i.SVC_Handler                            0x08005a12   Section        0  stm32h7xx_it.o(i.SVC_Handler)
    i.SWAPBYTE                               0x08005a14   Section        0  usbd_ctlreq.o(i.SWAPBYTE)
    SWAPBYTE                                 0x08005a15   Thumb Code    10  usbd_ctlreq.o(i.SWAPBYTE)
    i.SetAngle                               0x08005a20   Section        0  spi.o(i.SetAngle)
    i.SetRotateCenter                        0x08005a6c   Section        0  spi.o(i.SetRotateCenter)
    i.SetRotateValue                         0x08005a78   Section        0  spi.o(i.SetRotateValue)
    i.SysTick_Handler                        0x08005a90   Section        0  stm32h7xx_it.o(i.SysTick_Handler)
    i.SystemClock_Config                     0x08005a94   Section        0  main.o(i.SystemClock_Config)
    i.SystemInit                             0x08005bb0   Section        0  system_stm32h7xx.o(i.SystemInit)
    i.UARTEx_SetNbDataToProcess              0x08005c8c   Section        0  stm32h7xx_hal_uart_ex.o(i.UARTEx_SetNbDataToProcess)
    UARTEx_SetNbDataToProcess                0x08005c8d   Thumb Code    62  stm32h7xx_hal_uart_ex.o(i.UARTEx_SetNbDataToProcess)
    i.UART_AdvFeatureConfig                  0x08005cd0   Section        0  stm32h7xx_hal_uart.o(i.UART_AdvFeatureConfig)
    i.UART_CheckIdleState                    0x08005d98   Section        0  stm32h7xx_hal_uart.o(i.UART_CheckIdleState)
    i.UART_EndRxTransfer                     0x08005e44   Section        0  stm32h7xx_hal_uart.o(i.UART_EndRxTransfer)
    UART_EndRxTransfer                       0x08005e45   Thumb Code    78  stm32h7xx_hal_uart.o(i.UART_EndRxTransfer)
    i.UART_SetConfig                         0x08005e98   Section        0  stm32h7xx_hal_uart.o(i.UART_SetConfig)
    i.UART_WaitOnFlagUntilTimeout            0x08006244   Section        0  stm32h7xx_hal_uart.o(i.UART_WaitOnFlagUntilTimeout)
    i.USBD_CDC_DataIn                        0x080062d0   Section        0  usbd_cdc.o(i.USBD_CDC_DataIn)
    USBD_CDC_DataIn                          0x080062d1   Thumb Code   118  usbd_cdc.o(i.USBD_CDC_DataIn)
    i.USBD_CDC_DataOut                       0x08006346   Section        0  usbd_cdc.o(i.USBD_CDC_DataOut)
    USBD_CDC_DataOut                         0x08006347   Thumb Code    60  usbd_cdc.o(i.USBD_CDC_DataOut)
    i.USBD_CDC_DeInit                        0x08006384   Section        0  usbd_cdc.o(i.USBD_CDC_DeInit)
    USBD_CDC_DeInit                          0x08006385   Thumb Code   140  usbd_cdc.o(i.USBD_CDC_DeInit)
    i.USBD_CDC_EP0_RxReady                   0x08006414   Section        0  usbd_cdc.o(i.USBD_CDC_EP0_RxReady)
    USBD_CDC_EP0_RxReady                     0x08006415   Thumb Code    54  usbd_cdc.o(i.USBD_CDC_EP0_RxReady)
    i.USBD_CDC_GetDeviceQualifierDescriptor  0x0800644c   Section        0  usbd_cdc.o(i.USBD_CDC_GetDeviceQualifierDescriptor)
    i.USBD_CDC_GetFSCfgDesc                  0x08006458   Section        0  usbd_cdc.o(i.USBD_CDC_GetFSCfgDesc)
    USBD_CDC_GetFSCfgDesc                    0x08006459   Thumb Code    58  usbd_cdc.o(i.USBD_CDC_GetFSCfgDesc)
    i.USBD_CDC_GetHSCfgDesc                  0x08006498   Section        0  usbd_cdc.o(i.USBD_CDC_GetHSCfgDesc)
    USBD_CDC_GetHSCfgDesc                    0x08006499   Thumb Code    58  usbd_cdc.o(i.USBD_CDC_GetHSCfgDesc)
    i.USBD_CDC_GetOtherSpeedCfgDesc          0x080064d8   Section        0  usbd_cdc.o(i.USBD_CDC_GetOtherSpeedCfgDesc)
    USBD_CDC_GetOtherSpeedCfgDesc            0x080064d9   Thumb Code    58  usbd_cdc.o(i.USBD_CDC_GetOtherSpeedCfgDesc)
    i.USBD_CDC_Init                          0x08006518   Section        0  usbd_cdc.o(i.USBD_CDC_Init)
    USBD_CDC_Init                            0x08006519   Thumb Code   280  usbd_cdc.o(i.USBD_CDC_Init)
    i.USBD_CDC_ReceivePacket                 0x08006634   Section        0  usbd_cdc.o(i.USBD_CDC_ReceivePacket)
    i.USBD_CDC_RegisterInterface             0x0800666c   Section        0  usbd_cdc.o(i.USBD_CDC_RegisterInterface)
    i.USBD_CDC_SetRxBuffer                   0x08006682   Section        0  usbd_cdc.o(i.USBD_CDC_SetRxBuffer)
    i.USBD_CDC_SetTxBuffer                   0x0800669c   Section        0  usbd_cdc.o(i.USBD_CDC_SetTxBuffer)
    i.USBD_CDC_Setup                         0x080066ba   Section        0  usbd_cdc.o(i.USBD_CDC_Setup)
    USBD_CDC_Setup                           0x080066bb   Thumb Code   206  usbd_cdc.o(i.USBD_CDC_Setup)
    i.USBD_ClrClassConfig                    0x08006788   Section        0  usbd_core.o(i.USBD_ClrClassConfig)
    i.USBD_CoreFindEP                        0x0800679c   Section        0  usbd_core.o(i.USBD_CoreFindEP)
    i.USBD_CoreFindIF                        0x080067a0   Section        0  usbd_core.o(i.USBD_CoreFindIF)
    i.USBD_CtlContinueRx                     0x080067a4   Section        0  usbd_ioreq.o(i.USBD_CtlContinueRx)
    i.USBD_CtlContinueSendData               0x080067b4   Section        0  usbd_ioreq.o(i.USBD_CtlContinueSendData)
    i.USBD_CtlError                          0x080067c4   Section        0  usbd_ctlreq.o(i.USBD_CtlError)
    i.USBD_CtlPrepareRx                      0x080067da   Section        0  usbd_ioreq.o(i.USBD_CtlPrepareRx)
    i.USBD_CtlReceiveStatus                  0x080067f8   Section        0  usbd_ioreq.o(i.USBD_CtlReceiveStatus)
    i.USBD_CtlSendData                       0x0800680e   Section        0  usbd_ioreq.o(i.USBD_CtlSendData)
    i.USBD_CtlSendStatus                     0x08006828   Section        0  usbd_ioreq.o(i.USBD_CtlSendStatus)
    i.USBD_FS_ConfigStrDescriptor            0x08006840   Section        0  usbd_desc.o(i.USBD_FS_ConfigStrDescriptor)
    i.USBD_FS_DeviceDescriptor               0x08006860   Section        0  usbd_desc.o(i.USBD_FS_DeviceDescriptor)
    i.USBD_FS_InterfaceStrDescriptor         0x0800686c   Section        0  usbd_desc.o(i.USBD_FS_InterfaceStrDescriptor)
    i.USBD_FS_LangIDStrDescriptor            0x08006890   Section        0  usbd_desc.o(i.USBD_FS_LangIDStrDescriptor)
    i.USBD_FS_ManufacturerStrDescriptor      0x0800689c   Section        0  usbd_desc.o(i.USBD_FS_ManufacturerStrDescriptor)
    i.USBD_FS_ProductStrDescriptor           0x080068c4   Section        0  usbd_desc.o(i.USBD_FS_ProductStrDescriptor)
    i.USBD_FS_SerialStrDescriptor            0x080068f0   Section        0  usbd_desc.o(i.USBD_FS_SerialStrDescriptor)
    i.USBD_GetDescriptor                     0x0800692c   Section        0  usbd_ctlreq.o(i.USBD_GetDescriptor)
    USBD_GetDescriptor                       0x0800692d   Thumb Code   250  usbd_ctlreq.o(i.USBD_GetDescriptor)
    i.USBD_GetEpDesc                         0x08006a26   Section        0  usbd_core.o(i.USBD_GetEpDesc)
    i.USBD_GetNextDesc                       0x08006a60   Section        0  usbd_core.o(i.USBD_GetNextDesc)
    i.USBD_GetString                         0x08006a6e   Section        0  usbd_ctlreq.o(i.USBD_GetString)
    i.USBD_Get_USB_Status                    0x08006ab8   Section        0  usbd_conf.o(i.USBD_Get_USB_Status)
    i.USBD_Init                              0x08006ad0   Section        0  usbd_core.o(i.USBD_Init)
    i.USBD_LL_ClearStallEP                   0x08006af6   Section        0  usbd_conf.o(i.USBD_LL_ClearStallEP)
    i.USBD_LL_CloseEP                        0x08006b08   Section        0  usbd_conf.o(i.USBD_LL_CloseEP)
    i.USBD_LL_DataInStage                    0x08006b1a   Section        0  usbd_core.o(i.USBD_LL_DataInStage)
    i.USBD_LL_DataOutStage                   0x08006bd2   Section        0  usbd_core.o(i.USBD_LL_DataOutStage)
    i.USBD_LL_DevConnected                   0x08006c62   Section        0  usbd_core.o(i.USBD_LL_DevConnected)
    i.USBD_LL_DevDisconnected                0x08006c66   Section        0  usbd_core.o(i.USBD_LL_DevDisconnected)
    i.USBD_LL_GetRxDataSize                  0x08006c86   Section        0  usbd_conf.o(i.USBD_LL_GetRxDataSize)
    i.USBD_LL_Init                           0x08006c90   Section        0  usbd_conf.o(i.USBD_LL_Init)
    i.USBD_LL_IsStallEP                      0x08006cf4   Section        0  usbd_conf.o(i.USBD_LL_IsStallEP)
    i.USBD_LL_IsoINIncomplete                0x08006d14   Section        0  usbd_core.o(i.USBD_LL_IsoINIncomplete)
    i.USBD_LL_IsoOUTIncomplete               0x08006d3c   Section        0  usbd_core.o(i.USBD_LL_IsoOUTIncomplete)
    i.USBD_LL_OpenEP                         0x08006d64   Section        0  usbd_conf.o(i.USBD_LL_OpenEP)
    i.USBD_LL_PrepareReceive                 0x08006d7c   Section        0  usbd_conf.o(i.USBD_LL_PrepareReceive)
    i.USBD_LL_Reset                          0x08006d8e   Section        0  usbd_core.o(i.USBD_LL_Reset)
    i.USBD_LL_Resume                         0x08006dec   Section        0  usbd_core.o(i.USBD_LL_Resume)
    i.USBD_LL_SOF                            0x08006e00   Section        0  usbd_core.o(i.USBD_LL_SOF)
    i.USBD_LL_SetSpeed                       0x08006e1a   Section        0  usbd_core.o(i.USBD_LL_SetSpeed)
    i.USBD_LL_SetUSBAddress                  0x08006e20   Section        0  usbd_conf.o(i.USBD_LL_SetUSBAddress)
    i.USBD_LL_SetupStage                     0x08006e32   Section        0  usbd_core.o(i.USBD_LL_SetupStage)
    i.USBD_LL_StallEP                        0x08006e92   Section        0  usbd_conf.o(i.USBD_LL_StallEP)
    i.USBD_LL_Start                          0x08006ea4   Section        0  usbd_conf.o(i.USBD_LL_Start)
    i.USBD_LL_Suspend                        0x08006eb6   Section        0  usbd_core.o(i.USBD_LL_Suspend)
    i.USBD_LL_Transmit                       0x08006ed0   Section        0  usbd_conf.o(i.USBD_LL_Transmit)
    i.USBD_ParseSetupRequest                 0x08006ee2   Section        0  usbd_ctlreq.o(i.USBD_ParseSetupRequest)
    i.USBD_RegisterClass                     0x08006f0c   Section        0  usbd_core.o(i.USBD_RegisterClass)
    i.USBD_SetClassConfig                    0x08006f46   Section        0  usbd_core.o(i.USBD_SetClassConfig)
    i.USBD_SetConfig                         0x08006f5c   Section        0  usbd_ctlreq.o(i.USBD_SetConfig)
    USBD_SetConfig                           0x08006f5d   Thumb Code   182  usbd_ctlreq.o(i.USBD_SetConfig)
    i.USBD_Start                             0x08007018   Section        0  usbd_core.o(i.USBD_Start)
    i.USBD_StdDevReq                         0x0800701c   Section        0  usbd_ctlreq.o(i.USBD_StdDevReq)
    i.USBD_StdEPReq                          0x0800714a   Section        0  usbd_ctlreq.o(i.USBD_StdEPReq)
    i.USBD_StdItfReq                         0x080072ae   Section        0  usbd_ctlreq.o(i.USBD_StdItfReq)
    i.USBD_static_free                       0x08007322   Section        0  usbd_conf.o(i.USBD_static_free)
    i.USBD_static_malloc                     0x08007324   Section        0  usbd_conf.o(i.USBD_static_malloc)
    i.USB_ActivateEndpoint                   0x0800732c   Section        0  stm32h7xx_ll_usb.o(i.USB_ActivateEndpoint)
    i.USB_ActivateSetup                      0x080073ac   Section        0  stm32h7xx_ll_usb.o(i.USB_ActivateSetup)
    i.USB_CoreInit                           0x080073c8   Section        0  stm32h7xx_ll_usb.o(i.USB_CoreInit)
    i.USB_CoreReset                          0x08007450   Section        0  stm32h7xx_ll_usb.o(i.USB_CoreReset)
    USB_CoreReset                            0x08007451   Thumb Code    58  stm32h7xx_ll_usb.o(i.USB_CoreReset)
    i.USB_DeactivateEndpoint                 0x08007490   Section        0  stm32h7xx_ll_usb.o(i.USB_DeactivateEndpoint)
    i.USB_DevConnect                         0x0800755c   Section        0  stm32h7xx_ll_usb.o(i.USB_DevConnect)
    i.USB_DevDisconnect                      0x08007578   Section        0  stm32h7xx_ll_usb.o(i.USB_DevDisconnect)
    i.USB_DevInit                            0x08007594   Section        0  stm32h7xx_ll_usb.o(i.USB_DevInit)
    i.USB_DisableGlobalInt                   0x0800770c   Section        0  stm32h7xx_ll_usb.o(i.USB_DisableGlobalInt)
    i.USB_EP0_OutStart                       0x08007718   Section        0  stm32h7xx_ll_usb.o(i.USB_EP0_OutStart)
    i.USB_EPClearStall                       0x08007770   Section        0  stm32h7xx_ll_usb.o(i.USB_EPClearStall)
    i.USB_EPSetStall                         0x080077c8   Section        0  stm32h7xx_ll_usb.o(i.USB_EPSetStall)
    i.USB_EPStartXfer                        0x08007820   Section        0  stm32h7xx_ll_usb.o(i.USB_EPStartXfer)
    i.USB_EPStopXfer                         0x08007a58   Section        0  stm32h7xx_ll_usb.o(i.USB_EPStopXfer)
    i.USB_EnableGlobalInt                    0x08007af6   Section        0  stm32h7xx_ll_usb.o(i.USB_EnableGlobalInt)
    i.USB_FlushRxFifo                        0x08007b04   Section        0  stm32h7xx_ll_usb.o(i.USB_FlushRxFifo)
    i.USB_FlushTxFifo                        0x08007b40   Section        0  stm32h7xx_ll_usb.o(i.USB_FlushTxFifo)
    i.USB_GetDevSpeed                        0x08007b80   Section        0  stm32h7xx_ll_usb.o(i.USB_GetDevSpeed)
    i.USB_GetMode                            0x08007b9a   Section        0  stm32h7xx_ll_usb.o(i.USB_GetMode)
    i.USB_ReadDevAllInEpInterrupt            0x08007ba2   Section        0  stm32h7xx_ll_usb.o(i.USB_ReadDevAllInEpInterrupt)
    i.USB_ReadDevAllOutEpInterrupt           0x08007bb0   Section        0  stm32h7xx_ll_usb.o(i.USB_ReadDevAllOutEpInterrupt)
    i.USB_ReadDevInEPInterrupt               0x08007bbe   Section        0  stm32h7xx_ll_usb.o(i.USB_ReadDevInEPInterrupt)
    i.USB_ReadDevOutEPInterrupt              0x08007be2   Section        0  stm32h7xx_ll_usb.o(i.USB_ReadDevOutEPInterrupt)
    i.USB_ReadInterrupts                     0x08007bf2   Section        0  stm32h7xx_ll_usb.o(i.USB_ReadInterrupts)
    i.USB_ReadPacket                         0x08007bfa   Section        0  stm32h7xx_ll_usb.o(i.USB_ReadPacket)
    i.USB_SetCurrentMode                     0x08007c3a   Section        0  stm32h7xx_ll_usb.o(i.USB_SetCurrentMode)
    i.USB_SetDevAddress                      0x08007c98   Section        0  stm32h7xx_ll_usb.o(i.USB_SetDevAddress)
    i.USB_SetTurnaroundTime                  0x08007cbc   Section        0  stm32h7xx_ll_usb.o(i.USB_SetTurnaroundTime)
    i.USB_WritePacket                        0x08007da4   Section        0  stm32h7xx_ll_usb.o(i.USB_WritePacket)
    i.UsageFault_Handler                     0x08007dcc   Section        0  stm32h7xx_it.o(i.UsageFault_Handler)
    i.__ARM_fpclassify                       0x08007dce   Section        0  fpclassify.o(i.__ARM_fpclassify)
    i.__NVIC_SetPriority                     0x08007dfe   Section        0  stm32h7xx_hal_cortex.o(i.__NVIC_SetPriority)
    __NVIC_SetPriority                       0x08007dff   Thumb Code    34  stm32h7xx_hal_cortex.o(i.__NVIC_SetPriority)
    i.__hardfp_atan                          0x08007e20   Section        0  atan.o(i.__hardfp_atan)
    i.__hardfp_atan2                         0x08008020   Section        0  atan2.o(i.__hardfp_atan2)
    i.__hardfp_cos                           0x080081e0   Section        0  cos.o(i.__hardfp_cos)
    i.__hardfp_sin                           0x08008290   Section        0  sin.o(i.__hardfp_sin)
    i.__ieee754_rem_pio2                     0x08008340   Section        0  rred.o(i.__ieee754_rem_pio2)
    i.__kernel_cos                           0x08008650   Section        0  cos_i.o(i.__kernel_cos)
    i.__kernel_poly                          0x08008730   Section        0  poly.o(i.__kernel_poly)
    i.__kernel_sin                           0x080087a0   Section        0  sin_i.o(i.__kernel_sin)
    i.__mathlib_dbl_infnan                   0x08008848   Section        0  dunder.o(i.__mathlib_dbl_infnan)
    i.__mathlib_dbl_infnan2                  0x0800884e   Section        0  dunder.o(i.__mathlib_dbl_infnan2)
    i.__mathlib_dbl_invalid                  0x08008858   Section        0  dunder.o(i.__mathlib_dbl_invalid)
    i.__mathlib_dbl_underflow                0x08008870   Section        0  dunder.o(i.__mathlib_dbl_underflow)
    i.__scatterload_copy                     0x08008888   Section       14  handlers.o(i.__scatterload_copy)
    i.__scatterload_null                     0x08008896   Section        2  handlers.o(i.__scatterload_null)
    i.__scatterload_zeroinit                 0x08008898   Section       14  handlers.o(i.__scatterload_zeroinit)
    i.__set_errno                            0x080088a8   Section        0  errno.o(i.__set_errno)
    i.atan                                   0x080088b4   Section        0  atan.o(i.atan)
    i.fabs                                   0x080088c4   Section        0  fabs.o(i.fabs)
    i.main                                   0x080088dc   Section        0  main.o(i.main)
    i.mySqrt                                 0x080089d8   Section        0  spi.o(i.mySqrt)
    .constdata                               0x080089fc   Section     4320  lcd_fonts.o(.constdata)
    .constdata                               0x08009adc   Section     1024  lcd_fonts.o(.constdata)
    .constdata                               0x08009edc   Section     6080  lcd_fonts.o(.constdata)
    .constdata                               0x0800b69c   Section     4560  lcd_fonts.o(.constdata)
    .constdata                               0x0800c86c   Section     3800  lcd_fonts.o(.constdata)
    .constdata                               0x0800d744   Section     1520  lcd_fonts.o(.constdata)
    .constdata                               0x0800dd34   Section     1140  lcd_fonts.o(.constdata)
    .constdata                               0x0800e1a8   Section     7170  lcd_image.o(.constdata)
    .constdata                               0x0800fdaa   Section     7170  lcd_image.o(.constdata)
    .constdata                               0x080119ac   Section       24  stm32h7xx_hal_uart.o(.constdata)
    .constdata                               0x080119c4   Section       16  stm32h7xx_hal_uart_ex.o(.constdata)
    numerator                                0x080119c4   Data           8  stm32h7xx_hal_uart_ex.o(.constdata)
    denominator                              0x080119cc   Data           8  stm32h7xx_hal_uart_ex.o(.constdata)
    .constdata                               0x080119d4   Section       16  system_stm32h7xx.o(.constdata)
    .constdata                               0x080119e8   Section      152  atan.o(.constdata)
    atanhi                                   0x080119e8   Data          32  atan.o(.constdata)
    atanlo                                   0x08011a08   Data          32  atan.o(.constdata)
    aTodd                                    0x08011a28   Data          40  atan.o(.constdata)
    aTeven                                   0x08011a50   Data          48  atan.o(.constdata)
    .constdata                               0x08011a80   Section       48  cos_i.o(.constdata)
    C                                        0x08011a80   Data          48  cos_i.o(.constdata)
    .constdata                               0x08011ab0   Section        8  qnan.o(.constdata)
    .constdata                               0x08011ab8   Section      200  rred.o(.constdata)
    pio2s                                    0x08011ab8   Data          48  rred.o(.constdata)
    twooverpi                                0x08011ae8   Data         152  rred.o(.constdata)
    .constdata                               0x08011b80   Section       40  sin_i.o(.constdata)
    S                                        0x08011b80   Data          40  sin_i.o(.constdata)
    .data                                    0x24000000   Section       32  spi.o(.data)
    _pointx                                  0x24000000   Data           4  spi.o(.data)
    _pointy                                  0x24000004   Data           4  spi.o(.data)
    LCD_AsciiFonts                           0x24000008   Data           4  spi.o(.data)
    LCD_CHFonts                              0x2400000c   Data           4  spi.o(.data)
    .data                                    0x24000020   Section       12  lcd_fonts.o(.data)
    .data                                    0x2400002c   Section       12  lcd_fonts.o(.data)
    .data                                    0x24000038   Section       12  lcd_fonts.o(.data)
    .data                                    0x24000044   Section       12  lcd_fonts.o(.data)
    .data                                    0x24000050   Section       12  lcd_fonts.o(.data)
    .data                                    0x2400005c   Section       12  lcd_fonts.o(.data)
    .data                                    0x24000068   Section       12  lcd_fonts.o(.data)
    .data                                    0x24000074   Section       32  usbd_desc.o(.data)
    .data                                    0x24000094   Section       50  usbd_desc.o(.data)
    .data                                    0x240000c8   Section       20  usbd_cdc_if.o(.data)
    .data                                    0x240000dc   Section       12  stm32h7xx_hal.o(.data)
    .data                                    0x240000e8   Section        8  system_stm32h7xx.o(.data)
    .data                                    0x240000f0   Section        1  usbd_ctlreq.o(.data)
    cfgidx                                   0x240000f0   Data           1  usbd_ctlreq.o(.data)
    .data                                    0x240000f4   Section       83  usbd_cdc.o(.data)
    CDCInEpAdd                               0x240000f4   Data           1  usbd_cdc.o(.data)
    CDCOutEpAdd                              0x240000f5   Data           1  usbd_cdc.o(.data)
    CDCCmdEpAdd                              0x240000f6   Data           1  usbd_cdc.o(.data)
    USBD_CDC_DeviceQualifierDesc             0x240000f8   Data          10  usbd_cdc.o(.data)
    USBD_CDC_CfgDesc                         0x24000104   Data          67  usbd_cdc.o(.data)
    .data                                    0x24000148   Section       56  usbd_cdc.o(.data)
    .data                                    0x24000180   Section        4  errno.o(.data)
    _errno                                   0x24000180   Data           4  errno.o(.data)
    .bss                                     0x24000184   Section      124  sdmmc.o(.bss)
    .bss                                     0x24000200   Section     2200  spi.o(.bss)
    .bss                                     0x24000a98   Section      148  usart.o(.bss)
    .bss                                     0x24000b2c   Section      732  usb_device.o(.bss)
    .bss                                     0x24000e08   Section      512  usbd_desc.o(.bss)
    .bss                                     0x24001008   Section     4096  usbd_cdc_if.o(.bss)
    .bss                                     0x24002008   Section     1836  usbd_conf.o(.bss)
    mem                                      0x24002008   Data         544  usbd_conf.o(.bss)
    STACK                                    0x24002738   Section     1024  startup_stm32h750xx.o(STACK)

    Global Symbols

    Symbol Name                              Value     Ov Type        Size  Object(Section)

    BuildAttributes$$THM_ISAv4$E$P$D$K$B$S$7EM$VFPv5_D16$PE$PLD8$A:L22UL41UL21$X:L11$S22US41US21$IEEE1$IW$USESV6$~STKCKD$USESV7$~SHL$OTIME$ROPI$IEEEX$EBA8$MICROLIB$REQ8$PRES8$EABIv2 0x00000000   Number         0  anon$$obj.o ABSOLUTE
    __ARM_use_no_argv                        0x00000000   Number         0  main.o ABSOLUTE
    _printf_a                                0x00000000   Number         0  stubs.o ABSOLUTE
    _printf_c                                0x00000000   Number         0  stubs.o ABSOLUTE
    _printf_charcount                        0x00000000   Number         0  stubs.o ABSOLUTE
    _printf_d                                0x00000000   Number         0  stubs.o ABSOLUTE
    _printf_e                                0x00000000   Number         0  stubs.o ABSOLUTE
    _printf_f                                0x00000000   Number         0  stubs.o ABSOLUTE
    _printf_flags                            0x00000000   Number         0  stubs.o ABSOLUTE
    _printf_fp_dec                           0x00000000   Number         0  stubs.o ABSOLUTE
    _printf_fp_hex                           0x00000000   Number         0  stubs.o ABSOLUTE
    _printf_g                                0x00000000   Number         0  stubs.o ABSOLUTE
    _printf_i                                0x00000000   Number         0  stubs.o ABSOLUTE
    _printf_int_dec                          0x00000000   Number         0  stubs.o ABSOLUTE
    _printf_l                                0x00000000   Number         0  stubs.o ABSOLUTE
    _printf_lc                               0x00000000   Number         0  stubs.o ABSOLUTE
    _printf_ll                               0x00000000   Number         0  stubs.o ABSOLUTE
    _printf_lld                              0x00000000   Number         0  stubs.o ABSOLUTE
    _printf_lli                              0x00000000   Number         0  stubs.o ABSOLUTE
    _printf_llo                              0x00000000   Number         0  stubs.o ABSOLUTE
    _printf_llu                              0x00000000   Number         0  stubs.o ABSOLUTE
    _printf_llx                              0x00000000   Number         0  stubs.o ABSOLUTE
    _printf_longlong_dec                     0x00000000   Number         0  stubs.o ABSOLUTE
    _printf_longlong_hex                     0x00000000   Number         0  stubs.o ABSOLUTE
    _printf_longlong_oct                     0x00000000   Number         0  stubs.o ABSOLUTE
    _printf_ls                               0x00000000   Number         0  stubs.o ABSOLUTE
    _printf_mbtowc                           0x00000000   Number         0  stubs.o ABSOLUTE
    _printf_n                                0x00000000   Number         0  stubs.o ABSOLUTE
    _printf_o                                0x00000000   Number         0  stubs.o ABSOLUTE
    _printf_p                                0x00000000   Number         0  stubs.o ABSOLUTE
    _printf_percent                          0x00000000   Number         0  stubs.o ABSOLUTE
    _printf_pre_padding                      0x00000000   Number         0  stubs.o ABSOLUTE
    _printf_return_value                     0x00000000   Number         0  stubs.o ABSOLUTE
    _printf_s                                0x00000000   Number         0  stubs.o ABSOLUTE
    _printf_sizespec                         0x00000000   Number         0  stubs.o ABSOLUTE
    _printf_str                              0x00000000   Number         0  stubs.o ABSOLUTE
    _printf_truncate_signed                  0x00000000   Number         0  stubs.o ABSOLUTE
    _printf_truncate_unsigned                0x00000000   Number         0  stubs.o ABSOLUTE
    _printf_u                                0x00000000   Number         0  stubs.o ABSOLUTE
    _printf_wc                               0x00000000   Number         0  stubs.o ABSOLUTE
    _printf_wctomb                           0x00000000   Number         0  stubs.o ABSOLUTE
    _printf_widthprec                        0x00000000   Number         0  stubs.o ABSOLUTE
    _printf_x                                0x00000000   Number         0  stubs.o ABSOLUTE
    __cpp_initialize__aeabi_                  - Undefined Weak Reference
    __cxa_finalize                            - Undefined Weak Reference
    _clock_init                               - Undefined Weak Reference
    _microlib_exit                            - Undefined Weak Reference
    __Vectors_Size                           0x00000298   Number         0  startup_stm32h750xx.o ABSOLUTE
    __Vectors                                0x08000000   Data           4  startup_stm32h750xx.o(RESET)
    __Vectors_End                            0x08000298   Data           0  startup_stm32h750xx.o(RESET)
    __main                                   0x08000299   Thumb Code     0  entry.o(.ARM.Collect$$$$00000000)
    _main_stk                                0x08000299   Thumb Code     0  entry2.o(.ARM.Collect$$$$00000001)
    _main_scatterload                        0x0800029d   Thumb Code     0  entry5.o(.ARM.Collect$$$$00000004)
    __main_after_scatterload                 0x080002a1   Thumb Code     0  entry5.o(.ARM.Collect$$$$00000004)
    _main_clock                              0x080002a1   Thumb Code     0  entry7b.o(.ARM.Collect$$$$00000008)
    _main_cpp_init                           0x080002a1   Thumb Code     0  entry8b.o(.ARM.Collect$$$$0000000A)
    _main_init                               0x080002a1   Thumb Code     0  entry9a.o(.ARM.Collect$$$$0000000B)
    __rt_final_cpp                           0x080002a9   Thumb Code     0  entry10a.o(.ARM.Collect$$$$0000000D)
    __rt_final_exit                          0x080002a9   Thumb Code     0  entry11a.o(.ARM.Collect$$$$0000000F)
    Reset_Handler                            0x080002ad   Thumb Code     8  startup_stm32h750xx.o(.text)
    ADC3_IRQHandler                          0x080002c7   Thumb Code     0  startup_stm32h750xx.o(.text)
    ADC_IRQHandler                           0x080002c7   Thumb Code     0  startup_stm32h750xx.o(.text)
    BDMA_Channel0_IRQHandler                 0x080002c7   Thumb Code     0  startup_stm32h750xx.o(.text)
    BDMA_Channel1_IRQHandler                 0x080002c7   Thumb Code     0  startup_stm32h750xx.o(.text)
    BDMA_Channel2_IRQHandler                 0x080002c7   Thumb Code     0  startup_stm32h750xx.o(.text)
    BDMA_Channel3_IRQHandler                 0x080002c7   Thumb Code     0  startup_stm32h750xx.o(.text)
    BDMA_Channel4_IRQHandler                 0x080002c7   Thumb Code     0  startup_stm32h750xx.o(.text)
    BDMA_Channel5_IRQHandler                 0x080002c7   Thumb Code     0  startup_stm32h750xx.o(.text)
    BDMA_Channel6_IRQHandler                 0x080002c7   Thumb Code     0  startup_stm32h750xx.o(.text)
    BDMA_Channel7_IRQHandler                 0x080002c7   Thumb Code     0  startup_stm32h750xx.o(.text)
    CEC_IRQHandler                           0x080002c7   Thumb Code     0  startup_stm32h750xx.o(.text)
    COMP1_IRQHandler                         0x080002c7   Thumb Code     0  startup_stm32h750xx.o(.text)
    CRS_IRQHandler                           0x080002c7   Thumb Code     0  startup_stm32h750xx.o(.text)
    CRYP_IRQHandler                          0x080002c7   Thumb Code     0  startup_stm32h750xx.o(.text)
    DCMI_IRQHandler                          0x080002c7   Thumb Code     0  startup_stm32h750xx.o(.text)
    DFSDM1_FLT0_IRQHandler                   0x080002c7   Thumb Code     0  startup_stm32h750xx.o(.text)
    DFSDM1_FLT1_IRQHandler                   0x080002c7   Thumb Code     0  startup_stm32h750xx.o(.text)
    DFSDM1_FLT2_IRQHandler                   0x080002c7   Thumb Code     0  startup_stm32h750xx.o(.text)
    DFSDM1_FLT3_IRQHandler                   0x080002c7   Thumb Code     0  startup_stm32h750xx.o(.text)
    DMA1_Stream0_IRQHandler                  0x080002c7   Thumb Code     0  startup_stm32h750xx.o(.text)
    DMA1_Stream1_IRQHandler                  0x080002c7   Thumb Code     0  startup_stm32h750xx.o(.text)
    DMA1_Stream2_IRQHandler                  0x080002c7   Thumb Code     0  startup_stm32h750xx.o(.text)
    DMA1_Stream3_IRQHandler                  0x080002c7   Thumb Code     0  startup_stm32h750xx.o(.text)
    DMA1_Stream4_IRQHandler                  0x080002c7   Thumb Code     0  startup_stm32h750xx.o(.text)
    DMA1_Stream5_IRQHandler                  0x080002c7   Thumb Code     0  startup_stm32h750xx.o(.text)
    DMA1_Stream6_IRQHandler                  0x080002c7   Thumb Code     0  startup_stm32h750xx.o(.text)
    DMA1_Stream7_IRQHandler                  0x080002c7   Thumb Code     0  startup_stm32h750xx.o(.text)
    DMA2D_IRQHandler                         0x080002c7   Thumb Code     0  startup_stm32h750xx.o(.text)
    DMA2_Stream0_IRQHandler                  0x080002c7   Thumb Code     0  startup_stm32h750xx.o(.text)
    DMA2_Stream1_IRQHandler                  0x080002c7   Thumb Code     0  startup_stm32h750xx.o(.text)
    DMA2_Stream2_IRQHandler                  0x080002c7   Thumb Code     0  startup_stm32h750xx.o(.text)
    DMA2_Stream3_IRQHandler                  0x080002c7   Thumb Code     0  startup_stm32h750xx.o(.text)
    DMA2_Stream4_IRQHandler                  0x080002c7   Thumb Code     0  startup_stm32h750xx.o(.text)
    DMA2_Stream5_IRQHandler                  0x080002c7   Thumb Code     0  startup_stm32h750xx.o(.text)
    DMA2_Stream6_IRQHandler                  0x080002c7   Thumb Code     0  startup_stm32h750xx.o(.text)
    DMA2_Stream7_IRQHandler                  0x080002c7   Thumb Code     0  startup_stm32h750xx.o(.text)
    DMAMUX1_OVR_IRQHandler                   0x080002c7   Thumb Code     0  startup_stm32h750xx.o(.text)
    DMAMUX2_OVR_IRQHandler                   0x080002c7   Thumb Code     0  startup_stm32h750xx.o(.text)
    ECC_IRQHandler                           0x080002c7   Thumb Code     0  startup_stm32h750xx.o(.text)
    ETH_IRQHandler                           0x080002c7   Thumb Code     0  startup_stm32h750xx.o(.text)
    ETH_WKUP_IRQHandler                      0x080002c7   Thumb Code     0  startup_stm32h750xx.o(.text)
    EXTI0_IRQHandler                         0x080002c7   Thumb Code     0  startup_stm32h750xx.o(.text)
    EXTI15_10_IRQHandler                     0x080002c7   Thumb Code     0  startup_stm32h750xx.o(.text)
    EXTI1_IRQHandler                         0x080002c7   Thumb Code     0  startup_stm32h750xx.o(.text)
    EXTI2_IRQHandler                         0x080002c7   Thumb Code     0  startup_stm32h750xx.o(.text)
    EXTI3_IRQHandler                         0x080002c7   Thumb Code     0  startup_stm32h750xx.o(.text)
    EXTI4_IRQHandler                         0x080002c7   Thumb Code     0  startup_stm32h750xx.o(.text)
    EXTI9_5_IRQHandler                       0x080002c7   Thumb Code     0  startup_stm32h750xx.o(.text)
    FDCAN1_IT0_IRQHandler                    0x080002c7   Thumb Code     0  startup_stm32h750xx.o(.text)
    FDCAN1_IT1_IRQHandler                    0x080002c7   Thumb Code     0  startup_stm32h750xx.o(.text)
    FDCAN2_IT0_IRQHandler                    0x080002c7   Thumb Code     0  startup_stm32h750xx.o(.text)
    FDCAN2_IT1_IRQHandler                    0x080002c7   Thumb Code     0  startup_stm32h750xx.o(.text)
    FDCAN_CAL_IRQHandler                     0x080002c7   Thumb Code     0  startup_stm32h750xx.o(.text)
    FLASH_IRQHandler                         0x080002c7   Thumb Code     0  startup_stm32h750xx.o(.text)
    FMC_IRQHandler                           0x080002c7   Thumb Code     0  startup_stm32h750xx.o(.text)
    FPU_IRQHandler                           0x080002c7   Thumb Code     0  startup_stm32h750xx.o(.text)
    HASH_RNG_IRQHandler                      0x080002c7   Thumb Code     0  startup_stm32h750xx.o(.text)
    HRTIM1_FLT_IRQHandler                    0x080002c7   Thumb Code     0  startup_stm32h750xx.o(.text)
    HRTIM1_Master_IRQHandler                 0x080002c7   Thumb Code     0  startup_stm32h750xx.o(.text)
    HRTIM1_TIMA_IRQHandler                   0x080002c7   Thumb Code     0  startup_stm32h750xx.o(.text)
    HRTIM1_TIMB_IRQHandler                   0x080002c7   Thumb Code     0  startup_stm32h750xx.o(.text)
    HRTIM1_TIMC_IRQHandler                   0x080002c7   Thumb Code     0  startup_stm32h750xx.o(.text)
    HRTIM1_TIMD_IRQHandler                   0x080002c7   Thumb Code     0  startup_stm32h750xx.o(.text)
    HRTIM1_TIME_IRQHandler                   0x080002c7   Thumb Code     0  startup_stm32h750xx.o(.text)
    HSEM1_IRQHandler                         0x080002c7   Thumb Code     0  startup_stm32h750xx.o(.text)
    I2C1_ER_IRQHandler                       0x080002c7   Thumb Code     0  startup_stm32h750xx.o(.text)
    I2C1_EV_IRQHandler                       0x080002c7   Thumb Code     0  startup_stm32h750xx.o(.text)
    I2C2_ER_IRQHandler                       0x080002c7   Thumb Code     0  startup_stm32h750xx.o(.text)
    I2C2_EV_IRQHandler                       0x080002c7   Thumb Code     0  startup_stm32h750xx.o(.text)
    I2C3_ER_IRQHandler                       0x080002c7   Thumb Code     0  startup_stm32h750xx.o(.text)
    I2C3_EV_IRQHandler                       0x080002c7   Thumb Code     0  startup_stm32h750xx.o(.text)
    I2C4_ER_IRQHandler                       0x080002c7   Thumb Code     0  startup_stm32h750xx.o(.text)
    I2C4_EV_IRQHandler                       0x080002c7   Thumb Code     0  startup_stm32h750xx.o(.text)
    JPEG_IRQHandler                          0x080002c7   Thumb Code     0  startup_stm32h750xx.o(.text)
    LPTIM1_IRQHandler                        0x080002c7   Thumb Code     0  startup_stm32h750xx.o(.text)
    LPTIM2_IRQHandler                        0x080002c7   Thumb Code     0  startup_stm32h750xx.o(.text)
    LPTIM3_IRQHandler                        0x080002c7   Thumb Code     0  startup_stm32h750xx.o(.text)
    LPTIM4_IRQHandler                        0x080002c7   Thumb Code     0  startup_stm32h750xx.o(.text)
    LPTIM5_IRQHandler                        0x080002c7   Thumb Code     0  startup_stm32h750xx.o(.text)
    LPUART1_IRQHandler                       0x080002c7   Thumb Code     0  startup_stm32h750xx.o(.text)
    LTDC_ER_IRQHandler                       0x080002c7   Thumb Code     0  startup_stm32h750xx.o(.text)
    LTDC_IRQHandler                          0x080002c7   Thumb Code     0  startup_stm32h750xx.o(.text)
    MDIOS_IRQHandler                         0x080002c7   Thumb Code     0  startup_stm32h750xx.o(.text)
    MDIOS_WKUP_IRQHandler                    0x080002c7   Thumb Code     0  startup_stm32h750xx.o(.text)
    MDMA_IRQHandler                          0x080002c7   Thumb Code     0  startup_stm32h750xx.o(.text)
    OTG_FS_EP1_IN_IRQHandler                 0x080002c7   Thumb Code     0  startup_stm32h750xx.o(.text)
    OTG_FS_EP1_OUT_IRQHandler                0x080002c7   Thumb Code     0  startup_stm32h750xx.o(.text)
    OTG_FS_WKUP_IRQHandler                   0x080002c7   Thumb Code     0  startup_stm32h750xx.o(.text)
    OTG_HS_EP1_IN_IRQHandler                 0x080002c7   Thumb Code     0  startup_stm32h750xx.o(.text)
    OTG_HS_EP1_OUT_IRQHandler                0x080002c7   Thumb Code     0  startup_stm32h750xx.o(.text)
    OTG_HS_IRQHandler                        0x080002c7   Thumb Code     0  startup_stm32h750xx.o(.text)
    OTG_HS_WKUP_IRQHandler                   0x080002c7   Thumb Code     0  startup_stm32h750xx.o(.text)
    PVD_AVD_IRQHandler                       0x080002c7   Thumb Code     0  startup_stm32h750xx.o(.text)
    QUADSPI_IRQHandler                       0x080002c7   Thumb Code     0  startup_stm32h750xx.o(.text)
    RCC_IRQHandler                           0x080002c7   Thumb Code     0  startup_stm32h750xx.o(.text)
    RTC_Alarm_IRQHandler                     0x080002c7   Thumb Code     0  startup_stm32h750xx.o(.text)
    RTC_WKUP_IRQHandler                      0x080002c7   Thumb Code     0  startup_stm32h750xx.o(.text)
    SAI1_IRQHandler                          0x080002c7   Thumb Code     0  startup_stm32h750xx.o(.text)
    SAI2_IRQHandler                          0x080002c7   Thumb Code     0  startup_stm32h750xx.o(.text)
    SAI3_IRQHandler                          0x080002c7   Thumb Code     0  startup_stm32h750xx.o(.text)
    SAI4_IRQHandler                          0x080002c7   Thumb Code     0  startup_stm32h750xx.o(.text)
    SDMMC2_IRQHandler                        0x080002c7   Thumb Code     0  startup_stm32h750xx.o(.text)
    SPDIF_RX_IRQHandler                      0x080002c7   Thumb Code     0  startup_stm32h750xx.o(.text)
    SPI1_IRQHandler                          0x080002c7   Thumb Code     0  startup_stm32h750xx.o(.text)
    SPI2_IRQHandler                          0x080002c7   Thumb Code     0  startup_stm32h750xx.o(.text)
    SPI3_IRQHandler                          0x080002c7   Thumb Code     0  startup_stm32h750xx.o(.text)
    SPI4_IRQHandler                          0x080002c7   Thumb Code     0  startup_stm32h750xx.o(.text)
    SPI5_IRQHandler                          0x080002c7   Thumb Code     0  startup_stm32h750xx.o(.text)
    SPI6_IRQHandler                          0x080002c7   Thumb Code     0  startup_stm32h750xx.o(.text)
    SWPMI1_IRQHandler                        0x080002c7   Thumb Code     0  startup_stm32h750xx.o(.text)
    TAMP_STAMP_IRQHandler                    0x080002c7   Thumb Code     0  startup_stm32h750xx.o(.text)
    TIM15_IRQHandler                         0x080002c7   Thumb Code     0  startup_stm32h750xx.o(.text)
    TIM16_IRQHandler                         0x080002c7   Thumb Code     0  startup_stm32h750xx.o(.text)
    TIM17_IRQHandler                         0x080002c7   Thumb Code     0  startup_stm32h750xx.o(.text)
    TIM1_BRK_IRQHandler                      0x080002c7   Thumb Code     0  startup_stm32h750xx.o(.text)
    TIM1_CC_IRQHandler                       0x080002c7   Thumb Code     0  startup_stm32h750xx.o(.text)
    TIM1_TRG_COM_IRQHandler                  0x080002c7   Thumb Code     0  startup_stm32h750xx.o(.text)
    TIM1_UP_IRQHandler                       0x080002c7   Thumb Code     0  startup_stm32h750xx.o(.text)
    TIM2_IRQHandler                          0x080002c7   Thumb Code     0  startup_stm32h750xx.o(.text)
    TIM3_IRQHandler                          0x080002c7   Thumb Code     0  startup_stm32h750xx.o(.text)
    TIM4_IRQHandler                          0x080002c7   Thumb Code     0  startup_stm32h750xx.o(.text)
    TIM5_IRQHandler                          0x080002c7   Thumb Code     0  startup_stm32h750xx.o(.text)
    TIM6_DAC_IRQHandler                      0x080002c7   Thumb Code     0  startup_stm32h750xx.o(.text)
    TIM7_IRQHandler                          0x080002c7   Thumb Code     0  startup_stm32h750xx.o(.text)
    TIM8_BRK_TIM12_IRQHandler                0x080002c7   Thumb Code     0  startup_stm32h750xx.o(.text)
    TIM8_CC_IRQHandler                       0x080002c7   Thumb Code     0  startup_stm32h750xx.o(.text)
    TIM8_TRG_COM_TIM14_IRQHandler            0x080002c7   Thumb Code     0  startup_stm32h750xx.o(.text)
    TIM8_UP_TIM13_IRQHandler                 0x080002c7   Thumb Code     0  startup_stm32h750xx.o(.text)
    UART4_IRQHandler                         0x080002c7   Thumb Code     0  startup_stm32h750xx.o(.text)
    UART5_IRQHandler                         0x080002c7   Thumb Code     0  startup_stm32h750xx.o(.text)
    UART7_IRQHandler                         0x080002c7   Thumb Code     0  startup_stm32h750xx.o(.text)
    UART8_IRQHandler                         0x080002c7   Thumb Code     0  startup_stm32h750xx.o(.text)
    USART1_IRQHandler                        0x080002c7   Thumb Code     0  startup_stm32h750xx.o(.text)
    USART2_IRQHandler                        0x080002c7   Thumb Code     0  startup_stm32h750xx.o(.text)
    USART3_IRQHandler                        0x080002c7   Thumb Code     0  startup_stm32h750xx.o(.text)
    USART6_IRQHandler                        0x080002c7   Thumb Code     0  startup_stm32h750xx.o(.text)
    WAKEUP_PIN_IRQHandler                    0x080002c7   Thumb Code     0  startup_stm32h750xx.o(.text)
    WWDG_IRQHandler                          0x080002c7   Thumb Code     0  startup_stm32h750xx.o(.text)
    __aeabi_uldivmod                         0x080002d1   Thumb Code    98  uldiv.o(.text)
    __aeabi_memcpy                           0x08000333   Thumb Code    36  memcpya.o(.text)
    __aeabi_memcpy4                          0x08000333   Thumb Code     0  memcpya.o(.text)
    __aeabi_memcpy8                          0x08000333   Thumb Code     0  memcpya.o(.text)
    __aeabi_memset                           0x08000357   Thumb Code    14  memseta.o(.text)
    __aeabi_memset4                          0x08000357   Thumb Code     0  memseta.o(.text)
    __aeabi_memset8                          0x08000357   Thumb Code     0  memseta.o(.text)
    __aeabi_memclr                           0x08000365   Thumb Code     4  memseta.o(.text)
    __aeabi_memclr4                          0x08000365   Thumb Code     0  memseta.o(.text)
    __aeabi_memclr8                          0x08000365   Thumb Code     0  memseta.o(.text)
    _memset$wrapper                          0x08000369   Thumb Code    18  memseta.o(.text)
    __aeabi_llsl                             0x0800037b   Thumb Code    30  llshl.o(.text)
    _ll_shift_l                              0x0800037b   Thumb Code     0  llshl.o(.text)
    __aeabi_llsr                             0x08000399   Thumb Code    32  llushr.o(.text)
    _ll_ushift_r                             0x08000399   Thumb Code     0  llushr.o(.text)
    __I$use$fp                               0x080003b9   Thumb Code     0  iusefp.o(.text)
    __scatterload                            0x080003b9   Thumb Code    28  init.o(.text)
    __scatterload_rt2                        0x080003b9   Thumb Code     0  init.o(.text)
    __decompress                             0x080003dd   Thumb Code     0  __dczerorl2.o(.text)
    __decompress1                            0x080003dd   Thumb Code    86  __dczerorl2.o(.text)
    BSP_SD_ReadCpltCallback                  0x08000433   Thumb Code     2  sdmmc.o(i.BSP_SD_ReadCpltCallback)
    BSP_SD_WriteCpltCallback                 0x08000435   Thumb Code     2  sdmmc.o(i.BSP_SD_WriteCpltCallback)
    BusFault_Handler                         0x08000437   Thumb Code     2  stm32h7xx_it.o(i.BusFault_Handler)
    Clock_Needle                             0x08000481   Thumb Code   182  lcd_model.o(i.Clock_Needle)
    Clock_Sec                                0x08000541   Thumb Code   176  lcd_model.o(i.Clock_Sec)
    DebugMon_Handler                         0x080005f1   Thumb Code     2  stm32h7xx_it.o(i.DebugMon_Handler)
    DrawCircleHelper                         0x080005f5   Thumb Code   200  spi.o(i.DrawCircleHelper)
    DrawFillCircleHelper                     0x080006c1   Thumb Code   172  spi.o(i.DrawFillCircleHelper)
    DrawFillEllipse                          0x0800076d   Thumb Code   354  spi.o(i.DrawFillEllipse)
    DrawFillTriangle                         0x080008cf   Thumb Code   330  spi.o(i.DrawFillTriangle)
    DrawRoundRect                            0x08000a19   Thumb Code   150  spi.o(i.DrawRoundRect)
    DrawTriangle                             0x08000aaf   Thumb Code    48  spi.o(i.DrawTriangle)
    DrawfillRoundRect                        0x08000adf   Thumb Code    80  spi.o(i.DrawfillRoundRect)
    Error_Handler                            0x08000b2f   Thumb Code     4  main.o(i.Error_Handler)
    GetRotateXY                              0x08000b35   Thumb Code    44  spi.o(i.GetRotateXY)
    HAL_Delay                                0x08000b65   Thumb Code    32  stm32h7xx_hal.o(i.HAL_Delay)
    HAL_GPIO_Init                            0x08000b89   Thumb Code   506  stm32h7xx_hal_gpio.o(i.HAL_GPIO_Init)
    HAL_GPIO_WritePin                        0x08000db5   Thumb Code    10  stm32h7xx_hal_gpio.o(i.HAL_GPIO_WritePin)
    HAL_GetREVID                             0x08000dc1   Thumb Code     8  stm32h7xx_hal.o(i.HAL_GetREVID)
    HAL_GetTick                              0x08000dcd   Thumb Code     6  stm32h7xx_hal.o(i.HAL_GetTick)
    HAL_IncTick                              0x08000dd9   Thumb Code    12  stm32h7xx_hal.o(i.HAL_IncTick)
    HAL_Init                                 0x08000de9   Thumb Code    74  stm32h7xx_hal.o(i.HAL_Init)
    HAL_InitTick                             0x08000e45   Thumb Code    56  stm32h7xx_hal.o(i.HAL_InitTick)
    HAL_MspInit                              0x08000e85   Thumb Code    22  stm32h7xx_hal_msp.o(i.HAL_MspInit)
    HAL_NVIC_EnableIRQ                       0x08000ea1   Thumb Code    26  stm32h7xx_hal_cortex.o(i.HAL_NVIC_EnableIRQ)
    HAL_NVIC_SetPriority                     0x08000ebd   Thumb Code    60  stm32h7xx_hal_cortex.o(i.HAL_NVIC_SetPriority)
    HAL_NVIC_SetPriorityGrouping             0x08000efd   Thumb Code    28  stm32h7xx_hal_cortex.o(i.HAL_NVIC_SetPriorityGrouping)
    HAL_PCDEx_ActivateLPM                    0x08000f21   Thumb Code    34  stm32h7xx_hal_pcd_ex.o(i.HAL_PCDEx_ActivateLPM)
    HAL_PCDEx_LPM_Callback                   0x08000f49   Thumb Code     2  stm32h7xx_hal_pcd_ex.o(i.HAL_PCDEx_LPM_Callback)
    HAL_PCDEx_SetRxFiFo                      0x08000f4b   Thumb Code     8  stm32h7xx_hal_pcd_ex.o(i.HAL_PCDEx_SetRxFiFo)
    HAL_PCDEx_SetTxFiFo                      0x08000f53   Thumb Code    70  stm32h7xx_hal_pcd_ex.o(i.HAL_PCDEx_SetTxFiFo)
    HAL_PCD_ConnectCallback                  0x08000f99   Thumb Code     8  usbd_conf.o(i.HAL_PCD_ConnectCallback)
    HAL_PCD_DataInStageCallback              0x08000fa1   Thumb Code    18  usbd_conf.o(i.HAL_PCD_DataInStageCallback)
    HAL_PCD_DataOutStageCallback             0x08000fb3   Thumb Code    20  usbd_conf.o(i.HAL_PCD_DataOutStageCallback)
    HAL_PCD_DisconnectCallback               0x08000fc7   Thumb Code     8  usbd_conf.o(i.HAL_PCD_DisconnectCallback)
    HAL_PCD_EP_Abort                         0x08000fcf   Thumb Code    30  stm32h7xx_hal_pcd.o(i.HAL_PCD_EP_Abort)
    HAL_PCD_EP_Close                         0x08000fed   Thumb Code    76  stm32h7xx_hal_pcd.o(i.HAL_PCD_EP_Close)
    HAL_PCD_EP_ClrStall                      0x08001039   Thumb Code    92  stm32h7xx_hal_pcd.o(i.HAL_PCD_EP_ClrStall)
    HAL_PCD_EP_GetRxCount                    0x08001095   Thumb Code    18  stm32h7xx_hal_pcd.o(i.HAL_PCD_EP_GetRxCount)
    HAL_PCD_EP_Open                          0x080010a7   Thumb Code    96  stm32h7xx_hal_pcd.o(i.HAL_PCD_EP_Open)
    HAL_PCD_EP_Receive                       0x08001107   Thumb Code    52  stm32h7xx_hal_pcd.o(i.HAL_PCD_EP_Receive)
    HAL_PCD_EP_SetStall                      0x0800113b   Thumb Code   116  stm32h7xx_hal_pcd.o(i.HAL_PCD_EP_SetStall)
    HAL_PCD_EP_Transmit                      0x080011af   Thumb Code    52  stm32h7xx_hal_pcd.o(i.HAL_PCD_EP_Transmit)
    HAL_PCD_IRQHandler                       0x080011e5   Thumb Code  1436  stm32h7xx_hal_pcd.o(i.HAL_PCD_IRQHandler)
    HAL_PCD_ISOINIncompleteCallback          0x08001781   Thumb Code     8  usbd_conf.o(i.HAL_PCD_ISOINIncompleteCallback)
    HAL_PCD_ISOOUTIncompleteCallback         0x08001789   Thumb Code     8  usbd_conf.o(i.HAL_PCD_ISOOUTIncompleteCallback)
    HAL_PCD_Init                             0x08001791   Thumb Code   242  stm32h7xx_hal_pcd.o(i.HAL_PCD_Init)
    HAL_PCD_MspInit                          0x08001885   Thumb Code   148  usbd_conf.o(i.HAL_PCD_MspInit)
    HAL_PCD_ResetCallback                    0x08001925   Thumb Code    44  usbd_conf.o(i.HAL_PCD_ResetCallback)
    HAL_PCD_ResumeCallback                   0x08001951   Thumb Code     8  usbd_conf.o(i.HAL_PCD_ResumeCallback)
    HAL_PCD_SOFCallback                      0x08001959   Thumb Code     8  usbd_conf.o(i.HAL_PCD_SOFCallback)
    HAL_PCD_SetAddress                       0x08001961   Thumb Code    40  stm32h7xx_hal_pcd.o(i.HAL_PCD_SetAddress)
    HAL_PCD_SetupStageCallback               0x08001989   Thumb Code    14  usbd_conf.o(i.HAL_PCD_SetupStageCallback)
    HAL_PCD_Start                            0x08001997   Thumb Code    66  stm32h7xx_hal_pcd.o(i.HAL_PCD_Start)
    HAL_PCD_SuspendCallback                  0x080019d9   Thumb Code    44  usbd_conf.o(i.HAL_PCD_SuspendCallback)
    HAL_PWREx_ConfigSupply                   0x08001a09   Thumb Code    78  stm32h7xx_hal_pwr_ex.o(i.HAL_PWREx_ConfigSupply)
    HAL_PWREx_EnableUSBVoltageDetector       0x08001a5d   Thumb Code    12  stm32h7xx_hal_pwr_ex.o(i.HAL_PWREx_EnableUSBVoltageDetector)
    HAL_PWR_EnableBkUpAccess                 0x08001a6d   Thumb Code    12  stm32h7xx_hal_pwr.o(i.HAL_PWR_EnableBkUpAccess)
    HAL_RCCEx_GetD3PCLK1Freq                 0x08001a7d   Thumb Code    26  stm32h7xx_hal_rcc_ex.o(i.HAL_RCCEx_GetD3PCLK1Freq)
    HAL_RCCEx_GetPLL2ClockFreq               0x08001aa1   Thumb Code   296  stm32h7xx_hal_rcc_ex.o(i.HAL_RCCEx_GetPLL2ClockFreq)
    HAL_RCCEx_GetPLL3ClockFreq               0x08001be5   Thumb Code   296  stm32h7xx_hal_rcc_ex.o(i.HAL_RCCEx_GetPLL3ClockFreq)
    HAL_RCCEx_PeriphCLKConfig                0x08001d29   Thumb Code  2472  stm32h7xx_hal_rcc_ex.o(i.HAL_RCCEx_PeriphCLKConfig)
    HAL_RCC_ClockConfig                      0x080026d5   Thumb Code   580  stm32h7xx_hal_rcc.o(i.HAL_RCC_ClockConfig)
    HAL_RCC_GetHCLKFreq                      0x08002931   Thumb Code    52  stm32h7xx_hal_rcc.o(i.HAL_RCC_GetHCLKFreq)
    HAL_RCC_GetPCLK1Freq                     0x08002975   Thumb Code    26  stm32h7xx_hal_rcc.o(i.HAL_RCC_GetPCLK1Freq)
    HAL_RCC_GetPCLK2Freq                     0x08002999   Thumb Code    26  stm32h7xx_hal_rcc.o(i.HAL_RCC_GetPCLK2Freq)
    HAL_RCC_GetSysClockFreq                  0x080029bd   Thumb Code   278  stm32h7xx_hal_rcc.o(i.HAL_RCC_GetSysClockFreq)
    HAL_RCC_OscConfig                        0x08002af5   Thumb Code  1410  stm32h7xx_hal_rcc.o(i.HAL_RCC_OscConfig)
    HAL_SDEx_Read_DMADoubleBuf0CpltCallback  0x08003077   Thumb Code     2  stm32h7xx_hal_sd.o(i.HAL_SDEx_Read_DMADoubleBuf0CpltCallback)
    HAL_SDEx_Read_DMADoubleBuf1CpltCallback  0x08003079   Thumb Code     2  stm32h7xx_hal_sd.o(i.HAL_SDEx_Read_DMADoubleBuf1CpltCallback)
    HAL_SDEx_Write_DMADoubleBuf0CpltCallback 0x0800307b   Thumb Code     2  stm32h7xx_hal_sd.o(i.HAL_SDEx_Write_DMADoubleBuf0CpltCallback)
    HAL_SDEx_Write_DMADoubleBuf1CpltCallback 0x0800307d   Thumb Code     2  stm32h7xx_hal_sd.o(i.HAL_SDEx_Write_DMADoubleBuf1CpltCallback)
    HAL_SD_ErrorCallback                     0x0800307f   Thumb Code     2  stm32h7xx_hal_sd.o(i.HAL_SD_ErrorCallback)
    HAL_SD_IRQHandler                        0x08003081   Thumb Code   570  stm32h7xx_hal_sd.o(i.HAL_SD_IRQHandler)
    HAL_SD_RxCpltCallback                    0x080032c1   Thumb Code    20  sdmmc.o(i.HAL_SD_RxCpltCallback)
    HAL_SD_TxCpltCallback                    0x080032d9   Thumb Code    20  sdmmc.o(i.HAL_SD_TxCpltCallback)
    HAL_SPI_Init                             0x080032f1   Thumb Code   366  stm32h7xx_hal_spi.o(i.HAL_SPI_Init)
    HAL_SPI_MspInit                          0x0800346d   Thumb Code   164  spi.o(i.HAL_SPI_MspInit)
    HAL_SPI_Transmit                         0x08003521   Thumb Code   608  stm32h7xx_hal_spi.o(i.HAL_SPI_Transmit)
    HAL_SYSTICK_Config                       0x08003781   Thumb Code    38  stm32h7xx_hal_cortex.o(i.HAL_SYSTICK_Config)
    HAL_UARTEx_DisableFifoMode               0x080037a7   Thumb Code    64  stm32h7xx_hal_uart_ex.o(i.HAL_UARTEx_DisableFifoMode)
    HAL_UARTEx_SetRxFifoThreshold            0x080037e7   Thumb Code    76  stm32h7xx_hal_uart_ex.o(i.HAL_UARTEx_SetRxFifoThreshold)
    HAL_UARTEx_SetTxFifoThreshold            0x08003833   Thumb Code    76  stm32h7xx_hal_uart_ex.o(i.HAL_UARTEx_SetTxFifoThreshold)
    HAL_UART_Init                            0x0800387f   Thumb Code   106  stm32h7xx_hal_uart.o(i.HAL_UART_Init)
    HAL_UART_MspInit                         0x080038e9   Thumb Code   126  usart.o(i.HAL_UART_MspInit)
    HardFault_Handler                        0x08003975   Thumb Code     2  stm32h7xx_it.o(i.HardFault_Handler)
    LCD_Arc                                  0x080039b1   Thumb Code   222  lcd_model.o(i.LCD_Arc)
    LCD_Circle                               0x08003a95   Thumb Code    50  lcd_model.o(i.LCD_Circle)
    LCD_Clear                                0x08003acd   Thumb Code    78  spi.o(i.LCD_Clear)
    LCD_Clock                                0x08003b25   Thumb Code   108  lcd_model.o(i.LCD_Clock)
    LCD_DisplayChar                          0x08003b95   Thumb Code   166  spi.o(i.LCD_DisplayChar)
    LCD_DisplayChinese                       0x08003c49   Thumb Code   214  spi.o(i.LCD_DisplayChinese)
    LCD_DisplayString                        0x08003d2d   Thumb Code    50  spi.o(i.LCD_DisplayString)
    LCD_DisplayText                          0x08003d69   Thumb Code    68  spi.o(i.LCD_DisplayText)
    LCD_DrawCircle                           0x08003db1   Thumb Code   136  spi.o(i.LCD_DrawCircle)
    LCD_DrawEllipse                          0x08003e3d   Thumb Code   472  spi.o(i.LCD_DrawEllipse)
    LCD_DrawImage                            0x08004019   Thumb Code   278  spi.o(i.LCD_DrawImage)
    LCD_DrawLine                             0x08004139   Thumb Code   176  spi.o(i.LCD_DrawLine)
    LCD_DrawLine_H                           0x080041ed   Thumb Code    56  spi.o(i.LCD_DrawLine_H)
    LCD_DrawLine_V                           0x0800422d   Thumb Code    54  spi.o(i.LCD_DrawLine_V)
    LCD_DrawPoint                            0x0800426d   Thumb Code    22  spi.o(i.LCD_DrawPoint)
    LCD_DrawRect                             0x08004283   Thumb Code    58  spi.o(i.LCD_DrawRect)
    LCD_Ellipse                              0x080042bd   Thumb Code   100  lcd_model.o(i.LCD_Ellipse)
    LCD_FillCircle                           0x08004329   Thumb Code   144  spi.o(i.LCD_FillCircle)
    LCD_FillRect                             0x080043b9   Thumb Code    76  spi.o(i.LCD_FillRect)
    LCD_Line                                 0x0800440d   Thumb Code   140  lcd_model.o(i.LCD_Line)
    LCD_Picture                              0x080044a5   Thumb Code    64  lcd_model.o(i.LCD_Picture)
    LCD_Polygon                              0x080044f1   Thumb Code   302  lcd_model.o(i.LCD_Polygon)
    LCD_Rectangle                            0x0800462d   Thumb Code   468  lcd_model.o(i.LCD_Rectangle)
    LCD_RouRectangle                         0x08004805   Thumb Code   140  lcd_model.o(i.LCD_RouRectangle)
    LCD_SPI_CloseTransfer                    0x08004895   Thumb Code   188  spi.o(i.LCD_SPI_CloseTransfer)
    LCD_SPI_Transmit                         0x08004951   Thumb Code   344  spi.o(i.LCD_SPI_Transmit)
    LCD_SPI_WaitOnFlagUntilTimeout           0x08004aa9   Thumb Code    66  spi.o(i.LCD_SPI_WaitOnFlagUntilTimeout)
    LCD_SetAddress                           0x08004aed   Thumb Code    78  spi.o(i.LCD_SetAddress)
    LCD_SetAsciiFont                         0x08004b41   Thumb Code     6  spi.o(i.LCD_SetAsciiFont)
    LCD_SetBackColor                         0x08004b4d   Thumb Code    30  spi.o(i.LCD_SetBackColor)
    LCD_SetColor                             0x08004b71   Thumb Code    30  spi.o(i.LCD_SetColor)
    LCD_SetDirection                         0x08004b95   Thumb Code   106  spi.o(i.LCD_SetDirection)
    LCD_SetTextFont                          0x08004c05   Thumb Code    50  spi.o(i.LCD_SetTextFont)
    LCD_Test                                 0x08004c51   Thumb Code   166  lcd_model.o(i.LCD_Test)
    LCD_Test_Clear1                          0x08004d31   Thumb Code   160  lcd_model.o(i.LCD_Test_Clear1)
    LCD_Triangle                             0x08004e21   Thumb Code   116  lcd_model.o(i.LCD_Triangle)
    LCD_WriteBuff                            0x08004e9d   Thumb Code    56  spi.o(i.LCD_WriteBuff)
    LCD_WriteCommand                         0x08004edd   Thumb Code    30  spi.o(i.LCD_WriteCommand)
    LCD_WriteData_16bit                      0x08004f05   Thumb Code    40  spi.o(i.LCD_WriteData_16bit)
    LCD_WriteData_8bit                       0x08004f35   Thumb Code    28  spi.o(i.LCD_WriteData_8bit)
    MX_GPIO_Init                             0x08004f59   Thumb Code   150  gpio.o(i.MX_GPIO_Init)
    MX_SPI4_Init                             0x08004ff9   Thumb Code    82  spi.o(i.MX_SPI4_Init)
    MX_USART1_UART_Init                      0x08005055   Thumb Code    94  usart.o(i.MX_USART1_UART_Init)
    MX_USB_DEVICE_Init                       0x080050bd   Thumb Code   104  usb_device.o(i.MX_USB_DEVICE_Init)
    MemManage_Handler                        0x08005135   Thumb Code     2  stm32h7xx_it.o(i.MemManage_Handler)
    NMI_Handler                              0x08005137   Thumb Code     2  stm32h7xx_it.o(i.NMI_Handler)
    OTG_FS_IRQHandler                        0x08005139   Thumb Code     6  stm32h7xx_it.o(i.OTG_FS_IRQHandler)
    PendSV_Handler                           0x080052b3   Thumb Code     2  stm32h7xx_it.o(i.PendSV_Handler)
    SDMMC1_IRQHandler                        0x08005597   Thumb Code     6  stm32h7xx_it.o(i.SDMMC1_IRQHandler)
    SDMMC_CmdStopTransfer                    0x0800559d   Thumb Code    78  stm32h7xx_ll_sdmmc.o(i.SDMMC_CmdStopTransfer)
    SDMMC_GetCmdResp1                        0x080055f1   Thumb Code   280  stm32h7xx_ll_sdmmc.o(i.SDMMC_GetCmdResp1)
    SDMMC_GetResponse                        0x08005715   Thumb Code     6  stm32h7xx_ll_sdmmc.o(i.SDMMC_GetResponse)
    SDMMC_ReadFIFO                           0x0800571b   Thumb Code     6  stm32h7xx_ll_sdmmc.o(i.SDMMC_ReadFIFO)
    SDMMC_SendCommand                        0x08005721   Thumb Code    34  stm32h7xx_ll_sdmmc.o(i.SDMMC_SendCommand)
    SDMMC_WriteFIFO                          0x08005749   Thumb Code    10  stm32h7xx_ll_sdmmc.o(i.SDMMC_WriteFIFO)
    SPI_LCD_Init                             0x08005811   Thumb Code   428  spi.o(i.SPI_LCD_Init)
    SVC_Handler                              0x08005a13   Thumb Code     2  stm32h7xx_it.o(i.SVC_Handler)
    SetAngle                                 0x08005a21   Thumb Code    48  spi.o(i.SetAngle)
    SetRotateCenter                          0x08005a6d   Thumb Code     8  spi.o(i.SetRotateCenter)
    SetRotateValue                           0x08005a79   Thumb Code    20  spi.o(i.SetRotateValue)
    SysTick_Handler                          0x08005a91   Thumb Code     4  stm32h7xx_it.o(i.SysTick_Handler)
    SystemClock_Config                       0x08005a95   Thumb Code   266  main.o(i.SystemClock_Config)
    SystemInit                               0x08005bb1   Thumb Code   180  system_stm32h7xx.o(i.SystemInit)
    UART_AdvFeatureConfig                    0x08005cd1   Thumb Code   200  stm32h7xx_hal_uart.o(i.UART_AdvFeatureConfig)
    UART_CheckIdleState                      0x08005d99   Thumb Code   170  stm32h7xx_hal_uart.o(i.UART_CheckIdleState)
    UART_SetConfig                           0x08005e99   Thumb Code   876  stm32h7xx_hal_uart.o(i.UART_SetConfig)
    UART_WaitOnFlagUntilTimeout              0x08006245   Thumb Code   140  stm32h7xx_hal_uart.o(i.UART_WaitOnFlagUntilTimeout)
    USBD_CDC_GetDeviceQualifierDescriptor    0x0800644d   Thumb Code     8  usbd_cdc.o(i.USBD_CDC_GetDeviceQualifierDescriptor)
    USBD_CDC_ReceivePacket                   0x08006635   Thumb Code    50  usbd_cdc.o(i.USBD_CDC_ReceivePacket)
    USBD_CDC_RegisterInterface               0x0800666d   Thumb Code    22  usbd_cdc.o(i.USBD_CDC_RegisterInterface)
    USBD_CDC_SetRxBuffer                     0x08006683   Thumb Code    26  usbd_cdc.o(i.USBD_CDC_SetRxBuffer)
    USBD_CDC_SetTxBuffer                     0x0800669d   Thumb Code    30  usbd_cdc.o(i.USBD_CDC_SetTxBuffer)
    USBD_ClrClassConfig                      0x08006789   Thumb Code    20  usbd_core.o(i.USBD_ClrClassConfig)
    USBD_CoreFindEP                          0x0800679d   Thumb Code     4  usbd_core.o(i.USBD_CoreFindEP)
    USBD_CoreFindIF                          0x080067a1   Thumb Code     4  usbd_core.o(i.USBD_CoreFindIF)
    USBD_CtlContinueRx                       0x080067a5   Thumb Code    16  usbd_ioreq.o(i.USBD_CtlContinueRx)
    USBD_CtlContinueSendData                 0x080067b5   Thumb Code    16  usbd_ioreq.o(i.USBD_CtlContinueSendData)
    USBD_CtlError                            0x080067c5   Thumb Code    22  usbd_ctlreq.o(i.USBD_CtlError)
    USBD_CtlPrepareRx                        0x080067db   Thumb Code    30  usbd_ioreq.o(i.USBD_CtlPrepareRx)
    USBD_CtlReceiveStatus                    0x080067f9   Thumb Code    22  usbd_ioreq.o(i.USBD_CtlReceiveStatus)
    USBD_CtlSendData                         0x0800680f   Thumb Code    26  usbd_ioreq.o(i.USBD_CtlSendData)
    USBD_CtlSendStatus                       0x08006829   Thumb Code    22  usbd_ioreq.o(i.USBD_CtlSendStatus)
    USBD_FS_ConfigStrDescriptor              0x08006841   Thumb Code    16  usbd_desc.o(i.USBD_FS_ConfigStrDescriptor)
    USBD_FS_DeviceDescriptor                 0x08006861   Thumb Code     8  usbd_desc.o(i.USBD_FS_DeviceDescriptor)
    USBD_FS_InterfaceStrDescriptor           0x0800686d   Thumb Code    16  usbd_desc.o(i.USBD_FS_InterfaceStrDescriptor)
    USBD_FS_LangIDStrDescriptor              0x08006891   Thumb Code     8  usbd_desc.o(i.USBD_FS_LangIDStrDescriptor)
    USBD_FS_ManufacturerStrDescriptor        0x0800689d   Thumb Code    16  usbd_desc.o(i.USBD_FS_ManufacturerStrDescriptor)
    USBD_FS_ProductStrDescriptor             0x080068c5   Thumb Code    16  usbd_desc.o(i.USBD_FS_ProductStrDescriptor)
    USBD_FS_SerialStrDescriptor              0x080068f1   Thumb Code    50  usbd_desc.o(i.USBD_FS_SerialStrDescriptor)
    USBD_GetEpDesc                           0x08006a27   Thumb Code    58  usbd_core.o(i.USBD_GetEpDesc)
    USBD_GetNextDesc                         0x08006a61   Thumb Code    14  usbd_core.o(i.USBD_GetNextDesc)
    USBD_GetString                           0x08006a6f   Thumb Code    74  usbd_ctlreq.o(i.USBD_GetString)
    USBD_Get_USB_Status                      0x08006ab9   Thumb Code    24  usbd_conf.o(i.USBD_Get_USB_Status)
    USBD_Init                                0x08006ad1   Thumb Code    38  usbd_core.o(i.USBD_Init)
    USBD_LL_ClearStallEP                     0x08006af7   Thumb Code    18  usbd_conf.o(i.USBD_LL_ClearStallEP)
    USBD_LL_CloseEP                          0x08006b09   Thumb Code    18  usbd_conf.o(i.USBD_LL_CloseEP)
    USBD_LL_DataInStage                      0x08006b1b   Thumb Code   184  usbd_core.o(i.USBD_LL_DataInStage)
    USBD_LL_DataOutStage                     0x08006bd3   Thumb Code   144  usbd_core.o(i.USBD_LL_DataOutStage)
    USBD_LL_DevConnected                     0x08006c63   Thumb Code     4  usbd_core.o(i.USBD_LL_DevConnected)
    USBD_LL_DevDisconnected                  0x08006c67   Thumb Code    32  usbd_core.o(i.USBD_LL_DevDisconnected)
    USBD_LL_GetRxDataSize                    0x08006c87   Thumb Code     8  usbd_conf.o(i.USBD_LL_GetRxDataSize)
    USBD_LL_Init                             0x08006c91   Thumb Code    90  usbd_conf.o(i.USBD_LL_Init)
    USBD_LL_IsStallEP                        0x08006cf5   Thumb Code    32  usbd_conf.o(i.USBD_LL_IsStallEP)
    USBD_LL_IsoINIncomplete                  0x08006d15   Thumb Code    40  usbd_core.o(i.USBD_LL_IsoINIncomplete)
    USBD_LL_IsoOUTIncomplete                 0x08006d3d   Thumb Code    40  usbd_core.o(i.USBD_LL_IsoOUTIncomplete)
    USBD_LL_OpenEP                           0x08006d65   Thumb Code    24  usbd_conf.o(i.USBD_LL_OpenEP)
    USBD_LL_PrepareReceive                   0x08006d7d   Thumb Code    18  usbd_conf.o(i.USBD_LL_PrepareReceive)
    USBD_LL_Reset                            0x08006d8f   Thumb Code    94  usbd_core.o(i.USBD_LL_Reset)
    USBD_LL_Resume                           0x08006ded   Thumb Code    20  usbd_core.o(i.USBD_LL_Resume)
    USBD_LL_SOF                              0x08006e01   Thumb Code    26  usbd_core.o(i.USBD_LL_SOF)
    USBD_LL_SetSpeed                         0x08006e1b   Thumb Code     6  usbd_core.o(i.USBD_LL_SetSpeed)
    USBD_LL_SetUSBAddress                    0x08006e21   Thumb Code    18  usbd_conf.o(i.USBD_LL_SetUSBAddress)
    USBD_LL_SetupStage                       0x08006e33   Thumb Code    96  usbd_core.o(i.USBD_LL_SetupStage)
    USBD_LL_StallEP                          0x08006e93   Thumb Code    18  usbd_conf.o(i.USBD_LL_StallEP)
    USBD_LL_Start                            0x08006ea5   Thumb Code    18  usbd_conf.o(i.USBD_LL_Start)
    USBD_LL_Suspend                          0x08006eb7   Thumb Code    26  usbd_core.o(i.USBD_LL_Suspend)
    USBD_LL_Transmit                         0x08006ed1   Thumb Code    18  usbd_conf.o(i.USBD_LL_Transmit)
    USBD_ParseSetupRequest                   0x08006ee3   Thumb Code    42  usbd_ctlreq.o(i.USBD_ParseSetupRequest)
    USBD_RegisterClass                       0x08006f0d   Thumb Code    58  usbd_core.o(i.USBD_RegisterClass)
    USBD_SetClassConfig                      0x08006f47   Thumb Code    20  usbd_core.o(i.USBD_SetClassConfig)
    USBD_Start                               0x08007019   Thumb Code     4  usbd_core.o(i.USBD_Start)
    USBD_StdDevReq                           0x0800701d   Thumb Code   302  usbd_ctlreq.o(i.USBD_StdDevReq)
    USBD_StdEPReq                            0x0800714b   Thumb Code   356  usbd_ctlreq.o(i.USBD_StdEPReq)
    USBD_StdItfReq                           0x080072af   Thumb Code   116  usbd_ctlreq.o(i.USBD_StdItfReq)
    USBD_static_free                         0x08007323   Thumb Code     2  usbd_conf.o(i.USBD_static_free)
    USBD_static_malloc                       0x08007325   Thumb Code     4  usbd_conf.o(i.USBD_static_malloc)
    USB_ActivateEndpoint                     0x0800732d   Thumb Code   124  stm32h7xx_ll_usb.o(i.USB_ActivateEndpoint)
    USB_ActivateSetup                        0x080073ad   Thumb Code    28  stm32h7xx_ll_usb.o(i.USB_ActivateSetup)
    USB_CoreInit                             0x080073c9   Thumb Code   128  stm32h7xx_ll_usb.o(i.USB_CoreInit)
    USB_DeactivateEndpoint                   0x08007491   Thumb Code   194  stm32h7xx_ll_usb.o(i.USB_DeactivateEndpoint)
    USB_DevConnect                           0x0800755d   Thumb Code    28  stm32h7xx_ll_usb.o(i.USB_DevConnect)
    USB_DevDisconnect                        0x08007579   Thumb Code    28  stm32h7xx_ll_usb.o(i.USB_DevDisconnect)
    USB_DevInit                              0x08007595   Thumb Code   366  stm32h7xx_ll_usb.o(i.USB_DevInit)
    USB_DisableGlobalInt                     0x0800770d   Thumb Code    12  stm32h7xx_ll_usb.o(i.USB_DisableGlobalInt)
    USB_EP0_OutStart                         0x08007719   Thumb Code    84  stm32h7xx_ll_usb.o(i.USB_EP0_OutStart)
    USB_EPClearStall                         0x08007771   Thumb Code    88  stm32h7xx_ll_usb.o(i.USB_EPClearStall)
    USB_EPSetStall                           0x080077c9   Thumb Code    88  stm32h7xx_ll_usb.o(i.USB_EPSetStall)
    USB_EPStartXfer                          0x08007821   Thumb Code   562  stm32h7xx_ll_usb.o(i.USB_EPStartXfer)
    USB_EPStopXfer                           0x08007a59   Thumb Code   158  stm32h7xx_ll_usb.o(i.USB_EPStopXfer)
    USB_EnableGlobalInt                      0x08007af7   Thumb Code    12  stm32h7xx_ll_usb.o(i.USB_EnableGlobalInt)
    USB_FlushRxFifo                          0x08007b05   Thumb Code    54  stm32h7xx_ll_usb.o(i.USB_FlushRxFifo)
    USB_FlushTxFifo                          0x08007b41   Thumb Code    58  stm32h7xx_ll_usb.o(i.USB_FlushTxFifo)
    USB_GetDevSpeed                          0x08007b81   Thumb Code    26  stm32h7xx_ll_usb.o(i.USB_GetDevSpeed)
    USB_GetMode                              0x08007b9b   Thumb Code     8  stm32h7xx_ll_usb.o(i.USB_GetMode)
    USB_ReadDevAllInEpInterrupt              0x08007ba3   Thumb Code    14  stm32h7xx_ll_usb.o(i.USB_ReadDevAllInEpInterrupt)
    USB_ReadDevAllOutEpInterrupt             0x08007bb1   Thumb Code    14  stm32h7xx_ll_usb.o(i.USB_ReadDevAllOutEpInterrupt)
    USB_ReadDevInEPInterrupt                 0x08007bbf   Thumb Code    36  stm32h7xx_ll_usb.o(i.USB_ReadDevInEPInterrupt)
    USB_ReadDevOutEPInterrupt                0x08007be3   Thumb Code    16  stm32h7xx_ll_usb.o(i.USB_ReadDevOutEPInterrupt)
    USB_ReadInterrupts                       0x08007bf3   Thumb Code     8  stm32h7xx_ll_usb.o(i.USB_ReadInterrupts)
    USB_ReadPacket                           0x08007bfb   Thumb Code    64  stm32h7xx_ll_usb.o(i.USB_ReadPacket)
    USB_SetCurrentMode                       0x08007c3b   Thumb Code    94  stm32h7xx_ll_usb.o(i.USB_SetCurrentMode)
    USB_SetDevAddress                        0x08007c99   Thumb Code    34  stm32h7xx_ll_usb.o(i.USB_SetDevAddress)
    USB_SetTurnaroundTime                    0x08007cbd   Thumb Code   158  stm32h7xx_ll_usb.o(i.USB_SetTurnaroundTime)
    USB_WritePacket                          0x08007da5   Thumb Code    40  stm32h7xx_ll_usb.o(i.USB_WritePacket)
    UsageFault_Handler                       0x08007dcd   Thumb Code     2  stm32h7xx_it.o(i.UsageFault_Handler)
    __ARM_fpclassify                         0x08007dcf   Thumb Code    48  fpclassify.o(i.__ARM_fpclassify)
    __hardfp_atan                            0x08007e21   Thumb Code   402  atan.o(i.__hardfp_atan)
    __hardfp_atan2                           0x08008021   Thumb Code   380  atan2.o(i.__hardfp_atan2)
    __hardfp_cos                             0x080081e1   Thumb Code   158  cos.o(i.__hardfp_cos)
    __hardfp_sin                             0x08008291   Thumb Code   158  sin.o(i.__hardfp_sin)
    __ieee754_rem_pio2                       0x08008341   Thumb Code   646  rred.o(i.__ieee754_rem_pio2)
    __kernel_cos                             0x08008651   Thumb Code   182  cos_i.o(i.__kernel_cos)
    __kernel_poly                            0x08008731   Thumb Code   112  poly.o(i.__kernel_poly)
    __kernel_sin                             0x080087a1   Thumb Code   144  sin_i.o(i.__kernel_sin)
    __mathlib_dbl_infnan                     0x08008849   Thumb Code     6  dunder.o(i.__mathlib_dbl_infnan)
    __mathlib_dbl_infnan2                    0x0800884f   Thumb Code     6  dunder.o(i.__mathlib_dbl_infnan2)
    __mathlib_dbl_invalid                    0x08008859   Thumb Code    10  dunder.o(i.__mathlib_dbl_invalid)
    __mathlib_dbl_underflow                  0x08008871   Thumb Code    10  dunder.o(i.__mathlib_dbl_underflow)
    __scatterload_copy                       0x08008889   Thumb Code    14  handlers.o(i.__scatterload_copy)
    __scatterload_null                       0x08008897   Thumb Code     2  handlers.o(i.__scatterload_null)
    __scatterload_zeroinit                   0x08008899   Thumb Code    14  handlers.o(i.__scatterload_zeroinit)
    __set_errno                              0x080088a9   Thumb Code     6  errno.o(i.__set_errno)
    atan                                     0x080088b5   Thumb Code    16  atan.o(i.atan)
    fabs                                     0x080088c5   Thumb Code    24  fabs.o(i.fabs)
    main                                     0x080088dd   Thumb Code   238  main.o(i.main)
    mySqrt                                   0x080089d9   Thumb Code    32  spi.o(i.mySqrt)
    Chinese_2424                             0x080089fc   Data        4320  lcd_fonts.o(.constdata)
    Chinese_3232                             0x08009adc   Data        1024  lcd_fonts.o(.constdata)
    ASCII_3216_Table                         0x08009edc   Data        6080  lcd_fonts.o(.constdata)
    ASCII_2412_Table                         0x0800b69c   Data        4560  lcd_fonts.o(.constdata)
    ASCII_2010_Table                         0x0800c86c   Data        3800  lcd_fonts.o(.constdata)
    ASCII_1608_Table                         0x0800d744   Data        1520  lcd_fonts.o(.constdata)
    ASCII_1206_Table                         0x0800dd34   Data        1140  lcd_fonts.o(.constdata)
    Image_1_239x239                          0x0800e1a8   Data        7170  lcd_image.o(.constdata)
    Image_2_239x239                          0x0800fdaa   Data        7170  lcd_image.o(.constdata)
    UARTPrescTable                           0x080119ac   Data          24  stm32h7xx_hal_uart.o(.constdata)
    D1CorePrescTable                         0x080119d4   Data          16  system_stm32h7xx.o(.constdata)
    __mathlib_zero                           0x08011ab0   Data           8  qnan.o(.constdata)
    Region$$Table$$Base                      0x08011ba8   Number         0  anon$$obj.o(Region$$Table)
    Region$$Table$$Limit                     0x08011bc8   Number         0  anon$$obj.o(Region$$Table)
    _RoateValue                              0x24000010   Data          16  spi.o(.data)
    CH_Font24                                0x24000020   Data          12  lcd_fonts.o(.data)
    CH_Font32                                0x2400002c   Data          12  lcd_fonts.o(.data)
    ASCII_Font32                             0x24000038   Data          12  lcd_fonts.o(.data)
    ASCII_Font24                             0x24000044   Data          12  lcd_fonts.o(.data)
    ASCII_Font20                             0x24000050   Data          12  lcd_fonts.o(.data)
    ASCII_Font16                             0x2400005c   Data          12  lcd_fonts.o(.data)
    ASCII_Font12                             0x24000068   Data          12  lcd_fonts.o(.data)
    FS_Desc                                  0x24000074   Data          32  usbd_desc.o(.data)
    USBD_LangIDDesc                          0x24000094   Data           4  usbd_desc.o(.data)
    USBD_FS_DeviceDesc                       0x24000098   Data          18  usbd_desc.o(.data)
    USBD_StringSerial                        0x240000ac   Data          26  usbd_desc.o(.data)
    USBD_Interface_fops_FS                   0x240000c8   Data          20  usbd_cdc_if.o(.data)
    uwTickFreq                               0x240000dc   Data           1  stm32h7xx_hal.o(.data)
    uwTickPrio                               0x240000e0   Data           4  stm32h7xx_hal.o(.data)
    uwTick                                   0x240000e4   Data           4  stm32h7xx_hal.o(.data)
    SystemCoreClock                          0x240000e8   Data           4  system_stm32h7xx.o(.data)
    SystemD2Clock                            0x240000ec   Data           4  system_stm32h7xx.o(.data)
    USBD_CDC                                 0x24000148   Data          56  usbd_cdc.o(.data)
    hsd_sdmmc                                0x24000184   Data         124  sdmmc.o(.bss)
    hspi4                                    0x24000200   Data         136  spi.o(.bss)
    LCD_Buff                                 0x24000288   Data        2048  spi.o(.bss)
    LCD                                      0x24000a88   Data          16  spi.o(.bss)
    huart1                                   0x24000a98   Data         148  usart.o(.bss)
    hUsbDeviceFS                             0x24000b2c   Data         732  usb_device.o(.bss)
    USBD_StrDesc                             0x24000e08   Data         512  usbd_desc.o(.bss)
    UserRxBufferFS                           0x24001008   Data        2048  usbd_cdc_if.o(.bss)
    UserTxBufferFS                           0x24001808   Data        2048  usbd_cdc_if.o(.bss)
    hpcd_USB_OTG_FS                          0x24002228   Data        1292  usbd_conf.o(.bss)
    __initial_sp                             0x24002b38   Data           0  startup_stm32h750xx.o(STACK)



==============================================================================

Memory Map of the image

  Image Entry point : 0x08000299

  Load Region LR_IROM1 (Base: 0x08000000, Size: 0x00011d4c, Max: 0x00020000, ABSOLUTE, COMPRESSED[0x00011cd0])

    Execution Region ER_IROM1 (Exec base: 0x08000000, Load base: 0x08000000, Size: 0x00011bc8, Max: 0x00020000, ABSOLUTE)

    Exec Addr    Load Addr    Size         Type   Attr      Idx    E Section Name        Object

    0x08000000   0x08000000   0x00000298   Data   RO            3    RESET               startup_stm32h750xx.o
    0x08000298   0x08000298   0x00000000   Code   RO         7503  * .ARM.Collect$$$$00000000  mc_w.l(entry.o)
    0x08000298   0x08000298   0x00000004   Code   RO         7824    .ARM.Collect$$$$00000001  mc_w.l(entry2.o)
    0x0800029c   0x0800029c   0x00000004   Code   RO         7827    .ARM.Collect$$$$00000004  mc_w.l(entry5.o)
    0x080002a0   0x080002a0   0x00000000   Code   RO         7829    .ARM.Collect$$$$00000008  mc_w.l(entry7b.o)
    0x080002a0   0x080002a0   0x00000000   Code   RO         7831    .ARM.Collect$$$$0000000A  mc_w.l(entry8b.o)
    0x080002a0   0x080002a0   0x00000008   Code   RO         7832    .ARM.Collect$$$$0000000B  mc_w.l(entry9a.o)
    0x080002a8   0x080002a8   0x00000000   Code   RO         7834    .ARM.Collect$$$$0000000D  mc_w.l(entry10a.o)
    0x080002a8   0x080002a8   0x00000000   Code   RO         7836    .ARM.Collect$$$$0000000F  mc_w.l(entry11a.o)
    0x080002a8   0x080002a8   0x00000004   Code   RO         7825    .ARM.Collect$$$$00002712  mc_w.l(entry2.o)
    0x080002ac   0x080002ac   0x00000024   Code   RO            4    .text               startup_stm32h750xx.o
    0x080002d0   0x080002d0   0x00000062   Code   RO         7506    .text               mc_w.l(uldiv.o)
    0x08000332   0x08000332   0x00000024   Code   RO         7508    .text               mc_w.l(memcpya.o)
    0x08000356   0x08000356   0x00000024   Code   RO         7510    .text               mc_w.l(memseta.o)
    0x0800037a   0x0800037a   0x0000001e   Code   RO         7841    .text               mc_w.l(llshl.o)
    0x08000398   0x08000398   0x00000020   Code   RO         7843    .text               mc_w.l(llushr.o)
    0x080003b8   0x080003b8   0x00000000   Code   RO         7852    .text               mc_w.l(iusefp.o)
    0x080003b8   0x080003b8   0x00000024   Code   RO         7867    .text               mc_w.l(init.o)
    0x080003dc   0x080003dc   0x00000056   Code   RO         7881    .text               mc_w.l(__dczerorl2.o)
    0x08000432   0x08000432   0x00000002   Code   RO          543    i.BSP_SD_ReadCpltCallback  sdmmc.o
    0x08000434   0x08000434   0x00000002   Code   RO          547    i.BSP_SD_WriteCpltCallback  sdmmc.o
    0x08000436   0x08000436   0x00000002   Code   RO         1100    i.BusFault_Handler  stm32h7xx_it.o
    0x08000438   0x08000438   0x00000004   Code   RO         1488    i.CDC_Control_FS    usbd_cdc_if.o
    0x0800043c   0x0800043c   0x00000004   Code   RO         1489    i.CDC_DeInit_FS     usbd_cdc_if.o
    0x08000440   0x08000440   0x00000024   Code   RO         1490    i.CDC_Init_FS       usbd_cdc_if.o
    0x08000464   0x08000464   0x00000018   Code   RO         1491    i.CDC_Receive_FS    usbd_cdc_if.o
    0x0800047c   0x0800047c   0x00000004   Code   RO         1492    i.CDC_TransmitCplt_FS  usbd_cdc_if.o
    0x08000480   0x08000480   0x000000c0   Code   RO         1257    i.Clock_Needle      lcd_model.o
    0x08000540   0x08000540   0x000000b0   Code   RO         1258    i.Clock_Sec         lcd_model.o
    0x080005f0   0x080005f0   0x00000002   Code   RO         1101    i.DebugMon_Handler  stm32h7xx_it.o
    0x080005f2   0x080005f2   0x00000002   PAD
    0x080005f4   0x080005f4   0x000000cc   Code   RO          704    i.DrawCircleHelper  spi.o
    0x080006c0   0x080006c0   0x000000ac   Code   RO          705    i.DrawFillCircleHelper  spi.o
    0x0800076c   0x0800076c   0x00000162   Code   RO          706    i.DrawFillEllipse   spi.o
    0x080008ce   0x080008ce   0x0000014a   Code   RO          707    i.DrawFillTriangle  spi.o
    0x08000a18   0x08000a18   0x00000096   Code   RO          708    i.DrawRoundRect     spi.o
    0x08000aae   0x08000aae   0x00000030   Code   RO          709    i.DrawTriangle      spi.o
    0x08000ade   0x08000ade   0x00000050   Code   RO          710    i.DrawfillRoundRect  spi.o
    0x08000b2e   0x08000b2e   0x00000004   Code   RO           13    i.Error_Handler     main.o
    0x08000b32   0x08000b32   0x00000002   PAD
    0x08000b34   0x08000b34   0x00000030   Code   RO          711    i.GetRotateXY       spi.o
    0x08000b64   0x08000b64   0x00000024   Code   RO         3848    i.HAL_Delay         stm32h7xx_hal.o
    0x08000b88   0x08000b88   0x0000022c   Code   RO         2846    i.HAL_GPIO_Init     stm32h7xx_hal_gpio.o
    0x08000db4   0x08000db4   0x0000000a   Code   RO         2850    i.HAL_GPIO_WritePin  stm32h7xx_hal_gpio.o
    0x08000dbe   0x08000dbe   0x00000002   PAD
    0x08000dc0   0x08000dc0   0x0000000c   Code   RO         3859    i.HAL_GetREVID      stm32h7xx_hal.o
    0x08000dcc   0x08000dcc   0x0000000c   Code   RO         3860    i.HAL_GetTick       stm32h7xx_hal.o
    0x08000dd8   0x08000dd8   0x00000010   Code   RO         3866    i.HAL_IncTick       stm32h7xx_hal.o
    0x08000de8   0x08000de8   0x0000005c   Code   RO         3867    i.HAL_Init          stm32h7xx_hal.o
    0x08000e44   0x08000e44   0x00000040   Code   RO         3868    i.HAL_InitTick      stm32h7xx_hal.o
    0x08000e84   0x08000e84   0x0000001c   Code   RO         1188    i.HAL_MspInit       stm32h7xx_hal_msp.o
    0x08000ea0   0x08000ea0   0x0000001a   Code   RO         3706    i.HAL_NVIC_EnableIRQ  stm32h7xx_hal_cortex.o
    0x08000eba   0x08000eba   0x00000002   PAD
    0x08000ebc   0x08000ebc   0x00000040   Code   RO         3712    i.HAL_NVIC_SetPriority  stm32h7xx_hal_cortex.o
    0x08000efc   0x08000efc   0x00000024   Code   RO         3713    i.HAL_NVIC_SetPriorityGrouping  stm32h7xx_hal_cortex.o
    0x08000f20   0x08000f20   0x00000028   Code   RO         1997    i.HAL_PCDEx_ActivateLPM  stm32h7xx_hal_pcd_ex.o
    0x08000f48   0x08000f48   0x00000002   Code   RO         2002    i.HAL_PCDEx_LPM_Callback  stm32h7xx_hal_pcd_ex.o
    0x08000f4a   0x08000f4a   0x00000008   Code   RO         2003    i.HAL_PCDEx_SetRxFiFo  stm32h7xx_hal_pcd_ex.o
    0x08000f52   0x08000f52   0x00000046   Code   RO         2004    i.HAL_PCDEx_SetTxFiFo  stm32h7xx_hal_pcd_ex.o
    0x08000f98   0x08000f98   0x00000008   Code   RO         1557    i.HAL_PCD_ConnectCallback  usbd_conf.o
    0x08000fa0   0x08000fa0   0x00000012   Code   RO         1558    i.HAL_PCD_DataInStageCallback  usbd_conf.o
    0x08000fb2   0x08000fb2   0x00000014   Code   RO         1559    i.HAL_PCD_DataOutStageCallback  usbd_conf.o
    0x08000fc6   0x08000fc6   0x00000008   Code   RO         1560    i.HAL_PCD_DisconnectCallback  usbd_conf.o
    0x08000fce   0x08000fce   0x0000001e   Code   RO         1773    i.HAL_PCD_EP_Abort  stm32h7xx_hal_pcd.o
    0x08000fec   0x08000fec   0x0000004c   Code   RO         1774    i.HAL_PCD_EP_Close  stm32h7xx_hal_pcd.o
    0x08001038   0x08001038   0x0000005c   Code   RO         1775    i.HAL_PCD_EP_ClrStall  stm32h7xx_hal_pcd.o
    0x08001094   0x08001094   0x00000012   Code   RO         1777    i.HAL_PCD_EP_GetRxCount  stm32h7xx_hal_pcd.o
    0x080010a6   0x080010a6   0x00000060   Code   RO         1778    i.HAL_PCD_EP_Open   stm32h7xx_hal_pcd.o
    0x08001106   0x08001106   0x00000034   Code   RO         1779    i.HAL_PCD_EP_Receive  stm32h7xx_hal_pcd.o
    0x0800113a   0x0800113a   0x00000074   Code   RO         1780    i.HAL_PCD_EP_SetStall  stm32h7xx_hal_pcd.o
    0x080011ae   0x080011ae   0x00000034   Code   RO         1781    i.HAL_PCD_EP_Transmit  stm32h7xx_hal_pcd.o
    0x080011e2   0x080011e2   0x00000002   PAD
    0x080011e4   0x080011e4   0x0000059c   Code   RO         1783    i.HAL_PCD_IRQHandler  stm32h7xx_hal_pcd.o
    0x08001780   0x08001780   0x00000008   Code   RO         1561    i.HAL_PCD_ISOINIncompleteCallback  usbd_conf.o
    0x08001788   0x08001788   0x00000008   Code   RO         1562    i.HAL_PCD_ISOOUTIncompleteCallback  usbd_conf.o
    0x08001790   0x08001790   0x000000f2   Code   RO         1786    i.HAL_PCD_Init      stm32h7xx_hal_pcd.o
    0x08001882   0x08001882   0x00000002   PAD
    0x08001884   0x08001884   0x000000a0   Code   RO         1564    i.HAL_PCD_MspInit   usbd_conf.o
    0x08001924   0x08001924   0x0000002c   Code   RO         1565    i.HAL_PCD_ResetCallback  usbd_conf.o
    0x08001950   0x08001950   0x00000008   Code   RO         1566    i.HAL_PCD_ResumeCallback  usbd_conf.o
    0x08001958   0x08001958   0x00000008   Code   RO         1567    i.HAL_PCD_SOFCallback  usbd_conf.o
    0x08001960   0x08001960   0x00000028   Code   RO         1792    i.HAL_PCD_SetAddress  stm32h7xx_hal_pcd.o
    0x08001988   0x08001988   0x0000000e   Code   RO         1568    i.HAL_PCD_SetupStageCallback  usbd_conf.o
    0x08001996   0x08001996   0x00000042   Code   RO         1795    i.HAL_PCD_Start     stm32h7xx_hal_pcd.o
    0x080019d8   0x080019d8   0x00000030   Code   RO         1569    i.HAL_PCD_SuspendCallback  usbd_conf.o
    0x08001a08   0x08001a08   0x00000054   Code   RO         3447    i.HAL_PWREx_ConfigSupply  stm32h7xx_hal_pwr_ex.o
    0x08001a5c   0x08001a5c   0x00000010   Code   RO         3464    i.HAL_PWREx_EnableUSBVoltageDetector  stm32h7xx_hal_pwr_ex.o
    0x08001a6c   0x08001a6c   0x00000010   Code   RO         3329    i.HAL_PWR_EnableBkUpAccess  stm32h7xx_hal_pwr.o
    0x08001a7c   0x08001a7c   0x00000024   Code   RO         2489    i.HAL_RCCEx_GetD3PCLK1Freq  stm32h7xx_hal_rcc_ex.o
    0x08001aa0   0x08001aa0   0x00000144   Code   RO         2491    i.HAL_RCCEx_GetPLL2ClockFreq  stm32h7xx_hal_rcc_ex.o
    0x08001be4   0x08001be4   0x00000144   Code   RO         2492    i.HAL_RCCEx_GetPLL3ClockFreq  stm32h7xx_hal_rcc_ex.o
    0x08001d28   0x08001d28   0x000009ac   Code   RO         2498    i.HAL_RCCEx_PeriphCLKConfig  stm32h7xx_hal_rcc_ex.o
    0x080026d4   0x080026d4   0x0000025c   Code   RO         2374    i.HAL_RCC_ClockConfig  stm32h7xx_hal_rcc.o
    0x08002930   0x08002930   0x00000044   Code   RO         2379    i.HAL_RCC_GetHCLKFreq  stm32h7xx_hal_rcc.o
    0x08002974   0x08002974   0x00000024   Code   RO         2381    i.HAL_RCC_GetPCLK1Freq  stm32h7xx_hal_rcc.o
    0x08002998   0x08002998   0x00000024   Code   RO         2382    i.HAL_RCC_GetPCLK2Freq  stm32h7xx_hal_rcc.o
    0x080029bc   0x080029bc   0x00000138   Code   RO         2383    i.HAL_RCC_GetSysClockFreq  stm32h7xx_hal_rcc.o
    0x08002af4   0x08002af4   0x00000582   Code   RO         2386    i.HAL_RCC_OscConfig  stm32h7xx_hal_rcc.o
    0x08003076   0x08003076   0x00000002   Code   RO         5855    i.HAL_SDEx_Read_DMADoubleBuf0CpltCallback  stm32h7xx_hal_sd.o
    0x08003078   0x08003078   0x00000002   Code   RO         5856    i.HAL_SDEx_Read_DMADoubleBuf1CpltCallback  stm32h7xx_hal_sd.o
    0x0800307a   0x0800307a   0x00000002   Code   RO         5857    i.HAL_SDEx_Write_DMADoubleBuf0CpltCallback  stm32h7xx_hal_sd.o
    0x0800307c   0x0800307c   0x00000002   Code   RO         5858    i.HAL_SDEx_Write_DMADoubleBuf1CpltCallback  stm32h7xx_hal_sd.o
    0x0800307e   0x0800307e   0x00000002   Code   RO         5866    i.HAL_SD_ErrorCallback  stm32h7xx_hal_sd.o
    0x08003080   0x08003080   0x00000240   Code   RO         5874    i.HAL_SD_IRQHandler  stm32h7xx_hal_sd.o
    0x080032c0   0x080032c0   0x00000018   Code   RO          549    i.HAL_SD_RxCpltCallback  sdmmc.o
    0x080032d8   0x080032d8   0x00000018   Code   RO          550    i.HAL_SD_TxCpltCallback  sdmmc.o
    0x080032f0   0x080032f0   0x0000017c   Code   RO         6143    i.HAL_SPI_Init      stm32h7xx_hal_spi.o
    0x0800346c   0x0800346c   0x000000b4   Code   RO          714    i.HAL_SPI_MspInit   spi.o
    0x08003520   0x08003520   0x00000260   Code   RO         6152    i.HAL_SPI_Transmit  stm32h7xx_hal_spi.o
    0x08003780   0x08003780   0x00000026   Code   RO         3717    i.HAL_SYSTICK_Config  stm32h7xx_hal_cortex.o
    0x080037a6   0x080037a6   0x00000040   Code   RO         6917    i.HAL_UARTEx_DisableFifoMode  stm32h7xx_hal_uart_ex.o
    0x080037e6   0x080037e6   0x0000004c   Code   RO         6926    i.HAL_UARTEx_SetRxFifoThreshold  stm32h7xx_hal_uart_ex.o
    0x08003832   0x08003832   0x0000004c   Code   RO         6927    i.HAL_UARTEx_SetTxFifoThreshold  stm32h7xx_hal_uart_ex.o
    0x0800387e   0x0800387e   0x0000006a   Code   RO         6526    i.HAL_UART_Init     stm32h7xx_hal_uart.o
    0x080038e8   0x080038e8   0x0000008c   Code   RO         1053    i.HAL_UART_MspInit  usart.o
    0x08003974   0x08003974   0x00000002   Code   RO         1102    i.HardFault_Handler  stm32h7xx_it.o
    0x08003976   0x08003976   0x00000002   PAD
    0x08003978   0x08003978   0x00000038   Code   RO         1401    i.IntToUnicode      usbd_desc.o
    0x080039b0   0x080039b0   0x000000e4   Code   RO         1259    i.LCD_Arc           lcd_model.o
    0x08003a94   0x08003a94   0x00000038   Code   RO         1260    i.LCD_Circle        lcd_model.o
    0x08003acc   0x08003acc   0x00000058   Code   RO          715    i.LCD_Clear         spi.o
    0x08003b24   0x08003b24   0x00000070   Code   RO         1261    i.LCD_Clock         lcd_model.o
    0x08003b94   0x08003b94   0x000000b4   Code   RO          718    i.LCD_DisplayChar   spi.o
    0x08003c48   0x08003c48   0x000000e4   Code   RO          719    i.LCD_DisplayChinese  spi.o
    0x08003d2c   0x08003d2c   0x0000003c   Code   RO          722    i.LCD_DisplayString  spi.o
    0x08003d68   0x08003d68   0x00000048   Code   RO          723    i.LCD_DisplayText   spi.o
    0x08003db0   0x08003db0   0x0000008c   Code   RO          724    i.LCD_DrawCircle    spi.o
    0x08003e3c   0x08003e3c   0x000001dc   Code   RO          725    i.LCD_DrawEllipse   spi.o
    0x08004018   0x08004018   0x00000120   Code   RO          726    i.LCD_DrawImage     spi.o
    0x08004138   0x08004138   0x000000b4   Code   RO          727    i.LCD_DrawLine      spi.o
    0x080041ec   0x080041ec   0x00000040   Code   RO          728    i.LCD_DrawLine_H    spi.o
    0x0800422c   0x0800422c   0x00000040   Code   RO          729    i.LCD_DrawLine_V    spi.o
    0x0800426c   0x0800426c   0x00000016   Code   RO          730    i.LCD_DrawPoint     spi.o
    0x08004282   0x08004282   0x0000003a   Code   RO          731    i.LCD_DrawRect      spi.o
    0x080042bc   0x080042bc   0x0000006c   Code   RO         1262    i.LCD_Ellipse       lcd_model.o
    0x08004328   0x08004328   0x00000090   Code   RO          732    i.LCD_FillCircle    spi.o
    0x080043b8   0x080043b8   0x00000054   Code   RO          733    i.LCD_FillRect      spi.o
    0x0800440c   0x0800440c   0x00000098   Code   RO         1263    i.LCD_Line          lcd_model.o
    0x080044a4   0x080044a4   0x0000004c   Code   RO         1264    i.LCD_Picture       lcd_model.o
    0x080044f0   0x080044f0   0x0000013c   Code   RO         1265    i.LCD_Polygon       lcd_model.o
    0x0800462c   0x0800462c   0x000001d8   Code   RO         1266    i.LCD_Rectangle     lcd_model.o
    0x08004804   0x08004804   0x00000090   Code   RO         1267    i.LCD_RouRectangle  lcd_model.o
    0x08004894   0x08004894   0x000000bc   Code   RO          734    i.LCD_SPI_CloseTransfer  spi.o
    0x08004950   0x08004950   0x00000158   Code   RO          735    i.LCD_SPI_Transmit  spi.o
    0x08004aa8   0x08004aa8   0x00000042   Code   RO          737    i.LCD_SPI_WaitOnFlagUntilTimeout  spi.o
    0x08004aea   0x08004aea   0x00000002   PAD
    0x08004aec   0x08004aec   0x00000054   Code   RO          738    i.LCD_SetAddress    spi.o
    0x08004b40   0x08004b40   0x0000000c   Code   RO          739    i.LCD_SetAsciiFont  spi.o
    0x08004b4c   0x08004b4c   0x00000024   Code   RO          740    i.LCD_SetBackColor  spi.o
    0x08004b70   0x08004b70   0x00000024   Code   RO          741    i.LCD_SetColor      spi.o
    0x08004b94   0x08004b94   0x00000070   Code   RO          742    i.LCD_SetDirection  spi.o
    0x08004c04   0x08004c04   0x0000004c   Code   RO          743    i.LCD_SetTextFont   spi.o
    0x08004c50   0x08004c50   0x000000e0   Code   RO         1268    i.LCD_Test          lcd_model.o
    0x08004d30   0x08004d30   0x000000f0   Code   RO         1269    i.LCD_Test_Clear1   lcd_model.o
    0x08004e20   0x08004e20   0x0000007c   Code   RO         1270    i.LCD_Triangle      lcd_model.o
    0x08004e9c   0x08004e9c   0x00000040   Code   RO          745    i.LCD_WriteBuff     spi.o
    0x08004edc   0x08004edc   0x00000028   Code   RO          746    i.LCD_WriteCommand  spi.o
    0x08004f04   0x08004f04   0x00000030   Code   RO          747    i.LCD_WriteData_16bit  spi.o
    0x08004f34   0x08004f34   0x00000024   Code   RO          748    i.LCD_WriteData_8bit  spi.o
    0x08004f58   0x08004f58   0x000000a0   Code   RO          293    i.MX_GPIO_Init      gpio.o
    0x08004ff8   0x08004ff8   0x0000005c   Code   RO          750    i.MX_SPI4_Init      spi.o
    0x08005054   0x08005054   0x00000068   Code   RO         1054    i.MX_USART1_UART_Init  usart.o
    0x080050bc   0x080050bc   0x00000078   Code   RO         1359    i.MX_USB_DEVICE_Init  usb_device.o
    0x08005134   0x08005134   0x00000002   Code   RO         1103    i.MemManage_Handler  stm32h7xx_it.o
    0x08005136   0x08005136   0x00000002   Code   RO         1104    i.NMI_Handler       stm32h7xx_it.o
    0x08005138   0x08005138   0x0000000c   Code   RO         1105    i.OTG_FS_IRQHandler  stm32h7xx_it.o
    0x08005144   0x08005144   0x000000cc   Code   RO         1798    i.PCD_EP_OutXfrComplete_int  stm32h7xx_hal_pcd.o
    0x08005210   0x08005210   0x000000a2   Code   RO         1799    i.PCD_WriteEmptyTxFifo  stm32h7xx_hal_pcd.o
    0x080052b2   0x080052b2   0x00000002   Code   RO         1106    i.PendSV_Handler    stm32h7xx_it.o
    0x080052b4   0x080052b4   0x00000120   Code   RO         2501    i.RCCEx_PLL2_Config  stm32h7xx_hal_rcc_ex.o
    0x080053d4   0x080053d4   0x00000120   Code   RO         2502    i.RCCEx_PLL3_Config  stm32h7xx_hal_rcc_ex.o
    0x080054f4   0x080054f4   0x000000a2   Code   RO          752    i.Rotate            spi.o
    0x08005596   0x08005596   0x00000006   Code   RO         1107    i.SDMMC1_IRQHandler  stm32h7xx_it.o
    0x0800559c   0x0800559c   0x00000054   Code   RO         5539    i.SDMMC_CmdStopTransfer  stm32h7xx_ll_sdmmc.o
    0x080055f0   0x080055f0   0x00000124   Code   RO         5545    i.SDMMC_GetCmdResp1  stm32h7xx_ll_sdmmc.o
    0x08005714   0x08005714   0x00000006   Code   RO         5554    i.SDMMC_GetResponse  stm32h7xx_ll_sdmmc.o
    0x0800571a   0x0800571a   0x00000006   Code   RO         5559    i.SDMMC_ReadFIFO    stm32h7xx_ll_sdmmc.o
    0x08005720   0x08005720   0x00000028   Code   RO         5560    i.SDMMC_SendCommand  stm32h7xx_ll_sdmmc.o
    0x08005748   0x08005748   0x0000000a   Code   RO         5562    i.SDMMC_WriteFIFO   stm32h7xx_ll_sdmmc.o
    0x08005752   0x08005752   0x000000bc   Code   RO         6163    i.SPI_CloseTransfer  stm32h7xx_hal_spi.o
    0x0800580e   0x0800580e   0x00000002   PAD
    0x08005810   0x08005810   0x000001bc   Code   RO          753    i.SPI_LCD_Init      spi.o
    0x080059cc   0x080059cc   0x00000046   Code   RO         6180    i.SPI_WaitOnFlagUntilTimeout  stm32h7xx_hal_spi.o
    0x08005a12   0x08005a12   0x00000002   Code   RO         1108    i.SVC_Handler       stm32h7xx_it.o
    0x08005a14   0x08005a14   0x0000000a   Code   RO         7231    i.SWAPBYTE          usbd_ctlreq.o
    0x08005a1e   0x08005a1e   0x00000002   PAD
    0x08005a20   0x08005a20   0x0000004c   Code   RO          754    i.SetAngle          spi.o
    0x08005a6c   0x08005a6c   0x0000000c   Code   RO          756    i.SetRotateCenter   spi.o
    0x08005a78   0x08005a78   0x00000018   Code   RO          757    i.SetRotateValue    spi.o
    0x08005a90   0x08005a90   0x00000004   Code   RO         1109    i.SysTick_Handler   stm32h7xx_it.o
    0x08005a94   0x08005a94   0x0000011c   Code   RO           14    i.SystemClock_Config  main.o
    0x08005bb0   0x08005bb0   0x000000dc   Code   RO         7036    i.SystemInit        system_stm32h7xx.o
    0x08005c8c   0x08005c8c   0x00000044   Code   RO         6931    i.UARTEx_SetNbDataToProcess  stm32h7xx_hal_uart_ex.o
    0x08005cd0   0x08005cd0   0x000000c8   Code   RO         6540    i.UART_AdvFeatureConfig  stm32h7xx_hal_uart.o
    0x08005d98   0x08005d98   0x000000aa   Code   RO         6541    i.UART_CheckIdleState  stm32h7xx_hal_uart.o
    0x08005e42   0x08005e42   0x00000002   PAD
    0x08005e44   0x08005e44   0x00000054   Code   RO         6552    i.UART_EndRxTransfer  stm32h7xx_hal_uart.o
    0x08005e98   0x08005e98   0x000003ac   Code   RO         6558    i.UART_SetConfig    stm32h7xx_hal_uart.o
    0x08006244   0x08006244   0x0000008c   Code   RO         6565    i.UART_WaitOnFlagUntilTimeout  stm32h7xx_hal_uart.o
    0x080062d0   0x080062d0   0x00000076   Code   RO         7364    i.USBD_CDC_DataIn   usbd_cdc.o
    0x08006346   0x08006346   0x0000003c   Code   RO         7365    i.USBD_CDC_DataOut  usbd_cdc.o
    0x08006382   0x08006382   0x00000002   PAD
    0x08006384   0x08006384   0x00000090   Code   RO         7366    i.USBD_CDC_DeInit   usbd_cdc.o
    0x08006414   0x08006414   0x00000036   Code   RO         7367    i.USBD_CDC_EP0_RxReady  usbd_cdc.o
    0x0800644a   0x0800644a   0x00000002   PAD
    0x0800644c   0x0800644c   0x0000000c   Code   RO         7368    i.USBD_CDC_GetDeviceQualifierDescriptor  usbd_cdc.o
    0x08006458   0x08006458   0x00000040   Code   RO         7369    i.USBD_CDC_GetFSCfgDesc  usbd_cdc.o
    0x08006498   0x08006498   0x00000040   Code   RO         7370    i.USBD_CDC_GetHSCfgDesc  usbd_cdc.o
    0x080064d8   0x080064d8   0x00000040   Code   RO         7371    i.USBD_CDC_GetOtherSpeedCfgDesc  usbd_cdc.o
    0x08006518   0x08006518   0x0000011c   Code   RO         7372    i.USBD_CDC_Init     usbd_cdc.o
    0x08006634   0x08006634   0x00000038   Code   RO         7373    i.USBD_CDC_ReceivePacket  usbd_cdc.o
    0x0800666c   0x0800666c   0x00000016   Code   RO         7374    i.USBD_CDC_RegisterInterface  usbd_cdc.o
    0x08006682   0x08006682   0x0000001a   Code   RO         7375    i.USBD_CDC_SetRxBuffer  usbd_cdc.o
    0x0800669c   0x0800669c   0x0000001e   Code   RO         7376    i.USBD_CDC_SetTxBuffer  usbd_cdc.o
    0x080066ba   0x080066ba   0x000000ce   Code   RO         7377    i.USBD_CDC_Setup    usbd_cdc.o
    0x08006788   0x08006788   0x00000014   Code   RO         7072    i.USBD_ClrClassConfig  usbd_core.o
    0x0800679c   0x0800679c   0x00000004   Code   RO         7073    i.USBD_CoreFindEP   usbd_core.o
    0x080067a0   0x080067a0   0x00000004   Code   RO         7074    i.USBD_CoreFindIF   usbd_core.o
    0x080067a4   0x080067a4   0x00000010   Code   RO         7304    i.USBD_CtlContinueRx  usbd_ioreq.o
    0x080067b4   0x080067b4   0x00000010   Code   RO         7305    i.USBD_CtlContinueSendData  usbd_ioreq.o
    0x080067c4   0x080067c4   0x00000016   Code   RO         7232    i.USBD_CtlError     usbd_ctlreq.o
    0x080067da   0x080067da   0x0000001e   Code   RO         7306    i.USBD_CtlPrepareRx  usbd_ioreq.o
    0x080067f8   0x080067f8   0x00000016   Code   RO         7307    i.USBD_CtlReceiveStatus  usbd_ioreq.o
    0x0800680e   0x0800680e   0x0000001a   Code   RO         7308    i.USBD_CtlSendData  usbd_ioreq.o
    0x08006828   0x08006828   0x00000016   Code   RO         7309    i.USBD_CtlSendStatus  usbd_ioreq.o
    0x0800683e   0x0800683e   0x00000002   PAD
    0x08006840   0x08006840   0x00000020   Code   RO         1402    i.USBD_FS_ConfigStrDescriptor  usbd_desc.o
    0x08006860   0x08006860   0x0000000c   Code   RO         1403    i.USBD_FS_DeviceDescriptor  usbd_desc.o
    0x0800686c   0x0800686c   0x00000024   Code   RO         1404    i.USBD_FS_InterfaceStrDescriptor  usbd_desc.o
    0x08006890   0x08006890   0x0000000c   Code   RO         1405    i.USBD_FS_LangIDStrDescriptor  usbd_desc.o
    0x0800689c   0x0800689c   0x00000028   Code   RO         1406    i.USBD_FS_ManufacturerStrDescriptor  usbd_desc.o
    0x080068c4   0x080068c4   0x0000002c   Code   RO         1407    i.USBD_FS_ProductStrDescriptor  usbd_desc.o
    0x080068f0   0x080068f0   0x0000003c   Code   RO         1408    i.USBD_FS_SerialStrDescriptor  usbd_desc.o
    0x0800692c   0x0800692c   0x000000fa   Code   RO         7233    i.USBD_GetDescriptor  usbd_ctlreq.o
    0x08006a26   0x08006a26   0x0000003a   Code   RO         7076    i.USBD_GetEpDesc    usbd_core.o
    0x08006a60   0x08006a60   0x0000000e   Code   RO         7077    i.USBD_GetNextDesc  usbd_core.o
    0x08006a6e   0x08006a6e   0x0000004a   Code   RO         7234    i.USBD_GetString    usbd_ctlreq.o
    0x08006ab8   0x08006ab8   0x00000018   Code   RO         1570    i.USBD_Get_USB_Status  usbd_conf.o
    0x08006ad0   0x08006ad0   0x00000026   Code   RO         7078    i.USBD_Init         usbd_core.o
    0x08006af6   0x08006af6   0x00000012   Code   RO         1571    i.USBD_LL_ClearStallEP  usbd_conf.o
    0x08006b08   0x08006b08   0x00000012   Code   RO         1572    i.USBD_LL_CloseEP   usbd_conf.o
    0x08006b1a   0x08006b1a   0x000000b8   Code   RO         7079    i.USBD_LL_DataInStage  usbd_core.o
    0x08006bd2   0x08006bd2   0x00000090   Code   RO         7080    i.USBD_LL_DataOutStage  usbd_core.o
    0x08006c62   0x08006c62   0x00000004   Code   RO         7081    i.USBD_LL_DevConnected  usbd_core.o
    0x08006c66   0x08006c66   0x00000020   Code   RO         7082    i.USBD_LL_DevDisconnected  usbd_core.o
    0x08006c86   0x08006c86   0x00000008   Code   RO         1576    i.USBD_LL_GetRxDataSize  usbd_conf.o
    0x08006c8e   0x08006c8e   0x00000002   PAD
    0x08006c90   0x08006c90   0x00000064   Code   RO         1577    i.USBD_LL_Init      usbd_conf.o
    0x08006cf4   0x08006cf4   0x00000020   Code   RO         1578    i.USBD_LL_IsStallEP  usbd_conf.o
    0x08006d14   0x08006d14   0x00000028   Code   RO         7083    i.USBD_LL_IsoINIncomplete  usbd_core.o
    0x08006d3c   0x08006d3c   0x00000028   Code   RO         7084    i.USBD_LL_IsoOUTIncomplete  usbd_core.o
    0x08006d64   0x08006d64   0x00000018   Code   RO         1579    i.USBD_LL_OpenEP    usbd_conf.o
    0x08006d7c   0x08006d7c   0x00000012   Code   RO         1580    i.USBD_LL_PrepareReceive  usbd_conf.o
    0x08006d8e   0x08006d8e   0x0000005e   Code   RO         7085    i.USBD_LL_Reset     usbd_core.o
    0x08006dec   0x08006dec   0x00000014   Code   RO         7086    i.USBD_LL_Resume    usbd_core.o
    0x08006e00   0x08006e00   0x0000001a   Code   RO         7087    i.USBD_LL_SOF       usbd_core.o
    0x08006e1a   0x08006e1a   0x00000006   Code   RO         7088    i.USBD_LL_SetSpeed  usbd_core.o
    0x08006e20   0x08006e20   0x00000012   Code   RO         1581    i.USBD_LL_SetUSBAddress  usbd_conf.o
    0x08006e32   0x08006e32   0x00000060   Code   RO         7089    i.USBD_LL_SetupStage  usbd_core.o
    0x08006e92   0x08006e92   0x00000012   Code   RO         1582    i.USBD_LL_StallEP   usbd_conf.o
    0x08006ea4   0x08006ea4   0x00000012   Code   RO         1583    i.USBD_LL_Start     usbd_conf.o
    0x08006eb6   0x08006eb6   0x0000001a   Code   RO         7090    i.USBD_LL_Suspend   usbd_core.o
    0x08006ed0   0x08006ed0   0x00000012   Code   RO         1585    i.USBD_LL_Transmit  usbd_conf.o
    0x08006ee2   0x08006ee2   0x0000002a   Code   RO         7235    i.USBD_ParseSetupRequest  usbd_ctlreq.o
    0x08006f0c   0x08006f0c   0x0000003a   Code   RO         7091    i.USBD_RegisterClass  usbd_core.o
    0x08006f46   0x08006f46   0x00000014   Code   RO         7093    i.USBD_SetClassConfig  usbd_core.o
    0x08006f5a   0x08006f5a   0x00000002   PAD
    0x08006f5c   0x08006f5c   0x000000bc   Code   RO         7236    i.USBD_SetConfig    usbd_ctlreq.o
    0x08007018   0x08007018   0x00000004   Code   RO         7094    i.USBD_Start        usbd_core.o
    0x0800701c   0x0800701c   0x0000012e   Code   RO         7237    i.USBD_StdDevReq    usbd_ctlreq.o
    0x0800714a   0x0800714a   0x00000164   Code   RO         7238    i.USBD_StdEPReq     usbd_ctlreq.o
    0x080072ae   0x080072ae   0x00000074   Code   RO         7239    i.USBD_StdItfReq    usbd_ctlreq.o
    0x08007322   0x08007322   0x00000002   Code   RO         1586    i.USBD_static_free  usbd_conf.o
    0x08007324   0x08007324   0x00000008   Code   RO         1587    i.USBD_static_malloc  usbd_conf.o
    0x0800732c   0x0800732c   0x00000080   Code   RO         2069    i.USB_ActivateEndpoint  stm32h7xx_ll_usb.o
    0x080073ac   0x080073ac   0x0000001c   Code   RO         2071    i.USB_ActivateSetup  stm32h7xx_ll_usb.o
    0x080073c8   0x080073c8   0x00000088   Code   RO         2073    i.USB_CoreInit      stm32h7xx_ll_usb.o
    0x08007450   0x08007450   0x00000040   Code   RO         2074    i.USB_CoreReset     stm32h7xx_ll_usb.o
    0x08007490   0x08007490   0x000000cc   Code   RO         2077    i.USB_DeactivateEndpoint  stm32h7xx_ll_usb.o
    0x0800755c   0x0800755c   0x0000001c   Code   RO         2078    i.USB_DevConnect    stm32h7xx_ll_usb.o
    0x08007578   0x08007578   0x0000001c   Code   RO         2079    i.USB_DevDisconnect  stm32h7xx_ll_usb.o
    0x08007594   0x08007594   0x00000178   Code   RO         2080    i.USB_DevInit       stm32h7xx_ll_usb.o
    0x0800770c   0x0800770c   0x0000000c   Code   RO         2081    i.USB_DisableGlobalInt  stm32h7xx_ll_usb.o
    0x08007718   0x08007718   0x00000058   Code   RO         2084    i.USB_EP0_OutStart  stm32h7xx_ll_usb.o
    0x08007770   0x08007770   0x00000058   Code   RO         2085    i.USB_EPClearStall  stm32h7xx_ll_usb.o
    0x080077c8   0x080077c8   0x00000058   Code   RO         2086    i.USB_EPSetStall    stm32h7xx_ll_usb.o
    0x08007820   0x08007820   0x00000238   Code   RO         2087    i.USB_EPStartXfer   stm32h7xx_ll_usb.o
    0x08007a58   0x08007a58   0x0000009e   Code   RO         2088    i.USB_EPStopXfer    stm32h7xx_ll_usb.o
    0x08007af6   0x08007af6   0x0000000c   Code   RO         2089    i.USB_EnableGlobalInt  stm32h7xx_ll_usb.o
    0x08007b02   0x08007b02   0x00000002   PAD
    0x08007b04   0x08007b04   0x0000003c   Code   RO         2090    i.USB_FlushRxFifo   stm32h7xx_ll_usb.o
    0x08007b40   0x08007b40   0x00000040   Code   RO         2091    i.USB_FlushTxFifo   stm32h7xx_ll_usb.o
    0x08007b80   0x08007b80   0x0000001a   Code   RO         2093    i.USB_GetDevSpeed   stm32h7xx_ll_usb.o
    0x08007b9a   0x08007b9a   0x00000008   Code   RO         2095    i.USB_GetMode       stm32h7xx_ll_usb.o
    0x08007ba2   0x08007ba2   0x0000000e   Code   RO         2103    i.USB_ReadDevAllInEpInterrupt  stm32h7xx_ll_usb.o
    0x08007bb0   0x08007bb0   0x0000000e   Code   RO         2104    i.USB_ReadDevAllOutEpInterrupt  stm32h7xx_ll_usb.o
    0x08007bbe   0x08007bbe   0x00000024   Code   RO         2105    i.USB_ReadDevInEPInterrupt  stm32h7xx_ll_usb.o
    0x08007be2   0x08007be2   0x00000010   Code   RO         2106    i.USB_ReadDevOutEPInterrupt  stm32h7xx_ll_usb.o
    0x08007bf2   0x08007bf2   0x00000008   Code   RO         2107    i.USB_ReadInterrupts  stm32h7xx_ll_usb.o
    0x08007bfa   0x08007bfa   0x00000040   Code   RO         2108    i.USB_ReadPacket    stm32h7xx_ll_usb.o
    0x08007c3a   0x08007c3a   0x0000005e   Code   RO         2110    i.USB_SetCurrentMode  stm32h7xx_ll_usb.o
    0x08007c98   0x08007c98   0x00000022   Code   RO         2111    i.USB_SetDevAddress  stm32h7xx_ll_usb.o
    0x08007cba   0x08007cba   0x00000002   PAD
    0x08007cbc   0x08007cbc   0x000000e8   Code   RO         2113    i.USB_SetTurnaroundTime  stm32h7xx_ll_usb.o
    0x08007da4   0x08007da4   0x00000028   Code   RO         2116    i.USB_WritePacket   stm32h7xx_ll_usb.o
    0x08007dcc   0x08007dcc   0x00000002   Code   RO         1110    i.UsageFault_Handler  stm32h7xx_it.o
    0x08007dce   0x08007dce   0x00000030   Code   RO         7863    i.__ARM_fpclassify  m_wv.l(fpclassify.o)
    0x08007dfe   0x08007dfe   0x00000022   Code   RO         3719    i.__NVIC_SetPriority  stm32h7xx_hal_cortex.o
    0x08007e20   0x08007e20   0x00000200   Code   RO         7775    i.__hardfp_atan     m_wv.l(atan.o)
    0x08008020   0x08008020   0x000001c0   Code   RO         7467    i.__hardfp_atan2    m_wv.l(atan2.o)
    0x080081e0   0x080081e0   0x000000b0   Code   RO         7479    i.__hardfp_cos      m_wv.l(cos.o)
    0x08008290   0x08008290   0x000000b0   Code   RO         7491    i.__hardfp_sin      m_wv.l(sin.o)
    0x08008340   0x08008340   0x00000310   Code   RO         7813    i.__ieee754_rem_pio2  m_wv.l(rred.o)
    0x08008650   0x08008650   0x000000e0   Code   RO         7789    i.__kernel_cos      m_wv.l(cos_i.o)
    0x08008730   0x08008730   0x00000070   Code   RO         7865    i.__kernel_poly     m_wv.l(poly.o)
    0x080087a0   0x080087a0   0x000000a8   Code   RO         7818    i.__kernel_sin      m_wv.l(sin_i.o)
    0x08008848   0x08008848   0x00000006   Code   RO         7793    i.__mathlib_dbl_infnan  m_wv.l(dunder.o)
    0x0800884e   0x0800884e   0x00000006   Code   RO         7794    i.__mathlib_dbl_infnan2  m_wv.l(dunder.o)
    0x08008854   0x08008854   0x00000004   PAD
    0x08008858   0x08008858   0x00000018   Code   RO         7795    i.__mathlib_dbl_invalid  m_wv.l(dunder.o)
    0x08008870   0x08008870   0x00000018   Code   RO         7798    i.__mathlib_dbl_underflow  m_wv.l(dunder.o)
    0x08008888   0x08008888   0x0000000e   Code   RO         7875    i.__scatterload_copy  mc_w.l(handlers.o)
    0x08008896   0x08008896   0x00000002   Code   RO         7876    i.__scatterload_null  mc_w.l(handlers.o)
    0x08008898   0x08008898   0x0000000e   Code   RO         7877    i.__scatterload_zeroinit  mc_w.l(handlers.o)
    0x080088a6   0x080088a6   0x00000002   PAD
    0x080088a8   0x080088a8   0x0000000c   Code   RO         7847    i.__set_errno       mc_w.l(errno.o)
    0x080088b4   0x080088b4   0x00000010   Code   RO         7777    i.atan              m_wv.l(atan.o)
    0x080088c4   0x080088c4   0x00000018   Code   RO         7808    i.fabs              m_wv.l(fabs.o)
    0x080088dc   0x080088dc   0x000000fc   Code   RO           15    i.main              main.o
    0x080089d8   0x080089d8   0x00000024   Code   RO          758    i.mySqrt            spi.o
    0x080089fc   0x080089fc   0x000010e0   Data   RO         1212    .constdata          lcd_fonts.o
    0x08009adc   0x08009adc   0x00000400   Data   RO         1213    .constdata          lcd_fonts.o
    0x08009edc   0x08009edc   0x000017c0   Data   RO         1214    .constdata          lcd_fonts.o
    0x0800b69c   0x0800b69c   0x000011d0   Data   RO         1215    .constdata          lcd_fonts.o
    0x0800c86c   0x0800c86c   0x00000ed8   Data   RO         1216    .constdata          lcd_fonts.o
    0x0800d744   0x0800d744   0x000005f0   Data   RO         1217    .constdata          lcd_fonts.o
    0x0800dd34   0x0800dd34   0x00000474   Data   RO         1218    .constdata          lcd_fonts.o
    0x0800e1a8   0x0800e1a8   0x00001c02   Data   RO         1240    .constdata          lcd_image.o
    0x0800fdaa   0x0800fdaa   0x00001c02   Data   RO         1241    .constdata          lcd_image.o
    0x080119ac   0x080119ac   0x00000018   Data   RO         6566    .constdata          stm32h7xx_hal_uart.o
    0x080119c4   0x080119c4   0x00000010   Data   RO         6932    .constdata          stm32h7xx_hal_uart_ex.o
    0x080119d4   0x080119d4   0x00000010   Data   RO         7037    .constdata          system_stm32h7xx.o
    0x080119e4   0x080119e4   0x00000004   PAD
    0x080119e8   0x080119e8   0x00000098   Data   RO         7778    .constdata          m_wv.l(atan.o)
    0x08011a80   0x08011a80   0x00000030   Data   RO         7790    .constdata          m_wv.l(cos_i.o)
    0x08011ab0   0x08011ab0   0x00000008   Data   RO         7812    .constdata          m_wv.l(qnan.o)
    0x08011ab8   0x08011ab8   0x000000c8   Data   RO         7815    .constdata          m_wv.l(rred.o)
    0x08011b80   0x08011b80   0x00000028   Data   RO         7819    .constdata          m_wv.l(sin_i.o)
    0x08011ba8   0x08011ba8   0x00000020   Data   RO         7873    Region$$Table       anon$$obj.o


    Execution Region RW_IRAM1 (Exec base: 0x20000000, Load base: 0x08011bc8, Size: 0x00000000, Max: 0x00020000, ABSOLUTE)

    **** No section assigned to this execution region ****


    Execution Region RW_IRAM2 (Exec base: 0x24000000, Load base: 0x08011bc8, Size: 0x00002b38, Max: 0x00080000, ABSOLUTE, COMPRESSED[0x00000108])

    Exec Addr    Load Addr    Size         Type   Attr      Idx    E Section Name        Object

    0x24000000   COMPRESSED   0x00000020   Data   RW          761    .data               spi.o
    0x24000020   COMPRESSED   0x0000000c   Data   RW         1222    .data               lcd_fonts.o
    0x2400002c   COMPRESSED   0x0000000c   Data   RW         1223    .data               lcd_fonts.o
    0x24000038   COMPRESSED   0x0000000c   Data   RW         1224    .data               lcd_fonts.o
    0x24000044   COMPRESSED   0x0000000c   Data   RW         1225    .data               lcd_fonts.o
    0x24000050   COMPRESSED   0x0000000c   Data   RW         1226    .data               lcd_fonts.o
    0x2400005c   COMPRESSED   0x0000000c   Data   RW         1227    .data               lcd_fonts.o
    0x24000068   COMPRESSED   0x0000000c   Data   RW         1228    .data               lcd_fonts.o
    0x24000074   COMPRESSED   0x00000020   Data   RW         1410    .data               usbd_desc.o
    0x24000094   COMPRESSED   0x00000032   Data   RW         1411    .data               usbd_desc.o
    0x240000c6   COMPRESSED   0x00000002   PAD
    0x240000c8   COMPRESSED   0x00000014   Data   RW         1496    .data               usbd_cdc_if.o
    0x240000dc   COMPRESSED   0x0000000c   Data   RW         3889    .data               stm32h7xx_hal.o
    0x240000e8   COMPRESSED   0x00000008   Data   RW         7038    .data               system_stm32h7xx.o
    0x240000f0   COMPRESSED   0x00000001   Data   RW         7240    .data               usbd_ctlreq.o
    0x240000f1   COMPRESSED   0x00000003   PAD
    0x240000f4   COMPRESSED   0x00000053   Data   RW         7379    .data               usbd_cdc.o
    0x24000147   COMPRESSED   0x00000001   PAD
    0x24000148   COMPRESSED   0x00000038   Data   RW         7380    .data               usbd_cdc.o
    0x24000180   COMPRESSED   0x00000004   Data   RW         7848    .data               mc_w.l(errno.o)
    0x24000184        -       0x0000007c   Zero   RW          554    .bss                sdmmc.o
    0x24000200        -       0x00000898   Zero   RW          760    .bss                spi.o
    0x24000a98        -       0x00000094   Zero   RW         1056    .bss                usart.o
    0x24000b2c        -       0x000002dc   Zero   RW         1360    .bss                usb_device.o
    0x24000e08        -       0x00000200   Zero   RW         1409    .bss                usbd_desc.o
    0x24001008        -       0x00001000   Zero   RW         1495    .bss                usbd_cdc_if.o
    0x24002008        -       0x0000072c   Zero   RW         1588    .bss                usbd_conf.o
    0x24002734   COMPRESSED   0x00000004   PAD
    0x24002738        -       0x00000400   Zero   RW            1    STACK               startup_stm32h750xx.o


==============================================================================

Image component sizes


      Code (inc. data)   RO Data    RW Data    ZI Data      Debug   Object Name

       160         10          0          0          0       1039   gpio.o
         0          0      22444         84          0       1975   lcd_fonts.o
         0          0      14340          0          0        638   lcd_image.o
      2620        234          0          0          0       9562   lcd_model.o
       540         32          0          0          0    1343284   main.o
        52          8          0          0        124       3018   sdmmc.o
      5702        280          0         32       2200      37883   spi.o
        36          8        664          0       1024        836   startup_stm32h750xx.o
       232         44          0         12          0      23488   stm32h7xx_hal.o
       198         12          0          0          0      39719   stm32h7xx_hal_cortex.o
       566         50          0          0          0       2252   stm32h7xx_hal_gpio.o
        28          6          0          0          0        850   stm32h7xx_hal_msp.o
      2682         16          0          0          0      14044   stm32h7xx_hal_pcd.o
       120          6          0          0          0       3271   stm32h7xx_hal_pcd_ex.o
        16          4          0          0          0        567   stm32h7xx_hal_pwr.o
       100         10          0          0          0       1398   stm32h7xx_hal_pwr_ex.o
      2466        102          0          0          0       7188   stm32h7xx_hal_rcc.o
      3736        118          0          0          0       7905   stm32h7xx_hal_rcc_ex.o
       586          6          0          0          0       5621   stm32h7xx_hal_sd.o
      1246         14          0          0          0       4862   stm32h7xx_hal_spi.o
      1640        112         24          0          0      25722   stm32h7xx_hal_uart.o
       284          6         16          0          0       3797   stm32h7xx_hal_uart_ex.o
        38          6          0          0          0       5310   stm32h7xx_it.o
       438         24          0          0          0       5642   stm32h7xx_ll_sdmmc.o
      2716        134          0          0          0      23724   stm32h7xx_ll_usb.o
       220         40         16          8          0       1430   system_stm32h7xx.o
       244         24          0          0        148       1902   usart.o
       120         16          0          0        732       8611   usb_device.o
      1204         36          0        139          0      14003   usbd_cdc.o
        72         16          0         20       4096       3514   usbd_cdc_if.o
       676         30          0          0       1836      17412   usbd_conf.o
       932          0          0          0          0      15895   usbd_core.o
      1360         22          0          1          0      15208   usbd_ctlreq.o
       292        106          0         82        512       6477   usbd_desc.o
       132          0          0          0          0       4676   usbd_ioreq.o

    ----------------------------------------------------------------------
     31490       1532      37540        384      10676    1662723   Object Totals
         0          0         32          0          0          0   (incl. Generated)
        36          0          4          6          4          0   (incl. Padding)

    ----------------------------------------------------------------------

      Code (inc. data)   RO Data    RW Data    ZI Data      Debug   Library Member Name

       528        110        152          0          0        348   atan.o
       448         68          0          0          0        180   atan2.o
       176         18          0          0          0        156   cos.o
       224         42         48          0          0        184   cos_i.o
        60         28          0          0          0        464   dunder.o
        24          0          0          0          0        124   fabs.o
        48          0          0          0          0        124   fpclassify.o
       112          0          0          0          0        116   poly.o
         0          0          8          0          0          0   qnan.o
       784        138        200          0          0        172   rred.o
       176         18          0          0          0        160   sin.o
       168         24         40          0          0        196   sin_i.o
        86          0          0          0          0          0   __dczerorl2.o
         0          0          0          0          0          0   entry.o
         0          0          0          0          0          0   entry10a.o
         0          0          0          0          0          0   entry11a.o
         8          4          0          0          0          0   entry2.o
         4          0          0          0          0          0   entry5.o
         0          0          0          0          0          0   entry7b.o
         0          0          0          0          0          0   entry8b.o
         8          4          0          0          0          0   entry9a.o
        12          6          0          4          0         68   errno.o
        30          0          0          0          0          0   handlers.o
        36          8          0          0          0         68   init.o
         0          0          0          0          0          0   iusefp.o
        30          0          0          0          0         68   llshl.o
        32          0          0          0          0         68   llushr.o
        36          0          0          0          0         68   memcpya.o
        36          0          0          0          0        108   memseta.o
        98          0          0          0          0         92   uldiv.o

    ----------------------------------------------------------------------
      3170        468        448          4          0       2764   Library Totals
         6          0          0          0          0          0   (incl. Padding)

    ----------------------------------------------------------------------

      Code (inc. data)   RO Data    RW Data    ZI Data      Debug   Library Name

      2748        446        448          0          0       2224   m_wv.l
       416         22          0          4          0        540   mc_w.l

    ----------------------------------------------------------------------
      3170        468        448          4          0       2764   Library Totals

    ----------------------------------------------------------------------

==============================================================================


      Code (inc. data)   RO Data    RW Data    ZI Data      Debug   

     34660       2000      37988        388      10676    1638115   Grand Totals
     34660       2000      37988        264      10676    1638115   ELF Image Totals (compressed)
     34660       2000      37988        264          0          0   ROM Totals

==============================================================================

    Total RO  Size (Code + RO Data)                72648 (  70.95kB)
    Total RW  Size (RW Data + ZI Data)             11064 (  10.80kB)
    Total ROM Size (Code + RO Data + RW Data)      72912 (  71.20kB)

==============================================================================

