:020000040800F2
:1000000090150024AD0200084B4D0008AD430008D8
:10001000494D0008390B0008056C0008000000007D
:100020000000000000000000000000006354000811
:100030003B0B000800000000C74E00086F5400088A
:10004000C7020008C7020008C7020008C70200086C
:10005000C7020008C7020008C7020008C70200085C
:10006000C7020008C7020008C7020008C70200084C
:10007000C7020008C7020008C7020008C70200083C
:10008000C7020008C7020008C7020008C70200082C
:10009000C7020008C7020008C7020008C70200081C
:1000A000C7020008C7020008C7020008C70200080C
:1000B000C7020008C7020008C7020008C7020008FC
:1000C000C7020008C7020008C7020008C7020008EC
:1000D000C7020008C7020008C7020008C7020008DC
:1000E000C7020008C702000800000000C70200089D
:1000F000C7020008C7020008C7020008C7020008BC
:10010000C7020008C7020008C7020008C7020008AB
:10011000C7020008C7020008C7020008C70200089B
:10012000C7020008C7020008C7020008C70200088B
:10013000C7020008C7020008C7020008C70200087B
:1001400000000000000000000000000000000000AF
:10015000C7020008C7020008C7020008C70200085B
:10016000C7020008C7020008C7020008C70200084B
:10017000C7020008C7020008C7020008C70200083B
:10018000C7020008C7020008C7020008C70200082B
:10019000C7020008C7020008C7020008C70200081B
:1001A000C7020008C7020008C7020008C70200080B
:1001B000C7020008C7020008C7020008C7020008FB
:1001C000C7020008C7020008C7020008C7020008EB
:1001D000C70200084D4D0008C7020008C70200080A
:1001E000C7020008C7020008C7020008C7020008CB
:1001F000C7020008C7020008C7020008C7020008BB
:10020000C7020008C7020008C7020008C7020008AA
:10021000C7020008C7020008C7020008C70200089A
:10022000C7020008C7020008C7020008000000005B
:10023000C7020008C702000800000000C70200084B
:10024000C7020008C7020008C7020008C70200086A
:10025000C7020008C7020008C7020008C70200085A
:10026000C7020008C7020008C7020008C70200084A
:10027000C7020008C7020008C7020008000000000B
:10028000C7020008C7020008C702000800000000FB
:1002900000000000C7020008DFF80CD000F048FAA8
:1002A00000480047657500089015002406488047FF
:1002B00006480047FEE7FEE7FEE7FEE7FEE7FEE74B
:1002C000FEE7FEE7FEE7FEE7355500089902000865
:1002D0002DE9F05F0546002092469B46884606467B
:1002E000814640241BE0284641464746224600F00E
:1002F00057F853465A46C01A914110D31146184632
:10030000224600F03EF82D1A67EB01084F462246C0
:100310000120002100F035F817EB00094E41201EA6
:10032000A4F10104DFDC484631462A464346BDE8D5
:10033000F09FD2B201E000F8012B491EFBD27047BA
:100340000022F6E710B513460A4604461946FFF7A1
:10035000F0FF204610BD30B50B460146002020229C
:10036000012409E021FA02F59D4205D303FA02F5C2
:10037000491B04FA02F52844151EA2F10102F1DC22
:1003800030BD202A04DB203A00FA02F10020704739
:100390009140C2F1200320FA03F3194390407047C3
:1003A000202A04DB203A21FA02F00021704721FACA
:1003B00002F3D040C2F12002914008431946704731
:1003C0002DE9FE4F804681EA0300C00F0C460090E5
:1003D00021F0004123F00045B8EB0200A94105D20D
:1003E0004046214690461C460B46024623F00040FC
:1003F000104347D0270DC7F30A00C3F30A510290F8
:10040000401A019040286BDAC3F3130040F4801BBC
:100410000098924620B10023D2EB030A63EB0B0B4A
:1004200001985946C0F140025046FFF7AAFF064620
:100430000D4650465946019A00F08CF910EB080021
:100440006141002487EA115284EAE7731A4340D0DD
:10045000009A62B3019A012A4FEA075215DC001B89
:1004600061EB02014FF0004202EA0752CDE900427F
:10047000001C41F5801132462B4600F08CF903B088
:10048000BDE8F08F40462146F9E7001B61EB020111
:10049000001C41F5801300185B412018A2F50017DD
:1004A00047EB030140EAD570B6196D4111E06D08C4
:1004B0004FEA360645EAC0754FEA0752001B61EB6A
:1004C0000201001C41F5801149084FEA3000001973
:1004D000514132462B4603B0BDE8F04F00F04CB915
:1004E0000098012240000023D0EB020263EBE0738E
:1004F000009821464FEAE074B8EB000061EB04017C
:10050000E9E783F000435BE781F0004158E72DE91C
:10051000FE4F81EA030404F0004421F000410094FE
:100520004FF0000B23F0004350EA01045ED052EA82
:1005300003045BD0C3F30A54C1F30A552C44A4F25C
:10054000F3340194A0FB0254C1F3130141F4801170
:10055000C3F3130343F4801301FB024400FB034E77
:10056000840A970A44EA815447EA8357A4FB076840
:1005700002958D0A05FB07854FEA932C04FB0C546A
:100580002705029D4FEA065847EA1637B5EB0805DE
:100590006EEB070C870E920E47EA811742EA831230
:1005A000A7FB0201B6EB0B0164EB00042B0D43EA41
:1005B0000C335E1844EB1C50DA465146E7FB02014F
:1005C000C5F313044FEA0B3343EA14534FEA0432E2
:1005D000019C43EA0603A4F10C040294009CCDE9BB
:1005E00000B400F0D8F803B0BDE8F08F0020014659
:1005F000F9E72DE9F04D81EA030404F0004B21F006
:10060000004514464FF0000A23F0004150EA05026D
:1006100020D054EA01021DD0C5F30A570246C5F3A3
:100620001303C1F31300C1F30A5640F4801543F4D9
:100630008013A7EB0608101BD64608F2FD3873EBB3
:10064000050002D308F1010801E092185B41B8F1FE
:10065000000F03DA00200146BDE8F08D00204FF4C2
:100660008011064684460EE0171B73EB050705D381
:10067000121B63EB050306434CEA010C49084FEAE1
:10068000300092185B4150EA0107EDD152EA0300B5
:1006900012D082EA040083EA0501084305D0101B4A
:1006A000AB4106D20122002306E000224FF00043B6
:1006B00002E06FF0010253101AEB06004CEB0851F8
:1006C00010EB0A0041EB0B01BDE8F04D00F054B80F
:1006D000C1F30A52C1F3130140F2FF3341F4801118
:1006E0009A4202DA00200146704740F233439A42B0
:1006F000A2F2334202DC5242FFF752BEFFF741BE84
:1007000030B5041E71F1000404DB4FF00044404298
:1007100064EB0101141E73F1000405DB1C464FF06D
:100720000043524263EB0403994208BF904230BD3C
:10073000064C074D06E0E06840F0010394E807002E
:1007400098471034AC42F6D3FFF7AAFD7CCB0008E3
:100750009CCB0008202A06DBCB17203A41FA02F096
:1007600043EAE07306E041FA02F3D040C2F120020E
:10077000914008431946704710B5141E73F10004E8
:1007800008DA401C41F1000192185B411A4301D183
:1007900020F0010010BD2DE9F04D92469B4611B1AD
:1007A000B1FA81F202E0B0FA80F220329046FFF70F
:1007B000E8FD04460F4640EA0A0041EA0B015346B1
:1007C0005A46084313D0114653EA010019D0C8F124
:1007D00040025046FFF7E4FD05460E465046594696
:1007E0004246FFF7CEFD084305D0012004E0204635
:1007F0003946BDE8F08D0020054346EAE0762C43FB
:1008000037430A986305E40AA0EB08000022FD0ABA
:1008100044EA47540A3002D500200146E9E70105C1
:1008200010196941DDE9084500196941BDE8F04D3D
:10083000A2E7000070B53A4905460068884202D038
:10084000384A904202D1D1F8080302E03648D0F885
:10085000080310F4403F11D002F0CAFD0446686856
:10086000B0F5803F06D0B0F5003F03D0B0F5403F73
:1008700027D101E0000C18E0A40822E000214FF489
:10088000002001F04DFE044668688103890B18D1F1
:1008900081140C2915D2DFE801F0140606060606BD
:1008A000060B0D0F1113800C4000B4FBF0F408E0B0
:1008B000240906E0640904E0A40902E0E40900E078
:1008C000240A00F031FF41F20301884208D817489A
:1008D00084422868816813D821F48071816070BDDA
:1008E00013496008884204D82868816821F440715F
:1008F000F4E71049884206D82868816821F44071DD
:1009000041F48071EAE70C4988422868816804D87C
:1009100021F4407141F40071E0E741F44071DDE7FA
:10092000002002400021024000600258002D3101E9
:10093000105E5F0020BCBE0040787D012DE9F041D3
:100940000027044600680D4604F0ACF8064620680F
:1009500004F0A4F830435DD020682F4EC1688901AF
:1009600005D5617D012902D1217D01290BD0022D00
:100970001DD0206804F096F8B8B120688168C1F3F2
:10098000400169B111E02549012502E08F4232D2D0
:100990007F1C0268D2435206F8D440210160E8E788
:1009A0008168314041F010018160012D11D0206833
:1009B00004F074F848B120688168C1F3400121B99E
:1009C0008168314041F020018160022D08D0032D63
:1009D00004D0042500F0AEFE064617E00C25F9E72A
:1009E0000825F7E700F0A6FE801B05280ED9206831
:1009F000806828420AD0606D40F010006065A06DEC
:100A000040F00100A0650120BDE8F0812068806809
:100A10002842E7D10020F7E7C0FFFF7F00DC0C0091
:100A200070B50446006881688268C1F3400112F025
:100A3000010F28D039BB816801F00D01012914D1C3
:100A40008168124A1140891C816021680320086076
:100A500000F070FE054612E000F06CFE401B02281C
:100A60000DD920688068C00709D0606D40F0100083
:100A70006065A06D40F00100A065012070BD206898
:100A80008068C007E8D1002070BD0000C0FFFF7F74
:100A900070B504460068816811F0010F40D181688B
:100AA000204A11422DD18168D5432940491C8160DB
:100AB00000F040FE1C49064620681C4B884201D0CD
:100AC000984201D11A4A00E01A4A9268984202F00C
:100AD0001F0200D0014681421DD0E2B120E08168B2
:100AE00011F0010F03D181682940491C816000F099
:100AF00021FE801B02280ED920680068C043C00771
:100B000009D0606D40F010006065A06D40F00100FC
:100B1000A065012070BD20680168C943C907DED106
:100B2000002070BD3F0000800020024000210240F4
:100B30000023024000630258FEE7704772B6FEE7EA
:100B4000F8B50027044615460E46009790F8500069
:100B500001280BD0012084F850002046FFF760FFE9
:100B60000100606D04D040F010002DE00220F8BDBF
:100B700020F4885040F002006065206806F480325E
:100B800005F08043134D1A4383682B401A4342F00B
:100B900000428260104A20680EE0009B5B1C0093BC
:100BA000934209D3606D84F8507020F0020040F049
:100BB000100060650120F8BD8368DB0FEDD1606D2A
:100BC00020F0020040F001006065084684F8507093
:100BD000F8BD0000C0FFFE3F00F8C3252DE9F84F27
:100BE0004FF0000B0446E54E0D46CDF800B05F46D1
:100BF00090F85000DFF888A3012808D04FF00109D1
:100C000084F85090206803F04DFF18B169E102208C
:100C1000BDE8F88F21682868CA69030328D090FAD4
:100C2000A0F0B0FA80F000BF00F01F0309FA03F053
:100C30000243CA61D5E900124FF00C0C20681F2353
:100C4000C1F384610CEA921C02F01F0260449340DD
:100C50009140026B9A430A430263206803F022FF2B
:100C60008046206803F01AFF58EA000003D07FE0B6
:100C7000C0F38460D8E72068AA68296803F01EFFE3
:100C8000C0490968B9EB117F06D121686869C96854
:100C9000C1F38201490008E02068C168C906C16843
:100CA0006869F5D501F010014908884029690429CF
:100CB0002ED022682B6802EB810103F0F8420B6E04
:100CC000024303F0004010430866697E22682869E9
:100CD000012917D05FF0000102EB8000026E22F0C4
:100CE00000420A430266287E21682A6901280CD046
:100CF00000200B6902F01F02904023F4F0420243EF
:100D00000A6135E04FF00041E6E74FF40060F0E79C
:100D100020682978026E02F0F842B2EB816F03D1AD
:100D2000016E21F00041016620682978426E02F0D0
:100D3000F842B2EB816F03D1416E21F00041416670
:100D400020682978826E02F0F842B2EB816F03D1FD
:100D5000816E21F00041816620682978C26E02F020
:100D6000F842B2EB816F03D1C16E21F00041C16640
:100D70002068816811F0010F76D150F8C02F95F8E6
:100D80000CC0814B29680CF0180C23FA0CF3C1F34A
:100D900013080B4022EA08021A4302607B48E96804
:100DA000814277D1286801031BD090FAA0F1B1FAF3
:100DB00081F1491C01F01F0109294FEA003131D8A6
:100DC000002911D090FAA0F1B1FA81F101F10101ED
:100DD00001F01F0109FA01F209D100BFC0F38461DB
:100DE00009E0C0F38461E4E7C0F38461EEE790FAC0
:100DF000A0F1B1FA81F101F1010101F01F0142EA14
:100E0000816102D1C0F3846003E090FAA0F0B0FAEF
:100E100080F000F1010000F01F0000EB400041EA0B
:100E2000005133E000290ED090FAA0F1B1FA81F11F
:100E300001F1010101F01F0109FA01F206D100BF21
:100E4000C0F3846106E0C0F38461F1E790FAA0F199
:100E5000B1FA81F101F1010101F01F0142EA816162
:100E600003D1C0F3846004E040E090FAA0F0B0FA4F
:100E700080F0474A00F1010000F01F0000EB400045
:100E800002EB005041EA000141F00071AA682068BD
:100E900003F014FED5F800C0BCF1000F26DA3D4B7C
:100EA00020683D49DFF8F490984201D0B04201D16A
:100EB0000A4600E04A469268984202F0E07201D089
:100EC000B04209D19D68D6F8088005F0010508F008
:100ED000010845EA080503E0DAF8085005F00105C5
:100EE00045B1606D012740F020006065384684F808
:100EF00050B08DE62A4DAC451CD115021AD4504590
:100F0000F4D1984202D0B04200D049468B6842F4F6
:100F1000000023F0E07202438A60234921480968F7
:100F2000B1FBF0F04000801C00E0401E0090002863
:100F3000FBD1DBE71D4DAC450CD1D5010AD45045A2
:100F4000D4D1984202D0B04200D049468B6842F0DA
:100F500080700EE0164DAC45C8D15502C6D4504540
:100F6000C4D1984202D0B04200D049468B6842F4C6
:100F7000800023F0E07202438A60B7E7002102405C
:100F8000006002580010005CFFFF0F000000FF47E8
:100F9000000020FE002002400023024000630258AF
:100FA000000084CB400D03008C000024000052C7D9
:100FB0000000B8CF0068006C70470000F8B54FF033
:100FC000000604003546009602D0606D10B107E0BF
:100FD0000120F8BD204600F005F9A66584F85060B0
:100FE00020688168C1F3407119B18168704A11406D
:100FF000816020688168C1F3007181B981686D4AA0
:10100000114041F0805181606C496B480968B1FB27
:10101000F0F0401C00E0401E00900028FBD120684A
:101020008168C1F3007141B9616D012541F0100182
:101030006165A16D41F00101A16503F033FD616DB2
:10104000C90600D420B1606D012540F0100093E086
:10105000606D20F4807040F0020060652068816857
:1010600011F0010F1FD1564A564B904201D09842C1
:1010700007D191689E6801F0010106F00106314335
:1010800003E05149896801F0010161B9904201D042
:10109000984201D14D4800E04D488268616822F4D1
:1010A0007C120A43826000F03FFB41F20301884258
:1010B00002D9A06810280CD0617D227FA368206B24
:1010C000490341EA024118430843217F01290CD01A
:1010D00010E0607D227F216B400340EA024241F034
:1010E0001000104340F00C00EFE7218C394A02EB6E
:1010F00041410843616A29B1A26A01F47871014350
:1011000042EA01002168344BCA681A400243CA60AF
:10111000206803F0C7FC0646206803F0BFFC30439C
:101120001DD1216844F20303267DE26AC86842EAC1
:10113000863298431043C86094F8380001281ED0C6
:101140002068016921F0010101612068626B016979
:1011500021F07041114301612046FFF76BFBE0680D
:10116000012820681CD0016B21F00F010163606D24
:1011700020F0020040F0010060652846F8BD2068BC
:10118000A28F164FD4E9101C154E07EB0247A36C33
:10119000026941EA0C013B43324019431143D3E752
:1011A000A269016B521E21F00F011143DEE700001E
:1011B000C0FFFF5FC0FFFF7F400D03008C000024D5
:1011C000002002400021024000600258002302403B
:1011D000006302580000FEFF03C0F0FF0100FFFFA4
:1011E0001EF800FC70B5B2B00446C0216846FFF797
:1011F000A7F81949206888422CD103216846C325E5
:101200000023CDE9035102240591CDE906431926B7
:1012100008934FF40022099329938DE84C0001F0C4
:10122000E3FA08B1FFF78AFC0C48016841F08071CD
:101230000160016801F080713091016841F00401A2
:101240000160006800F0040030904FF080600146BB
:1012500002F040FF32B070BD00600258E044025816
:101260002DE9F047434D0446006888464249434B08
:10127000A842DFF80C9101D0484501D10A4600E0B0
:101280001A46926802F01F062269082A14D0AEB1ED
:10129000052E13D0092E11D0A84202D0484500D007
:1012A0001946886800F4404058B1606D40F0200055
:1012B00060650120BDE8F087082703E0C068C0072B
:1012C000F2E7042700F036FA824618E0B8F1FF3F53
:1012D00015D000F02FFAA0EB0A01414502D8B8F171
:1012E000000F0CD120680068384208D1606D0021E1
:1012F00084F8501040F0040060650320DAE72068AD
:1013000000683842E2D0606D40F40070606520688B
:1013100003F0CCFB80B1607D70B9206800680007E5
:101320000AD5606D20F480706065606DC00403D4E0
:10133000606D40F0010060652068484501D12A4693
:1013400000E00246824210D07EB1052E0DD0092E5B
:101350000BD0484500D00546E968082F07D049045E
:1013600001D40C2101600020A4E7C168F5E7082141
:10137000F8E700000020024000230240006302580A
:10138000002102402DE9F0413B4D044600683B4FEF
:10139000A84201D0B84201D1394900E039498968F1
:1013A00001F01F0603F07EFB18B102210846BDE8DC
:1013B000F08194F8500001280CD0012084F85000EE
:1013C0002046FFF765FB01004FF0000204D084F8CF
:1013D0005020EBE70220EAE7636D40F6016C2068DD
:1013E00023EA0C03B84243F48073636501D12B46B2
:1013F00000E00346834200D01EB9636D23F48013DE
:101400006365636DDB0404D5A36D23F00603A36558
:1014100000E0A2651C23036084F850202068B842D5
:1014200001D12A4600E00246824215D0A6B1052E1F
:1014300012D0092E10D0626DB84242F4801262655B
:1014400000D00546E8688001B0D5606D20F40050FA
:1014500040F480506065A9E7C268920105D5626DCD
:1014600022F4005242F4805262658268064B1A40B0
:10147000121D82609AE70000002002400021024015
:101480000023024000630258C0FFFF7F10B50446EE
:1014900090F85000012808D0012084F85000032162
:1014A0002046FFF74BFA10B10BE0022010BD20469A
:1014B000FFF7B6FA28B9616D21F4885141F00101B6
:1014C0006165002184F8501010BD000070B504461D
:1014D00000F030F90546601C02D00448007804444E
:1014E00000F028F9401BA042FAD370BD8000002410
:1014F0002DE9F84F03247D4D00234FF001094FF0F3
:10150000B04B4FF00F0AE9E009FA03F73A4076D002
:101510000E7906F00306012E01D0022E18D1D0F864
:1015200008C04FEA430ECE6804FA0EF82CEA080C05
:1015300006FA0EF646EA0C068660D0F804C00E796C
:101540002CEA070CC6F300169E4046EA0C064660DD
:101550000E79F643B6070BD0C6684FEA43088F688A
:1015600004FA08FC26EA0C0607FA08F73743C760B6
:101570000E7906F00306022E12D1DE080F694FEA3B
:10158000437C00EB8606B646366A4FEADC6C0AFA04
:101590000CF807FA0CF726EA08063743CEF8207055
:1015A0000F7906684FEA430807F0030704FA08FCBE
:1015B00007FA08F726EA0C06374307604E6816F468
:1015C000403F1CD04A4E376847F002073760366804
:1015D0009F0706F00206009623F0030606F1B046C8
:1015E000B6463F0FD6F80864DFF808810AFA07FC10
:1015F000404526EA0C0603D14FF0000C41E06CE0B8
:10160000DFF8F4C0604502D14FF0010C39E0DFF89B
:10161000ECC0604502D14FF0020C32E0DFF8E0C0D0
:10162000604502D14FF0030C2BE0DFF8D8C06045D5
:1016300002D14FF0040C24E0DFF8CCC0604502D1A9
:101640004FF0050C1DE0DFF8C4C0604502D14FF03B
:10165000060C16E0DFF8B8C0604502D14FF0070C69
:101660000FE0DFF8B0C0604502D14FF0080C08E091
:10167000DFF8A4C0604502D14FF0090C01E04FF043
:101680000A0C0CFA07FC4CEA060CCEF808C44F68AA
:10169000DBF80060FF0226EA020600D516435F462B
:1016A000CBF80060D1F804C0DBF804605FEA8C2C52
:1016B00026EA020600D516437E606E684F6826EA69
:1016C0000206BF0300D516436E602E684F6826EAF7
:1016D0000206FF0300D516432E605B1C0A6832FA2F
:1016E00003F67FF411AFBDE8F88F000080000058CA
:1016F000F44402580000025800040258000802583E
:10170000000C025800100258001402580018025829
:10171000001C025800200258002402580AB18161BE
:1017200070470904FBE7000001480068000C70479F
:101730000010005C014880687047000080000024B1
:10174000024881680278114481607047800000245B
:10175000032010B500F086F801F090FE0F4A104902
:1017600014681368C4F3032203F00F038A5CC95C96
:1017700002F01F0201F01F01D0400A4A20FA01F1D5
:101780001160094908600F2000F010F808B101202D
:1017900010BD00F02BF8002010BD000018440258C6
:1017A0006CCB0008900000248C00002470B50D4D17
:1017B00004462878A0B14FF47A71B1FBF0F00A49E1
:1017C0000968B1FBF0F002F09FFC48B9102C07D279
:1017D00000222146501E00F025F800206C6070BDEC
:1017E000012070BD800000248C0000240C4808B546
:1017F000016841F002010160016801F002010091FD
:10180000016841F400410160006800F4004000906C
:1018100002F068FCBDE80840022002F06BBC00004A
:10182000F44402580E4BF0B41B680D46C3F3022378
:10183000C3F10706042E00D90426191D072901D279
:10184000002300E0DB1E012404FA06F19C40491E3F
:101850002940641E994014402143F0BC05F0F8B9BA
:101860000CED00E0064900F0070210B54FF6FF044A
:101870000868044B204040EA02201843086010BD6D
:101880000CED00E00000FA057047D0F8080504F000
:1018900063BB01EBC10200EB8202D0F80805926C39
:1018A00004F0B6BA01EBC10200EB8202D0F80805E1
:1018B000D2F8882204F008BBD0F8080504F04EBB2B
:1018C0000A0601F00F0101EBC10100EB810101D516
:1018D0003C3101E001F51F71006805F02DB870B5CD
:1018E0004268044601F00F00904201D9012070BD0A
:1018F00001F00F024FF000050B0602EBC2014FF0A2
:10190000010204EB810103D581F83D203C3103E065
:1019100081F87D5201F51F718D70087094F8BC0438
:10192000012808D084F8BC24206804F091FE00202F
:1019300084F8BC5470BD022070BD2DE9F04101F067
:101940000F0604460D064FF0010006EBC6014FF0EE
:10195000000504EB810103D581F83D003C3103E033
:1019600081F87D5201F51F714F788A600B710E70FE
:1019700007B14E83022B00D14D7194F8BC24012A8B
:1019800009D084F8BC04206804F0E8FD284684F8F7
:10199000BC54BDE8F0810220FBE770B501F00F05F3
:1019A000002405EBC50100EB810101F5227181E8FE
:1019B0001C0001F80B4C01F80C5DC368012B00D131
:1019C000CA61027B006804F09BFE002070BD70B508
:1019D0000D464168044605F00F00884201D90120F8
:1019E00070BD29064FF000064FF0010207D500EB4D
:1019F000C00104EB810181F83D203C3107E005EB9B
:101A0000C50104EB810181F87D6201F51F718A70C7
:101A1000087094F8BC04012807D084F8BC2420681E
:101A200004F042FE280702D007E0022070BD217BAF
:101A300004F2C442206804F0DFFD002084F8BC6496
:101A400070BD70B501F00F04002504EBC401012640
:101A500000EB8101483181E82C0001F80B6C01F8A2
:101A60000C4DC368012B00D1CA61027B006804F0F1
:101A700047FE002070BD00002DE9FC5F05680446AC
:101A8000284604F0D6FF00287ED1206804F0FDFF30
:101A9000002879D0D5F80808C0F30D20C4F8FC045C
:101AA000206804F0F2FF800704D52068416901F046
:101AB00002014161206804F0E8FFC10604F2C4405D
:101AC000009034D52068816921F0100181612F6A6E
:101AD00007F00F01C7F3434001EBC101022804EBFB
:101AE000810606F51F7602D0062811D01AE047F6C7
:101AF000F070074216D0C7F30A12F168174628465D
:101B000004F0C7FFF16870693944F160384408E0B7
:101B100000990822284604F0BCFF7069C7F30A1137
:101B2000084470612068816941F01001816120687A
:101B300004F0ABFF00034FF0000A4FF0020B4FF030
:101B400001097CD52068002604F07EFF074674E07A
:101B5000F80770D02068F1B204F08FFF8046C0070C
:101B600007D005EB4611C1F8089B3146204603F02B
:101B7000F3F85FEA087025D505EB46110820C1F897
:101B8000080BFC49206800E042E2026C00EB4610C2
:101B900001928A42D0F8081B05D9090403D54FF4F5
:101BA0000041C0F8081B204600F06EFAF149019888
:101BB000884207D9E068012804D120680121009AF1
:101BC00004F01AFD5FEAC86004D505EB4611102049
:101BD000C1F8080B5FEA88701CD56869000605D556
:101BE000D5F8040840F48061C5F8041806EBC60077
:101BF00004EB800090F87F1200F51F70012905D1D9
:101C000080F803A02046F1B200F008FA05EB461177
:101C1000C1F808BB5FEA886004D505EB46112020B7
:101C2000C1F8080B5FEA884005D505EB46114FF473
:101C30000050C1F8080B7F08761C002F88D120685F
:101C400004F023FF40036FD5206804F0F6FE002661
:101C5000074667E0F80763D02068F1B204F0FBFEA6
:101C60008046C00723D0D5F8342806F00F0C05EBCA
:101C7000461309FA0CF08243C5F83428C3F80899D2
:101C8000E06801280FD106EBC60004EB8000D0E924
:101C900011121144816436B9E06C20B92068012129
:101CA000009A04F0A9FC2046F1B2FFF7F2FD5FEACA
:101CB000087004D505EB46110820C1F808095FEA51
:101CC000C86004D505EB46111020C1F808095FEA89
:101CD000486004D505EB46114020C1F808095FEAC9
:101CE000887016D53146284604F076FE06EBC6000D
:101CF00004EB800090F83F103C30012905D180F8BA
:101D000003A02046F1B200F085F905EB4611C1F8B9
:101D100008B95FEA086003D53146204603F082F82F
:101D20007F08761C002F95D1206804F0AEFE0028B5
:101D300011DAD5F8040820F00101C5F8041894F868
:101D4000F40401283BD0204600F082F92068416964
:101D500001F000414161206804F097FE00050BD5B9
:101D6000D5F80808C00702D0204600F095F9206891
:101D7000416901F400614161206804F086FE0001C0
:101D80000AD52068416901F00061416194F8F404CA
:101D9000E0B1204600F080F9206804F076FEC0042F
:101DA00072D5D5F8040820F00101C5F804182068A0
:101DB000102104F011FE00214FF67F322DE00021AA
:101DC000204684F8F4A4FFF75FFDBFE784F8F4949D
:101DD0002068406D0121C0F38300C4F8F804204658
:101DE000FFF752FDD8E700BF05EB4110C0F8082906
:101DF000D0F8003923F40013C0F80039C0F8082BDC
:101E0000D0F8003B23F40013C0F8003BD0F8003BAF
:101E100043F00063C0F8003B491C60688842E3D887
:101E2000D5F81C0840F00111C5F81C18206B68B1EA
:101E3000D5F8840840F00B01C5F88418D5F844089B
:101E400040F00B012846C5F844180DE0D5F81408F9
:101E500042F22B010843C5F81408D5F8100840F0E9
:101E60000B012846C5F81018D0F8000820F4FE61D0
:101E7000C5F80018217B2068009A04F0BDFB20689B
:101E8000416901F480514161206804F0FEFD800445
:101E900017D5206804F0A2FB206804F0BDFD206186
:101EA00001F0A6FA217C2368CAB20146184604F064
:101EB00021FE204600F0B6F82068416901F4005187
:101EC0004161206804F0E1FD000707D5204600F0DD
:101ED000C3F82068416901F008014161206804F0FD
:101EE000D4FD000616D5A869012620F08001A9615D
:101EF0000DE000BF06EBC60004EB800090F87F0207
:101F0000012803D12046F1B2FFF7DAFC761C6068A5
:101F1000B042EFD8206804F0B8FDC00221D50126F8
:101F20004F4616E006EBC60105EB461004EB8101B7
:101F3000D0F8000991F84020012A09D1002807DAD9
:101F4000F0B281F83F7040F080012046FFF7B8FC06
:101F5000761C6068B042E5D82068416901F48011C0
:101F60004161206804F091FD800234D501204B4688
:101F700029E000000A30544F00EBC00205EB40118D
:101F800004EB8202D1F8001B92F88062012E19D175
:101F9000002917DA94F8FC6401F4803106F0010698
:101FA000B1420FD182F87F32A96941F08002AA6163
:101FB0006969090606D4D5F8040840F40070C5F82C
:101FC000040803E0401C61688142D5D8206841695B
:101FD00001F400114161206804F057FD400007D56D
:101FE0002046FFF752FC2068416901F080414161C1
:101FF000206804F04AFD40070AD520684568680754
:1020000002D52046FFF758FC20684168294341600B
:10201000BDE8FC9FD0F8080503F0C0BFD0F8080564
:1020200003F0D0BF70B504460069012570B10228E5
:1020300001D0FEF783FDD4F80805294604F031F8F5
:10204000D4F80805BDE8704003F0E5BF0025F2E7CD
:10205000D0F8080504F00EB8D0F8080504F014B85C
:1020600010B5044690F8BC0401280BD0012084F878
:10207000381084F8BC04206804F02BFD002084F89C
:10208000BC0410BD022010BDD0F8082500F2C441E8
:10209000104604F012B8000010B50446D0F8080548
:1020A00004F044F82068D0F8001E41F00101C0F8A7
:1020B000001E206A002804D00248016841F0060191
:1020C000016010BD10ED00E0134970B50A68D243FD
:1020D000520705D5096801F00701814213D118E0C4
:1020E0000A6822F0070202430A60FFF723FB0A4D49
:1020F0004FF47A760446083D07E000BFFFF71AFB6D
:10210000001BB04201D9012070BD2868C043800483
:10211000F4D4002070BD00000C4802580248016849
:1021200041F48071016070470048025810B501F019
:102130005FF905490968054AC1F30211515C01F0D4
:102140001F01C84010BD0000204402586CCB00089D
:102150004A4930B5494C0B1D0A680C3409681D68A2
:10216000246802F0030305F00102C1F30511C4F372
:10217000CC04002914FB02F200EE102AF8EE400A0B
:1021800076D0414A9FED3E1ADFED3E1AB7EE000AC7
:1021900023B1012B5AD0022B18D15CE0374C283CDC
:1021A00023689B0612D5394B246801EE901A1168FA
:1021B000C4F3C104F8EE612AE34001EE903AC1F3A2
:1021C0000801F8EE611A81EEA22A07E002EE101A69
:1021D0001168F8EE422A81EEA22A45E001EE901A3B
:1021E0001168F8EE611A40EE811A71EE800A62EE13
:1021F000200AC1F3462101EE101AB8EE411A31EE61
:10220000001AC0EE811ABCEEE11A80ED001A1168C6
:10221000C1F3064101EE101AB8EE411A31EE001A70
:10222000C0EE811ABCEEE11A80ED011A1168C1F30B
:10223000066101EE101AB8EE411A31EE000A80EE86
:10224000801ABCEEC10A80ED020A30BD01EE901A80
:10225000DFED0F2A03E001EE901ADFED0E2A116880
:10226000F8EE611A82EEA12AC1F30801B6E7FFE792
:10227000002101604160816030BD000028440258A7
:10228000000000390024744C304402580090D00300
:102290000024744A20BCBE4B494930B5484C0B1D44
:1022A0000A68143409681D68246802F00303C5F342
:1022B0000012C1F30531C4F3CC04002914FB02F26F
:1022C00000EE102AF8EE400A75D03F4A9FED3D1A05
:1022D000B7EE000A6BB1DFED3D1A012B01D0022BE6
:1022E00064D002EE101A1168F8EE422A81EEA22A9A
:1022F00021E0334C283C23689B0612D5344B2468DC
:1023000001EE901A1168C4F3C104F8EE612AE340AB
:1023100001EE903AC1F30801F8EE611A81EEA22AAB
:102320000BE001EE901ADFED2B2A00BFF8EE611AE8
:10233000116882EEA12AC1F3080101EE901A11681A
:10234000F8EE611A40EE811A71EE800A62EE200A00
:10235000C1F3462101EE101AB8EE411A31EE001A0F
:10236000C0EE811ABCEEE11A80ED001A1168C1F3CB
:10237000064101EE101AB8EE411A31EE001AC0EE15
:10238000811ABCEEE11A80ED011A1168C1F30661F1
:1023900001EE101AB8EE411A31EE000A80EE801AF2
:1023A000BCEEC10A80ED020A30BD04E001EE901AD5
:1023B000DFED092ABAE70021016041608160F3E79F
:1023C0002844025800000039384402580024744A56
:1023D0000090D0030024744C20BCBE4B494930B55A
:1023E000484C0B1D0A681C3409681D68246802F0FB
:1023F0000303C5F30022C1F30551C4F3CC04002943
:1024000014FB02F200EE102AF8EE400A75D03F4AA3
:102410009FED3D1AB7EE000A6BB1DFED3D1A012BBF
:1024200001D0022B64D002EE101A1168F8EE422A95
:1024300081EEA22A21E0334C283C23689B0612D56A
:10244000344B246801EE901A1168C4F3C104F8EE0D
:10245000612AE34001EE903AC1F30801F8EE611AF7
:1024600081EEA22A0BE001EE901ADFED2B2A00BFCD
:10247000F8EE611A116882EEA12AC1F3080101EE9B
:10248000901A1168F8EE611A40EE811A71EE800A16
:1024900062EE200AC1F3462101EE101AB8EE411A8D
:1024A00031EE001AC0EE811ABCEEE11A80ED001A7E
:1024B0001168C1F3064101EE101AB8EE411A31EE6F
:1024C000001AC0EE811ABCEEE11A80ED011A116803
:1024D000C1F3066101EE101AB8EE411A31EE000A9E
:1024E00080EE801ABCEEC10A80ED020A30BD04E025
:1024F00001EE901ADFED092ABAE700210160416080
:102500008160F3E728440258000000394044025833
:102510000024744A0090D0030024744C20BCBE4BAD
:102520002DE9F04FAC4A0546DFF8A8A280F4807090
:10253000DFF8AC9289B01311AA4C0843A748AAF15E
:1025400004064FF0805C4FF000582CD085F40077E3
:102550000F4357D0DFF87CB285F480670F430BF14F
:10256000080B61D085F400670F4374D085F4805761
:102570000F436ED085F400570F434FF480394FF46A
:10258000003E67D085F400270F4371D085F4803773
:102590000F436ED085F480460E436BD085F4004225
:1025A0000A4368D02AE0DAF8001001F00701052993
:1025B00024D2DFE801F075BC7D25B10006A8FFF745
:1025C000C7FD079809B0BDE8F08F6846FFF764FEC5
:1025D0000098F7E703A8FFF701FF0398F2E72068E8
:1025E000C0F3C10022FA00F0ECE72268D20571D5F1
:1025F00061456FD11846E5E74145E3D00020E1E7AA
:102600004846DFE7DAF8001001F4E07180294FD086
:1026100004DC002944D04029F0D188E0C029EFD063
:10262000B1F5807FEAD177E0DBF8001001F46001BA
:10263000B1F5800F3CD004DC91B3B1F5001FDDD1C2
:1026400075E0B1F5C00FDBD0B1F5000FD6D163E076
:1026500001E018E030E0DBF8001001F0E061B1F1DA
:10266000007F25D008DCD9B1B1F1807FC6D15EE012
:1026700049E06CE079E09CE0B1F1407FC0D0B1F17D
:10268000806FBBD148E0DAF8001001F4E041B1F509
:10269000005F0DD005DC19B1B1F5805FAED146E029
:1026A00094E0B1F5405FABD0B1F5804FA6D133E0F7
:1026B00020688000A2D58DE7DAF8001001F4E0214F
:1026C000B1F5403F6CD006DC61B149457AD0714527
:1026D00094D157E037E0B1F5802F65D0B1F5A02F48
:1026E0008CD10CE000F0A6FE6CE76846FFF7D4FD45
:1026F000019867E703A8FFF771FE049862E7216875
:102700008903F1D47AE7DBF8001011F440310ED0E0
:10271000494510D07145F5D13168256801F0405127
:102720006D077FF562AF00297FF45FAF57E7206840
:102730000001E7D549E720688000E3D503A8FFF74B
:102740004DFE05983EE722689203DBD554E73068DA
:1027500010F480303AD04845D4D120680001D1D55A
:102760006846FFF799FD02982CE7DBF8001001F0AE
:10277000E041B1F1405F13D008DC71B1614521D077
:102780004145BFD120688000B4D437E7B1F1804F14
:102790000AD0B1F1A04FB2D030E7FFF7C7FC11E784
:1027A00020684007AED51AE72068C005AAD521E702
:1027B00008E0DAF8001011F04051A0D0614505D0D2
:1027C00041459FD1206800018FD417E72068800120
:1027D00098D5F3E6504402580090D00340787D012C
:1027E0000080BB00004402582DE9FE4F0546DFF88B
:1027F000E48350F8081B0024F64FC943019005F10B
:102800002800264608F12408009008011DD4A86E6F
:1028100050B1B0F5801F0CD0B0F5001F0ED0B0F550
:10282000401F1ED001240FE0386840F400303860AB
:1028300017E00198022102F047FB03E00098022113
:1028400002F0D2FB04000CD026462888C043C00505
:1028500023D4A86D05281ED2DFE800F00C11161B4A
:102860001B00AA6ED8F8001021F440111143C8F8DB
:102870000010EAE7386840F40030386009E0019859
:10288000002102F021FB03E00098002102F0ACFBE4
:10289000044674B100E0012426462888C043800520
:1028A00028D4E86D80281ED00CDC90B140280ED1D1
:1028B00014E0AA6DD8F8001021F007011143C8F800
:1028C0000010EAE7C02813D0B0F5807F10D00124B3
:1028D0000FE0386840F40030386009E001980021CA
:1028E00002F0F2FA03E00098002102F07DFB0446BA
:1028F0009CB126462888DFF8DC92C04309F12C09F8
:1029000040052CD4D5F8A800B0F5800F20D00DDC00
:10291000A0B1B0F5001F0FD115E0EA6DD8F8001096
:1029200021F4E0711143C8F80010E3E7B0F5C00FDF
:1029300013D0B0F5000F10D001240FE0386840F438
:102940000030386009E00198002102F0BDFA03E090
:102950000098002102F048FB04467CB126462888F6
:10296000C04300052DD4D5F8AC00B0F1007F21D0D4
:102970000EDCA8B1B0F1807F10D116E0D5F8A82008
:10298000D9F8001021F460011143C9F80010E6E7FE
:10299000B0F1407F13D0B0F1806F10D001240FE070
:1029A000386840F40030386009E00198002102F0F6
:1029B0008BFA03E00098002102F016FB044674B184
:1029C00026462868C04380011FD4E86CD8B110287F
:1029D0000FD0202812D0302815D0012414E0D5F8CB
:1029E000AC20D9F8001021F0E0611143C9F80010C3
:1029F000E7E7386840F40030386004E001980221CD
:102A000002F062FA044674B126462888C043C00426
:102A10002BD4286EB0F5005F20D00DDCA0B1B0F54E
:102A2000805F0FD115E06B48EA6C2030016821F01F
:102A3000300111430160E8E7B0F5405F13D0B0F515
:102A4000804F10D001240FE0386840F40030386027
:102A500009E00198002102F037FA03E00098002114
:102A600002F0C2FA04468CB126462888C04380048E
:102A700029D4686EB0F5403F23D010DC08B3B0F520
:102A8000803F14D0B0F5003F0FD115E02A6ED8F882
:102A9000001021F4E0411143C8F80010E5E7B0F55B
:102AA000802F0ED0B0F5A02F0BD001240AE00198A2
:102AB000012102F009FA03E00098012102F094FAE2
:102AC000044694B126462888C04340042AD4D5F849
:102AD000B000B0F1405F23D010DC08B3B0F1805FEC
:102AE00014D0B0F1005F0FD115E06A6ED8F8001075
:102AF00021F4E0211143C8F80010E4E7B0F1804F61
:102B00000ED0B0F1A04F0BD001240AE001980121B2
:102B100002F0DAF903E00098012102F065FA0446B8
:102B200074B126462888C04300041FD4286FD8B14A
:102B3000B0F1805F0ED0B0F1005F10D0012414E03E
:102B4000D5F8B020D9F8001021F0E0411143C9F8C0
:102B50000010E7E7386840F40030386004E001987E
:102B6000012102F0B1F9044674B126462868C04339
:102B7000C0011ED4A86CD0B101280ED0022811D0FB
:102B8000032814D0012413E02A6FD8F8001021F094
:102B900040511143C8F80010E8E7386840F40030AD
:102BA000386004E00198022102F08EF90446ACB1CD
:102BB00026462868DFF81CB0C043ABF11C0B40026E
:102BC00052D40548016841F480710160FEF7B2FDFE
:102BD000824611E02C44025800480258FA48AA6C78
:102BE000016821F0030111430160E2E7FEF7A2FD55
:102BF000A0EB0A00642835D8F4480068C005F5D574
:102C00008CBBDFF8C4A3B5F8B4100AF1240ADAF8D3
:102C1000000001F4407100F44070884211D0DAF8ED
:102C20000010DAF8002021F4407142F48032CAF832
:102C30000020DAF8002022F48032CAF80020CAF816
:102C40000010D5F8B400B0F5807F1AD1FEF772FD00
:102C5000029012E0FEF76EFD0299411A41F28830AF
:102C600081420AD9032426462878DFF85CA3C043B2
:102C70000AF1080AC00721D03CE0DAF8000080071A
:102C8000E8D5D5F8B410C1F30120032858460DD07B
:102C9000016821F47C510160B5F8B420DAF8001025
:102CA000C2F30B021143CAF80010DDE7C84A0368FB
:102CB00002EA111223F47C511143ECE7E86F182863
:102CC00016D005DCA0B1082808D0102804D10AE0ED
:102CD00020280DD028280BD001240AE001980121DA
:102CE00002F0F2F803E00098012102F07DF90446B9
:102CF00064B126462878C04380071ED4A86F0628F2
:102D000019D2DFE800F0160C11161616EA6FDAF881
:102D1000001021F038011143CAF80010EAE70198C9
:102D2000012102F0D1F803E00098012102F05CF9E2
:102D300004467CB100E0012426462878C0434007C1
:102D40001FD4D5F89400062819D2DFE800F0160C3D
:102D500011161616AA6FDAF8001021F007011143B8
:102D6000CAF80010E9E70198012102F0ADF803E08C
:102D70000098012102F038F90446A4B100E00124D2
:102D800026462878C04380062BD4D5F89000B0F1B1
:102D9000405F24D011DC10B3B0F1805F15D0B0F1EA
:102DA000005F10D116E0D5F89420D9F8001021F07A
:102DB00007011143C9F80010E3E7B0F1804F0ED0CE
:102DC000B0F1A04F0BD001240AE00198002102F0DD
:102DD0007BF803E00098022102F006F9044694B162
:102DE00026462878C04340062BD4D5F89C00B0F581
:102DF000406F24D011DC10B3B0F5806F15D0B0F562
:102E0000006F10D116E0D5F89020DAF8001021F00C
:102E1000E0411143CAF80010E3E7B0F5805F0ED03F
:102E2000B0F5A05F0BD001240AE00198002102F068
:102E30004BF803E00098022102F0D6F8044694B162
:102E400026462878C04300062BD4D5F8A000B0F55C
:102E5000C04F24D011DC10B3B0F5005F15D0B0F531
:102E6000804F10D116E0D5F89C20D9F8001021F43D
:102E7000E0511143C9F80010E3E7B0F5004F0ED060
:102E8000B0F5204F0BD001240AE00198002102F098
:102E90001BF803E00098022102F0A6F8044654B1A2
:102EA00026462878C04300071ED4D5F88400B0F524
:102EB000805F0AD00FE0D5F8A020D9F8001021F4E7
:102EC00060411143C9F80010EBE70098022102F0BD
:102ED0008BF800B10126D5F88420DAF8001021F42F
:102EE00040511143CAF800102878C043C00613D4DB
:102EF000D5F89800B0F5807F05D10098022102F046
:102F000073F800B10126D5F89820D9F8001021F403
:102F100040711143C9F800102868C043000316D45B
:102F2000D5F8A40038B1B0F5803F09D0B0F5003F26
:102F30000BD001240AE00198002101F0C5FF03E055
:102F40000098022102F050F804468CB12646286809
:102F5000C043400322D4D5F88800B0F5801F11D0BB
:102F6000B0F5001F13D0B0F5401F15D0012414E0B8
:102F7000D5F8A420D9F8001021F440311143C9F844
:102F80000010E4E7386840F40030386004E000984E
:102F9000012102F029F804465CB126462868C043A6
:102FA000C00323D4286DA8B1B0F5803F17D0012409
:102FB0001BE0D5F88820DAF8001021F44011114305
:102FC000CAF80010EAE700004C44025800480258D2
:102FD000CFFFFF00386840F40030386004E001980B
:102FE000022101F071FF0446E4B126462868C0437F
:102FF000800005D40098022101F0F6FF00B10126FF
:103000002868C04380031BD4D5F88000B0B1B0F568
:10301000807F0FD0B0F5007F10D0B0F5407F0DD08D
:1030200001240CE05A482A6D016821F480311143D3
:103030000160DBE7386840F400303860ECB32646C6
:103040002868C043C00207D46A6FD8F8001021F086
:1030500000411143C8F800102868C043C00008D4DC
:10306000D5F8B820DBF8001021F480411143CBF8EB
:1030700000102868C043800207D4EA6ED8F8001018
:1030800021F080711143C8F800102868C043400047
:103090000CD4DBF8001021F40041CBF80010DBF871
:1030A0000010D5F8BC201143CBF800102868C043AD
:1030B00008D437486A6D016800E018E021F04051FB
:1030C000114301602868C043000208D4D5F88C2061
:1030D000DAF8001021F440011143CAF800102879F1
:1030E0000024C04300F0010020430AD00FE0D5F8CF
:1030F0008020DAF8001021F440711143CAF8001062
:103100009EE70198002101F0DFFE00B10646287914
:10311000C04300F00200204305D10198012101F0D5
:10312000D3FE00B106462879C04300F004002043D6
:1031300005D10198022101F0C7FE00B106462879A9
:10314000C04300F00800204305D10098002101F0A1
:103150004BFF00B106462879C04300F01000204321
:1031600005D10098012101F03FFF00B10646287902
:10317000C04300F02000044304D10098022101F074
:1031800033FF00B916B10120BDE8FE8F0020FBE738
:103190004C4402582DE9F05F04000F467ED0DFF862
:1031A0003882D8F8000000F00F00B8420CD2D8F8EE
:1031B000001021F00F013943C8F80010D8F80000C2
:1031C00000F00F00B84269D12078844D40070AD53D
:1031D0002069296801F07001884204D9296821F02A
:1031E00070010143296020787C4E361D00070AD506
:1031F0006069316801F07001884204D9316821F0BA
:103200007001014331602078C0060AD5A069316899
:1032100001F4E061884204D9316821F4E06101439E
:1032200031602078DFF8B4B180060BF1080B0CD5C3
:10323000E1695846DBF8002002F07002914204D99F
:10324000026822F070020A430260207880070AD5E3
:10325000E068296801F00F01884204D9296821F04B
:103260000F01014329602078C0073ED05B49A26866
:103270002868183920F470601043286060680228BC
:1032800018D0032819D00968012819D04907002946
:103290004ADADFF848A1AAF1080A00E044E0DAF8C7
:1032A000002022F007020243CAF80020FEF742FA8B
:1032B000814612E009688903E9E709688901E6E7C0
:1032C000C905E4E7FEF736FAA0EB090141F28830C0
:1032D000814202D90320BDE8F09F6168DAF800005E
:1032E00000F03800B0EBC10FECD1207880070AD590
:1032F000E068296801F00F01884204D2296821F0B2
:103300000F0101432960D8F80010404601F00F0179
:10331000B9420BD9016821F00F01394301600068FF
:1033200000F00F00B84201D00120D4E72078400718
:103330000AD52069296801F07001884204D2296801
:1033400021F0700101432960207800070AD56069E7
:10335000316801F07001884204D2316821F07001B7
:10336000014331602078C0060AD5A069316801F4B4
:10337000E061884204D2316821F4E06101433160A8
:10338000207880060CD5E1695846DBF8002002F071
:103390007002914204D2026822F070020A43026075
:1033A00000F06CF80E492A682B68C2F3032203F080
:1033B0000F038A5CC95C02F01F0201F01F01D040BC
:1033C000084A20FA01F111600749086007480068BF
:1033D000BDE8F05FFEF7EAB9002000521844025839
:1033E0006CCB0008900000248C0000248400002492
:1033F00030B500F043F80B4A0B490C4B15681468C4
:10340000C5F3032204F00F048A5C095D02F01F0279
:1034100001F01F01D040064A20FA01F11960106046
:10342000084630BD184402586CCB000890000024B8
:103430008C00002400B5FFF7DBFF05490968054A49
:10344000C1F30211515C01F01F01C84000BD000032
:103450001C4402586CCB000800B5FFF7C9FF0549B2
:103460000968054AC1F30221515C01F01F01C840FF
:1034700000BD00001C4402586CCB0008454970B5E3
:1034800045480968434B103B11F0380208D0011140
:10349000082A03D0102A0BD0182A0BD0084670BD7A
:1034A00019688906FBD51968C1F3C101C84070BD10
:1034B0003A4870BD3749374D18310C1D24350A681C
:1034C000096826682D6802F0030406F00102C1F3C2
:1034D0000511C5F3CC0515FB02F200EE102AB8EE7B
:1034E000400AE9B32F4ADFED2E0AB7EE001A6CB19D
:1034F000DFED2D1A012C01D0022C43D002EE101A60
:103500001068F8EE422A81EEA22A1EE01C68A4068A
:1035100011D51B6801EE901A1168C3F3C103F8EED0
:10352000612AD84001EE900AC1F30800F8EE611A52
:1035300081EEA22A0BE001EE901ADFED1C2A00BFFB
:10354000F8EE611A106882EEA12AC0F3080001EEBD
:10355000900AF8EE611A40EE201A31EE810A00E07E
:1035600015E022EE000A1068C0F34620401C00EE71
:10357000900AF8EE600A80EE201ABCEEC10A10EE46
:10358000100A70BD01EE901ADFED092AD8E700207D
:1035900070BD0000104402580090D00340787D01B7
:1035A00000000039304402580024744A0024744C4E
:1035B00020BCBE4B2DE9F05F04007DD0FF4F20788A
:1035C000FE4D1837DFF8F493103DC00748D0D9F806
:1035D0000000396800F03800102815D0182803D1F1
:1035E00001F0030002280FD06068B0F5803F12D0D0
:1035F00010B1B0F5A02F18D0286820F480302860D2
:10360000286820F4802009E02868800328D56068B5
:103610000028D2D024E0286840F480302860606818
:1036200088B1FEF787F8064609E0286840F4802054
:103630002860F0E7FEF77EF8801B64286FD82868C2
:103640008003F7D50CE0FEF775F8064605E000BFED
:10365000FEF770F8801B6428F0D828688003F7D440
:10366000207841F20308D54E0C3E800769D5D9F881
:103670000000396810F038000ED0182801D18807F2
:103680000AD0E06890B3296821F01901014329604C
:10369000FEF750F8824631E02868400702D5E0681E
:1036A00000288AD0E168286820F0190008432860C3
:1036B000FEF740F8824607E0DFE000BFFEF73AF889
:1036C000A0EB0A000228B9D828684007F6D500BF49
:1036D000FEF72AF840451BD82069402812D03168EF
:1036E00021F47C3141EA003030602AE018E000BF6C
:1036F000FEF720F8A0EB0A0002289FD828684007B0
:10370000F6D5E5E7306820F47C3040F40030EBE794
:10371000207C316821F0FE4141EA0060E4E70DE1E0
:10372000286820F001002860FEF704F8824605E0D2
:10373000FEF700F8A0EB0A0002288DD828684007A1
:10374000F6D42078C0065DD5D9F80000DFF86CB259
:10375000396800F03800ABF1040B082810D01828A5
:1037600003D101F0030001280AD0E069002828688D
:1037700038D040F080002860FDF7DCFF824623E06F
:103780002868C00523D5E069802876D11FE0206A2B
:10379000202821D0316821F0F84141EA8060306072
:1037A00030E000BF94F82010DBF8002022F07C52BB
:1037B00042EA0161CBF8001024E000BFFDF7BAFF38
:1037C000A0EB0A00022898D82868C005F6D5FDF7B6
:1037D000ABFF4045E6D8DAE7306820F0F84040F02B
:1037E0008040DCE720F080002860FDF7A3FF06465C
:1037F00005E000BFFDF79EFF801B02289DD82868CA
:10380000C005F7D42078000729D56C486169643079
:1038100000298046016811D041F001010160FDF7E7
:1038200089FF064605E000BFFDF784FF801B0228E4
:10383000C9D8D8F800008007F6D510E021F00101C2
:103840000160FDF777FF064605E000BFFDF772FF58
:10385000801B022872D8D8F800008007F6D42078A0
:10386000800623D5A0690028286810D040F4805035
:103870002860FDF75FFF064605E036E1FDF75AFFD9
:10388000801B02285AD828688004F7D50EE020F45F
:1038900080502860FDF74EFF064604E0FDF74AFF22
:1038A000801B02284AD828688004F7D42078400773
:1038B0004FD5DFF80C81D8F8001041F48071C8F8BA
:1038C0000010FDF737FF064605E000BFFDF732FFA9
:1038D000801B642832D8D8F80000C005F6D5374ED2
:1038E000A068603601280AD008B1052813D03068D6
:1038F00020F001003060306820F0040002E0306801
:1039000040F001003060A06841F2883A90B1FDF7C4
:1039100011FF80460AE0306840F004003060EEE7B6
:10392000FDF708FFA0EB0801514507D83068800774
:10393000F6D50EE0FDF7FEFE804607E084E000BF0E
:10394000FDF7F8FEA0EB080151457DD830688007EF
:10395000F6D4606AB0B3DFF86480D9F8001008F1DB
:1039600020084FF6F87B08F10409C1F3C2010329CE
:10397000A8F1040A69D00228286820F08070286025
:1039800003D0FDF7D7FE044684E0FDF7D3FE0646DC
:1039900005E000BFFDF7CEFE801B022877D828681F
:1039A0008001F7D4E26A40F2F331386854F8283FD6
:1039B000884340EA02101843386004E0104402587B
:1039C00000480258B5E0217B434622894FF4FE0CA3
:1039D000208A4FF0FE474902267D521E401EA1F567
:1039E0000071C2F308088AB2761E0CEA004042EA6F
:1039F00008020243504607EA06610A431A60DAF8F1
:103A0000002022F00102CAF80020D9F80020266A1E
:103A100022EA0B0242EAC602C9F80020DAF80010D6
:103A2000A26921F00C011143CAF800100168E26993
:103A300021F0020111430160016841F4803101600D
:103A4000016841F4003101E021E027E001600168F4
:103A500041F480210160016841F0010101602868A2
:103A600040F080702860FDF765FE044605E000BF69
:103A7000FDF760FE001B022809D828688001F7D5F1
:103A800057E000BFFDF756FE001B022802D90320B5
:103A9000BDE8F09F28688001F4D44AE03968012825
:103AA000D8F8000021D0A26A01F0030393421CD190
:103AB000E26AC1F305118A4217D1216BC0F30802F3
:103AC000491E8A4211D1616BC0F34622491E9142C0
:103AD0000BD1A16BC0F30642491E914205D1E16BA7
:103AE000C0F30660491E814201D00120D0E7A16CDD
:103AF0004E46D9F80000C0F3CC00814219D0DAF864
:103B00000000554620F00100CAF80000FDF712FE43
:103B10004FEA0007FDF70EFEB842FBD0A26C3068FA
:103B200020EA0B0040EAC2003060286840F0010043
:103B300028600020ACE7000070B504004FF00100E1
:103B400041D094F8210028B9002084F820002046B4
:103B500000F042F8022084F821002068C168C943BF
:103B6000C90631D5CA2242625321206841622046EB
:103B700001F0CAFA18BB2068164A816811408160BA
:103B8000D4E90003A569226981682A4319431143D6
:103B9000816022682189E06840EA01401061204686
:103BA00001F0D6FA58B92168CA6C22F00302CA643F
:103BB00022686369E169D56C19432943D16422689D
:103BC000FF21516208B170BD0020012184F821104D
:103BD00070BD0000BFFF8FFF10B5B0B00446C0211C
:103BE0006846FCF7ADFB0B492068884210D1010202
:103BF00000208A132D92CDE900106846FEF7F4FDEF
:103C000008B1FCF79BFF0448016841F400410160E2
:103C100030B010BD004000587044025870B50168C3
:103C200004460B48C860FDF785FD4FF47A760546DB
:103C300007E000BFFDF77EFD401BB04201D9032025
:103C400070BD2068C0688006F4D5002070BD0000FB
:103C50005FFF03002DE9F047040029D0594A4FF0D7
:103C600000092068584B594D9042C4F8289006D05E
:103C7000984204D0A84202D0E1680F2918D8E16820
:103C80004FF0010AE76B0831C9080AEB5716714378
:103C9000904205D0984203D0A84201D0082907D805
:103CA000904203D0984201D0A84204D1102902D9F1
:103CB0000120BDE8F08794F8810020B9204684F8FF
:103CC000809000F085F8022084F881002068016867
:103CD00021F0010101602068A1698268B1F1806F63
:103CE00002F4F81110D16268B2F5800F01D01AB158
:103CF0000AE0A26B22B107E0A26BB2F1805F03D1B0
:103D0000026842F4805202606068400209D5E068AF
:103D1000072806D32068236D026822F480721A43B4
:103D200003E02068026822F480720260A66AE069FB
:103D3000E26B25683043E3680A4310431843A860E8
:103D4000D4E90D02D4E90581636A25691843D4F8E2
:103D500020C00A43266810432843A56DD4E90172A8
:103D6000D4E9123140EA080040EA0C003843084325
:103D7000104318432843F060606868B92068816880
:103D800021F4C05141F4006181602068816821F410
:103D9000C06141F4806181602068016D21F0010102
:103DA00001656068400206D52068626DC16821F037
:103DB00000411143C160C4F8849084F881A00020C0
:103DC00077E700000030014000380040003C004030
:103DD000F0B5B7B00446142130A8FCF7B1FAC02101
:103DE0006846FCF7ADFA23492068884240D1411467
:103DF000002019900446CDE900106846FEF7F4FC57
:103E000008B1FCF79BFE1C48016841F400510160B9
:103E1000006800F40050359017481038016841F0F0
:103E200010010160006830AD0221144F00F0100055
:103E300035904FF4B040052385E81300032238463F
:103E4000CDE9332330A9FDF753FB01260C484FF48D
:103E500000453095CDE9316430A93394FDF748FB36
:103E6000309530A9CDE9316438463394FDF740FBF5
:103E700037B0F0BD00340140F04402580010025841
:103E8000000C02582DE9FC5F0446006817468A467C
:103E90000021994694F8802000F1200B0191012A1D
:103EA0000DD04FF0010884F88080FDF743FC0646F2
:103EB00094F881000025012804D0022034E002207B
:103EC000BDE8FC9FBAF1000F2DD067B3A1680320B5
:103ED000C4F85CA0A4F8607084F88100C4F8845031
:103EE000A4F862706566A4F86850A4F86A50B1F549
:103EF000C02F65672567206819D0C16821F4C021EB
:103F000041F40031C160206841686FF30F0139430B
:103F100041602068016841F0010101606068B0F50E
:103F2000800F09D00DE0012084F88050C8E70168B7
:103F300041F400610160E6E72068016841F4007126
:103F40000160E0680F281CD820E0206841698907DB
:103F50000BD5E16D09680162E06D001DE065B4F804
:103F60006200401EA4F862000BE0FDF7E3FB811B3A
:103F7000494503D3B9F1FF3F03D099E0B9F1000FF0
:103F800030D0B4F862000028DFD177E007282DD8C0
:103F900070E02068416989071CD5B4F862100129D6
:103FA0000BD9E16B49B1E16D09680162E06D001D5B
:103FB000E065B4F86200801E09E0E06D0188ABF8AE
:103FC0000010E06D801CE065B4F86200401EA4F8AB
:103FD00062000BE0FDF7AEFB811B494503D3B9F14D
:103FE000FF3F03D064E0B9F1000F61D0B4F8620084
:103FF0000028CED142E02068416989072ED5B4F867
:10400000621003290CD9E16B402909D9E16D0968D7
:104010000162E06D001DE065B4F86200001F1AE067
:10402000B4F8621001290CD9E16B51B1E06D01883F
:10403000ABF80010E06D801CE065B4F86200801EF3
:1040400009E0E16D097880F82010E06D401CE06522
:10405000B4F86200401EA4F862000BE0FDF76AFBB2
:10406000811B494503D3B9F1FF3F03D020E0B9F1EB
:10407000000F1DD0B4F862000028BCD100224B46CE
:1040800008212046009601F0C9F928B1D4F884002F
:1040900040F02000C4F88400204601F083F884F842
:1040A0008180D4F8840084F8805080B1012007E733
:1040B000204601F077F8D4F8841084F8805041F459
:1040C0008071C4F8841084F881800320F8E6019898
:1040D000F6E60000024A136883430B4313607047FF
:1040E000040400580248016821F001010160704792
:1040F000003C005803490A6822F0020202430A60A9
:1041000070470000003C0058401EB0F1807F10B5A1
:1041100001D3012010BD4FF0E02460610F21601732
:1041200002F096FD0020A0610721216110BD30B58D
:1041300090F88410012918D0012280F884202421CD
:10414000C0F888100022202401680B680D6823F055
:10415000005325F001050D60426601680B60C0F850
:10416000884080F88420104630BD022030BD70B5F4
:10417000044690F8840001281DD0012284F8842090
:104180002420C4F8880020680568026822F0010233
:1041900002602068826822F060620A4382602046E2
:1041A00001F036FA2268202100201560C4F888103A
:1041B00084F8840070BD022070BD70B5044690F88C
:1041C000840001281DD0012284F884202420C4F812
:1041D000880020680568026822F0010202602068F9
:1041E000826822F060420A438260204601F010FAA1
:1041F0002268202100201560C4F8881084F884000B
:1042000070BD022070BD10B5040003D0D4F8880042
:1042100010B107E0012010BD002084F88400204682
:1042200000F026F82420C4F888002068016821F0F6
:1042300001010160204601F0F1FA0128EBD0A06AEB
:1042400010B1204601F006FA2068416821F490413F
:1042500041602068816821F02A018160206801683E
:1042600041F0010101602046BDE8104001F056BA5E
:1042700010B5B6B00446142130A8FCF761F8C0218F
:104280006846FCF75DF81A49206888422DD1002065
:104290001F9001210446CDE900106846FEF7A4FAFC
:1042A00008B1FCF74BFC1348016841F010010160B4
:1042B000006800F0100035900E481038016841F099
:1042C0000101016000680DF1C00C022100F0010045
:1042D00035904FF4C06007238CE813000322064892
:1042E000CDE9332330A9FDF703F936B010BD000046
:1042F00000100140F0440258000002582DE9F84334
:104300000446D0F88800984616460D46202802D06C
:104310000220BDE8F883A5B19EB10021C4F8901039
:104320002120C4F888001834FDF704FA814654F8B7
:10433000100CA687E6872027183CB0F5805F02D0D6
:1043400003E00120E5E7206910B12E46002510E0CA
:1043500000260EE08021204601F036FCC0B9DEB117
:1043600016F8010B21688862B4F85600401EA4F8C4
:104370005600B4F856004B464FF00002CDF80080CE
:104380000028E7D14FF04001204601F01DFC48B164
:10439000C4F888700320BCE735F8020B2168C0F32D
:1043A0000800E0E7C4F888700020B2E7FEE70000EC
:1043B00070B5134C6189A089491E8AB2401E83B230
:1043C0000021084600F05AFA01220E48D103FDF7F9
:1043D000A5F9A4F688050F20E8602846FFF73AFC07
:1043E0006289A089A188424389B2284600F078F901
:1043F0000720E8602846BDE87040FFF72BBC0000AE
:10440000BC090024001002582DE9F05FDFF8A0E09D
:10441000203A0023274E02F0FF0A894683461A46B7
:10442000DEF80800194626E0234DD0F80080B5F8E4
:1044300000C0AF880AFB04851FFA8CFCBFB20024C1
:1044400013F805505FEAC57802D026F812C001E0E3
:1044500026F81270B0F80480491C521C89B26D080D
:1044600092B2884501D1002103E0641CA4B2082C5B
:10447000E8D35B1C9BB204899C42D5D8C288A9F1C1
:1044800001018388ABF101001144744618448BB2DA
:10449000494682B2584600F0F1F9A0688188C08888
:1044A000BDE8F05F4143034889B200F099BA0000CB
:1044B00018000024BC010024BC0900242DE9F05F91
:1044C000DFF8D0808346177800238A461946D8F84B
:1044D0000C00048906685D1C04FB05FC16F80CC082
:1044E000BC4508D105FB046592F801C06D786545AF
:1044F00001D1994604E045899B1C9BB29D42EAD8B4
:104500000022254E1346C64627E0DFF890C0056816
:1045100009FB0455BCF800800024BCF804C01FFA55
:1045200088F75D5D1FFA8CFC5FEAC57802D026F83B
:10453000127001E026F812C0B0F80480491C521C29
:1045400089B26D0892B2884501D1002103E0641C54
:10455000A4B2082CE8D35B1C9BB204899C42D4D83B
:10456000C288AAF101018388ABF1010011447446AD
:1045700018448BB2514682B2584600F07FF9E06889
:104580008188C088BDE8F05F4143034889B200F0EC
:1045900027BA000018000024BC010024BC09002434
:1045A0002DE9F0410B4F15460B4E8846044608E0B6
:1045B00041462046FFF728FFB8686D1C80882044DC
:1045C00084B27089A04202D92A78002AF0D1BDE8CD
:1045D000F081000018000024BC0900242DE9F041FE
:1045E0000F4E14460F46054615E07F2A09D8394676
:1045F0002846FFF709FFB068641C8088284485B20C
:1046000009E0224639462846FFF758FFF068A41C07
:104610008088284485B22278002AE6D1BDE8F0815E
:104620001800002410B5026840F26F335169946994
:1046300044F0080494610268946944F010049461A1
:104640000268146824F001041460026814699C4331
:1046500014610268936823F44043936090F88120CA
:10466000042A0CD08A060AD5D0F8842042F08002B1
:10467000C0F884200268936943F02003936190F8A6
:104680008120032A0CD04A060AD5D0F8842042F0B3
:104690000402C0F884200268936943F040039361E8
:1046A0008A050AD5D0F8842042F00102C0F884209F
:1046B0000268936943F400739361C9050AD5D0F881
:1046C000841041F00801C0F8841001688A6942F43E
:1046D00080728A610021A0F86210A0F86A1010BDF3
:1046E0002DE9FC5F8A4690F88010044616460020AB
:1046F000019001294FF47A770DD04FF0010884F82A
:104700008080FDF717F8814694F881000025012884
:1047100004D0022017E00220BDE8FC9F96B1A168FA
:1047200003204AEA0A4B84F88100C4F88450656685
:10473000A4F86850A4F86A50B1F5C02F65672567E2
:1047400004D008E0012084F88050E5E72068016883
:1047500041F400610160206841686FF30F0141601E
:104760002068016841F0010101606068B0F5800FC8
:1047700004D12068016841F400710160206841693A
:1047800089070DD5B4F86210012905D9E16B19B17B
:10479000C0F820B0B61E17E0A0F820A0761E13E0E7
:1047A000FCF7C8FFA0EB0900B8420DD32046FFF785
:1047B00039FFD4F8841084F8805041F48071C4F833
:1047C000841084F8818033E0002ED7D100224B463C
:1047D0004FF480512046009700F02EF828B1D4F80D
:1047E000840040F02000C4F884002068016841F48F
:1047F0008061016000224B464FF400612046009723
:1048000000F01AF828B1D4F8840040F02000C4F871
:1048100084002046FFF706FF2068826942F40062A8
:10482000826184F8805084F88180D4F8840008B1D3
:10483000012071E701986FE72DE9F041984616468F
:104840000D460746069C09E0FCF774FFA0EB080044
:10485000A04202D3601C01D00BE054B1386840691B
:1048600035EA000007D00020B042EDD00020BDE8BE
:10487000F0810320FBE70120F6E700002DE9F0417D
:10488000984615460E4607462A2000F0C9F80F4CF8
:10489000A07B384480B200F0D7F8A07B284480B2D7
:1048A00000F0D2F82B2000F0BBF8E07B304480B25F
:1048B00000F0CAF8E17B01EB080080B200F0C4F818
:1048C000BDE8F0412C2000F0ABB80000BC0900248A
:1048D0000149886070470000180000244FF47841B7
:1048E0004FF4FC6301EA1021C0F3C40203EA501044
:1048F000014302481143416070470000BC09002495
:104900004FF478414FF4FC6301EA1021C0F3C40274
:1049100003EA501001430248114301607047000050
:10492000BC0900242DE9F041194C002514264FF054
:10493000F0084FF48C77607298B1022816D00128E5
:1049400019D003280BD1362000F06AF85FF0C000C0
:1049500000F092F8A573E673A4F80A80A781BDE879
:10496000F081362000F05CF8702008E0362000F07E
:1049700057F80020ECE7362000F052F8A02000F0B5
:104980007BF8A673E5736781A4F80C80E7E7000065
:10499000BC0900240C49C860808814280FD005DCAD
:1049A0000C280AD0102807D1084804E0182808D09D
:1049B000202801D10648886070470648FBE7064872
:1049C000F9E70648F7E70000180000246800002413
:1049D00044000024740000245C00002450000024E3
:1049E00070B501220C4605460B48D103FCF796FE34
:1049F0000A4E0F20F0603046FFF72CF94FF47A731F
:104A0000224629463046FFF73DFA0720F06030463F
:104A1000BDE87040FFF71EB90010025834010024B1
:104A200001B5074800224FF40041FCF777FE054826
:104A300001224FF47A736946FFF724FA08BD00009B
:104A40000010025834010024012238B5D103044675
:104A50000748FCF763FE200A8DF800000548022293
:104A60004FF47A7369468DF80140FFF70BFA38BDB1
:104A70000010025834010024012201B50548D10379
:104A8000FCF74CFE044801224FF47A736946FFF7A5
:104A9000F9F908BD00100258340100248068C0F301
:104AA000C00070478068C0F380007047C06810F491
:104AB000406F01D0002070470120704710B50424DA
:104AC00004EAD1540723C1F3045120448B408A40A7
:104AD000416999431143416110BD000070B588B030
:104AE0001C216846FBF72CFC294800242749012596
:104AF0000426E0E8021480E8700004734473066141
:104B00000575C0E90654046244628462C46280F898
:104B100030401F48FCF752FA08B1FCF70FF80620A6
:104B200040F2FF71CDE90050CDE902011848694615
:104B3000CDE904648DF81940FCF750F808B1FBF793
:104B4000FDFF0C211348CDE9000111486946FCF72F
:104B500045F808B1FBF7F2FF12210F48CDE900013B
:104B60000B486946FCF73AF808B1FBF7E7FF182154
:104B70000A48CDE9000106486946FCF72FF80028ED
:104B800001D0FBF7DBFF08B070BD000000600258E9
:104B9000AC0000240000B8CF000084CB000052C756
:104BA000F0B587B014216846FBF7CAFB25480168B9
:104BB00041F010010160016801F0100105910168E8
:104BC00041F004010160016801F0040105910168F0
:104BD00041F080010160016801F0800105910168E8
:104BE00041F001010160016801F0010105910168D6
:104BF00041F002010160016801F0020105910168C4
:104C000041F00801016000684FF400560E4F002289
:104C100000F00800314605903846FCF77FFD00247F
:104C20000096012569463846CDE901540394FCF706
:104C30005FFC022069468DE831003846FCF758FCDD
:104C400007B0F0BDE0440258000802580C480021AB
:104C50000A4A7F2310B5FF2404C080E81A00C1600F
:104C6000416181610161001FFEF766FF002803D0EA
:104C7000BDE81040FBF762BF10BD000000400058C7
:104C80001001002470B515484FF480050021124C26
:104C9000EB010722C0E90321C0E90513C1615A00F5
:104CA0000162202341626E118162C162C0E90D215F
:104CB000C0E90F3141648164C1640165416581656A
:104CC00080E87000FEF7C6FF002803D0BDE8704002
:104CD000FBF734BF70BD00000034014034010024F4
:104CE0001848002110B5164C0C224FF4E133046033
:104CF000C0E90131C160C0E904128161C161016292
:104D000041628162FFF77FFA08B1FBF717FF0D4898
:104D10000021FFF752FA08B1FBF710FF0948002104
:104D2000FFF725FA08B1FBF709FF0648FFF7FFF97F
:104D3000002803D0BDE81040FBF700BF10BD000005
:104D400000100140CC090024FEE7FEE70148FCF713
:104D500093BE0000800C00242DE9F0410446C06899
:104D60000D462027236801284FF4004604F2C44270
:104D700003EB4511D3F840C0D1F8080B09D0DFF898
:104D80009CE0F4453AD1020433D500BFC1F8086B6A
:104D900040E0234B5FEA007E04D59C453AD90004ED
:104DA000F4D437E05FEA806E02D5C1F8087B31E0C9
:104DB00010F0280F2ED19C4501D90004E6D4D1F87B
:104DC000101B05EBC50004EB8000C1F31201D0F805
:104DD0009C32A3EB0101C0F8901200F51F70ADB931
:104DE00003691BB1C2681144C1600FE02068012152
:104DF0000AE080060AD5C1F8087B07E035B9D4F887
:104E00008C0218B90021184601F0F6FB2046E9B2E1
:104E1000FCF748FD0020BDE8F08100000A31544F46
:104E20000A30544F2DE9F84F0E460568814601EBD4
:104E3000C60100EB8104D4E913203C34904202D92E
:104E40000120BDE8F88FA168101A814200D20846FF
:104E5000C01C05EB461887081BE000BFA268A0EB4A
:104E6000010A524500D2924699F80C100AF103004B
:104E700000911FFA8AF3E16887082846F2B201F030
:104E8000ADFEE16801EB0A00E060616901EB0A0038
:104E90006061D8F8180980B2B84205D3D4E904019A
:104EA000814201D20028D9D1D4E90401884208D82E
:104EB000D5F83418012006F00F0290408143C5F860
:104EC00034180020BDE770472DE9F047454D0446F2
:104ED00089464FF0000A2868C04380070AD0414E37
:104EE000283E306820F080603060FCF723FC0746E5
:104EF000B04608E00120BDE8F08700BFFCF71AFCCF
:104F0000C01B022867D8D8F800000001F6D420683A
:104F100029684FF4FE0721F47C313E0241EA00305B
:104F20002860207AA389B4F804C040022D4D2D4991
:104F30005B1E227CACF1010C1035091DA0F5007040
:104F400080B2521ECCF3080C07EA034340EA0C007F
:104F5000184306EA0262104328600868626920F07C
:104F6000C000104308600A68A06922F020020243D2
:104F70000A60281D0A6822F010020A6002684FF6D3
:104F8000F873E4699A4342EAC40202600868B9F11E
:104F9000000F40F010020A6011D00868B9F1010F4B
:104FA00011D040F400100860D8F80000444640F0EA
:104FB0008060C8F80000FCF7BDFB05460DE00868FE
:104FC00040F40020EFE740F48010ECE7FCF7B2FB80
:104FD000401B022801D903208DE720680001F5D588
:104FE000504688E7284402582DE9F047454D0446CD
:104FF00089464FF0000A2868C04380070AD0414E16
:10500000283E306820F080503060FCF793FB074664
:10501000B04608E00120BDE8F08700BFFCF78AFB3E
:10502000C01B022867D8D8F800008000F6D420887A
:1050300029684FF4FE0721F07C713E0241EA0050DE
:105040002860207AA389B4F804C040022D4D2D4970
:105050005B1E227CACF1010C1835091DA0F5007017
:1050600080B2521ECCF3080C07EA034340EA0C005E
:10507000184306EA0262104328600868626920F457
:105080004060104308600A68A06922F4007202437D
:105090000A60281D0A6822F480720A6002684FF6CE
:1050A000F873E4699A4342EAC40202600868B9F1FD
:1050B000000F40F480720A6011D00868B9F1010F46
:1050C00011D040F080700860D8F80000444640F0ED
:1050D0008050C8F80000FCF72DFB05460DE008687D
:1050E00040F48000EFE740F40000ECE7FCF722FB1F
:1050F000401B022801D903208DE720688000F5D5E8
:10510000504688E7284402582DE9F04104460068DB
:105110000025C168490617D4691EC160FCF70AFB67
:10512000032706464FF47A7808E000BFFCF702FB3D
:10513000801B404502D9032584F821702068C0688F
:10514000400601D4032DF1D12846BDE8F0810000CE
:105150002DE9F041124C032706460025E06820F0B7
:105160004000E060A068800607D43046FEF756FD98
:1051700090B1032586F821700EE0A06820F0200091
:10518000A0603046FEF74AFD10B1032586F8217075
:10519000A06840F02000A0602846BDE8F081000033
:1051A0000040005810B5026840F26F3351699469AD
:1051B00044F0080494610268946944F01004946116
:1051C0000268146824F001041460026814699C43A6
:1051D00014610268936823F44043936090F881203F
:1051E000042A0CD08A060AD5D0F8842042F0800226
:1051F000C0F884200268936943F02003936190F81B
:105200008120032A0CD04A060AD5D0F8842042F027
:105210000402C0F884200268936943F0400393615C
:105220008A050AD5D0F8842042F00102C0F8842013
:105230000268936943F400739361C9050AD5D0F8F5
:10524000841041F00801C0F8841001688A6942F4B2
:1052500080728A610021A0F86210A0F86A1010BD67
:1052600010B5FFF70FFD0A20FCF730F93620FFF7E5
:10527000D7FB0020FFF700FC3A20FFF7D1FB052009
:10528000FFF7FAFBB220FFF7CBFB0C20FFF7F4FB94
:105290000C20FFF7F1FB0020FFF7EEFB3320FFF7B8
:1052A000EBFB3320FFF7E8FBB720FFF7B9FB352016
:1052B000FFF7E2FBBB20FFF7B3FB1920FFF7DCFB96
:1052C000C020FFF7ADFB2C20FFF7D6FBC220FFF775
:1052D000A7FB0120FFF7D0FBC320FFF7A1FB1220A3
:1052E000FFF7CAFBC420FFF79BFB2020FFF7C4FB9E
:1052F000C620FFF795FB0F20FFF7BEFBD020FFF77E
:105300008FFBA420FFF7B8FBA120FFF7B5FBE0203F
:10531000FFF786FBD020FFF7AFFB0420FFF7ACFBC5
:105320000D20FFF7A9FB1120FFF7A6FB1320FFF7C5
:10533000A3FB2B20FFF7A0FB3F20FFF79DFB542092
:10534000FFF79AFB4C20FFF797FB1820FFF794FB21
:105350000D20FFF791FB0B20FFF78EFB1F20FFF7BF
:105360008BFB2320FFF788FBE120FFF759FBD020C0
:10537000FFF782FB0420FFF77FFB0C20FFF77CFB8D
:105380001120FFF779FB1320FFF776FB2C20FFF7A6
:1053900073FB3F20FFF770FB4420FFF76DFB5120AC
:1053A000FFF76AFB2F20FFF767FB1F20FFF764FB67
:1053B0001F20FFF761FB2020FFF75EFB2320FFF794
:1053C0005BFB2120FFF72CFB1120FFF729FB782046
:1053D000FCF77CF82920FFF723FB0220FFF7A2FA55
:1053E0000020FFF77BFA6FF07F40FFF789FAFEF7A6
:1053F000DFFF07490122054888600020054908723F
:10540000D103BDE810400448FCF788B950000024DF
:1054100018000024BC090024000C02582DE9F041BA
:105420001C4616460D460746DDF818800AE000BF08
:10543000FCF780F9A0EB0800A04202D3601C01D069
:105440000BE054B13868406935EA000007D000200D
:10545000B042EDD00020BDE8F0810320FBE7012041
:10546000F6E770470178407841EA00207047FCF782
:1054700067B90000F0B59DB04C216846FAF760FFAF
:10548000202113A8FAF75CFF0220FCF71DFE264935
:105490000A68264822F001020A600968016821F4BE
:1054A000404141F4804101600168002401F4404121
:1054B0001B9101688904FCD5FCF730FEFCF734F938
:1054C0001B4A0123022015680C212526C70325F05D
:1054D000180515600096CDE90173099006930A90AE
:1054E000CDE90B010D900E90CDE90F01CDE911042E
:1054F0006846FEF75FF808B172B6FEE713AB3F20CF
:10550000032183E813004FF480621694012117945D
:1055100013A81A94CDE91842FDF73CFE002801D0EB
:1055200072B6FEE71DB0F0BD2C04005818480258B2
:10553000704402582C48F0B52C4A016841F47001BF
:105540000160106800F00F00072804D2106820F0F6
:105550000F00C01D106026490020254C10340B6838
:10556000244D43F001030B6020600B682B400B605F
:10557000136803F00F03072B04D9136823F00F03FC
:10558000DB1D13601A4C1C4A18341C4B261D371D9A
:105590002060174C1A4D28343060261D3860371DA6
:1055A00023603B1D35601C1D3A60251D2E1D1860B3
:1055B000331D22602860326018600A680C4B114C61
:1055C00022F4802260330A60186020686FF30F00B5
:1055D000B0F1005F03D20C490120C1F8080143F289
:1055E000D2000A490860F0BD88ED00E000200052BA
:1055F000004402587FEDF6EA800201010002020237
:105600000000FF010010005C0080005100400052CB
:1056100030B5416EB9B101680D4B03F108048A68D9
:105620008968C2F34262490F5D5C615C2D01B5FB84
:10563000F1F1A0F86A10995CA25C0901B1FBF2F1EA
:10564000A0F8681030BD0121A0F86A10F8E700004A
:105650005CCB000890F82810C90706D00168C36A1F
:105660004A6822F400321A434A6090F828108907E9
:1056700006D50168036B4A6822F480321A434A60F7
:1056800090F82810490706D50168436B4A6822F450
:1056900080221A434A6090F82810090706D501684D
:1056A000836B4A6822F400421A434A6090F828103B
:1056B000C90606D50168C36B8A6822F480521A4372
:1056C0008A6090F82810890606D50168036C8A68FC
:1056D00022F400521A438A6090F82810490611D526
:1056E0000168436C4A6822F480121A434A60416C94
:1056F000B1F5801F06D10168836C4A6822F4C002AC
:105700001A434A6090F82810090606D50168C26C51
:10571000486820F400201043486070472DE9F843A2
:1057200000250446C0F89050FCF704F88046206835
:1057300020266FF07E470068000713D500224346FD
:1057400031042046009700F03FFA58B1216851E833
:10575000000F20F0800041E80002002AF6D1C4F8D2
:10576000886021E020680068400722D50022434677
:105770004FF480012046009700F026FAC8B1206857
:1057800050E8001F21F4907140E80012002AF6D181
:105790002068083050E8001F21F0010140E80012A5
:1057A000002AF5D1C4F88C60032084F88450BDE849
:1057B000F883C4F88860C4F88C60E566256700202B
:1057C00084F88450F3E7000010B5026852E8001F27
:1057D00021F4907142E80013002BF6D10E4B0268C1
:1057E000083252E8001F194042E80014002CF6D19C
:1057F000C16E012908D1026852E8001F21F0100192
:1058000042E80013002BF6D100212022C0F88C20A2
:10581000C166416710BD0000FEFFFFEF2DE9F043B8
:1058200004468068D84E87B0D84B2168D4E9042755
:10583000D4F81CC010430A68002547EA0C07384317
:10584000324002430A602068E268416821F4405116
:10585000114341602268A1699A4201D0206A014344
:105860009768DFF82CC3CB4ECB4807EA0C070F43F1
:1058700097602168676ACA6A22F00F023A43CA62D7
:105880002268B2420ED1006800F03800182873D0A8
:1058900047DCB8B3082879D010286FD178E02828E1
:1058A0007ED17BE0BD498A4209D1006800F0070043
:1058B000062875D2DFE800F0546A6C6E7072B84941
:1058C0008A4209D1006800F00700062868D2DFE8A4
:1058D00000F0475D5F616365B2498A4209D10068A3
:1058E00000F0070006285BD2DFE800F03A5052547F
:1058F0005658AD498A420BD1006800F007000628CF
:105900004ED200E010E0DFE800F02B41434547496C
:10591000A6498A420AD1006800F03800182839D018
:10592000B7DD2028BBD13CE001203AE0A0498A4203
:1059300009D1006800F00700062831D2DFE800F046
:105940001026282A2C2E9B498A420BD1006800F091
:105950000700062824D2DFE800F003191B1D1F21D1
:1059600000201EE09A421BD18B48001D006800F009
:105970000700062814D202E00CE007E010E0DFE8A0
:1059800000F0030507090B0D02200AE0042008E0DF
:10599000082006E0102004E0202002E0402000E083
:1059A00080208549DFF814829A42854A4FF40043EB
:1059B0004FEA21174FF000064ED110281AD006DC0E
:1059C000022809D004280BD008287CD10DE020281B
:1059D0003ED0402877D13DE0FCF7A8FB014610E01F
:1059E0006846FCF759FC01990BE003A8FCF7F6FCAC
:1059F000049906E01068800605D51068C0F3C10060
:105A0000C140002970D0606A676838F8102007EB41
:105A10004703B1FBF2F0834255D8B0EB073F52D8B1
:105A2000002308461946FAF753FC02467808130E7D
:105A3000120243EA012110183A4671410023FAF795
:105A400047FC604AA0F5407191423CD821688FE044
:105A50003946D8E71946D6E7D4F81CC04FF6EF7997
:105A60009C4546D1082819D005DC58B101280CD036
:105A7000042875D10DE0102815D0202835D04028F5
:105A80006ED134E0FDF7D6FC01E0FDF7E5FC014600
:105A900010E06846FCF700FC01990BE003A8FCF756
:105AA0009DFC049906E01068800604D51068C0F3D8
:105AB000C100C140C1B1636A606838F81330B1FBFE
:105AC000F3F1490000E04BE001EB5001B1FBF0F0D5
:105AD000A0F11001494543D84FF6F0732168C0F397
:105AE00042021840104343E043E03946E3E71946D9
:105AF000E1E7082819D005DC58B101280CD00428AA
:105B00002ED10DE0102815D020282BD0402827D1E9
:105B10002AE0FDF78FFC01E0FDF79EFC014610E056
:105B20006846FCF7B9FB01990BE003A8FCF756FCAB
:105B3000049906E01068800604D51068C0F3C1001F
:105B4000C140B1B1636A606838F81330B1FBF3F15A
:105B500001EB5001B1FBF0F0A0F11001494505D96E
:105B6000012506E03946EDE71946EBE7216880B2EA
:105B7000C8600120A4F86A00A4F868002846666797
:105B8000A66707B0BDE8F083F369FFCF000C0058AB
:105B9000FFF4FF110010014054440258004400403B
:105BA00000480040004C00400050004000140140FC
:105BB00000780040007C00400090D00344CB0008F7
:105BC00000440258FFFC0F002DE9F04799461746A4
:105BD0000E460446089D4FF000082FE0681C2DD0AB
:105BE000FBF7A8FDA0EB0900A84214D89DB12068DE
:105BF0000168490722D5C169C94309070DD40825A1
:105C000005622046FFF7E0FDC4F89050012084F8BB
:105C10008480BDE8F0870320FBE7C069C04300052E
:105C20000CD421684FF4006008622046FFF7CCFDD9
:105C30002021C4F8901084F88480ECE72068C069C3
:105C400036EA000004D00020B842C7D00020E0E7C8
:105C50000120F9E710B5D0F8B82200245268904727
:105C600000B10324204610BD00207047002070477B
:105C700013460A46002110B500F0C4F9002010BDFB
:105C800013460A46002110B500F05DFA002010BD51
:105C900010B58021044600F040FA2046BDE81040CF
:105CA000002100F03ABA10B50521C0F89412002383
:105CB0001A46194600F0A6F9002010BD10B5826101
:105CC0000223C0F89432C26113460A46002100F054
:105CD0003AFA002010BD10B50421C0F89412002338
:105CE0001A46194600F02FFA002010BDF8B50446F8
:105CF0000D460020ADF800004888010A062947D06B
:105D000006DC01290FD0022912D0032962D11DE03F
:105D1000072946D00F295DD1D4F8B402C26920E02A
:105D2000694690473BE0D4F8B412207C0A68F7E754
:105D3000207C02260028D4F8B80205D0C16A684643
:105D400088470146467036E0816AF8E7C0B2062807
:105D500040D2DFE800F003090D111519D4F8B402A0
:105D60004268B2B3207CDBE7D4F8B4028268F8E77B
:105D7000D4F8B402C268F4E7D4F8B4020269F0E7D8
:105D8000D4F8B4024269ECE7D4F8B4028269E8E7D7
:105D9000207CF0B9D4F8B802416B684688470146C8
:105DA00009E0207CA8B9D4F8B802016B684688479E
:105DB000014607204870EA888AB1BDF8000040B16A
:105DC000824200D902462046ADF80020FFF776FF58
:105DD000F8BDFFE729462046FFF75AFFF8E72046BF
:105DE000FFF779FFF4E701004FF0000004D001292C
:105DF00001D0022901D0032070470120704710B55F
:105E0000D0F8C802FBF76BFDBDE81040FFF7EBBF11
:105E10002DE9F041174604464FF0000521B194F8F2
:105E20009C02032842D04CE0D4F8941204F11400F0
:105E3000022935D1D0E902639E4206D9F21A3946C9
:105E400082602046FFF71CFF0FE0B34214D1406888
:105E5000984211D3D4F8981288420DD200222046DD
:105E60001146FFF70DFFC4F8985200231A46194651
:105E7000204600F0C7F813E094F89C02032808D1EC
:105E8000D4F8B802C16821B1C4F8D452C168204620
:105E900088478021204600F040F92046FFF703FFA5
:105EA00094F8A00268B184F8A0520AE0D4F8B802CD
:105EB000426932B1C4F8D452426920469047002862
:105EC00000D10020BDE8F08170B5134604464FF0C4
:105ED000000221B194F89C02032830D03AE0D4F8B3
:105EE000941204F5AA70032934D1D0E902518D42ED
:105EF0000AD96A1A82600846824200D302461946CD
:105F00002046FFF7B5FE25E094F8AA0210F01F0026
:105F100003D0012802D0022800D0002294F89C026D
:105F2000032808D1D4F8B802016921B1C4F8D422F9
:105F30000169204688472046FFF7CDFE0AE0D4F8E5
:105F4000B802836933B1C4F8D422826920469047ED
:105F5000002800D1002070BD0020704710B5D0F897
:105F6000B812012280F89C22002429B103794A68E2
:105F7000D9B2904700B10324204610BDD0F8C82202
:105F800001F07F000B0600EBC00002EB800002D5A1
:105F900090F83E00704790F87E02704710B5D0F838
:105FA000D42200EB8202D2F8B82222B190F89C32BF
:105FB000032B02D004E0032010BD126A02B1904707
:105FC000002010BD10B5D0F8D42200EB8202D2F828
:105FD000B82222B190F89C32032B02D004E00320B7
:105FE00010BD526A02B19047002010BD10B51C468A
:105FF000D0F8C80213462246FBF79FFCBDE81040CC
:10600000FFF7F1BE10B5D0F8C802FBF7C6FCBDE83B
:106010001040FFF7E8BE2DE9F041044601250020BD
:10602000D4F8B812064684F89C52C4F89402606012
:10603000C4F8A40284F8A00231B14A6822B1002158
:106040002046904700B103262046002240231146F7
:10605000FFF7CCFF4027A4F8645100223B46802183
:106060002046C4F86071FFF7C1FFA584304627625F
:10607000BDE8F08190F89C12042903D190F89D129C
:1060800080F89C120020704710B590F89C120329EC
:1060900005D1D0F8B81211B1C96901B18847002003
:1060A00010BD01740020704710B5D0F8C802FBF78E
:1060B000D7FFBDE81040FFF796BE70B5044600F26A
:1060C000AA20054600F048F894F8AA020123B4F883
:1060D000B01210F01F02C4F89432C4F898120AD01B
:1060E000012A0ED0022A12D000F080012046BDE81D
:1060F000704000F012B829462046BDE8704000F01C
:10610000A9B829462046BDE8704000F0ECB9294600
:106110002046BDE8704000F034B910B5D0F8C80290
:10612000FBF755FCBDE81040FFF75DBE90F89C12F0
:10613000042903D090F89C1280F89D12042180F865
:106140009C120020704710B5D0F8C802FBF779FC0C
:10615000BDE81040FFF747BE70B5054608788C1CB7
:106160002870487868702046FFF77CF9A41C688086
:106170002046FFF777F9A880A01CFFF773F9E880A5
:1061800070BDD0F8B83202460020002B02D01B6848
:1061900010461847704700002DE9F0412C4E044688
:1061A000887800258846C1B20129317006D9414658
:1061B0002046FFF76DFD0320BDE8F08194F89C02B6
:1061C000022702280CD003281DD041462046FFF7A5
:1061D0005FFD31782046FFF73DFD03252846EBE7BC
:1061E00089B320466160FFF7CCFF050004D041462B
:1061F0002046FFF74DFD1DE02046FFF76CFD032014
:1062000084F89C02EAE7C1B1606888421BD0C1B241
:106210002046FFF71FFD317820466160FFF7B1FF90
:10622000050010D041462046FFF732FD2179204677
:10623000FFF710FD84F89C72D0E7616084F89C72CF
:106240002046FFF707FD2046FFF745FDC6E70000A3
:10625000940000242DE9F0410A784FF0000512F077
:1062600060020CD0202A01D0402A7DD1D0F8D4225F
:1062700000EB8202D2F8B8229268904731E04B7866
:10628000002201260A2B6FD2DFE803F041666E5828
:106290006E08056E2D29FFF729FD67E00446888802
:1062A000D8B9C888C8B94888802816D294F89C22E2
:1062B00000F07F07032A10D03946204684F89E72EA
:1062C000FFF7F2FE2046FFF706FD1FB1022084F81B
:1062D0009C024BE084F89C6248E0204644E0FFF7D3
:1062E0005BFF054642E0CB88012B3DD190F89C3204
:1062F000012B04D0022B02D0032B35D104E000F196
:1063000008018260012216E00122011D13E090F8CD
:106310009C22012A03D0022A01D0032A24D1CA8850
:10632000022A21D1D0F8A412C66009B10321C160AC
:10633000022200F10C01FFF7C1FC17E04A88012A94
:1063400002D0022A03D00FE0C0F8A46216E08988C8
:10635000090A80F8A01211E090F89C32012B08D0B5
:10636000022B06D0032B04D0FFF792FC2846BDE891
:10637000F08149880129F9D1C0F8A422FFF7ABFCCC
:10638000F4E72DE9F0410A780E460979054612F046
:1063900060004FF00008CCB20BD0202801D040287C
:1063A0006AD121462846FFF75FFCFF2800D0D8B30A
:1063B00096E07078C8B3012824D003285CD195F802
:1063C0009C02022802D0032856D10CE0002C53D0A6
:1063D000802C51D021462846FFF79FFE8021284679
:1063E000FFF79BFE7CE0708840B93CB1802C05D063
:1063F000F08818B921462846FFF78FFE2846FFF798
:106400006AFC6DE095F89C020228DFD0032863D176
:10641000708880BB600603D021462846FFF7EFFC5A
:106420002846FFF758FCBCE700E00AE0C5F8D402B4
:10643000D5F8B8028268F2B13146284690478046C6
:106440004EE095F89C020027022802D0032843D191
:1064500013E00CB1802C3FD1200604F07F0000EB4C
:10646000800005EB800101D5143101E001F5AA712E
:1064700002220F602CE033E02EE0200604F00F0033
:1064800000EB800005EB800009D5808C20B304F080
:106490007F0000EB800005EB800614360AE0B0F8C0
:1064A0006401C8B104F07F0000EB800005EB8006BA
:1064B00006F5AA764CB1802C07D021462846FFF776
:1064C0005DFD10B10120306000E0376002223146EE
:1064D0002846FFF7F3FB03E031462846FFF7D8FBD9
:1064E0004046BDE8F08170B5054608780E464FF08D
:1064F000000410F0600003D0202801D0402827D1EC
:1065000095F89C02012803D0022801D003281FD14E
:10651000B088C1B201291AD8C1B22846FFF7A6FB3C
:10652000FF280CD058B9D5F8B8128A683AB1C5F826
:10653000D40228468A6831469047044600E0032486
:10654000F088204307D12846FFF7C5FB03E031461A
:106550002846FFF79DFB204670BD000070B54D78C2
:1065600001230A78012D1C4C02F00F0503FA05F3F4
:10657000D0F81C5817D000EB421245EA0343C0F88C
:106580001C38D2F8000B00040BD40B890979D2F81F
:10659000000BC3F30A03184344EA81410843C2F8DD
:1065A000000B002070BD9EB23543C0F81C5800EBB4
:1065B0004213D3F800090004F3D40D890979D3F804
:1065C0000009C5F30A058904284341EA82510843BA
:1065D0002043C3F80009E4E700800010D0F8001958
:1065E0006FF30A01C0F80019D0F8041841F4807163
:1065F000C0F804180020704710B5144C036CA34277
:1066000003D9D0F8003B002B1EDB0023C0F8103B61
:106610000129D0F8101B41F40021C0F8101BD0F85C
:10662000101B41F01801C0F8101BD0F8101B41F0EE
:10663000C041C0F8101B07D1C0F8142BD0F8001BC4
:1066400041F08021C0F8001B002010BD0A30544FDB
:106650000B784A78012A00EB43100BD0D0F8002BBE
:1066600022F40012C0F8002B0979032914D0022962
:1066700012D017E0D0F8002922F40012C0F8002947
:106680000979032901D002290CD1D0F8001941F071
:106690008051C0F8001905E0D0F8001B41F080518E
:1066A000C0F8001B002070470A784B78D1B2012B4C
:1066B00000EB421012D0D0F8002B002A06DB29B1E3
:1066C000D0F8001B21F08041C0F8001BD0F8001B5F
:1066D00041F40011C0F8001B00207047D0F80029D9
:1066E000002A06DB29B1D0F8001921F08041C0F85A
:1066F0000019D0F8001941F40011C0F80019EBE7B7
:10670000F8B50B786FF060464F788A4DDCB2012FF8
:1067100000EB43132BD0D3F8107B002C07EAC544C1
:10672000C3F8104BD3F8104B04EA0504C3F8104B20
:106730007ED00D69002D7CD08C6825446D1EB5FB84
:10674000F4F5ADB26C430C6206EAC545D3F8104BC4
:106750002C43C3F8104BD3F8104B0D6AC5F3120548
:1067600054EA0504C3F8104B012A6ED0C9E00F6942
:1067700037B3D3F810796FF31207C3F81079D3F851
:10678000107907EA0507C3F810794CB30F698D68D3
:10679000D3F810C92F447F1EB7FBF5F506EAC545AF
:1067A00045EA0C05C3F810590E69D3F81059C6F321
:1067B00012063543C3F810590D79012D1CD027E07E
:1067C000D3F810692E40C3F81069D3F8105945F476
:1067D0000025C3F81059D3F810596FF3120515E0CE
:1067E0000E698D68AE4200D90D61D0F8106946F48B
:1067F0000026C0F81069D7E7D3F8105925F0C04536
:10680000C3F81059D3F8105945F00055C3F8105982
:10681000012A1BD000EB4413D3F8004944F0044490
:10682000C3F800490C79012C31D00A6972B301E038
:1068300042E055E00B78D0F83418012203F00F0342
:106840009A401143C0F8341871E056E0CA691AB191
:1068500000EB4413C3F81429097901290ED1D0F8AB
:106860000818C90500EB4411D1F8002902D442F000
:10687000005201E042F08052C1F8002900EB4410C0
:10688000D0F8001941F00441C0F800194FE0D0F8E9
:106890000848E405D3F8004902D444F0005401E06C
:1068A00044F08054C3F8004900920B8A0A78C96802
:1068B0009BB200F093F93AE00C690CB18C680C6162
:1068C0008C680C62C4F31205D0F8104B2C43C0F84E
:1068D000104BD0F8104B44F40024C0F8104B43E7A1
:1068E0008D68D3F8104BC5F312052C43C3F8104B39
:1068F000D3F8104B44F4002434E7CA680AB1C3F853
:10690000142B097901290CD1D0F80808C005D3F857
:10691000000B02D440F0005001E040F08050C3F87A
:10692000000BD3F8000B40F00440C3F8000B00202C
:10693000F8BD0000FFFF07E038B5002242F21074F6
:10694000002300920A784D78012D00EB421219D0F5
:10695000D2F8005B002D3CDAD2F8005B45F0006510
:10696000C2F8005B0A7800EB4212D2F8005B45F0F7
:106970008045C2F8005B009A521C0092A24221D9C5
:10698000012326E0D2F80059002D22DAD2F800596E
:1069900045F00065C2F800590A7800EB4212D2F8BF
:1069A000005945F08045C2F80059009A521C0092E7
:1069B000A242E5D80A7800EB4212D2F80029002A58
:1069C000F3DB06E00A7800EB4212D2F8002B002A33
:1069D000D1DB184638BD000018B50E4A00230093DD
:1069E000009C641C009494420CD80469002CF7DAD3
:1069F0002024009344EA811101610099491C00910F
:106A0000914201D9032018BD01698906F5D40020FF
:106A100018BD0000400D0300D0F8080810F0060073
:106A200004D0022803D0062801D00F20704702208E
:106A30007047406900F001007047D0F81818D0F88E
:106A40001C08084080B27047D0F81818D0F81C080D
:106A50000840000C704710B5D0F8102801F00F0363
:106A600000EB4114D0F83418D4F80809D94001F0EB
:106A7000010142EAC111084010BD00EB4111D1F8FB
:106A8000081BD0F814080840704741698069084025
:106A900070470346084630B5940802F0030100220F
:106AA00003F5805303E01D68521C40F8045BA242CA
:106AB000F9D300290CD01C680023491EDD0009040D
:106AC00003F10103090C24FA05F200F8012BF4D1BB
:106AD00030BDD0F800284FF4FE6303EA011322F41E
:106AE000FE62C0F80028D0F800181943C0F800185A
:106AF00000207047022A3ED1264A274B0A449A4278
:106B000001D20F2138E0254A254B0A449A4201D28E
:106B10000E2131E0234A244B0A449A4201D20D212E
:106B20002AE0224A224B0A449A4201D20C2123E055
:106B3000204B214A0B44934201D20B211CE01F4BF6
:106B40001F4A0B44934201D20A2115E01D4B1E4AF5
:106B50000B4493420FD31D4B1D4A0B44934201D269
:106B6000082109E01B4B1C4A1944914201D207211C
:106B700002E0062100E00921C2684FF4705322F4BC
:106B80007052C26003EA8123C1681943C1600020CA
:106B900070470000405327FF00350C00401E1BFFCC
:106BA00040420F0000DC0BFF804F1200808CF9FE8A
:106BB00020D6130060B6E5FE60E3160000D3CEFEDB
:106BC00040771B00C05BB3FEC091210000CA91FE5C
:106BD00020753800E05459FEE09C410010B5029C3D
:106BE00074B900EB0232DB1C00209B0802F58052D6
:106BF00004E000BF51F8044B1460401C9842F9D3E4
:106C0000002010BDFEE700000FB4054B10B503A92E
:106C1000044A029800F0FEF810BC5DF814FB000076
:106C20004D750008980000240FB4084B10B504A956
:106C300002AA039800F0EEF8044602A9002000F032
:106C400080FC204610BC5DF814FB00004375000872
:106C5000090700284FEA116104DB00F1E02080F809
:106C60000014704700F00F0000F1E02080F8141DC0
:106C7000704702E008C8121F08C1002AFAD1704705
:106C80007047002001E001C1121F002AFBD17047AC
:106C90002DE9FF5F82B00021DDE90430020DDDF84F
:106CA00040B0034318D044F61050A2F2FF324243E2
:106CB0001514119801281FD0A5EB0B00401C5FEAAA
:106CC000000A4FF000064E4FDFF83891B0465046AC
:106CD00015D5CAF1000413E0119801244AA3012834
:106CE00001D16FEA0B010298119AC0E90031C0E9A5
:106CF000024206B0BDE8F09FCBF10000DFE704469A
:106D00000021404A491842EB0450CDE9001012E03E
:106D1000E00707D032463B4640464946F9F7F7FBC5
:106D20008046894632463B4610461946F9F7EFFB46
:106D300006460F466410002CEAD1DDE90401DDE9C6
:106D40000023BAF1000F06DAF9F7E1FB42464B46A1
:106D5000F9F7DDFB05E0F9F74CFC42464B46F9F745
:106D600048FC04460E460022284BF9F7C9FC03D81C
:106D70004FF0FF30014607E00022254B2046314608
:106D8000F9F71EFBF9F7A4FC102409E0002C0ADB3C
:106D90000A220023F9F79CFA039B30321A55641E2D
:106DA00050EA0102F2D1641C039AC4F111031444A5
:106DB000119A012A03D0012208430DD10AE00843A9
:106DC00004D000204FF0110B119072E7A3EB0B05DC
:106DD0006D1E0DE05B4504DD4FF0000205F101057D
:106DE00004E003DA4FF00002A5F10105002AECD01F
:106DF00002981199C0E90231C0E9004579E7000025
:106E0000000014400000F03F300000000000F0439C
:106E10000000E03F2DE9FF4F95B09B4689460646AE
:106E200000250FE2252877D100242746F84A0121C2
:106E3000059400E0044316F8013F203B01FA03F0FB
:106E40001042F7D130782A2811D06FF02F03307814
:106E5000A0F13002092A16D8059A44F0020402EB88
:106E6000820203EB42021044761C0590EFE759F8CA
:106E7000042B0592002A03DA504244F40054059092
:106E800044F00204761C30782E2816D116F8010F33
:106E900044F004042A280DD06FF02F023078A0F1BE
:106EA0003003092B09D807EB870302EB4303C7180C
:106EB000761CF3E759F8047B761C30786C280FD0E9
:106EC00006DC4C2817D068280DD06A2814D104E0BD
:106ED000742810D07A280FD10DE044F400140AE091
:106EE00044F4801401E044F440147278824202D1E8
:106EF00004F58014761C761C307866280BD013DCE1
:106F0000582877D009DC002875D04528F6D04628C7
:106F1000F4D047281AD19DE118E0632835D06428C1
:106F200079D0652812D195E1702873D008DC6728E4
:106F3000F1D069286FD06E280DD06F2806D1B5E04A
:106F400073282CD0752875D0782874D05A46179994
:106F500090476D1C75E1C4F30250022809D0032844
:106F60000DD0D9F8001004280DD00D6009F10409E6
:106F700067E1D9F80010EA17C1E90052F6E7D9F83D
:106F800000100D80F2E70D70F0E719F8041B8DF882
:106F9000001000208DF80100EA46012003E059F8B6
:106FA00004AB4FF0FF3061074FF0000102D40DE059
:106FB00008F101018846B9420FDA8045F8DB1AF87A
:106FC00008100029F4D108E008F101018846814247
:106FD000FADB1AF808100029F6D105985B46A0EBF9
:106FE000080721463846179A00F094FA284400EB27
:106FF000080507E04DE029E10DE01AF8010B5A46BB
:1070000017999047B8F10108F7D25B4621463846F8
:10701000179A13E142E00A220092C4F302524FF0A1
:10702000000A022A08D059F804CB032A4FEAEC716F
:107030000AD00DE029E02AE009F1070121F007025A
:10704000F2E802C1914609E00FFA8CFC4FEAEC71BC
:10705000042A03D14FFA8CFC4FEAEC71002907DABD
:107060000A460021DCF1000C61EB02012D2202E056
:10707000220504D52B228DF80420012203E0E2072B
:1070800001D02022F7E7904659E00A2102E01022C1
:107090000DE010214FF0000A00910BE010224FF09C
:1070A000000A44F004040827009203E008224FF08D
:1070B000000A0092C4F30252022A05D059F804CB08
:1070C0000021032A08D009E009F1070121F0070295
:1070D000F2E802C1914605E01FFA8CFC042A01D1B6
:1070E0000CF0FF0C4FF00008220728D5702806D0BE
:1070F000009B83F0100353EA0A0305D00EE0402200
:107100008DF80420012208E05CEA010206D030225A
:107110008DF804208DF8050002229046009B83F034
:10712000080353EA0A030AD15CEA010201D16207AB
:1071300005D530228DF804204FF001087F1E582815
:1071400004D034A003900EA802900DE036A0F9E719
:1071500053466046009AF9F7BBF884460398825C70
:107160000298401E029002705CEA0100F0D1029881
:1071700006A9081A00F1200A600702D524F4803419
:1071800000E00127574502DDA7EB0A0000E00020E0
:1071900000EB0A01009005984144401A0590E00375
:1071A00006D45B462146179A059800F0B3F90544CA
:1071B000002706E001A85A46C05D179990476D1C4C
:1071C0007F1C4745F6DBE0030CD55B462146179A4A
:1071D000059800F09FF9054404E030205A461799BD
:1071E00090476D1C0099481E00900029F5DC08E0CE
:1071F000029802995A460078491C029117999047C3
:107200006D1CBAF10001AAF1010AF1DC65E1000090
:10721000092801003031323334353637383961626C
:107220006364656600000000303132333435363730
:1072300038394142434445460000000000F058F907
:107240000544761C307800287FF4ECAD19B0284650
:10725000BDE8F08F620700D4062709F1070222F08B
:10726000070CFCE80223E14603F000485FEA080C43
:1072700002D00FF2702C0DE05FEA045C02D50FF231
:10728000682C07E05FEAC47C02D00FF2602C01E0BA
:10729000AFF2700C4FF0FF3823F00043CDF850C030
:1072A00065280CD006DC452809D046281DD0472883
:1072B0003DD13DE0662818D067287ED138E0002116
:1072C000112F01DB112000E0781CCDE9000106A997
:1072D0000EA8FFF7DDFCDDE90F010E9A03910021F6
:1072E000009207F1010A04914DE04FF00040009731
:1072F000CDE9011006A90EA8FFF7CAFCDDE90F02CF
:1073000003920E9B11990022DDF80CA000930492C9
:1073100011B9791C00EB010AB7EB0A0004D4C0F1E3
:10732000FF3007F1010A0490AAEB0700019044E046
:10733000012F00DA01270021112F01DD112000E0CB
:107340003846CDE9000106A90EA8FFF7A1FCDDE94A
:107350000F010E9A0391002104910092BA46210771
:107360000CD40399514500DA8A46BAF1010F05DDC4
:10737000009AAAF10101515C302908D0B84202DA22
:1073800010F1040F06DA0121CDE9011015E0AAF190
:107390000101E9E7002805DC049901440491AAEB06
:1073A000000102E0411C514500DD8A460499401A63
:1073B000401C01904FF000400290200704D4019837
:1073C000504501DBCDF8048000208DF84F00029875
:1073D0000DF14F07B0F1004F25D02B200E900298F1
:1073E0004FF0020800280CDA404202902D200E9047
:1073F00007E00A210298F8F7AEFF3031029007F853
:10740000011DB8F10001A8F10108F2DC0298002882
:10741000EFD1791E0E980870307800F0200040F00F
:10742000450007F8020D12A8C01B00F107081498C8
:10743000007800B1012000EB0A01019801EBE07136
:1074400005984144401A401E0590E00306D45B466F
:107450002146179A059800F05DF8054414980078C5
:1074600018B15A46179990476D1CE00324D55B4626
:107470002146179A059800F04DF805441CE0049841
:10748000002807DBDDE90301884203DD0098405C4A
:10749000179901E0179930205A469047049805F152
:1074A0000105401C04900198401E019004D12E203B
:1074B0005A46179990476D1CBAF10001AAF1010ACA
:1074C000DDDC05E017F8010B5A46179990476D1C53
:1074D000B8F10001A8F10108F4DC5B462146179AD7
:1074E0000598ABE62D0000002B00000020000000F6
:1074F0002DE9F041044600251E461746880404D4B1
:1075000005E039462020B0476D1C641EF9D5284699
:10751000BDE8F0812DE9F041044600251E46904665
:10752000C80301D5302700E02027880404D505E0F2
:1075300041463846B0476D1C641EF9D52846BDE863
:10754000F0810A68531C0B601070704713B5044833
:10755000642301226946FCF7D1FE00981CBD00009F
:10756000CC09002486B06E4A00201168890311D42A
:10757000BFF34F8FBFF36F8F6A490860BFF34F8F20
:10758000BFF36F8F116841F400311160BFF34F8F6B
:10759000BFF36F8F1168C90323D46149703108604C
:1075A000BFF34F8F081F43F6FF7400685D4D103521
:1075B000C0F34E31C0F3C90304EA4116184600BFB8
:1075C00046EA80772F60401EFAD2491EF4D2BFF3FC
:1075D0004F8F106840F480301060BFF34F8FBFF3BF
:1075E0006F8FFAF7B5F8FDF745FFFDF7D9FAFDF70C
:1075F00075FAFDF72BFBFDF773FBFDF731FE4A48EB
:10760000002140F2FF72F9F79BFA484D08B172B6BB
:10761000FEE7474E00244FF6FF774348F9F7B2FEE6
:1076200008B172B6FEE740486421F9F719FE08B1C7
:1076300072B6FEE73C48F9F7BDFC80B240F6E44183
:1076400026F814004143B1FBF7F145F82410641CFF
:10765000042CE2D33448F9F719FF354C1E21286871
:10766000103C20606868E060A868A0F51B7000EB23
:10767000D07001EB6000A060E868800060602D4879
:10768000FDF788F92C48FDF723F92C48FDF738F968
:1076900014211E202AA2FCF7A1FF41211E202CA2AA
:1076A000FCF77EFF4FF4FA70F9F710FF22682BA168
:1076B0006846FFF7B9FA5A216A461E20FCF770FFA8
:1076C00029A06946FFF7A0FAE26829A16846FFF7FA
:1076D000ABFA73216A461E20FCF762FF22A06946BE
:1076E000FFF792FAA26825A16846FFF79DFA8C2160
:1076F0006A461E20FCF754FF1BA06946FFF784FA78
:10770000626822A16846FFF78FFAA5216A461E200B
:10771000FCF746FF14A06946FFF776FA79E7000008
:1077200014ED00E050EF00E0AC0000249C000024C9
:1077300010000024380000245000002480FF800046
:10774000BFD8D6C6C6F73A53543737383900000089
:107750004D616B6572626173650000005043323A9F
:10776000202534646D56000025730D0A00000000CA
:10777000567265663A202534646D560074656D70E6
:107780003A202533642027430000000076626174AC
:107790003A202534646D5600000000800000C000CF
:1077A00030C00130400630201830209831101031A0
:1077B000080031F80F311404311204311004311073
:1077C0000431100431900731108330101030101044
:1077D00030101030303030E01F1E00000800000074
:1077E000B4B4000000000000000000000000000031
:1077F0000000000000000000000000000000000089
:107800000000000000000000000000000000000078
:107810000000000000000000000000000000000068
:10782000000000000000000000000000040000183C
:1078300000001010F8FF3F0802180C030804FF05B1
:1078400080820340C2002064001038000838000025
:10785000EE00008303E0017E9CFF1B80000380009C
:107860000380000380000380FF03C00001000000CC
:10787000BFCD00000000000000000000000000007C
:1078800000000000000000000000000000000000F8
:1078900000000000000000000000000000000000E8
:1078A00000000000000000000000000000000000D8
:1078B00000000000000000000000008080008081C7
:1078C00001808001FCFF1F80800180FF018080011A
:1078D00080800180FF01808001808011FEFF3F8059
:1078E000890080980140080320881CD8FF390608C9
:1078F00000000800000808FCFF1F00000000000056
:10790000BBF90000000000000000000000000000C3
:107910000000000000000000000000000000000067
:107920000000000000000000000000000000000057
:107930000000000000000000000000000000000047
:10794000000000000000000000000000C0003080C7
:1079500000308000308400308C00308C08308C1E69
:10796000308C09FEFD08308E08B08D08308C083050
:107970008C08308C0830CC0F30CC2CB0CF20700C61
:10798000201E0C20040C6000F83F000000000000E6
:10799000B5D800000000000000000000000000005A
:1079A00000000000000000000000000000000000D7
:1079B00000000000000000000000000000000000C7
:1079C00000000000000000000000000000000000B7
:1079D00000000000000000000000000000000000A7
:1079E000000000000000C0F8FFC018C0CC18C0CCD8
:1079F000F8FFCC18C0CC180CCC180CCCD8FFCCD8C5
:107A0000CCCCD8CCCCD8CCCCCCCCC0CCCCC004FC4E
:107A1000C0060C7E00000000000000000000000016
:107A2000CBA22000000000000000000000000000C9
:107A30000000000000000000000000000000000046
:107A40000000000000000000000000000000000036
:107A50000000000000000000000000000000000026
:107A60000000000000000000000000000000000016
:107A700000000000000000F8FF7F180060180060A0
:107A8000F8FF7F180666180C06180803D8FF7F1841
:107A90000C06180C06F8FFFF0C0C060C0C0604066E
:107AA00006060306030106000000000000000000B7
:107AB000C6C120000000000000000000000000001F
:107AC00000000000000000000000000000000000B6
:107AD00000000000000000000000000000000000A6
:107AE0000000000000000000000000000000000096
:107AF0000000000000000000000000000000000086
:107B0000000000000200C084FFCC9CC1CC88C1CC26
:107B100080D9CC83D9CC8ED9CC98D9CC80D9CC8003
:107B2000D9CC88D9CC98CDCC0C0CCC0C36C00C63FD
:107B3000C0C6C1C074807D000000000000000000CD
:107B4000B2E2200000000000000000000000000081
:107B50000000000000000000000000000000000025
:107B60000000000000000000000000000000000015
:107B70000000000000000000000000000000000005
:107B800000000000000000000000000000000000F5
:107B90000000000002001B0C0073180043380003B3
:107BA00080FFFF0000031F000318000398FF031865
:107BB0001802181806981806D8188678188C38F8FD
:107BC0008D9C0F980800F0000000000000000000ED
:107BD000CAD42000000000000000000000000000E7
:107BE0000000000000000000000000000000000095
:107BF0000000000000000000000000000000000085
:107C00000000000000000000000000000000000074
:107C10000000000000000000000000000000000064
:107C200000000000008301FEFFFF008301F0FF3F22
:107C3000300030F0FF3F300030F0FF3F300C3000BC
:107C40000600FEFFFFC0300CF8FF7F673098603001
:107C50001860301F0030000000000000000000002D
:107C6000C4BB200000000000000000000000000075
:107C70000000000000000000000000000000000004
:107C800000000000000000000000000000000000F4
:107C900000000000000000000000000000000000E4
:107CA00000000000000000000000000000000000D4
:107CB0000000000000630080C100C080016000037C
:107CC00030000618001C0E00700200C0F8FF0F0004
:107CD000030E00030E800106800106C0000660004E
:107CE0000738FC030E000000000000000000000048
:107CF000B7D62000000000000000000000000000D7
:107D00000000000000000000000000000000000073
:107D10000000000000000000000000000000000063
:107D20000000000000000000000000000000000053
:107D30000000000000000000000000000000000043
:107D40000018600C306018306010FEE1FF00600029
:107D500082EDC1C46C636C6C36FE65FF3066183012
:107D60006618306018FEB1FF3030183818181C1C27
:107D7000180E0E180202180000000000000000009B
:107D8000B1E620000000000000000000000000003C
:107D900000000000000000000000000000000000E3
:107DA00000000000000000000000000000000000D3
:107DB00000000000000000000000000000000000C3
:107DC00000000000000000000000000000000000B3
:107DD00000000000003800007000FFFFFF003800C6
:107DE000064E608C6338D03F08001C00202604F843
:107DF000C31CCFFFF1023041003000FFFFFF003015
:107E00000000300000300000000000000000000012
:107E1000C2CA2000000000000000000000000000B6
:107E20000000000000000000000000000000000052
:107E30000000000000000000000000000000000042
:107E40000000000000000000000000000000000032
:107E50000000000000000000000000000000000022
:107E60000030800030800130000330FEFFFE06C08D
:107E70003086C4304018303030301860F00FC03ECB
:107E8000F87F30000330000330000330000330007F
:107E90000330FFFF1E000000000000000000000093
:107EA000BFD820000000000000000000000000001B
:107EB00000000000000000000000000000000000C2
:107EC00000000000000000000000000000000000B2
:107ED00000000000000000000000000000000000A2
:107EE0000000000000000000000000000000000092
:107EF000000000008001609801608C0163FC3F631A
:107F0000860163820163FFFF63800163800163FC7C
:107F10007F638C61638C61638C61608C61608C3D7C
:107F20006080013F00000000000000000000000031
:107F3000D6C6200000000000000000000000000085
:107F40000000000000000000000000000000000031
:107F50000000000000000000000000000000000021
:107F60000000000000000000000000000000000011
:107F70000000000000000000000000000000000001
:107F800000000000000000FCC77F0CC6600CC6604B
:107F9000FCC77F0CC660003006FEFFFF006E0000CD
:107FA000C701F0010F1F00F8FCC77F0CC6600CC6AC
:107FB00060FCC77F0CC660000000000000000000ED
:107FC000C6F72000000000000000000000000000D4
:107FD00000000000000000000000000000000000A1
:107FE0000000000000000000000000000000000091
:107FF0000000000000000000000000000000000081
:108000000000000000000000000000000000000070
:1080100000000800001800003000FEFFFF0600C04E
:108020000600C0E0FF0F00000700800100E0000034
:108030003000FFFFFF003000003000003000003053
:1080400000801F0000000000000000000000000091
:10805000D7D6200000000000000000000000000053
:108060000000000000000000000000000000000010
:108070000000000000000000000000000000000000
:1080800000000000000000000000000000000000F0
:1080900000000000000000000000000000000000E0
:1080A0000020800130C000F8DFFFC8600684710C3A
:1080B00002390801100060000C70000CB8FFFF3C92
:1080C000000C36040C320C0C30180C30100C300044
:1080D0000C30000C30E00700000000000000000041
:1080E000B7FB2000000000000000000000000000BE
:1080F0000000000000000000000000000000000080
:10810000000000000000000000000000000000006F
:10811000000000000000000000000000000000005F
:10812000000000000000000000000000000000004F
:1081300000000000C0300060E000F0FFFF38600089
:10814000F6FFFF336000F0FFFF306000F0FFFF300C
:108150000000003000003000FEFFFF00FE01803113
:10816000077030380F30C000000000000000000031
:10817000BCAF200000000000000000000000000074
:1081800000000000000000000000000000000000EF
:1081900000000000000000000000000000000000DF
:1081A00000000000000000000000000000000000CF
:1081B00000000000000000000000000000000000BF
:1081C000000000000018000018000018000018004F
:1081D000FCFF7F0C18600C18600C18600C18600C09
:1081E0001860FCFF7F0C18600018000018000018D1
:1081F000000018000018000000000000000000004F
:10820000D6D02000000000000000000000000000A8
:10821000000000000000000000000000000000005E
:10822000000000000000000000000000000000004E
:10823000000000000000000000000000000000003E
:10824000000000000000000000000000000000002E
:1082500000001C00003800006000FFFFFF60000C01
:1082600060000CC00006C00006800103008301000E
:10827000C700006C0000380000EE00C083077800E3
:108280003C0600E0000000000000000000000000CC
:10829000CEC420000000000000000000000000002C
:1082A00000000000000000000000000000000000CE
:1082B00000000000000000000000000000000000BE
:1082C00000000000000000000000000000000000AE
:1082D000000000000000000000000000000000009E
:1082E00000000000000000F8FF3F180030180030C8
:1082F000F8FF3F180030180030F8FF3F1800300436
:10830000C62008C63018C63830C61820C60800C6B1
:1083100000FEFFFF00000000000000000000000061
:10832000CFD420000000000000000000000000008A
:10833000000000000000000000000000000000003D
:10834000000000000000000000000000000000002D
:10835000000000000000000000000000000000001D
:10836000000000000000000000000000000000000D
:1083700000000000000000FCFF7F00000000000083
:10838000000000000000FFFFFF003000203004303C
:10839000300C3830181830300C30600630C00230E5
:1083A00080003000801F000000000000000000007E
:1083B000CABE200000000000000000000000000015
:1083C00000000000000000000000000000000000AD
:1083D000000000000000000000000000000000009D
:1083E000000000000000000000000000000000008D
:1083F000000000000000000000000000000000007D
:1084000000000000000000FEFFFF00300000300010
:1084100000300030300030300030300030F07F303D
:10842000300030300030300030300030300030303C
:1084300000FFFFFF0000000000000000000000003F
:10844000D5FD20000000000000000000000000003A
:10845000000000000000000000000000000000001C
:10846000000000000000000000000000000000000C
:1084700000000000000000000000000000000000FC
:1084800000000000000000000000000000000000EC
:1084900000000000000300800100C0FF076000032F
:1084A0003880010C6000F4FF3F3000303030303055
:1084B000303030303030303030303030F8300098BC
:1084C0000300070EE001781E00C00000000000005D
:1084D000B8BA20000000000000000000000000000A
:1084E000000000000000000000000000000000008C
:1084F000000000000000000000000000000000007C
:10850000000000000000000000000000000000006B
:10851000000000000000000000000000000000005B
:10852000000000000030000030000030000030008B
:1085300060300630300C30301C1830381830300CB9
:1085400030600E30E00630C0023080003000003075
:1085500000C01F000000000000000000000000003C
:10856000D0A120000000000000000000000000007A
:1085700000000000000000000000000000000000FB
:1085800000000000000000000000000000000000EB
:1085900000000000000000000000000000000000DB
:1085A00000000000000000000000000000000000CB
:1085B00000000000C00003C60C01C48601C080FF9B
:1085C000FECF60E0C060F8E360CCFE31C39831308C
:1085D0008031FF0F1B0C0C1B06060E3C070EE00340
:1085E0001BE0C3313C76E00718800000000000006B
:1085F000CAFD200000000000000000000000000094
:10860000000000000000000000000000000000006A
:10861000000000000000000000000000000000005A
:10862000000000000000000000000000000000004A
:10863000000000000000000000000000000000003A
:108640000000000030000330000330FEFF30000364
:10865000300003FFFD7F300C6030FC7F300C603059
:10866000FC7F300C60B0FD7F780C6007FFFF00607E
:108670001C001CF08003000000000000000000004F
:10868000CCEE200000000000000000000000000010
:1086900000000000000000000000000000000000DA
:1086A00000000000000000000000000000000000CA
:1086B00000000000000000000000000000000000BA
:1086C00000000000000000000000000000000000AA
:1086D00000000000000800001800003800FFFFFF45
:1086E000000E00808301C0000770000CFCFF3F00FB
:1086F000C32000C30080C10080C1C0E0C0C038C03A
:10870000C007807F000000000000000000000000A3
:10871000B3E42000000000000000000000000000A2
:108720000000000000000000000000000000000049
:108730000000000000000000000000000000000039
:108740000000000000000000000000000000000029
:108750000000000000000000000000000000000019
:1087600000000000003800007000FEFFFF0600C09F
:108770000686C3C0011E3800700600C0000000F865
:10878000FF3F001800001800001800001800001833
:1087900000FEFFFF000000000000000000000000DD
:1087A000BFD5200000000000000000000000000015
:1087B00000000000000000000000000000000000B9
:1087C00000000000000000000000000000000000A9
:1087D0000000000000000000000000000000000099
:1087E0000000000000000000000000000000000089
:1087F0000000000030600030300030F07F307870D2
:10880000FF5B3830CC0CF88007B8C10F3C7A783663
:108810000EC033F87F31186030186030186030189F
:108820006030F87F30186000000000000000000099
:10883000B8F120000000000000000000000000006F
:108840000000000000000000000000000000000028
:108850000000000000000000000000000000000018
:108860000000000000000000000000000000000008
:1088700000000000000000000000000000000000F8
:1088800000000000000000000000000000000000E8
:1088900000000000000000000000000000000000D8
:1088A00000000000000000000000000000000000C8
:1088B00000000000000000000000000000000000B8
:1088C00000000000C003C003C003C003C003C00316
:1088D000800380018001800180018001800180018E
:1088E00080010000000000008001C003C00380017F
:1088F000000000000000000000000000C018E01CA4
:10890000E01C700E300618038C018400000000008B
:108910000000000000000000000000000000000057
:108920000000000000000000000000000000000047
:108930000000000000000000000000000000000037
:108940000000000020102010201020102010FE7FBA
:10895000FE7FFE7F1008100810081008100810088D
:10896000FE7FFE7FFE7F180C08040804080408043C
:1089700000000000000000000000000000000000F7
:1089800080008000C003B00C90189818981C981CA8
:10899000B800B000F000E000C0038007800F800C3A
:1089A000801C80189C189C188C188C0C9806E0036E
:1089B0008000800080000000000000000000000037
:1089C000000000001C0836082204630463026302EE
:1089D0006302630163012201B61C9C36402240639E
:1089E0004063206320631063106310220836081C64
:1089F0000000000000000000000000000000000077
:108A000000000000F00098008C018C018C018C01AA
:108A10008C00CC005C0038001C3E3C083208730817
:108A20006304E304C3048303834306678C3E781C1A
:108A30000000000000000000000000001C003C00DE
:108A40003C003000300010000C0006000000000068
:108A50000000000000000000000000000000000016
:108A60000000000000000000000000000000000006
:108A70000000000000000000000000000040002096
:108A800000100018000C00040006000200030003A0
:108A900080018001800180018001800180018001CE
:108AA000800100030003000200060004000C00180F
:108AB0000010002000400000000000000200040040
:108AC000080018003000200060004000C000C00016
:108AD000800180018001800180018001800180018E
:108AE0008001C000C000C0006000200030001800FD
:108AF0000800040002000000000000000000000068
:108B000000000000000000000003800380030C63ED
:108B10001C713839600D80038003600D38391C7179
:108B20008C618003800380030000000000000000CF
:108B30000000000000000000000000000000000035
:108B40000000000000000000000000010001000122
:108B50000001000100010001FC7F00010001000193
:108B60000001000100010001000000000000000001
:108B700000000000000000000000000000000000F5
:108B800000000000000000000000000000000000E5
:108B900000000000000000000000000000000000D5
:108BA00000000000000000001C003C003C00300001
:108BB000300010000C000600000000000000000063
:108BC00000000000000000000000000000000000A5
:108BD0000000000000000000FE7F00000000000018
:108BE0000000000000000000000000000000000085
:108BF0000000000000000000000000000000000075
:108C00000000000000000000000000000000000064
:108C10000000000000000000000000000000000054
:108C2000000000000000000018003C003C0018009C
:108C300000000000000000000000000000000040F4
:108C4000006000200030001000180008000C000434
:108C5000000600020003000180018000C000400007
:108C60006000200030001000180008000C00040014
:108C700006000200000000000000000000000000EC
:108C800000000000C0036004300C181818181810F9
:108C90000C300C300C300C300C300C300C300C30F4
:108CA0000C300C30181018181818300C6004C00361
:108CB00000000000000000000000000000000000B4
:108CC0000000000000018001F801800180018001A6
:108CD000800180018001800180018001800180018C
:108CE000800180018001800180018001C003F81FA4
:108CF0000000000000000000000000000000000074
:108D000000000000E007101C0818043004300C308C
:108D10000C30003000180018000C00060003800121
:108D2000C00040002020102008200430FC1FFC1F41
:108D30000000000000000000000000000000000033
:108D400000000000E00318060C0C0C180C180C189E
:108D500000180018000C0006C003000E00180010D8
:108D6000003000300C300C300C100C18180CE003E4
:108D700000000000000000000000000000000000F3
:108D800000000000000600060007000780068006BD
:108D90004006200620061006100608060C060406EB
:108DA0000206FE3F00060006000600060006C03F61
:108DB00000000000000000000000000000000000B3
:108DC00000000000F03FF03F080008000800080025
:108DD00008000800C807280C1818081000300030D8
:108DE000003000300C300C3004180418180CE0036C
:108DF0000000000000000000000000000000000073
:108E000000000000800760183018101818000800D3
:108E100008000C00CC076C0C1C181C100C300C301B
:108E20000C300C300C30183018103018700CC00793
:108E30000000000000000000000000000000000032
:108E400000000000F83FF83F08100C080408040474
:108E50000004000200020002000100018000800006
:108E600080008000C000C000C000C000C000C00082
:108E700000000000000000000000000000000000F2
:108E800000000000E007300C18180C300C300C30DB
:108E90001C301C107818F004E003180F0C1E0C1C7A
:108EA000063806300630063006300C18180CE00381
:108EB00000000000000000000000000000000000B2
:108EC00000000000E00318040C080C18061006301F
:108ED00006300630063006300E380C341836F031C5
:108EE00000300018001800080C0C0C060C03F001F0
:108EF0000000000000000000000000000000000072
:108F00000000000000000000000000000000000061
:108F100000008001C003C0038001000000000000C9
:108F200000000000000000008001C003C0038001B9
:108F30000000000000000000000000000000000031
:108F40000000000000000000000000000000000021
:108F500000000000C001C001C001000000000000CE
:108F600000000000000000000000C001C001C001BE
:108F70008001C000C00000000000000000000000F0
:108F800000000000002000100008000400020001A2
:108F900080004000200010000800080010002000A1
:108FA00040008000000100020004000800100020C2
:108FB00000000000000000000000000000000000B1
:108FC00000000000000000000000000000000000A1
:108FD0000000FE7F00000000000000000000FE7F97
:108FE0000000000000000000000000000000000081
:108FF0000000000000000000000000000000000071
:109000000000000004000800100020004000800064
:109010000001000200040008001000100008000415
:109020000002000180004000200010000800040041
:109030000000000000000000000000000000000030
:1090400000000000C0073018183008600C601C6079
:109050001C601C6000300018000E000300010001BD
:1090600000010001000000008001C003C003800176
:1090700000000000000000000000000000000000F0
:1090800000000000C0076008301018200C2B8C4D29
:10909000844CC64CC64466446644664466466626AE
:1090A00066266417CC0C0C40082018303018C00716
:1090B00000000000000000000000000000000000B0
:1090C00000000000C001C001C001C0012003200356
:1090D0002003200330021006100610061004F80FBB
:1090E000080C080C080C04180418041806381F7C17
:1090F0000000000000000000000000000000000070
:1091000000000000FE07181C18181830183018301E
:10911000183018301818180CF807181818301820BC
:109120001860186018601860186018301818FE0F62
:10913000000000000000000000000000000000002F
:1091400000000000C0076038103018600C400C4070
:109150000C000600060006000600060006000600D9
:10916000060006000C400C40082018103008C0070C
:1091700000000000000000000000000000000000EF
:1091800000000000FE03180E1818181018301830D0
:10919000186018601860186018601860186018600F
:1091A0001860182018301830181818181806FE0300
:1091B00000000000000000000000000000000000AF
:1091C00000000000FE3F183018201840184018001A
:1091D000180018081808180CF80F180C18081808A8
:1091E0001800180018001840184018201830FE3FCA
:1091F000000000000000000000000000000000006F
:1092000000000000FE3F18381820184018401800D1
:10921000180018081808180CF80F180C1808180867
:1092200018081800180018001800180018007E0010
:10923000000000000000000000000000000000002E
:1092400000000000C003300C100818180C100C109F
:10925000040006000600060006000600067E06184A
:10926000061804180C180C18081818183004E00315
:1092700000000000000000000000000000000000EE
:10928000000000003FFC0C300C300C300C300C3077
:109290000C300C300C300C30FC3F0C300C300C30EF
:1092A0000C300C300C300C300C300C300C303FFCDF
:1092B00000000000000000000000000000000000AE
:1092C00000000000F81F8001800180018001800102
:1092D0008001800180018001800180018001800186
:1092E0008001800180018001800180018001F81FE0
:1092F000000000000000000000000000000000006E
:1093000000000000E07F00060006000600060006E0
:10931000000600060006000600060006000600061D
:10932000000600060006000600060006000600060D
:109330000E060E038E01FC0000000000000000007D
:10934000000000007E3E180C1804180618021801D0
:10935000180198009800D800B801B8011803180344
:1093600018061806180C180C180C181818187E7CFB
:1093700000000000000000000000000000000000ED
:10938000000000007E0018001800180018001800E7
:10939000180018001800180018001800180018000D
:1093A0001800180018001840184018201830FE3F08
:1093B00000000000000000000000000000000000AD
:1093C000000000000FF01C381C381C381C381C34FE
:1093D00034343434343434323432643264326432C7
:1093E00064314431C431C431C430C43084308FFC62
:1093F000000000000000000000000000000000006D
:10940000000000000FF81C201C20342034206420B1
:109410006420C420C420842184210423042304263E
:109420000426042C042C04380438043004301F2093
:10943000000000000000000000000000000000002C
:1094400000000000C003300C181808100C300C305D
:10945000062006600660066006600660066006601C
:10946000066004600C300C3008101818300CC00373
:1094700000000000000000000000000000000000EC
:1094800000000000FE0F18181830186018601860EF
:1094900018601860186018301818F80718001800BD
:1094A00018001800180018001800180018007E0096
:1094B00000000000000000000000000000000000AC
:1094C00000000000C003300C181808100C300C30DD
:1094D000066006600660066006600660066006605C
:1094E00006600660E4211C331C36181E300EC007CF
:1094F000004C003C003800000000000000000000AC
:1095000000000000FE07181C18181830183018301A
:10951000183018301818180CF80718031803180614
:1095200018061806180C180C180C181818187E783D
:10953000000000000000000000000000000000002B
:1095400000000000F013181E0C1806180610061074
:1095500006000E003C00F800E003800F001E00181B
:10956000003802300230063004300C181C0CE407BE
:1095700000000000000000000000000000000000EB
:1095800000000000FC3F8C21846182418241800107
:1095900080018001800180018001800180018001C3
:1095A0008001800180018001800180018001E0074D
:1095B00000000000000000000000000000000000AB
:1095C000000000003F7C0C100C100C100C100C1054
:1095D0000C100C100C100C100C100C100C100C10AB
:1095E0000C100C100C100C100C1018083804E003B0
:1095F000000000000000000000000000000000006B
:10960000000000003E7818301810181018103008AC
:1096100030083008300830046004600460046002E0
:10962000C002C002C002C001800180018000800031
:10963000000000000000000000000000000000002A
:1096400000000000CFF386618621842104210C23D1
:109650008C238C238C138C1388134812581658169D
:10966000580E380E300E300E300C3004100410043A
:1096700000000000000000000000000000000000EA
:10968000000000003E7C1810180830083004600408
:109690006002C002C001800180018001800340039C
:1096A00040062006200E100C100C181808383E7CBE
:1096B00000000000000000000000000000000000AA
:1096C000000000007E7C1C101810180830083008BC
:1096D000300460046004C002C002C0018001800147
:1096E0008001800180018001800180018001E0070C
:1096F000000000000000000000000000000000006A
:1097000000000000F87F383018300C180418000CE6
:10971000000600060003000380018001C000C000B5
:10972000600060003000184018600C200C38FE3FCC
:109730000000000000000000000000000000C03F2A
:10974000C000C000C000C000C000C000C000C00019
:10975000C000C000C000C000C000C000C000C00009
:10976000C000C000C000C000C000C000C000C000F9
:10977000C000C03F0000000000000000000000002A
:109780000000180018001000300020006000600089
:109790004000C00080008001800100010003000241
:1097A00000060006000C000C000C00180018003029
:1097B0000030003000600000000000000000FC03EA
:1097C0000003000300030003000300030003000381
:1097D0000003000300030003000300030003000371
:1097E0000003000300030003000300030003000361
:1097F0000003FC030000000000000000C003C007DD
:1098000060041008000000000000000000000000DC
:109810000000000000000000000000000000000048
:109820000000000000000000000000000000000038
:109830000000000000000000000000000000000028
:109840000000000000000000000000000000000018
:109850000000000000000000000000000000000008
:1098600000000000000000000000000000000000F8
:10987000000000000000FFFF000000007800C000B2
:1098800000010000000000000000000000000000D7
:1098900000000000000000000000000000000000C8
:1098A00000000000000000000000000000000000B8
:1098B00000000000000000000000000000000000A8
:1098C0000000000000000000000000000000000098
:1098D0000000E007180C0C180C180C18001CE01BFA
:1098E00038180C1806180618061806980C9EF871F9
:1098F0000000000000000000000000000000000068
:10990000000010001E0018001800180018001800B1
:1099100018009807581C381838301830183018308C
:10992000183018301830183018103818380CC8078C
:109930000000000000000000000000000000000027
:109940000000000000000000000000000000000017
:109950000000C0077008301818180C180C000C0014
:109960000C000C000C000C20182018103008C00748
:1099700000000000000000000000000000000000E7
:1099800000000010001E0018001800180018001831
:109990000018E01B301C181818180C180C180C189C
:1099A0000C180C180C180C180818181C307AE00940
:1099B00000000000000000000000000000000000A7
:1099C0000000000000000000000000000000000097
:1099D0000000C003300C101818100C300C300C3084
:1099E000FC3F0C000C000C00182018107018C00769
:1099F0000000000000000000000000000000000067
:109A000000000000003E80618060C060C000C000B7
:109A1000C000FC1FC000C000C000C000C000C000EB
:109A2000C000C000C000C000C000C000C000F80FEF
:109A30000000000000000000000000000000000026
:109A40000000000000000000000000000000000016
:109A50000000C077306C1018181818181818101853
:109A6000300CF00718001800F803F01F18380C30FD
:109A70000C300C301818E007000000000000000057
:109A8000000010001E001800180018001800180030
:109A900018009807580C381818181818181818189B
:109AA00018181818181818181818181818187E7E6A
:109AB00000000000000000000000000000000000A6
:109AC000000000008001C0038001000000000000D1
:109AD0000001F80180018001800180018001800186
:109AE0008001800180018001800180018001F81FD8
:109AF0000000000000000000000000000000000066
:109B000000000000001C001E000C0000000000000F
:109B10000008C00F000C000C000C000C000C000C26
:109B2000000C000C000C000C000C000C000C000CD5
:109B3000000C18061802F0010000000000000000F0
:109B4000000010001E00180018001800180018006F
:109B50001800183E180C1804180218019801D801B2
:109B6000780338031806180C180C181818387E7C5F
:109B700000000000000000000000000000000000E5
:109B800000000001F8018001800180018001800156
:109B900080018001800180018001800180018001BD
:109BA0008001800180018001800180018001F81F17
:109BB00000000000000000000000000000000000A5
:109BC0000000000000000000000000000000000095
:109BD0000400F73C8E6386618661866186618661DA
:109BE0008661866186618661866186618661CFF362
:109BF0000000000000000000000000000000000065
:109C00000000000000000000000000000000000054
:109C1000000090075E0C3818181818181818181833
:109C200018181818181818181818181818187E7EE8
:109C30000000000000000000000000000000000024
:109C40000000000000000000000000000000000014
:109C50000000C003300C1018181808300C300C30FD
:109C60000C300C300C300C3018181818300CC003A5
:109C700000000000000000000000000000000000E4
:109C800000000000000000000000000000000000D4
:109C9000000090075E0C3818181018301830183073
:109CA000183018301830183018183818780C9807F1
:109CB0001800180018007E000000000000000000DE
:109CC0000000000000000000000000000000000094
:109CD0000000C013301E181C18180C180C180C1893
:109CE0000C180C180C180C180818181C301EE01949
:109CF000001800180018007E00000000000000009E
:109D00000000000000000000000000000000000053
:109D1000000060387E666061E001E0006000600085
:109D20006000600060006000600060006000FE078E
:109D30000000000000000000000000000000000023
:109D40000000000000000000000000000000000013
:109D50000000C02760383030302030207000E00331
:109D6000800F001E00380830083018303818C80F2F
:109D700000000000000000000000000000000000E3
:109D80000000000000000000800080008000C00093
:109D9000E000FC1FC000C000C000C000C000C00048
:109DA000C000C000C000C000C020C0208011000F53
:109DB00000000000000000000000000000000000A3
:109DC0000000000000000000000000000000000093
:109DD00010101E1E18181818181818181818181807
:109DE00018181818181818181818181C307AE009BC
:109DF0000000000000000000000000000000000063
:109E00000000000000000000000000000000000052
:109E100000003E7C18301810181830083008200454
:109E200060046004C002C002C003800180018000A1
:109E30000000000000000000000000000000000022
:109E40000000000000000000000000000000000012
:109E50000000DFF3866184218C218C218C13881310
:109E600058135812580E700E300E300C3004200467
:109E700000000000000000000000000000000000E2
:109E800000000000000000000000000000000000D2
:109E900000007C3E300870086004C002C0028001EF
:109EA0008001800340062006200C101818183E7E02
:109EB00000000000000000000000000000000000A2
:109EC0000000000000000000000000000000000092
:109ED00000003E7C181818081008300820046004A0
:109EE00060044002C0028002800180018000800086
:109EF000800040007C003C000000000000000000EA
:109F00000000000000000000000000000000000051
:109F10000000FC1F0C1C0C0C04060407000380014D
:109F2000C001C00060007020302018300C18FC1FE9
:109F300000000000000000000000000000300008E9
:109F400000040004000400040004000400040004F1
:109F50000004000400040003800100020004000467
:109F600000040004000400040004000400040004D1
:109F700000040008003000000001000100010001A1
:109F800000010001000100010001000100010001C9
:109F900000010001000100010001000100010001B9
:109FA00000010001000100010001000100010001A9
:109FB0000001000100010001000000001800200065
:109FC0004000400040004000400040004000400091
:109FD000400040004000800100038000400040003D
:109FE0004000400040004000400040004000400071
:109FF000400020001800000000007800C4008241EA
:10A0000002410027001C00000000000000000000CA
:10A010000000000000000000000000000000000040
:10A020000000000000000000000000000000000030
:10A030000000000000000000000000000000000020
:10A040000000000000000000000000000000000010
:10A050000000000000000000000000000000000000
:10A0600000000000000000000000000000000000F0
:10A070006000600060006000600060006000400000
:10A0800020002000200000000000000060006000B0
:10A090006000000000000000000000006006600694
:10A0A0003003980188004400000000000000000018
:10A0B00000000000000000000000000000000000A0
:10A0C0000000000000000000000000000000000090
:10A0D0001002100210021002FE07FE07080208011B
:10A0E000080108010801FE07FE070401040104013C
:10A0F000040100000000000000000000000040001B
:10A100004000F00158034C03CC034C005800700091
:10A11000E000C001C00140034C035C034C03480154
:10A12000F0004000400000000000000000000000BF
:10A130000E010A01910091009100510051003A0076
:10A14000AE03A002500450044804480448048402AA
:10A150008403000000000000000000000000000078
:10A1600038006C006C006C006C006C002C009807D0
:10A170001C011A01330133016301E300C308C6095E
:10A180003C07000000000000000000000C001C0064
:10A190001000100008000400000000000000000093
:10A1A00000000000000000000000000000000000AF
:10A1B0000000000000000000000000000004000299
:10A1C00000018000800040004000200020002000AE
:10A1D000200020002000200040004000800080007F
:10A1E0000001000200040000000000000200040062
:10A1F0000800100010002000200040004000400037
:10A2000040004000400040002000200010001000EE
:10A210000800040002000000000000000000000030
:10A22000000000004000C0004000460C4E0FD0016E
:10A23000F0015E0F460C40004000400000000000AE
:10A24000000000000000000000000000000000000E
:10A2500000000000000040004000400040004000BE
:10A26000FE0F4000400040004000400000000000A1
:10A2700000000000000000000000000000000000DE
:10A2800000000000000000000000000000000000CE
:10A290000000000000000000000000000C001C0096
:10A2A0001000100008000400000000000000000082
:10A2B000000000000000000000000000000000009E
:10A2C000FE07000000000000000000000000000089
:10A2D000000000000000000000000000000000007E
:10A2E000000000000000000000000000000000006E
:10A2F0000000000000000000000000001C001C0026
:10A300001C00000000000000000000000004000627
:10A3100000020003000100018000800040004000B6
:10A3200060002000200010001000080008000C0051
:10A330000400060002000000000000000000000011
:10A340000000F00098010C030C0306060606060642
:10A35000060606060606060606060C030C0398010A
:10A36000F0000000000000000000000000000000FD
:10A37000000040007C006000600060006000600041
:10A3800060006000600060006000600060006000CD
:10A39000FC030000000000000000000000000000BE
:10A3A0000000F80084010203060306030003000115
:10A3B0008001C000600020001000080204020602B4
:10A3C000FE0300000000000000000000000000008C
:10A3D00000007800C6008601860180018001C0006F
:10A3E00070008001000100030003060306038601DC
:10A3F000F800000000000000000000000000000065
:10A40000000080018001C001A001A001900188012D
:10A41000880184018201FE0F80018001800180019A
:10A42000E007000000000000000000000000000045
:10A430000000FC0304000400040004000400F40015
:10A440008C01040300030003060306038201840158
:10A45000F800000000000000000000000000000004
:10A460000000E00118030C030C0004000600E601E4
:10A4700016030E0606060606060604060C02180358
:10A48000F0000000000000000000000000000000DC
:10A490000000F8070C06040204010001000180001E
:10A4A00080004000400040006000600060006000EC
:10A4B000600000000000000000000000000000003C
:10A4C0000000F8010C030606060606060C021C0333
:10A4D000F000C8010C0306060606060606060C0375
:10A4E000F00100000000000000000000000000007B
:10A4F0000000F0000C010C03060206060606060624
:10A5000006078C0678060006000300030C018C0188
:10A5100078000000000000000000000000000000C3
:10A52000000000000000000000000000E000E0006B
:10A53000E00000000000000000000000E000E0007B
:10A54000E00000000000000000000000000000002B
:10A55000000000000000000000000000600060003B
:10A56000000000000000000000000000000060008B
:10A5700060004000200020000000000000000000FB
:10A5800000040002000180004000200010000800CC
:10A5900004000800100020004000800000010002BC
:10A5A00000040000000000000000000000000000A7
:10A5B000000000000000000000000000FE07000096
:10A5C00000000000FE070000000000000000000086
:10A5D000000000000000000000000000000000007B
:10A5E000040008001000200040008000000100026C
:10A5F000000400020001800040002000100008005C
:10A600000400000000000000000000000000000046
:10A610000000E0031806040C040C0C0C0C0C0007E2
:10A62000800140004000400000000000E000E00029
:10A63000E00000000000000000000000000000003A
:10A64000E00018030C02CC0564056605A605B604F7
:10A65000B604B604B604B602E4010C040C021803F6
:10A66000F0000000000000000000000000000000FA
:10A670000000600060005000D00090009000880052
:10A6800088010801F801040304030402020202061F
:10A690000F0F00000000000000000000000000009C
:10A6A0000000FE008C030C030C030C030C038C0154
:10A6B000FC000C030C020C060C060C060C060C032A
:10A6C000FE0100000000000000000000000000008B
:10A6D0000000E00318030C060C0404040600060046
:10A6E000060006000600060006040C040C0218030F
:10A6F000F00000000000000000000000000000006A
:10A7000000007F008C010C030C030C060C060C06E9
:10A710000C060C060C060C060C060C030C038C0134
:10A720007F000000000000000000000000000000AA
:10A730000000FF03060306040604060086008600E8
:10A74000FE00860086008600060006040604060257
:10A75000FF030000000000000000000000000000F7
:10A760000000FF03060306040604060086008600B8
:10A77000FE00860086008600060006000600060031
:10A780001F000000000000000000000000000000AA
:10A790000000F00018010C020C0204020600060082
:10A7A00006000600C60F060306030C030C0318037D
:10A7B000F0000000000000000000000000000000A9
:10A7C00000000F0F06060606060606060606060623
:10A7D000FE07060606060606060606060606060620
:10A7E0000F0F00000000000000000000000000004B
:10A7F0000000FC036000600060006000600060001A
:10A800006000600060006000600060006000600048
:10A81000FC03000000000000000000000000000039
:10A820000000F807C000C000C000C000C000C000A9
:10A83000C000C000C000C000C000C000C000C00018
:10A84000C000C60066003C000000000000000000E0
:10A850000000CF038601C600460026001600360021
:10A860002E006E004600C600860086010601060323
:10A870008F07000000000000000000000000000042
:10A8800000001F0006000600060006000600060085
:10A89000060006000600060006000604060406027E
:10A8A000FF030000000000000000000000000000A6
:10A8B00000000707860386038E038E034E034E03B4
:10A8C0004A035A035A033A03320332033203120390
:10A8D00087070000000000000000000000000000EA
:10A8E00000008E0F0C021C021C02340234026402AF
:10A8F00064024402C4028402840384030403040344
:10A900001F02000000000000000000000000000026
:10A910000000F00098010C030C020606060606066D
:10A92000060606060606060606060C020C03980135
:10A93000F000000000000000000000000000000027
:10A940000000FF00060306060606060606060606C3
:10A950008603FE000600060006000600060006004C
:10A960001F000000000000000000000000000000C8
:10A970000000F00098010C030C020606060606060D
:10A98000060606060606060676064C02CC03980165
:10A99000F00080070003000000000000000000003D
:10A9A0000000FF0106030606060606060606060365
:10A9B000FE004600C6008600860106030603060662
:10A9C0000F0E00000000000000000000000000006A
:10A9D0000000F8020C030602060206000E003C000E
:10A9E000F800E003800300070206020606060C03D7
:10A9F000F001000000000000000000000000000066
:10AA00000000FE07620461086108600060006000E9
:10AA10006000600060006000600060006000600036
:10AA2000F80100000000000000000000000000002D
:10AA300000001E070C020C020C020C020C020C029D
:10AA40000C020C020C020C020C020C020C0218018B
:10AA5000F000000000000000000000000000000006
:10AA600000000F070602040104010C010C0188001C
:10AA700088009800980050005000700030002000BE
:10AA800020000000000000000000000000000000A6
:10AA90000000F70E620442044604460464026402A5
:10AAA000E402E4029C029C0198019801880188005C
:10AAB000880000000000000000000000000000000E
:10AAC00000009E070C01080118019000B000600012
:10AAD000200060006000D00090008801080104039D
:10AAE0008E070000000000000000000000000000D1
:10AAF00000000F0F060404020C0208011801B80040
:10AB0000B0007000600060006000600060006000E5
:10AB1000F80100000000000000000000000000003C
:10AB20000000FC070C0206030201800180004000C7
:10AB30004000200020001000180008040C0404024B
:10AB4000FE0300000000000000000000E003200001
:10AB500020002000200020002000200020002000F5
:10AB600020002000200020002000200020002000E5
:10AB700020002000E00300000000000000000000B2
:10AB8000040004000800080010001000100020005D
:10AB9000200040004000C000800080000001000153
:10ABA0000002000200020004000000007C004000DF
:10ABB0004000400040004000400040004000400095
:10ABC0004000400040004000400040004000400085
:10ABD000400040007C000000000060009000080180
:10ABE0000000000000000000000000000000000065
:10ABF0000000000000000000000000000000000055
:10AC00000000000000000000000000000000000044
:10AC10000000000000000000000000000000000034
:10AC20000000000000000000000000000000000024
:10AC3000000000000000FF0F00000000180060008E
:10AC40000000000000000000000000000000000004
:10AC500000000000000000000000000000000000F4
:10AC600000000000000000000000000000000000E4
:10AC7000000000000000000000000000F0010C03D4
:10AC80000C030003E0031C030E03060306038E0BF4
:10AC90007C0E00000000000000000000000000002A
:10ACA00008000E000C000C000C000C00CC013C0352
:10ACB0001C060C060C060C060C060C060C021C03EB
:10ACC000E40100000000000000000000000000009F
:10ACD000000000000000000000000000F0008C01F7
:10ACE0008C01860106000600060006020C020C011B
:10ACF000F000000000000000000000000000000064
:10AD00000002C003000300030003000378038C0368
:10AD10000C030603060306030603060304038C075D
:10AD200078010000000000000000000000000000AA
:10AD3000000000000000000000000000E001180317
:10AD400008020C060C06FC070C000C001804180284
:10AD5000E001000000000000000000000000000012
:10AD60000000C0036006300630003000FE013000F5
:10AD70003000300030003000300030003000300053
:10AD8000FC010000000000000000000000000000C6
:10AD9000000000000000000000000000F007D806DE
:10ADA0008C018C018C019801F8000C00FC00CC0394
:10ADB000060306038E03F8000000000000000000F8
:10ADC00008000E000C000C000C000C00EC011C0331
:10ADD0000C030C030C030C030C030C030C030C03FB
:10ADE0009E070000000000000000000000000000BE
:10ADF0000000600060000000000040007C00600077
:10AE00006000600060006000600060006000600042
:10AE1000FC03000000000000000000000000000033
:10AE20000000C001C001000000000001F00180012D
:10AE3000800180018001800180018001800180010A
:10AE400080018001CC007C000000000000000000B8
:10AE500008000E000C000C000C000C008C038C0091
:10AE60008C004C006C005C008C008C010C010C030D
:10AE70009E0700000000000000000000000000002D
:10AE800040007C00600060006000600060006000C6
:10AE900060006000600060006000600060006000B2
:10AEA000FC030000000000000000000000000000A3
:10AEB0000000000000000000000000003707EE0660
:10AEC0006606660666066606660666066606660622
:10AED000FF0F000000000000000000000000000064
:10AEE000000000000000000000000000EE011C0354
:10AEF0000C030C030C030C030C030C030C030C03DA
:10AF00009E0700000000000000000000000000009C
:10AF1000000000000000000000000000F0009801A8
:10AF20000C03060606060606060606060C030C03B8
:10AF3000F000000000000000000000000000000021
:10AF4000000000000000000000000000EE011C03F3
:10AF50000C060C060C060C060C060C060C031C0357
:10AF6000EC010C000C003E0000000000000000009E
:10AF700000000000000000000000000078028C03C8
:10AF80000C030603060306030603060304038C03EF
:10AF9000780300030003C007000000000000000069
:10AFA0000000000000000000000000009F035806A1
:10AFB00038061800180018001800180018001800AB
:10AFC000FF00000000000000000000000000000082
:10AFD000000000000000000000000000F0031C035F
:10AFE0000C020C023800F000C003040304038C03BD
:10AFF000FC01000000000000000000000000000054
:10B00000000000002000200030003000FE01300071
:10B0100030003000300030003000300030023002AC
:10B02000E00100000000000000000000000000003F
:10B030000000000000000000000008028E030C0366
:10B040000C030C030C030C030C030C030C039C07F4
:10B050007801000000000000000000000000000077
:10B060000000000000000000000000001E070C02AD
:10B070000801080118019000B000B00060006000F5
:10B0800020000000000000000000000000000000A0
:10B09000000000000000000000000000F70E620445
:10B0A000460464026402EC029C0198019801980134
:10B0B0000800000000000000000000000000000088
:10B0C000000000000000000000000000BC071801A4
:10B0D0001001B00060006000E0009000080108036B
:10B0E0009E070000000000000000000000000000BB
:10B0F0000000000000000000000000009E070801A2
:10B100000801080190009000B0006000600060003D
:10B110002000200024001C000000000000000000AF
:10B12000000000000000000000000000FC0184019D
:10B13000C4004400600020003000180208020C0324
:10B14000FC0100000000000000000000000380007F
:10B15000800080008000800080008000800040002F
:10B16000200040008000800080008000800080007F
:10B1700080008000000300004000400040004000CC
:10B1800040004000400040004000400040004000BF
:10B1900040004000400040004000400040004000AF
:10B1A0004000400040004000000000000C00100083
:10B1B00010001000100010001000100010002000FF
:10B1C00040002000100010001000100010001000BF
:10B1D000100010000C00000000001C002204C2043B
:10B1E00080030000000000000000000000000000DC
:10B1F000000000000000000000000000000000004F
:10B20000000000000000000000000000000000003E
:10B21000000000000000000000000000000000002E
:10B22000000000000000000000000000000000001E
:10B23000000000000000300030003000300030001E
:10B24000200020002000200020000000000030002E
:10B2500030000000000000000000D800D8006C00A2
:10B2600024001200000000000000000000000000A8
:10B2700000000000000000000000000000000000CE
:10B280000000000000000000840084008400FF0132
:10B2900084008400C60042004200FF0142004200D8
:10B2A000420000000000000000000000000020003C
:10B2B000F80024012401A401280030006000A0004F
:10B2C00020012C0124012401F800200020000000AE
:10B2D000000000000000000086004900490029002D
:10B2E00029001900D6002801280128012401240181
:10B2F000C20000000000000000000000000000008C
:10B300000C00120012001200EA0046004600250060
:10B310002900390011003201CC00000000000000BB
:10B32000000006000600040002000100000000000A
:10B33000000000000000000000000000000000000D
:10B34000000000000000000000000001800040003C
:10B35000200020002000100010001000100010003D
:10B3600010002000200020004000800000010000AC
:10B37000000001000200040008000800080010009E
:10B380001000100010001000100008000800080055
:10B3900004000200010000000000000000000000A6
:10B3A0000000200020002603AE0370007000AE03F2
:10B3B0002603200020000000000000000000000024
:10B3C000000000000000000000001000100010004D
:10B3D0001000FF011000100010001000000000001D
:10B3E000000000000000000000000000000000005D
:10B3F000000000000000000000000000000000004D
:10B400000000000000000600060004000200010029
:10B41000000000000000000000000000000000002C
:10B420000000FE030000000000000000000000001B
:10B43000000000000000000000000000000000000C
:10B4400000000000000000000000000000000000FC
:10B4500000000000000006000600000000000000E0
:10B46000000000020001000180008000C0004000D8
:10B4700060002000300010001800080008000400E0
:10B4800004000200000000000000000000000000B6
:10B49000780084008400020102010201020102011D
:10B4A0000201020184008400780000000000000016
:10B4B000000000000000000010001C001000100040
:10B4C00010001000100010001000100010001000FC
:10B4D0007C000000000000000000000000000000F0
:10B4E0007C00820002010201020180004000200075
:10B4F0001000080004010201FE010000000000002D
:10B5000000000000000000003C00420082008200B9
:10B510004000700080000001000102010201820071
:10B520007C0000000000000000000000000040005F
:10B5300040006000500048004800440042004200C3
:10B54000FE01400040004000F0010000000000004B
:10B550000000000000000000FC01040004000400E2
:10B56000040074008C00000100010201020182004D
:10B570007C0000000000000000000000000000004F
:10B58000F00008010401040002007A0086000201B4
:10B5900002010201040184007800000000000000A4
:10B5A0000000000000000000FE0182004200400098
:10B5B0002000100010000800080008000800080023
:10B5C0000800000000000000000000000000000073
:10B5D00078008400020102010201840078008400E6
:10B5E0000201020102018400780000000000000056
:10B5F00000000000000000007800840082000201CA
:10B6000002010201840178010001800082004200F1
:10B610003C000000000000000000000000000000EE
:10B6200000000000000030003000000000000000BA
:10B6300000000000000030003000000000000000AA
:10B6400000000000000000000000000000000000FA
:10B6500010000000000000000000000000000000DA
:10B66000100010001000100000000000000080001A
:10B670004000200010000800040002000400080040
:10B6800010002000400080000000000000000000CA
:10B690000000000000000000000000000000FF01AA
:10B6A000000000000000FF0100000000000000009A
:10B6B0000000000000000000000000000000020088
:10B6C000040008001000200040008000400020001E
:10B6D000100008000400020000000000000000004C
:10B6E000000000000000780084000201060106014D
:10B6F00000018000400020002000200000003000F9
:10B700003000000000000000000000000000000009
:10B710007800C400F20159014901450125012501C4
:10B72000A500D9000201840078000000000000009C
:10B730000000000000000000100010002800280099
:10B7400028002800440044007C004400820082005D
:10B75000C701000000000000000000000000000021
:10B760003F0042004200420022003E0042008200B0
:10B7700082008200820042003F00000000000000C2
:10B7800000000000000000007801840102010201B5
:10B790000100010001000100010001010201860019
:10B7A0007800000000000000000000000000000021
:10B7B0003F00C200820002010201020102010201F7
:10B7C00002010201820042003F0000000000000070
:10B7D0000000000000000000FF00820002014200A3
:10B7E00042007E004200420002000200020182008C
:10B7F000FF0000000000000000000000000000004A
:10B80000FF0082000201420042007E00420042002E
:10B810000200020002000200070000000000000019
:10B820000000000000000000700188010401020116
:10B8300002000200020082030201020104010C0165
:10B84000F000000000000000000000000000000008
:10B85000C70182008200820082008200FE00820016
:10B860008200820082008200C70100000000000008
:10B870000000000000000000FE001000100010009A
:10B880001000100010001000100010001000100038
:10B89000FE000000000000000000000000000000AA
:10B8A000FC012000200020002000200020002000BB
:10B8B0002000200020002000210011000E000000C8
:10B8C0000000000000000000E7014200220022000A
:10B8D00012001A00160022002200420042008200DC
:10B8E000C701000000000000000000000000000090
:10B8F0000700020002000200020002000200020033
:10B900000200020002018200FF00000000000000AF
:10B910000000000000000000C701C600C600C6000D
:10B92000AA00AA00AA00AA00AA009200920092000F
:10B93000D70100000000000000000000000000002F
:10B94000C70186008A008A008A0092009200A20045
:10B95000A200C200C200C200870000000000000078
:10B9600000000000000000003800C6008200010155
:10B970000101010101010101010101018200C60073
:10B98000380000000000000000000000000000007F
:10B990007F00820002010201020182007E0002009B
:10B9A0000200020002000200070000000000000088
:10B9B00000000000000000003800C6008200010105
:10B9C000010101010101010101011901A600A60007
:10B9D00078004001C00000000000000000000000EE
:10B9E0003F0042008200820042003E00120022001E
:10B9F0002200420042008200870100000000000097
:10BA00000000000000000000780184010201020033
:10BA100002000C007000800000010201020186009B
:10BA20007A0000000000000000000000000000009C
:10BA3000FE00110111011000100010001000100094
:10BA4000100010001000100038000000000000007E
:10BA50000000000000000000C70182008200820098
:10BA60008200820082008200820082008200440004
:10BA7000380000000000000000000000000000008E
:10BA8000C7018200820044004400440044002800B2
:10BA900028002800380010001000000000000000FE
:10BAA0000000000000000000BB0192009200920024
:10BAB0009200AA00AA00AA006A00440044004400C0
:10BAC0004400000000000000000000000000000032
:10BAD000CE018400440048002800300010003000EF
:10BAE0002800480048008400CE010000000000004B
:10BAF0000000000000000000C70182004400440074
:10BB00002800280010001000100010001000100085
:10BB100038000000000000000000000000000000ED
:10BB2000FC01840082004000400020001000100052
:10BB30000800080004018400FE000000000000006E
:10BB40000000F001100010001000100010001000A4
:10BB50001000100010001000100010001000100065
:10BB60001000F001000000000000000002000400CE
:10BB70000400080008000800100010002000200049
:10BB80002000400040008000800080000001000094
:10BB900000003E00200020002000200020002000A7
:10BBA0002000200020002000200020002000200095
:10BBB00020003E0000000000000038002800440083
:10BBC0000000000000000000000000000000000075
:10BBD0000000000000000000000000000000000065
:10BBE0000000000000000000000000000000000055
:10BBF0000000000000000000000000000000000045
:10BC0000000000000000FF030000180020000000FA
:10BC10000000000000000000000000000000000024
:10BC20000000000000000000000000000000000014
:10BC30000000000000000000000000000000000004
:10BC40007C0082008200F0008C0082008200C20230
:10BC5000BC03000000000000000000000000000025
:10BC600003000200020002003A0046008200820047
:10BC700082008200820046003A00000000000000BE
:10BC800000000000000000000000000000000000B4
:10BC90007800840082000200020002000201840099
:10BCA000780000000000000000000000000000001C
:10BCB000C000800080008000B800C40082008200C4
:10BCC000820082008200C400B80100000000000071
:10BCD0000000000000000000000000000000000064
:10BCE000780084000201FE010200020002018400CB
:10BCF00078000000000000000000000000000000CC
:10BD0000E001100210001000FC00100010001000F4
:10BD10001000100010001000FC00000000000000E7
:10BD20000000000000000000000000000000000013
:10BD3000F8018400840084008400780004007C0002
:10BD4000840102010201FC0000000000000000006C
:10BD500003000200020002007A00860082008200D6
:10BD60008200820082008200C70100000000000003
:10BD70000000000000000000180018000000000093
:10BD80001C00100010001000100010001000100027
:10BD90007C00000000000000000000000000000027
:10BDA00060006000000000007000400040004000A3
:10BDB00040004000400040004000400022001E00C3
:10BDC000000000000000000003000200020002006A
:10BDD000E200220012000A00160022004200820047
:10BDE000C70100000000000000000000000000008B
:10BDF0001E001000100010001000100010001000B5
:10BE00001000100010001000FE00000000000000F4
:10BE10000000000000000000000000000000000022
:10BE20007F00920092009200920092009200920095
:10BE3000B70100000000000000000000000000004A
:10BE400000000000000000007B00860082008200ED
:10BE50008200820082008200C70100000000000012
:10BE600000000000000000000000000000000000D2
:10BE70007800840002010201020102010201840033
:10BE8000780000000000000000000000000000003A
:10BE900000000000000000003B004600820082001D
:10BEA00082008200820046003A0002000200070081
:10BEB0000000000000000000000000000000000082
:10BEC000B800C40082008200820082008200C400A8
:10BED000B80080008000C0010000000000000000E9
:10BEE0000000000000000000CE012801180008003A
:10BEF00008000800080008003E00000000000000E4
:10BF00000000000000000000000000000000000031
:10BF1000BC00C200820006003800C000820086001B
:10BF20007A00000000000000000000000000000097
:10BF30000000100010001000FC00100010001000A5
:10BF400010001000100090006000000000000000D1
:10BF500000000000000000000000000000000000E1
:10BF6000C300820082008200820082008200C20040
:10BF7000BC01000000000000000000000000000004
:10BF80000000000000000000C701820044004400DF
:10BF900044002800280010001000000000000000ED
:10BFA0000000000000000000000000000000000091
:10BFB000BB01920092009200AA00AA004400440033
:10BFC000440000000000000000000000000000002D
:10BFD0000000000000000000CE0184004800300096
:10BFE0003000300048008400CE0100000000000056
:10BFF0000000000000000000000000000000000041
:10C00000EE01840088004800480050003000200005
:10C010001000100010000C000000000000000000E4
:10C020000000000000000000FE004200220020008E
:10C030001000080084008200FE00000000000000E4
:10C0400000008001400040004000400040004000EF
:10C0500060001000600040004000400040004000D0
:10C06000400040008001000020002000200020004F
:10C0700020002000200020002000200020002000C0
:10C0800020002000200020002000200020002000B0
:10C09000000006000800080008000800080008006A
:10C0A0001800200018000800080008000800080018
:10C0B00008000800060000001C0026022203C00140
:10C0C0000000000000000000000000000000000070
:10C0D0000000000000000000000000000000000060
:10C0E0000000000000000000000000000000000050
:10C0F00000000008080808080808000018180000D8
:10C1000000486C2412000000000000000000000045
:10C110000000002424247F1212127F121212000049
:10C120000000081C2A2A0A0C1828282A2A1C080899
:10C1300000000022251515152A58545454220000D9
:10C140000000000C1212120A76252911916E0000CF
:10C1500000060604030000000000000000000000CC
:10C16000004020101008080808080810102040009F
:10C170000002040808101010101010080804020033
:10C180000000000008086B1C1C6B08080000000081
:10C1900000000000080808087F08080808000000E0
:10C1A000000000000000000000000000060604037C
:10C1B0000000000000000000FE0000000000000081
:10C1C0000000000000000000000000000606000063
:10C1D00000008040402020101008080404020200E3
:10C1E0000000001824424242424242422418000009
:10C1F000000000080E08080808080808083E0000AB
:10C200000000003C4242422020100804427E000010
:10C210000000003C4242201820404042221C000006
:10C22000000000203028242422227E2020780000D4
:10C230000000007E0202021A26404042221C00003A
:10C24000000000382402021A26424242241800004C
:10C250000000007E222210100808080808080000CC
:10C260000000003C4242422418244242423C00006A
:10C27000000000182442424264584040241C000040
:10C28000000000000000181800000000181800004E
:10C290000000000000000008000000000008080482
:10C2A0000000004020100804020408102040000094
:10C2B0000000000000007F0000007F000000000080
:10C2C00000000002040810204020100804020000B2
:10C2D0000000003C424246402010100018180000A8
:10C2E0000000001C225A555555552D42221C0000B5
:10C2F0000000000808181414243C224242E7000001
:10C300000000001F2222221E22424242221F000061
:10C310000000007C4242010101010142221C000098
:10C320000000001F2242424242424242221F0000BD
:10C330000000003F4212121E12120242423F000051
:10C340000000003F4212121E1212020202070000F9
:10C350000000003C2222010101712122221C000068
:10C36000000000E7424242427E42424242E7000071
:10C370000000003E0808080808080808083E0000F9
:10C380000000007C10101010101010101010110F71
:10C390000000007722120A0E0A12122222770000F1
:10C3A000000000070202020202020202427F0000B5
:10C3B00000000077363636362A2A2A2A2A6B0000F1
:10C3C000000000E346464A4A525252626247000069
:10C3D0000000001C2241414141414141221C00001A
:10C3E0000000003F424242423E02020202070000B9
:10C3F0000000001C2241414141414D53321C60006C
:10C400000000003F4242423E1212222242C7000078
:10C410000000007C4242020418204042423E0000DC
:10C420000000007F4908080808080808081C0000E8
:10C43000000000E74242424242424242423C000087
:10C44000000000E7424222242414141808080000C7
:10C450000000006B49494949555536222222000007
:10C46000000000E7422424181818242442E70000A2
:10C47000000000772222141408080808081C000095
:10C480000000007E2120101008040442423F0000FA
:10C49000007808080808080808080808080878004C
:10C4A0000000020204040808081010202020404068
:10C4B000001E1010101010101010101010101E0080
:10C4C00000384400000000000000000000000000F0
:10C4D000000000000000000000000000000000FF5D
:10C4E000000608000000000000000000000000003E
:10C4F000000000000000003C4278444242FC000082
:10C50000000000030202021A26424242261A0000DC
:10C51000000000000000003844020202443800001D
:10C5200000000060404040784442424264D800002D
:10C53000000000000000003C427E0202423C00007D
:10C54000000000F08808087E08080808083E00007F
:10C55000000000000000007C22221C023C42423C01
:10C56000000000030202023A4642424242E7000053
:10C570000000000C0C00000E08080808083E00002F
:10C580000000003030000038202020202020221E13
:10C590000000000302020272120A16122277000043
:10C5A0000000000E0808080808080808083E0000F7
:10C5B000000000000000007F9292929292B700006B
:10C5C000000000000000003B4642424242E70000FB
:10C5D000000000000000003C42424242423C000099
:10C5E000000000000000001B26424242221E0207FB
:10C5F000000000000000007844424242447840E0DD
:10C6000000000000000000774C040404041F000038
:10C61000000000000000007C42023C40423E00005E
:10C62000000000000008083E080808080830000064
:10C6300000000000000000634242424262DC000051
:10C6400000000000000000E7422424140808000055
:10C6500000000000000000EB49495555222200006F
:10C66000000000000000007624181818246E000056
:10C6700000000000000000E7422424141808080706
:10C68000000000000000007E22100808447E000028
:10C6900000C0202020202010202020202020C000AA
:10C6A000101010101010101010101010101010108A
:10C6B0000006080808080810080808080808060006
:10C6C0000C32C2000000000000000000000000006A
:10C6D0000000000000000000000000000000040452
:10C6E000040404040004000000140A0A000000000E
:10C6F00000000000000014143F140A3F0A0A000062
:10C7000000041E1505060C14150F04000000121578
:10C710000D0A142C2A1200000000040A0A1E151526
:10C7200009360000000202010000000000000000C5
:10C73000002010080808080808102000000204085B
:10C74000080808080804020000000004150E0E1571
:10C750000400000000000404041F0404040000009E
:10C7600000000000000000000002020100000000C4
:10C77000001F00000000000000000000000000009A
:10C780000002000000100808080404020202010070
:10C7900000000E1111111111110E0000000004060D
:10C7A00004040404040E000000000E111108040229
:10C7B000011F000000000E11100C1010110E0000DF
:10C7C0000000080C0A0A091E0818000000001F01DA
:10C7D000010F1010110E000000000E09010F1111C1
:10C7E000110E000000001F090804040404040000E6
:10C7F00000000E11110E1111110E000000000E119B
:10C8000011111E10120E00000000000004000000B4
:10C810000004000000000000000400000004040008
:10C82000002010080402040810200000000000008E
:10C830001F00001F00000000000204081020100864
:10C840000402000000000E1111080404000400009E
:10C8500000000E111915151D011E00000000040432
:10C860000C0A0A1E1233000000000F12120E1212E0
:10C87000120F000000001E1101010101110E000045
:10C8800000000F1212121212120F000000001F12ED
:10C890000A0E0A02121F000000001F120A0E0A02EE
:10C8A0000207000000001C1201013911120C0000E7
:10C8B00000003312121E12121233000000001F0477
:10C8C00004040404041F000000003E0808080808CF
:10C8D00008090700000037120A060A0A123700008A
:10C8E0000000070202020202223F000000001B1BA0
:10C8F0001B1B15151515000000003B1216161A1A01
:10C900001217000000000E1111111111110E00007C
:10C9100000000F12120E02020207000000000E11AA
:10C9200011111117190E180000000F12120E0A1221
:10C930001237000000001E1101060810110F000040
:10C9400000001F1504040404040E0000000033124C
:10C9500012121212120C000000003312120A0A0CFA
:10C960000404000000001515150E0A0A0A0A00004A
:10C9700000001B0A0A04040A0A1B000000001B0A2C
:10C980000A040404040E000000001F090804040245
:10C99000121F0000001C04040404040404041C000E
:10C9A000000202020404080808100000000E080833
:10C9B0000808080808080E0000040A00000000002B
:10C9C0000000000000000000000000000000003F28
:10C9D0000004000000000000000000000000000053
:10C9E000000C121C123C000000000302020E121286
:10C9F000120E000000000000001C1202021C0000C9
:10CA000000001810101C1212123C00000000000060
:10CA1000000C121E021C000000003804041E040456
:10CA2000041E000000000000003C120C021E221C2C
:10CA300000000302020E1212123700000000040070
:10CA400000060404040E000000000800000C0808A2
:10CA50000808080700000302023A0A0E1237000015
:10CA60000000070404040404041F00000000000088
:10CA7000000F15151515000000000000000F121220
:10CA80001237000000000000000C1212120C00000F
:10CA900000000000000F1212120E0207000000003A
:10CAA000001C1212121C103800000000001B0602AD
:10CAB0000207000000000000001E020C101E000013
:10CAC00000000004040E040404180000000000002C
:10CAD000001B1212123C0000000000000037120A76
:10CAE0000C040000000000000015150E0A0A0000EA
:10CAF00000000000001B0A040A1B000000000000E8
:10CB00000037120A0C04040300000000001E080491
:10CB1000041E000000180808080408080808180087
:10CB20000808080808080808080808080006040497
:10CB30000408040404040600022518000000000094
:10CB400000000000010002000400060008000A00C6
:10CB50000C001000200040008000000101010103D2
:10CB600007010000080402040801010100000000A0
:10CB70000102030401020304060708099CCB000814
:10CB8000000000249C000000726C000838CC0008F3
:10CB90009C000024F4140000826C000800000000D7
:10CBA0000000000000000000000000000000000085
:10CBB0000000000000000000000000000000000075
:10CBC0000000000000000000000000000000000065
:10CBD00001000000987700081800180048003C0089
:10CBE00078880008100020004000000038A00008ED
:10CBF0000C0018003000000008B200080A00140001
:10CC000028000000E0C0000808001000100000002C
:10CC1000D0C6000806000C000C0000000100000057
:10CC200010000000000000000090D0030090D0032E
:08CC30000000000000000000FC
:040000050800029954
:00000001FF
