:020000040800F2
:10000000E00B0024AD020008B3290008A528000871
:10001000B1290008B90300084945000800000000A4
:10002000000000000000000000000000712D00082A
:10003000BB030008000000002F2B00087D2D0008E6
:10004000C7020008C7020008C7020008C70200086C
:10005000C7020008C7020008C7020008C70200085C
:10006000C7020008C7020008C7020008C70200084C
:10007000C7020008C7020008C7020008C70200083C
:10008000C7020008C7020008C7020008C70200082C
:10009000C7020008C7020008C7020008C70200081C
:1000A000C7020008C7020008C7020008C70200080C
:1000B000C7020008C7020008C7020008C7020008FC
:1000C000C7020008C7020008C7020008C7020008EC
:1000D000C7020008C7020008C7020008C7020008DC
:1000E000C7020008C702000800000000C70200089D
:1000F000C7020008C7020008C7020008C7020008BC
:10010000C7020008C7020008C7020008C7020008AB
:10011000C7020008C7020008C7020008C70200089B
:10012000C7020008C7020008C7020008C70200088B
:10013000C7020008C7020008C7020008C70200087B
:1001400000000000000000000000000000000000AF
:10015000C7020008C7020008C7020008C70200085B
:10016000C7020008C7020008C7020008C70200084B
:10017000C7020008C7020008C7020008C70200083B
:10018000C7020008C7020008C7020008C70200082B
:10019000C7020008C7020008C7020008C70200081B
:1001A000C7020008C7020008C7020008C70200080B
:1001B000C7020008C7020008C7020008C7020008FB
:1001C000C7020008C7020008C7020008C7020008EB
:1001D000C7020008B5290008C7020008C7020008C6
:1001E000C7020008C7020008C7020008C7020008CB
:1001F000C7020008C7020008C7020008C7020008BB
:10020000C7020008C7020008C7020008C7020008AA
:10021000C7020008C7020008C7020008C70200089A
:10022000C7020008C7020008C7020008000000005B
:10023000C7020008C702000800000000C70200084B
:10024000C7020008C7020008C7020008C70200086A
:10025000C7020008C7020008C7020008C70200085A
:10026000C7020008C7020008C7020008C70200084A
:10027000C7020008C7020008C7020008000000000B
:10028000C7020008C7020008C702000800000000FB
:1002900000000000C7020008DFF80CD000F07AF878
:1002A00000480047D9450008E00B00240648804775
:1002B00006480047FEE7FEE7FEE7FEE7FEE7FEE74B
:1002C000FEE7FEE7FEE7FEE7792E00089902000848
:1002D0002DE9F05F0546002092469B46884606467B
:1002E000814640241BE0284641464746224600F00E
:1002F00041F853465A46C01A914110D31146184648
:10030000224600F028F82D1A67EB01084F462246D6
:100310000120002100F01FF817EB00094E41201EBC
:10032000A4F10104DFDC484631462A464346BDE8D5
:10033000F09FD2B201E000F8012B491EFBD27047BA
:100340000022F6E710B513460A4604461946FFF7A1
:10035000F0FF204610BD202A04DB203A00FA02F10B
:10036000002070479140C2F1200320FA03F31943A3
:1003700090407047202A04DB203A21FA02F0002145
:10038000704721FA02F3D040C2F1200291400843A5
:1003900019467047064C074D06E0E06840F001033F
:1003A00094E8070098471034AC42F6D3FFF778FF83
:1003B000E846000808470008FEE7704772B6FEE707
:1003C00070B5044600F030F90546601C02D00448C0
:1003D0000078044400F028F9401BA042FAD370BD15
:1003E000000000242DE9F84F03247D4D00234FF039
:1003F00001094FF0B04B4FF00F0AE9E009FA03F79B
:100400003A4076D00E7906F00306012E01D0022E76
:1004100018D1D0F808C04FEA430ECE6804FA0EF89F
:100420002CEA080C06FA0EF646EA0C068660D0F8AE
:1004300004C00E792CEA070CC6F300169E4046EA6B
:100440000C0646600E79F643B6070BD0C6684FEA35
:1004500043088F6804FA08FC26EA0C0607FA08F736
:100460003743C7600E7906F00306022E12D1DE086C
:100470000F694FEA437C00EB8606B646366A4FEAC0
:10048000DC6C0AFA0CF807FA0CF726EA0806374380
:10049000CEF820700F7906684FEA430807F003078B
:1004A00004FA08FC07FA08F726EA0C063743076047
:1004B0004E6816F4403F1CD04A4E376847F002079A
:1004C000376036689F0706F00206009623F00306A1
:1004D00006F1B046B6463F0FD6F80864DFF808814B
:1004E0000AFA07FC404526EA0C0603D14FF0000C3F
:1004F00041E06CE0DFF8F4C0604502D14FF0010C40
:1005000039E0DFF8ECC0604502D14FF0020C32E078
:10051000DFF8E0C0604502D14FF0030C2BE0DFF8BC
:10052000D8C0604502D14FF0040C24E0DFF8CCC005
:10053000604502D14FF0050C1DE0DFF8C4C06045F6
:1005400002D14FF0060C16E0DFF8B8C0604502D1CA
:100550004FF0070C0FE0DFF8B0C0604502D14FF05C
:10056000080C08E0DFF8A4C0604502D14FF0090C88
:1005700001E04FF00A0C0CFA07FC4CEA060CCEF82E
:1005800008C44F68DBF80060FF0226EA020600D5C7
:1005900016435F46CBF80060D1F804C0DBF8046076
:1005A0005FEA8C2C26EA020600D516437E606E6850
:1005B0004F6826EA0206BF0300D516436E602E6818
:1005C0004F6826EA0206FF0300D516432E605B1C27
:1005D0000A6832FA03F67FF411AFBDE8F88F000025
:1005E00080000058F44402580000025800040258E9
:1005F00000080258000C025800100258001402585B
:1006000000180258001C025800200258002402580A
:100610000AB1816170470904FBE7000001480068E6
:10062000000C70470010005C0148806870470000B3
:1006300000000024024881680278114481607047FC
:1006400000000024032010B500F078F801F07AFCD7
:100650000F4A104914681368C4F3032203F00F0310
:100660008A5CC95C02F01F0201F01F01D0400A4AF7
:1006700020FA01F11160094908600F2000F010F81C
:1006800008B1012010BD00F02BF8002010BD0000C3
:1006900018440258D8460008100000240C0000241A
:1006A00070B50D4D04462878A0B14FF47A71B1FBB6
:1006B000F0F00A490968B1FBF0F001F0A0FF48B979
:1006C000102C07D200222146501E00F017F80020FF
:1006D0006C6070BD012070BD000000240C0000247F
:1006E000054808B5016841F002010160006800F0AA
:1006F0000200009008BD0000F44402580E4BF0B414
:100700001B680D46C3F30223C3F10706042E00D96C
:100710000426191D072901D2002300E0DB1E012455
:1007200004FA06F19C40491E2940641E9940144079
:100730002143F0BC03F012BF0CED00E0064900F0CD
:10074000070210B54FF6FF040868044B204040EA4A
:1007500002201843086010BD0CED00E00000FA050F
:100760007047D0F8080503F099B801EBC10200EB1F
:100770008202D0F80805926C02F0ECBF01EBC102D6
:1007800000EB8202D0F80805D2F8882203F03EB8C8
:10079000D0F8080503F084B80A0601F00F0101EB58
:1007A000C10100EB810101D53C3101E001F51F7170
:1007B000006803F063BD70B54268044601F00F00A5
:1007C000904201D9012070BD01F00F024FF00005E9
:1007D0000B0602EBC2014FF0010204EB810103D5CD
:1007E00081F83D203C3103E081F87D5201F51F7115
:1007F0008D70087094F8BC04012808D084F8BC24DB
:10080000206803F0C7FB002084F8BC5470BD0220B0
:1008100070BD2DE9F04101F00F0604460D064FF0C2
:10082000010006EBC6014FF0000504EB810103D582
:1008300081F83D003C3103E081F87D5201F51F71E4
:100840004F788A600B710E7007B14E83022B00D176
:100850004D7194F8BC24012A09D084F8BC042068A6
:1008600003F01EFB284684F8BC54BDE8F08102204A
:10087000FBE770B501F00F05002405EBC50100EBA7
:10088000810101F5227181E81C0001F80B4C01F88F
:100890000C5DC368012B00D1CA61027B006803F0C4
:1008A000D1FB002070BD70B50D464168044605F0CF
:1008B0000F00884201D9012070BD29064FF00006C3
:1008C0004FF0010207D500EBC00104EB810181F874
:1008D0003D203C3107E005EBC50104EB810181F8C7
:1008E0007D6201F51F718A70087094F8BC040128BC
:1008F00007D084F8BC24206803F078FB280702D0D6
:1009000007E0022070BD217B04F2C442206803F09E
:1009100015FB002084F8BC6470BD70B501F00F04B5
:10092000002504EBC401012600EB8101483181E878
:100930002C0001F80B6C01F80C4DC368012B00D1A1
:10094000CA61027B006803F07DFB002070BD0000DF
:100950002DE9FC5F05680446284603F00CFD0028DD
:100960007ED1206803F033FD002879D0D5F808083F
:10097000C0F30D20C4F8FC04206803F028FD8007B4
:1009800004D52068416901F002014161206803F04B
:100990001EFDC10604F2C440009034D52068816970
:1009A00021F0100181612F6A07F00F01C7F3434066
:1009B00001EBC101022804EB810606F51F7602D087
:1009C000062811D01AE047F6F070074216D0C7F398
:1009D0000A12F1681746284603F0FDFCF1687069B9
:1009E0003944F160384408E000990822284603F0B1
:1009F000F2FC7069C7F30A110844706120688169CC
:100A000041F010018161206803F0E1FC00034FF028
:100A1000000A4FF0020B4FF001097CD52068002638
:100A200003F0B4FC074674E0F80770D02068F1B218
:100A300003F0C5FC8046C00707D005EB4611C1F89E
:100A4000089B3146204601F0BBFF5FEA087025D5C0
:100A500005EB46110820C1F8080BFC49206800E0AE
:100A600042E2026C00EB461001928A42D0F8081B69
:100A700005D9090403D54FF40041C0F8081B2046EE
:100A800000F06EFAF1490198884207D9E068012820
:100A900004D120680121009A03F050FA5FEAC8608F
:100AA00004D505EB46111020C1F8080B5FEA8870E9
:100AB0001CD56869000605D5D5F8040840F48061A6
:100AC000C5F8041806EBC60004EB800090F87F120E
:100AD00000F51F70012905D180F803A02046F1B26E
:100AE00000F008FA05EB4611C1F808BB5FEA886020
:100AF00004D505EB46112020C1F8080B5FEA8840B9
:100B000005D505EB46114FF40050C1F8080B7F08DE
:100B1000761C002F88D1206803F059FC40036FD564
:100B2000206803F02CFC0026074667E0F80763D036
:100B30002068F1B203F031FC8046C00723D0D5F81D
:100B4000342806F00F0C05EB461309FA0CF082432B
:100B5000C5F83428C3F80899E06801280FD106EBDE
:100B6000C60004EB8000D0E911121144816436B94B
:100B7000E06C20B920680121009A03F0DFF92046DB
:100B8000F1B2FFF7F2FD5FEA087004D505EB4611FC
:100B90000820C1F808095FEAC86004D505EB4611D2
:100BA0001020C1F808095FEA486004D505EB46113A
:100BB0004020C1F808095FEA887016D531462846FA
:100BC00003F0ACFB06EBC60004EB800090F83F108E
:100BD0003C30012905D180F803A02046F1B200F095
:100BE00085F905EB4611C1F808B95FEA086003D53D
:100BF0003146204601F04AFF7F08761C002F95D130
:100C0000206803F0E4FB002811DAD5F8040820F08E
:100C10000101C5F8041894F8F40401283BD02046DB
:100C200000F082F92068416901F0004141612068CB
:100C300003F0CDFB00050BD5D5F80808C00702D09E
:100C4000204600F095F92068416901F40061416196
:100C5000206803F0BCFB00010AD52068416901F05F
:100C60000061416194F8F404E0B1204600F080F99D
:100C7000206803F0ACFBC00472D5D5F8040820F05E
:100C80000101C5F804182068102103F047FB00217A
:100C90004FF67F322DE00021204684F8F4A4FFF7C0
:100CA0005FFDBFE784F8F4942068406D0121C0F334
:100CB0008300C4F8F8042046FFF752FDD8E700BFD0
:100CC00005EB4110C0F80829D0F8003923F40013CF
:100CD000C0F80039C0F8082BD0F8003B23F400130B
:100CE000C0F8003BD0F8003B43F00063C0F8003B85
:100CF000491C60688842E3D8D5F81C0840F001110F
:100D0000C5F81C18206B68B1D5F8840840F00B01B9
:100D1000C5F88418D5F8440840F00B012846C5F8FA
:100D200044180DE0D5F8140842F22B010843C5F829
:100D30001408D5F8100840F00B012846C5F8101823
:100D4000D0F8000820F4FE61C5F80018217B206867
:100D5000009A03F0F3F82068416901F48051416181
:100D6000206803F034FB800417D5206803F0D8F81E
:100D7000206803F0F3FA206101F09EF8217C2368DB
:100D8000CAB20146184603F057FB204600F0B6F8F9
:100D90002068416901F400514161206803F017FBAC
:100DA000000707D5204600F0C3F82068416901F02C
:100DB00008014161206803F00AFB000616D5A86906
:100DC000012620F08001A9610DE000BF06EBC600FE
:100DD00004EB800090F87F02012803D12046F1B295
:100DE000FFF7DAFC761C6068B042EFD8206803F0A9
:100DF000EEFAC00221D501264F4616E006EBC601E9
:100E000005EB461004EB8101D0F8000991F8402071
:100E1000012A09D1002807DAF0B281F83F7040F0CA
:100E200080012046FFF7B8FC761C6068B042E5D828
:100E30002068416901F480114161206803F0C7FA1C
:100E4000800234D501204B4629E000000A30544F7F
:100E500000EBC00205EB401104EB8202D1F8001B4D
:100E600092F88062012E19D1002917DA94F8FC64F7
:100E700001F4803106F00106B1420FD182F87F32D1
:100E8000A96941F08002AA616969090606D4D5F80A
:100E9000040840F40070C5F8040803E0401C6168D1
:100EA0008142D5D82068416901F400114161206870
:100EB00003F08DFA400007D52046FFF752FC20686A
:100EC000416901F080414161206803F080FA4007E8
:100ED0000AD520684568680702D52046FFF758FC08
:100EE0002068416829434160BDE8FC9FD0F80805AF
:100EF00002F0F6BCD0F8080502F006BD70B5044655
:100F00000069012570B1022801D0FFF757FAD4F823
:100F10000805294602F067FDD4F80805BDE87040D1
:100F200002F01BBD0025F2E7D0F8080502F044BD31
:100F3000D0F8080502F04ABD10B5044690F8BC048C
:100F400001280BD0012084F8381084F8BC042068F4
:100F500003F061FA002084F8BC0410BD022010BD2B
:100F6000D0F8082500F2C441104602F048BD000048
:100F700010B50446D0F8080502F07AFD2068D0F8D4
:100F8000001E41F00101C0F8001E206A002804D0B4
:100F90000248016841F00601016010BD10ED00E05B
:100FA000134970B50A68D243520705D5096801F0A4
:100FB0000701814213D118E00A6822F007020243B8
:100FC0000A60FFF731FB0A4D4FF47A760446083D7C
:100FD00007E000BFFFF728FB001BB04201D901204A
:100FE00070BD2868C0438004F4D4002070BD0000A8
:100FF0000C4802580248016841F480710160704752
:101000000048025810B500F057FF05490968054A25
:10101000C1F30211515C01F01F01C84010BD000076
:1010200020440258D8460008494930B5484C0B1DA9
:101030000A68143409681D68246802F00303C5F3C4
:101040000012C1F30531C4F3CC04002914FB02F2F1
:1010500000EE102AF8EE400A75D03F4A9FED3D1A87
:10106000B7EE000A6BB1DFED3D1A012B01D0022B68
:1010700064D002EE101A1168F8EE422A81EEA22A1C
:1010800021E0334C283C23689B0612D5344B24685E
:1010900001EE901A1168C4F3C104F8EE612AE3402E
:1010A00001EE903AC1F30801F8EE611A81EEA22A2E
:1010B0000BE001EE901ADFED2B2A00BFF8EE611A6B
:1010C000116882EEA12AC1F3080101EE901A11689D
:1010D000F8EE611A40EE811A71EE800A62EE200A83
:1010E000C1F3462101EE101AB8EE411A31EE001A92
:1010F000C0EE811ABCEEE11A80ED001A1168C1F34E
:10110000064101EE101AB8EE411A31EE001AC0EE97
:10111000811ABCEEE11A80ED011A1168C1F3066173
:1011200001EE101AB8EE411A31EE000A80EE801A74
:10113000BCEEC10A80ED020A30BD04E001EE901A57
:10114000DFED092ABAE70021016041608160F3E721
:101150002844025800000039384402580024744AD8
:101160000090D0030024744C20BCBE4B494930B5DC
:10117000484C0B1D0A681C3409681D68246802F07D
:101180000303C5F30022C1F30551C4F3CC040029C5
:1011900014FB02F200EE102AF8EE400A75D03F4A26
:1011A0009FED3D1AB7EE000A6BB1DFED3D1A012B42
:1011B00001D0022B64D002EE101A1168F8EE422A18
:1011C00081EEA22A21E0334C283C23689B0612D5ED
:1011D000344B246801EE901A1168C4F3C104F8EE90
:1011E000612AE34001EE903AC1F30801F8EE611A7A
:1011F00081EEA22A0BE001EE901ADFED2B2A00BF50
:10120000F8EE611A116882EEA12AC1F3080101EE1D
:10121000901A1168F8EE611A40EE811A71EE800A98
:1012200062EE200AC1F3462101EE101AB8EE411A0F
:1012300031EE001AC0EE811ABCEEE11A80ED001A00
:101240001168C1F3064101EE101AB8EE411A31EEF1
:10125000001AC0EE811ABCEEE11A80ED011A116885
:10126000C1F3066101EE101AB8EE411A31EE000A20
:1012700080EE801ABCEEC10A80ED020A30BD04E0A7
:1012800001EE901ADFED092ABAE700210160416002
:101290008160F3E7284402580000003940440258B6
:1012A0000024744A0090D0030024744C20BCBE4B30
:1012B0002DE9FE4F0546DFF8E48350F8081B0024B3
:1012C000F64FC943019005F12800264608F124088D
:1012D000009008011DD4A86E50B1B0F5801F0CD04D
:1012E000B0F5001F0ED0B0F5401F1ED001240FE056
:1012F000386840F40030386017E00198022101F0AE
:1013000017FC03E00098022101F0A2FC04000CD0BD
:1013100026462888C043C00523D4A86D05281ED2C0
:10132000DFE800F00C11161B1B00AA6ED8F80010A5
:1013300021F440111143C8F80010EAE7386840F47E
:101340000030386009E00198002101F0F1FB03E072
:101350000098002101F07CFC044674B100E00124F7
:1013600026462888C043800528D4E86D80281ED0F2
:101370000CDC90B140280ED114E0AA6DD8F8001012
:1013800021F007011143C8F80010EAE7C02813D084
:10139000B0F5807F10D001240FE0386840F40030B1
:1013A000386009E00198002101F0C2FB03E00098D9
:1013B000002101F04DFC04469CB126462888DFF848
:1013C000DC92C04309F12C0940052CD4D5F8A800C3
:1013D000B0F5800F20D00DDCA0B1B0F5001F0FD10B
:1013E00015E0EA6DD8F8001021F4E0711143C8F857
:1013F0000010E3E7B0F5C00F13D0B0F5000F10D028
:1014000001240FE0386840F40030386009E00198AA
:10141000002101F08DFB03E00098002101F018FC91
:1014200004467CB126462888C04300052DD4D5F853
:10143000AC00B0F1007F21D00EDCA8B1B0F1807F0C
:1014400010D116E0D5F8A820D9F8001021F46001D9
:101450001143C9F80010E6E7B0F1407F13D0B0F1B6
:10146000806F10D001240FE0386840F400303860FD
:1014700009E00198002101F05BFB03E000980021E6
:1014800001F0E6FB044674B126462868C04380019B
:101490001FD4E86CD8B110280FD0202812D03028E3
:1014A00015D0012414E0D5F8AC20D9F8001021F0B3
:1014B000E0611143C9F80010E7E7386840F40030F4
:1014C000386004E00198022101F032FB044674B157
:1014D00026462888C043C0042BD4286EB0F5005F90
:1014E00020D00DDCA0B1B0F5805F0FD115E06B48C6
:1014F000EA6C2030016821F0300111430160E8E717
:10150000B0F5405F13D0B0F5804F10D001240FE04C
:10151000386840F40030386009E00198002101F09B
:1015200007FB03E00098002101F092FB04468CB118
:1015300026462888C043800429D4686EB0F5403F11
:1015400023D010DC08B3B0F5803F14D0B0F5003FD5
:101550000FD115E02A6ED8F8001021F4E0411143B4
:10156000C8F80010E5E7B0F5802F0ED0B0F5A02F39
:101570000BD001240AE00198012101F0D9FA03E01F
:101580000098012101F064FB044694B126462888A6
:10159000C04340042AD4D5F8B000B0F1405F23D056
:1015A00010DC08B3B0F1805F14D0B0F1005F0FD150
:1015B00015E06A6ED8F8001021F4E0211143C8F854
:1015C0000010E4E7B0F1804F0ED0B0F1A04F0BD087
:1015D00001240AE00198012101F0AAFA03E0009831
:1015E000012101F035FB044674B126462888C0432A
:1015F00000041FD4286FD8B1B0F1805F0ED0B0F1D5
:10160000005F10D0012414E0D5F8B020D9F8001004
:1016100021F0E0411143C9F80010E7E7386840F4D1
:101620000030386004E00198012101F081FA04469D
:1016300074B126462868C043C0011ED4A86CD0B13E
:1016400001280ED0022811D0032814D0012413E061
:101650002A6FD8F8001021F040511143C8F800104B
:10166000E8E7386840F40030386004E0019802216F
:1016700001F05EFA0446ACB126462868DFF81CB0DB
:10168000C043ABF11C0B400252D40548016841F441
:1016900080710160FEF7C8FF824611E02C440258B9
:1016A00000480258FA48AA6C016821F0030111436E
:1016B0000160E2E7FEF7B8FFA0EB0A00642835D826
:1016C000F4480068C005F5D58CBBDFF8C4A3B5F8B5
:1016D000B4100AF1240ADAF8000001F4407100F4B1
:1016E0004070884211D0DAF80010DAF8002021F4B6
:1016F000407142F48032CAF80020DAF8002022F467
:101700008032CAF80020CAF80010D5F8B400B0F54D
:10171000807F1AD1FEF788FF029012E0FEF784FF67
:101720000299411A41F2883081420AD9032426469F
:101730002878DFF85CA3C0430AF1080AC00721D06B
:101740003CE0DAF800008007E8D5D5F8B410C1F322
:101750000120032858460DD0016821F47C51016016
:10176000B5F8B420DAF80010C2F30B021143CAF83E
:101770000010DDE7C84A036802EA111223F47C5125
:101780001143ECE7E86F182816D005DCA0B1082853
:1017900008D0102804D10AE020280DD028280BD02A
:1017A00001240AE00198012101F0C2F903E0009848
:1017B000012101F04DFA044664B126462878C04361
:1017C00080071ED4A86F062819D2DFE800F0160C97
:1017D00011161616EA6FDAF8001021F038011143DD
:1017E000CAF80010EAE70198012101F0A1F903E02D
:1017F0000098012101F02CFA04467CB100E001249C
:1018000026462878C04340071FD4D5F89400062800
:1018100019D2DFE800F0160C11161616AA6FDAF8C6
:10182000001021F007011143CAF80010E9E7019800
:10183000012101F07DF903E00098012101F008FA8F
:101840000446A4B100E0012426462878C04380065F
:101850002BD4D5F89000B0F1405F24D011DC10B348
:10186000B0F1805F15D0B0F1005F10D116E0D5F86F
:101870009420D9F8001021F007011143C9F8001095
:10188000E3E7B0F1804F0ED0B0F1A04F0BD00124B0
:101890000AE00198002101F04BF903E000980221D1
:1018A00001F0D6F9044694B126462878C043400694
:1018B0002BD4D5F89C00B0F5406F24D011DC10B3C8
:1018C000B0F5806F15D0B0F5006F10D116E0D5F8E7
:1018D0009020DAF8001021F0E0411143CAF800101E
:1018E000E3E7B0F5805F0ED0B0F5A05F0BD0012428
:1018F0000AE00198002101F01BF903E000980221A1
:1019000001F0A6F9044694B126462878C0430006A3
:101910002BD4D5F8A000B0F5C04F24D011DC10B303
:10192000B0F5005F15D0B0F5804F10D116E0D5F8B6
:101930009C20D9F8001021F4E0511143C9F800109F
:10194000E3E7B0F5004F0ED0B0F5204F0BD00124E7
:101950000AE00198002101F0EBF803E00098022171
:1019600001F076F9044654B126462878C0430007B2
:101970001ED4D5F88400B0F5805F0AD00FE0D5F80A
:10198000A020D9F8001021F460411143C9F80010DB
:10199000EBE70098022101F05BF900B10126D5F8D0
:1019A0008420DAF8001021F440511143CAF80010E5
:1019B0002878C043C00613D4D5F89800B0F5807FCE
:1019C00005D10098022101F043F900B10126D5F8B4
:1019D0009820D9F8001021F440711143C9F8001083
:1019E0002868C043000316D4D5F8A40038B1B0F578
:1019F000803F09D0B0F5003F0BD001240AE00198E8
:101A0000002101F095F803E00098022101F020F98F
:101A100004468CB126462868C043400322D4D5F83A
:101A20008800B0F5801F11D0B0F5001F13D0B0F5BD
:101A3000401F15D0012414E0D5F8A420D9F80010D7
:101A400021F440311143C9F80010E4E7386840F44C
:101A50000030386004E00098012101F0F9F80446F4
:101A60005CB126462868C043C00323D4286DA8B1C2
:101A7000B0F5803F17D001241BE0D5F88820DAF8B4
:101A8000001021F440111143CAF80010EAE70000E9
:101A90004C44025800480258CFFFFF00386840F419
:101AA0000030386004E00198022101F041F804465A
:101AB000E4B126462868C043800005D4009802217E
:101AC00001F0C6F800B101262868C04380031BD48A
:101AD000D5F88000B0B1B0F5807F0FD0B0F5007FB1
:101AE00010D0B0F5407F0DD001240CE05A482A6D8B
:101AF000016821F4803111430160DBE7386840F46C
:101B000000303860ECB326462868C043C00207D4D2
:101B10006A6FD8F8001021F000411143C8F8001096
:101B20002868C043C00008D4D5F8B820DBF80010FE
:101B300021F480411143CBF800102868C043800293
:101B400007D4EA6ED8F8001021F080711143C8F86C
:101B500000102868C04340000CD4DBF8001021F4CA
:101B60000041CBF80010DBF80010D5F8BC20114381
:101B7000CBF800102868C04308D437486A6D016864
:101B800000E018E021F04051114301602868C04393
:101B9000000208D4D5F88C20DAF8001021F44001B6
:101BA0001143CAF8001028790024C04300F0010056
:101BB00020430AD00FE0D5F88020DAF8001021F495
:101BC00040711143CAF800109EE70198002100F00F
:101BD000AFFF00B106462879C04300F00200204361
:101BE00005D10198012100F0A3FF00B10646287934
:101BF000C04300F00400204305D10198022100F009
:101C000097FF00B106462879C04300F00800204342
:101C100005D10098002101F01BF800B10646287993
:101C2000C04300F01000204305D10098012101F0CD
:101C30000FF800B106462879C04300F020000443A5
:101C400004D10098022101F003F800B916B1012077
:101C5000BDE8FE8F0020FBE74C4402582DE9F05F01
:101C600004000F467ED0DFF83882D8F8000000F07C
:101C70000F00B8420CD2D8F8001021F00F01394300
:101C8000C8F80010D8F8000000F00F00B84269D181
:101C90002078844D40070AD52069296801F0700139
:101CA000884204D9296821F0700101432960207815
:101CB0007C4E361D00070AD56069316801F070015D
:101CC000884204D9316821F07001014331602078E5
:101CD000C0060AD5A069316801F4E061884204D9E0
:101CE000316821F4E061014331602078DFF8B4B15C
:101CF00080060BF1080B0CD5E1695846DBF8002093
:101D000002F07002914204D9026822F070020A4384
:101D10000260207880070AD5E068296801F00F0189
:101D2000884204D9296821F00F01014329602078F5
:101D3000C0073ED05B49A2682868183920F470605B
:101D4000104328606068022818D0032819D0096859
:101D5000012819D0490700294ADADFF848A1AAF179
:101D6000080A00E044E0DAF8002022F0070202430B
:101D7000CAF80020FEF758FC814612E00968890382
:101D8000E9E709688901E6E7C905E4E7FEF74CFCE5
:101D9000A0EB090141F28830814202D90320BDE85D
:101DA000F09F6168DAF8000000F03800B0EBC10F76
:101DB000ECD1207880070AD5E068296801F00F018E
:101DC000884204D2296821F00F0101432960D8F824
:101DD0000010404601F00F01B9420BD9016821F013
:101DE0000F0139430160006800F00F00B84201D0D4
:101DF0000120D4E7207840070AD52069296801F03E
:101E00007001884204D2296821F0700101432960E1
:101E1000207800070AD56069316801F070018842B6
:101E200004D2316821F07001014331602078C0068E
:101E30000AD5A069316801F4E061884204D23168B2
:101E400021F4E06101433160207880060CD5E1691E
:101E50005846DBF8002002F07002914204D202687A
:101E600022F070020A43026000F06CF80E492A6802
:101E70002B68C2F3032203F00F038A5CC95C02F0F3
:101E80001F0201F01F01D040084A20FA01F1116041
:101E90000749086007480068BDE8F05FFEF700BC2E
:101EA0000020005218440258D846000810000024B0
:101EB0000C0000240400002430B500F043F80B4A65
:101EC0000B490C4B15681468C5F3032204F00F048A
:101ED0008A5C095D02F01F0201F01F01D040064A32
:101EE00020FA01F119601060084630BD184402580C
:101EF000D8460008100000240C00002400B5FFF7AD
:101F0000DBFF05490968054AC1F30211515C01F084
:101F10001F01C84000BD00001C440258D8460008FC
:101F200000B5FFF7C9FF05490968054AC1F3022159
:101F3000515C01F01F01C84000BD00001C44025864
:101F4000D8460008454970B545480968434B103BE1
:101F500011F0380208D00111082A03D0102A0BD042
:101F6000182A0BD0084670BD19688906FBD5196878
:101F7000C1F3C101C84070BD3A4870BD3749374D03
:101F800018310C1D24350A68096826682D6802F08E
:101F9000030406F00102C1F30511C5F3CC0515FBDE
:101FA00002F200EE102AB8EE400AE9B32F4ADFED44
:101FB0002E0AB7EE001A6CB1DFED2D1A012C01D0FC
:101FC000022C43D002EE101A1068F8EE422A81EE7D
:101FD000A22A1EE01C68A40611D51B6801EE901A07
:101FE0001168C3F3C103F8EE612AD84001EE900AEC
:101FF000C1F30800F8EE611A81EEA22A0BE001EEAF
:10200000901ADFED1C2A00BFF8EE611A106882EE0C
:10201000A12AC0F3080001EE900AF8EE611A40EE22
:10202000201A31EE810A00E015E022EE000A106865
:10203000C0F34620401C00EE900AF8EE600A80EEE5
:10204000201ABCEEC10A10EE100A70BD01EE901A03
:10205000DFED092AD8E7002070BD000010440258C7
:102060000090D00340787D010000003930440258D0
:102070000024744A0024744C20BCBE4B2DE9F05F50
:1020800004007DD0FF4F2078FE4D1837DFF8F49321
:10209000103DC00748D0D9F80000396800F038007A
:1020A000102815D0182803D101F0030002280FD002
:1020B0006068B0F5803F12D010B1B0F5A02F18D0F5
:1020C000286820F480302860286820F4802009E007
:1020D0002868800328D560680028D2D024E02868CA
:1020E00040F480302860606888B1FEF79DFA0646AB
:1020F00009E0286840F480202860F0E7FEF794FAB1
:10210000801B64286FD828688003F7D50CE0FEF7A1
:102110008BFA064605E000BFFEF786FA801B6428AE
:10212000F0D828688003F7D4207841F20308D54E10
:102130000C3E800769D5D9F80000396810F03800E6
:102140000ED0182801D188070AD0E06890B329681A
:1021500021F0190101432960FEF766FA824631E059
:102160002868400702D5E06800288AD0E16828681E
:1021700020F0190008432860FEF756FA824607E06F
:10218000DFE000BFFEF750FAA0EB0A000228B9D842
:1021900028684007F6D500BFFEF740FA40451BD837
:1021A0002069402812D0316821F47C3141EA0030A6
:1021B00030602AE018E000BFFEF736FAA0EB0A0014
:1021C00002289FD828684007F6D5E5E7306820F454
:1021D0007C3040F40030EBE7207C316821F0FE4198
:1021E00041EA0060E4E70DE1286820F00100286082
:1021F000FEF71AFA824605E0FEF716FAA0EB0A008F
:1022000002288DD828684007F6D42078C0065DD50E
:10221000D9F80000DFF86CB2396800F03800ABF193
:10222000040B082810D0182803D101F0030001285E
:102230000AD0E0690028286838D040F08000286083
:10224000FEF7F2F9824623E02868C00523D5E0694D
:10225000802876D11FE0206A202821D0316821F023
:10226000F84141EA8060306030E000BF94F820100F
:10227000DBF8002022F07C5242EA0161CBF800102A
:1022800024E000BFFEF7D0F9A0EB0A00022898D89E
:102290002868C005F6D5FEF7C1F94045E6D8DAE76B
:1022A000306820F0F84040F08040DCE720F080000B
:1022B0002860FEF7B9F9064605E000BFFEF7B4F95D
:1022C000801B02289DD82868C005F7D42078000715
:1022D00029D56C486169643000298046016811D0B5
:1022E00041F001010160FEF79FF9064605E000BFDD
:1022F000FEF79AF9801B0228C9D8D8F80000800799
:10230000F6D510E021F001010160FEF78DF90646D7
:1023100005E000BFFEF788F9801B022872D8D8F8C4
:1023200000008007F6D42078800623D5A069002815
:10233000286810D040F480502860FEF775F90646F2
:1023400005E036E1FEF770F9801B02285AD82868AC
:102350008004F7D50EE020F480502860FEF764F981
:10236000064604E0FEF760F9801B02284AD8286878
:102370008004F7D4207840074FD5DFF80C81D8F8D7
:10238000001041F48071C8F80010FEF74DF90646C0
:1023900005E000BFFEF748F9801B642832D8D8F862
:1023A0000000C005F6D5374EA068603601280AD077
:1023B00008B1052813D0306820F001003060306883
:1023C00020F0040002E0306840F001003060A068B6
:1023D00041F2883A90B1FEF727F980460AE030686A
:1023E00040F004003060EEE7FEF71EF9A0EB0801B4
:1023F000514507D830688007F6D50EE0FEF714F98E
:10240000804607E084E000BFFEF70EF9A0EB08016C
:1024100051457DD830688007F6D4606AB0B3DFF8E4
:102420006480D9F8001008F120084FF6F87B08F115
:102430000409C1F3C2010329A8F1040A69D00228E2
:10244000286820F08070286003D0FEF7EDF804467D
:1024500084E0FEF7E9F8064605E000BFFEF7E4F881
:10246000801B022877D828688001F7D4E26A40F2FE
:10247000F331386854F8283F884340EA0210184383
:10248000386004E01044025800480258B5E0217B4F
:10249000434622894FF4FE0C208A4FF0FE47490242
:1024A000267D521E401EA1F50071C2F308088AB2B3
:1024B000761E0CEA004042EA08020243504607EA50
:1024C00006610A431A60DAF8002022F00102CAF815
:1024D0000020D9F80020266A22EA0B0242EAC6024E
:1024E000C9F80020DAF80010A26921F00C011143AC
:1024F000CAF800100168E26921F00201114301608D
:10250000016841F480310160016841F4003101E06B
:1025100021E027E00160016841F480210160016849
:1025200041F001010160286840F080702860FEF7EA
:102530007BF8044605E000BFFEF776F8001B022892
:1025400009D828688001F7D557E000BFFEF76CF87E
:10255000001B022802D90320BDE8F09F28688001F3
:10256000F4D44AE039680128D8F8000021D0A26AE2
:1025700001F0030393421CD1E26AC1F305118A42C0
:1025800017D1216BC0F30802491E8A4211D1616B39
:10259000C0F34622491E91420BD1A16BC0F3064203
:1025A000491E914205D1E16BC0F30660491E81428C
:1025B00001D00120D0E7A16C4E46D9F80000C0F34D
:1025C000CC00814219D0DAF80000554620F0010015
:1025D000CAF80000FEF728F84FEA0007FEF724F8D3
:1025E000B842FBD0A26C306820EA0B0040EAC2007F
:1025F0003060286840F0010028600020ACE7401EF1
:10260000B0F1807F10B501D3012010BD4FF0E02460
:1026100060610F21601701F0A1FF0020A061072178
:10262000216110BD30B590F88410012918D0012225
:1026300080F884202421C0F888100022202401681A
:102640000B680D6823F0005325F001050D6042660C
:1026500001680B60C0F8884080F88420104630BDC7
:10266000022030BD70B5044690F8840001281DD0CA
:10267000012284F884202420C4F88800206805689A
:10268000026822F0010202602068826822F0606223
:102690000A438260204600F05DFC22682021002071
:1026A0001560C4F8881084F8840070BD022070BDE5
:1026B00070B5044690F8840001281DD0012284F8EA
:1026C00084202420C4F8880020680568026822F06D
:1026D000010202602068826822F060420A43826040
:1026E000204600F037FC2268202100201560C4F845
:1026F000881084F8840070BD022070BD10B50400FD
:1027000003D0D4F8880010B107E0012010BD0020EC
:1027100084F88400204600F027F82420C4F88800BC
:102720002068016821F001010160204600F018FDD9
:102730000128EBD0A06A10B1204600F02DFC2068E3
:10274000416821F4904141602068816821F02A01AC
:1027500081602068016841F0010101602046BDE808
:10276000104000F07DBC000010B5B6B00446142146
:1027700030A8FDF7E5FDC0216846FDF7E1FD1A49E7
:10278000206888422DD100201F9001210446CDE908
:1027900000106846FEF78CFD08B1FDF70FFE1348E8
:1027A000016841F010010160006800F010003590F0
:1027B0000E481038016841F00101016000680DF118
:1027C000C00C022100F0010035904FF4C0600723D7
:1027D0008CE8130003220648CDE9332330A9FDF726
:1027E00001FE36B010BD000000100140F044025858
:1027F000000002582DE9F8430446D0F888009846B6
:1028000016460D46202802D00220BDE8F883A5B167
:102810009EB10021C4F890102120C4F8880018341B
:10282000FDF702FF814654F8100CA687E6872027A3
:10283000183CB0F5805F02D003E00120E5E7206995
:1028400010B12E46002510E000260EE08021204623
:1028500000F05CFEC0B9DEB116F8010B2168886299
:10286000B4F85600401EA4F85600B4F856004B4683
:102870004FF00002CDF800800028E7D14FF0400172
:10288000204600F043FE48B1C4F888700320BCE73E
:1028900035F8020B2168C0F30800E0E7C4F888703F
:1028A0000020B2E7FEE7000030B587B0142168468B
:1028B000FDF746FD2248016841F010010160016802
:1028C00001F010010591016841F004010160016807
:1028D00001F004010591016841F080010160016887
:1028E00001F080010591016841F00101016001687A
:1028F00001F001010591016841F0020101600168E8
:1029000001F002010591016841F0080101600068D1
:102910004FF400540B4D002200F0080021460590B2
:102920002846FDF775FE002100940120CDE9010144
:10293000284603916946FDF755FD07B030BD0000FC
:10294000E0440258000802581848002110B5164CFF
:102950000C224FF4E1330460C0E90131C160C0E9E9
:1029600004128161C161016241628162FFF7C6FEAA
:1029700008B1FDF723FD0D480021FFF799FE08B1CE
:10298000FDF71CFD09480021FFF76CFE08B1FDF7BB
:1029900015FD0648FFF746FE002803D0BDE81040AD
:1029A000FDF70CBD10BD0000001001401C0000240C
:1029B000FEE7FEE70148FDF7CBBF0000D002002490
:1029C0002DE9F0410446C0680D4620272368012800
:1029D0004FF4004604F2C44203EB4511D3F840C063
:1029E000D1F8080B09D0DFF89CE0F4453AD1020495
:1029F00033D500BFC1F8086B40E0234B5FEA007E8F
:102A000004D59C453AD90004F4D437E05FEA806EDF
:102A100002D5C1F8087B31E010F0280F2ED19C457B
:102A200001D90004E6D4D1F8101B05EBC50004EB76
:102A30008000C1F31201D0F89C32A3EB0101C0F871
:102A4000901200F51F70ADB903691BB1C268114443
:102A5000C1600FE0206801210AE080060AD5C1F8B4
:102A6000087B07E035B9D4F88C0218B90021184664
:102A700001F064FA2046E9B2FDF780FE0020BDE8CF
:102A8000F08100000A31544F0A30544F2DE9F84FBD
:102A90000E460568814601EBC60100EB8104D4E9CE
:102AA00013203C34904202D90120BDE8F88FA16880
:102AB000101A814200D20846C01C05EB4618870850
:102AC0001BE000BFA268A0EB010A524500D292466B
:102AD00099F80C100AF1030000911FFA8AF3E168DB
:102AE00087082846F2B201F01BFDE16801EB0A00FD
:102AF000E060616901EB0A006061D8F8180980B2F2
:102B0000B84205D3D4E90401814201D20028D9D1C9
:102B1000D4E90401884208D8D5F83418012006F019
:102B20000F0290408143C5F834180020BDE770477C
:102B30002DE9F047454D044689464FF0000A2868C4
:102B4000C04380070AD0414E283E306820F08060A4
:102B50003060FDF769FD0746B04608E00120BDE89A
:102B6000F08700BFFDF760FDC01B022867D8D8F8CA
:102B700000000001F6D4206829684FF4FE0721F414
:102B80007C313E0241EA00302860207AA389B4F803
:102B900004C040022D4D2D495B1E227CACF1010C7E
:102BA0001035091DA0F5007080B2521ECCF3080C40
:102BB00007EA034340EA0C00184306EA02621043A6
:102BC00028600868626920F0C000104308600A6845
:102BD000A06922F0200202430A60281D0A6822F040
:102BE00010020A6002684FF6F873E4699A4342EAF9
:102BF000C40202600868B9F1000F40F010020A60D8
:102C000011D00868B9F1010F11D040F4001008602C
:102C1000D8F80000444640F08060C8F80000FDF796
:102C200003FD05460DE0086840F40020EFE740F49E
:102C30008010ECE7FDF7F8FC401B022801D90320C7
:102C40008DE720680001F5D5504688E728440258F2
:102C50002DE9F047454D044689464FF0000A2868A3
:102C6000C04380070AD0414E283E306820F0805093
:102C70003060FDF7D9FC0746B04608E00120BDE80A
:102C8000F08700BFFDF7D0FCC01B022867D8D8F83A
:102C900000008000F6D4208829684FF4FE0721F058
:102CA0007C713E0241EA00502860207AA389B4F882
:102CB00004C040022D4D2D495B1E227CACF1010C5D
:102CC0001835091DA0F5007080B2521ECCF3080C17
:102CD00007EA034340EA0C00184306EA0262104385
:102CE00028600868626920F44060104308600A6840
:102CF000A06922F4007202430A60281D0A6822F4C7
:102D000080720A6002684FF6F873E4699A4342EAF7
:102D1000C40202600868B9F1000F40F480720A60D2
:102D200011D00868B9F1010F11D040F0807008602F
:102D3000D8F80000444640F08050C8F80000FDF785
:102D400073FC05460DE0086840F48000EFE740F4AE
:102D50000000ECE7FDF768FC401B022801D90320C6
:102D60008DE720688000F5D5504688E72844025852
:102D700070470178407841EA00207047FDF75ABC5F
:102D8000F0B59DB04C216846FDF7DAFA202113A872
:102D9000FDF7D6FA0220FEF703F93449002434483F
:102DA0000A6822F001020A600A68026842F440429E
:102DB0000260026802F440421B9202689204FCD551
:102DC0002C4A136843F002031360126802F00202F7
:102DD0001B92026842F44042026002680A6842F0B4
:102DE00001020A60096801F001011B910168890470
:102DF000FCD5FEF7FFF8FDF711FC1E4984390122CE
:102E00000B68022008252526C70323F018030B6052
:102E100005210292CDE900670AAF0692C02309900E
:102E2000042687E80B00CDE90D06CDE910540F907C
:102E300068461294FFF722F908B172B6FEE7402007
:102E40001A903F210301CDE916500322CDE9180362
:102E500013AB13A883E816000421FEF7FFFE002839
:102E600001D072B6FEE71DB0F0BD00002C04005882
:102E700018480258F44402582C48F0B52C4A01680E
:102E800041F470010160106800F00F00072804D2BF
:102E9000106820F00F00C01D106026490020254C4E
:102EA00010340B68244D43F001030B6020600B6865
:102EB0002B400B60136803F00F03072B04D9136832
:102EC00023F00F03DB1D13601A4C1C4A18341C4BF3
:102ED000261D371D2060174C1A4D28343060261DE2
:102EE0003860371D23603B1D35601C1D3A60251D71
:102EF0002E1D1860331D22602860326018600A6839
:102F00000C4B114C22F4802260330A601860206858
:102F10006FF30F00B0F1005F03D20C490120C1F83C
:102F2000080143F2D2000A490860F0BD88ED00E0D4
:102F300000200052004402587FEDF6EA80020101B1
:102F4000000202020000FF010010005C008000513E
:102F50000040005230B5416EB9B101680D4B03F12C
:102F600008048A688968C2F34262490F5D5C615C4B
:102F70002D01B5FBF1F1A0F86A10995CA25C090182
:102F8000B1FBF2F1A0F8681030BD0121A0F86A1081
:102F9000F8E70000C846000890F82810C90706D0D6
:102FA0000168C36A4A6822F400321A434A6090F802
:102FB0002810890706D50168036B4A6822F480321D
:102FC0001A434A6090F82810490706D50168436BF8
:102FD0004A6822F480221A434A6090F828100907B0
:102FE00006D50168836B4A6822F400421A434A609E
:102FF00090F82810C90606D50168C36B8A6822F4C8
:1030000080521A438A6090F82810890606D5016814
:10301000036C8A6822F400521A438A6090F82810E0
:10302000490611D50168436C4A6822F480121A439C
:103030004A60416CB1F5801F06D10168836C4A6813
:1030400022F4C0021A434A6090F82810090606D5F7
:103050000168C26C486820F4002010434860704743
:103060002DE9F84300250446C0F89050FDF7DCFA3E
:103070008046206820266FF07E470068000713D541
:103080000022434631042046009700F03FFA58B131
:10309000216851E8000F20F0800041E80002002A7A
:1030A000F6D1C4F8886021E020680068400722D586
:1030B000002243464FF480012046009700F026FA94
:1030C000C8B1206850E8001F21F4907140E8001258
:1030D000002AF6D12068083050E8001F21F00101D5
:1030E00040E80012002AF5D1C4F88C60032084F86F
:1030F0008450BDE8F883C4F88860C4F88C60E56645
:103100002567002084F88450F3E7000010B50268BA
:1031100052E8001F21F4907142E80013002BF6D111
:103120000E4B0268083252E8001F194042E80014B2
:10313000002CF6D1C16E012908D1026852E8001FA7
:1031400021F0100142E80013002BF6D100212022CB
:10315000C0F88C20C166416710BD0000FEFFFFEF84
:103160002DE9F04304468068D84E87B0D84B2168DB
:10317000D4E90427D4F81CC010430A68002547EAA4
:103180000C073843324002430A602068E268416815
:1031900021F44051114341602268A1699A4201D053
:1031A000206A01439768DFF82CC3CB4ECB4807EA6F
:1031B0000C070F4397602168676ACA6A22F00F0202
:1031C0003A43CA622268B2420ED1006800F0380069
:1031D000182873D047DCB8B3082879D010286FD1ED
:1031E00078E028287ED17BE0BD498A4209D1006879
:1031F00000F00700062875D2DFE800F0546A6C6E14
:103200007072B8498A4209D1006800F007000628A8
:1032100068D2DFE800F0475D5F616365B2498A42CA
:1032200009D1006800F0070006285BD2DFE800F053
:103230003A5052545658AD498A420BD1006800F0BA
:10324000070006284ED200E010E0DFE800F02B4136
:1032500043454749A6498A420AD1006800F0380030
:10326000182839D0B7DD2028BBD13CE001203AE056
:10327000A0498A4209D1006800F00700062831D22F
:10328000DFE800F01026282A2C2E9B498A420BD119
:10329000006800F00700062824D2DFE800F00319D8
:1032A0001B1D1F2100201EE09A421BD18B48001DD0
:1032B000006800F00700062814D202E00CE007E0E6
:1032C00010E0DFE800F0030507090B0D02200AE01B
:1032D000042008E0082006E0102004E0202002E09E
:1032E000402000E080208549DFF814829A42854A18
:1032F0004FF400434FEA21174FF000064ED110283B
:103300001AD006DC022809D004280BD008287CD16A
:103310000DE020283ED0402877D13DE0FDF772FE39
:10332000014610E06846FDF77FFE01990BE003A817
:10333000FDF71CFF049906E01068800605D51068AB
:10334000C0F3C100C140002970D0606A676838F8D6
:10335000102007EB4703B1FBF2F0834255D8B0EBE6
:10336000073F52D8002308461946FCF7B1FF024632
:103370007808130E120243EA012110183A467141EF
:103380000023FCF7A5FF604AA0F5407191423CD8AC
:1033900021688FE03946D8E71946D6E7D4F81CC033
:1033A0004FF6EF799C4546D1082819D005DC58B175
:1033B00001280CD0042875D10DE0102815D0202844
:1033C00035D040286ED134E0FEF798FD01E0FEF7DD
:1033D000A7FD014610E06846FDF726FE01990BE0C7
:1033E00003A8FDF7C3FE049906E01068800604D523
:1033F0001068C0F3C100C140C1B1636A606838F8A9
:103400001330B1FBF3F1490000E04BE001EB500158
:10341000B1FBF0F0A0F11001494543D84FF6F0732D
:103420002168C0F342021840104343E043E03946AC
:10343000E3E71946E1E7082819D005DC58B101286F
:103440000CD004282ED10DE0102815D020282BD028
:10345000402827D12AE0FEF751FD01E0FEF760FD8C
:10346000014610E06846FDF7DFFD01990BE003A877
:10347000FDF77CFE049906E01068800604D510680C
:10348000C0F3C100C140B1B1636A606838F813305D
:10349000B1FBF3F101EB5001B1FBF0F0A0F1100131
:1034A000494505D9012506E03946EDE71946EBE720
:1034B000216880B2C8600120A4F86A00A4F86800FE
:1034C00028466667A66707B0BDE8F083F369FFCFBB
:1034D000000C0058FFF4FF11001001405444025842
:1034E0000044004000480040004C004000500040B4
:1034F0000014014000780040007C00400090D003A0
:10350000B046000800440258FFFC0F002DE9F047C8
:10351000994617460E460446089D4FF000082FE0D6
:10352000681C2DD0FDF780F8A0EB0900A84214D844
:103530009DB120680168490722D5C169C9430907BF
:103540000DD4082505622046FFF7E0FDC4F8905031
:10355000012084F88480BDE8F0870320FBE7C06980
:10356000C04300050CD421684FF400600862204677
:10357000FFF7CCFD2021C4F8901084F88480ECE79C
:103580002068C06936EA000004D00020B842C7D0E5
:103590000020E0E70120F9E710B5D0F8B8220024B8
:1035A0005268904700B10324204610BD00207047A8
:1035B0000020704713460A46002110B500F0C4F9F8
:1035C000002010BD13460A46002110B500F05DFA38
:1035D000002010BD10B58021044600F040FA2046BE
:1035E000BDE81040002100F03ABA10B50521C0F83E
:1035F000941200231A46194600F0A6F9002010BDC7
:1036000010B582610223C0F89432C26113460A46A3
:10361000002100F03AFA002010BD10B50421C0F8D6
:10362000941200231A46194600F02FFA002010BD0C
:10363000F8B504460D460020ADF800004888010AA0
:10364000062947D006DC01290FD0022912D0032910
:1036500062D11DE0072946D00F295DD1D4F8B4020C
:10366000C26920E0694690473BE0D4F8B412207C60
:103670000A68F7E7207C02260028D4F8B80205D0B3
:10368000C16A684688470146467036E0816AF8E7B5
:10369000C0B2062840D2DFE800F003090D11151969
:1036A000D4F8B4024268B2B3207CDBE7D4F8B402A9
:1036B0008268F8E7D4F8B402C268F4E7D4F8B40238
:1036C0000269F0E7D4F8B4024269ECE7D4F8B40236
:1036D0008269E8E7207CF0B9D4F8B802416B68460B
:1036E0008847014609E0207CA8B9D4F8B802016BEC
:1036F00068468847014607204870EA888AB1BDF8C5
:10370000000040B1824200D902462046ADF80020B8
:10371000FFF776FFF8BDFFE729462046FFF75AFF7F
:10372000F8E72046FFF779FFF4E701004FF00000CB
:1037300004D0012901D0022901D0032070470120C3
:10374000704710B5D0F8C802FDF735F8BDE8104055
:10375000FFF7EBBF2DE9F041174604464FF0000597
:1037600021B194F89C02032842D04CE0D4F8941282
:1037700004F11400022935D1D0E902639E4206D932
:10378000F21A394682602046FFF71CFF0FE0B34271
:1037900014D14068984211D3D4F8981288420DD2BF
:1037A000002220461146FFF70DFFC4F8985200236F
:1037B0001A461946204600F0C7F813E094F89C0218
:1037C000032808D1D4F8B802C16821B1C4F8D45292
:1037D000C168204688478021204600F040F92046F5
:1037E000FFF703FF94F8A00268B184F8A0520AE042
:1037F000D4F8B802426932B1C4F8D45242692046C2
:103800009047002800D10020BDE8F08170B5134634
:1038100004464FF0000221B194F89C02032830D0F6
:103820003AE0D4F8941204F5AA70032934D1D0E90F
:1038300002518D420AD96A1A82600846824200D338
:10384000024619462046FFF7B5FE25E094F8AA0285
:1038500010F01F0003D0012802D0022800D000225F
:1038600094F89C02032808D1D4F8B802016921B168
:10387000C4F8D4220169204688472046FFF7CDFED0
:103880000AE0D4F8B802836933B1C4F8D42282695B
:1038900020469047002800D1002070BD00207047CE
:1038A00010B5D0F8B812012280F89C22002429B16A
:1038B00003794A68D9B2904700B10324204610BD6D
:1038C000D0F8C82201F07F000B0600EBC00002EB2D
:1038D000800002D590F83E00704790F87E02704755
:1038E00010B5D0F8D42200EB8202D2F8B82222B16F
:1038F00090F89C32032B02D004E0032010BD126A22
:1039000002B19047002010BD10B5D0F8D42200EBD2
:103910008202D2F8B82222B190F89C32032B02D056
:1039200004E0032010BD526A02B19047002010BD90
:1039300010B51C46D0F8C80213462246FCF769FFB2
:10394000BDE81040FFF7F1BE10B5D0F8C802FCF793
:1039500090FFBDE81040FFF7E8BE2DE9F0410446B6
:1039600001250020D4F8B812064684F89C52C4F809
:1039700094026060C4F8A40284F8A00231B14A68DD
:1039800022B100212046904700B1032620460022A4
:1039900040231146FFF7CCFF4027A4F864510022D2
:1039A0003B4680212046C4F86071FFF7C1FFA58423
:1039B00030462762BDE8F08190F89C12042903D1BB
:1039C00090F89D1280F89C120020704710B590F876
:1039D0009C12032905D1D0F8B81211B1C96901B1FF
:1039E0008847002010BD01740020704710B5D0F842
:1039F000C802FDF7A1FABDE81040FFF796BE70B50A
:103A0000044600F2AA20054600F048F894F8AA02FD
:103A10000123B4F8B01210F01F02C4F89432C4F8B5
:103A200098120AD0012A0ED0022A12D000F080018A
:103A30002046BDE8704000F012B829462046BDE897
:103A4000704000F0A9B829462046BDE8704000F05B
:103A5000ECB929462046BDE8704000F034B910B5F5
:103A6000D0F8C802FCF71FFFBDE81040FFF75DBEAD
:103A700090F89C12042903D090F89C1280F89D12B3
:103A8000042180F89C120020704710B5D0F8C802BD
:103A9000FCF743FFBDE81040FFF747BE70B5054691
:103AA00008788C1C2870487868702046FFF761F908
:103AB000A41C68802046FFF75CF9A880A01CFFF7D3
:103AC00058F9E88070BDD0F8B83202460020002BCB
:103AD00002D01B6810461847704700002DE9F041DE
:103AE0002C4E0446887800258846C1B201293170E1
:103AF00006D941462046FFF76DFD0320BDE8F08161
:103B000094F89C02022702280CD003281DD04146BD
:103B10002046FFF75FFD31782046FFF73DFD032586
:103B20002846EBE789B320466160FFF7CCFF05002C
:103B300004D041462046FFF74DFD1DE02046FFF72B
:103B40006CFD032084F89C02EAE7C1B160688842FA
:103B50001BD0C1B22046FFF71FFD317820466160BF
:103B6000FFF7B1FF050010D041462046FFF732FDB8
:103B700021792046FFF710FD84F89C72D0E7616040
:103B800084F89C722046FFF707FD2046FFF745FDAD
:103B9000C6E70000140000242DE9F0410A784FF038
:103BA000000512F060020CD0202A01D0402A7DD1FD
:103BB000D0F8D42200EB8202D2F8B8229268904763
:103BC00031E04B78002201260A2B6FD2DFE803F0A8
:103BD00041666E586E08056E2D29FFF729FD67E0D6
:103BE00004468888D8B9C888C8B94888802816D2B9
:103BF00094F89C2200F07F07032A10D03946204613
:103C000084F89E72FFF7F2FE2046FFF706FD1FB113
:103C1000022084F89C024BE084F89C6248E0204635
:103C200044E0FFF75BFF054642E0CB88012B3DD126
:103C300090F89C32012B04D0022B02D0032B35D1FB
:103C400004E000F108018260012216E00122011D5A
:103C500013E090F89C22012A03D0022A01D0032A03
:103C600024D1CA88022A21D1D0F8A412C66009B191
:103C70000321C160022200F10C01FFF7C1FC17E033
:103C80004A88012A02D0022A03D00FE0C0F8A462B9
:103C900016E08988090A80F8A01211E090F89C3299
:103CA000012B08D0022B06D0032B04D0FFF792FC87
:103CB0002846BDE8F08149880129F9D1C0F8A4223D
:103CC000FFF7ABFCF4E72DE9F0410A780E460979DD
:103CD000054612F060004FF00008CCB20BD020284F
:103CE00001D040286AD121462846FFF75FFCFF2813
:103CF00000D0D8B396E07078C8B3012824D0032848
:103D00005CD195F89C02022802D0032856D10CE021
:103D1000002C53D0802C51D021462846FFF79FFE1F
:103D200080212846FFF79BFE7CE0708840B93CB1BB
:103D3000802C05D0F08818B921462846FFF78FFE61
:103D40002846FFF76AFC6DE095F89C020228DFD058
:103D5000032863D1708880BB600603D021462846C3
:103D6000FFF7EFFC2846FFF758FCBCE700E00AE04D
:103D7000C5F8D402D5F8B8028268F2B131462846B7
:103D8000904780464EE095F89C020027022802D01A
:103D9000032843D113E00CB1802C3FD1200604F05E
:103DA0007F0000EB800005EB800101D5143101E0BC
:103DB00001F5AA7102220F602CE033E02EE020060C
:103DC00004F00F0000EB800005EB800009D5808C2B
:103DD00020B304F07F0000EB800005EB8006143672
:103DE0000AE0B0F86401C8B104F07F0000EB800085
:103DF00005EB800606F5AA764CB1802C07D021464B
:103E00002846FFF75DFD10B10120306000E037600B
:103E1000022231462846FFF7F3FB03E031462846ED
:103E2000FFF7D8FB4046BDE8F08170B5054608783D
:103E30000E464FF0000410F0600003D0202801D09F
:103E4000402827D195F89C02012803D0022801D0F0
:103E500003281FD1B088C1B201291AD8C1B228469F
:103E6000FFF7A6FBFF280CD058B9D5F8B8128A681E
:103E70003AB1C5F8D40228468A68314690470446CC
:103E800000E00324F088204307D12846FFF7C5FB54
:103E900003E031462846FFF79DFB204670BD000039
:103EA00070B54D7801230A78012D1C4C02F00F05E6
:103EB00003FA05F3D0F81C5817D000EB421245EA7C
:103EC0000343C0F81C38D2F8000B00040BD40B8954
:103ED0000979D2F8000BC3F30A03184344EA81417D
:103EE0000843C2F8000B002070BD9EB23543C0F8F5
:103EF0001C5800EB4213D3F800090004F3D40D89D9
:103F00000979D3F80009C5F30A058904284341EA71
:103F1000825108432043C3F80009E4E70080001001
:103F2000D0F800196FF30A01C0F80019D0F804188E
:103F300041F48071C0F804180020704710B5144C8B
:103F4000036CA34203D9D0F8003B002B1EDB0023F7
:103F5000C0F8103B0129D0F8101B41F40021C0F833
:103F6000101BD0F8101B41F01801C0F8101BD0F83E
:103F7000101B41F0C041C0F8101B07D1C0F8142B32
:103F8000D0F8001B41F08021C0F8001B002010BDBC
:103F90000A30544F0B784A78012A00EB43100BD0BB
:103FA000D0F8002B22F40012C0F8002B0979032965
:103FB00014D0022912D017E0D0F8002922F4001200
:103FC000C0F800290979032901D002290CD1D0F8C1
:103FD000001941F08051C0F8001905E0D0F8001B2D
:103FE00041F08051C0F8001B002070470A784B78E0
:103FF000D1B2012B00EB421012D0D0F8002B002AD6
:1040000006DB29B1D0F8001B21F08041C0F8001B6D
:10401000D0F8001B41F40011C0F8001B00207047CD
:10402000D0F80029002A06DB29B1D0F8001921F0C8
:104030008041C0F80019D0F8001941F40011C0F80F
:104040000019EBE7F8B50B786FF060464F788A4DB2
:10405000DCB2012F00EB43132BD0D3F8107B002CE4
:1040600007EAC544C3F8104BD3F8104B04EA050423
:10407000C3F8104B7ED00D69002D7CD08C68254490
:104080006D1EB5FBF4F5ADB26C430C6206EAC54596
:10409000D3F8104B2C43C3F8104BD3F8104B0D6AD8
:1040A000C5F3120554EA0504C3F8104B012A6ED07B
:1040B000C9E00F6937B3D3F810796FF31207C3F86B
:1040C0001079D3F8107907EA0507C3F810794CB3D3
:1040D0000F698D68D3F810C92F447F1EB7FBF5F523
:1040E00006EAC54545EA0C05C3F810590E69D3F830
:1040F0001059C6F312063543C3F810590D79012D36
:104100001CD027E0D3F810692E40C3F81069D3F80B
:10411000105945F40025C3F81059D3F810596FF31E
:10412000120515E00E698D68AE4200D90D61D0F818
:10413000106946F40026C0F81069D7E7D3F8105983
:1041400025F0C045C3F81059D3F8105945F0005573
:10415000C3F81059012A1BD000EB4413D3F80049CF
:1041600044F00444C3F800490C79012C31D00A69A9
:1041700072B301E042E055E00B78D0F83418012228
:1041800003F00F039A401143C0F8341871E056E071
:10419000CA691AB100EB4413C3F81429097901293B
:1041A0000ED1D0F80818C90500EB4411D1F8002948
:1041B00002D442F0005201E042F08052C1F80029DE
:1041C00000EB4410D0F8001941F00441C0F8001988
:1041D0004FE0D0F80848E405D3F8004902D444F091
:1041E000005401E044F08054C3F8004900920B8A67
:1041F0000A78C9689BB200F093F93AE00C690CB1F7
:104200008C680C618C680C62C4F31205D0F8104BFA
:104210002C43C0F8104BD0F8104B44F40024C0F8E5
:10422000104B43E78D68D3F8104BC5F312052C43B0
:10423000C3F8104BD3F8104B44F4002434E7CA6899
:104240000AB1C3F8142B097901290CD1D0F8080858
:10425000C005D3F8000B02D440F0005001E040F05C
:104260008050C3F8000BD3F8000B40F00440C3F8B3
:10427000000B0020F8BD0000FFFF07E038B500226A
:1042800042F21074002300920A784D78012D00EB61
:10429000421219D0D2F8005B002D3CDAD2F8005B54
:1042A00045F00065C2F8005B0A7800EB4212D2F8D4
:1042B000005B45F08045C2F8005B009A521C0092FA
:1042C000A24221D9012326E0D2F80059002D22DA9A
:1042D000D2F8005945F00065C2F800590A7800EBA1
:1042E0004212D2F8005945F08045C2F80059009AB0
:1042F000521C0092A242E5D80A7800EB4212D2F892
:104300000029002AF3DB06E00A7800EB4212D2F81B
:10431000002B002AD1DB184638BD000018B50E4A24
:1043200000230093009C641C009494420CD8046900
:10433000002CF7DA2024009344EA811101610099EE
:10434000491C0091914201D9032018BD01698906D9
:10435000F5D4002018BD0000400D0300D0F8080877
:1043600010F0060004D0022803D0062801D00F2048
:10437000704702207047406900F001007047D0F894
:104380001818D0F81C08084080B27047D0F81818E8
:10439000D0F81C080840000C704710B5D0F8102861
:1043A00001F00F0300EB4114D0F83418D4F80809D9
:1043B000D94001F0010142EAC111084010BD00EBF3
:1043C0004111D1F8081BD0F8140808407047416922
:1043D0008069084070470346084630B5940802F0EB
:1043E0000301002203F5805303E01D68521C40F8CE
:1043F000045BA242F9D300290CD01C680023491E9B
:10440000DD00090403F10103090C24FA05F200F8A8
:10441000012BF4D130BDD0F800284FF4FE6303EA3D
:10442000011322F4FE62C0F80028D0F800181943E6
:10443000C0F8001800207047022A3ED1264A274BB8
:104440000A449A4201D20F2138E0254A254B0A44FA
:104450009A4201D20E2131E0234A244B0A449A4267
:1044600001D20D212AE0224A224B0A449A4201D26B
:104470000C2123E0204B214A0B44934201D20B2113
:104480001CE01F4B1F4A0B44934201D20A2115E046
:104490001D4B1E4A0B4493420FD31D4B1D4A0B4428
:1044A000934201D2082109E01B4B1C4A1944914256
:1044B00001D2072102E0062100E00921C2684FF481
:1044C000705322F47052C26003EA8123C168194319
:1044D000C160002070470000405327FF00350C00EA
:1044E000401E1BFF40420F0000DC0BFF804F1200FC
:1044F000808CF9FE20D6130060B6E5FE60E316005E
:1045000000D3CEFE40771B00C05BB3FEC0912100FC
:1045100000CA91FE20753800E05459FEE09C41002D
:1045200010B5029C74B900EB0232DB1C00209B0822
:1045300002F5805204E000BF51F8044B1460401CA7
:104540009842F9D3002010BDFEE70000014A02495D
:1045500000F024B8C145000818000024090700280D
:104560004FEA116104DB00F1E02080F8001470478D
:1045700000F00F0000F1E02080F8141D704702E009
:1045800008C8121F08C1002AFAD1704770470020DE
:1045900001E001C1121F002AFBD170472DE9F04153
:1045A00016460F460446002503E03946B047641C12
:1045B0006D1C20780028F8D12846BDE8F081000065
:1045C00013B5044801224FF0FF336946FEF712F994
:1045D00000981CBD1C000024284B0020196889038A
:1045E00011D4BFF34F8FBFF36F8F25490860BFF31E
:1045F0004F8FBFF36F8F196841F400311960BFF31B
:104600004F8FBFF36F8F1968C90322D41B497031D4
:104610000860BFF34F8F081F43F6FF740068184D02
:104620001035C0F34E31C0F3C90204EA41161046FA
:1046300046EA80772F60401EFAD2491EF5D2BFF3BA
:104640004F8F186840F480301860BFF34F8FBFF36E
:104650006F8FFBF7F7FFFEF793FBFEF725F9FEF7E9
:1046600073F94FF4FA7407A0FFF770FF0BA0FFF780
:104670006DFF2046FBF7A4FEF5E7000014ED00E017
:1046800050EF00E053544D33324837353020B4AE4C
:10469000BFDACAB5D1E9200D0A0000007072696E58
:1046A0007466BAAFCAFDB2E2CAD4200D0A00000097
:1046B000010002000400060008000A000C001000BF
:1046C00020004000800000010101010307010000FB
:1046D00008040204080101010000000001020304B3
:1046E0000102030406070809084700080000002427
:1046F0001C0000007E450008244700081C00002420
:10470000C40B00008E4500080100000010000000EE
:10471000000000000090D0030090D00300000000D3
:044720000000000095
:040000050800029954
:00000001FF
