:020000040800F2
:10000000280E0020AD020008FF4F00087F470008BF
:10001000FD4F0008330800087D6300080000000061
:10002000000000000000000000000000B35B0008BA
:10003000510E000800000000E7520008B55B000800
:10004000C7020008C7020008C7020008C70200086C
:10005000C7020008C7020008C7020008C70200085C
:10006000C7020008C7020008C7020008C70200084C
:10007000C7020008C7020008C7020008C70200083C
:10008000C7020008C7020008C7020008C70200082C
:10009000C7020008C7020008C7020008C70200081C
:1000A000C7020008C7020008C7020008C70200080C
:1000B000C7020008C7020008C7020008C7020008FC
:1000C000C7020008C7020008C7020008C7020008EC
:1000D000C7020008C7020008C7020008C7020008DC
:1000E000C7020008C702000800000000C70200089D
:1000F000C7020008C7020008C7020008C7020008BC
:10010000C7020008C7020008C7020008C7020008AB
:10011000C7020008C7020008C7020008C70200089B
:10012000C7020008C7020008C7020008C70200088B
:10013000C7020008C7020008C7020008C70200087B
:1001400000000000000000000000000000000000AF
:10015000C7020008C70200086D090008C7020008AE
:10016000C7020008C7020008C7020008C70200084B
:10017000C7020008C7020008D9080008C702000823
:10018000C7020008C7020008C7020008C70200082B
:10019000C7020008C7020008C7020008C70200081B
:1001A000C7020008C7020008C7020008C70200080B
:1001B000C7020008C7020008C7020008C7020008FB
:1001C000C7020008C7020008C7020008C7020008EB
:1001D000C7020008C7020008C7020008C7020008DB
:1001E000C7020008C7020008C7020008C7020008CB
:1001F000C7020008C7020008C7020008C7020008BB
:10020000C7020008C7020008C7020008C7020008AA
:10021000C7020008C7020008C7020008C70200089A
:10022000C7020008C7020008C7020008000000005B
:10023000C7020008C702000800000000C70200084B
:10024000C7020008C7020008C7020008C70200086A
:10025000C7020008C7020008C7020008C70200085A
:10026000C7020008C7020008C7020008C70200084A
:10027000C7020008C7020008C7020008000000000B
:10028000C7020008C7020008C702000800000000FB
:1002900000000000C7020008DFF80CD000F048FAA8
:1002A00000480047BD6C0008280E00200648804723
:1002B00006480047FEE7FEE7FEE7FEE7FEE7FEE74B
:1002C000FEE7FEE7FEE7FEE7915C00089902000802
:1002D0002DE9F05F0546002092469B46884606467B
:1002E000814640241BE0284641464746224600F00E
:1002F00057F853465A46C01A914110D31146184632
:10030000224600F03EF82D1A67EB01084F462246C0
:100310000120002100F035F817EB00094E41201EA6
:10032000A4F10104DFDC484631462A464346BDE8D5
:10033000F09FD2B201E000F8012B491EFBD27047BA
:100340000022F6E710B513460A4604461946FFF7A1
:10035000F0FF204610BD30B50B460146002020229C
:10036000012409E021FA02F59D4205D303FA02F5C2
:10037000491B04FA02F52844151EA2F10102F1DC22
:1003800030BD202A04DB203A00FA02F10020704739
:100390009140C2F1200320FA03F3194390407047C3
:1003A000202A04DB203A21FA02F00021704721FACA
:1003B00002F3D040C2F12002914008431946704731
:1003C0002DE9FE4F804681EA0300C00F0C460090E5
:1003D00021F0004123F00045B8EB0200A94105D20D
:1003E0004046214690461C460B46024623F00040FC
:1003F000104347D0270DC7F30A00C3F30A510290F8
:10040000401A019040286BDAC3F3130040F4801BBC
:100410000098924620B10023D2EB030A63EB0B0B4A
:1004200001985946C0F140025046FFF7AAFF064620
:100430000D4650465946019A00F08CF910EB080021
:100440006141002487EA115284EAE7731A4340D0DD
:10045000009A62B3019A012A4FEA075215DC001B89
:1004600061EB02014FF0004202EA0752CDE900427F
:10047000001C41F5801132462B4600F08CF903B088
:10048000BDE8F08F40462146F9E7001B61EB020111
:10049000001C41F5801300185B412018A2F50017DD
:1004A00047EB030140EAD570B6196D4111E06D08C4
:1004B0004FEA360645EAC0754FEA0752001B61EB6A
:1004C0000201001C41F5801149084FEA3000001973
:1004D000514132462B4603B0BDE8F04F00F04CB915
:1004E0000098012240000023D0EB020263EBE0738E
:1004F000009821464FEAE074B8EB000061EB04017C
:10050000E9E783F000435BE781F0004158E72DE91C
:10051000FE4F81EA030404F0004421F000410094FE
:100520004FF0000B23F0004350EA01045ED052EA82
:1005300003045BD0C3F30A54C1F30A552C44A4F25C
:10054000F3340194A0FB0254C1F3130141F4801170
:10055000C3F3130343F4801301FB024400FB034E77
:10056000840A970A44EA815447EA8357A4FB076840
:1005700002958D0A05FB07854FEA932C04FB0C546A
:100580002705029D4FEA065847EA1637B5EB0805DE
:100590006EEB070C870E920E47EA811742EA831230
:1005A000A7FB0201B6EB0B0164EB00042B0D43EA41
:1005B0000C335E1844EB1C50DA465146E7FB02014F
:1005C000C5F313044FEA0B3343EA14534FEA0432E2
:1005D000019C43EA0603A4F10C040294009CCDE9BB
:1005E00000B400F0D8F803B0BDE8F08F0020014659
:1005F000F9E72DE9F04D81EA030404F0004B21F006
:10060000004514464FF0000A23F0004150EA05026D
:1006100020D054EA01021DD0C5F30A570246C5F3A3
:100620001303C1F31300C1F30A5640F4801543F4D9
:100630008013A7EB0608101BD64608F2FD3873EBB3
:10064000050002D308F1010801E092185B41B8F1FE
:10065000000F03DA00200146BDE8F08D00204FF4C2
:100660008011064684460EE0171B73EB050705D381
:10067000121B63EB050306434CEA010C49084FEAE1
:10068000300092185B4150EA0107EDD152EA0300B5
:1006900012D082EA040083EA0501084305D0101B4A
:1006A000AB4106D20122002306E000224FF00043B6
:1006B00002E06FF0010253101AEB06004CEB0851F8
:1006C00010EB0A0041EB0B01BDE8F04D00F054B80F
:1006D000C1F30A52C1F3130140F2FF3341F4801118
:1006E0009A4202DA00200146704740F233439A42B0
:1006F000A2F2334202DC5242FFF752BEFFF741BE84
:1007000030B5041E71F1000404DB4FF00044404298
:1007100064EB0101141E73F1000405DB1C464FF06D
:100720000043524263EB0403994208BF904230BD3C
:10073000064C074D06E0E06840F0010394E807002E
:1007400098471034AC42F6D3FFF7AAFDF89300089F
:1007500018940008202A06DBCB17203A41FA02F051
:1007600043EAE07306E041FA02F3D040C2F120020E
:10077000914008431946704710B5141E73F10004E8
:1007800008DA401C41F1000192185B411A4301D183
:1007900020F0010010BD2DE9F04D92469B4611B1AD
:1007A000B1FA81F202E0B0FA80F220329046FFF70F
:1007B000E8FD04460F4640EA0A0041EA0B015346B1
:1007C0005A46084313D0114653EA010019D0C8F124
:1007D00040025046FFF7E4FD05460E465046594696
:1007E0004246FFF7CEFD084305D0012004E0204635
:1007F0003946BDE8F08D0020054346EAE0762C43FB
:1008000037430A986305E40AA0EB08000022FD0ABA
:1008100044EA47540A3002D500200146E9E70105C1
:1008200010196941DDE9084500196941BDE8F04D3D
:10083000A2E7FEE710B5806B816C496D022906D0F6
:10084000012180F83510C16C41F04001C16400F015
:1008500033FB10BD10B5816B0C468A6B886C016848
:10086000CAB10A68A36B02F40022DB0706D12AB1E1
:10087000C968E26B01EBC201002207E00A681203BB
:1008800019D40969E26B01EBC201012200F0E6FC18
:10089000A06B401E0EE00868000302D5606CC860C3
:1008A00009E00868000306D4E26B606C00EB82008C
:1008B0000861206CA063A06B216C88420BD120687A
:1008C000C16841F00101C16020680068800702D55D
:1008D000012084F8350010BD014800F007BB00007E
:1008E0005C09002070B504F061FE04F03DFB04F0EB
:1008F00041FC04F0AFFC04F09FFC0146A0F5AC40C5
:10090000403805D00DA005F03BFD4FF0FF3070BD25
:1009100011A005F035FD04F0D3FB4FF496744FF4AD
:10092000C8752146284604F0B7FCF02023464FF452
:100930008C712A4604F0FCFB002070BD4F56353602
:100940003430204552524F5221212121212020496B
:10095000443A25580D0A00004F5635363430204FA2
:100960004B2C49443A307825580D0A00014801F0D3
:1009700033B80000AC090020294A016891423AD0FE
:10098000274A1832914236D0254A3032914232D02D
:10099000234A483291422ED0214A603291422AD0D5
:1009A0001F4A7832914226D01D4A9032914222D07D
:1009B0001B4AA83291421ED01A4A91421BD0194AB2
:1009C0001832914217D0174A3032914213D0154A4B
:1009D000483291420FD0134A603291420BD0114AF3
:1009E0007832914207D00F4A9032914203D00D4A9B
:1009F000A832914211D1CAB21823103AB2FBF3F2D5
:100A00006FF30901032A02F00703074AD25CC265AB
:100A100000D9091D81650846704721F0FF01F9E7FB
:100A20001000024010040240B593000830B5224A7D
:100A3000012301689142CAB21BD01F4C1434A14259
:100A400017D01D4C2834A14213D01B4C3C34A1427A
:100A50000FD0194C5034A1420BD0174C6434A14232
:100A600007D0154C7834A14203D0134C8C34A142EA
:100A70000CD11421114C083AB2FBF1F10F4A80322B
:100A800001F01F0504EB8101AB4010E00C4D182470
:100A9000103A0D44B2FBF4F1A82D00D80831094AF0
:100AA00001F01F0402EB8101064AA340803260304E
:100AB00080E80E0030BD000008540258005802586B
:100AC000F0FBFDBF0008024010B50279531E072B52
:100AD0002DD8174C0168A1421BD0154C1434A142EB
:100AE00017D0134C2834A14213D0114C3C34A142EE
:100AF0000FD00F4C5034A1420BD00D4C6434A142A6
:100B000007D00B4C7834A14203D0094C8C34A1425D
:100B100003D10849074C443102E00749064C4431EF
:100B200004EB8202C0E91B2101219940416710BDFD
:100B300008540258FC580258FC08024010B583695A
:100B40004FF0C074826A0146002053B1B3F5005FD4
:100B500015D072B1012A0CD0022A0AD0032A09D179
:100B600004E01AB1012A06D0022A03D1C96AC901D8
:100B700000D5012010BDC96AA142FAD010BD002ADB
:100B8000F7D0012AF2D0022AF3D0032AF3D010BD05
:100B900030B5254D0468AC4238D0234D1835AC42F1
:100BA00034D0214D3035AC4230D01F4D4835AC42A9
:100BB0002CD01D4D6035AC4228D01B4D7835AC4251
:100BC00024D0194D9035AC4220D0174DA835AC42F9
:100BD0001CD0164DAC4219D0144D1835AC4215D06E
:100BE000124D3035AC4211D0104D4835AC420DD0CD
:100BF0000E4D6035AC4209D00C4D7835AC4205D075
:100C00000A4D9035AC4201D0084DA8356360836829
:100C1000402B036803D099600068C26030BD9A60C1
:100C20000068C16030BD00001000024010040240A6
:100C30002DE9F04F804E804FDFF8FC911836DFF839
:100C4000F8A148370468856D0AF1300ADFF8ECB185
:100C50004C45DFF8ECC1DFF8ECE16DD0B4426BD06D
:100C6000544569D0BC4267D0DFF8D081A8F118089C
:100C7000444561D05C455FD064455DD074455BD030
:100C8000DFF8C481444557D0DFF8BC8108F118086B
:100C9000444551D0DFF8B08108F1300844454BD0CD
:100CA000DFF8A48108F14808444545D0DFF8988171
:100CB00008F1600844453FD0DFF88C8108F17808DE
:100CC000444539D0DFF8808108F19008444533D09D
:100CD000DFF8748108F1A80844452DD0DFF86C8155
:100CE000444529D0DFF8648108F11408444523D035
:100CF000DFF8588108F1280844451DD0DFF84C8101
:100D000008F13C08444517D0DFF8408108F150084D
:100D1000444511D0DFF8348108F1640844450BD014
:100D2000DFF8288108F17808444505D0DFF81C81F8
:100D300008F18C08444509D1D0E91948C4F8048069
:100D4000C46E1CB1D0E91C48C4F8048004684C454A
:100D50002ED0B4422CD054452AD0BC4228D0374E95
:100D6000183EB44224D05C4522D0644520D074455E
:100D70001ED0354EB4421BD0334E1836B44217D075
:100D8000314E3036B44213D02F4E4836B4420FD0D5
:100D90002D4E6036B4420BD02B4E7836B44207D07D
:100DA000294E9036B44203D0274EA836B44215D10E
:100DB00090F85C603F2406F01F06B440AC60046805
:100DC000256825F4802525602EE09A600068C160C2
:100DD000BDE8F08F99600068C260F9E71B4EB4422D
:100DE0001BD01A4E1436B44217D0184E2836B442CF
:100DF00013D0164E3C36B4420FD0144E5036B44287
:100E00000BD0124E6436B44207D0104E7836B4423E
:100E100003D00E4E8C36B442DAD190F85C600124D7
:100E200006F01F06B4406C60046863608368402B62
:100E30000368CFD1C9E700001000024088000240DB
:100E4000A0000240B80002401004024008540258BA
:100E5000704770B590F83440049D012C12D00124E5
:100E6000022680F8356043EA0543056841EA0241FD
:100E700000226B620368196280F8354080F83420E4
:100E8000104670BD022070BD10B590F834100129D5
:100E900010D0012180F83410022280F8352050F85B
:100EA000342B0023146844F0040414604170037070
:100EB000184610BD022010BD7047000010B501F0AB
:100EC00075FD094C6168401AB0F57A7F06D301F0D0
:100ED0006DFD606000216078A07061700121607814
:100EE000401C6070217010BD140000202DE9F041FD
:100EF00004460068234F0426056969070BD546613F
:100F0000E06C40F00200E06484F83560A06C076596
:100F1000A06C00F01FFCA8070DD5216802204861D5
:100F2000E06C40F00100E06484F83560A06C076577
:100F3000A06C00F00FFCE80605D521681020486180
:100F4000204600F06FF8280705D521680820486181
:100F5000204600F081F9E80712D02068016889076F
:100F600003D5C16821F01E01C16020680121C2685B
:100F700022F00102C260206841612046FFF79EFF17
:100F8000BDE8F081350800082DE9F041040003D0E8
:100F900094F8350018B105E00120BDE8F081204645
:100FA00000F042F8A16902204FF0000E84F83500ED
:100FB00009B1C4F824E02068194A016811400160B1
:100FC000D4E90452E168D4E9010C29431043A26931
:100FD000084354F8201B40EA0C001043B4E8E81022
:100FE0000A68184328433043384340EA0C00104352
:100FF000086054F8300C343C102805D12268E17F99
:10100000E06961F31F60906120680121C26842F0CD
:101010001E02C260C4F84CE084F835100020BCE722
:1010200007F0E0FF704700002DE9F04186B004466C
:1010300014216846FFF784F94549206888427DD12C
:101040004448016841F001010160006800F00100BE
:1010500005904048001D016841F0100101600168E1
:1010600001F010010591016841F00801016001687B
:1010700001F008010591016841F002010160016879
:1010800001F002010591016841F00401016001686D
:1010900001F004010591016841F00101016001685E
:1010A00001F001010591016841F00801016000684B
:1010B000022502AA694600F0080005907320CDE9D8
:1010C00000050024244803260D2782E8D00001F003
:1010D0003DFB0820DFF8848002AA6946CDE90005BF
:1010E000404682E8D00001F031FB8020694602AA28
:1010F000CDE900051A4882E8D00001F027FBC020A6
:10110000694602AACDE90005164882E8D00001F040
:101110001DFB5020694602AACDE90005124882E86D
:10112000D00001F013FB012240469503294601F04F
:1011300032FC01206946CDE9005000E004E0CDE931
:101140000204404601F002FB06B0BDE8F081000059
:1011500000000248DC44025800100258000C0258FB
:101160000004025800080258000002582DE9F84314
:10117000044690F83400012833D0354802274FF058
:10118000010884F83480002584F8357026684FF40F
:10119000803C6345376847F48047376026684FF0E6
:1011A0004009376827F0020737602668376847EA42
:1011B00001073760A16CC863A66C2649F164A16C75
:1011C0000D65A5632564E56365640DD22168A06C97
:1011D000283101F05BF980B3C4F84C9084F8358075
:1011E00027E00220BDE8F883A16C46464864C4F8B5
:1011F0003880E363626405E0E06B4008E063A06B65
:101200004000A063E06B6045F6D2A06B801EA06337
:10121000A36BE16BE06B2364009002EB8103216818
:10122000A06C283100F062F838B1C4F84C9084F812
:101230003560012084F83450D4E7FFE72068016866
:1012400041F001010160002084F83450CAE7000039
:101250005508000835080008704700000068214B59
:10126000984238D01F4B1833984234D01D4B30333E
:10127000984230D01B4B483398422CD0194B6033E6
:10128000984228D0174B7833984224D0154B90338E
:10129000984220D0134BA83398421CD0124B98424E
:1012A00019D0114B1833984215D00F4B3033984258
:1012B00011D00D4B483398420DD00B4B6033984200
:1012C00009D0094B7833984205D0074B90339842A8
:1012D00001D0054BA83312B1016100207047C160F5
:1012E000FBE7000010000240100402402DE9FF4F10
:1012F00081B081689646044600200E9A80290090AD
:1013000012D094F83400012813D094F8350001214C
:1013100084F8341001280ED0C902012000906165C4
:10132000009805B0BDE8F08F4FF480706065012033
:10133000F7E70220F5E7FE4D02272068002684F833
:101340003570A842FB4D6665FB4EFC4FDFF8F0930D
:10135000DFF8F0A3DFF8F0B33FD0A8423DD0B042B1
:101360003BD0B84239D0484537D0504535D05845A4
:1013700033D0DFF8D4C30CF1180C60452DD0DFF862
:10138000CCC3604529D0DFF8C4C30CF1180C60450C
:1013900023D0DFF8B8C30CF1300C60451DD0DFF866
:1013A000ACC30CF1480C604517D0DFF8A0C30CF1BA
:1013B000600C604511D0DFF894C30CF1780C6045E7
:1013C0000BD0DFF888C30CF1900C604505D0DFF836
:1013D0007CC30CF1A80C604510D1D0F800C03F21AF
:1013E0004CF4802CC0F800C02068036194F85C3095
:1013F000A06D03F01F039940816010E0D0F800C099
:1014000048F220084CEA080CC0F800C020680361CC
:1014100094F85C30A06D03F01F03994041601346BF
:10142000029972462046FFF7B3FBC94AC84BDFF862
:1014300020E31432DFF8F882283320680EF13C0EE6
:10144000C34940455FD0A8425DD0B0425BD0B842AE
:1014500059D0484557D0504555D0584553D0DFF85E
:10146000E8C20CF1180C60454DD0DFF8E0C26045D1
:1014700049D0DFF8D8C20CF1180C604543D0DFF832
:10148000CCC20CF1300C60453DD0DFF8C0C20CF18D
:10149000480C604537D0DFF8B4C20CF1600C6045F1
:1014A00031D0DFF8A8C20CF1780C60452BD0DFF802
:1014B0009CC20CF1900C604525D0DFF890C20CF175
:1014C000A80C60451FD088421DD090421BD0984286
:1014D00019D0704517D0DFF878C20CF1500C604578
:1014E00011D0DFF86CC20CF1640C60450BD0DFF852
:1014F00060C20CF1780C604505D0DFF854C20CF1E5
:101500008C0C604509D1D4E9190CC0F804C0E06E18
:1015100018B1D4E91C0CC0F804C0C446206860456A
:101520003FD0A8423DD0B0423BD0B84239D0484528
:1015300037D0504535D0584533D0DFF80C8208F10C
:10154000180840452DD0DFF80482404529D0DFF847
:10155000FC8108F11808404523D0DFF8F08108F13C
:10156000300840451DD0DFF8E48108F148084045C7
:1015700017D0DFF8D88108F16008404511D0DFF8B6
:10158000CC8108F1780840450BD0DFF8C08108F124
:101590009008404505D0DFF8B48108F1A80840451F
:1015A00018D1D0F8008028F01E0848F01608C0F8BE
:1015B00000802068D0F8148048F08008C0F81480BB
:1015C000206C08B9A06CC0B12068D0F8008048F049
:1015D000080810E0D0F8008028F00E0848F00A084B
:1015E000C0F80080206C08B9A06C30B12068D0F839
:1015F000008048F00408C0F800802068E0464045BC
:1016000057D0A84255D0B04253D0B84251D04845E7
:101610004FD050454DD058454BD0DFF82CC10CF180
:10162000180C604545D0DFF824C1604541D0DFF893
:101630001CC10CF1180C60453BD0DFF810C10CF157
:10164000300C604535D0DFF804C10CF1480C604522
:101650002FD0DFF8F8C00CF1600C604529D0DFF81E
:10166000ECC00CF1780C604523D0DFF8E0C00CF141
:10167000900C60451DD0DFF8D4C00CF1A80C60457B
:1016800017D0884215D0904213D0984211D070459F
:101690000FD02F49503188420BD02D4964318842F8
:1016A00007D02B497831884203D029498C318842B0
:1016B0000DD1206E0168C90303D5016841F4807122
:1016C0000160E06E18B1016841F48071016020682A
:1016D000404528D0A84226D0B04224D0B84222D0DB
:1016E000484520D050451ED058451CD016491831C9
:1016F000884218D01549884215D0144918318842BB
:1017000011D01249303188420DD0104948318842F9
:1017100009D00E496031884205D00C4978318842A1
:1017200001D00A499031016841F001010160F7E5FB
:1017300010000240280002404000024058000240D1
:101740007000024088000240A000024010040240E5
:10175000085402582DE9F05F28B190F8351002299D
:1017600004D0802141650120BDE8F09F904C904B52
:101770000168183C18338E4ADFF83C92A1428D4C28
:10178000DFF838E28E4FDFF83CB2DFF83CA28F4D35
:101790008F4E31D091422FD099422DD0A1422BD0E3
:1017A000494529D0714527D0B94225D0DFF810C26C
:1017B0000CF1180C61451FD0DFF808C2ACF1600CC9
:1017C000614519D0DFF8FCC1ACF1480C614513D07C
:1017D000DFF8F0C1ACF1300C61450DD0DFF8E4C1A9
:1017E000ACF1180C614507D0594505D0514503D0DF
:1017F000A94201D0B1422CD1DFF8B4C14FF00408A6
:1018000080F83580ACF1180C61451DD091421BD099
:10181000994219D0A14217D0494515D0714513D02E
:10182000B94211D06648183081420DD06548603801
:10183000814209D063484838814205D06148303838
:10184000814201D05F481838086820F00100086024
:10185000ABE0D1F800C02CF00E08DFF854C1C1F89D
:101860000080ACF1180C0168614527D0914225D069
:10187000994223D0A14221D049451FD071451DD0A6
:10188000B9421BD0DFF838C10CF1180C614515D0F6
:10189000DFF830C1ACF1600C61450FD0DFF824C136
:1018A000ACF1480C614509D0DFF818C1ACF1300C3F
:1018B000614503D0DFF80CC1ACF1180CD1F800C0C1
:1018C0002CF0010CC1F800C0DFF8E4804FF0010CEF
:1018D0000168A8F11808414546D0914244D0994288
:1018E00042D0A14240D049453ED071453CD0B9429A
:1018F0003AD0334A1832914236D0324A603A914255
:1019000032D0304A483A91422ED02E4A303A914253
:101910002AD02C4A183A914226D0594524D0514514
:1019200022D0A94220D0B1421ED02A4A91421BD0D7
:10193000284A1432914217D0264A2832914213D0B5
:10194000244A3C3291420FD0224A503291420BD06D
:10195000204A6432914207D01E4A7832914203D025
:101960001C4A8C32914218D1016E0A6822F48072AE
:101970000A6090F85C20816D02F01F020CFA02F2FE
:101980004A60D0E919124A60C16E31B10A6822F486
:1019900080720A60D0E91C124A600022016D80F852
:1019A000342080F835C001B188470020DCE6000013
:1019B00028000240580002407000024088000240A7
:1019C000A00002407004024088040240A0040240CB
:1019D000B8040240085402582DE9FC5F0446FA4E50
:1019E0000020DFF8E48300904FF41652F74808F126
:1019F0001808A56DDFF8D0A3DFF8CCB301680AF1B1
:101A0000300A20680BF1480BB1FBF2F1B0420191B2
:101A10002F68D5F800C0DFF8B89336D04146884229
:101A200033D0504531D058452FD0E74960318842F6
:101A30002BD0E5497831884227D0E349903188425C
:101A400023D0E149A83188421FD048451DD0E04944
:101A50001831884219D0DE493031884215D0DC4A2D
:101A60004832904211D0DA49603188420DD0DFF817
:101A700060E30EF1780E704507D0D54B9033984255
:101A800003D0D349A83188427ED194F85C20082144
:101A900002F01F0201FA02F23A424BD0B04233D0B8
:101AA000404531D050452FD058452DD0C64A6032E0
:101AB000904229D0C44A7832904225D0C24A90320E
:101AC000904221D0C04AA83290421DD048451BD038
:101AD000BF4A1832904217D0BD4A3032904213D0DC
:101AE000BB4A483290420FD0B94A603290420BD084
:101AF000B74A7832904207D0B54A9032904203D02C
:101B0000B34AA832904203D1026802F0040202E014
:101B1000026802F008026AB1026822F00402026060
:101B200094F85C0000F01F008140A960606D40F0F7
:101B30000100606594F85C00012100F01F00814005
:101B4000394241D02068B04235D0404533D050456D
:101B500031D058452FD09C4A603290422BD09A4ABF
:101B60007832904227D0984A9032904223D0964AB9
:101B7000A83290421FD048451DD0954A1832904255
:101B800019D0934A303200E0B2E1904213D0904A2B
:101B9000483290420FD08E4A603290420BD08C4A2D
:101BA0007832904207D08A4A9032904203D0884AD5
:101BB000A83290427ED1406910F0800F04D0A96015
:101BC000606D40F00200606594F85C00042100F054
:101BD0001F00814039423FD02068B04233D0404599
:101BE00031D050452FD058452DD0774A60329042A1
:101BF00029D0754A7832904225D0734A903290426B
:101C000021D0714AA83290421DD048451BD0704A5D
:101C10001832904217D06E4A3032904213D06C4A3C
:101C2000483290420FD06A4A603290420BD0684AE4
:101C30007832904207D0664A9032904203D0644A8C
:101C4000A83290424FD1006810F0020F04D0A96072
:101C5000606D40F00400606594F85C00102100F0B5
:101C60001F008140394259D02068B04235D04045EC
:101C700033D0504531D058452FD0534A603290422E
:101C80002BD0514A7832904227D04F4A903290421E
:101C900023D04D4AA83290421FD048451DD04C4A0F
:101CA0001832904219D04A4A3032904215D0484AF0
:101CB000483200E015E090420FD0454A6032904231
:101CC0000BD0434A7832904207D0414A903290423A
:101CD00003D03F4AA832904207D1006800F00800C4
:101CE00006E0006870E70068B6E7006800F00400EE
:101CF000A0B1A96020680168490304D50068000309
:101D000008D5A16C07E00168C90503D4016821F07A
:101D100008010160216C09B12046884794F85C00F5
:101D2000202100F01F008140394278D02068B04265
:101D300033D0404531D050452FD058452DD0224A80
:101D40006032904229D0204A7832904225D01E4AF3
:101D50009032904221D01C4AA83290421DD0484572
:101D60001BD01B4A1832904217D0194A3032904289
:101D700013D0174A483290420FD0154A6032904231
:101D80000BD0134A7832904207D0114A90329042D9
:101D900003D00F4AA832904203D1006800F010002F
:101DA00002E0006800F00200A0B3A96094F83500DA
:101DB0000428206801680DD049037DD50068000320
:101DC00029D4616C28E000001000024028000020A7
:101DD0001004024021F0160101602068416921F0E1
:101DE00080014161206C08B9A06C20B120680168B5
:101DF00021F00801016094F85C303F21002203F0DB
:101E00001F0301209940A96084F8342084F835002C
:101E1000216D66E003E0E16B09B120468847606D03
:101E200000287DD0606DC0075AD02068042184F856
:101E30003510B0422BD0404529D0504527D05845C9
:101E400025D09E49884222D09C49183188421ED014
:101E50009A49303188421AD098494831884216D080
:101E6000484514D09649884211D095491831884286
:101E70000DD093493031884209D091494831884288
:101E800005D08F496031884201D08D497831016891
:101E900021F00101016020680099019A491C00911C
:101EA000914202D80168C907F6D1002184F83410A4
:101EB0000068C00711D000E001E003200EE00168D7
:101EC000C905A8D403680022012123F01003036090
:101ED00084F8342084F835109DE7012084F835001B
:101EE000E16C00291CD002B02046BDE8F05F084735
:101EF000744988421DD073491431884219D0714900
:101F00002831884215D06F493C31884211D06D4943
:101F1000503188420DD06B496431884209D000E0CD
:101F200086E068497831884203D066498C3188421E
:101F30007ED194F85C800427016808F01F0807FA36
:101F400008F717EA0C0F009746D04F0744D50098C2
:101F50000F04686003D5C8033CD4A16CC1E78806B0
:101F600038D42068B0422DD054494839884229D00D
:101F7000504527D0584525D05049884222D04F4956
:101F8000183188421ED04D49303188421AD04B4911
:101F90004831884216D0484514D04949884211D06A
:101FA0004749183188420DD090420BD044494831FE
:101FB000884207D0704505D0984203D040499031FF
:101FC000884203D1016821F0080102E0016821F094
:101FD00004010160216C84E7022707FA08F717EA79
:101FE0000C0F00974ED08F074CD500980F046860F7
:101FF00003D5C80344D4616C73E7880640D42068D5
:10200000B0422FD02D49483988422BD0504529D095
:10201000584527D02949884224D028491831884278
:1020200020D02649303188421CD02449483100E074
:1020300041E0884216D0484514D02149884211D049
:102040001F49183188420DD090420BD01C494831AD
:10205000884207D0704505D0984203D01849903186
:10206000884203D1016821F0140102E0016821F0E7
:102070000A010160002184F83410012084F8350041
:10208000E16B2EE7082202FA08F212EA0C0F12D0D6
:10209000090710D5016821F00E01016094F85C1069
:1020A0000120002201F01F0100FA01F16960606562
:1020B00084F8342012E7BDE8FC9F00007000024065
:1020C00028040240085402582DE9F05F044600F04D
:1020D0006DFC002C07467DD0E34E022120684FF0B6
:1020E0000308DFF888934FF00005DFF884A3B042BF
:1020F000DFF880B334D0DC4A1832904230D0484503
:102100002ED050452CD058452AD0DA4A1832904269
:1021100026D0D84A3032904222D0D64A4832904215
:102120001ED0D54A90421BD0D34A1832904217D0C5
:10213000D14A3032904213D0CF4A483290420FD029
:10214000CD4A603290420BD0CB4A7832904207D0D1
:10215000C94A9032904203D0C74AA83290427DD1FA
:1021600084F8345084F83510B0422ED0BE4918316E
:1021700088422AD0484528D0504526D0584524D0FA
:10218000BC491831884220D0BA49303188421CD02D
:10219000B8494831884218D0B749884215D0B64965
:1021A0001831884211D0B449303188420DD0B2493B
:1021B0004831884209D0B0496031884205D0AE49E3
:1021C0007831884201D0AC499031016821F0010199
:1021D000016008E027E100BF00F0E8FBC01B052814
:1021E00001D920211CE120680068C007F4D104F166
:1021F00008002168D4E9053C8E4685C8096810436B
:10220000D4E907281F43636A38439C4F40EA0C0017
:102210001043394040EA0800042B40EA010003D192
:10222000D4E90B1211430843954909686FF30F0174
:10223000B1F1005F0FD36168A1F12902052A08D925
:10224000163A032A05D9083A012A02D94F39032937
:1022500001D840F48010CEF8000000E023E02068B0
:10226000676A4069042F20F0070047EA00070DD194
:10227000D4E90A01074349B12046FEF75FFC28B1C3
:1022800040206065012184F83510CCE0206847616A
:102290002046FEF771FB94F85C203F2102F01F02FC
:1022A0009140816054E0774A90421BD0754B1433C3
:1022B000984217D0734B2833984213D0714B3C335C
:1022C00098420FD06F4B503398420BD06D4B643314
:1022D000984207D06B4B7833984203D0694B8C33CC
:1022E00098427DD1684B84F8345084F835100168E9
:1022F000A26801EA030E402A73D0802A72D000221D
:10230000D4E90378D4E9053142EAD70242EAD80891
:102310005C4AD4E9077C48EAD30848EAD10141EA9B
:10232000D701524241EA1C11142341EA0E01016017
:1023300020681044B0FBF3F08000E0652046FEF713
:102340001BFB94F85C20012102F01F0291404160C8
:102350002068B04257D044491831884253D048458C
:1023600051D050454FD058454DD042491831884240
:1023700049D040493031884245D03E4948318842B1
:1023800041D03D4988423ED03B49183188423AD03D
:1023900039493031884236D037494831884232D0C5
:1023A0003549603188422ED03349783188422AD06D
:1023B00031499031884226D02F49A831884222D015
:1023C000304988421FD02F49143188421BD02D49F3
:1023D0002831884217D02B493C31884213D002E083
:1023E0001DE017E018E02749503188420BD02549FD
:1023F0006431884207D023497831884203D021498B
:102400008C31884229D12046FEF710FBA068802835
:102410000CD00CE0102273E74FF4804270E74021AB
:10242000616584F835800120BDE8F09F6560216E0C
:1024300020790860D4E9190141606068401E0728CE
:1024400008D82046FEF740FBE06E0560D4E91C0189
:10245000416002E0E566256765670120656584F8EF
:1024600035000020E0E7000010000240400002407C
:102470005800024070000240100402403F8010FEED
:102480000010005C085402580F00FEFF2DE9F84FC1
:1024900004008C464FF00000009013D094F83400F4
:1024A000012811D094F835500120002184F834001F
:1024B000012D0BD084F83410C202009062650098A0
:1024C000BDE8F88F0120FBE70220F9E78C4D0226DA
:1024D000206884F83560A8428A4D61658A4E8B4F2A
:1024E000DFF82C82DFF82C92DFF82CA2DFF82CB278
:1024F00026D0A84224D0B04222D0B84220D04045B5
:102500001ED048451CD050451AD0584518D0844993
:10251000884215D082491831884211D08049303123
:1025200088420DD07E494831884209D07C496031CB
:10253000884205D07A497831884201D07849903173
:10254000016821F00101016061462046FEF770FB41
:102550006B49206888422CD0A8422AD0B04228D0AB
:10256000B84226D0404524D0484522D0504520D0FE
:1025700058451ED06A4A90421BD0694A1832904290
:1025800017D0674A3032904213D0654A48329042A1
:102590000FD0634A603290420BD0614A7832904249
:1025A00007D05F4A9032904203D05D4AA8329042F1
:1025B0000CD1026822F01E0242F016020260206C6A
:1025C00088B12068026842F008020BE0026822F03D
:1025D0000E0242F00A020260206C20B120680268FC
:1025E00042F004020260206888424BD0A84249D0E1
:1025F000B04247D0B84245D0404543D0484541D08D
:1026000050453FD058453DD0454A90423AD0444A83
:102610001832904236D0424A3032904232D0404A4C
:10262000483290422ED03E4A603290422AD03C4AF4
:102630007832904226D03A4A9032904222D0384A9C
:10264000A83290421ED0374A90421BD0354A1432ED
:10265000904217D0334A2832904213D0314A3C324C
:1026600090420FD02F4A503290420BD02D4A643204
:10267000904207D02B4A7832904203D0294A8C32BC
:1026800090420DD1206E0268D20303D5026842F455
:1026900080720260E06E18B1026842F480720260DB
:1026A0002068884226D0A84224D0B04222D0B84226
:1026B00020D040451ED048451CD050451AD0584522
:1026C00018D01749884215D015491831884211D0C1
:1026D0001349303188420DD011494831884209D020
:1026E0000F496031884205D00D497831884201D0C8
:1026F0000B499031016841F001010160DFE6000003
:1027000010000240280002404000024058000240F1
:102710007000024088000240A0000240B800024061
:10272000100402400854025870B5044600F03EF907
:102730000546601C02D004480078044400F036F9D5
:10274000401BA042FAD370BD1C0000202DE9FC4FB5
:1027500001257E4C00234FF0030A4FF0B04E4FF09E
:102760000F0BEBE005FA03F637403A0077D04F68DD
:10277000012F05D0022F03D0112F01D0122F1AD113
:1027800087684FEA4308D1F80CC00AFA08F927EA2B
:1027900009070CFA08FC4CEA070CC0F808C04768A7
:1027A00091F804C0B743CCF3001C0CFA03FC4CEACC
:1027B000070CC0F804C0C6684FEA430CD1F8088083
:1027C000E1460AFA0CF7BE43019708FA09F848EA0D
:1027D0000608C0F80C804E68022E01D0122E12D1CD
:1027E000DE084FEA437C00EB860600960F69366AE6
:1027F0004FEADC6C0BFA0CF807FA0CF726EA08062D
:102800003743009E37620E790768DDF804C006F092
:10281000030606FA09F627EA0C073E4306604E68EF
:10282000F6001CD54A4E376847F002073760366815
:102830009F0706F00206009623F0030606F1B04655
:10284000B1463F0FD6F80864DFF808810BFA07FCA1
:10285000404526EA0C0603D14FF0000C41E06CE045
:10286000DFF8F4C0604502D14FF0010C39E0DFF829
:10287000ECC0604502D14FF0020C32E0DFF8E0C05E
:10288000604502D14FF0030C2BE0DFF8D8C0604563
:1028900002D14FF0040C24E0DFF8CCC0604502D137
:1028A0004FF0050C1DE0DFF8C4C0604502D14FF0C9
:1028B000060C16E0DFF8B8C0604502D14FF0070CF7
:1028C0000FE0DFF8B0C0604502D14FF0080C08E01F
:1028D000DFF8A4C0604502D14FF0090C01E04FF0D1
:1028E0000A0C0CFA07FC4CEA060CC9F808C4266866
:1028F0004F6826EA0206FF0300D516432660666885
:102900004F6826EA0206BF0300D516436660D1F879
:1029100004C07646DEF800705FEACC2C27EA020796
:1029200000D517433760D1F804C077685FEA8C2C74
:1029300027EA020700D5174377605B1C0A68174631
:10294000DA407FF40FAFBDE8FC8F00008000005834
:10295000F4440258000002580004025800080258CB
:10296000000C0258001002580014025800180258B7
:10297000001C025800200258002402580069084038
:1029800000D001207047426921EA02030A4043EA6D
:102990000241816170470AB1816170470904FBE718
:1029A00001480068000C70470010005C0148806816
:1029B000704700001C000020024881680278114422
:1029C000816070471C000020032010B500F0D4F88F
:1029D00001F042F80F4A104914681368C4F3032247
:1029E00003F00F038A5CC95C02F01F0201F01F01B3
:1029F000D0400A4A20FA01F11160094908600F200D
:102A000000F010F808B1012010BD00F079F80020A6
:102A100010BD000018440258E69300082C00002066
:102A20002800002070B50D4D04462878A0B14FF461
:102A30007A71B1FBF0F00A490968B1FBF0F001F0DE
:102A400048FD48B9102C07D200222146501E00F044
:102A500073F800206C6070BD012070BD1C00002068
:102A600028000020F0B5154C4378211D0A1D236075
:102A70000378F3B143680B60057BC67A817A437BA8
:102A80002D07847B45EA0665C77B90F809C0067A66
:102A900090F800E045EAC14040EA834040EA444003
:102AA00040EA074040EA0C2040EA460040EA0E00B7
:102AB00001E0002008601060F0BD000098ED00E02B
:102AC000BFF35F8F044800210368034A23F4803377
:102AD000036070321160704724ED00E0074A40F057
:102AE0000100064970321060086840F480300860C8
:102AF000BFF34F8FBFF36F8F7047000024ED00E0EE
:102B0000054808B5016841F002010160006800F065
:102B10000200009008BD0000F4440258002809DBC0
:102B2000410900F01F028900012001F1E0219040DD
:102B3000C1F80001704700000E4BF0B41B680D4651
:102B4000C3F30223C3F10706042E00D90426191D7E
:102B5000072901D2002300E0DB1E012404FA06F15C
:102B60009C40491E2940641E994014402143F0BCFA
:102B700003F02ABC0CED00E0064900F0070210B596
:102B80004FF6FF040868044B204040EA0220184337
:102B9000086010BD0CED00E00000FA05134970B5A7
:102BA0000A68D243520705D5096801F0070181423E
:102BB00013D118E00A6822F0070202430A60FFF707
:102BC000F5FE0A4D4FF47A760446083D07E000BF53
:102BD000FFF7ECFE001BB04201D9012070BD286850
:102BE000C0438004F4D4002070BD00000C4802589B
:102BF00010B500F0EBFE05490968054AC1F3021162
:102C0000515C01F01F01C84010BD00002044025873
:102C1000E6930008494930B5484C0B1D0A68143446
:102C200009681D68246802F00303C5F30012C1F3AC
:102C30000531C4F3CC04002914FB02F200EE102A83
:102C4000F8EE400A75D03F4A9FED3D1AB7EE000AF4
:102C50006BB1DFED3D1A012B01D0022B64D002EEE7
:102C6000101A1168F8EE422A81EEA22A21E0334CB4
:102C7000283C23689B0612D5344B246801EE901A39
:102C80001168C4F3C104F8EE612AE34001EE903A02
:102C9000C1F30801F8EE611A81EEA22A0BE001EE01
:102CA000901ADFED2B2A00BFF8EE611A116882EE50
:102CB000A12AC1F3080101EE901A1168F8EE611A19
:102CC00040EE811A71EE800A62EE200AC1F34621BD
:102CD00001EE101AB8EE411A31EE001AC0EE811A58
:102CE000BCEEE11A80ED001A1168C1F3064101EE55
:102CF000101AB8EE411A31EE001AC0EE811ABCEE7D
:102D0000E11A80ED011A1168C1F3066101EE101A93
:102D1000B8EE411A31EE000A80EE801ABCEEC10A0C
:102D200080ED020A30BD04E001EE901ADFED092AC1
:102D3000BAE70021016041608160F3E7284402584E
:102D400000000039384402580024744A0090D0032F
:102D50000024744C20BCBE4B494930B5484C0B1D77
:102D60000A681C3409681D68246802F00303C5F36F
:102D70000022C1F30551C4F3CC04002914FB02F274
:102D800000EE102AF8EE400A75D03F4A9FED3D1A3A
:102D9000B7EE000A6BB1DFED3D1A012B01D0022B1B
:102DA00064D002EE101A1168F8EE422A81EEA22ACF
:102DB00021E0334C283C23689B0612D5344B246811
:102DC00001EE901A1168C4F3C104F8EE612AE340E1
:102DD00001EE903AC1F30801F8EE611A81EEA22AE1
:102DE0000BE001EE901ADFED2B2A00BFF8EE611A1E
:102DF000116882EEA12AC1F3080101EE901A116850
:102E0000F8EE611A40EE811A71EE800A62EE200A35
:102E1000C1F3462101EE101AB8EE411A31EE001A44
:102E2000C0EE811ABCEEE11A80ED001A1168C1F300
:102E3000064101EE101AB8EE411A31EE001AC0EE4A
:102E4000811ABCEEE11A80ED011A1168C1F3066126
:102E500001EE101AB8EE411A31EE000A80EE801A27
:102E6000BCEEC10A80ED020A30BD04E001EE901A0A
:102E7000DFED092ABAE70021016041608160F3E7D4
:102E80002844025800000039404402580024744A83
:102E90000090D0030024744C20BCBE4B2DE9FC5F95
:102EA000044650F8241B002500902E460801FE4FD2
:102EB000DFF8F8831DD5606E50B1B0F5801F0CD0DF
:102EC000B0F5001F0ED0B0F5401F1DD001250FE05A
:102ED000386840F40030386016E00221201D02F00E
:102EE00003FA03E00098022102F08EFA05000BD0ED
:102EF0002E462088C00523D5606D05281ED2DFE848
:102F000000F00C11161B1B00626ED8F8001021F4A3
:102F100040111143C8F80010EBE7386840F4003066
:102F2000386009E00021201D02F0DEF903E000987E
:102F3000002102F069FA05466DB100E001252E4638
:102F40002088800528D5A06D80281ED00CDC90B18B
:102F500040280ED114E0626DD8F8001021F007016E
:102F60001143C8F80010EBE7C02813D0B0F5807FFC
:102F700010D001250FE0386840F40030386009E0D7
:102F80000021201D02F0B0F903E00098002102F0BA
:102F90003BFA054695B12E462088DFF81093400590
:102FA00009F108092CD5D4F8A400B0F5800F20D081
:102FB0000DDCA0B1B0F5001F0FD115E0A26DD8F85F
:102FC000001021F4E0711143C8F80010E4E7B0F5F7
:102FD000C00F13D0B0F5000F10D001250FE03868F6
:102FE00040F40030386009E00021201D02F07CF937
:102FF00003E00098002102F007FA054675B12E465D
:10300000208800052DD5D4F8A800B0F1007F21D08C
:103010000EDCA8B1B0F1807F10D116E0D4F8A42066
:10302000D9F8001021F460011143C9F80010E7E756
:10303000B0F1407F13D0B0F1806F10D001250FE0C8
:10304000386840F40030386009E00021201D02F0AB
:103050004BF903E00098002102F0D6F905466DB166
:103060002E46206880011FD5A06CD8B110280FD043
:10307000202812D0302815D0012514E0D4F8A8203B
:10308000D9F8001021F0E0611143C9F80010E8E719
:10309000386840F40030386004E00221201D02F05E
:1030A00023F905466DB12E462088C0042BD5E06D6E
:1030B000B0F5005F20D00DDCA0B1B0F5805F0FD17E
:1030C00015E07A48A26C001F016821F0300111431D
:1030D0000160E9E7B0F5405F13D0B0F5804F10D044
:1030E00001250FE0386840F40030386009E0002125
:1030F000201D02F0F9F803E00098002102F084F9A5
:10310000054685B12E462088800429D5206EB0F56D
:10311000403F23D010DC08B3B0F5803F14D0B0F5A9
:10312000003F0FD115E0E26DD8F8001021F4E04126
:103130001143C8F80010E6E7B0F5802F0ED0B0F5C7
:10314000A02F0BD001250AE00121201D02F0CCF8B0
:1031500003E00098012102F057F905468DB12E4693
:10316000208840042AD5D4F8AC00B0F1405F23D0C9
:1031700010DC08B3B0F1805F14D0B0F1005F0FD164
:1031800015E0226ED8F8001021F4E0211143C8F8B0
:103190000010E5E7B0F1804F0ED0B0F1A04F0BD09A
:1031A00001250AE00121201D02F09EF803E00098AD
:1031B000012102F029F905466DB12E462088000450
:1031C0001FD5E06ED8B1B0F1805F0ED0B0F1005FD6
:1031D00010D0012514E0D4F8AC20D9F8001021F06B
:1031E000E0411143C9F80010E8E7386840F40030C6
:1031F000386004E00121201D02F076F805466DB12B
:103200002E462068C0011ED5606CD0B101280ED0BA
:10321000022811D0032814D0012513E0E26ED8F85B
:10322000001021F040511143C8F80010E9E7386858
:1032300040F40030386004E00221201D02F054F810
:10324000054685B12E462068DFF85CB04002ABF140
:103250001C0B57D51648016841F480710160FFF7D7
:10326000A5FB82460EE01148626C001F016821F048
:10327000030111430160E6E7FFF798FBA0EB0A00AA
:1032800064283DD80A480068C005F5D57DBBDFF845
:103290001CA0B4F8B0200AF1200ADAF8001002F4F9
:1032A000407001F4407105E02C440258504402582B
:1032B00000480258814211D0DAF80010DAF80020F4
:1032C00021F4407142F48032CAF80020DAF800207C
:1032D00022F48032CAF80020CAF80010D4F8B000F6
:1032E000B0F5807F21D1FFF761FB019019E008E084
:1032F000FFF75CFB0199411A41F28830814210D9F5
:1033000003252E462078DFF844A4C0073DD0A06FE7
:10331000182838D026DC80B3082829D0102825D1D9
:103320002CE0DAF800008007E2D5D4F8B010C1F341
:103330000120032858460DD0016821F47C5101601A
:10334000B4F8B020DAF80010C2F30B021143CAF847
:103350000010D7E7FE4A036802EA111223F47C51F9
:103360001143ECE720280ED028280CD001250BE0D3
:103370000121201D01F0B8FF04E004E000980121C4
:1033800002F042F805465DB12E46207880071ED532
:10339000606F062819D2DFE800F0160C1116161619
:1033A000A26FDAF8001021F038011143CAF80010BA
:1033B000EBE70121201D01F097FF03E000980121B8
:1033C00002F022F8054675B100E001252E4620786E
:1033D00040071FD5D4F89000062819D2DFE800F086
:1033E000160C11161616626FDAF8001021F007019C
:1033F0001143CAF80010EAE70121201D01F074FF13
:1034000003E00098012101F0FFFF05469DB100E0B7
:1034100001252E46207880062BD5D4F88C00B0F1FB
:10342000405F24D011DC10B3B0F1805F15D0B0F153
:10343000005F10D116E0D4F89020D9F8001021F0E8
:1034400007011143C9F80010E4E7B0F1804F0ED036
:10345000B0F1A04F0BD001250AE00021201D01F0A2
:1034600043FF03E00098022101F0CEFF05468DB135
:103470002E46207840062BD5D4F89800B0F5406F42
:1034800024D011DC10B3B0F5806F15D0B0F5006F0B
:1034900010D116E0D4F88C20DAF8001021F0E041C9
:1034A0001143CAF80010E4E7B0F5805F0ED0B0F524
:1034B000A05F0BD001250AE00021201D01F014FFC0
:1034C00003E00098022101F09FFF05468DB12E46D2
:1034D000207800062BD5D4F89C00B0F5C04F24D03E
:1034E00011DC10B3B0F5005F15D0B0F5804F10D1EE
:1034F00016E0D4F89820D9F8001021F4E0511143D7
:10350000C9F80010E4E7B0F5004F0ED0B0F5204F39
:103510000BD001250AE00021201D01F0E5FE03E0AB
:103520000098022101F070FF05464DB12E4620782B
:1035300000071ED5D4F88000B0F5805F0AD00FE0F8
:10354000D4F89C20D9F8001021F460411143C9F847
:103550000010ECE70098022101F056FF00B10126AF
:10356000D4F88020DAF8001021F440511143CAF851
:1035700000102078C00613D5D4F89400B0F5807FF1
:1035800005D10098022101F03FFF00B10126D4F8D7
:103590009420D9F8001021F440711143C9F80010AB
:1035A0002068000316D5D4F8A00038B1B0F5803FEC
:1035B00009D0B0F5003F0BD001250AE00021201D05
:1035C00001F092FE03E00098022101F01DFF054684
:1035D00085B12E462068400322D5D4F88400B0F58A
:1035E000801F11D0B0F5001F13D0B0F5401F15D0CB
:1035F000012514E0D4F8A020D9F8001021F44031BE
:103600001143C9F80010E5E7386840F4003038602D
:1036100004E00098012101F0F7FE054655B12E4661
:103620002068C0031CD5E06C70B1B0F5803F10D0AD
:10363000012514E0D4F88420DAF8001021F44011B8
:103640001143CAF80010EBE7386840F400303860E6
:1036500004E00221201D01F047FE0546CDB12E46B3
:103660002068800005D50098022101F0CDFE00B150
:103670000126206880031BD5E06FB8B1B0F5807FCC
:1036800010D0B0F5007F11D0B0F5407F0ED00125ED
:103690000DE02E48E26C0838016821F480311143B6
:1036A0000160DDE7386840F400303860F5B32E463D
:1036B0002068C00207D5226FD8F8001021F0004121
:1036C0001143C8F800102068C00008D5D4F8B42011
:1036D000DBF8001021F480411143CBF80010206882
:1036E000800207D5A26ED8F8001021F08071114336
:1036F000C8F80010206840000CD5DBF8001021F459
:103700000041CBF80010DBF80010D4F8B8201143CA
:10371000CBF800102068002807DA0C48226D083822
:10372000016821F040511143016000E014E020687D
:10373000000208D5D4F88820DAF8001021F44001FE
:103740001143CAF8001086B1012003E05444025826
:10375000CFFFFF00BDE8FC9FE26FDAF8001021F414
:1037600040711143CAF80010A2E70020EDE7000005
:103770002DE9F05F04000F467ED0DFF83882D8F8DC
:10378000000000F00F00B8420CD2D8F8001021F071
:103790000F013943C8F80010D8F8000000F00F00FE
:1037A000B84269D12078844D40070AD5206929683C
:1037B00001F07001884204D9296821F070010143A9
:1037C000296020787C4E361D00070AD56069316873
:1037D00001F07001884204D9316821F07001014381
:1037E00031602078C0060AD5A069316801F4E06133
:1037F000884204D9316821F4E061014331602078C6
:10380000DFF8B4B180060BF1080B0CD5E16958461E
:10381000DBF8002002F07002914204D9026822F025
:1038200070020A430260207880070AD5E0682968A0
:1038300001F00F01884204D9296821F00F010143EA
:1038400029602078C0073ED05B49A26828681839F3
:1038500020F47060104328606068022818D00328A4
:1038600019D00968012819D0490700294ADADFF878
:1038700048A1AAF1080A00E044E0DAF8002022F0AA
:1038800007020243CAF80020FFF790F8814612E0D1
:1038900009688903E9E709688901E6E7C905E4E7FA
:1038A000FFF784F8A0EB090141F28830814202D988
:1038B0000320BDE8F09F6168DAF8000000F03800EE
:1038C000B0EBC10FECD1207880070AD5E0682968F9
:1038D00001F00F01884204D2296821F00F01014351
:1038E0002960D8F80010404601F00F01B9420BD909
:1038F000016821F00F0139430160006800F00F00FA
:10390000B84201D00120D4E7207840070AD52069C9
:10391000296801F07001884204D2296821F0700101
:1039200001432960207800070AD56069316801F0F9
:103930007001884204D2316821F070010143316086
:103940002078C0060AD5A069316801F4E061884298
:1039500004D2316821F4E0610143316020788006AF
:103960000CD5E1695846DBF8002002F07002914264
:1039700004D2026822F070020A43026000F06CF880
:103980000E492A682B68C2F3032203F00F038A5CF6
:10399000C95C02F01F0201F01F01D040084A20FA62
:1039A00001F111600749086007480068BDE8F05F51
:1039B000FFF738B80020005218440258E693000878
:1039C0002C000020280000202000002030B500F04E
:1039D00043F80B4A0B490C4B15681468C5F30322D6
:1039E00004F00F048A5C095D02F01F0201F01F0160
:1039F000D040064A20FA01F119601060084630BD37
:103A000018440258E69300082C00002028000020EB
:103A100000B5FFF7DBFF05490968054AC1F302114C
:103A2000515C01F01F01C84000BD00001C44025859
:103A3000E693000800B5FFF7C9FF05490968054A84
:103A4000C1F30221515C01F01F01C84000BD00001C
:103A50001C440258E6930008454970B5454809687A
:103A6000434B103B11F0380208D00111082A03D053
:103A7000102A0BD0182A0BD0084670BD1968890689
:103A8000FBD51968C1F3C101C84070BD3A4870BD8B
:103A90003749374D18310C1D24350A6809682668E6
:103AA0002D6802F0030406F00102C1F30511C5F30D
:103AB000CC0515FB02F200EE102AB8EE400AE9B37D
:103AC0002F4ADFED2E0AB7EE001A6CB1DFED2D1A8A
:103AD000012C01D0022C43D002EE101A1068F8EE2F
:103AE000422A81EEA22A1EE01C68A40611D51B689A
:103AF00001EE901A1168C3F3C103F8EE612AD840B1
:103B000001EE900AC1F30800F8EE611A81EEA22AD4
:103B10000BE001EE901ADFED1C2A00BFF8EE611AEF
:103B2000106882EEA12AC0F3080001EE900AF8EEB8
:103B3000611A40EE201A31EE810A00E015E022EE13
:103B4000000A1068C0F34620401C00EE900AF8EE10
:103B5000600A80EE201ABCEEC10A10EE100A70BD99
:103B600001EE901ADFED092AD8E7002070BD0000B1
:103B7000104402580090D00340787D0100000039C5
:103B8000304402580024744A0024744C20BCBE4BBC
:103B90002DE9F05F04007CD0FF4F2078FE4D1837F0
:103BA000DFF8F493103DC00748D0D9F80000396819
:103BB00000F03800102815D0182803D101F00300B8
:103BC00002280FD06068B0F5803F12D010B1B0F578
:103BD000A02F18D0286820F480302860286820F4AE
:103BE000802009E02868800328D560680028D2D0AA
:103BF00024E0286840F480302860606888B1FEF7CF
:103C0000D5FE064609E0286840F480202860F0E7E9
:103C1000FEF7CCFE801B64287ED828688003F7D589
:103C20000CE0FEF7C3FE064605E000BFFEF7BEFE51
:103C3000801B6428F0D828688003F7D4207841F2EC
:103C40000308D54E0C3E800753D5D9F800003968DB
:103C500010F038000ED0182801D188070AD0E0688B
:103C6000A8B3296821F0190101432960FEF79EFEDF
:103C700082461BE02868400702D5E06800288AD009
:103C8000FEF78EFE40451BD82069402812D03168CF
:103C900000E0CCE021F47C3141EA0030306028E0E3
:103CA000FEF784FEA0EB0A000228B5D8286840077A
:103CB000F6D5E5E7306820F47C3040F40030EDE7DD
:103CC000207C316821F0FE4141EA0060E6E7FFE731
:103CD000286820F001002860FEF768FE824605E0B3
:103CE000FEF764FEA0EB0A00022895D8286840077A
:103CF000F6D42078C0065FD5D9F80000DFF898B276
:103D0000396800F03800ABF1040B082812D01828ED
:103D100005D101F0030000E0EAE001280AD0E069E3
:103D20000028286838D040F080002860FEF73EFE6A
:103D3000824623E02868C00523D5E069802876D133
:103D40001FE0206A202821D0316821F0F84141EAA3
:103D50008060306030E000BF94F82010DBF8002075
:103D600022F07C5242EA0161CBF8001024E000BF4F
:103D7000FEF71CFEA0EB0A00022896D82868C005B2
:103D8000F6D5FEF70DFE4045E6D8DAE7306820F0BC
:103D9000F84040F08040DCE720F080002860FEF72B
:103DA00005FE064605E000BFFEF700FE801B022868
:103DB0009BD82868C005F7D42078000729D5764815
:103DC0006169643000298046016811D041F0010129
:103DD0000160FEF7EBFD064605E000BFFEF7E6FDDD
:103DE000801B0228C9D8D8F800008007F6D510E05B
:103DF00021F001010160FEF7D9FD064605E000BF94
:103E0000FEF7D4FD801B022872D8D8F80000800786
:103E1000F6D42078800623D5A0690028286810D021
:103E200040F480502860FEF7C1FD064605E02CE115
:103E3000FEF7BCFD801B02285AD828688004F7D5FD
:103E40000EE020F480502860FEF7B0FD064604E046
:103E5000FEF7ACFD801B02284AD828688004F7D4FE
:103E6000207840074FD5DFF83481D8F8001041F4AE
:103E70008071C8F80010FEF799FD064605E000BF06
:103E8000FEF794FD801B642832D8D8F80000C005E6
:103E9000F6D5414EA068603601280AD008B1052841
:103EA00013D0306820F001003060306820F004004A
:103EB00002E0306840F001003060A06841F2883ACA
:103EC00090B1FEF773FD80460AE0306840F00400D0
:103ED0003060EEE7FEF76AFDA0EB0801514507D818
:103EE00030688007F6D50EE0FEF760FD804607E0FB
:103EF00084E000BFFEF75AFDA0EB080151457DD8D4
:103F000030688007F6D4606AF0B3DFF88C80D9F8A7
:103F1000001008F12008C1F3C20103296FD0022864
:103F2000286820F08070286003D0FEF73FFD04462B
:103F300080E0FEF73BFD064605E000BFFEF736FDDC
:103F4000801B022873D828688001F7D4E26A40F207
:103F5000F331386854F8283F884340EA0210184388
:103F60003860217B4FF4FE0C22894FF0FE47208AF7
:103F70004902267D521E401EA1F5007189B20CEA4D
:103F80000040C2F3080200E081E01143761E0143C5
:103F9000014807EA066203E010440258004802584C
:103FA0001C3011433B4AC8F80010016821F00101A0
:103FB000016011684FF6F876236AB14341EAC30104
:103FC00011600168A26921F00C01114301600168D0
:103FD000E26921F0020111430160016841F480317E
:103FE0000160016841F400310160016841F4802101
:103FF0000160016841F00101016001E017E01DE08E
:10400000286840F080702860FEF7D0FC044604E089
:10401000FEF7CCFC001B022809D828688001F7D5E0
:1040200035E000BFFEF7C2FC001B022802D90320C6
:10403000BDE8F09F28688001F4D428E039680128A1
:10404000D8F8000021D0A26A01F0030393421CD1EA
:10405000E26AC1F305118A4217D1216BC0F308024D
:10406000491E8A4211D1616BC0F34622491E91421A
:104070000BD1A16BC0F30642491E914205D1E16B01
:10408000C0F30660491E814201D00120D0E7002024
:10409000CEE70000344402582DE9F047040029D04F
:1040A0004E4D4FF0000920684D4B4E4AA842C4F8CF
:1040B000289006D0984204D0904202D0E1680F299F
:1040C00018D8E1684FF0010AE76B0831C9080AEB1C
:1040D00057167143A84205D0984203D0904201D0B0
:1040E000082907D8A84203D0984201D0904204D1B1
:1040F000102902D90120BDE8F08794F8810020B989
:10410000204684F8809000F06FF8022084F8810047
:104110002068016821F001010160A069B0F1806FA1
:1041200011D16068B0F5800F01D018B10BE0A06B21
:1041300020B108E0A06BB0F1805F04D12068016875
:1041400041F480510160A56AE0692368E16B28436E
:10415000E268084310439860D4E90D02D4E9057180
:10416000636A25691843D4F820C00A4326681043BF
:104170002843A56D3843D4E90182D4E9123140EADD
:104180000C0040EA08000843104318432843F0603D
:10419000606868B92068816821F4C05141F4006109
:1041A00081602068816821F4C06141F48061816090
:1041B0002068016D21F0010101656068400206D5AB
:1041C0002068626DC16821F000411143C160C4F8EC
:1041D000849084F881A000208DE700000030014029
:1041E00000380040003C0040F0B587B00446142180
:1041F0006846FCF7A5F825492068884244D1244840
:10420000016841F400510160006800F4005005901D
:104210001F481038016841F010010160016801F089
:1042200010010591016841F008010160016801F089
:1042300008010591016841F0100101600068002447
:104240000221144F00F0100005904FF4B0400523F8
:104250008DE8130003226946CDE903233846FEF7B3
:1042600075FA01260C484FF400450095CDE901642C
:1042700069460394FEF76AFA00956946CDE9016440
:1042800038460394FEF762FA07B0F0BD00340140EF
:10429000F044025800100258000C02582DE9FC5F4F
:1042A0000446006817468A4600211D4694F880207F
:1042B00000F1200B0191012A0DD04FF0010884F884
:1042C0008080FEF773FB814694F881000026012868
:1042D00004D002201EE00220BDE8FC9FBAF1000FCE
:1042E00017D0B7B1A1680320C4F85CA0A4F860702F
:1042F00084F88100C4F88460A4F862706666A4F84B
:104300006860A4F86A60B1F5C02F6667266704D0BC
:1043100008E0012084F88060DEE72068016841F44D
:1043200000610160206841686FF30F01394341600B
:104330002068016841F0010101606068B0F5800FFC
:1043400004D12068016841F400710160E0680F2821
:104350001AD82CE02068416989070BD5E16D0968FE
:104360000162E06D001DE065B4F86200401EA4F833
:10437000620009E0FEF71AFBA0EB0900A84202D395
:10438000681C01D005E025B1B4F862000028E1D135
:1043900083E0204601F0AFFAD4F8841084F88060FE
:1043A00041F48071C4F8841084F881808DE007287E
:1043B0002CD86EE02068416989071CD5B4F86210DA
:1043C00001290BD9E16B49B1E16D09680162E06D2A
:1043D000001DE065B4F86200801E09E0E06D018810
:1043E000ABF80010E06D801CE065B4F86200401E80
:1043F000A4F862000AE0FEF7D9FAA0EB0900A8428F
:1044000002D3681C02D0C4E7002DC2D0B4F8620009
:104410000028CFD141E02068416989072ED5B4F842
:10442000621003290CD9E16B402909D9E16D0968B3
:104430000162E06D001DE065B4F86200001F1AE043
:10444000B4F8621001290CD9E16B51B1E06D01881B
:10445000ABF80010E06D801CE065B4F86200801ECF
:1044600009E0E16D097880F82010E06D401CE065FE
:10447000B4F86200401EA4F862000AE0FEF796FA63
:10448000A0EB0900A84202D3681C02D081E7002DEE
:10449000B9D0B4F862000028BDD100224B460821F3
:1044A0002046009501F064FB28B1D4F8840040F068
:1044B0002000C4F88400204601F01DFA84F88180B1
:1044C000D4F8840084F8806008B1012004E70198E2
:1044D00002E7401EB0F1807F10B501D3012010BD6E
:1044E0004FF0E02460610F21601701F06DFF0020A4
:1044F000A0610721216110BD30B590F8801001291D
:1045000018D0012280F880202421C0F884100022D5
:10451000202450F8641B0B680D6823F0005325F02D
:1045200001050D60026050F8641C0B6004620277A4
:10453000104630BD022030BD70B5044690F88000B2
:1045400001281DD0012284F880202420C4F8840092
:1045500020680568026822F0010202602068826813
:1045600022F060620A438260204601F003FC226868
:10457000202100201560C4F8841084F8800070BDEC
:10458000022070BD70B5044690F8800001281DD04F
:10459000012284F880202420C4F884002068056863
:1045A000026822F0010202602068826822F0604204
:1045B0000A438260204601F0DDFB226820210020B2
:1045C0001560C4F8841084F8800070BD022070BDAE
:1045D00010B5040003D0D4F8840010B107E0012026
:1045E00010BD002084F88000204600F027F8242029
:1045F000C4F884002068016821F0010101602046B0
:1046000001F06EFC0128EBD0A06A10B1204601F049
:10461000D3FB2068416821F49041416020688168A3
:1046200021F02A0181602068016841F001010160E8
:104630002046BDE8104001F023BC000010B586B054
:10464000044614216846FBF77BFE1A49206888421D
:104650002ED11948016841F010010160006800F096
:104660001000059014481038016841F00101016004
:10467000016801F001010591016841F0010101604B
:1046800000680221012200F00100059003230724A5
:104690004FF400708DE81F00084C69462046FEF775
:1046A00055F84FF48060694600902046FEF74EF8BA
:1046B00006B010BD00100140F0440258000002583E
:1046C0002DE9F8430446D0F884001F4616460D46EF
:1046D000202852D1DDB1D6B194F8800001284CD009
:1046E000012084F8800021224FF00008C4F88C805B
:1046F000C4F884201834FEF759F9814654F8100C98
:10470000A687E687183CB0F5805F03D004E001205F
:10471000BDE8F883206920B12E46002584F880800A
:1047200010E00026FAE78021204601F0AFFDB8B97D
:10473000C6B116F8010B21688862B4F85600401E15
:10474000A4F85600B4F856004B464FF0000200970C
:104750000028E8D14FF04001204601F097FD38B124
:104760000320D5E735F8020B2168C0F30800E3E722
:104770002020C4F884000020CAE70220C8E7FEE732
:1047800070B5134C6189A089491E8AB2401E83B25C
:104790000021084600F0B6FA01220E48D103FEF7C8
:1047A000FAF8A4F688050F20E8602846FFF774FCA5
:1047B0006289A089A188424389B2284600F02AF97B
:1047C0000720E8602846BDE87040FFF765BC0000A0
:1047D0004C090020001002582DE9F04117461C46F4
:1047E0000A19C519069E521E93B26D1EAAB200F098
:1047F00089FA01220B48D103FEF7CDF80A4D0F20AC
:10480000E8602846FFF748FC07FB04F231462846DB
:1048100000F0ACF90720E8602846BDE8F041FFF75A
:104820003BBC000000100258C40000202DE9F05FDE
:10483000DFF8A0E0203A0023274E02F0FF0A894665
:1048400083461A46DEF80000194626E0234DD0F8CC
:104850000080B5F800C0AF880AFB04851FFA8CFC05
:10486000BFB2002413F805505FEAC57802D026F8DD
:1048700012C001E026F81270B0F80480491C521CE6
:1048800089B26D0892B2884501D1002103E0641C11
:10489000A4B2082CE8D35B1C9BB204899C42D5D8F7
:1048A000C288A9F101018388ABF10100114474466B
:1048B00018448BB2494682B2584600F023FA206869
:1048C0008188C088BDE8F05F4143034889B200F0A9
:1048D0009FBA00000C0000204C0100204C09002071
:1048E0007FB51E46094B05460C46187A13463246DC
:1048F00048B107A1684601F053FD6A4621462846A3
:1049000000F00CF87FBD03A1F4E700004C09002083
:10491000252A640025302E2A640000002DE9F0418C
:104920000B4F15460B4E8846044608E0414620468C
:10493000FFF77CFF38686D1C8088204484B2708942
:10494000A04202D92A78002AF0D1BDE8F081000007
:104950000C0000204C09002010B5026840F26F33B3
:104960005169946944F0080494610268946944F0C0
:10497000100494610268146824F001041460026851
:1049800014699C4314610268936823F44043936064
:1049900090F88120042A0CD08A060AD5D0F8842009
:1049A00042F08002C0F884200268936943F020033B
:1049B000936190F88120032A0CD04A060AD5D0F8DA
:1049C000842042F00402C0F884200268936943F016
:1049D000400393618A050AD5D0F8842042F0010291
:1049E000C0F884200268936943F400739361C90599
:1049F0000AD5D0F8841041F00801C0F8841001688D
:104A00008A6942F480728A610021A0F86210A0F8DD
:104A10006A1010BD2DE9FC5F8A4690F880100446AC
:104A200016460020019001294FF47A770DD04FF0FF
:104A3000010884F88080FDF7B9FF814694F8810071
:104A40000025012804D0022017E00220BDE8FC9FC9
:104A500096B1A16803204AEA0A4B84F88100C4F8A1
:104A600084506566A4F86850A4F86A50B1F5C02F68
:104A70006567256704D008E0012084F88050E5E7E9
:104A80002068016841F400610160206841686FF3AB
:104A90000F0141602068016841F001010160606818
:104AA000B0F5800F04D12068016841F40071016005
:104AB0002068416989070DD5B4F86210012905D92C
:104AC000E16B19B1C0F820B0B61E17E0A0F820A025
:104AD000761E13E0FDF76AFFA0EB0900B8420DD384
:104AE0002046FFF739FFD4F8841084F8805041F451
:104AF0008071C4F8841084F8818033E0002ED7D10F
:104B000000224B464FF480512046009700F0D9F820
:104B100028B1D4F8840040F02000C4F88400206854
:104B2000016841F48061016000224B464FF400614E
:104B30002046009700F0C5F828B1D4F8840040F072
:104B40002000C4F884002046FFF706FF2068826931
:104B500042F40062826184F8805084F88180D4F845
:104B6000840008B1012071E701986FE72DE9F84F43
:104B70000E4690F880104FF47A77154601290446C6
:104B80004FF0000B0DD04FF0010984F88090FDF735
:104B90000DFF94F8811082460020012904D00221E3
:104BA00016E00220BDE8F88F8DB1A268032180468F
:104BB00084F88110C4F884006066A4F86800A4F842
:104BC0006A00B2F5C02F6067206705D009E00121B7
:104BD00084F880000846E5E72068016841F4006138
:104BE0000160206841686FF30F014160206801682F
:104BF00041F0010101606068B0F5800F04D12068C8
:104C0000016841F4007101602068416989070CD591
:104C1000012D05D9E16B19B102CE0162AD1E18E07C
:104C200036F8021B01846D1E13E0FDF7BFFEA0EBFA
:104C30000A00B8420DD32046FFF78EFED4F8842038
:104C400084F8808042F48071C4F8841084F88190E4
:104C500033E0002DD8D1002253464FF48051204636
:104C6000009700F02EF828B1D4F8840040F020001E
:104C7000C4F884002068016841F48061016000226A
:104C800053464FF400612046009700F01AF828B10F
:104C9000D4F8840040F02000C4F884002046FFF7D8
:104CA0005BFE2068836943F40063836184F880803D
:104CB00084F88190D4F8840008B1012072E7584646
:104CC00070E72DE9F041984616460D460746069CCA
:104CD00009E0FDF76BFEA0EB0800A04202D3601CC8
:104CE00001D00BE054B13868406935EA000007D0C4
:104CF0000020B042EDD00020BDE8F0810320FBE7AA
:104D00000120F6E72DE9F041984615460E46074684
:104D10002A2000F09DF80F4CA07B384480B200F0B0
:104D2000ABF8A07B284480B200F0A6F82B2000F05E
:104D30008FF8E07B304480B200F09EF8E17B01EB1D
:104D4000080080B200F098F8BDE8F0412C2000F097
:104D50007FB800004C0900204FF478414FF4FC6309
:104D600001EA1021C0F3C40203EA501001430248D3
:104D700011434160704700004C0900204FF4784116
:104D80004FF4FC6301EA1021C0F3C40203EA50109F
:104D90000143024811430160704700004C090020A4
:104DA0002DE9F041194C002514264FF0F0084FF47E
:104DB0008C77607298B1022816D0012819D0032888
:104DC0000BD1362000F044F85FF0C00000F06CF822
:104DD000A573E673A4F80A80A781BDE8F0813620A8
:104DE00000F036F8702008E0362000F031F800209E
:104DF000ECE7362000F02CF8A02000F055F8A67360
:104E0000E5736781A4F80C80E7E700004C090020F7
:104E100070B501220C4605460B48D103FDF7BBFDDA
:104E20000A4E0F20F0603046FFF736F94FF47A73E0
:104E3000224629463046FFF731FA0720F060304617
:104E4000BDE87040FFF728B900100258C4000020E8
:104E500001B5074800224FF40041FDF79CFD0548CD
:104E600001224FF47A736946FFF718FA08BD000073
:104E700000100258C4000020012238B5D1030446B6
:104E80000748FDF788FD200A8DF80000054802223A
:104E90004FF47A7369468DF80140FFF7FFF938BD8A
:104EA00000100258C4000020012201B50548D103BA
:104EB000FDF771FD044801224FF47A736946FFF74C
:104EC000EDF908BD00100258C400002030B587B0CD
:104ED00014216846FBF734FA0E48016841F00401DA
:104EE000016000684FF400540B4D002200F00400F4
:104EF000214605902846FDF74EFD00210094012033
:104F0000CDE90101284603916946FDF71FFC07B072
:104F100030BD0000E0440258000802581FB5FDF7FC
:104F2000CFFD01218DF80F1000208DF80E101223F7
:104F30008DF8083003248DF80B408DF800104FF0E9
:104F400010528DF80D108DF80A0001928DF80100B5
:104F50008DF809008DF80C006846FDF783FD0420EC
:104F6000FDF7BCFD1FBD00000F4820220D4B0021A6
:104F700010B50360C0E90112C16001614161816146
:104F8000016241628162C1620163FBF7FDFF05229C
:104F900000214E20FDF7D0FDBDE810404E20FDF76A
:104FA000BDBD0000000002485C090020F0B41248BA
:104FB0004FF4800500210F4CEB010722C0E90321CB
:104FC000C0E90513C1615A000162202341624FF418
:104FD000C0268162C162C0E90D21C0E90F31416480
:104FE0008164C16401654165816580E87000F0BC41
:104FF000FFF752B800340140C4000020FEE7FEE78E
:1050000070B54FF440560024304620214FF400453F
:1050100000F061FC124940F6ED72284600F0FAFB00
:105020000021304600F057FC43F22905284600F0E5
:1050300059FB7E2802D070280DD002E009A001F0B3
:105040009FF9641CA4B2642CF0D30BA001F098F972
:105050004FF0FF3070BD12A001F092F9002070BD3A
:10506000C88300084146B9CCBCFEB3F5CABCBBAF8F
:10507000D6D03E3E3E0D0A00D7D4B6AFB6D4BDB9A9
:10508000B9CCBCFED0B4C8EBCAA7B0DCA3A1A3A125
:10509000A3A16572726F72A3A1A3A10D0A00000003
:1050A0004146B9CCBCFED0B4C8EBB3C9B9A6A3A1E4
:1050B0000D0A0000042143F2220000F00CBC0000A5
:1050C0002DE9F041104D002405EB840735F824004C
:1050D000B97800F000FC35F8240000F003FB798873
:1050E0000646B1420AD009A0214601F049F935F837
:1050F00024100AA07A88334601F042F9641CFE2C81
:10510000E2D3BDE8F0810000D07F0008B3F6B4ED33
:10511000CEBBD6C3A3BA25640D0A0000307825782B
:105120002D307825782D307825780D0A0000000084
:1051300038B590424FF0FF3401D2994201D3204656
:1051400038BD121A95B25A1A04EB400302EBD27220
:10515000491E88B2009004EB6202054892B22946CB
:105160009BB2FBF776FE0248FBF78EFE002038BDAF
:105170005C0900201748F8B5016841F002010160A0
:1051800000684B27144E154C00F0020000900020E0
:105190003115C4E90067A0600C348A000B018D1042
:1051A0002FC40426032784E8C100E0602061203C6E
:1051B0000A48FCF789FFA4F15000002211468464DC
:1051C000A0634620FDF7B8FCBDE8F8404620FDF797
:1051D000A5BC0000D8440258B8040240AC09002025
:1051E00070B50C46084905464FF48070C861084602
:1051F000FCF76AFF044823462A46BDE870400021B8
:105200005038FBF7B3BF0000AC09002008B50023FD
:1052100049F640410DE000BFADF8003005E000BFA9
:10522000BDF80020521CADF80020BDF800208A42D5
:10523000F6D3401EF0D208BD43F20A0010B500F0CC
:1052400051FA044643F20B0000F04CFA40EA042005
:1052500010BD00001E2010B5FFF7D8FF0D4800223A
:105260004FF48041FDF797FB0520FFF7CFFF142097
:10527000FFF7CCFF112143F2031000F02CFB822139
:1052800043F2080000F027FBBDE810400520FFF7BF
:10529000BDBF0000000C025870B543F212260C4648
:1052A00003210546304600F016FB290A43F60800A4
:1052B00000F011FB43F60900E9B200F00CFB210AF3
:1052C00043F60A0000F007FB43F60B00E1B200F0E2
:1052D00002FB1321304600F0FEFAA321304600F015
:1052E000FAFA002070BD70472DE9F047454D04469D
:1052F00089464FF0000A2868C04380070AD0414E13
:10530000283E306820F080603060FDF74FFB074694
:10531000B04608E00120BDE8F08700BFFDF746FB7E
:10532000C01B022867D8D8F800000001F6D4206816
:1053300029684FF4FE0721F47C313E0241EA003037
:105340002860207AA389B4F804C040022D4D2D496D
:105350005B1E227CACF1010C1035091DA0F500701C
:1053600080B2521ECCF3080C07EA034340EA0C005B
:10537000184306EA0262104328600868626920F058
:10538000C000104308600A68A06922F020020243AE
:105390000A60281D0A6822F010020A6002684FF6AF
:1053A000F873E4699A4342EAC40202600868B9F1FA
:1053B000000F40F010020A6011D00868B9F1010F27
:1053C00011D040F400100860D8F80000444640F0C6
:1053D0008060C8F80000FDF7E9FA05460DE00868AE
:1053E00040F40020EFE740F48010ECE7FDF7DEFA30
:1053F000401B022801D903208DE720680001F5D564
:10540000504688E7284402582DE9F047454D0446A8
:1054100089464FF0000A2868C04380070AD0414EF1
:10542000283E306820F080503060FDF7BFFA074614
:10543000B04608E00120BDE8F08700BFFDF7B6FAEE
:10544000C01B022867D8D8F800008000F6D4208856
:1054500029684FF4FE0721F07C713E0241EA0050BA
:105460002860207AA389B4F804C040022D4D2D494C
:105470005B1E227CACF1010C1835091DA0F50070F3
:1054800080B2521ECCF3080C07EA034340EA0C003A
:10549000184306EA0262104328600868626920F433
:1054A0004060104308600A68A06922F40072024359
:1054B0000A60281D0A6822F480720A6002684FF6AA
:1054C000F873E4699A4342EAC40202600868B9F1D9
:1054D000000F40F480720A6011D00868B9F1010F22
:1054E00011D040F080700860D8F80000444640F0C9
:1054F0008050C8F80000FDF759FA05460DE008682D
:1055000040F48000EFE740F40000ECE7FDF74EFACE
:10551000401B022801D903208DE720688000F5D5C3
:10552000504688E72844025870B5154D4FF48074F2
:10553000002221462846FDF72EFA082000F022F826
:105540006600284600223146FDF725FA082000F0C3
:1055500019F8012221462846FDF71DFA082000F01F
:1055600011F8002221462846FDF715FA012231469E
:105570002846FDF710FABDE87040082000F002B898
:1055800000040258002208B50DE000BFADF800206D
:1055900005E000BFBDF80010491CADF80010BDF8D3
:1055A00000100629F6D3401EF0D208BD70B586B0B3
:1055B00014216846FAF7C4FE1948016841F0020157
:1055C0000160016801F002010591016841F00201EA
:1055D0000160006811214FF48074124E00F0020047
:1055E000059000200094CDE90110694603903046F3
:1055F000FDF7ACF86500694630460095FDF7A6F862
:10560000012130460A46019102912146FDF7C3F976
:10561000012229463046FDF7BEF906B070BD0000F4
:10562000E04402580004025870B5124D4FF48074E3
:10563000002221462846FDF7AEF90820FFF7A2FF19
:10564000012228465102FDF7A6F90820FFF79AFF2C
:10565000012221462846FDF79EF90820FFF792FF18
:10566000002221462846FDF796F9BDE87040082043
:10567000FFF788BF000402582DE9F047184F0025B6
:105680004FF4807681464FF4007A2C466806314606
:1056900001224FEA10683846FDF77DF90820FFF730
:1056A00071FF51463846FDF769F900F001053146B2
:1056B0000022384645EA0805FDF76DF90820FFF796
:1056C00061FF641CE4B2082CE0D3B9F1010F04D0EF
:1056D000FFF7AAFF2846BDE8F087FFF725FFF9E7A7
:1056E0000004025870B50024054600F015F828465D
:1056F00000F0DEF870B900F035F800F00DF8792010
:1057000000F0A0F8012803D10020FFF7B5FF044600
:1057100000F028F8204670BD70B50122104D5402EB
:1057200028462146FDF737F9012228461602314660
:10573000FDF731F90820FFF725FF00222146284612
:10574000FDF729F90820FFF71DFF00223146284602
:10575000FDF721F9BDE870400820FFF713BF0000F6
:105760000004025870B5134D4FF480740022214696
:105770002846FDF710F90820FFF704FF66002846C9
:1057800000223146FDF707F90820FFF7FBFE012252
:1057900021462846FDF7FFF80820FFF7F3FE012217
:1057A00031462846FDF7F7F8BDE870400820FFF7BE
:1057B000E9BE00000004025870B50122144C5502E5
:1057C00020462946FDF7E7F80820FFF7DBFE012217
:1057D000204616023146FDF7DEF80820FFF7D2FE1C
:1057E00029462046FDF7CAF800284FF0000231464E
:1057F000204606D0FDF7CFF80820FFF7C3FE0020B3
:1058000070BDFDF7C8F80820FFF7BCFE012070BD91
:105810000004025870B516460D460446FFF77CFF9B
:10582000204600F045F840B9002404E0287800F054
:1058300009F8641C6D1CB442F8D3FFF793FF0020F5
:1058400070BD00002DE9F041184E00244FF4807720
:1058500005464FF40078280601D5012200E0002219
:1058600041463046FDF797F80820FFF78BFE0122EE
:1058700039463046FDF78FF80820FFF783FE0022F7
:1058800039463046FDF787F8072C04D101224146FE
:105890003046FDF780F86806641C050EE4B2082C5B
:1058A000D9D3BDE8F041FFF787BF000000040258DC
:1058B00010B50446FFF730FF7820FFF7C3FF01283B
:1058C00007D1200AFFF7BEFF012802D1E0B2FFF79F
:1058D000B9FF002010BD70B50D460446FFF71CFF50
:1058E0002046FFF7E5FF10B92846FFF7ABFFFFF7AB
:1058F00039FF002070BD10B5026840F26F33516966
:10590000946944F0080494610268946944F01004B6
:1059100094610268146824F0010414600268146938
:105920009C4314610268936823F44043936090F8A9
:105930008120042A0CD08A060AD5D0F8842042F0AF
:105940008002C0F884200268936943F020039361C9
:1059500090F88120032A0CD04A060AD5D0F884207A
:1059600042F00402C0F884200268936943F04003C7
:1059700093618A050AD5D0F8842042F00102C0F86C
:1059800084200268936943F400739361C9050AD5C2
:10599000D0F8841041F00801C0F8841001688A69C9
:1059A00042F480728A610021A0F86210A0F86A10A7
:1059B00010BD000010B5FFF7F9FA0A20FCF7B4FE9D
:1059C0003620FFF745FA0020FFF76EFA3A20FFF77E
:1059D0003FFA0520FFF768FAB220FFF739FA0C20EA
:1059E000FFF762FA0C20FFF75FFA0020FFF75CFA7E
:1059F0003320FFF759FA3320FFF756FAB720FFF7A5
:105A000027FA3520FFF750FABB20FFF721FA1920BB
:105A1000FFF74AFAC020FFF71BFA2C20FFF744FAE1
:105A2000C220FFF715FA0120FFF73EFAC320FFF767
:105A30000FFA1220FFF738FAC420FFF709FA2020E6
:105A4000FFF732FAC620FFF703FA0F20FFF72CFA10
:105A5000D020FFF7FDF9A420FFF726FAA120FFF7D9
:105A600023FAE020FFF7F4F9D020FFF71DFA042015
:105A7000FFF71AFA0D20FFF717FA1120FFF714FAB3
:105A80001320FFF711FA2B20FFF70EFA3F20FFF744
:105A90000BFA5420FFF708FA4C20FFF705FA1820FC
:105AA000FFF702FA0D20FFF7FFF90B20FFF7FCF9D3
:105AB0001F20FFF7F9F92320FFF7F6F9E120FFF7A0
:105AC000C7F9D020FFF7F0F90420FFF7EDF90C201B
:105AD000FFF7EAF91120FFF7E7F91320FFF7E4F9E0
:105AE0002C20FFF7E1F93F20FFF7DEF94420FFF714
:105AF000DBF95120FFF7D8F92F20FFF7D5F91F2048
:105B0000FFF7D2F91F20FFF7CFF92020FFF7CCF9DC
:105B10002320FFF7C9F92120FFF79AF91120FFF799
:105B200097F97820FCF700FE2920FFF791F9022071
:105B3000FFF736F90020FFF70FF96FF07F40FFF70E
:105B40001DF9FEF71DFE07490122054808600020E7
:105B500005490872D103BDE810400448FCF71BBF9B
:105B6000000000200C0000204C090020000C02580E
:105B70002DE9F041984616460D460746069C09E079
:105B8000FCF714FFA0EB0800A04202D3601C01D078
:105B90000BE054B13868406935EA000007D00020B6
:105BA000B042EDD00020BDE8F0810320FBE70120EA
:105BB000F6E77047FCF700BFF0B5CBB04C212FA83B
:105BC000FAF7BEFB202142A8FAF7BAFBBC216846CF
:105BD000FAF7B6FB0220FCF7E1FF2A4800242A4925
:105BE000026842F44042026002680A6842F0010220
:105BF0000A60096801F001014A910168C9438904FA
:105C0000FBD4224902200A6808250123C603052780
:105C100022F00302921C0A603890C021CDE93907B6
:105C2000CDE93B10CDE93F5404224194CDE93D201C
:105C3000CDE92F362FA8FDF7ABFF08B172B6FEE70E
:105C400040203F210301CDE945500322CDE9470320
:105C500042AB499042A883E816000421FDF788FD75
:105C600008B172B6FEE742F201001E94189400904B
:105C70006846FDF713F9002801D072B6FEE74BB075
:105C8000F0BD0000184802582C040058284402585F
:105C90002E48F0B52E4A016841F470010160106889
:105CA00000F00F00072804D2106820F00F00C01D7C
:105CB000106028490020274C10340B68264D43F013
:105CC00001030B6020600B682B400B60136803F02E
:105CD0000F03072B04D9136823F00F03DB1D136098
:105CE0001C4C1E4A18341E4B261D371D2060194CB3
:105CF0001C4D28343060261D3860371D23603B1D45
:105D000035601C1D3A60251D2E1D1860331D226054
:105D10002860326018600A680E4B134C22F480220F
:105D200060330A60186020686FF30F00B0F1005F05
:105D300003D20E490120C1F8080143F2D2000C49F8
:105D4000024B4A03803B08601A60F0BD88ED00E01A
:105D500000200052004402587FEDF6EA8002010163
:105D6000000202020000FF010010005C00800051F0
:105D70000040005230B5416EB9B101680D4B03F1DE
:105D800008048A688968C2F34262490F5D5C615CFD
:105D90002D01B5FBF1F1A0F86A10995CA25C090134
:105DA000B1FBF2F1A0F8681030BD0121A0F86A1033
:105DB000F8E70000D693000890F82810C90706D02D
:105DC0000168C36A4A6822F400321A434A6090F8B4
:105DD0002810890706D50168036B4A6822F48032CF
:105DE0001A434A6090F82810490706D50168436BAA
:105DF0004A6822F480221A434A6090F82810090762
:105E000006D50168836B4A6822F400421A434A604F
:105E100090F82810C90606D50168C36B8A6822F479
:105E200080521A438A6090F82810890606D50168C6
:105E3000036C8A6822F400521A438A6090F8281092
:105E4000490611D50168436C4A6822F480121A434E
:105E50004A60416CB1F5801F06D10168836C4A68C5
:105E600022F4C0021A434A6090F82810090606D5A9
:105E70000168C26C486820F40020104348607047F5
:105E8000F8B500260446C0F88C60FCF78FFD054687
:105E900020686FF07E470068000708D500222B4677
:105EA0004FF400112046009700F0F0F960B9206827
:105EB000006840070AD500222B464FF48001204697
:105EC000009700F0E3F908B10320F8BD2020C4F8E2
:105ED0008400C4F88800E666002084F88060F8BD7D
:105EE0002DE9F04304468068D84E87B0D84B21682E
:105EF000D4E90427D4F81CC010430A68002547EAF7
:105F00000C073843324002430A602068E268416867
:105F100021F44051114341602268A1699A4201D0A5
:105F2000206A01439668DFF82CC3CB4FCB4806EAC2
:105F30000C060E4396602168666ACA6A22F00F0258
:105F40003243CA622268BA420ED1006800F03800BB
:105F5000182873D047DCB8B3082879D010286FD13F
:105F600078E028287ED17BE0BD498A4209D10068CB
:105F700000F00700062875D2DFE800F0546A6C6E66
:105F80007072B8498A4209D1006800F007000628FB
:105F900068D2DFE800F0475D5F616365B2498A421D
:105FA00009D1006800F0070006285BD2DFE800F0A6
:105FB0003A5052545658AD498A420BD1006800F00D
:105FC000070006284ED200E010E0DFE800F02B4189
:105FD00043454749A6498A420AD1006800F0380083
:105FE000182839D0B7DD2028BBD13CE001203AE0A9
:105FF000A0498A4209D1006800F00700062831D282
:10600000DFE800F01026282A2C2E9B498A420BD16B
:10601000006800F00700062824D2DFE800F003192A
:106020001B1D1F2100201EE09A421BD18B48001D22
:10603000006800F00700062814D202E00CE007E038
:1060400010E0DFE800F0030507090B0D02200AE06D
:10605000042008E0082006E0102004E0202002E0F0
:10606000402000E080208549DFF814829A42854A6A
:106070004FF400434FEA21174FF000064DD110288E
:106080001AD006DC022809D004280BD008287CD1BD
:106090000DE020283DD0402877D13CE0FCF7A8FD5A
:1060A000014610E06846FCF7B5FD01990BE003A836
:1060B000FCF752FE049906E01068800604D51068CB
:1060C000C0F3C100C140B9B3606A676838F81020F6
:1060D00007EB4703B1FBF2F0834256D8B0EB073F22
:1060E00053D8002308461946FAF7F2F80246780812
:1060F000130E120243EA012110183A46714100239F
:10610000FAF7E6F8604AA0F5407191423DD821685F
:106110004CE03946D8E71946D6E7D4F81CC04FF60C
:10612000EF799C4552D108281AD006DC60B10128CD
:106130000DD0042829D10EE039E0102815D02028F0
:1061400040D040287CD13FE0FDF762FC01E0FDF744
:1061500071FC014610E06846FCF75CFD01990BE01C
:1061600003A8FCF7F9FD049906E01068800604D541
:106170001068C0F3C100C140C9B1636A606838F8F3
:106180001330B1FBF3F1490000E059E001EB50019D
:10619000B1FBF0F080B2A0F11001494550D84FF6A4
:1061A000F0732168C0F3420218401043C860012018
:1061B000A4F86A00A4F8680028462667666707B056
:1061C000BDE8F0833946D8E71946D6E7082819D044
:1061D00005DC58B101280CD0042831D10DE010287D
:1061E00015D020282ED040282AD12DE0FDF710FC14
:1061F00001E0FDF71FFC014610E06846FCF70AFDD0
:1062000001990BE003A8FCF7A7FD049906E01068CC
:10621000800605D51068C0F3C100C1400029C6D072
:10622000636A606838F81330B1FBF3F101EB500199
:10623000B1FBF0F080B2A0F1100149457FF667AFE5
:106240000125B4E73946EBE71946E9E7F369FFCFE3
:10625000000C0058FFF4FF11001001405444025894
:106260000044004000480040004C00400050004006
:106270000014014000780040007C00400090D003F2
:10628000BE93000800440258FFFC0F002DE9F047C0
:106290009A4617460E460446089D4FF000094FF0F7
:1062A000200839E0681C37D0FCF780FBA0EB0A001F
:1062B000A84222D80DB32068016849072CD5C069CF
:1062C000C043000528D423684FF400611962216897
:1062D0000B6823F4D0730B6021688B6823F00103F3
:1062E0008B60C4F88480C4F88880C4F88C8000BFB8
:1062F000032084F88090BDE8F08721680B6823F4C0
:10630000D0730B6021688B6823F001038B60C4F8A5
:106310008480C4F88880EBE72068C06936EA000012
:1063200004D00020B842BDD00020E4E70120F9E706
:106330001148002110B50F4C0C224FF4E1330460DA
:10634000C0E90131C160C0E904128161C16101622B
:1063500041628162FEF73CF907480021FEF712F91D
:1063600005480021FEF7E8F8BDE810400248FEF7B6
:10637000C3B800000010014034000020FEE7000018
:106380000FB4054B10B503A9044A029800F0EEF8CB
:1063900010BC5DF814FB0000A56C00083000002064
:1063A0000FB4084B10B504A902AA039800F0DEF858
:1063B000044602A9002000F070FC204610BC5DF8E5
:1063C00014FB00009B6C0008090700284FEA1161CC
:1063D00004DB00F1E02080F80014704700F00F00AB
:1063E00000F1E02080F8141D704702E008C8121F79
:1063F00008C1002AFAD170477047002001E001C1AE
:10640000121F002AFBD170472DE9FF5FDDE9022052
:10641000010DDDF838B0024318D044F61050A1F257
:10642000FF3141430D140F98012820D0A5EB0B003C
:10643000401C5FEA000A4FF00004474EDFF81C9151
:10644000A046504616D5CAF1000728E00F9801244F
:1064500043A2012808D0002100980F9BC0E9002129
:10646000C0E90243BDE8FF9F6FEA0B01F4E7CBF1FF
:106470000000DEE7074612E0F80707D02246334661
:1064800040464946FAF743F8804689462246334655
:1064900010461946FAF73BF804460E467F10002FC7
:1064A000EAD1DDE90201BAF1000F42464B4602DAB9
:1064B000FAF72DF801E0FAF79CF804460E460022A0
:1064C000284BFAF71DF903D84FF0FF30014607E0DB
:1064D0000022254B20463146F9F772FFFAF7F8F80B
:1064E000102409E0002C0ADB0A220023F9F7F0FE51
:1064F000019B30321A55641E50EA0102F2D1641C2D
:10650000019AC4F1110314440F9A012A03D0012205
:1065100008430DD10AE0084304D000204FF0110BCE
:106520000F9080E7A3EB0B056D1E0DE05B4504DDCE
:106530004FF0000205F1010504E003DA4FF000021C
:10654000A5F10105002AECD000980F99C0E90231AD
:10655000C0E9004586E70000000024400000F03F4D
:10656000300000000000F0430000E03F2DE9FF4F45
:1065700095B09B468946064600250FE2252877D12F
:1065800000242746F84A0121059400E0044316F848
:10659000013F203B01FA03F01042F7D130782A285E
:1065A00011D06FF02F033078A0F13002092A16D8ED
:1065B000059A44F0020402EB820203EB420210440B
:1065C000761C0590EFE759F8042B0592002A03DAB0
:1065D000504244F40054059044F00204761C307894
:1065E0002E2816D116F8010F44F004042A280DD0E5
:1065F0006FF02F023078A0F13003092B09D807EB98
:10660000870302EB4303C718761CF3E759F8047BB2
:10661000761C30786C280FD006DC4C2817D0682800
:106620000DD06A2814D104E0742810D07A280FD134
:106630000DE044F400140AE044F4801401E044F452
:1066400040147278824202D104F58014761C761CC4
:10665000307866280BD013DC582877D009DC002866
:1066600075D04528F6D04628F4D047281AD19DE1A8
:1066700018E0632835D0642879D0652812D195E1D7
:10668000702873D008DC6728F1D069286FD06E2895
:106690000DD06F2806D1B5E073282CD0752875D0A1
:1066A000782874D05A46179990476D1C75E1C4F349
:1066B0000250022809D003280DD0D9F80010042870
:1066C0000DD00D6009F1040967E1D9F80010EA174F
:1066D000C1E90052F6E7D9F800100D80F2E70D701D
:1066E000F0E719F8041B8DF8001000208DF8010068
:1066F000EA46012003E059F804AB4FF0FF30610790
:106700004FF0000102D40DE008F101018846B942C2
:106710000FDA8045F8DB1AF808100029F4D108E0F8
:1067200008F1010188468142FADB1AF808100029B5
:10673000F6D105985B46A0EB080721463846179A24
:1067400000F094FA284400EB080507E04DE029E149
:106750000DE01AF8010B5A4617999047B8F1010855
:10676000F7D25B4621463846179A13E142E00A22E7
:106770000092C4F302524FF0000A022A08D059F8DE
:1067800004CB032A4FEAEC710AD00DE029E02AE09D
:1067900009F1070121F00702F2E802C1914609E080
:1067A0000FFA8CFC4FEAEC71042A03D14FFA8CFCEF
:1067B0004FEAEC71002907DA0A460021DCF1000CEF
:1067C00061EB02012D2202E0220504D52B228DF877
:1067D0000420012203E0E20701D02022F7E79046DF
:1067E00059E00A2102E010220DE010214FF0000ACA
:1067F00000910BE010224FF0000A44F00404082737
:10680000009203E008224FF0000A0092C4F3025203
:10681000022A05D059F804CB0021032A08D009E048
:1068200009F1070121F00702F2E802C1914605E0F3
:106830001FFA8CFC042A01D10CF0FF0C4FF0000869
:10684000220728D5702806D0009B83F0100353EA56
:106850000A0305D00EE040228DF80420012208E052
:106860005CEA010206D030228DF804208DF8050084
:1068700002229046009B83F0080353EA0A030AD1E0
:106880005CEA010201D1620705D530228DF80420AF
:106890004FF001087F1E582804D034A003900EA8A2
:1068A00002900DE036A0F9E753466046009AF9F7EA
:1068B0000FFD84460398825C0298401E029002708D
:1068C0005CEA0100F0D1029806A9081A00F1200A3A
:1068D000600702D524F4803400E00127574502DD2B
:1068E000A7EB0A0000E0002000EB0A0100900598E9
:1068F0004144401A0590E00306D45B462146179AAE
:10690000059800F0B3F90544002706E001A85A46AF
:10691000C05D179990476D1C7F1C4745F6DBE0036F
:106920000CD55B462146179A059800F09FF905445F
:1069300004E030205A46179990476D1C0099481E74
:1069400000900029F5DC08E0029802995A46007888
:10695000491C0291179990476D1CBAF10001AAF1E8
:10696000010AF1DC65E10000092801003031323311
:10697000343536373839616263646566000000007B
:106980003031323334353637383941424344454665
:106990000000000000F058F90544761C307800280B
:1069A0007FF4ECAD19B02846BDE8F08F620700D443
:1069B000062709F1070222F0070CFCE80223E14652
:1069C00003F000485FEA080C02D00FF2702C0DE0D3
:1069D0005FEA045C02D50FF2682C07E05FEAC47C32
:1069E00002D00FF2602C01E0AFF2700C4FF0FF38D4
:1069F00023F00043CDF850C065280CD006DC4528B4
:106A000009D046281DD047283DD13DE0662818D042
:106A100067287ED138E00021112F01DB112000E032
:106A2000781CCDE9000106A90EA8FFF7EDFCDDE911
:106A30000F010E9A03910021009207F1010A0491BF
:106A40004DE04FF000400097CDE9011006A90EA8D7
:106A5000FFF7DAFCDDE90F0203920E9B1199002289
:106A6000DDF80CA00093049211B9791C00EB010A27
:106A7000B7EB0A0004D4C0F1FF3007F1010A04901B
:106A8000AAEB0700019044E0012F00DA0127002162
:106A9000112F01DD112000E03846CDE9000106A9E3
:106AA0000EA8FFF7B1FCDDE90F010E9A039100215A
:106AB00004910092BA4621070CD40399514500DA9B
:106AC0008A46BAF1010F05DD009AAAF10101515C75
:106AD000302908D0B84202DA10F1040F06DA012199
:106AE000CDE9011015E0AAF10101E9E7002805DC74
:106AF000049901440491AAEB000102E0411C5145B4
:106B000000DD8A460499401A401C01904FF0004075
:106B10000290200704D40198504501DBCDF8048091
:106B200000208DF84F0002980DF14F07B0F1004F93
:106B300025D02B200E9002984FF0020800280CDA86
:106B4000404202902D200E9007E00A210298F9F7AA
:106B500002FC3031029007F8011DB8F10001A8F1E4
:106B60000108F2DC02980028EFD1791E0E98087017
:106B7000307800F0200040F0450007F8020D12A820
:106B8000C01B00F107081498007800B1012000EB49
:106B90000A01019801EBE07105984144401A401E3A
:106BA0000590E00306D45B462146179A059800F04D
:106BB0005DF805441498007818B15A461799904723
:106BC0006D1CE00324D55B462146179A059800F01A
:106BD0004DF805441CE00498002807DBDDE90301BB
:106BE000884203DD0098405C179901E01799302036
:106BF0005A469047049805F10105401C04900198FD
:106C0000401E019004D12E205A46179990476D1CC2
:106C1000BAF10001AAF1010ADDDC05E017F8010B69
:106C20005A46179990476D1CB8F10001A8F1010868
:106C3000F4DC5B462146179A0598ABE62D00000070
:106C40002B000000200000002DE9F0410446002543
:106C50001E461746880404D405E039462020B04774
:106C60006D1C641EF9D52846BDE8F0812DE9F04180
:106C7000044600251E469046C80301D5302700E093
:106C80002027880404D505E041463846B0476D1CEE
:106C9000641EF9D52846BDE8F0810A68531C0B60D4
:106CA0001070704713B50448642301226946FDF74C
:106CB00007FD00981CBD00003400002008B5FEF759
:106CC0002DF93C4900240868800311D4BFF34F8F8D
:106CD000BFF36F8F38480460BFF34F8FBFF36F8FE0
:106CE000086840F400300860BFF34F8FBFF36F8F28
:106CF0000868C00323D42F4870300460BFF34F8F5F
:106D0000001F43F6FF7C00682B4D1035C0F34E3258
:106D1000C0F3C9030CEA4216184600BF46EA807762
:106D20002F60401EFAD2521EF4D2BFF34F8F086874
:106D300040F480300860BFF34F8FBFF36F8FFBF7D5
:106D400043FEFEF739FFFEF7C1F8FFF7F1FAFEF751
:106D500031FEF9F7C7FDFEF753F9FEF7ABF94FF037
:106D6000105548F240312846FEF73AFA134E4FF4D8
:106D70008C78134F4FF40059DFF848A03078012881
:106D8000FCD134700021F022434608460095FDF7FF
:106D900023FDF02154200CA2FDF7C0FD3A78022318
:106DA000F0218420FDF79CFD49465046FBF7EBFDA2
:106DB000E4E7000014ED00E050EF00E014000020D4
:106DC00016000020000802584650533A0000000008
:106DD00000000000000000000000000000000000B3
:106DE00000000000000000000000000000000000A3
:106DF0000000000000000000000000000000000093
:106E00000000000000000000600060006000600002
:106E100060006000600040002000200020000000B2
:106E20000000000060006000600000000000000042
:106E300000000000600660063003980188004400EE
:106E40000000000000000000000000000000000042
:106E50000000000000000000000000000000000032
:106E600000000000000000001002100210021002DA
:106E7000FE07FE0708020801080108010801FE07D5
:106E8000FE070401040104010401000000000000E9
:106E900000000000000040004000F00158034C03D7
:106EA000CC034C0058007000E000C001C00140035A
:106EB0004C035C034C034801F0004000400000001C
:106EC00000000000000000000E010A019100910086
:106ED0009100510051003A00AE03A002500450044A
:106EE00048044804480484028403000000000000B1
:106EF000000000000000000038006C006C006C0016
:106F00006C006C002C0098071C011A01330133013E
:106F10006301E300C308C6093C070000000000004D
:106F2000000000000C001C0010001000080004000D
:106F30000000000000000000000000000000000051
:106F40000000000000000000000000000000000041
:106F500000000000000400020001800080004000EA
:106F60004000200020002000200020002000200001
:106F7000400040008000800000010002000400008A
:106F800000000000020004000800100010002000B3
:106F90002000400040004000400040004000400011
:106FA0002000200010001000080004000200000073
:106FB0000000000000000000000000004000C000D1
:106FC0004000460C4E0FD001F0015E0F460C400011
:106FD0004000400000000000000000000000000031
:106FE0000000000000000000000000000000400061
:106FF0004000400040004000FE0F400040004000C4
:107000004000400000000000000000000000000000
:107010000000000000000000000000000000000070
:107020000000000000000000000000000000000060
:10703000000000000C001C001000100008000400FC
:107040000000000000000000000000000000000040
:107050000000000000000000FE070000000000002B
:107060000000000000000000000000000000000020
:107070000000000000000000000000000000000010
:107080000000000000000000000000000000000000
:10709000000000001C001C001C000000000000009C
:1070A00000000000000400060002000300010001CF
:1070B00080008000400040006000200020001000A0
:1070C0001000080008000C00040006000200000088
:1070D00000000000000000000000F00098010C0318
:1070E0000C0306060606060606060606060606063D
:1070F00006060C030C039801F000000000000000DD
:107100000000000000000000000040007C00600063
:10711000600060006000600060006000600060006F
:107120006000600060006000FC03000000000000E0
:1071300000000000000000000000F80084010203CD
:1071400006030603000300018001C0006000200068
:107150001000080204020602FE0300000000000006
:10716000000000000000000000007800C60086015A
:10717000860180018001C0007000800100010003D1
:107180000003060306038601F8000000000000006B
:107190000000000000000000000080018001C0012C
:1071A000A001A00190018801880184018201FE0FE5
:1071B0008001800180018001E007000000000000E4
:1071C00000000000000000000000FC0304000400B8
:1071D000040004000400F4008C0104030003000315
:1071E0000603060382018401F8000000000000008D
:1071F00000000000000000000000E00118030C0384
:107200000C0004000600E60116030E06060606063C
:10721000060604060C021803F0000000000000003F
:1072200000000000000000000000F8070C06040247
:107230000401000100018000800040004000400087
:10724000600060006000600060000000000000005E
:1072500000000000000000000000F8010C0306061A
:10726000060606060C021C03F000C8010C03060605
:107270000606060606060C03F001000000000000EA
:1072800000000000000000000000F0000C010C03F2
:10729000060206060606060606078C06780600069F
:1072A000000300030C018C017800000000000000C6
:1072B00000000000000000000000000000000000CE
:1072C00000000000E000E000E0000000000000001E
:1072D00000000000E000E000E0000000000000000E
:1072E000000000000000000000000000000000009E
:1072F00000000000600060000000000000000000CE
:10730000000000000000600060004000200020003D
:1073100000000000000000000004000200018000E6
:1073200040002000100008000400080010002000A9
:107330004000800000010002000400000000000086
:10734000000000000000000000000000000000003D
:1073500000000000FE07000000000000FE07000023
:10736000000000000000000000000000000000001D
:1073700000000000000000000400080010002000D1
:1073800040008000000100020004000200018000B3
:107390004000200010000800040000000000000071
:1073A00000000000000000000000E0031806040CCC
:1073B000040C0C0C0C0C0007800140004000400045
:1073C00000000000E000E000E0000000000000001D
:1073D0000000000000000000E00018030C02CC05D3
:1073E00064056605A605B604B604B604B604B6027E
:1073F000E4010C040C021803F0000000000000007F
:10740000000000000000000000006000600050006C
:10741000D00090009000880088010801F801040362
:1074200004030402020202060F0F00000000000025
:1074300000000000000000000000FE008C030C03B0
:107440000C030C030C038C01FC000C030C020C0657
:107450000C060C060C060C03FE01000000000000E8
:1074600000000000000000000000E00318030C060C
:107470000C040404060006000600060006000600D0
:1074800006040C040C021803F000000000000000C9
:10749000000000000000000000007F008C010C03D1
:1074A0000C030C060C060C060C060C060C060C064F
:1074B0000C060C030C038C017F0000000000000090
:1074C00000000000000000000000FF0306030604A7
:1074D0000604060086008600FE0086008600860000
:1074E0000600060406040602FF0300000000000078
:1074F00000000000000000000000FF030603060477
:107500000604060086008600FE00860086008600CF
:1075100006000600060006001F0000000000000034
:1075200000000000000000000000F00018010C0244
:107530000C0204020600060006000600C60F060341
:1075400006030C030C031803F00000000000000009
:10755000000000000000000000000F0F06060606F5
:107560000606060606060606FE07060606060606C2
:1075700006060606060606060F0F000000000000BD
:1075800000000000000000000000FC03600060003C
:1075900060006000600060006000600060006000EB
:1075A0006000600060006000FC030000000000005C
:1075B00000000000000000000000F807C000C0004C
:1075C000C000C000C000C000C000C000C000C000BB
:1075D000C000C000C000C000C000C60066003C0083
:1075E00000000000000000000000CF038601C6007C
:1075F00046002600160036002E006E004600C6002B
:1076000086008601060106038F07000000000000C7
:10761000000000000000000000001F00060006003F
:10762000060006000600060006000600060006002A
:107630000600060406040602FF0300000000000026
:10764000000000000000000000000707860386031A
:107650008E038E034E034E034A035A035A033A0322
:1076600032033203320312038707000000000000D8
:10767000000000000000000000008E0F0C021C0241
:107680001C0234023402640264024402C402840212
:1076900084038403040304031F02000000000000AD
:1076A00000000000000000000000F00098010C0342
:1076B0000C02060606060606060606060606060668
:1076C00006060C020C039801F00000000000000008
:1076D00000000000000000000000FF000603060696
:1076E00006060606060606068603FE0006000600D7
:1076F00006000600060006001F0000000000000053
:1077000000000000000000000000F00098010C03E1
:107710000C02060606060606060606060606060607
:1077200076064C02CC039801F000800700030000AD
:1077300000000000000000000000FF010603060634
:107740000606060606060603FE004600C60086007C
:1077500086010603060306060F0E00000000000067
:1077600000000000000000000000F8020C03060208
:10777000060206000E003C00F800E003800300074C
:107780000206020606060C03F001000000000000DD
:1077900000000000000000000000FE076204610815
:1077A00061086000600060006000600060006000D0
:1077B0006000600060006000F80100000000000050
:1077C000000000000000000000001E070C020C0278
:1077D0000C020C020C020C020C020C020C020C0239
:1077E0000C020C020C021801F00000000000000066
:1077F000000000000000000000000F070602040166
:1078000004010C010C0188008800980098005000C9
:107810005000700030002000200000000000000038
:1078200000000000000000000000F70E62044204A7
:107830004604460464026402E402E4029C029C01E1
:10784000980198018801880088000000000000006D
:10785000000000000000000000009E070C0108016D
:1078600018019000B0006000200060006000D000AF
:1078700090008801080104038E070000000000004A
:10788000000000000000000000000F0F06040402CA
:107890000C0208011801B800B00070006000600020
:1078A0006000600060006000F8010000000000005F
:1078B00000000000000000000000FC070C020603AE
:1078C00002018001800040004000200020001000E4
:1078D000180008040C040402FE030000000000006D
:1078E00000000000E0032000200020002000200015
:1078F0002000200020002000200020002000200088
:10790000200020002000200020002000E0030000D4
:10791000000000000000000004000400080008004F
:107920001000100010002000200040004000C000A7
:10793000800080000001000100020002000200043B
:10794000000000007C00400040004000400040007B
:107950004000400040004000400040004000400027
:107960004000400040004000400040007C0000001B
:10797000000060009000080100000000000000000E
:1079800000000000000000000000000000000000F7
:1079900000000000000000000000000000000000E7
:1079A00000000000000000000000000000000000D7
:1079B00000000000000000000000000000000000C7
:1079C0000000000000000000000000000000FF0FA9
:1079D000000000001800600000000000000000002F
:1079E0000000000000000000000000000000000097
:1079F0000000000000000000000000000000000087
:107A00000000000000000000000000000000000076
:107A100000000000F0010C030C030003E0031C0352
:107A20000E03060306038E0B7C0E00000000000010
:107A3000000000000000000008000E000C000C0018
:107A40000C000C00CC013C031C060C060C060C06BA
:107A50000C060C060C021C03E401000000000000F0
:107A60000000000000000000000000000000000016
:107A700000000000F0008C018C0186010600060069
:107A8000060006020C020C01F000000000000000DD
:107A900000000000000000000002C003000300031B
:107AA0000003000378038C030C030603060306039C
:107AB0000603060304038C077801000000000000A1
:107AC00000000000000000000000000000000000B6
:107AD00000000000E001180308020C060C06FC0779
:107AE0000C000C0018041802E00100000000000067
:107AF00000000000000000000000C0036006300627
:107B000030003000FE013000300030003000300026
:107B10003000300030003000FC01000000000000A8
:107B20000000000000000000000000000000000055
:107B300000000000F007D8068C018C018C01980130
:107B4000F8000C00FC00CC03060306038E03F800CB
:107B5000000000000000000008000E000C000C00F7
:107B60000C000C00EC011C030C030C030C030C03B5
:107B70000C030C030C030C039E0700000000000024
:107B80000000000000000000000060006000000035
:107B9000000040007C006000600060006000600049
:107BA0006000600060006000FC0300000000000056
:107BB00000000000000000000000C001C001000043
:107BC00000000001F001800180018001800180013E
:107BD000800180018001800180018001CC007C0057
:107BE000000000000000000008000E000C000C0067
:107BF0000C000C008C038C008C004C006C005C00B2
:107C00008C008C010C010C039E070000000000009A
:107C1000000000000000000040007C0060006000E8
:107C20006000600060006000600060006000600054
:107C30006000600060006000FC03000000000000C5
:107C40000000000000000000000000000000000034
:107C5000000000003707EE06660666066606660642
:107C60006606660666066606FF0F00000000000056
:107C70000000000000000000000000000000000004
:107C800000000000EE011C030C030C030C030C03AA
:107C90000C030C030C030C039E0700000000000003
:107CA00000000000000000000000000000000000D4
:107CB00000000000F00098010C0306060606060608
:107CC000060606060C030C03F0000000000000008E
:107CD00000000000000000000000000000000000A4
:107CE00000000000EE011C030C060C060C060C063E
:107CF0000C060C060C031C03EC010C000C003E00EF
:107D00000000000000000000000000000000000073
:107D10000000000078028C030C0306030603060330
:107D20000603060304038C03780300030003C00763
:107D30000000000000000000000000000000000043
:107D4000000000009F0358063806180018001800AD
:107D50001800180018001800FF00000000000000C4
:107D60000000000000000000000000000000000013
:107D700000000000F0031C030C020C023800F000AD
:107D8000C003040304038C03FC0100000000000096
:107D900000000000000000000000000020002000A3
:107DA00030003000FE013000300030003000300084
:107DB0003000300030023002E0010000000000001E
:107DC00000000000000000000000000000000000B3
:107DD000000008028E030C030C030C030C030C03BD
:107DE0000C030C030C039C0778010000000000004A
:107DF0000000000000000000000000000000000083
:107E0000000000001E070C02080108011801900084
:107E1000B000B00060006000200000000000000022
:107E20000000000000000000000000000000000052
:107E300000000000F70E6204460464026402EC02D3
:107E40009C019801980198010800000000000000C2
:107E50000000000000000000000000000000000022
:107E600000000000BC0718011001B00060006000B5
:107E7000E0009000080108039E07000000000000D9
:107E800000000000000000000000000000000000F2
:107E9000000000009E070801080108019000900002
:107EA000B0006000600060002000200024001C0082
:107EB00000000000000000000000000000000000C2
:107EC00000000000FC018401C400440060002000A8
:107ED0003000180208020C03FC0100000000000042
:107EE000000000000003800080008000800080000F
:107EF0008000800080004000200040008000800062
:107F0000800080008000800080008000000300006E
:107F10004000400040004000400040004000400061
:107F20004000400040004000400040004000400051
:107F30004000400040004000400040004000400041
:107F4000000000000C0010001000100010001000D5
:107F50001000100010002000400020001000100051
:107F60001000100010001000100010000C000000A5
:107F700000001C002204C204800300000000000076
:107F800000000000000000000000000000000000F1
:107F900000000000000000000000000000000000E1
:107FA00040093009200910090001100120013001A9
:107FB0004001141418181C1C2000241028182C1C14
:107FC00006401008400840101E8080080640100936
:107FD00008304200033103001730FF004047210002
:107FE0001830FF0037301300363064003530110090
:107FF00034301A00083101000C46200024380200F9
:108000003036360031360E003236E200333612009A
:108010002136E0000437A00003375A0015377800F6
:10802000173701000B37600005371A0005390200C9
:108030000639100001390A003137120000360800F5
:10804000013633002D306000203652001B372000EF
:108050001C475000353613003636030034364000D6
:10806000223601000E4400002550000018360000A2
:108070001236290008376400093752000C37030014
:108080002E3000000B4637000030000002301C008C
:108090000430FF000630C3000E30580000436F006C
:1080A0001F5001000050A7000150A30020384700D6
:1080B00021380100003800000138000002380000BB
:1080C0000338040004380A0005383F00063807006A
:1080D00007389B000C3807000D3868000E38030085
:1080E0000F38D80010380000113810001238000086
:1080F00013380400143831001538310001400200F3
:108100000440020005401A00023A0500033AC40088
:10811000083A0000093A93000A3A00000B3A7B0043
:108120000D3A08000E3A0600143A0500153AC4004C
:10813000133A4300183A0000193AF800013C3400A1
:10814000043C2800053C9800063C0000073C080061
:10815000083C0000093C1C000A3C9C000B3C400011
:108160008051FF008151F2008251000083511400C0
:10817000845125008551240086510900875109004A
:1081800088510900895175008A5154008B51E000D3
:108190008C51B2008D5142008E513D008F515600DE
:1081A000905146009151F800925104009351700093
:1081B0009451F0009551F000965103009751010041
:1081C00098510400995112009A5104009B510000EB
:1081D0009C5106009D5182009E51380081531E0023
:1081E00082535B008353080084530A0085537E004A
:1081F0008653880087537C0088536C008953100095
:108200008A5301008B53980000530800015330003B
:1082100002531000035300000453080005533000BC
:108220000653080007531600095308000A5330008C
:108230000B5304000C5306008054010081540800C5
:1082400082541400835428008454510085546500DE
:108250008654710087547D008854870089549100AA
:108260008A549A008B54AA008C54B8008D54CD00C7
:108270008E54DD008F54EA0090541D008055060096
:108280008355400084551000895510008A55000020
:108290008B55F8001D5040000F3A3000103A28006E
:1082A0001B3A30001E3A2600113A60001F3A1400B3
:1082B00006340000003404000134000002340400DD
:1082C0000334000004340400053400000058230087
:1082D0000158140002580F0003580F0004581200F0
:1082E0000558260006580C000758080008580500D5
:1082F000095805000A5808000B580D000C580800D2
:108300000D5803000E5800000F58000010580300CD
:1083100011580900125807001358030014580000A0
:1083200015580100165803001758080018580D007A
:10833000195808001A5805001B5806001C58080058
:108340001D580E001E5829001F58170020581100F4
:10835000215811002258150023582800245846009F
:10836000255826002658080027582600285864005B
:10837000295826002A5824002B5822002C58240063
:108380002D5824002E5806002F5822003058400047
:108390003158420032582400335826003458240003
:1083A00035582200365822003758260038584400E5
:1083B000395824003A5826003B5828003C584200BF
:1083C0003D58CE0008300200020FD6020A39C20121
:1083D000222200020FB2E51F7072F51ED235FFEFA8
:1083E00025E0244EF8E4F608F60FBF34F2900E9321
:1083F000E493FFE54BC39F50047F0580027FFB7829
:10840000BDA607120F0440047F0380027F3078BCB2
:10841000A607E618F608E678B9F678BCE678BAF664
:1084200078BF7633E408F678B87601754A0278B6F4
:10843000F608F674FF78C1F608F6751F0178BCE6F9
:1084400075F005A4F54B120AFFC2372278B8E6D3BF
:10845000940040021622E51FB40523E4F51FC20173
:1084600078B6E6FE08E6FF784EA60608A607A2370D
:10847000E433F53C903028F0751E10D23522E54BE0
:1084800075F0058478BCF6900E8CE493FF25E0240B
:108490000AF8E6FC08E6FD78BCE625E0244EF8A6DE
:1084A0000408A605EF120F0BD378B796EE18964086
:1084B0000D78BCE678B9F678B6A60608A607900E41
:1084C0008CE493120F0BC378C296EE1896500D7879
:1084D000BCE678BAF678C1A60608A60778B6E6FE26
:1084E00008E6C378C296FFEE189678C3F608A6078A
:1084F000900E95E418120EE94002D23778BCE608D7
:108500002608F6E51F6401704AE6C378C0120EDF44
:108510004005120EDA4039120F0240047FFE80023D
:108520007F0278BDA60778B9E6240378BFF678B94C
:10853000E624FD78C0F6120F02400678C0E6FF8000
:108540000478BFE6FF78BEA607751F0278B87601EB
:1085500002024AE51F6402600302022A78BEE6FFB7
:10856000C378C0120EE04008120EDA50030202284F
:10857000120F0240047FFF80027F0178BDA60778BA
:10858000B9E60478BFF678B9E61478C0F618120F89
:10859000044004E6FF80027F0078BFA607D308E608
:1085A000648094804004E6FF80027F0078C0A607C4
:1085B000C318E6648094B35004E6FF80027F3378EA
:1085C000BFA607C308E6648094B35004E6FF8002A8
:1085D0007F3378C0A607120F02400678C0E6FF80FE
:1085E0000478BFE6FF78BEA607751F0378B876014A
:1085F0008020E51F6403702678BEE6FFC378C012B2
:108600000EE04005120EDA400978B9E678BEF6753C
:108610001F0478BEE675F005A4F54B020AFFE51FBE
:10862000B40410900E94E478C3120EE94002D237DD
:10863000751F05223001030204C03002030204C08A
:108640009051A5E07893F6A3E008F6A3E008F6E5DC
:108650001F703C751E20D235120C7A787EA6060853
:10866000A607788BA609187601120C5B784EA60631
:1086700008A607788BE6786EF6751F017893E67882
:1086800090F67894E67891F67895E67892F62279E5
:1086900090E7D37893964005E796FF8008C37993D7
:1086A000E7789096FF7888760008A6077991E7D357
:1086B0007894964005E796FF8008C37994E778910F
:1086C00096FF120C8E7992E7D37895964005E7963F
:1086D000FF8008C37995E7789296FF120C8E120CF2
:1086E0005B788AE625E0244EF8A60608A607788A75
:1086F000E6246EF8A609788AE62401FFE433FED367
:10870000EF940FEE6480948040047F008005788AA7
:10871000E604FF788AA607E51FB4010AE6600302B3
:1087200004C0751F0222120C7A7880A60608A607DC
:10873000120C7A7882A60608A607786EE6788CF680
:10874000786EE6788DF67F01EF25E0244FF9C37847
:1087500081E69718E61997500A120C827880A604D1
:1087600008A605746E2FF9788CE6C3975008746ECE
:108770002FF8E6788CF6EF25E0244FF9D37883E6DE
:108780009718E61997400A120C827882A60408A668
:1087900005746E2FF9788DE6D3974008746E2FF824
:1087A000E6788DF60FEF6410709EC37981E77883C9
:1087B00096FF19E718967884F608A607C3798CE720
:1087C000788D9608F6D37981E7787F9619E7189621
:1087D000400509E7088006C3797FE7788196FF198D
:1087E000E71896FE7886A60608A607798CE7D37860
:1087F0008B964005E796FF8008C3798BE7788C96C7
:10880000FF788FA607E51F64027069900E9193FFB1
:1088100018E6C39F5072120C4A120C2F900E8E1243
:108820000C387880120C6B7B04120C1DC3120645A9
:108830005056900E92E493FF788FE69F400280118D
:10884000900E90E493FFD37889E69F18E694004059
:1088500003751F05120C4A120C2F900E8F120C3844
:10886000787E120C6B7B40120C1DD312064540180B
:10887000751F0522E51FB4050FD201C202E4F51FE2
:10888000F51ED235D233D23622EF8DF0A4A8F0CF28
:108890008CF0A428CE8DF0A42EFE22BC000BBE00CE
:1088A00029EF8DF084FFADF022E4CCF875F008EFED
:1088B0002FFFEE33FEEC33FCEE9DEC984005FCEE12
:1088C0009DFE0FD5F0E9E4CEFD22EDF8F5F0EE8443
:1088D00020D21CFEADF075F008EF2FFFED33FD4008
:1088E00007985006D5F0F222C398FD0FD5F0EA2282
:1088F000E88FF0A4CC8BF0A42CFCE98EF0A42CFC27
:108900008AF0EDA42CFCEA8EF0A4CDA8F08BF0A4A4
:108910002DCC3825F0FDE98FF0A42CCD35F0FCEB03
:108920008EF0A4FEA9F0EB8FF0A4CFC5F02ECD39C8
:10893000FEE43CFCEAA42DCE35F0FDE43CFC2275BF
:10894000F008758200EF2FFFEE33FECD33CDCC3330
:10895000CCC58233C5829BED9AEC99E58298400C98
:10896000F582EE9BFEED9AFDEC99FC0FD5F0D6E476
:10897000CEFBE4CDFAE4CCF9A88222B800C1B9005C
:1089800059BA002DEC8BF084CFCECDFCE5F0CBF9BD
:108990007818EF2FFFEE33FEED33FDEC33FCEB33B5
:1089A000FB10D703994004EB99FB0FD8E5E4F9FAE3
:1089B000227818EF2FFFEE33FEED33FDEC33FCC9C8
:1089C00033C910D7059BE99A4007EC9BFCE99AF95B
:1089D0000FD8E0E4C9FAE4CCFB2275F010EF2FFFCA
:1089E000EE33FEED33FDCC33CCC833C810D7079B34
:1089F000EC9AE899400AED9BFDEC9AFCE899F80F97
:108A0000D5F0DAE4CDFBE4CCFAE4C8F922EB9FF52B
:108A1000F0EA9E42F0E99D42F0E89C45F022E860D1
:108A20000FECC313FCED13FDEE13FEEF13FFD8F1B3
:108A300022E8600FEFC333FFEE33FEED33FDEC337E
:108A4000FCD8F122E493FC740193FD740293FE744C
:108A50000393FF22E6FB08E6F908E6FA08E6CBF8FE
:108A600022ECF608EDF608EEF608EFF622A42582D1
:108A7000F582E5F03583F58322D083D082F8E49344
:108A80007012740193700DA3A393F8740193F5828F
:108A90008883E4737402936860EFA3A3A380DF90DC
:108AA00038047852120BFD903800E0FEA3E0FDED93
:108AB000FFC3120B9E903810120B92903806785418
:108AC000120BFD903802E0FEA3E0FDEDFFC3120B98
:108AD0009E903812120B92A3E0B43107785279526B
:108AE000120C13903814E0B471157852E6FE08E6C3
:108AF0007802CEC313CE13D8F97953F7EE19F79055
:108B00003815E0B4310778547954120C13903815A5
:108B1000E0B471157854E6FE08E67802CEC313CEB1
:108B200013D8F97955F7EE19F77952120BD90912C2
:108B30000BD9AF47120BB2E544FB7A00FD7C001263
:108B400004D3785AA60608A607AF45120BB2AD03A8
:108B50007C001204D37856A60608A607AF487854BE
:108B6000120BB4E543FBFD7C001204D3785CA6062F
:108B700008A607AF467E007854120BB6AD037C0002
:108B80001204D37858A60608A607C3785BE69408B3
:108B900018E6940050057600087608C3785DE694E0
:108BA0000818E6940050057600087608785A120BEB
:108BB000C6FFD37857E69F18E69E400E785AE61314
:108BC000FE08E67857120C0880047E007F00785E6D
:108BD000120BBEFFD37859E69F18E69E400E785CD4
:108BE000E613FE08E67859120C0880047E007F0028
:108BF000E4FCFD7862120699785A120BC678572663
:108C0000FFEE1836FE7866120BBE785926FFEE1876
:108C100036FEE4FCFD786A120699120BCE786612D5
:108C2000068CD31206454008120BCE7866120699C0
:108C30007854120BD0786A12068CD3120645400A7B
:108C40007854120BD0786A1206997861E690600128
:108C5000F07865E6A3F07869E6A3F07855E6A3F02E
:108C60007D017861120BE92401120BA67865120BC5
:108C7000E92402120BA67869120BE92403120BA651
:108C8000786D120BE92404120BA60DBD05D4C20E9B
:108C9000C20622850841903024E0F53DA3E0F53E70
:108CA000A3E0F53FA3E0F540A3E0F53CD234E54175
:108CB0001206B1093103093504093B05093E0609CD
:108CC0004107094A08095B12097318098919095EE5
:108CD0001A096A1B09AD8009B2810A1D8F0A099021
:108CE0000A1D910A1D920A1D930A1D940A1D980AD5
:108CF000179F0A1AEC00000A38120F7422120F7420
:108D0000D20322D20322C20322A237E433F53C026B
:108D10000A1DC201C202C203120D0D751E70D235AA
:108D2000020A1D020A0485404A853C4B120AFF02D2
:108D30000A1D854A40854B3C020A1DE4F522F523B5
:108D4000854031853F30853E2F853D2E120F468070
:108D50001F75220075230174FFF52DF52CF52BF5F9
:108D60002A120F46852D40852C3F852B3E852A3DB6
:108D7000E4F53C8070120F16806B853D45853E46BC
:108D8000E547C313FFE545C39F50028F45E548C340
:108D900013FFE546C39F50028F46E547C313FFFD0F
:108DA000E5452DFDE433FCE544120F904005E54414
:108DB0009FF545E548C313FFFDE5462DFDE433FC73
:108DC000E543120F904005E5439FF5461206D78014
:108DD00014854048853F47853E46853D45800602CF
:108DE00006D7120D7E903024E53DF0A3E53EF0A3BA
:108DF000E53FF0A3E540F0A3E53CF0903023E4F03C
:108E000022C0E0C083C082C0D0903F0CE0F532E5C4
:108E10003230E374303666906019E0F50AA3E0F56D
:108E20000B90601DE0F514A3E0F515906021E0F5CE
:108E30000CA3E0F50D906029E0F50EA3E0F50F908E
:108E40006031E0F510A3E0F511906039E0F512A370
:108E5000E0F513300106303303D38001C3920930AB
:108E60000206303303D38001C3920A30330C30033F
:108E700009200206200103D38001C3920B90300128
:108E8000E04440F0E054BFF0E53230E114303411FA
:108E9000903022E0F508E4F0300003D38001C39263
:108EA00008E53230E5129056A1E0F509303109307D
:108EB0000503D38001C3920D903F0CE532F0D0D072
:108EC000D082D083D0E032900E7EE493FE74019382
:108ED000FFC3900E7C7401939FFFE4939EFEE48F8A
:108EE0003B8E3AF539F538AB3BAA3AA939A838AFE9
:108EF0004BFCFDFE120528120DE1E47BFFFAF9F8A8
:108F00001205B3120DE1900E69E4120DF6120DE197
:108F1000E4854A37F536F535F534AF37AE36AD353D
:108F2000AC34A3120DF68F378E368D358C34E53B7D
:108F30004537F53BE53A4536F53AE5394535F539F6
:108F4000E5384534F538E4F522F523853B31853A9B
:108F50003085392F85382E020F46E0A3E075F002E8
:108F6000A4FFAEF0C308E69FF618E69EF622FFE5E2
:108F7000F034608F82F583ECF02278527E00E6FCBC
:108F800008E6FD0204C1E4FCFD120699785CE6C324
:108F900013FE08E613227852E6FE08E6FFE4FCFD25
:108FA00022E7C4F854F0C868F709E7C4540F48F73B
:108FB00022E6FCED75F004A42212067C8F488E4751
:108FC0008D468C4522E0FEA3E0FDEEF6ED08F6228C
:108FD00013FFC3E69FFF18E69EFE22E6C313F708C1
:108FE000E61309F722AD39AC38FAF9F81205288FE3
:108FF0003B8E3A8D398C38AB37AA36A935A8342246
:1090000093FFE4FCFDFE1205288F378E368D358CDC
:1090100034227884E6FE08E6FFE48F378E36F53595
:10902000F53422900E8CE49325E0240AF8E6FE083D
:10903000E6FF22E6FE08E6FFE48F3B8E3AF539F5BF
:109040003822784EE6FE08E6FF22EF25E0244EF8AF
:10905000E6FC08E6FD227889EF26F618E436F622CB
:1090600075890375A80175B8047534FF75350E75DB
:10907000361575370D120E9A120009120F161200CE
:1090800006D200D234D2AF7534FF75350E7536492D
:10909000753703120E9A300809C2341208CBC20881
:1090A000D234300B09C23612026CC20BD2363009F0
:1090B00009C23612000EC209D236300E031206D78C
:1090C0003035D3903029E51EF0B41005903023E4FC
:1090D000F0C23580C1E4F54B900E7A93FFE48F37F0
:1090E000F536F535F534AF37AE36AD35AC34900ED8
:1090F0006A120DF68F378E368D358C34900E7212C3
:10910000067CEF4537F537EE4536F536ED4535F556
:1091100035EC4534F534E4F522F5238537318536D1
:109120003085352F85342E120F46E4F522F5239035
:109130000E72120DEA120F46E4F522F523900E6E20
:10914000120DEA020F46E54024F2F537E53F3443BD
:10915000F536E53E34A2F535E53D3428F534E537FE
:10916000FFE4FEFDFC78181206698F408E3F8D3EAD
:109170008C3DE53754A0FFE536FEE4FDFC78071290
:1091800006567810120F9AE4FFFEE535FDE4FC78F0
:109190000E120656120F9DE4FFFEFDE534FC781812
:1091A0001206567808120F9A228F3B8E3A8D398C10
:1091B000382212067C8F318E308D2F8C2E2293F91F
:1091C000F802066900000000120117083115535417
:1091D0004420202020201301100156401A30297EFF
:1091E00000300420DF300540BF500300FD50270150
:1091F000FE600011003F0530003F0622003F012ABB
:10920000003F020000360607003F0B0FF000000091
:1092100000300140BF300100BF302970003A00002B
:10922000FF3A0000FF360336024144582018100A66
:1092300004040003FF64000080000000000000023E
:10924000040606000351007A503C281E1010502DD1
:10925000281610100200100C10040C6E060500A554
:109260005A00AE35AF36E4FDEDC395375033120FDB
:10927000E2E493F538740193F53945386023853974
:1092800082853883E0FC120FE27403935204120FBC
:10929000E27402934204853982853883ECF00D80B4
:1092A000C72278BEE6D308FFE66480F8EF648098B2
:1092B0002293FF7E00E6FC08E6FD1204C178C1E6B9
:1092C000FC08E6FDD3EF9DEE9C2278BDD3E66480DA
:1092D00094802225E0240AF8E6FE08E6FF22E53C19
:1092E000D39400400B900E88120BF1900E868009EB
:1092F000900E82120BF1900E80E493F544A3E49358
:10930000F543D206300603D38001C3920E22A2AFEA
:109310009232C2AFE5234522900E5D600E120FCB54
:10932000E0F52C120FC8E0F52D800C120FCBE530C4
:10933000F0120FC8E531F0A23292AF22D201C20280
:10934000E4F51FF51ED235D233D236D201C202F572
:109350001FF51ED235D23322FBD3ED9B7480F86CFF
:109360009822120669E5402FF540E53F3EF53FE5BE
:109370003E3DF53EE53D3CF53D22C0E0C083C08268
:10938000903F0DE0F533E533F0D082D083D0E0326A
:10939000900E5FE493FE740193F5828E8322787FB2
:1093A000E4F6D8FD7581CD020C988F828E8375F01E
:1093B00004ED0206A50006101600061016000100B6
:1093C00002000400060008000A000C001000200043
:1093D00040008000000101010103070100000804B2
:1093E000020408010101000000000102030401025F
:1093F0000304060708090000189400080000002074
:1094000034000000EA6300084C9400083400002097
:10941000F40D0000FA630008D06D00080C0018007D
:10942000300000000000000000000000000000000C
:10943000000000000100000010000000000000001B
:0C9440000090D0030090D003000000005A
:040000050800029954
:00000001FF
