:020000040800F2
:1000000018040024AD02000813120008AD10000807
:100010001112000819030008511300080000000025
:10002000000000000000000000000000171200089F
:100030001B03000800000000151200081912000838
:10004000C7020008C7020008C7020008C70200086C
:10005000C7020008C7020008C7020008C70200085C
:10006000C7020008C7020008C7020008C70200084C
:10007000C7020008C7020008C7020008C70200083C
:10008000C7020008C7020008C7020008C70200082C
:10009000C7020008C7020008C7020008C70200081C
:1000A000C7020008C7020008C7020008C70200080C
:1000B000C7020008C7020008C7020008C7020008FC
:1000C000C7020008C7020008C7020008C7020008EC
:1000D000C7020008C7020008C7020008C7020008DC
:1000E000C7020008C702000800000000C70200089D
:1000F000C7020008C7020008C7020008C7020008BC
:10010000C7020008C7020008C7020008C7020008AB
:10011000C7020008C7020008C7020008C70200089B
:10012000C7020008C7020008C7020008C70200088B
:10013000C7020008C7020008C7020008C70200087B
:1001400000000000000000000000000000000000AF
:10015000C7020008C7020008C7020008C70200085B
:10016000C7020008C7020008C7020008C70200084B
:10017000C7020008C7020008C7020008C70200083B
:10018000C7020008C7020008C7020008C70200082B
:10019000C7020008C7020008C7020008C70200081B
:1001A000C7020008C7020008C7020008C70200080B
:1001B000C7020008C7020008C7020008C7020008FB
:1001C000C7020008C7020008C7020008C7020008EB
:1001D000C7020008C7020008C7020008C7020008DB
:1001E000C7020008C7020008C7020008C7020008CB
:1001F000C7020008C7020008C7020008C7020008BB
:10020000C7020008C7020008C7020008C7020008AA
:10021000C7020008C7020008C7020008C70200089A
:10022000C7020008C7020008C7020008000000005B
:10023000C7020008C702000800000000C70200084B
:10024000C7020008C7020008C7020008C70200086A
:10025000C7020008C7020008C7020008C70200085A
:10026000C7020008C7020008C7020008C70200084A
:10027000C7020008C7020008C7020008000000000B
:10028000C7020008C7020008C702000800000000FB
:1002900000000000C7020008DFF80CD000F02AF8C8
:1002A00000480047951300081804002406488047BA
:1002B00006480047FEE7FEE7FEE7FEE7FEE7FEE74B
:1002C000FEE7FEE7FEE7FEE7B51200089902000828
:1002D000D2B201E000F8012B491EFBD27047002288
:1002E000F6E710B513460A4604461946FFF7F0FF35
:1002F000204610BD064C074D06E0E06840F00103C3
:1003000094E8070098471034AC42F6D3FFF7C8FFD3
:100310006814000888140008FEE7704770B50446AA
:1003200000F032F90546601C02D00448007804440D
:1003300000F02AF9401BA042FAD370BD000000244F
:100340002DE9FC4F01257E4C00234FF0030A4FF0AE
:10035000B04E4FF00F0BEBE005FA03F637403A00D2
:1003600077D04F68012F05D0022F03D0112F01D075
:10037000122F1AD187684FEA4308D1F80CC00AFA45
:1003800008F927EA09070CFA08FC4CEA070CC0F840
:1003900008C0476891F804C0B743CCF3001C0CFABE
:1003A00003FC4CEA070CC0F804C0C6684FEA430CD3
:1003B000D1F80880E1460AFA0CF7BE43019708FA23
:1003C00009F848EA0608C0F80C804E68022E01D0F1
:1003D000122E12D1DE084FEA437C00EB860600960F
:1003E0000F69366A4FEADC6C0BFA0CF807FA0CF767
:1003F00026EA08063743009E37620E790768DDF863
:1004000004C006F0030606FA09F627EA0C073E4385
:1004100006604E68F6001CD54A4E376847F0020762
:10042000376036689F0706F00206009623F0030641
:1004300006F1B046B1463F0FD6F80864DFF80881F0
:100440000BFA07FC404526EA0C0603D14FF0000CDE
:1004500041E06CE0DFF8F4C0604502D14FF0010CE0
:1004600039E0DFF8ECC0604502D14FF0020C32E019
:10047000DFF8E0C0604502D14FF0030C2BE0DFF85D
:10048000D8C0604502D14FF0040C24E0DFF8CCC0A6
:10049000604502D14FF0050C1DE0DFF8C4C0604597
:1004A00002D14FF0060C16E0DFF8B8C0604502D16B
:1004B0004FF0070C0FE0DFF8B0C0604502D14FF0FD
:1004C000080C08E0DFF8A4C0604502D14FF0090C29
:1004D00001E04FF00A0C0CFA07FC4CEA060CC9F8D4
:1004E00008C426684F6826EA0206FF0300D51643B3
:1004F000266066684F6826EA0206BF0300D51643E9
:100500006660D1F804C07646DEF800705FEACC2C55
:1005100027EA020700D517433760D1F804C077688F
:100520005FEA8C2C27EA020700D5174377605B1C33
:100530000A681746DA407FF40FAFBDE8FC8F000071
:1005400080000058F4440258000002580004025889
:1005500000080258000C02580010025800140258FB
:1005600000180258001C02580020025800240258AB
:100570000AB1816170470904FBE700000148006887
:10058000000C70470010005C014880687047000054
:10059000000000240248816802781144816070479D
:1005A00000000024032010B500F078F800F05AFA9B
:1005B0000F4A104914681368C4F3032203F00F03B1
:1005C0008A5CC95C02F01F0201F01F01D0400A4A98
:1005D00020FA01F1116009490860002000F010F8CC
:1005E00008B1012010BD00F02BF8002010BD000064
:1005F0001844025858140008100000240C0000246D
:1006000070B50D4D04462878A0B14FF47A71B1FB56
:10061000F0F00A490968B1FBF0F000F034FD48B988
:10062000102C07D200222146501E00F017F800209F
:100630006C6070BD012070BD000000240C0000241F
:10064000054808B5016841F002010160006800F04A
:100650000200009008BD0000F44402580E4BF0B4B4
:100660001B680D46C3F30223C3F10706042E00D90D
:100670000426191D072901D2002300E0DB1E0124F6
:1006800004FA06F19C40491E2940641E994014401A
:100690002143F0BC00F05DBE0CED00E0064900F027
:1006A000070210B54FF6FF040868044B204040EAEB
:1006B00002201843086010BD0CED00E00000FA05B0
:1006C00005490B1D0A6802430A601968014201D0FE
:1006D000012070470020704720480258134970B528
:1006E0000A68D243520705D5096801F00701814223
:1006F00013D118E00A6822F0070202430A60FFF7EC
:1007000043FF0A4D4FF47A760446083D07E000BFE8
:10071000FFF73AFF001BB04201D9012070BD2868E5
:10072000C0438004F4D4002070BD00000C4802587F
:10073000F0B501684FF440371E4E91FAA1F591FAD9
:10074000A1F291FAA1FC346891FAA1F3B2FA82FE07
:10075000BCFA8CF24FF0100C0CEB4E0C4FF01F0E4D
:10076000B3FA83F302F01F020EEA430E4FF48073D4
:10077000B5FA85F5934007FA0EF70CF01F0E083511
:10078000D0E9012C05F01F053B43AA400CFA0EFCF2
:100790000B4342EA0C020A439C43144334604FF07B
:1007A000B04555F8901F008821F0FC5141EAC05037
:1007B0002860F0BD28480258014909680840704780
:1007C00024480258034900F03F020868904308603B
:1007D000704700002848025809480A49026842F058
:1007E00005020260026842F002020260086840F0FE
:1007F00004000860BFF34F8FBFF36F8F30BF7047A7
:100800001048025810ED00E02DE9F05F04000F469B
:100810007ED0DFF83882D8F8000000F00F00B84230
:100820000CD2D8F8001021F00F013943C8F800109D
:10083000D8F8000000F00F00B84269D12078844D4C
:1008400040070AD52069296801F07001884204D95F
:10085000296821F070010143296020787C4E361D03
:1008600000070AD56069316801F07001884204D937
:10087000316821F07001014331602078C0060AD54B
:10088000A069316801F4E061884204D9316821F43B
:10089000E061014331602078DFF8B4B180060BF1EC
:1008A000080B0CD5E1695846DBF8002002F0700215
:1008B000914204D9026822F070020A430260207853
:1008C00080070AD5E068296801F00F01884204D941
:1008D000296821F00F01014329602078C0073ED02C
:1008E0005B49A2682868183920F4706010432860BA
:1008F0006068022818D0032819D00968012819D087
:10090000490700294ADADFF848A1AAF1080A00E0FD
:1009100044E0DAF8002022F007020243CAF800207F
:10092000FFF732FE814612E009688903E9E70968AA
:100930008901E6E7C905E4E7FFF726FEA0EB090118
:1009400041F28830814202D90320BDE8F09F6168FE
:10095000DAF8000000F03800B0EBC10FECD12078DD
:1009600080070AD5E068296801F00F01884204D2A7
:10097000296821F00F0101432960D8F80010404692
:1009800001F00F01B9420BD9016821F00F01394381
:100990000160006800F00F00B84201D00120D4E7E8
:1009A000207840070AD52069296801F07001884243
:1009B00004D2296821F070010143296020780007E2
:1009C0000AD56069316801F07001884204D231684B
:1009D00021F07001014331602078C0060AD5A0697A
:1009E000316801F4E061884204D2316821F4E061A9
:1009F00001433160207880060CD5E1695846DBF868
:100A0000002002F07002914204D2026822F07002CB
:100A10000A43026000F026F80E492A682B68C2F3E8
:100A2000032203F00F038A5CC95C02F01F0201F08D
:100A30001F01D040084A20FA01F1116007490860FF
:100A400007480068BDE8F05FFFF7DABD00200052FC
:100A50001844025858140008100000240C00002408
:100A600004000024454970B545480968434B103BD4
:100A700011F0380208D00111082A03D0102A0BD037
:100A8000182A0BD0084670BD19688906FBD519686D
:100A9000C1F3C101C84070BD3A4870BD3749374DF8
:100AA00018310C1D24350A68096826682D6802F083
:100AB000030406F00102C1F30511C5F3CC0515FBD3
:100AC00002F200EE102AB8EE400AE9B32F4ADFED39
:100AD0002E0AB7EE001A6CB1DFED2D1A012C01D0F1
:100AE000022C43D002EE101A1068F8EE422A81EE72
:100AF000A22A1EE01C68A40611D51B6801EE901AFC
:100B00001168C3F3C103F8EE612AD84001EE900AE0
:100B1000C1F30800F8EE611A81EEA22A0BE001EEA3
:100B2000901ADFED1C2A00BFF8EE611A106882EE01
:100B3000A12AC0F3080001EE900AF8EE611A40EE17
:100B4000201A31EE810A00E015E022EE000A10685A
:100B5000C0F34620401C00EE900AF8EE600A80EEDA
:100B6000201ABCEEC10A10EE100A70BD01EE901AF8
:100B7000DFED092AD8E7002070BD000010440258BC
:100B80000090D00340787D010000003930440258C5
:100B90000024744A0024744C20BCBE4B2DE9F05F45
:100BA00004007CD0FF4F2078FE4D1837DFF8F49317
:100BB000103DC00748D0D9F80000396800F038006F
:100BC000102815D0182803D101F0030002280FD0F7
:100BD0006068B0F5803F12D010B1B0F5A02F18D0EA
:100BE000286820F480302860286820F4802009E0FC
:100BF0002868800328D560680028D2D024E02868BF
:100C000040F480302860606888B1FFF7BDFC06467C
:100C100009E0286840F480202860F0E7FFF7B4FC82
:100C2000801B64287ED828688003F7D50CE0FFF786
:100C3000ABFC064605E000BFFFF7A6FC801B64285E
:100C4000F0D828688003F7D4207841F20308D54E05
:100C50000C3E80074BD5D9F80000396810F03800F9
:100C60000ED0182801D188070AD0E06868B3296837
:100C700021F0190101432960FFF786FC824619E043
:100C80002868400702D5E06800288AD0FFF776FC84
:100C9000404513D82069316821F47C3100E0BEE082
:100CA00041EA0030306022E0FFF76EFCA0EB0A0062
:100CB0000228B7D828684007F6D5E7E7207C3168D6
:100CC00021F0FE4141EA0060ECE7286820F00100D5
:100CD0002860FFF759FC824606E000BFFFF754FC8E
:100CE000A0EB0A0002289DD828684007F6D4207897
:100CF000C00659D5D9F80000DFF8A8B2396800F06D
:100D00003800ABF1040B082812D0182803D101F0E9
:100D1000030001280CD0E0690028286834D040F096
:100D2000800000E0DCE02860FFF72EFC824623E034
:100D30002868C00523D5E069802870D11FE000BF76
:100D400094F82000316821F0F84141EA8060306079
:100D50002AE000BF94F82010DBF8002022F07C523B
:100D600042EA0161CBF800101EE000BFFFF70CFC67
:100D7000A0EB0A0002289CD82868C005F6D5FFF72A
:100D8000FDFB4045E6D8DBE720F080002860FFF758
:100D9000FBFB064605E000BFFFF7F6FB801B0228C1
:100DA00087D82868C005F7D42078000729D57D4862
:100DB0006169643000298046016811D041F0010169
:100DC0000160FFF7E1FB064605E000BFFFF7DCFB33
:100DD000801B022887D8D8F800008007F6D510E0DD
:100DE00021F001010160FFF7CFFB064605E000BFDF
:100DF000FFF7CAFB801B022872D8D8F800008007D2
:100E0000F6D42078800623D5A0690028286810D061
:100E100040F480502860FFF7B7FB064605E02EE15E
:100E2000FFF7B2FB801B02285AD828688004F7D548
:100E30000EE020F480502860FFF7A6FB064604E091
:100E4000FFF7A2FB801B02284AD828688004F7D449
:100E5000207840074FD5DFF85081D8F8001041F4D2
:100E60008071C8F80010FFF78FFB064605E000BF51
:100E7000FFF78AFB801B642832D8D8F80000C00531
:100E8000F6D5484EA068603601280AD008B105287A
:100E900013D0306820F001003060306820F004008A
:100EA00002E0306840F001003060A06841F2883A0A
:100EB00090B1FFF769FB80460AE0306840F004001B
:100EC0003060EEE7FFF760FBA0EB0801514507D863
:100ED00030688007F6D50EE0FFF756FB804607E046
:100EE00084E000BFFFF750FBA0EB080151457DD81F
:100EF00030688007F6D4606AF0B3DFF8A880D9F8CC
:100F0000001008F12008C1F3C20103296FD00228A4
:100F1000286820F08070286003D0FFF735FB044676
:100F200082E0FFF731FB064605E000BFFFF72CFB30
:100F3000801B022875D828688001F7D4E26A40F245
:100F4000F331386854F8283F884340EA02101843C8
:100F50003860217B4FF4FE0C22894FF0FE47208A37
:100F60004902267D521E401EA1F5007189B20CEA8D
:100F70000040C2F3080200E083E01143761E014303
:100F8000084807EA06621143064A1C30C8F80010F8
:100F90002432016821F00101016011684FF6F876F2
:100FA000B14303E01044025800480258236A41EA62
:100FB000C30111600168A26921F00C0111430160B5
:100FC0000168E26921F0020111430160016841F406
:100FD00080310160016841F400310160016841F431
:100FE00080210160016841F0010101E019E01FE08A
:100FF0000160286840F080702860FFF7C5FA044659
:1010000005E000BFFFF7C0FA001B022809D82868D6
:101010008001F7D535E000BFFFF7B6FA001B0228C4
:1010200002D90320BDE8F09F28688001F4D428E0AD
:1010300039680128D8F8000021D0A26A01F0030322
:1010400093421CD1E26AC1F305118A4217D1216B88
:10105000C0F30802491E8A4211D1616BC0F34622D7
:10106000491E91420BD1A16BC0F30642491E914229
:1010700005D1E16BC0F30660491E814201D0012019
:10108000D0E70020CEE7401EB0F1807F10B501D33D
:10109000012010BD4FF0E02460610F21601700F0C7
:1010A00058F90020A0610721216110BDFEE7000072
:1010B0002DE9F04101220A4F0C46054656033846F9
:1010C0003146FFF755FA681EFFF728F9002231462E
:1010D0003846FFF74DFA601EBDE8F041FFF71EB934
:1010E000000802582DE9F04387B014216846FFF745
:1010F000F6F84148016841F010010160016801F013
:1011000010010591016841F004010160016801F0DE
:1011100004010591016841F080010160016801F05E
:1011200080010591016841F001010160016801F051
:1011300001010591016841F002010160016801F0BF
:1011400002010591016841F0080101600068002278
:10115000DFF8A880082100F0080005904046FFF75E
:1011600007FADFF89C904FF40057002239464846B2
:10117000FFF7FEF903254FF6F77000246946029445
:10118000CDE900054046FFF7DBF801266946082057
:101190000090CDE9016440460394FFF7D1F8009731
:1011A0006946CDE9016448460394FFF7C9F8781E03
:1011B0006946CDE9000548460294FFF7C1F849F6B3
:1011C000FF706946CDE900050E480294FFF7B8F8B4
:1011D0004FF6FF7600960C486946CDE90154FFF7BB
:1011E000AFF8009669460948CDE90154FFF7A8F821
:1011F00007B0BDE8F0830000E04402580010025838
:10120000000802580000025800040258000C02585E
:10121000FEE7704770477047FFF7BCB970B59CB0E8
:101220004C216846FFF75BF8202113A8FFF757F819
:101230000220FFF753FA1D490A681D4822F00102F7
:101240000A600968016821F4404141F400410160ED
:101250000168002401F440411B9101688904FCD518
:101260000DF1280C02200990052160228CE807006E
:10127000C3030F9008250D9001260E90CDE9105460
:10128000CDE9006368461294FFF788FC13AA3F205B
:10129000032182E833000121179413A818941994AC
:1012A0001A94FFF7B1FA1CB070BD00002C0400586E
:1012B00018480258214A30B5214914680020204BB3
:1012C00044F47004146010330A681E4D42F00102A9
:1012D0000A6018600A681A4B2A400A6018331C1DFD
:1012E000251D174A186028322060131D28601C1D18
:1012F000251D10602A1D1860131D20601C1D28600C
:10130000251D10601860206028600A680C4B0E4C88
:1013100022F4802260330A60186020686FF30F00A7
:10132000B0F1005F03D209490120C1F808014FF074
:10133000006002498039086030BD000088ED00E09F
:10134000004402587FEDF6EA0010005C0080005176
:10135000FEE7090700284FEA116104DB00F1E020F5
:1013600080F80014704700F00F0000F1E02080F8D2
:10137000141D704702E008C8121F08C1002AFAD1E4
:1013800070477047002001E001C1121F002AFBD105
:10139000704700000EB5FFF705F9FFF73FFFFFF7B5
:1013A000A1FE2B4C4FF4FA702168C90101D5C82168
:1013B00012E02168090202D5C821054608E021682B
:1013C00049020BD5C8210546FFF772FEC821284601
:1013D000FFF76EFEC8212846FFF76AFE1D48216808
:1013E00041F4803121600168C94349060BD401688A
:1013F00041F400710160FA210A20FFF759FEFA2139
:101400000A20FFF755FE0820FFF7D6F938B1FA2178
:101410000846FFF74DFEFA210846FFF749FE08206F
:10142000FFF7D0F90820FFF74BF90820012102222D
:101430008DE807006846FFF77BF90820FFF740F9C1
:10144000FFF7CAF9FA210220FFF732FEFAE700009F
:10145000D044025810480258000000000102030462
:10146000010203040607080988140008000000248C
:1014700014000000741300089C14000814000024D9
:1014800004040000841300080100000010000000A4
:0C149000000000000090D0030090D0038A
:040000050800029954
:00000001FF
