:020000040800F2
:1000000068220024AD0200085F340008A132000815
:100010005D340008B1080008855D0008000000009C
:10002000000000000000000000000000DB390008B4
:100030002909000800000000DB350008E739000846
:10004000C7020008C7020008C7020008C70200086C
:10005000C7020008C7020008C7020008C70200085C
:10006000C7020008C7020008C7020008C70200084C
:10007000C7020008C7020008C7020008C70200083C
:10008000C7020008C7020008C7020008C70200082C
:10009000C7020008C7020008C7020008C70200081C
:1000A000C7020008C7020008C7020008C70200080C
:1000B000C7020008C7020008C7020008C7020008FC
:1000C000C7020008C7020008C7020008C7020008EC
:1000D000C7020008C7020008C7020008C7020008DC
:1000E000C7020008C702000800000000C70200089D
:1000F000C7020008C7020008C7020008C7020008BC
:10010000C70200081D380008C7020008C70200081F
:10011000C7020008C7020008C7020008C70200089B
:10012000C7020008C7020008C7020008C70200088B
:10013000C7020008C7020008C7020008C70200087B
:1001400000000000000000000000000000000000AF
:10015000C7020008C7020008C7020008C70200085B
:10016000C7020008C7020008C7020008C70200084B
:10017000C7020008C7020008C7020008C70200083B
:10018000C7020008C7020008C7020008C70200082B
:10019000C7020008C7020008C7020008C70200081B
:1001A000C7020008C7020008C7020008C70200080B
:1001B000C7020008C7020008C7020008C7020008FB
:1001C000C7020008C7020008C7020008C7020008EB
:1001D000C702000861340008C7020008C70200080F
:1001E000C7020008C7020008C7020008C7020008CB
:1001F000C7020008C7020008C7020008C7020008BB
:10020000C7020008C7020008C7020008C7020008AA
:10021000C7020008C7020008C7020008C70200089A
:10022000C7020008C7020008C7020008000000005B
:10023000C7020008C702000800000000C70200084B
:10024000C7020008C7020008C7020008C70200086A
:10025000C7020008C7020008C7020008C70200085A
:10026000C7020008C7020008C7020008C70200084A
:10027000C7020008C7020008C7020008000000000B
:10028000C7020008C7020008C702000800000000FB
:1002900000000000C7020008DFF80CD000F05AFA96
:1002A00000480047BD6600086822002406488047D1
:1002B00006480047FEE7FEE7FEE7FEE7FEE7FEE74B
:1002C000FEE7FEE7FEE7FEE7BD3A000899020008F8
:1002D0002DE9F05F0546002092469B46884606467B
:1002E000814640241BE0284641464746224600F00E
:1002F00069F853465A46C01A914110D31146184620
:10030000224600F050F82D1A67EB01084F462246AE
:100310000120002100F047F817EB00094E41201E94
:10032000A4F10104DFDC484631462A464346BDE8D5
:10033000F09F40EA01039B0703D009E008C9121FA0
:1003400008C0042AFAD203E011F8013B00F8013B8F
:10035000521EF9D27047D2B201E000F8012B491EBB
:10036000FBD270470022F6E710B513460A46044652
:100370001946FFF7F0FF204610BD30B50B46014689
:1003800000202022012409E021FA02F59D4205D334
:1003900003FA02F5491B04FA02F52844151EA2F1DE
:1003A0000102F1DC30BD202A04DB203A00FA02F120
:1003B000002070479140C2F1200320FA03F3194353
:1003C00090407047202A04DB203A21FA02F00021F5
:1003D000704721FA02F3D040C2F120029140084355
:1003E000194670472DE9FE4F804681EA0300C00F91
:1003F0000C46009021F0004123F00045B8EB0200CC
:10040000A94105D24046214690461C460B4602466D
:1004100023F00040104347D0270DC7F30A00C3F371
:100420000A510290401A019040286BDAC3F313007E
:1004300040F4801B0098924620B10023D2EB030ABF
:1004400063EB0B0B01985946C0F140025046FFF791
:10045000AAFF06460D4650465946019A00F08CF90F
:1004600010EB08006141002487EA115284EAE77327
:100470001A4340D0009A62B3019A012A4FEA075208
:1004800015DC001B61EB02014FF0004202EA07524B
:10049000CDE90042001C41F5801132462B4600F0A8
:1004A0008CF903B0BDE8F08F40462146F9E7001B08
:1004B00061EB0201001C41F5801300185B4120181C
:1004C000A2F5001747EB030140EAD570B6196D415C
:1004D00011E06D084FEA360645EAC0754FEA07524B
:1004E000001B61EB0201001C41F5801149084FEA35
:1004F00030000019514132462B4603B0BDE8F04FA1
:1005000000F04CB90098012240000023D0EB020219
:1005100063EBE073009821464FEAE074B8EB00000B
:1005200061EB0401E9E783F000435BE781F0004100
:1005300058E72DE9FE4F81EA030404F0004421F05E
:10054000004100944FF0000B23F0004350EA0104F7
:100550005ED052EA03045BD0C3F30A54C1F30A55D8
:100560002C44A4F2F3340194A0FB0254C1F3130110
:1005700041F48011C3F3130343F4801301FB0244DD
:1005800000FB034E840A970A44EA815447EA8357E2
:10059000A4FB076802958D0A05FB07854FEA932C9B
:1005A00004FB0C542705029D4FEA065847EA16370C
:1005B000B5EB08056EEB070C870E920E47EA811724
:1005C00042EA8312A7FB0201B6EB0B0164EB0004C5
:1005D0002B0D43EA0C335E1844EB1C50DA465146AF
:1005E000E7FB0201C5F313044FEA0B3343EA14534C
:1005F0004FEA0432019C43EA0603A4F10C0402947E
:10060000009CCDE900B400F0D8F803B0BDE8F08F4D
:1006100000200146F9E72DE9F04D81EA030404F0DA
:10062000004B21F0004514464FF0000A23F0004132
:1006300050EA050220D054EA01021DD0C5F30A5742
:100640000246C5F31303C1F31300C1F30A5640F485
:10065000801543F48013A7EB0608101BD64608F25A
:10066000FD3873EB050002D308F1010801E0921890
:100670005B41B8F1000F03DA00200146BDE8F08DC0
:1006800000204FF48011064684460EE0171B73EBE2
:10069000050705D3121B63EB050306434CEA010C67
:1006A00049084FEA300092185B4150EA0107EDD14A
:1006B00052EA030012D082EA040083EA05010843EB
:1006C00005D0101BAB4106D20122002306E0002218
:1006D0004FF0004302E06FF0010253101AEB0600E6
:1006E0004CEB085110EB0A0041EB0B01BDE8F04D5B
:1006F00000F054B8C1F30A52C1F3130140F2FF33C2
:1007000041F480119A4202DA00200146704740F21B
:1007100033439A42A2F2334202DC5242FFF752BE06
:10072000FFF741BE30B5041E71F1000404DB4FF049
:100730000044404264EB0101141E73F1000405DB28
:100740001C464FF00043524263EB0403994208BF3A
:10075000904230BD064C074D06E0E06840F00103D2
:1007600094E8070098471034AC42F6D3FFF798FDA1
:10077000D4670008F4670008202A06DBCB17203A6C
:1007800041FA02F043EAE07306E041FA02F3D04096
:10079000C2F12002914008431946704710B5141E5B
:1007A00073F1000408DA401C41F1000192185B412A
:1007B0001A4301D120F0010010BD2DE9F04D924601
:1007C0009B4611B1B1FA81F202E0B0FA80F2203218
:1007D0009046FFF7E8FD04460F4640EA0A0041EA6A
:1007E0000B0153465A46084313D0114653EA010001
:1007F00019D0C8F140025046FFF7E4FD05460E4609
:10080000504659464246FFF7CEFD084305D0012029
:1008100004E020463946BDE8F08D0020054346EA55
:10082000E0762C4337430A986305E40AA0EB0800FE
:100830000022FD0A44EA47540A3002D5002001464E
:10084000E9E7010510196941DDE908450019694129
:10085000BDE8F04DA2E770B58C1810F8015B15F0FB
:10086000070301D110F8013B2A1106D110F8012B22
:1008700003E010F8016B01F8016B5B1EF9D12B0747
:1008800005D40023521E0DD401F8013BFAE710F8FD
:10089000013BCB1A921C03E013F8015B01F8015BEA
:1008A000521EF9D5A142D8D3002070BD70477047C1
:1008B000FEE7002070470020704700000549002235
:1008C000054810B503F070FE0449034803F05FFECD
:1008D000002010BD3C0F0024600200243C070024CF
:1008E0000146044810B503F052FE024803F028FE0A
:1008F000002010BD6002002400207047094A10B596
:10090000D2F8BC22D2F814220AB1012010BD0A4646
:100910000146044803F048FEBDE81040014803F0DA
:10092000B9BE000060020024704772B6FEE7000006
:1009300070B5044600F030F90546601C02D004484A
:100940000078044400F028F9401BA042FAD370BD9F
:10095000AC0000242DE9F84F03247D4D00234FF017
:1009600001094FF0B04B4FF00F0AE9E009FA03F725
:100970003A4076D00E7906F00306012E01D0022E01
:1009800018D1D0F808C04FEA430ECE6804FA0EF82A
:100990002CEA080C06FA0EF646EA0C068660D0F839
:1009A00004C00E792CEA070CC6F300169E4046EAF6
:1009B0000C0646600E79F643B6070BD0C6684FEAC0
:1009C00043088F6804FA08FC26EA0C0607FA08F7C1
:1009D0003743C7600E7906F00306022E12D1DE08F7
:1009E0000F694FEA437C00EB8606B646366A4FEA4B
:1009F000DC6C0AFA0CF807FA0CF726EA080637430B
:100A0000CEF820700F7906684FEA430807F0030715
:100A100004FA08FC07FA08F726EA0C0637430760D1
:100A20004E6816F4403F1CD04A4E376847F0020724
:100A3000376036689F0706F00206009623F003062B
:100A400006F1B046B6463F0FD6F80864DFF80881D5
:100A50000AFA07FC404526EA0C0603D14FF0000CC9
:100A600041E06CE0DFF8F4C0604502D14FF0010CCA
:100A700039E0DFF8ECC0604502D14FF0020C32E003
:100A8000DFF8E0C0604502D14FF0030C2BE0DFF847
:100A9000D8C0604502D14FF0040C24E0DFF8CCC090
:100AA000604502D14FF0050C1DE0DFF8C4C0604581
:100AB00002D14FF0060C16E0DFF8B8C0604502D155
:100AC0004FF0070C0FE0DFF8B0C0604502D14FF0E7
:100AD000080C08E0DFF8A4C0604502D14FF0090C13
:100AE00001E04FF00A0C0CFA07FC4CEA060CCEF8B9
:100AF00008C44F68DBF80060FF0226EA020600D552
:100B000016435F46CBF80060D1F804C0DBF8046000
:100B10005FEA8C2C26EA020600D516437E606E68DA
:100B20004F6826EA0206BF0300D516436E602E68A2
:100B30004F6826EA0206FF0300D516432E605B1CB1
:100B40000A6832FA03F67FF411AFBDE8F88F0000AF
:100B500080000058F4440258000002580004025873
:100B600000080258000C02580010025800140258E5
:100B700000180258001C0258002002580024025895
:100B80000AB1816170470904FBE700000148006871
:100B9000000C70470010005C01488068704700003E
:100BA000AC000024024881680278114481607047DB
:100BB000AC000024032010B500F086F801F0DCFD45
:100BC0000F4A104914681368C4F3032203F00F039B
:100BD0008A5CC95C02F01F0201F01F01D0400A4A82
:100BE00020FA01F11160094908600F2000F010F8A7
:100BF00008B1012010BD00F02BF8002010BD00004E
:100C000018440258C4670008BC000024B80000243F
:100C100070B50D4D04462878A0B14FF47A71B1FB40
:100C2000F0F00A490968B1FBF0F002F03FFA48B968
:100C3000102C07D200222146501E00F025F800207B
:100C40006C6070BD012070BDAC000024B8000024B1
:100C5000054808B5016841F002010160006800F034
:100C60000200009008BD0000F4440258002809DB8F
:100C7000410900F01F028900012001F1E0219040AC
:100C8000C1F80001704700000E4BF0B41B680D4620
:100C9000C3F30223C3F10706042E00D90426191D4D
:100CA000072901D2002300E0DB1E012404FA06F12B
:100CB0009C40491E2940641E994014402143F0BCC9
:100CC00005F078B80CED00E0064900F0070210B519
:100CD0004FF6FF040868044B204040EA0220184306
:100CE000086010BD0CED00E00000FA05016801236A
:100CF000C0F80035002280F8F4248869044A40F0E6
:100D000000608861486D104348650020704700000E
:100D10000300001070470068416200207047F0B582
:100D200003685D6A39B19F6A4C1E00204FF48276D9
:100D300005EB17450BE045EA0240986210E0471CBE
:100D400006EB800053F800C0F8B205EB1C45A0424A
:100D5000F5D34FF4807000EB810045EA02421A504F
:100D60000020F0BDD0F8080503F029BF01EBC10257
:100D700000EB8202D0F80805926C03F07CBE01EB18
:100D8000C10200EB8202D0F80805D2F8882203F0F5
:100D9000CEBED0F8080503F014BF0A0601F00F011B
:100DA00001EBC10100EB810101D53C3101E001F50E
:100DB0001F71006804F0FEBD01F00F020B0670B554
:100DC00002EBC20104464FF001004FF0000504EBB6
:100DD000810103D581F83D003C3103E081F87D526B
:100DE00001F51F710A7094F8BC24012A08D084F818
:100DF000BC04206804F0FAFA002084F8BC5470BDEA
:100E0000022070BD70B54268044601F00F009042A8
:100E100001D9012070BD01F00F024FF000050B0653
:100E200002EBC2014FF0010204EB810103D581F80E
:100E30003D203C3103E081F87D5201F51F718D703A
:100E4000087094F8BC04012808D084F8BC242068F9
:100E500004F03CFC002084F8BC5470BD022070BD3E
:100E600001F00F0101EBC10100EB8100D0F890020D
:100E700070472DE9F04101F00F0604460D064FF0D2
:100E8000010006EBC6014FF0000504EB810103D51C
:100E900081F83D003C3103E081F87D5201F51F717E
:100EA0004F788A600B710E7007B14E83022B00D110
:100EB0004D7194F8BC24012A09D084F8BC04206840
:100EC00004F0E2F9284684F8BC54BDE8F081022021
:100ED000FBE770B501F00F05002405EBC50100EB41
:100EE000810101F5227181E81C0001F80B4C01F829
:100EF0000C5DC368012B00D1CA61027B006804F05D
:100F00003DFC002070BD70B50D464168044605F0FB
:100F10000F00884201D9012070BD29064FF000065C
:100F20004FF0010207D500EBC00104EB810181F80D
:100F30003D203C3107E005EBC50104EB810181F860
:100F40007D6201F51F718A70087094F8BC04012855
:100F500007D084F8BC24206804F0E4FB280702D002
:100F600007E0022070BD217B04F2C442206804F037
:100F700081FB002084F8BC6470BD70B501F00F04E3
:100F8000002504EBC401012600EB8101483181E812
:100F90002C0001F80B6C01F80C4DC368012B00D13B
:100FA000CA61027B006804F0E9FB002070BD00000C
:100FB0002DE9FC5F05680446284604F09CFD0028E6
:100FC0007ED1206804F0C3FD002879D0D5F8080848
:100FD000C0F30D20C4F8FC04206804F0B8FD8007BD
:100FE00004D52068416901F002014161206804F0E4
:100FF000AEFDC10604F2C440009034D5206881697A
:1010000021F0100181612F6A07F00F01C7F34340FF
:1010100001EBC101022804EB810606F51F7602D020
:10102000062811D01AE047F6F070074216D0C7F331
:101030000A12F1681746284604F08DFDF1687069C0
:101040003944F160384408E000990822284604F049
:1010500082FD7069C7F30A110844706120688169D4
:1010600041F010018161206804F071FD00034FF030
:10107000000A4FF0020B4FF001097CD520680026D2
:1010800004F044FD074674E0F80770D02068F1B220
:1010900004F055FD8046C00707D005EB4611C1F8A6
:1010A000089B3146204602F0E1F95FEA087025D539
:1010B00005EB46110820C1F8080BFC49206800E048
:1010C00042E2026C00EB461001928A42D0F8081B03
:1010D00005D9090403D54FF40041C0F8081B204688
:1010E00000F038FBF1490198884207D9E0680128EF
:1010F00004D120680121009A04F0BCFA5FEAC860BC
:1011000004D505EB46111020C1F8080B5FEA887082
:101110001CD56869000605D5D5F8040840F480613F
:10112000C5F8041806EBC60004EB800090F87F12A7
:1011300000F51F70012905D180F803A02046F1B207
:1011400000F008FA05EB4611C1F808BB5FEA8860B9
:1011500004D505EB46112020C1F8080B5FEA884052
:1011600005D505EB46114FF40050C1F8080B7F0878
:10117000761C002F88D1206804F0E9FC40036FD56D
:10118000206804F0BCFC0026074667E0F80763D03F
:101190002068F1B204F0C1FC8046C00723D0D5F826
:1011A000342806F00F0C05EB461309FA0CF08243C5
:1011B000C5F83428C3F80899E06801280FD106EB78
:1011C000C60004EB8000D0E911121144816436B9E5
:1011D000E06C20B920680121009A04F04BFA204607
:1011E000F1B2FFF7C3FD5FEA087004D505EB4611C5
:1011F0000820C1F808095FEAC86004D505EB46116C
:101200001020C1F808095FEA486004D505EB4611D3
:101210004020C1F808095FEA887016D53146284693
:1012200004F03CFC06EBC60004EB800090F83F1095
:101230003C30012905D180F803A02046F1B200F02E
:1012400085F905EB4611C1F808B95FEA086003D5D6
:101250003146204602F070F97F08761C002F95D1A8
:10126000206804F074FC002811DAD5F8040820F096
:101270000101C5F8041894F8F40401283BD0204675
:1012800000F04CFA2068416901F00041416120689A
:1012900004F05DFC00050BD5D5F80808C00702D0A6
:1012A000204600F07FFA2068416901F40061416145
:1012B000206804F04CFC00010AD52068416901F067
:1012C0000061416194F8F404E0B1204600F06AFA4C
:1012D000206804F03CFCC00472D5D5F8040820F066
:1012E0000101C5F804182068102104F0D7FB002183
:1012F0004FF67F322DE00021204684F8F4A4FFF75A
:1013000009FDBFE784F8F4942068406D0121C0F323
:101310008300C4F8F8042046FFF7FCFCD8E700BFC0
:1013200005EB4110C0F80829D0F8003923F4001368
:10133000C0F80039C0F8082BD0F8003B23F40013A4
:10134000C0F8003BD0F8003B43F00063C0F8003B1E
:10135000491C60688842E3D8D5F81C0840F00111A8
:10136000C5F81C18206B68B1D5F8840840F00B0153
:10137000C5F88418D5F8440840F00B012846C5F894
:1013800044180DE0D5F8140842F22B010843C5F8C3
:101390001408D5F8100840F00B012846C5F81018BD
:1013A000D0F8000820F4FE61C5F80018217B206801
:1013B000009A04F05FF92068416901F480514161AD
:1013C000206804F0C4FB800417D5206803F09CFF5C
:1013D000206804F083FB206101F088F9217C2368F8
:1013E000CAB20146184604F017FC204600F080F906
:1013F0002068416901F400514161206804F0A7FBB5
:10140000000707D5204600F08DF92068416901F0FA
:1014100008014161206804F09AFB000616D5A8690E
:10142000012620F08001A9610DE000BF06EBC60097
:1014300004EB800090F87F02012803D12046F1B22E
:10144000FFF7ABFC761C6068B042EFD8206804F070
:101450007EFBC00221D501264F4616E006EBC601F1
:1014600005EB461004EB8101D0F8000991F840200B
:10147000012A09D1002807DAF0B281F83F7040F064
:1014800080012046FFF789FC761C6068B042E5D8F1
:101490002068416901F480114161206804F057FB24
:1014A000800234D501204B4629E000000A30544F19
:1014B00000EBC00205EB401104EB8202D1F8001BE7
:1014C00092F88062012E19D1002917DA94F8FC6491
:1014D00001F4803106F00106B1420FD182F87F326B
:1014E000A96941F08002AA616969090606D4D5F8A4
:1014F000040840F40070C5F8040803E0401C61686B
:101500008142D5D82068416901F400114161206809
:1015100004F01DFB400007D52046FFF723FC2068A0
:10152000416901F080414161206804F010FB4007EF
:101530000AD520684568680702D52046FFF729FCD0
:101540002068416829434160BDE8FC9FD0F8080548
:1015500003F08EBBD0F8080503F09EBB2DE9F041E7
:1015600004008AB005D094F8BD040025266820B197
:1015700008E001200AB0BDE8F081204684F8BC54A0
:1015800000F066F8032084F8BD04F06BC00500D4B9
:10159000E560206804F068F804F11001684628222C
:1015A0008846FEF7C6FE94E80F0003F0BBFE022754
:1015B000D8BB2068002104F0EEFA0020012610E0DC
:1015C00000EBC001421C04EB810181F83D6081F811
:1015D00040504D648D64CD6481F83C00A1F8560004
:1015E000D0B261688142EBD8002011E000EBC0016D
:1015F000421C04EB810181F87D5281F88052C1F8D0
:101600008452C1F88852C1F88C5281F87C02D0B261
:1016100061688142EAD8282241466846FEF789FE81
:1016200094E80F0003F064FF10B184F8BD74A0E7E4
:10163000606A84F8385084F8BD64012802D12046DD
:10164000FFF754FB206803F045FF002092E70000FD
:1016500010B5B6B00446142130A8FEF783FEC021B1
:101660006846FEF77FFE1F492068884238D1002077
:101670004FF480214FF440122292CDE900106846C9
:1016800000F030FA08B1FFF750F900F0CDF8164835
:10169000016841F00101016000680A23022200F0A4
:1016A0000100359000204FF4C051309130A9CDE9B0
:1016B0003120CDE933030D48FFF74CF90A480838CB
:1016C000016841F00061016000680022114600F0ED
:1016D000006035906520FFF7D7FA6520FFF7C6FA5E
:1016E00036B010BD00000840E04402580000025827
:1016F00070B504460069012570B1022801D0FFF7DA
:1017000014F9D4F80805294603F035FBD4F8080588
:10171000BDE8704003F0E9BA0025F2E7D0F808050B
:1017200003F012BBD0F8080503F018BB10B504464F
:1017300090F8BC0401280BD0012084F8381084F8FC
:10174000BC04206804F056FA002084F8BC0410BDE4
:10175000022010BDD0F8082500F2C441104603F065
:1017600016BB10B590F8BC1404460068012909D0D6
:10177000012184F8BC14C16BC90509D4A16A0129EF
:1017800002D005E0022010BD816B41F480318163FD
:10179000206804F05EF9206803F08EFE002084F8D3
:1017A000BC0410BD10B50446D0F8080503F031FBA9
:1017B0002068D0F8001E41F00101C0F8001E206A28
:1017C000002804D00248016841F00601016010BD04
:1017D00010ED00E0134970B50A68D243520705D5F1
:1017E000096801F00701814213D118E00A6822F06C
:1017F000070202430A60FFF7CFF90A4D4FF47A76E9
:101800000446083D07E000BFFFF7C6F9001BB042E1
:1018100001D9012070BD2868C0438004F4D40020A1
:1018200070BD00000C4802580248016841F0807108
:10183000016070470C48025810B500F057FF054989
:101840000968054AC1F30211515C01F01F01C8404B
:1018500010BD000020440258C4670008494930B553
:10186000484C0B1D0A68143409681D68246802F08E
:101870000303C5F30012C1F30531C4F3CC040029FE
:1018800014FB02F200EE102AF8EE400A75D03F4A2F
:101890009FED3D1AB7EE000A6BB1DFED3D1A012B4B
:1018A00001D0022B64D002EE101A1168F8EE422A21
:1018B00081EEA22A21E0334C283C23689B0612D5F6
:1018C000344B246801EE901A1168C4F3C104F8EE99
:1018D000612AE34001EE903AC1F30801F8EE611A83
:1018E00081EEA22A0BE001EE901ADFED2B2A00BF59
:1018F000F8EE611A116882EEA12AC1F3080101EE27
:10190000901A1168F8EE611A40EE811A71EE800AA1
:1019100062EE200AC1F3462101EE101AB8EE411A18
:1019200031EE001AC0EE811ABCEEE11A80ED001A09
:101930001168C1F3064101EE101AB8EE411A31EEFA
:10194000001AC0EE811ABCEEE11A80ED011A11688E
:10195000C1F3066101EE101AB8EE411A31EE000A29
:1019600080EE801ABCEEC10A80ED020A30BD04E0B0
:1019700001EE901ADFED092ABAE70021016041600B
:101980008160F3E7284402580000003938440258C7
:101990000024744A0090D0030024744C20BCBE4B39
:1019A000494930B5484C0B1D0A681C3409681D684C
:1019B000246802F00303C5F30022C1F30551C4F308
:1019C000CC04002914FB02F200EE102AF8EE400AC3
:1019D00075D03F4A9FED3D1AB7EE000A6BB1DFEDBF
:1019E0003D1A012B01D0022B64D002EE101A1168AF
:1019F000F8EE422A81EEA22A21E0334C283C2368EB
:101A00009B0612D5344B246801EE901A1168C4F37A
:101A1000C104F8EE612AE34001EE903AC1F30801F7
:101A2000F8EE611A81EEA22A0BE001EE901ADFEDCA
:101A30002B2A00BFF8EE611A116882EEA12AC1F3C9
:101A4000080101EE901A1168F8EE611A40EE811A51
:101A500071EE800A62EE200AC1F3462101EE101AEF
:101A6000B8EE411A31EE001AC0EE811ABCEEE11A4E
:101A700080ED001A1168C1F3064101EE101AB8EEAC
:101A8000411A31EE001AC0EE811ABCEEE11A80ED67
:101A9000011A1168C1F3066101EE101AB8EE411A7D
:101AA00031EE000A80EE801ABCEEC10A80ED020A17
:101AB00030BD04E001EE901ADFED092ABAE70021FB
:101AC000016041608160F3E728440258000000395A
:101AD000404402580024744A0090D0030024744CFF
:101AE00020BCBE4B2DE9FE4F0546DFF8E48350F8DD
:101AF000081B0024F64FC943019005F12800264633
:101B000008F12408009008011DD4A86E50B1B0F56A
:101B1000801F0CD0B0F5001F0ED0B0F5401F1ED0B6
:101B200001240FE0386840F40030386017E0019875
:101B3000022101F053FD03E00098022101F0DEFDD7
:101B400004000CD026462888C043C00523D4A86DC5
:101B500005281ED2DFE800F00C11161B1B00AA6E30
:101B6000D8F8001021F440111143C8F80010EAE73A
:101B7000386840F40030386009E00198002101F035
:101B80002DFD03E00098002101F0B8FD044674B17A
:101B900000E0012426462888C043800528D4E86D4B
:101BA00080281ED00CDC90B140280ED114E0AA6D24
:101BB000D8F8001021F007011143C8F80010EAE737
:101BC000C02813D0B0F5807F10D001240FE0386812
:101BD00040F40030386009E00198002101F0FEFC7B
:101BE00003E00098002101F089FD04469CB12646DF
:101BF0002888DFF8DC92C04309F12C0940052CD479
:101C0000D5F8A800B0F5800F20D00DDCA0B1B0F55C
:101C1000001F0FD115E0EA6DD8F8001021F4E07133
:101C20001143C8F80010E3E7B0F5C00F13D0B0F5CA
:101C3000000F10D001240FE0386840F40030386005
:101C400009E00198002101F0C9FC03E0009800219F
:101C500001F054FD04467CB126462888C0430005A7
:101C60002DD4D5F8AC00B0F1007F21D00EDCA8B1A6
:101C7000B0F1807F10D116E0D5F8A820D9F8001077
:101C800021F460011143C9F80010E6E7B0F1407F8C
:101C900013D0B0F1806F10D001240FE0386840F409
:101CA0000030386009E00198002101F097FC03E062
:101CB0000098002101F022FD044674B126462868F0
:101CC000C04380011FD4E86CD8B110280FD0202861
:101CD00012D0302815D0012414E0D5F8AC20D9F862
:101CE000001021F0E0611143C9F80010E7E73868FF
:101CF00040F40030386004E00198022101F06EFCED
:101D0000044674B126462888C043C0042BD4286EEC
:101D1000B0F5005F20D00DDCA0B1B0F5805F0FD131
:101D200015E06B48EA6C2030016821F03001114366
:101D30000160E8E7B0F5405F13D0B0F5804F10D0F8
:101D400001240FE0386840F40030386009E0019861
:101D5000002101F043FC03E00098002101F0CEFCDB
:101D600004468CB126462888C043800429D4686E76
:101D7000B0F5403F23D010DC08B3B0F5803F14D05D
:101D8000B0F5003F0FD115E02A6ED8F8001021F40D
:101D9000E0411143C8F80010E5E7B0F5802F0ED000
:101DA000B0F5A02F0BD001240AE00198012101F029
:101DB00015FC03E00098012101F0A0FC044694B159
:101DC00026462888C04340042AD4D5F8B000B0F194
:101DD000405F23D010DC08B3B0F1805F14D0B0F1C5
:101DE000005F0FD115E06A6ED8F8001021F4E021F1
:101DF0001143C8F80010E4E7B0F1804F0ED0B0F105
:101E0000A04F0BD001240AE00198012101F0E6FB6C
:101E100003E00098012101F071FC044674B12646EC
:101E20002888C04300041FD4286FD8B1B0F1805F68
:101E30000ED0B0F1005F10D0012414E0D5F8B0202E
:101E4000D9F8001021F0E0411143C9F80010E7E78C
:101E5000386840F40030386004E00198012101F056
:101E6000BDFB044674B126462868C043C0011ED499
:101E7000A86CD0B101280ED0022811D0032814D0AC
:101E8000012413E02A6FD8F8001021F040511143CB
:101E9000C8F80010E8E7386840F40030386004E023
:101EA0000198022101F09AFB0446ACB1264628684D
:101EB000DFF81CB0C043ABF11C0B400252D4054804
:101EC000016841F480710160FEF766FE824611E010
:101ED0002C44025800480258FA48AA6C016821F0C4
:101EE000030111430160E2E7FEF756FEA0EB0A0092
:101EF000642835D8F4480068C005F5D58CBBDFF8F8
:101F0000C4A3B5F8B4100AF1240ADAF8000001F409
:101F1000407100F44070884211D0DAF80010DAF80D
:101F2000002021F4407142F48032CAF80020DAF82F
:101F3000002022F48032CAF80020CAF80010D5F838
:101F4000B400B0F5807F1AD1FEF726FE029012E0B1
:101F5000FEF722FE0299411A41F2883081420AD9E5
:101F6000032426462878DFF85CA3C0430AF1080A58
:101F7000C00721D03CE0DAF800008007E8D5D5F8AA
:101F8000B410C1F30120032858460DD0016821F494
:101F90007C510160B5F8B420DAF80010C2F30B02EE
:101FA0001143CAF80010DDE7C84A036802EA1112BB
:101FB00023F47C511143ECE7E86F182816D005DCB8
:101FC000A0B1082808D0102804D10AE020280DD09C
:101FD00028280BD001240AE00198012101F0FEFA23
:101FE00003E00098012101F089FB044664B1264614
:101FF0002878C04380071ED4A86F062819D2DFE8CE
:1020000000F0160C11161616EA6FDAF8001021F01F
:1020100038011143CAF80010EAE70198012101F0E4
:10202000DDFA03E00098012101F068FB04467CB171
:1020300000E0012426462878C04340071FD4D5F885
:102040009400062819D2DFE800F0160C11161616B7
:10205000AA6FDAF8001021F007011143CAF8001046
:10206000E9E70198012101F0B9FA03E000980121A4
:1020700001F044FB0446A4B100E001242646287880
:10208000C04380062BD4D5F89000B0F1405F24D037
:1020900011DC10B3B0F1805F15D0B0F1005F10D14A
:1020A00016E0D5F89420D9F8001021F0070111436B
:1020B000C9F80010E3E7B0F1804F0ED0B0F1A04FA7
:1020C0000BD001240AE00198002101F087FA03E017
:1020D0000098022101F012FB044694B126462878AC
:1020E000C04340062BD4D5F89C00B0F5406F24D0F7
:1020F00011DC10B3B0F5806F15D0B0F5006F10D1C2
:1021000016E0D5F89020DAF8001021F0E0411143F4
:10211000CAF80010E3E7B0F5805F0ED0B0F5A05F1D
:102120000BD001240AE00198002101F057FA03E0E6
:102130000098022101F0E2FA044694B1264628787C
:10214000C04300062BD4D5F8A000B0F5C04F24D072
:1021500011DC10B3B0F5005F15D0B0F5804F10D191
:1021600016E0D5F89C20D9F8001021F4E051114375
:10217000C9F80010E3E7B0F5004F0ED0B0F5204FDE
:102180000BD001240AE00198002101F027FA03E0B6
:102190000098022101F0B2FA044654B1264628788C
:1021A000C04300071ED4D5F88400B0F5805F0AD084
:1021B0000FE0D5F8A020D9F8001021F460411143B8
:1021C000C9F80010EBE70098022101F097FA00B17E
:1021D0000126D5F88420DAF8001021F4405111438B
:1021E000CAF800102878C043C00613D4D5F8980068
:1021F000B0F5807F05D10098022101F07FFA00B18F
:102200000126D5F89820D9F8001021F44071114327
:10221000C9F800102868C043000316D4D5F8A400FC
:1022200038B1B0F5803F09D0B0F5003F0BD00124A4
:102230000AE00198002101F0D1F903E000980221A1
:1022400001F05CFA04468CB126462868C04340037E
:1022500022D4D5F88800B0F5801F11D0B0F5001F4A
:1022600013D0B0F5401F15D0012414E0D5F8A420F8
:10227000D9F8001021F440311143C9F80010E4E707
:10228000386840F40030386004E00098012101F023
:1022900035FA04465CB126462868C043C00323D4FF
:1022A000286DA8B1B0F5803F17D001241BE0D5F808
:1022B0008820DAF8001021F440111143CAF8001008
:1022C000EAE700004C44025800480258CFFFFF00E4
:1022D000386840F40030386004E00198022101F0D1
:1022E0007DF90446E4B126462868C043800005D441
:1022F0000098022101F002FA00B101262868C043CB
:1023000080031BD4D5F88000B0B1B0F5807F0FD02A
:10231000B0F5007F10D0B0F5407F0DD001240CE067
:102320005A482A6D016821F4803111430160DBE7CE
:10233000386840F400303860ECB326462868C04363
:10234000C00207D46A6FD8F8001021F00041114391
:10235000C8F800102868C043C00008D4D5F8B820D9
:10236000DBF8001021F480411143CBF800102868FD
:10237000C043800207D4EA6ED8F8001021F08071C3
:102380001143C8F800102868C04340000CD4DBF8A3
:10239000001021F40041CBF80010DBF80010D5F854
:1023A000BC201143CBF800102868C04308D437483C
:1023B0006A6D016800E018E021F0405111430160AE
:1023C0002868C043000208D4D5F88C20DAF8001041
:1023D00021F440011143CAF8001028790024C043B9
:1023E00000F0010020430AD00FE0D5F88020DAF891
:1023F000001021F440711143CAF800109EE70198C3
:10240000002101F0EBF800B106462879C04300F046
:102410000200204305D10198012101F0DFF800B14D
:1024200006462879C04300F00400204305D10198F6
:10243000022101F0D3F800B106462879C04300F02C
:102440000800204305D10098002101F057F900B1A0
:1024500006462879C04300F01000204305D10098BB
:10246000012101F04BF900B106462879C04300F084
:102470002000044304D10098022101F03FF900B983
:1024800016B10120BDE8FE8F0020FBE74C44025846
:102490002DE9F05F04000F467ED0DFF83882D8F8CF
:1024A000000000F00F00B8420CD2D8F8001021F064
:1024B0000F013943C8F80010D8F8000000F00F00F1
:1024C000B84269D12078844D40070AD5206929682F
:1024D00001F07001884204D9296821F0700101439C
:1024E000296020787C4E361D00070AD56069316866
:1024F00001F07001884204D9316821F07001014374
:1025000031602078C0060AD5A069316801F4E06125
:10251000884204D9316821F4E061014331602078B8
:10252000DFF8B4B180060BF1080B0CD5E169584611
:10253000DBF8002002F07002914204D9026822F018
:1025400070020A430260207880070AD5E068296893
:1025500001F00F01884204D9296821F00F010143DD
:1025600029602078C0073ED05B49A26828681839E6
:1025700020F47060104328606068022818D0032897
:1025800019D00968012819D0490700294ADADFF86B
:1025900048A1AAF1080A00E044E0DAF8002022F09D
:1025A00007020243CAF80020FEF7F6FA814612E05D
:1025B00009688903E9E709688901E6E7C905E4E7ED
:1025C000FEF7EAFAA0EB090141F28830814202D914
:1025D0000320BDE8F09F6168DAF8000000F03800E1
:1025E000B0EBC10FECD1207880070AD5E0682968EC
:1025F00001F00F01884204D2296821F00F01014344
:102600002960D8F80010404601F00F01B9420BD9FB
:10261000016821F00F0139430160006800F00F00EC
:10262000B84201D00120D4E7207840070AD52069BC
:10263000296801F07001884204D2296821F07001F4
:1026400001432960207800070AD56069316801F0EC
:102650007001884204D2316821F070010143316079
:102660002078C0060AD5A069316801F4E06188428B
:1026700004D2316821F4E0610143316020788006A2
:102680000CD5E1695846DBF8002002F07002914257
:1026900004D2026822F070020A43026000F06CF873
:1026A0000E492A682B68C2F3032203F00F038A5CE9
:1026B000C95C02F01F0201F01F01D040084A20FA55
:1026C00001F111600749086007480068BDE8F05F44
:1026D000FEF79EBA0020005218440258C467000852
:1026E000BC000024B8000024B000002430B500F085
:1026F00043F80B4A0B490C4B15681468C5F30322C9
:1027000004F00F048A5C095D02F01F0201F01F0152
:10271000D040064A20FA01F119601060084630BD29
:1027200018440258C4670008BC000024B800002404
:1027300000B5FFF7DBFF05490968054AC1F302113F
:10274000515C01F01F01C84000BD00001C4402584C
:10275000C467000800B5FFF7C9FF05490968054AC5
:10276000C1F30221515C01F01F01C84000BD00000F
:102770001C440258C4670008454970B545480968BB
:10278000434B103B11F0380208D00111082A03D046
:10279000102A0BD0182A0BD0084670BD196889067C
:1027A000FBD51968C1F3C101C84070BD3A4870BD7E
:1027B0003749374D18310C1D24350A6809682668D9
:1027C0002D6802F0030406F00102C1F30511C5F300
:1027D000CC0515FB02F200EE102AB8EE400AE9B370
:1027E0002F4ADFED2E0AB7EE001A6CB1DFED2D1A7D
:1027F000012C01D0022C43D002EE101A1068F8EE22
:10280000422A81EEA22A1EE01C68A40611D51B688C
:1028100001EE901A1168C3F3C103F8EE612AD840A3
:1028200001EE900AC1F30800F8EE611A81EEA22AC7
:102830000BE001EE901ADFED1C2A00BFF8EE611AE2
:10284000106882EEA12AC0F3080001EE900AF8EEAB
:10285000611A40EE201A31EE810A00E015E022EE06
:10286000000A1068C0F34620401C00EE900AF8EE03
:10287000600A80EE201ABCEEC10A10EE100A70BD8C
:1028800001EE901ADFED092AD8E7002070BD0000A4
:10289000104402580090D00340787D0100000039B8
:1028A000304402580024744A0024744C20BCBE4BAF
:1028B0002DE9F05F04007DD0FF4F2078FE4D1837E2
:1028C000DFF8F493103DC00748D0D9F8000039680C
:1028D00000F03800102815D0182803D101F00300AB
:1028E00002280FD06068B0F5803F12D010B1B0F56B
:1028F000A02F18D0286820F480302860286820F4A1
:10290000802009E02868800328D560680028D2D09C
:1029100024E0286840F480302860606888B1FEF7C1
:102920003BF9064609E0286840F480202860F0E77B
:10293000FEF732F9801B64286FD828688003F7D52A
:102940000CE0FEF729F9064605E000BFFEF724F982
:10295000801B6428F0D828688003F7D4207841F2DF
:102960000308D54E0C3E800769D5D9F800003968B8
:1029700010F038000ED0182801D188070AD0E0687E
:1029800090B3296821F0190101432960FEF704F989
:10299000824631E02868400702D5E06800288AD0E6
:1029A000E168286820F0190008432860FEF7F4F871
:1029B000824607E0DFE000BFFEF7EEF8A0EB0A007A
:1029C0000228B9D828684007F6D500BFFEF7DEF820
:1029D00040451BD82069402812D0316821F47C3151
:1029E00041EA003030602AE018E000BFFEF7D4F87A
:1029F000A0EB0A0002289FD828684007F6D5E5E733
:102A0000306820F47C3040F40030EBE7207C316803
:102A100021F0FE4141EA0060E4E70DE1286820F082
:102A200001002860FEF7B8F8824605E0FEF7B4F82A
:102A3000A0EB0A0002288DD828684007F6D4207839
:102A4000C0065DD5D9F80000DFF86CB2396800F037
:102A50003800ABF1040B082810D0182803D101F07E
:102A6000030001280AD0E0690028286838D040F027
:102A700080002860FEF790F8824623E02868C005B1
:102A800023D5E069802876D11FE0206A202821D054
:102A9000316821F0F84141EA8060306030E000BFE9
:102AA00094F82010DBF8002022F07C5242EA016109
:102AB000CBF8001024E000BFFEF76EF8A0EB0A0090
:102AC000022898D82868C005F6D5FEF75FF840457B
:102AD000E6D8DAE7306820F0F84040F08040DCE7E4
:102AE00020F080002860FEF757F8064605E000BF9A
:102AF000FEF752F8801B02289DD82868C005F7D43D
:102B00002078000729D56C48616964300029804627
:102B1000016811D041F001010160FEF73DF8064661
:102B200005E000BFFEF738F8801B0228C9D8D8F8A6
:102B300000008007F6D510E021F001010160FEF7EA
:102B40002BF8064605E000BFFEF726F8801B02289A
:102B500072D8D8F800008007F6D42078800623D5F4
:102B6000A0690028286810D040F480502860FEF743
:102B700013F8064605E036E1FEF70EF8801B022842
:102B80005AD828688004F7D50EE020F480502860D9
:102B9000FEF702F8064604E0FDF7FEFF801B022860
:102BA0004AD828688004F7D4207840074FD5DFF84A
:102BB0000C81D8F8001041F48071C8F80010FDF7BE
:102BC000EBFF064605E000BFFDF7E6FF801B64282B
:102BD00032D8D8F80000C005F6D5374EA068603668
:102BE00001280AD008B1052813D0306820F0010070
:102BF0003060306820F0040002E0306840F00100EE
:102C00003060A06841F2883A90B1FDF7C5FF804678
:102C10000AE0306840F004003060EEE7FDF7BCFFEA
:102C2000A0EB0801514507D830688007F6D50EE0C3
:102C3000FDF7B2FF804607E084E000BFFDF7ACFF80
:102C4000A0EB080151457DD830688007F6D4606A52
:102C5000B0B3DFF86480D9F8001008F120084FF60F
:102C6000F87B08F10409C1F3C2010329A8F1040AA1
:102C700069D00228286820F08070286003D0FDF712
:102C80008BFF044684E0FDF787FF064605E000BFA2
:102C9000FDF782FF801B022877D828688001F7D4CF
:102CA000E26A40F2F331386854F8283F884340EA3A
:102CB00002101843386004E01044025800480258DB
:102CC000B5E0217B434622894FF4FE0C208A4FF069
:102CD000FE474902267D521E401EA1F50071C2F337
:102CE00008088AB2761E0CEA004042EA0802024353
:102CF000504607EA06610A431A60DAF8002022F01B
:102D00000102CAF80020D9F80020266A22EA0B0244
:102D100042EAC602C9F80020DAF80010A26921F0E0
:102D20000C011143CAF800100168E26921F00201A8
:102D300011430160016841F480310160016841F490
:102D4000003101E021E027E00160016841F48021C9
:102D50000160016841F001010160286840F0807065
:102D60002860FDF719FF044605E000BFFDF714FFDA
:102D7000001B022809D828688001F7D557E000BF5A
:102D8000FDF70AFF001B022802D90320BDE8F09FCF
:102D900028688001F4D44AE039680128D8F8000096
:102DA00021D0A26A01F0030393421CD1E26AC1F36D
:102DB00005118A4217D1216BC0F30802491E8A42CD
:102DC00011D1616BC0F34622491E91420BD1A16B18
:102DD000C0F30642491E914205D1E16BC0F3066083
:102DE000491E814201D00120D0E7A16C4E46D9F89E
:102DF0000000C0F3CC00814219D0DAF8000055463B
:102E000020F00100CAF80000FDF7C6FE4FEA0007F7
:102E1000FDF7C2FEB842FBD0A26C306820EA0B007E
:102E200040EAC2003060286840F0010028600020BD
:102E3000ACE7704770477047704770472DE9F8431B
:102E400004460068E56A416B09041BD5290719D5BA
:102E5000D4E90950202813D30026206800F0A1FDF2
:102E6000020A2870010C6A70030EA970761CEB70C0
:102E7000082E05F10405F0D3A06A2038C4E90950F2
:102E8000BDE8F883416B0127DFF8EC810026C90516
:102E900051D539024CF23A12816329072068C16B7F
:102EA00021EA0201C1632068C16B21F08051C16336
:102EB0002068C16821F04001C16018D515F0220FCB
:102EC00009D0206800F0AEFC28B1616B014361635A
:102ED0002046FFF7B2FF2168AA07C1F8388084F8BE
:102EE0003070E66223D1204600F0D4F8C8E7280607
:102EF000C6D5206815F0220F86622068C662206859
:102F0000066509D0206800F08DFC28B1616B014393
:102F100061632046FFF791FF15F0300F84F83070A1
:102F2000E66202D0204600F0B5F8A807A8D02046F7
:102F300000F0A4F8A4E7416B490421D529071FD567
:102F4000D4E9075020289BD3002628780090697880
:102F500040EA01200090A97840EA01400090E97819
:102F60002D1D40EA016000902068694600F030FDA8
:102F7000761C082EE9D3206A2038C4E907507FE781
:102F8000416B11F03A0F416B58D0890703D5616B43
:102F900041F002016163416B090703D5616B41F0A8
:102FA00008016163416B890603D5616B41F0200123
:102FB0006163416BC90603D5616B41F01001616328
:102FC000C0F838802068C16B21F49D71C16320680E
:102FD000C16821F04001C1602068C16A41F400511C
:102FE000C1622068C16841F08001C160206800F0C2
:102FF00019FC626B2B074FF4006140EA020060632A
:103000002068C26822F08002C2602068816303D514
:1030100084F83070E6620DE028068BD5606B0028DE
:1030200088D02068C16B21F08051C163206806659B
:1030300084F830702046FFF700FF21E7C9009ED5D5
:103040004FF0805181632068006D40074FEA856032
:1030500008D40028204602DAFFF7EEFE10E7FFF75B
:10306000E9FE0DE70028204602DAFFF7E4FE07E755
:10307000FFF7DFFE04E700003A0F0018044910B51F
:10308000884201D0012000E00020FDF70FFC10BDB8
:1030900050010024044910B5884201D0012000E00D
:1030A0000020FDF704FC10BD50010024401EB0F1CB
:1030B000807F10B501D3012010BD4FF0E024606186
:1030C0000F21601702F076FE0020A0610721216128
:1030D00010BD30B590F88410012918D0012280F875
:1030E00084202421C0F888100022202401680B6865
:1030F0000D6823F0005325F001050D60426601685C
:103100000B60C0F8884080F88420104630BD022053
:1031100030BD70B5044690F8840001281DD001220E
:1031200084F884202420C4F8880020680568026898
:1031300022F0010202602068826822F060620A4385
:103140008260204600F028FD2268202100201560C2
:10315000C4F8881084F8840070BD022070BD70B57A
:10316000044690F8840001281DD0012284F88420B0
:103170002420C4F8880020680568026822F0010253
:1031800002602068826822F060420A438260204622
:1031900000F002FD2268202100201560C4F888108C
:1031A00084F8840070BD022070BD10B5040003D007
:1031B000D4F8880010B107E0012010BD002084F889
:1031C0008400204600F026F82420C4F888002068F7
:1031D000016821F001010160204600F0E3FD0128B3
:1031E000EBD0A06A10B1204600F0F8FC20684168DE
:1031F00021F4904141602068816821F02A018160BA
:103200002068016841F0010101602046BDE81040DE
:1032100000F048BD10B5B6B00446142130A8FDF743
:10322000A1F8C0216846FDF79DF81A492068884238
:103230002DD100201F9001210446CDE900106846E1
:10324000FEF750FC08B1FDF770FB1348016841F030
:1032500010010160006800F0100035900E48103831
:10326000016841F00101016000680DF1C00C02210C
:1032700000F0010035904FF4C06007238CE8130084
:1032800003220648CDE9332330A9FDF763FB36B0AE
:1032900010BD000000100140F04402580000025828
:1032A000FEE70000F0B500230A251C46302637272C
:1032B00011E000BFB5EB107F02D906EB107C01E0F6
:1032C00007EB107C01F813C001EB430C00015B1C01
:1032D0008CF80140DBB29342ECD3F0BD30B587B03F
:1032E00014216846FDF73EF82248016841F01001BC
:1032F0000160016801F010010591016841F00401CD
:103300000160016801F004010591016841F080014C
:103310000160016801F080010591016841F001013F
:103320000160016801F001010591016841F00201AD
:103330000160016801F002010591016841F0080196
:10334000016000684FF400540B4D002200F00800AB
:10335000214605902846FDF713FC0021009401202A
:10336000CDE90101284603916946FDF7F3FA07B05C
:1033700030BD0000E04402580008025818480021FF
:1033800010B5164C0C224FF4E1330460C0E9013152
:10339000C160C0E904128161C16101624162816260
:1033A000FFF703FF08B1FDF7C0FA0D480021FFF752
:1033B000D6FE08B1FDF7B9FA09480021FFF7A9FECA
:1033C00008B1FDF7B2FA0648FFF783FE002803D0E4
:1033D000BDE81040FDF7A9BA10BD00000010014083
:1033E000CC01002470B519490022194801F01EFBD8
:1033F00008B1FDF79AFA1749154801F035FD08B1F3
:10340000FDF793FA1449124801F0B6F808B1FDF738
:103410008CFA0F4801F0AEFD08B1FDF786FAFEF711
:1034200003FA4FF47A75FDF7B7FB094E044604E042
:10343000FDF7B2FB001BA84203D896F89C020328B4
:10344000F6D1BDE87040C820FDF772BA44000024F0
:10345000600200241801002498000024FEE7FEE723
:103460000148FDF7A5BD00005C1900242DE9F041DD
:103470000446C0680D462027236801284FF4004603
:1034800004F2C44203EB4511D3F840C0D1F8080B55
:1034900009D0DFF89CE0F4453AD1020433D500BFEF
:1034A000C1F8086B40E0234B5FEA007E04D59C45E1
:1034B0003AD90004F4D437E05FEA806E02D5C1F84F
:1034C000087B31E010F0280F2ED19C4501D9000473
:1034D000E6D4D1F8101B05EBC50004EB8000C1F366
:1034E0001201D0F89C32A3EB0101C0F8901200F554
:1034F0001F70ADB903691BB1C2681144C1600FE010
:10350000206801210AE080060AD5C1F8087B07E09F
:1035100035B9D4F88C0218B90021184602F0AAF87F
:103520002046E9B2FDF72BFC0020BDE8F081000049
:103530000A31544F0A30544F2DE9F84F0E460568B2
:10354000814601EBC60100EB8104D4E913203C3431
:10355000904202D90120BDE8F88FA168101A81427B
:1035600000D20846C01C05EB461887081BE000BFC8
:10357000A268A0EB010A524500D2924699F80C10BD
:103580000AF1030000911FFA8AF3E16887082846D0
:10359000F2B202F0B5FBE16801EB0A00E06061699C
:1035A00001EB0A006061D8F8180980B2B84205D36F
:1035B000D4E90401814201D20028D9D1D4E904011F
:1035C000884208D8D5F83418012006F00F02904040
:1035D0008143C5F834180020BDE770472DE9F04756
:1035E000454D044689464FF0000A2868C0438007CD
:1035F0000AD0414E283E306820F080603060FDF7F0
:10360000CBFA0746B04608E00120BDE8F08700BFCE
:10361000FDF7C2FAC01B022867D8D8F800000001E5
:10362000F6D4206829684FF4FE0721F47C313E026D
:1036300041EA00302860207AA389B4F804C040022F
:103640002D4D2D495B1E227CACF1010C1035091D5E
:10365000A0F5007080B2521ECCF3080C07EA0343B9
:1036600040EA0C00184306EA02621043286008682A
:10367000626920F0C000104308600A68A06922F067
:10368000200202430A60281D0A6822F010020A6024
:1036900002684FF6F873E4699A4342EAC402026092
:1036A0000868B9F1000F40F010020A6011D00868F4
:1036B000B9F1010F11D040F400100860D8F80000F3
:1036C000444640F08060C8F80000FDF765FA054602
:1036D0000DE0086840F40020EFE740F48010ECE7CC
:1036E000FDF75AFA401B022801D903208DE7206814
:1036F0000001F5D5504688E7284402582DE9F047E7
:10370000454D044689464FF0000A2868C0438007AB
:103710000AD0414E283E306820F080503060FDF7DE
:103720003BFA0746B04608E00120BDE8F08700BF3D
:10373000FDF732FAC01B022867D8D8F800008000D5
:10374000F6D4208829684FF4FE0721F07C713E02F0
:1037500041EA00502860207AA389B4F804C04002EE
:103760002D4D2D495B1E227CACF1010C1835091D35
:10377000A0F5007080B2521ECCF3080C07EA034398
:1037800040EA0C00184306EA026210432860086809
:10379000626920F44060104308600A68A06922F45E
:1037A000007202430A60281D0A6822F480720A60CF
:1037B00002684FF6F873E4699A4342EAC402026071
:1037C0000868B9F1000F40F480720A6011D00868EF
:1037D000B9F1010F11D040F080700860D8F80000F6
:1037E000444640F08050C8F80000FDF7D5F9054682
:1037F0000DE0086840F48000EFE740F40000ECE7DB
:10380000FDF7CAF9401B022801D903208DE7206883
:103810008000F5D5504688E7284402580020FFF77D
:103820000DBB000010B585B004464FF48072002037
:103830000C2113018DE80700CDE90303E06840F097
:103840008000E060E06820F04000E06069462046CB
:1038500000F0AAF8074A0C21204600F00DF8E168B4
:10386000B0F1007F21F08001E16000D1002005B0BF
:1038700010BD000000E1F50530B5464D4FF4FA5398
:10388000434C2D68B5FBF3F353435B1E02D24FF05C
:10389000004030BD426B2242F7D09204F5D4426B17
:1038A000520703D504218163084630BD426BD2071D
:1038B00002D00121816306E0354A803282630269C9
:1038C000D2B28A4201D0012030BD002100F066F85A
:1038D0003149084201D1002030BD002802DA4FF002
:1038E000007030BD410001D5402030BD810001D5C0
:1038F000802030BDC10002D54FF4807030BD010181
:1039000002D54FF4007030BD410102D54FF4806004
:1039100030BDC10102D54FF4006030BD010202D5B7
:103920004FF4805030BD410202D54FF4005030BDFD
:10393000810202D54FF4804030BDC10202D54FF460
:10394000004030BD410302D54FF4003030BD81034B
:1039500002D54FF4802030BDC10302D54FF40020C2
:1039600030BD010402D54FF4801030BD410402D5B2
:103970004FF4001030BD810402D54FF4800030BDFB
:10398000000702D54FF4000030BD4FF4803030BD49
:1039900045002000B800002408E0FFFD084440690D
:1039A0007047D0F88000704770B5084D0A68826093
:1039B000C368D1E90126D1E903412B4032430C43CE
:1039C00022431343C360002070BD0000C0E0FEFF2F
:1039D0000968C0F88010002070477047017840786F
:1039E00041EA00207047FDF7DDB80000F0B5CDB02A
:1039F0004C2130A8FCF7B6FC202143A8FCF7B2FC10
:103A0000C0216846FCF7AEFC0220FDF7E3FE294822
:103A100000242949026842F44042026002680A68B0
:103A200042F001020A60096801F001014B9101684E
:103A30008904FCD5022039902121C20301230526E7
:103A4000CDE930123AAA3693C027042182E8C1009A
:103A5000CDE93D0108253F90CDE9405430A842947E
:103A6000FEF726FF08B172B6FEE740204A903F21DC
:103A70000301CDE946500322CDE9480343AB43A8F7
:103A800083E816000421FEF703FD08B172B6FEE7D5
:103A900000204FF480214FF440122292CDE9001013
:103AA0006846FEF71FF808B172B6FEE7FDF7BCFEE8
:103AB0004DB0F0BD184802582C0400582C48F0B501
:103AC0002C4A016841F470010160106800F00F0099
:103AD000072804D2106820F00F00C01D106026498E
:103AE0000020254C10340B68244D43F001030B607B
:103AF00020600B682B400B60136803F00F03072B4B
:103B000004D9136823F00F03DB1D13601A4C1C4A01
:103B100018341C4B261D371D2060174C1A4D2834B5
:103B20003060261D3860371D23603B1D35601C1D2D
:103B30003A60251D2E1D1860331D226028603260FA
:103B400018600A680C4B114C22F4802260330A6022
:103B5000186020686FF30F00B0F1005F03D20C49CA
:103B60000120C1F8080143F2D2000A490860F0BD03
:103B700088ED00E000200052004402587FEDF6EA94
:103B800080020101000202020000FF010010005C3F
:103B9000008000510040005230B5416EB9B101685B
:103BA0000D4B03F108048A688968C2F34262490F29
:103BB0005D5C615C2D01B5FBF1F1A0F86A10995CC8
:103BC000A25C0901B1FBF2F1A0F8681030BD01213F
:103BD000A0F86A10F8E70000B467000890F8281011
:103BE000C90706D00168C36A4A6822F400321A4342
:103BF0004A6090F82810890706D50168036B4A6867
:103C000022F480321A434A6090F82810490706D5FA
:103C10000168436B4A6822F480221A434A6090F894
:103C20002810090706D50168836B4A6822F4004210
:103C30001A434A6090F82810C90606D50168C36B7C
:103C40008A6822F480521A438A6090F82810890604
:103C500006D50168036C8A6822F400521A438A6010
:103C600090F82810490611D50168436C4A6822F47F
:103C700080121A434A60416CB1F5801F06D1016879
:103C8000836C4A6822F4C0021A434A6090F82810F4
:103C9000090606D50168C26C486820F4002010436C
:103CA000486070472DE9F84300250446C0F890505D
:103CB000FCF772FF8046206820266FF07E47006880
:103CC000000713D50022434631042046009700F038
:103CD0003FFA58B1216851E8000F20F0800041E818
:103CE0000002002AF6D1C4F8886021E0206800684C
:103CF000400722D5002243464FF48001204600971A
:103D000000F026FAC8B1206850E8001F21F4907135
:103D100040E80012002AF6D12068083050E8001F61
:103D200021F0010140E80012002AF5D1C4F88C60AE
:103D3000032084F88450BDE8F883C4F88860C4F890
:103D40008C60E5662567002084F88450F3E7000066
:103D500010B5026852E8001F21F4907142E8001388
:103D6000002BF6D10E4B0268083252E8001F1940B2
:103D700042E80014002CF6D1C16E012908D1026876
:103D800052E8001F21F0100142E80013002BF6D189
:103D900000212022C0F88C20C166416710BD0000C0
:103DA000FEFFFFEF2DE9F04304468068D84E87B050
:103DB000D84B2168D4E90427D4F81CC010430A6802
:103DC000002547EA0C073843324002430A60206866
:103DD000E268416821F44051114341602268A169C1
:103DE0009A4201D0206A01439768DFF82CC3CB4E7A
:103DF000CB4807EA0C070F4397602168676ACA6AD5
:103E000022F00F023A43CA622268B2420ED1006821
:103E100000F03800182873D047DCB8B3082879D0F0
:103E200010286FD178E028287ED17BE0BD498A42F6
:103E300009D1006800F00700062875D2DFE800F01D
:103E4000546A6C6E7072B8498A4209D1006800F0F9
:103E50000700062868D2DFE800F0475D5F61636510
:103E6000B2498A4209D1006800F0070006285BD2F7
:103E7000DFE800F03A5052545658AD498A420BD10F
:103E8000006800F0070006284ED200E010E0DFE8EE
:103E900000F02B4143454749A6498A420AD10068B0
:103EA00000F03800182839D0B7DD2028BBD13CE01D
:103EB00001203AE0A0498A4209D1006800F00700D9
:103EC000062831D2DFE800F01026282A2C2E9B4944
:103ED0008A420BD1006800F00700062824D2DFE8F0
:103EE00000F003191B1D1F2100201EE09A421BD168
:103EF0008B48001D006800F00700062814D202E07D
:103F00000CE007E010E0DFE800F0030507090B0D07
:103F100002200AE0042008E0082006E0102004E067
:103F2000202002E0402000E080208549DFF8148254
:103F30009A42854A4FF400434FEA21174FF000069A
:103F40004ED110281AD006DC022809D004280BD044
:103F500008287CD10DE020283ED0402877D13DE0D4
:103F6000FDF76AFC014610E06846FDF777FC019911
:103F70000BE003A8FDF714FD049906E01068800625
:103F800005D51068C0F3C100C140002970D0606A37
:103F9000676838F8102007EB4703B1FBF2F0834263
:103FA00055D8B0EB073F52D8002308461946FCF716
:103FB0008FF902467808130E120243EA0121101805
:103FC0003A4671410023FCF783F9604AA0F540713D
:103FD00091423CD821688FE03946D8E71946D6E7A8
:103FE000D4F81CC04FF6EF799C4546D1082819D06B
:103FF00005DC58B101280CD0042875D10DE010283B
:1040000015D0202835D040286ED134E0FEF790FB43
:1040100001E0FEF79FFB014610E06846FDF71EFC3D
:1040200001990BE003A8FDF7BBFC049906E01068BA
:10403000800604D51068C0F3C100C140C1B1636AF5
:10404000606838F81330B1FBF3F1490000E04BE051
:1040500001EB5001B1FBF0F0A0F11001494543D84C
:104060004FF6F0732168C0F342021840104343E05A
:1040700043E03946E3E71946E1E7082819D005DCB3
:1040800058B101280CD004282ED10DE0102815D0ED
:1040900020282BD0402827D12AE0FEF749FB01E059
:1040A000FEF758FB014610E06846FDF7D7FB019983
:1040B0000BE003A8FDF774FC049906E01068800685
:1040C00004D51068C0F3C100C140B1B1636A606833
:1040D00038F81330B1FBF3F101EB5001B1FBF0F014
:1040E000A0F11001494505D9012506E03946EDE763
:1040F0001946EBE7216880B2C8600120A4F86A0085
:10410000A4F8680028466667A66707B0BDE8F08394
:10411000F369FFCF000C0058FFF4FF1100100140BD
:10412000544402580044004000480040004C004005
:10413000005000400014014000780040007C004026
:104140000090D0039C67000800440258FFFC0F0059
:104150002DE9F047994617460E460446089D4FF054
:1041600000082FE0681C2DD0FCF716FDA0EB09001D
:10417000A84214D89DB120680168490722D5C169B9
:10418000C94309070DD4082505622046FFF7E0FD65
:10419000C4F89050012084F88480BDE8F0870320A3
:1041A000FBE7C069C04300050CD421684FF40060F0
:1041B00008622046FFF7CCFD2021C4F8901084F857
:1041C0008480ECE72068C06936EA000004D0002053
:1041D000B842C7D00020E0E70120F9E72DE9F0411F
:1041E0000C46D0F8D412D0F8C83200EB8101D1F8D7
:1041F000C01229B304F00F02002702EB820500EB86
:104200008506B5694DB102EBC20203EB8202526C26
:10421000B5FBF2F302FB1352A2B1C1F81472D0F84D
:10422000D42200EB8200D0F8C40203692BB1D1F88C
:10423000080201F50471224698470020BDE8F0818C
:104240000320FBE7002321461A46B76100F0EEFD8C
:10425000F3E770B50546D0F8D40205EB8000D0F83E
:10426000C04294B1284600F0BCFCC4F80C02D5F85A
:10427000D40205EB8000D0F8C412D4F80402CA6856
:1042800004F503719047002070BD032070BD00004D
:1042900070B5224D0446297800F0E4FB287800260A
:1042A00000F00F0000EB800004EB800086842046C5
:1042B000697800F0D7FB687800F00F0000EB800011
:1042C00004EB8000A0F864612046A97800F0CAFBE6
:1042D000A87800F00F0000EB800004EB80008684DB
:1042E000C684D4F8D40204EB8000D0F8C01299B18F
:1042F000D0F8C40240688047D4F8D40204EB8000B0
:10430000D0F8C00200F0BBFFD4F8D40204EB800068
:10431000C0F8C062C4F8BC62002070BDC4000024B4
:1043200010B5D0F8D41200EB8100D0F8C04284B1AF
:10433000D0F8C41259B194F80002FF2807D08B6856
:10434000214694F801229847FF2084F800020020BB
:1043500010BD032010BD00000A21018000487047F5
:10436000C800002470B5822106460D4800F009FB04
:10437000012105460A4800F004FB81210446084853
:1043800000F0FFFA0DB11021A9714FF0400104B106
:10439000A18000B1818043203080014870BD0000C1
:1043A000D400002470B5822106460D4800F0E9FAD9
:1043B000012105460A4800F0E4FA81210446084834
:1043C00000F0DFFA0DB11021A9714FF4007104B1B2
:1043D000A18000B1818043203080014870BD000081
:1043E000D400002470B5822106460D4800F0C9FAB9
:1043F000012105460A4800F0C4FA81210446084814
:1044000000F0BFFA0DB11021A9714FF0400104B1C5
:10441000A18000B1818043203080014870BD000040
:10442000D40000242DE9F0474FF4077504462846D0
:1044300000F026FF06004FF0000965D02946FBF783
:1044400091FFD4F8D40201273C4D4FF4007A4FF08D
:10445000100804EB8000C0F8C062C4F8BC62207C85
:10446000F0B3297840230222204600F029FC287866
:10447000402300F00F0000EB800004EB80008784F5
:1044800002226978204600F01BFC69780823032289
:10449000204601F00F0101EB810104EB8101A1F83D
:1044A0006471A97801F00F0101EB810104EB810136
:1044B000A1F82680A97800F003FCA978C84601F08D
:1044C0000F0101EB810104EB81018F84C6F8049296
:1044D000D4F8D40204EB8000D0F8C402006800E0F5
:1044E0001AE006F501768047C6F81080C6F81480F9
:1044F00032687AB1207CF8B140236978204600F018
:10450000EBFB0020BDE8F087D4F8D41204EB810166
:10451000C1F8C0920220F5E72978022253462046CE
:1045200000F0CEFB2878534600F00F0000EB80002F
:1045300004EB80008784A3E75346DEE7C400002431
:1045400010B5D0F8D41200EB8101D1F8C01259B1E6
:10455000027C084C002AD1F8042207D0402361785D
:1045600000F0BAFB002010BD032010BD4FF4007313
:10457000F5E70000C400002439B1D0F8D42200EBE4
:104580008200C0F8C4120020704703207047D0F8A2
:10459000D42200EB8200D0F8C00218B1C0F8041297
:1045A0000020704703207047D0F8D43200EB83001E
:1045B000D0F8C00228B1C0F81022C0F808120020BC
:1045C0007047032070472DE9FC410646D0F8D4021D
:1045D0000C46002106EB80000D46D0F8C0728DF825
:1045E0000010ADF8041037B1217811F060022CD022
:1045F000202A48D102E00320BDE8FC81E288E2B134
:1046000009060BD5D0F8C40239468368607898470C
:10461000E288072A00D9072239462CE0607887F81B
:104620000002E088402800D340203946C2B230461C
:1046300087F8012200F07FF82AE0D0F8C4020022B7
:10464000214683686078984722E0607830B101287D
:104650001ED00A2809D00B2815D110E096F89C022C
:10466000032810D1022201A905E096F89C02032834
:1046700009D101226946304600F077F808E096F843
:104680009C02032804D02146304600F049F8032557
:104690002846B1E710B5D0F8D41200EB8102012111
:1046A000D2F8C0221AB1D2F8143213B116E00320A6
:1046B00010BD0B490123C2F81432D2F81032097828
:1046C00001F00F0404EB840400EB8404A361D2F82E
:1046D0001032D2F8082200F0A9FB0021084610BDD4
:1046E000C400002410B5D0F8B822002452689047C6
:1046F00000B10324204610BD002070470020704701
:1047000013460A46002110B500F0E6FA002010BD5D
:1047100013460A46002110B500F088FB002010BDAA
:1047200010B58021044600F062FB2046BDE8104031
:10473000002100F05CBB10B5C0F858210323C0F87D
:104740009432C0F85C2113460A46002100F0C4FAF6
:10475000002010BD10B50521C0F8941200231A46A0
:10476000194600F0B9FA002010BD10B5826102238D
:10477000C0F89432C26113460A46002100F056FB8D
:10478000002010BD10B50421C0F8941200231A4671
:10479000194600F04BFB002010BD000004A00A46A3
:1047A000024910B500F011F9004810BD3C05002485
:1047B00043444320436F6E666967000012200880FF
:1047C000004870476800002404A00A46024910B55A
:1047D00000F0FBF8004810BD3C0500244344432092
:1047E000496E74657266616365000000042008808C
:1047F000004870476400002404A00A46024910B52E
:1048000000F0E3F8004810BD3C05002453544D6906
:1048100063726F656C656374726F6E6963730000B9
:1048200004A00A46024910B500F0CFF8004810BDB8
:104830003C05002453544D3332205669727475611F
:104840006C20436F6D506F727400000010B51A2019
:1048500008800B480A490830021F0968006814687C
:10486000081809D007490822FEF71CFD0549042253
:1048700020461031FEF716FD0248801E10BD0000D4
:1048800000E8F11F7E000024F8B504460D46002024
:10489000ADF800004888010A062947D006DC012946
:1048A0000FD0022912D0032962D11DE0072946D07A
:1048B0000F295DD1D4F8B402C26920E0694690475F
:1048C0003BE0D4F8B412207C0A68F7E7207C02268B
:1048D0000028D4F8B80205D0C16A68468847014666
:1048E000467036E0816AF8E7C0B2062840D2DFE8B9
:1048F00000F003090D111519D4F8B4024268B2B3DF
:10490000207CDBE7D4F8B4028268F8E7D4F8B4027C
:10491000C268F4E7D4F8B4020269F0E7D4F8B4024C
:104920004269ECE7D4F8B4028269E8E7207CF0B988
:10493000D4F8B802416B68468847014609E0207CFC
:10494000A8B9D4F8B802016B684688470146072029
:104950004870EA888AB1BDF8000040B1824200D9AF
:1049600002462046ADF80020FFF7FFFEF8BDFFE746
:1049700029462046FFF7D4FEF8E72046FFF702FF5E
:10498000F4E778B542880D460178002604468A424D
:1049900012D9ADF800100AE0694600F00FF841782E
:1049A000052904D181780646A94205D000266188F0
:1049B000BDF800209142EFD8304678BD0A880378D0
:1049C0001A440A8001780844704770B500284FF0F7
:1049D00000051ED004462E4602E0761C641CF6B28A
:1049E0002378002BF9D1022404EB460414801278BA
:1049F0006B1C03264A550024AA1CCE5406E0551C05
:104A00008B54EAB2531C401C8C54DAB20378002B4E
:104A1000F5D170BD01004FF0000004D0012901D094
:104A2000022901D0032070470120704778B100238C
:104A3000C0F8B832C0F8C432C0F8D03209B1C0F8FA
:104A4000B4120121027080F89C1200F0CFB803204C
:104A5000704710B5D0F8C802FCF7D4F9BDE8104093
:104A6000FFF7D8BF10B5D0F8C802FCF7A5F9BDE82C
:104A70001040FFF7CFBF2DE9F041174604464FF035
:104A8000000521B194F89C02032842D04CE0D4F8F0
:104A9000941204F11400022935D1D0E902639E4238
:104AA00006D9F21A394682602046FFF731FE0FE040
:104AB000B34214D14068984211D3D4F89812884276
:104AC0000DD2002220461146FFF722FEC4F898526C
:104AD00000231A461946204600F0FEF813E094F829
:104AE0009C02032808D1D4F8B802C16821B1C4F8E7
:104AF000D452C168204688478021204600F077F9CB
:104B00002046FFF727FE94F8A00268B184F8A0526F
:104B10000AE0D4F8B802426932B1C4F8D45242690A
:104B200020469047002800D10020BDE8F08170B5F4
:104B3000134604464FF0000221B194F89C0203286A
:104B400030D03AE0D4F8941204F5AA70032934D195
:104B5000D0E902518D420AD96A1A8260084682421F
:104B600000D3024619462046FFF7CAFD25E094F817
:104B7000AA0210F01F0003D0012802D0022800D0A2
:104B8000002294F89C02032808D1D4F8B8020169E5
:104B900021B1C4F8D4220169204688472046FFF796
:104BA000F1FD0AE0D4F8B802836933B1C4F8D42225
:104BB000826920469047002800D1002070BD002067
:104BC000704710B5D0F8B812012280F89C2200245A
:104BD00029B103794A68D9B2904700B1032420462D
:104BE00010BDD0F8C802FCF73BB9000070B50178E1
:104BF00039BB154902230022144C0925C1F80805C8
:104C0000C0F8C8120846C1E90323C1E906320A62A6
:104C10004A628A62CA620A63C1E90045FCF79EFCE7
:104C200008B1FBF782FE08488021FCF774F80648BB
:104C300040220021FCF773F8034880220121FCF791
:104C40006EF8002070BD00005C19002400000840D0
:104C5000D0F8C82201F07F000B0600EBC00002EB89
:104C6000800002D590F83E00704790F87E027047B1
:104C700010B5D0F8D42200EB8202D2F8B82222B1CB
:104C800090F89C32032B02D004E0032010BD126A7E
:104C900002B19047002010BD10B5D0F8D42200EB2F
:104CA0008202D2F8B82222B190F89C32032B02D0B3
:104CB00004E0032010BD526A02B19047002010BDED
:104CC00010B51C46D0F8C80213462246FCF7D1F8AE
:104CD000BDE81040FFF79EBE10B5D0F8C802FCF743
:104CE000F8F8BDE81040FFF795BE2DE9F041044605
:104CF00001250020D4F8B812064684F89C52C4F866
:104D000094026060C4F8A40284F8A00231B14A6839
:104D100022B100212046904700B103262046002200
:104D200040231146FFF7CCFF4027A4F8645100222E
:104D30003B4680212046C4F86071FFF7C1FFA5847F
:104D400030462762BDE8F08190F89C12042903D117
:104D500090F89D1280F89C120020704710B590F8D2
:104D60009C12032905D1D0F8B81211B1C96901B15B
:104D70008847002010BD01740020704710B5D0F89E
:104D8000C802FCF7D3FCBDE81040FFF743BE70B586
:104D9000044600F2AA20054600F051F894F8AA0251
:104DA0000123B4F8B01210F01F02C4F89432C4F812
:104DB00098120AD0012A0ED0022A12D000F08001E7
:104DC0002046BDE8704000F012B829462046BDE8F4
:104DD000704000F0D1B829462046BDE8704000F090
:104DE00014BA29462046BDE8704000F05CB910B501
:104DF000D0F8C802FCF787F8BDE81040FFF70ABEFC
:104E000010B5D0F8C802FCF7ACFCBDE81040FFF7C5
:104E100001BE90F89C12042903D090F89C1280F8EF
:104E20009D12042180F89C120020704710B5D0F824
:104E3000C802FCF7A2F8BDE81040FFF7EBBD70B563
:104E4000054608788C1C2870487868702046FEF764
:104E5000C5FDA41C68802046FEF7C0FDA880A01CEC
:104E6000FEF7BCFDE88070BD38B504460020ADF803
:104E70000000A1B1C4F8B812D4F8D40204EB800049
:104E8000D0F8B802C16A19B168468847C4F8D002A0
:104E9000D4F8D802401CC4F8D802002038BD032042
:104EA00038BDD0F8B83202460020002B02D01B6873
:104EB00010461847704700002DE9F0412C4E04467B
:104EC000887800258846C1B20129317006D941464B
:104ED0002046FFF725FC0320BDE8F08194F89C02F2
:104EE000022702280CD003281DD041462046FFF798
:104EF00017FC31782046FFF7F5FB03252846EBE742
:104F000089B320466160FFF7CCFF050004D041461D
:104F10002046FFF705FC1DE02046FFF733FC032089
:104F200084F89C02EAE7C1B1606888421BD0C1B234
:104F30002046FFF7D7FB317820466160FFF7B1FFCD
:104F4000050010D041462046FFF7EAFB21792046B4
:104F5000FFF7C8FB84F89C72D0E7616084F89C720C
:104F60002046FFF7BFFB2046FFF70CFCC6E700001A
:104F7000C0000024FFF744BF2DE9F0410A784FF04C
:104F8000000512F060020CD0202A01D0402A7DD109
:104F9000D0F8D42200EB8202D2F8B822926890476F
:104FA00031E04B78002201260A2B6FD2DFE803F0B4
:104FB00041666E586E08056E2D29FFF765FC67E0A7
:104FC00004468888D8B9C888C8B94888802816D2C5
:104FD00094F89C2200F07F07032A10D0394620461F
:104FE00084F89E72FFF7CAFE2046FFF7CBFB1FB185
:104FF000022084F89C024BE084F89C6248E0204642
:1050000044E0FFF759FF054642E0CB88012B3DD134
:1050100090F89C32012B04D0022B02D0032B35D107
:1050200004E000F108018260012216E00122011D66
:1050300013E090F89C22012A03D0022A01D0032A0F
:1050400024D1CA88022A21D1D0F8A412C66009B19D
:105050000321C160022200F10C01FFF786FB17E07B
:105060004A88012A02D0022A03D00FE0C0F8A462C5
:1050700016E08988090A80F8A01211E090F89C32A5
:10508000012B08D0022B06D0032B04D0FFF748FBDE
:105090002846BDE8F08149880129F9D1C0F8A42249
:1050A000FFF770FBF4E72DE9F0410A780E46097925
:1050B000054612F060004FF00008CCB20BD020285B
:1050C00001D040286AD121462846FFF715FBFF286A
:1050D00000D0D8B396E07078C8B3012824D0032854
:1050E0005CD195F89C02022802D0032856D10CE02E
:1050F000002C53D0802C51D021462846FFF777FE54
:1051000080212846FFF773FE7CE0708840B93CB1EF
:10511000802C05D0F08818B921462846FFF767FE95
:105120002846FFF72FFB6DE095F89C020228DFD0A0
:10513000032863D1708880BB600603D021462846CF
:10514000FFF787FC2846FFF71DFBBCE700E00AE0FD
:10515000C5F8D402D5F8B8028268F2B131462846C3
:10516000904780464EE095F89C020027022802D026
:10517000032843D113E00CB1802C3FD1200604F06A
:105180007F0000EB800005EB800101D5143101E0C8
:1051900001F5AA7102220F602CE033E02EE0200618
:1051A00004F00F0000EB800005EB800009D5808C37
:1051B00020B304F07F0000EB800005EB800614367E
:1051C0000AE0B0F86401C8B104F07F0000EB800091
:1051D00005EB800606F5AA764CB1802C07D0214657
:1051E0002846FFF735FD10B10120306000E0376040
:1051F000022231462846FFF7B8FA03E03146284636
:10520000FFF78EFA4046BDE8F08170B50546087894
:105210000E464FF0000410F0600003D0202801D0AB
:10522000402827D195F89C02012803D0022801D0FC
:1052300003281FD1B088C1B201291AD8C1B22846AB
:10524000FFF75CFAFF280CD058B9D5F8B8128A6875
:105250003AB1C5F8D40228468A68314690470446D8
:1052600000E00324F088204307D12846FFF78AFA9C
:1052700003E031462846FFF753FA204670BD7047D9
:10528000004870473C17002470B54D7801230A7818
:10529000012D1C4C02F00F0503FA05F3D0F81C5841
:1052A00017D000EB421245EA0343C0F81C38D2F88D
:1052B000000B00040BD40B890979D2F8000BC3F35F
:1052C0000A03184344EA81410843C2F8000B002056
:1052D00070BD9EB23543C0F81C5800EB4213D3F8A2
:1052E00000090004F3D40D890979D3F80009C5F346
:1052F0000A058904284341EA825108432043C3F840
:105300000009E4E700800010D0F800196FF30A01EB
:10531000C0F80019D0F8041841F48071C0F80418DE
:105320000020704770B504461D4606990A9E0D98E8
:1053300001291DD0E06840F04000E060204600F008
:1053400035F8A16B5EB321F48031A163012D0ED13C
:10535000E16D144A89B2E165E16D1143E165A1682F
:1053600041F00601A160A16841F02001A16070BD7B
:10537000A26B01280C4922F48030A063E06800EAA7
:105380000100E060E06820F44010E06003D1E068D4
:1053900040F48010E060204600F008F8D6E741F4C1
:1053A0008031D2E70000EE03BFFFBDFF08B50E4914
:1053B00000220092009B5B1C00938B420CD8036977
:1053C000002BF7DA0092026942F001020261009AB2
:1053D000521C00928A4201D9032008BD0269D207FB
:1053E000F5D1002008BD0000400D030070B50A781B
:1053F00001234C78012C00EB42122CD0D2F8004B48
:10540000002C0BDAD2F8004B44F00064C2F8004BD9
:10541000D2F8004B44F08044C2F8004B0C78D0F82E
:105420003C5804F00F0403FA04F425EA0444C0F8DD
:105430003C480978D0F81C4801F00F018B401C490A
:1054400024EA0343C0F81C38D2F8000B0840C2F825
:10545000000B002070BDD2F80049002C0BDAD2F806
:10546000004944F00064C2F80049D2F8004944F011
:105470008044C2F800490D78D0F83C4805F00F058B
:105480000C4E03FA05F5ADB2AC43C0F83C48D0F879
:105490001C48097801F00F018B4099B28C43C0F889
:1054A0001C48D2F800093040C2F80009D1E70000DA
:1054B0000078F3EF007833ECD0F8001E21F0030100
:1054C000C0F8001ED0F8041821F00201C0F804183A
:1054D00000207047D0F8001E21F00301C0F8001E24
:1054E000D0F8041841F00201C0F8041800207047F9
:1054F0002DE9F04F9A460E4600210446DDE90B3BAC
:10550000109F0D46099A084604EB800CCCF8041154
:10551000401C0F28F8D32046A7B1806B40F4001C34
:10552000C4F838C088460846C4F8000E2046D4F8AF
:105530000018012BC4F800181AD0D0F8001841F058
:1055400003011AE0D0F8040840F0020CC4F804C8C3
:10555000A06B20F4001CC4F838C0206840F0400C58
:10556000C4F800C0206840F0800CC4F800C0D9E73F
:10557000D0F800180AB141F00101C0F8001810215C
:1055800000F08CFA00B10125204600F069FA00B164
:10559000012540464FF000684FF67F334FF09049A9
:1055A000C4F81008C4F81408C4F81C08002114E05A
:1055B00004EB4112D2F800C9BCF1000F06DA11B1B8
:1055C000C2F8009904E0C4F8008901E0C2F80009BB
:1055D000C2F81009C2F80839491C8E42E8D80021E7
:1055E00015E000BF04EB4112D2F800CBBCF1000F74
:1055F00006DA11B1C2F8009B04E0C4F8008B01E0A8
:10560000C2F8000BC2F8100BC2F8083B491C8E42CE
:10561000E8D8D4F81038BAF1000F6FF0804223F4C4
:105620008073C4F81038A061626103D1A06940F0B2
:105630001000A061A069BBF1000F094A40EA020016
:10564000A06103D0A06940F00800A061012F03D140
:10565000A06904490843A0612846BDE8F08F000016
:1056600000383C8004000040816821F00101816025
:105670000020704710B5144C036CA34203D9D0F836
:10568000003B002B1EDB0023C0F8103B0129D0F8A3
:10569000101B41F40021C0F8101BD0F8101B41F082
:1056A0001801C0F8101BD0F8101B41F0C041C0F821
:1056B000101B07D1C0F8142BD0F8001B41F080213B
:1056C000C0F8001B002010BD0A30544F0B784A78F8
:1056D000012A00EB43100BD0D0F8002B22F400126B
:1056E000C0F8002B0979032914D0022912D017E041
:1056F000D0F8002922F40012C0F800290979032902
:1057000001D002290CD1D0F8001941F08051C0F825
:10571000001905E0D0F8001B41F08051C0F8001BD3
:10572000002070470A784B78D1B2012B00EB421071
:1057300012D0D0F8002B002A06DB29B1D0F8001BCC
:1057400021F08041C0F8001BD0F8001B41F400118B
:10575000C0F8001B00207047D0F80029002A06DBA3
:1057600029B1D0F8001921F08041C0F80019D0F813
:10577000001941F40011C0F80019EBE7F8B50B78F7
:105780006FF060464F788A4DDCB2012F00EB431377
:105790002BD0D3F8107B002C07EAC544C3F8104B7C
:1057A000D3F8104B04EA0504C3F8104B7ED00D6902
:1057B000002D7CD08C6825446D1EB5FBF4F5ADB290
:1057C0006C430C6206EAC545D3F8104B2C43C3F872
:1057D000104BD3F8104B0D6AC5F3120554EA0504BB
:1057E000C3F8104B012A6ED0C9E00F6937B3D3F864
:1057F00010796FF31207C3F81079D3F8107907EA1C
:105800000507C3F810794CB30F698D68D3F810C938
:105810002F447F1EB7FBF5F506EAC54545EA0C05A2
:10582000C3F810590E69D3F81059C6F31206354360
:10583000C3F810590D79012D1CD027E0D3F8106959
:105840002E40C3F81069D3F8105945F40025C3F869
:105850001059D3F810596FF3120515E00E698D68D1
:10586000AE4200D90D61D0F8106946F40026C0F8A8
:105870001069D7E7D3F8105925F0C045C3F810597F
:10588000D3F8105945F00055C3F81059012A1BD020
:1058900000EB4413D3F8004944F00444C3F8004932
:1058A0000C79012C31D00A6972B301E042E055E075
:1058B0000B78D0F83418012203F00F039A401143FB
:1058C000C0F8341871E056E0CA691AB100EB44130D
:1058D000C3F81429097901290ED1D0F80818C9058F
:1058E00000EB4411D1F8002902D442F0005201E04B
:1058F00042F08052C1F8002900EB4410D0F80019A2
:1059000041F00441C0F800194FE0D0F80848E40520
:10591000D3F8004902D444F0005401E044F080542C
:10592000C3F8004900920B8A0A78C9689BB200F05C
:10593000E7F93AE00C690CB18C680C618C680C6278
:10594000C4F31205D0F8104B2C43C0F8104BD0F81C
:10595000104B44F40024C0F8104B43E78D68D3F893
:10596000104BC5F312052C43C3F8104BD3F8104B62
:1059700044F4002434E7CA680AB1C3F8142B097947
:1059800001290CD1D0F80808C005D3F8000B02D4C7
:1059900040F0005001E040F08050C3F8000BD3F815
:1059A000000B40F00440C3F8000B0020F8BD0000DD
:1059B000FFFF07E038B5002242F210740023009286
:1059C0000A784D78012D00EB421219D0D2F8005B15
:1059D000002D3CDAD2F8005B45F00065C2F8005BB0
:1059E0000A7800EB4212D2F8005B45F08045C2F81D
:1059F000005B009A521C0092A24221D9012326E0AA
:105A0000D2F80059002D22DAD2F8005945F000658D
:105A1000C2F800590A7800EB4212D2F8005945F05A
:105A20008045C2F80059009A521C0092A242E5D863
:105A30000A7800EB4212D2F80029002AF3DB06E0D4
:105A40000A7800EB4212D2F8002B002AD1DB18466C
:105A500038BD816841F0010181600020704700007D
:105A600008B50D4900220092009B5B1C00938B42FD
:105A70000AD80369002BF7DA009210230361009A19
:105A8000521C00928A4201D9032008BD0269D20645
:105A9000F5D4002008BD0000400D030018B50E4AE3
:105AA00000230093009C641C009494420CD8046969
:105AB000002CF7DA2024009344EA81110161009957
:105AC000491C0091914201D9032018BD0169890642
:105AD000F5D4002018BD0000400D0300D0F80808E0
:105AE00010F0060004D0022803D0062801D00F20B1
:105AF000704702207047406900F001007047D0F8FD
:105B00001818D0F81C08084080B27047D0F8181850
:105B1000D0F81C080840000C704710B5D0F81028C9
:105B200001F00F0300EB4114D0F83418D4F8080941
:105B3000D94001F0010142EAC111084010BD00EB5B
:105B40004111D1F8081BD0F814080840704741698A
:105B50008069084070470346084630B5940802F053
:105B60000301002203F5805303E01D68521C40F836
:105B7000045BA242F9D300290CD01C680023491E03
:105B8000DD00090403F10103090C24FA05F200F811
:105B9000012BF4D130BD70B50446C06801294FF027
:105BA000000520F0C040E06001D079B120E0E0685D
:105BB00040F00050E0600120FAF7BAFE60696D1C09
:105BC00010F0010F10D1322DF5D30DE0E06840F058
:105BD0008040E0600120FAF7ABFE60696D1C10F0B8
:105BE000010F01D0322DF5D3322D01D0002070BD30
:105BF000012070BDD0F800284FF4FE6303EA0113C2
:105C000022F4FE62C0F80028D0F800181943C0F84A
:105C10000018002070470000022A3ED1264A274B78
:105C20000A449A4201D20F2138E0254A254B0A4402
:105C30009A4201D20E2131E0234A244B0A449A426F
:105C400001D20D212AE0224A224B0A449A4201D273
:105C50000C2123E0204B214A0B44934201D20B211B
:105C60001CE01F4B1F4A0B44934201D20A2115E04E
:105C70001D4B1E4A0B4493420FD31D4B1D4A0B4430
:105C8000934201D2082109E01B4B1C4A194491425E
:105C900001D2072102E0062100E00921C2684FF489
:105CA000705322F47052C26003EA8123C168194321
:105CB000C160002070470000405327FF00350C00F2
:105CC000401E1BFF40420F0000DC0BFF804F120004
:105CD000808CF9FE20D6130060B6E5FE60E3160066
:105CE00000D3CEFE40771B00C05BB3FEC091210005
:105CF00000CA91FE20753800E05459FEE09C410036
:105D000010B5029C74B900EB0232DB1C00209B082A
:105D100002F5805204E000BF51F8044B1460401CAF
:105D20009842F9D3002010BD0FB414484FF400611D
:105D30002DE9F04107AB069A00F026F80546104819
:105D400090F89C12032703290FD1D0F8BC62FAF710
:105D500023FF044605E000BFFAF71EFF001BB84210
:105D600003D8D6F814020028F6D1A9B20348FAF7EE
:105D7000C5FDBDE8F0015DF814FB00003C0F0024F8
:105D800060020024FEE700007CB5044600201D46AA
:105D9000164600290BD0491ECDE90041044B6A4646
:105DA0002946304600F0E8F8009A002111707CBDC9
:105DB000A7660008090700284FEA116104DB00F11B
:105DC000E02080F80014704700F00F0000F1E020A0
:105DD00080F8141D704702E008C8121F08C1002A8D
:105DE000FAD170477047002001E001C1121F002A5C
:105DF000FBD170472DE9FF5F82B00021DDE904305F
:105E0000020DDDF840B0034318D044F61050A2F262
:105E1000FF3242431514119801281FD0A5EB0B0047
:105E2000401C5FEA000A4FF000064E4FDFF8389141
:105E3000B046504615D5CAF1000413E0119801246C
:105E40004AA3012801D16FEA0B010298119AC0E917
:105E50000031C0E9024206B0BDE8F09FCBF100007E
:105E6000DFE704460021404A491842EB0450CDE9DF
:105E7000001012E0E00707D032463B464046494654
:105E8000FAF757FB8046894632463B46104619468C
:105E9000FAF74FFB06460F466410002CEAD1DDE905
:105EA0000401DDE90023BAF1000F06DAFAF741FB3D
:105EB00042464B46FAF73DFB05E0FAF7ACFB42469B
:105EC0004B46FAF7A8FB04460E460022284BFAF789
:105ED00029FC03D84FF0FF30014607E00022254B94
:105EE00020463146FAF77EFAFAF704FC102409E05E
:105EF000002C0ADB0A220023FAF7EAF9039B30326E
:105F00001A55641E50EA0102F2D1641C039AC4F1CE
:105F100011031444119A012A03D0012208430DD120
:105F20000AE0084304D000204FF0110B119072E7F3
:105F3000A3EB0B056D1E0DE05B4504DD4FF0000289
:105F400005F1010504E003DA4FF00002A5F10105B7
:105F5000002AECD002981199C0E90231C0E900454D
:105F600079E70000000014400000F03F300000001E
:105F70000000F0430000E03F2DE9FF4F95B09B4645
:105F80008946064600250FE2252877D100242746BA
:105F9000F84A0121059400E0044316F8013F203B34
:105FA00001FA03F01042F7D130782A2811D06FF0AF
:105FB0002F033078A0F13002092A16D8059A44F050
:105FC000020402EB820203EB42021044761C0590AD
:105FD000EFE759F8042B0592002A03DA504244F403
:105FE0000054059044F00204761C30782E2816D117
:105FF00016F8010F44F004042A280DD06FF02F0288
:106000003078A0F13003092B09D807EB870302EBA6
:106010004303C718761CF3E759F8047B761C3078E5
:106020006C280FD006DC4C2817D068280DD06A28C1
:1060300014D104E0742810D07A280FD10DE044F474
:1060400000140AE044F4801401E044F4401472782F
:10605000824202D104F58014761C761C30786628C2
:106060000BD013DC582877D009DC002875D04528E0
:10607000F6D04628F4D047281AD19DE118E06328CD
:1060800035D0642879D0652812D195E1702873D075
:1060900008DC6728F1D069286FD06E280DD06F28F2
:1060A00006D1B5E073282CD0752875D0782874D027
:1060B0005A46179990476D1C75E1C4F302500228A7
:1060C00009D003280DD0D9F8001004280DD00D6098
:1060D00009F1040967E1D9F80010EA17C1E9005293
:1060E000F6E7D9F800100D80F2E70D70F0E719F827
:1060F000041B8DF8001000208DF80100EA460120F5
:1061000003E059F804AB4FF0FF3061074FF0000196
:1061100002D40DE008F101018846B9420FDA80454A
:10612000F8DB1AF808100029F4D108E008F10101A1
:1061300088468142FADB1AF808100029F6D1059842
:106140005B46A0EB080721463846179A00F094FA00
:10615000284400EB080507E04DE029E10DE01AF8BE
:10616000010B5A4617999047B8F10108F7D25B46E0
:1061700021463846179A13E142E00A220092C4F3FE
:1061800002524FF0000A022A08D059F804CB032A21
:106190004FEAEC710AD00DE029E02AE009F107018D
:1061A00021F00702F2E802C1914609E00FFA8CFCE7
:1061B0004FEAEC71042A03D14FFA8CFC4FEAEC71E0
:1061C000002907DA0A460021DCF1000C61EB02012C
:1061D0002D2202E0220504D52B228DF80420012275
:1061E00003E0E20701D02022F7E7904659E00A21B8
:1061F00002E010220DE010214FF0000A00910BE0A8
:1062000010224FF0000A44F004040827009203E033
:1062100008224FF0000A0092C4F30252022A05D06D
:1062200059F804CB0021032A08D009E009F107013D
:1062300021F00702F2E802C1914605E01FFA8CFC4A
:10624000042A01D10CF0FF0C4FF00008220728D5DA
:10625000702806D0009B83F0100353EA0A0305D090
:106260000EE040228DF80420012208E05CEA0102E1
:1062700006D030228DF804208DF8050002229046C9
:10628000009B83F0080353EA0A030AD15CEA010287
:1062900001D1620705D530228DF804204FF00108A6
:1062A0007F1E582804D034A003900EA802900DE061
:1062B00036A0F9E753466046009AFAF709F8844693
:1062C0000398825C0298401E029002705CEA010012
:1062D000F0D1029806A9081A00F1200A600702D539
:1062E00024F4803400E00127574502DDA7EB0A00C3
:1062F00000E0002000EB0A01009005984144401A9C
:106300000590E00306D45B462146179A059800F0F5
:10631000B3F90544002706E001A85A46C05D179965
:1063200090476D1C7F1C4745F6DBE0030CD55B46B0
:106330002146179A059800F09FF9054404E03020A3
:106340005A46179990476D1C0099481E00900029E5
:10635000F5DC08E0029802995A460078491C02913F
:10636000179990476D1CBAF10001AAF1010AF1DCFE
:1063700065E1000009280100303132333435363709
:106380003839616263646566000000003031323381
:106390003435363738394142434445460000000021
:1063A00000F058F90544761C307800287FF4ECADF5
:1063B00019B02846BDE8F08F620700D4062709F11E
:1063C000070222F0070CFCE80223E14603F0004834
:1063D0005FEA080C02D00FF2702C0DE05FEA045C5B
:1063E00002D50FF2682C07E05FEAC47C02D00FF2FE
:1063F000602C01E0AFF2700C4FF0FF3823F0004347
:10640000CDF850C065280CD006DC452809D04628B8
:106410001DD047283DD13DE0662818D067287ED1A1
:1064200038E00021112F01DB112000E0781CCDE9BC
:10643000000106A90EA8FFF7DDFCDDE90F010E9AA9
:1064400003910021009207F1010A04914DE04FF001
:1064500000400097CDE9011006A90EA8FFF7CAFC7D
:10646000DDE90F0203920E9B11990022DDF80CA0CA
:106470000093049211B9791C00EB010AB7EB0A00F2
:1064800004D4C0F1FF3007F1010A0490AAEB070021
:10649000019044E0012F00DA01270021112F01DDD6
:1064A000112000E03846CDE9000106A90EA8FFF74B
:1064B000A1FCDDE90F010E9A0391002104910092E5
:1064C000BA4621070CD40399514500DA8A46BAF13D
:1064D000010F05DD009AAAF10101515C302908D0B5
:1064E000B84202DA10F1040F06DA0121CDE90110F9
:1064F00015E0AAF10101E9E7002805DC049901444F
:106500000491AAEB000102E0411C514500DD8A46DE
:106510000499401A401C01904FF00040029020075F
:1065200004D40198504501DBCDF8048000208DF89B
:106530004F0002980DF14F07B0F1004F25D02B20EE
:106540000E9002984FF0020800280CDA40420290A8
:106550002D200E9007E00A210298F9F70EFF303146
:10656000029007F8011DB8F10001A8F10108F2DC62
:1065700002980028EFD1791E0E980870307800F04C
:10658000200040F0450007F8020D12A8C01B00F1E2
:1065900007081498007800B1012000EB0A01019867
:1065A00001EBE07105984144401A401E0590E0035C
:1065B00006D45B462146179A059800F05DF805441D
:1065C0001498007818B15A46179990476D1CE0034B
:1065D00024D55B462146179A059800F04DF80544EE
:1065E0001CE00498002807DBDDE90301884203DD95
:1065F0000098405C179901E0179930205A4690475F
:10660000049805F10105401C04900198401E01907A
:1066100004D12E205A46179990476D1CBAF10001FB
:10662000AAF1010ADDDC05E017F8010B5A461799BB
:1066300090476D1CB8F10001A8F10108F4DC5B463D
:106640002146179A0598ABE62D0000002B000000AC
:10665000200000002DE9F041044600251E461746A3
:10666000880404D405E039462020B0476D1C641E20
:10667000F9D52846BDE8F0812DE9F0410446002512
:106680001E469046C80301D5302700E02027880425
:1066900004D505E041463846B0476D1C641EF9D567
:1066A0002846BDE8F0814A68002A06D00A68531CD3
:1066B0000B6010704868401E48607047304B0020E7
:1066C0001968890311D4BFF34F8FBFF36F8F2D4922
:1066D0000860BFF34F8FBFF36F8F196841F400312B
:1066E0001960BFF34F8FBFF36F8F1968C90322D4AE
:1066F000234970310860BFF34F8F081F43F6FF74C2
:106700000068204D1035C0F34E31C0F3C90204EAD1
:106710004116104646EA80772F60401EFAD2491E85
:10672000F5D2BFF34F8F186840F480301860BFF384
:106730004F8FBFF36F8FFAF73DFAFDF757F9FCF76C
:10674000CDFDFCF71BFEFCF74DFE0F4C4FF4005641
:106750004FF47A750D490EA0FFF7E6FA0122314693
:106760002046FAF70DFA2846FAF7E2F800223146F9
:106770002046FAF705FA2846FAF7DAF8EAE70000C1
:1067800014ED00E050EF00E0000802580000002483
:106790003E3E3E0D0A25730D0A0000000100020076
:1067A0000400060008000A000C0010002000400051
:1067B0008000000101010103070100000804020438
:1067C00008010101000000000102030401020304AA
:1067D00006070809F46700080000002450010000C3
:1067E00056080008F4680008500100241821000031
:1067F000E65D000820434D616B6572426173650D73
:106800000A7777772E67656E626F747465722E6390
:106810006F6D0D0A53544D3332483735305642545C
:10682000360D0AD0E9C4E2B4AEBFDA7072696E7494
:1068300066B4F2D3A10D0A2013BD471B08ED041A5C
:10684000F9041321481B084D041A9D0C1AC9044170
:1068500017040309041201140202021640830440C3
:1068600057260201020301031A1A0313BD081B086D
:10687000B7041AB3041AE1041AF904193311821087
:106880003C90D003043114810182130A0632022A9B
:1068900040241C090243631125C03209041B010274
:1068A0000B1305241610010524011009010424020C
:1068B00002052406170107058203081C1009049924
:1068C000320A2E0705010240072A810711132544C9
:1068D000140891424C08C745C41321431408DD41F4
:1068E0001B085314C11AA5181A65041AE5041A598D
:0468F00004000000A0
:040000050800029954
:00000001FF
